{
	"compilerInput": "{\"language\":\"Solidity\",\"sources\":{\"Asset.sol\":{\"content\":\"// SPDX-License-Identifier: MIT\\r\\npragma solidity ^0.8.0;\\r\\n\\r\\ncontract HederaAssetContract {\\r\\n    struct Asset {\\r\\n        string asset_id;\\r\\n        bytes asset_hash;\\r\\n        uint256 submission_time;\\r\\n    }\\r\\n\\r\\n    Asset[] public assets;\\r\\n\\r\\n    event AssetHashSubmitted(\\r\\n        uint256 indexed assetIndex,\\r\\n        string asset_id,\\r\\n        bytes asset_hash,\\r\\n        uint256 submission_time\\r\\n    );\\r\\n\\r\\n    function submitAssetHash(\\r\\n        string memory asset_id,\\r\\n        bytes memory asset_hash\\r\\n    ) public {\\r\\n        require(bytes(asset_id).length > 0, \\\"Asset ID is required.\\\");\\r\\n        require(asset_hash.length == 32, \\\"Asset hash must be 32 bytes.\\\");\\r\\n\\r\\n        uint256 assetIndex = assets.length;\\r\\n\\r\\n        assets.push(\\r\\n            Asset({\\r\\n                asset_id: asset_id,\\r\\n                asset_hash: asset_hash,\\r\\n                submission_time: block.timestamp\\r\\n            })\\r\\n        );\\r\\n\\r\\n        emit AssetHashSubmitted(\\r\\n            assetIndex,\\r\\n            asset_id,\\r\\n            asset_hash,\\r\\n            block.timestamp\\r\\n        );\\r\\n    }\\r\\n\\r\\n    // Fetch all stored asset hashes\\r\\n    function getAssets() public view returns (Asset[] memory) {\\r\\n        return assets;\\r\\n    }\\r\\n\\r\\n    // Fetch a specific asset by index\\r\\n    function getAssetById(uint256 assetIndex) public view returns (Asset memory) {\\r\\n        require(assetIndex < assets.length, \\\"Asset does not exist.\\\");\\r\\n        return assets[assetIndex];\\r\\n    }\\r\\n}\\r\\n\"}},\"settings\":{\"optimizer\":{\"enabled\":false,\"runs\":200},\"outputSelection\":{\"*\":{\"\":[\"ast\"],\"*\":[\"abi\",\"metadata\",\"devdoc\",\"userdoc\",\"storageLayout\",\"evm.legacyAssembly\",\"evm.bytecode\",\"evm.deployedBytecode\",\"evm.methodIdentifiers\",\"evm.gasEstimates\",\"evm.assembly\"]}},\"remappings\":[]}}",
	"name": "HederaAssetContract",
	"bytecode": {
		"linkReferences": {},
		"object": "6080604052348015600e575f5ffd5b506112518061001c5f395ff3fe608060405234801561000f575f5ffd5b506004361061004a575f3560e01c806367e4ac2c1461004e5780639d9557841461006c578063b3e444a714610088578063cf35bdd0146100b8575b5f5ffd5b6100566100ea565b60405161006391906108a7565b60405180910390f35b61008660048036038101906100819190610aa2565b61026e565b005b6100a2600480360381019061009d9190610b42565b6103b6565b6040516100af9190610bc1565b60405180910390f35b6100d260048036038101906100cd9190610b42565b61055e565b6040516100e193929190610c80565b60405180910390f35b60605f805480602002602001604051908101604052809291908181526020015f905b82821015610265578382905f5260205f2090600302016040518060600160405290815f8201805461013c90610cf0565b80601f016020809104026020016040519081016040528092919081815260200182805461016890610cf0565b80156101b35780601f1061018a576101008083540402835291602001916101b3565b820191905f5260205f20905b81548152906001019060200180831161019657829003601f168201915b505050505081526020016001820180546101cc90610cf0565b80601f01602080910402602001604051908101604052809291908181526020018280546101f890610cf0565b80156102435780601f1061021a57610100808354040283529160200191610243565b820191905f5260205f20905b81548152906001019060200180831161022657829003601f168201915b505050505081526020016002820154815250508152602001906001019061010c565b50505050905090565b5f8251116102b1576040517f08c379a00000000000000000000000000000000000000000000000000000000081526004016102a890610d6a565b60405180910390fd5b60208151146102f5576040517f08c379a00000000000000000000000000000000000000000000000000000000081526004016102ec90610dd2565b60405180910390fd5b5f5f8054905090505f604051806060016040528085815260200184815260200142815250908060018154018082558091505060019003905f5260205f2090600302015f909190919091505f820151815f0190816103529190610f90565b50602082015181600101908161036891906110b7565b50604082015181600201555050807ff3c6b7b3ff355d728d0dbf07abb80a9934ada89ffee658478ffe970adec675698484426040516103a993929190610c80565b60405180910390a2505050565b6103be61069e565b5f805490508210610404576040517f08c379a00000000000000000000000000000000000000000000000000000000081526004016103fb906111d0565b60405180910390fd5b5f8281548110610417576104166111ee565b5b905f5260205f2090600302016040518060600160405290815f8201805461043d90610cf0565b80601f016020809104026020016040519081016040528092919081815260200182805461046990610cf0565b80156104b45780601f1061048b576101008083540402835291602001916104b4565b820191905f5260205f20905b81548152906001019060200180831161049757829003601f168201915b505050505081526020016001820180546104cd90610cf0565b80601f01602080910402602001604051908101604052809291908181526020018280546104f990610cf0565b80156105445780601f1061051b57610100808354040283529160200191610544565b820191905f5260205f20905b81548152906001019060200180831161052757829003601f168201915b505050505081526020016002820154815250509050919050565b5f818154811061056c575f80fd5b905f5260205f2090600302015f91509050805f01805461058b90610cf0565b80601f01602080910402602001604051908101604052809291908181526020018280546105b790610cf0565b80156106025780601f106105d957610100808354040283529160200191610602565b820191905f5260205f20905b8154815290600101906020018083116105e557829003601f168201915b50505050509080600101805461061790610cf0565b80601f016020809104026020016040519081016040528092919081815260200182805461064390610cf0565b801561068e5780601f106106655761010080835404028352916020019161068e565b820191905f5260205f20905b81548152906001019060200180831161067157829003601f168201915b5050505050908060020154905083565b604051806060016040528060608152602001606081526020015f81525090565b5f81519050919050565b5f82825260208201905092915050565b5f819050602082019050919050565b5f81519050919050565b5f82825260208201905092915050565b8281835e5f83830152505050565b5f601f19601f8301169050919050565b5f610729826106e7565b61073381856106f1565b9350610743818560208601610701565b61074c8161070f565b840191505092915050565b5f81519050919050565b5f82825260208201905092915050565b5f61077b82610757565b6107858185610761565b9350610795818560208601610701565b61079e8161070f565b840191505092915050565b5f819050919050565b6107bb816107a9565b82525050565b5f606083015f8301518482035f8601526107db828261071f565b915050602083015184820360208601526107f58282610771565b915050604083015161080a60408601826107b2565b508091505092915050565b5f61082083836107c1565b905092915050565b5f602082019050919050565b5f61083e826106be565b61084881856106c8565b93508360208202850161085a856106d8565b805f5b8581101561089557848403895281516108768582610815565b945061088183610828565b925060208a0199505060018101905061085d565b50829750879550505050505092915050565b5f6020820190508181035f8301526108bf8184610834565b905092915050565b5f604051905090565b5f5ffd5b5f5ffd5b5f5ffd5b5f5ffd5b7f4e487b71000000000000000000000000000000000000000000000000000000005f52604160045260245ffd5b6109168261070f565b810181811067ffffffffffffffff82111715610935576109346108e0565b5b80604052505050565b5f6109476108c7565b9050610953828261090d565b919050565b5f67ffffffffffffffff821115610972576109716108e0565b5b61097b8261070f565b9050602081019050919050565b828183375f83830152505050565b5f6109a86109a384610958565b61093e565b9050828152602081018484840111156109c4576109c36108dc565b5b6109cf848285610988565b509392505050565b5f82601f8301126109eb576109ea6108d8565b5b81356109fb848260208601610996565b91505092915050565b5f67ffffffffffffffff821115610a1e57610a1d6108e0565b5b610a278261070f565b9050602081019050919050565b5f610a46610a4184610a04565b61093e565b905082815260208101848484011115610a6257610a616108dc565b5b610a6d848285610988565b509392505050565b5f82601f830112610a8957610a886108d8565b5b8135610a99848260208601610a34565b91505092915050565b5f5f60408385031215610ab857610ab76108d0565b5b5f83013567ffffffffffffffff811115610ad557610ad46108d4565b5b610ae1858286016109d7565b925050602083013567ffffffffffffffff811115610b0257610b016108d4565b5b610b0e85828601610a75565b9150509250929050565b610b21816107a9565b8114610b2b575f5ffd5b50565b5f81359050610b3c81610b18565b92915050565b5f60208284031215610b5757610b566108d0565b5b5f610b6484828501610b2e565b91505092915050565b5f606083015f8301518482035f860152610b87828261071f565b91505060208301518482036020860152610ba18282610771565b9150506040830151610bb660408601826107b2565b508091505092915050565b5f6020820190508181035f830152610bd98184610b6d565b905092915050565b5f82825260208201905092915050565b5f610bfb826106e7565b610c058185610be1565b9350610c15818560208601610701565b610c1e8161070f565b840191505092915050565b5f82825260208201905092915050565b5f610c4382610757565b610c4d8185610c29565b9350610c5d818560208601610701565b610c668161070f565b840191505092915050565b610c7a816107a9565b82525050565b5f6060820190508181035f830152610c988186610bf1565b90508181036020830152610cac8185610c39565b9050610cbb6040830184610c71565b949350505050565b7f4e487b71000000000000000000000000000000000000000000000000000000005f52602260045260245ffd5b5f6002820490506001821680610d0757607f821691505b602082108103610d1a57610d19610cc3565b5b50919050565b7f41737365742049442069732072657175697265642e00000000000000000000005f82015250565b5f610d54601583610be1565b9150610d5f82610d20565b602082019050919050565b5f6020820190508181035f830152610d8181610d48565b9050919050565b7f41737365742068617368206d7573742062652033322062797465732e000000005f82015250565b5f610dbc601c83610be1565b9150610dc782610d88565b602082019050919050565b5f6020820190508181035f830152610de981610db0565b9050919050565b5f819050815f5260205f209050919050565b5f6020601f8301049050919050565b5f82821b905092915050565b5f60088302610e4c7fffffffffffffffffffffffffffffffffffffffffffffffffffffffffffffffff82610e11565b610e568683610e11565b95508019841693508086168417925050509392505050565b5f819050919050565b5f610e91610e8c610e87846107a9565b610e6e565b6107a9565b9050919050565b5f819050919050565b610eaa83610e77565b610ebe610eb682610e98565b848454610e1d565b825550505050565b5f5f905090565b610ed5610ec6565b610ee0818484610ea1565b505050565b5b81811015610f0357610ef85f82610ecd565b600181019050610ee6565b5050565b601f821115610f4857610f1981610df0565b610f2284610e02565b81016020851015610f31578190505b610f45610f3d85610e02565b830182610ee5565b50505b505050565b5f82821c905092915050565b5f610f685f1984600802610f4d565b1980831691505092915050565b5f610f808383610f59565b9150826002028217905092915050565b610f99826106e7565b67ffffffffffffffff811115610fb257610fb16108e0565b5b610fbc8254610cf0565b610fc7828285610f07565b5f60209050601f831160018114610ff8575f8415610fe6578287015190505b610ff08582610f75565b865550611057565b601f19841661100686610df0565b5f5b8281101561102d57848901518255600182019150602085019450602081019050611008565b8683101561104a5784890151611046601f891682610f59565b8355505b6001600288020188555050505b505050505050565b5f819050815f5260205f209050919050565b601f8211156110b2576110838161105f565b61108c84610e02565b8101602085101561109b578190505b6110af6110a785610e02565b830182610ee5565b50505b505050565b6110c082610757565b67ffffffffffffffff8111156110d9576110d86108e0565b5b6110e38254610cf0565b6110ee828285611071565b5f60209050601f83116001811461111f575f841561110d578287015190505b6111178582610f75565b86555061117e565b601f19841661112d8661105f565b5f5b828110156111545784890151825560018201915060208501945060208101905061112f565b86831015611171578489015161116d601f891682610f59565b8355505b6001600288020188555050505b505050505050565b7f417373657420646f6573206e6f742065786973742e00000000000000000000005f82015250565b5f6111ba601583610be1565b91506111c582611186565b602082019050919050565b5f6020820190508181035f8301526111e7816111ae565b9050919050565b7f4e487b71000000000000000000000000000000000000000000000000000000005f52603260045260245ffdfea2646970667358221220417a7994c1bfc307e3cea1e84770f5f86c846b5cbd795e8faf0cf164c28f431464736f6c634300081c0033",
		"opcodes": "PUSH1 0x80 PUSH1 0x40 MSTORE CALLVALUE DUP1 ISZERO PUSH1 0xE JUMPI PUSH0 PUSH0 REVERT JUMPDEST POP PUSH2 0x1251 DUP1 PUSH2 0x1C PUSH0 CODECOPY PUSH0 RETURN INVALID PUSH1 0x80 PUSH1 0x40 MSTORE CALLVALUE DUP1 ISZERO PUSH2 0xF JUMPI PUSH0 PUSH0 REVERT JUMPDEST POP PUSH1 0x4 CALLDATASIZE LT PUSH2 0x4A JUMPI PUSH0 CALLDATALOAD PUSH1 0xE0 SHR DUP1 PUSH4 0x67E4AC2C EQ PUSH2 0x4E JUMPI DUP1 PUSH4 0x9D955784 EQ PUSH2 0x6C JUMPI DUP1 PUSH4 0xB3E444A7 EQ PUSH2 0x88 JUMPI DUP1 PUSH4 0xCF35BDD0 EQ PUSH2 0xB8 JUMPI JUMPDEST PUSH0 PUSH0 REVERT JUMPDEST PUSH2 0x56 PUSH2 0xEA JUMP JUMPDEST PUSH1 0x40 MLOAD PUSH2 0x63 SWAP2 SWAP1 PUSH2 0x8A7 JUMP JUMPDEST PUSH1 0x40 MLOAD DUP1 SWAP2 SUB SWAP1 RETURN JUMPDEST PUSH2 0x86 PUSH1 0x4 DUP1 CALLDATASIZE SUB DUP2 ADD SWAP1 PUSH2 0x81 SWAP2 SWAP1 PUSH2 0xAA2 JUMP JUMPDEST PUSH2 0x26E JUMP JUMPDEST STOP JUMPDEST PUSH2 0xA2 PUSH1 0x4 DUP1 CALLDATASIZE SUB DUP2 ADD SWAP1 PUSH2 0x9D SWAP2 SWAP1 PUSH2 0xB42 JUMP JUMPDEST PUSH2 0x3B6 JUMP JUMPDEST PUSH1 0x40 MLOAD PUSH2 0xAF SWAP2 SWAP1 PUSH2 0xBC1 JUMP JUMPDEST PUSH1 0x40 MLOAD DUP1 SWAP2 SUB SWAP1 RETURN JUMPDEST PUSH2 0xD2 PUSH1 0x4 DUP1 CALLDATASIZE SUB DUP2 ADD SWAP1 PUSH2 0xCD SWAP2 SWAP1 PUSH2 0xB42 JUMP JUMPDEST PUSH2 0x55E JUMP JUMPDEST PUSH1 0x40 MLOAD PUSH2 0xE1 SWAP4 SWAP3 SWAP2 SWAP1 PUSH2 0xC80 JUMP JUMPDEST PUSH1 0x40 MLOAD DUP1 SWAP2 SUB SWAP1 RETURN JUMPDEST PUSH1 0x60 PUSH0 DUP1 SLOAD DUP1 PUSH1 0x20 MUL PUSH1 0x20 ADD PUSH1 0x40 MLOAD SWAP1 DUP2 ADD PUSH1 0x40 MSTORE DUP1 SWAP3 SWAP2 SWAP1 DUP2 DUP2 MSTORE PUSH1 0x20 ADD PUSH0 SWAP1 JUMPDEST DUP3 DUP3 LT ISZERO PUSH2 0x265 JUMPI DUP4 DUP3 SWAP1 PUSH0 MSTORE PUSH1 0x20 PUSH0 KECCAK256 SWAP1 PUSH1 0x3 MUL ADD PUSH1 0x40 MLOAD DUP1 PUSH1 0x60 ADD PUSH1 0x40 MSTORE SWAP1 DUP2 PUSH0 DUP3 ADD DUP1 SLOAD PUSH2 0x13C SWAP1 PUSH2 0xCF0 JUMP JUMPDEST DUP1 PUSH1 0x1F ADD PUSH1 0x20 DUP1 SWAP2 DIV MUL PUSH1 0x20 ADD PUSH1 0x40 MLOAD SWAP1 DUP2 ADD PUSH1 0x40 MSTORE DUP1 SWAP3 SWAP2 SWAP1 DUP2 DUP2 MSTORE PUSH1 0x20 ADD DUP3 DUP1 SLOAD PUSH2 0x168 SWAP1 PUSH2 0xCF0 JUMP JUMPDEST DUP1 ISZERO PUSH2 0x1B3 JUMPI DUP1 PUSH1 0x1F LT PUSH2 0x18A JUMPI PUSH2 0x100 DUP1 DUP4 SLOAD DIV MUL DUP4 MSTORE SWAP2 PUSH1 0x20 ADD SWAP2 PUSH2 0x1B3 JUMP JUMPDEST DUP3 ADD SWAP2 SWAP1 PUSH0 MSTORE PUSH1 0x20 PUSH0 KECCAK256 SWAP1 JUMPDEST DUP2 SLOAD DUP2 MSTORE SWAP1 PUSH1 0x1 ADD SWAP1 PUSH1 0x20 ADD DUP1 DUP4 GT PUSH2 0x196 JUMPI DUP3 SWAP1 SUB PUSH1 0x1F AND DUP3 ADD SWAP2 JUMPDEST POP POP POP POP POP DUP2 MSTORE PUSH1 0x20 ADD PUSH1 0x1 DUP3 ADD DUP1 SLOAD PUSH2 0x1CC SWAP1 PUSH2 0xCF0 JUMP JUMPDEST DUP1 PUSH1 0x1F ADD PUSH1 0x20 DUP1 SWAP2 DIV MUL PUSH1 0x20 ADD PUSH1 0x40 MLOAD SWAP1 DUP2 ADD PUSH1 0x40 MSTORE DUP1 SWAP3 SWAP2 SWAP1 DUP2 DUP2 MSTORE PUSH1 0x20 ADD DUP3 DUP1 SLOAD PUSH2 0x1F8 SWAP1 PUSH2 0xCF0 JUMP JUMPDEST DUP1 ISZERO PUSH2 0x243 JUMPI DUP1 PUSH1 0x1F LT PUSH2 0x21A JUMPI PUSH2 0x100 DUP1 DUP4 SLOAD DIV MUL DUP4 MSTORE SWAP2 PUSH1 0x20 ADD SWAP2 PUSH2 0x243 JUMP JUMPDEST DUP3 ADD SWAP2 SWAP1 PUSH0 MSTORE PUSH1 0x20 PUSH0 KECCAK256 SWAP1 JUMPDEST DUP2 SLOAD DUP2 MSTORE SWAP1 PUSH1 0x1 ADD SWAP1 PUSH1 0x20 ADD DUP1 DUP4 GT PUSH2 0x226 JUMPI DUP3 SWAP1 SUB PUSH1 0x1F AND DUP3 ADD SWAP2 JUMPDEST POP POP POP POP POP DUP2 MSTORE PUSH1 0x20 ADD PUSH1 0x2 DUP3 ADD SLOAD DUP2 MSTORE POP POP DUP2 MSTORE PUSH1 0x20 ADD SWAP1 PUSH1 0x1 ADD SWAP1 PUSH2 0x10C JUMP JUMPDEST POP POP POP POP SWAP1 POP SWAP1 JUMP JUMPDEST PUSH0 DUP3 MLOAD GT PUSH2 0x2B1 JUMPI PUSH1 0x40 MLOAD PUSH32 0x8C379A000000000000000000000000000000000000000000000000000000000 DUP2 MSTORE PUSH1 0x4 ADD PUSH2 0x2A8 SWAP1 PUSH2 0xD6A JUMP JUMPDEST PUSH1 0x40 MLOAD DUP1 SWAP2 SUB SWAP1 REVERT JUMPDEST PUSH1 0x20 DUP2 MLOAD EQ PUSH2 0x2F5 JUMPI PUSH1 0x40 MLOAD PUSH32 0x8C379A000000000000000000000000000000000000000000000000000000000 DUP2 MSTORE PUSH1 0x4 ADD PUSH2 0x2EC SWAP1 PUSH2 0xDD2 JUMP JUMPDEST PUSH1 0x40 MLOAD DUP1 SWAP2 SUB SWAP1 REVERT JUMPDEST PUSH0 PUSH0 DUP1 SLOAD SWAP1 POP SWAP1 POP PUSH0 PUSH1 0x40 MLOAD DUP1 PUSH1 0x60 ADD PUSH1 0x40 MSTORE DUP1 DUP6 DUP2 MSTORE PUSH1 0x20 ADD DUP5 DUP2 MSTORE PUSH1 0x20 ADD TIMESTAMP DUP2 MSTORE POP SWAP1 DUP1 PUSH1 0x1 DUP2 SLOAD ADD DUP1 DUP3 SSTORE DUP1 SWAP2 POP POP PUSH1 0x1 SWAP1 SUB SWAP1 PUSH0 MSTORE PUSH1 0x20 PUSH0 KECCAK256 SWAP1 PUSH1 0x3 MUL ADD PUSH0 SWAP1 SWAP2 SWAP1 SWAP2 SWAP1 SWAP2 POP PUSH0 DUP3 ADD MLOAD DUP2 PUSH0 ADD SWAP1 DUP2 PUSH2 0x352 SWAP2 SWAP1 PUSH2 0xF90 JUMP JUMPDEST POP PUSH1 0x20 DUP3 ADD MLOAD DUP2 PUSH1 0x1 ADD SWAP1 DUP2 PUSH2 0x368 SWAP2 SWAP1 PUSH2 0x10B7 JUMP JUMPDEST POP PUSH1 0x40 DUP3 ADD MLOAD DUP2 PUSH1 0x2 ADD SSTORE POP POP DUP1 PUSH32 0xF3C6B7B3FF355D728D0DBF07ABB80A9934ADA89FFEE658478FFE970ADEC67569 DUP5 DUP5 TIMESTAMP PUSH1 0x40 MLOAD PUSH2 0x3A9 SWAP4 SWAP3 SWAP2 SWAP1 PUSH2 0xC80 JUMP JUMPDEST PUSH1 0x40 MLOAD DUP1 SWAP2 SUB SWAP1 LOG2 POP POP POP JUMP JUMPDEST PUSH2 0x3BE PUSH2 0x69E JUMP JUMPDEST PUSH0 DUP1 SLOAD SWAP1 POP DUP3 LT PUSH2 0x404 JUMPI PUSH1 0x40 MLOAD PUSH32 0x8C379A000000000000000000000000000000000000000000000000000000000 DUP2 MSTORE PUSH1 0x4 ADD PUSH2 0x3FB SWAP1 PUSH2 0x11D0 JUMP JUMPDEST PUSH1 0x40 MLOAD DUP1 SWAP2 SUB SWAP1 REVERT JUMPDEST PUSH0 DUP3 DUP2 SLOAD DUP2 LT PUSH2 0x417 JUMPI PUSH2 0x416 PUSH2 0x11EE JUMP JUMPDEST JUMPDEST SWAP1 PUSH0 MSTORE PUSH1 0x20 PUSH0 KECCAK256 SWAP1 PUSH1 0x3 MUL ADD PUSH1 0x40 MLOAD DUP1 PUSH1 0x60 ADD PUSH1 0x40 MSTORE SWAP1 DUP2 PUSH0 DUP3 ADD DUP1 SLOAD PUSH2 0x43D SWAP1 PUSH2 0xCF0 JUMP JUMPDEST DUP1 PUSH1 0x1F ADD PUSH1 0x20 DUP1 SWAP2 DIV MUL PUSH1 0x20 ADD PUSH1 0x40 MLOAD SWAP1 DUP2 ADD PUSH1 0x40 MSTORE DUP1 SWAP3 SWAP2 SWAP1 DUP2 DUP2 MSTORE PUSH1 0x20 ADD DUP3 DUP1 SLOAD PUSH2 0x469 SWAP1 PUSH2 0xCF0 JUMP JUMPDEST DUP1 ISZERO PUSH2 0x4B4 JUMPI DUP1 PUSH1 0x1F LT PUSH2 0x48B JUMPI PUSH2 0x100 DUP1 DUP4 SLOAD DIV MUL DUP4 MSTORE SWAP2 PUSH1 0x20 ADD SWAP2 PUSH2 0x4B4 JUMP JUMPDEST DUP3 ADD SWAP2 SWAP1 PUSH0 MSTORE PUSH1 0x20 PUSH0 KECCAK256 SWAP1 JUMPDEST DUP2 SLOAD DUP2 MSTORE SWAP1 PUSH1 0x1 ADD SWAP1 PUSH1 0x20 ADD DUP1 DUP4 GT PUSH2 0x497 JUMPI DUP3 SWAP1 SUB PUSH1 0x1F AND DUP3 ADD SWAP2 JUMPDEST POP POP POP POP POP DUP2 MSTORE PUSH1 0x20 ADD PUSH1 0x1 DUP3 ADD DUP1 SLOAD PUSH2 0x4CD SWAP1 PUSH2 0xCF0 JUMP JUMPDEST DUP1 PUSH1 0x1F ADD PUSH1 0x20 DUP1 SWAP2 DIV MUL PUSH1 0x20 ADD PUSH1 0x40 MLOAD SWAP1 DUP2 ADD PUSH1 0x40 MSTORE DUP1 SWAP3 SWAP2 SWAP1 DUP2 DUP2 MSTORE PUSH1 0x20 ADD DUP3 DUP1 SLOAD PUSH2 0x4F9 SWAP1 PUSH2 0xCF0 JUMP JUMPDEST DUP1 ISZERO PUSH2 0x544 JUMPI DUP1 PUSH1 0x1F LT PUSH2 0x51B JUMPI PUSH2 0x100 DUP1 DUP4 SLOAD DIV MUL DUP4 MSTORE SWAP2 PUSH1 0x20 ADD SWAP2 PUSH2 0x544 JUMP JUMPDEST DUP3 ADD SWAP2 SWAP1 PUSH0 MSTORE PUSH1 0x20 PUSH0 KECCAK256 SWAP1 JUMPDEST DUP2 SLOAD DUP2 MSTORE SWAP1 PUSH1 0x1 ADD SWAP1 PUSH1 0x20 ADD DUP1 DUP4 GT PUSH2 0x527 JUMPI DUP3 SWAP1 SUB PUSH1 0x1F AND DUP3 ADD SWAP2 JUMPDEST POP POP POP POP POP DUP2 MSTORE PUSH1 0x20 ADD PUSH1 0x2 DUP3 ADD SLOAD DUP2 MSTORE POP POP SWAP1 POP SWAP2 SWAP1 POP JUMP JUMPDEST PUSH0 DUP2 DUP2 SLOAD DUP2 LT PUSH2 0x56C JUMPI PUSH0 DUP1 REVERT JUMPDEST SWAP1 PUSH0 MSTORE PUSH1 0x20 PUSH0 KECCAK256 SWAP1 PUSH1 0x3 MUL ADD PUSH0 SWAP2 POP SWAP1 POP DUP1 PUSH0 ADD DUP1 SLOAD PUSH2 0x58B SWAP1 PUSH2 0xCF0 JUMP JUMPDEST DUP1 PUSH1 0x1F ADD PUSH1 0x20 DUP1 SWAP2 DIV MUL PUSH1 0x20 ADD PUSH1 0x40 MLOAD SWAP1 DUP2 ADD PUSH1 0x40 MSTORE DUP1 SWAP3 SWAP2 SWAP1 DUP2 DUP2 MSTORE PUSH1 0x20 ADD DUP3 DUP1 SLOAD PUSH2 0x5B7 SWAP1 PUSH2 0xCF0 JUMP JUMPDEST DUP1 ISZERO PUSH2 0x602 JUMPI DUP1 PUSH1 0x1F LT PUSH2 0x5D9 JUMPI PUSH2 0x100 DUP1 DUP4 SLOAD DIV MUL DUP4 MSTORE SWAP2 PUSH1 0x20 ADD SWAP2 PUSH2 0x602 JUMP JUMPDEST DUP3 ADD SWAP2 SWAP1 PUSH0 MSTORE PUSH1 0x20 PUSH0 KECCAK256 SWAP1 JUMPDEST DUP2 SLOAD DUP2 MSTORE SWAP1 PUSH1 0x1 ADD SWAP1 PUSH1 0x20 ADD DUP1 DUP4 GT PUSH2 0x5E5 JUMPI DUP3 SWAP1 SUB PUSH1 0x1F AND DUP3 ADD SWAP2 JUMPDEST POP POP POP POP POP SWAP1 DUP1 PUSH1 0x1 ADD DUP1 SLOAD PUSH2 0x617 SWAP1 PUSH2 0xCF0 JUMP JUMPDEST DUP1 PUSH1 0x1F ADD PUSH1 0x20 DUP1 SWAP2 DIV MUL PUSH1 0x20 ADD PUSH1 0x40 MLOAD SWAP1 DUP2 ADD PUSH1 0x40 MSTORE DUP1 SWAP3 SWAP2 SWAP1 DUP2 DUP2 MSTORE PUSH1 0x20 ADD DUP3 DUP1 SLOAD PUSH2 0x643 SWAP1 PUSH2 0xCF0 JUMP JUMPDEST DUP1 ISZERO PUSH2 0x68E JUMPI DUP1 PUSH1 0x1F LT PUSH2 0x665 JUMPI PUSH2 0x100 DUP1 DUP4 SLOAD DIV MUL DUP4 MSTORE SWAP2 PUSH1 0x20 ADD SWAP2 PUSH2 0x68E JUMP JUMPDEST DUP3 ADD SWAP2 SWAP1 PUSH0 MSTORE PUSH1 0x20 PUSH0 KECCAK256 SWAP1 JUMPDEST DUP2 SLOAD DUP2 MSTORE SWAP1 PUSH1 0x1 ADD SWAP1 PUSH1 0x20 ADD DUP1 DUP4 GT PUSH2 0x671 JUMPI DUP3 SWAP1 SUB PUSH1 0x1F AND DUP3 ADD SWAP2 JUMPDEST POP POP POP POP POP SWAP1 DUP1 PUSH1 0x2 ADD SLOAD SWAP1 POP DUP4 JUMP JUMPDEST PUSH1 0x40 MLOAD DUP1 PUSH1 0x60 ADD PUSH1 0x40 MSTORE DUP1 PUSH1 0x60 DUP2 MSTORE PUSH1 0x20 ADD PUSH1 0x60 DUP2 MSTORE PUSH1 0x20 ADD PUSH0 DUP2 MSTORE POP SWAP1 JUMP JUMPDEST PUSH0 DUP2 MLOAD SWAP1 POP SWAP2 SWAP1 POP JUMP JUMPDEST PUSH0 DUP3 DUP3 MSTORE PUSH1 0x20 DUP3 ADD SWAP1 POP SWAP3 SWAP2 POP POP JUMP JUMPDEST PUSH0 DUP2 SWAP1 POP PUSH1 0x20 DUP3 ADD SWAP1 POP SWAP2 SWAP1 POP JUMP JUMPDEST PUSH0 DUP2 MLOAD SWAP1 POP SWAP2 SWAP1 POP JUMP JUMPDEST PUSH0 DUP3 DUP3 MSTORE PUSH1 0x20 DUP3 ADD SWAP1 POP SWAP3 SWAP2 POP POP JUMP JUMPDEST DUP3 DUP2 DUP4 MCOPY PUSH0 DUP4 DUP4 ADD MSTORE POP POP POP JUMP JUMPDEST PUSH0 PUSH1 0x1F NOT PUSH1 0x1F DUP4 ADD AND SWAP1 POP SWAP2 SWAP1 POP JUMP JUMPDEST PUSH0 PUSH2 0x729 DUP3 PUSH2 0x6E7 JUMP JUMPDEST PUSH2 0x733 DUP2 DUP6 PUSH2 0x6F1 JUMP JUMPDEST SWAP4 POP PUSH2 0x743 DUP2 DUP6 PUSH1 0x20 DUP7 ADD PUSH2 0x701 JUMP JUMPDEST PUSH2 0x74C DUP2 PUSH2 0x70F JUMP JUMPDEST DUP5 ADD SWAP2 POP POP SWAP3 SWAP2 POP POP JUMP JUMPDEST PUSH0 DUP2 MLOAD SWAP1 POP SWAP2 SWAP1 POP JUMP JUMPDEST PUSH0 DUP3 DUP3 MSTORE PUSH1 0x20 DUP3 ADD SWAP1 POP SWAP3 SWAP2 POP POP JUMP JUMPDEST PUSH0 PUSH2 0x77B DUP3 PUSH2 0x757 JUMP JUMPDEST PUSH2 0x785 DUP2 DUP6 PUSH2 0x761 JUMP JUMPDEST SWAP4 POP PUSH2 0x795 DUP2 DUP6 PUSH1 0x20 DUP7 ADD PUSH2 0x701 JUMP JUMPDEST PUSH2 0x79E DUP2 PUSH2 0x70F JUMP JUMPDEST DUP5 ADD SWAP2 POP POP SWAP3 SWAP2 POP POP JUMP JUMPDEST PUSH0 DUP2 SWAP1 POP SWAP2 SWAP1 POP JUMP JUMPDEST PUSH2 0x7BB DUP2 PUSH2 0x7A9 JUMP JUMPDEST DUP3 MSTORE POP POP JUMP JUMPDEST PUSH0 PUSH1 0x60 DUP4 ADD PUSH0 DUP4 ADD MLOAD DUP5 DUP3 SUB PUSH0 DUP7 ADD MSTORE PUSH2 0x7DB DUP3 DUP3 PUSH2 0x71F JUMP JUMPDEST SWAP2 POP POP PUSH1 0x20 DUP4 ADD MLOAD DUP5 DUP3 SUB PUSH1 0x20 DUP7 ADD MSTORE PUSH2 0x7F5 DUP3 DUP3 PUSH2 0x771 JUMP JUMPDEST SWAP2 POP POP PUSH1 0x40 DUP4 ADD MLOAD PUSH2 0x80A PUSH1 0x40 DUP7 ADD DUP3 PUSH2 0x7B2 JUMP JUMPDEST POP DUP1 SWAP2 POP POP SWAP3 SWAP2 POP POP JUMP JUMPDEST PUSH0 PUSH2 0x820 DUP4 DUP4 PUSH2 0x7C1 JUMP JUMPDEST SWAP1 POP SWAP3 SWAP2 POP POP JUMP JUMPDEST PUSH0 PUSH1 0x20 DUP3 ADD SWAP1 POP SWAP2 SWAP1 POP JUMP JUMPDEST PUSH0 PUSH2 0x83E DUP3 PUSH2 0x6BE JUMP JUMPDEST PUSH2 0x848 DUP2 DUP6 PUSH2 0x6C8 JUMP JUMPDEST SWAP4 POP DUP4 PUSH1 0x20 DUP3 MUL DUP6 ADD PUSH2 0x85A DUP6 PUSH2 0x6D8 JUMP JUMPDEST DUP1 PUSH0 JUMPDEST DUP6 DUP2 LT ISZERO PUSH2 0x895 JUMPI DUP5 DUP5 SUB DUP10 MSTORE DUP2 MLOAD PUSH2 0x876 DUP6 DUP3 PUSH2 0x815 JUMP JUMPDEST SWAP5 POP PUSH2 0x881 DUP4 PUSH2 0x828 JUMP JUMPDEST SWAP3 POP PUSH1 0x20 DUP11 ADD SWAP10 POP POP PUSH1 0x1 DUP2 ADD SWAP1 POP PUSH2 0x85D JUMP JUMPDEST POP DUP3 SWAP8 POP DUP8 SWAP6 POP POP POP POP POP POP SWAP3 SWAP2 POP POP JUMP JUMPDEST PUSH0 PUSH1 0x20 DUP3 ADD SWAP1 POP DUP2 DUP2 SUB PUSH0 DUP4 ADD MSTORE PUSH2 0x8BF DUP2 DUP5 PUSH2 0x834 JUMP JUMPDEST SWAP1 POP SWAP3 SWAP2 POP POP JUMP JUMPDEST PUSH0 PUSH1 0x40 MLOAD SWAP1 POP SWAP1 JUMP JUMPDEST PUSH0 PUSH0 REVERT JUMPDEST PUSH0 PUSH0 REVERT JUMPDEST PUSH0 PUSH0 REVERT JUMPDEST PUSH0 PUSH0 REVERT JUMPDEST PUSH32 0x4E487B7100000000000000000000000000000000000000000000000000000000 PUSH0 MSTORE PUSH1 0x41 PUSH1 0x4 MSTORE PUSH1 0x24 PUSH0 REVERT JUMPDEST PUSH2 0x916 DUP3 PUSH2 0x70F JUMP JUMPDEST DUP2 ADD DUP2 DUP2 LT PUSH8 0xFFFFFFFFFFFFFFFF DUP3 GT OR ISZERO PUSH2 0x935 JUMPI PUSH2 0x934 PUSH2 0x8E0 JUMP JUMPDEST JUMPDEST DUP1 PUSH1 0x40 MSTORE POP POP POP JUMP JUMPDEST PUSH0 PUSH2 0x947 PUSH2 0x8C7 JUMP JUMPDEST SWAP1 POP PUSH2 0x953 DUP3 DUP3 PUSH2 0x90D JUMP JUMPDEST SWAP2 SWAP1 POP JUMP JUMPDEST PUSH0 PUSH8 0xFFFFFFFFFFFFFFFF DUP3 GT ISZERO PUSH2 0x972 JUMPI PUSH2 0x971 PUSH2 0x8E0 JUMP JUMPDEST JUMPDEST PUSH2 0x97B DUP3 PUSH2 0x70F JUMP JUMPDEST SWAP1 POP PUSH1 0x20 DUP2 ADD SWAP1 POP SWAP2 SWAP1 POP JUMP JUMPDEST DUP3 DUP2 DUP4 CALLDATACOPY PUSH0 DUP4 DUP4 ADD MSTORE POP POP POP JUMP JUMPDEST PUSH0 PUSH2 0x9A8 PUSH2 0x9A3 DUP5 PUSH2 0x958 JUMP JUMPDEST PUSH2 0x93E JUMP JUMPDEST SWAP1 POP DUP3 DUP2 MSTORE PUSH1 0x20 DUP2 ADD DUP5 DUP5 DUP5 ADD GT ISZERO PUSH2 0x9C4 JUMPI PUSH2 0x9C3 PUSH2 0x8DC JUMP JUMPDEST JUMPDEST PUSH2 0x9CF DUP5 DUP3 DUP6 PUSH2 0x988 JUMP JUMPDEST POP SWAP4 SWAP3 POP POP POP JUMP JUMPDEST PUSH0 DUP3 PUSH1 0x1F DUP4 ADD SLT PUSH2 0x9EB JUMPI PUSH2 0x9EA PUSH2 0x8D8 JUMP JUMPDEST JUMPDEST DUP2 CALLDATALOAD PUSH2 0x9FB DUP5 DUP3 PUSH1 0x20 DUP7 ADD PUSH2 0x996 JUMP JUMPDEST SWAP2 POP POP SWAP3 SWAP2 POP POP JUMP JUMPDEST PUSH0 PUSH8 0xFFFFFFFFFFFFFFFF DUP3 GT ISZERO PUSH2 0xA1E JUMPI PUSH2 0xA1D PUSH2 0x8E0 JUMP JUMPDEST JUMPDEST PUSH2 0xA27 DUP3 PUSH2 0x70F JUMP JUMPDEST SWAP1 POP PUSH1 0x20 DUP2 ADD SWAP1 POP SWAP2 SWAP1 POP JUMP JUMPDEST PUSH0 PUSH2 0xA46 PUSH2 0xA41 DUP5 PUSH2 0xA04 JUMP JUMPDEST PUSH2 0x93E JUMP JUMPDEST SWAP1 POP DUP3 DUP2 MSTORE PUSH1 0x20 DUP2 ADD DUP5 DUP5 DUP5 ADD GT ISZERO PUSH2 0xA62 JUMPI PUSH2 0xA61 PUSH2 0x8DC JUMP JUMPDEST JUMPDEST PUSH2 0xA6D DUP5 DUP3 DUP6 PUSH2 0x988 JUMP JUMPDEST POP SWAP4 SWAP3 POP POP POP JUMP JUMPDEST PUSH0 DUP3 PUSH1 0x1F DUP4 ADD SLT PUSH2 0xA89 JUMPI PUSH2 0xA88 PUSH2 0x8D8 JUMP JUMPDEST JUMPDEST DUP2 CALLDATALOAD PUSH2 0xA99 DUP5 DUP3 PUSH1 0x20 DUP7 ADD PUSH2 0xA34 JUMP JUMPDEST SWAP2 POP POP SWAP3 SWAP2 POP POP JUMP JUMPDEST PUSH0 PUSH0 PUSH1 0x40 DUP4 DUP6 SUB SLT ISZERO PUSH2 0xAB8 JUMPI PUSH2 0xAB7 PUSH2 0x8D0 JUMP JUMPDEST JUMPDEST PUSH0 DUP4 ADD CALLDATALOAD PUSH8 0xFFFFFFFFFFFFFFFF DUP2 GT ISZERO PUSH2 0xAD5 JUMPI PUSH2 0xAD4 PUSH2 0x8D4 JUMP JUMPDEST JUMPDEST PUSH2 0xAE1 DUP6 DUP3 DUP7 ADD PUSH2 0x9D7 JUMP JUMPDEST SWAP3 POP POP PUSH1 0x20 DUP4 ADD CALLDATALOAD PUSH8 0xFFFFFFFFFFFFFFFF DUP2 GT ISZERO PUSH2 0xB02 JUMPI PUSH2 0xB01 PUSH2 0x8D4 JUMP JUMPDEST JUMPDEST PUSH2 0xB0E DUP6 DUP3 DUP7 ADD PUSH2 0xA75 JUMP JUMPDEST SWAP2 POP POP SWAP3 POP SWAP3 SWAP1 POP JUMP JUMPDEST PUSH2 0xB21 DUP2 PUSH2 0x7A9 JUMP JUMPDEST DUP2 EQ PUSH2 0xB2B JUMPI PUSH0 PUSH0 REVERT JUMPDEST POP JUMP JUMPDEST PUSH0 DUP2 CALLDATALOAD SWAP1 POP PUSH2 0xB3C DUP2 PUSH2 0xB18 JUMP JUMPDEST SWAP3 SWAP2 POP POP JUMP JUMPDEST PUSH0 PUSH1 0x20 DUP3 DUP5 SUB SLT ISZERO PUSH2 0xB57 JUMPI PUSH2 0xB56 PUSH2 0x8D0 JUMP JUMPDEST JUMPDEST PUSH0 PUSH2 0xB64 DUP5 DUP3 DUP6 ADD PUSH2 0xB2E JUMP JUMPDEST SWAP2 POP POP SWAP3 SWAP2 POP POP JUMP JUMPDEST PUSH0 PUSH1 0x60 DUP4 ADD PUSH0 DUP4 ADD MLOAD DUP5 DUP3 SUB PUSH0 DUP7 ADD MSTORE PUSH2 0xB87 DUP3 DUP3 PUSH2 0x71F JUMP JUMPDEST SWAP2 POP POP PUSH1 0x20 DUP4 ADD MLOAD DUP5 DUP3 SUB PUSH1 0x20 DUP7 ADD MSTORE PUSH2 0xBA1 DUP3 DUP3 PUSH2 0x771 JUMP JUMPDEST SWAP2 POP POP PUSH1 0x40 DUP4 ADD MLOAD PUSH2 0xBB6 PUSH1 0x40 DUP7 ADD DUP3 PUSH2 0x7B2 JUMP JUMPDEST POP DUP1 SWAP2 POP POP SWAP3 SWAP2 POP POP JUMP JUMPDEST PUSH0 PUSH1 0x20 DUP3 ADD SWAP1 POP DUP2 DUP2 SUB PUSH0 DUP4 ADD MSTORE PUSH2 0xBD9 DUP2 DUP5 PUSH2 0xB6D JUMP JUMPDEST SWAP1 POP SWAP3 SWAP2 POP POP JUMP JUMPDEST PUSH0 DUP3 DUP3 MSTORE PUSH1 0x20 DUP3 ADD SWAP1 POP SWAP3 SWAP2 POP POP JUMP JUMPDEST PUSH0 PUSH2 0xBFB DUP3 PUSH2 0x6E7 JUMP JUMPDEST PUSH2 0xC05 DUP2 DUP6 PUSH2 0xBE1 JUMP JUMPDEST SWAP4 POP PUSH2 0xC15 DUP2 DUP6 PUSH1 0x20 DUP7 ADD PUSH2 0x701 JUMP JUMPDEST PUSH2 0xC1E DUP2 PUSH2 0x70F JUMP JUMPDEST DUP5 ADD SWAP2 POP POP SWAP3 SWAP2 POP POP JUMP JUMPDEST PUSH0 DUP3 DUP3 MSTORE PUSH1 0x20 DUP3 ADD SWAP1 POP SWAP3 SWAP2 POP POP JUMP JUMPDEST PUSH0 PUSH2 0xC43 DUP3 PUSH2 0x757 JUMP JUMPDEST PUSH2 0xC4D DUP2 DUP6 PUSH2 0xC29 JUMP JUMPDEST SWAP4 POP PUSH2 0xC5D DUP2 DUP6 PUSH1 0x20 DUP7 ADD PUSH2 0x701 JUMP JUMPDEST PUSH2 0xC66 DUP2 PUSH2 0x70F JUMP JUMPDEST DUP5 ADD SWAP2 POP POP SWAP3 SWAP2 POP POP JUMP JUMPDEST PUSH2 0xC7A DUP2 PUSH2 0x7A9 JUMP JUMPDEST DUP3 MSTORE POP POP JUMP JUMPDEST PUSH0 PUSH1 0x60 DUP3 ADD SWAP1 POP DUP2 DUP2 SUB PUSH0 DUP4 ADD MSTORE PUSH2 0xC98 DUP2 DUP7 PUSH2 0xBF1 JUMP JUMPDEST SWAP1 POP DUP2 DUP2 SUB PUSH1 0x20 DUP4 ADD MSTORE PUSH2 0xCAC DUP2 DUP6 PUSH2 0xC39 JUMP JUMPDEST SWAP1 POP PUSH2 0xCBB PUSH1 0x40 DUP4 ADD DUP5 PUSH2 0xC71 JUMP JUMPDEST SWAP5 SWAP4 POP POP POP POP JUMP JUMPDEST PUSH32 0x4E487B7100000000000000000000000000000000000000000000000000000000 PUSH0 MSTORE PUSH1 0x22 PUSH1 0x4 MSTORE PUSH1 0x24 PUSH0 REVERT JUMPDEST PUSH0 PUSH1 0x2 DUP3 DIV SWAP1 POP PUSH1 0x1 DUP3 AND DUP1 PUSH2 0xD07 JUMPI PUSH1 0x7F DUP3 AND SWAP2 POP JUMPDEST PUSH1 0x20 DUP3 LT DUP2 SUB PUSH2 0xD1A JUMPI PUSH2 0xD19 PUSH2 0xCC3 JUMP JUMPDEST JUMPDEST POP SWAP2 SWAP1 POP JUMP JUMPDEST PUSH32 0x41737365742049442069732072657175697265642E0000000000000000000000 PUSH0 DUP3 ADD MSTORE POP JUMP JUMPDEST PUSH0 PUSH2 0xD54 PUSH1 0x15 DUP4 PUSH2 0xBE1 JUMP JUMPDEST SWAP2 POP PUSH2 0xD5F DUP3 PUSH2 0xD20 JUMP JUMPDEST PUSH1 0x20 DUP3 ADD SWAP1 POP SWAP2 SWAP1 POP JUMP JUMPDEST PUSH0 PUSH1 0x20 DUP3 ADD SWAP1 POP DUP2 DUP2 SUB PUSH0 DUP4 ADD MSTORE PUSH2 0xD81 DUP2 PUSH2 0xD48 JUMP JUMPDEST SWAP1 POP SWAP2 SWAP1 POP JUMP JUMPDEST PUSH32 0x41737365742068617368206D7573742062652033322062797465732E00000000 PUSH0 DUP3 ADD MSTORE POP JUMP JUMPDEST PUSH0 PUSH2 0xDBC PUSH1 0x1C DUP4 PUSH2 0xBE1 JUMP JUMPDEST SWAP2 POP PUSH2 0xDC7 DUP3 PUSH2 0xD88 JUMP JUMPDEST PUSH1 0x20 DUP3 ADD SWAP1 POP SWAP2 SWAP1 POP JUMP JUMPDEST PUSH0 PUSH1 0x20 DUP3 ADD SWAP1 POP DUP2 DUP2 SUB PUSH0 DUP4 ADD MSTORE PUSH2 0xDE9 DUP2 PUSH2 0xDB0 JUMP JUMPDEST SWAP1 POP SWAP2 SWAP1 POP JUMP JUMPDEST PUSH0 DUP2 SWAP1 POP DUP2 PUSH0 MSTORE PUSH1 0x20 PUSH0 KECCAK256 SWAP1 POP SWAP2 SWAP1 POP JUMP JUMPDEST PUSH0 PUSH1 0x20 PUSH1 0x1F DUP4 ADD DIV SWAP1 POP SWAP2 SWAP1 POP JUMP JUMPDEST PUSH0 DUP3 DUP3 SHL SWAP1 POP SWAP3 SWAP2 POP POP JUMP JUMPDEST PUSH0 PUSH1 0x8 DUP4 MUL PUSH2 0xE4C PUSH32 0xFFFFFFFFFFFFFFFFFFFFFFFFFFFFFFFFFFFFFFFFFFFFFFFFFFFFFFFFFFFFFFFF DUP3 PUSH2 0xE11 JUMP JUMPDEST PUSH2 0xE56 DUP7 DUP4 PUSH2 0xE11 JUMP JUMPDEST SWAP6 POP DUP1 NOT DUP5 AND SWAP4 POP DUP1 DUP7 AND DUP5 OR SWAP3 POP POP POP SWAP4 SWAP3 POP POP POP JUMP JUMPDEST PUSH0 DUP2 SWAP1 POP SWAP2 SWAP1 POP JUMP JUMPDEST PUSH0 PUSH2 0xE91 PUSH2 0xE8C PUSH2 0xE87 DUP5 PUSH2 0x7A9 JUMP JUMPDEST PUSH2 0xE6E JUMP JUMPDEST PUSH2 0x7A9 JUMP JUMPDEST SWAP1 POP SWAP2 SWAP1 POP JUMP JUMPDEST PUSH0 DUP2 SWAP1 POP SWAP2 SWAP1 POP JUMP JUMPDEST PUSH2 0xEAA DUP4 PUSH2 0xE77 JUMP JUMPDEST PUSH2 0xEBE PUSH2 0xEB6 DUP3 PUSH2 0xE98 JUMP JUMPDEST DUP5 DUP5 SLOAD PUSH2 0xE1D JUMP JUMPDEST DUP3 SSTORE POP POP POP POP JUMP JUMPDEST PUSH0 PUSH0 SWAP1 POP SWAP1 JUMP JUMPDEST PUSH2 0xED5 PUSH2 0xEC6 JUMP JUMPDEST PUSH2 0xEE0 DUP2 DUP5 DUP5 PUSH2 0xEA1 JUMP JUMPDEST POP POP POP JUMP JUMPDEST JUMPDEST DUP2 DUP2 LT ISZERO PUSH2 0xF03 JUMPI PUSH2 0xEF8 PUSH0 DUP3 PUSH2 0xECD JUMP JUMPDEST PUSH1 0x1 DUP2 ADD SWAP1 POP PUSH2 0xEE6 JUMP JUMPDEST POP POP JUMP JUMPDEST PUSH1 0x1F DUP3 GT ISZERO PUSH2 0xF48 JUMPI PUSH2 0xF19 DUP2 PUSH2 0xDF0 JUMP JUMPDEST PUSH2 0xF22 DUP5 PUSH2 0xE02 JUMP JUMPDEST DUP2 ADD PUSH1 0x20 DUP6 LT ISZERO PUSH2 0xF31 JUMPI DUP2 SWAP1 POP JUMPDEST PUSH2 0xF45 PUSH2 0xF3D DUP6 PUSH2 0xE02 JUMP JUMPDEST DUP4 ADD DUP3 PUSH2 0xEE5 JUMP JUMPDEST POP POP JUMPDEST POP POP POP JUMP JUMPDEST PUSH0 DUP3 DUP3 SHR SWAP1 POP SWAP3 SWAP2 POP POP JUMP JUMPDEST PUSH0 PUSH2 0xF68 PUSH0 NOT DUP5 PUSH1 0x8 MUL PUSH2 0xF4D JUMP JUMPDEST NOT DUP1 DUP4 AND SWAP2 POP POP SWAP3 SWAP2 POP POP JUMP JUMPDEST PUSH0 PUSH2 0xF80 DUP4 DUP4 PUSH2 0xF59 JUMP JUMPDEST SWAP2 POP DUP3 PUSH1 0x2 MUL DUP3 OR SWAP1 POP SWAP3 SWAP2 POP POP JUMP JUMPDEST PUSH2 0xF99 DUP3 PUSH2 0x6E7 JUMP JUMPDEST PUSH8 0xFFFFFFFFFFFFFFFF DUP2 GT ISZERO PUSH2 0xFB2 JUMPI PUSH2 0xFB1 PUSH2 0x8E0 JUMP JUMPDEST JUMPDEST PUSH2 0xFBC DUP3 SLOAD PUSH2 0xCF0 JUMP JUMPDEST PUSH2 0xFC7 DUP3 DUP3 DUP6 PUSH2 0xF07 JUMP JUMPDEST PUSH0 PUSH1 0x20 SWAP1 POP PUSH1 0x1F DUP4 GT PUSH1 0x1 DUP2 EQ PUSH2 0xFF8 JUMPI PUSH0 DUP5 ISZERO PUSH2 0xFE6 JUMPI DUP3 DUP8 ADD MLOAD SWAP1 POP JUMPDEST PUSH2 0xFF0 DUP6 DUP3 PUSH2 0xF75 JUMP JUMPDEST DUP7 SSTORE POP PUSH2 0x1057 JUMP JUMPDEST PUSH1 0x1F NOT DUP5 AND PUSH2 0x1006 DUP7 PUSH2 0xDF0 JUMP JUMPDEST PUSH0 JUMPDEST DUP3 DUP2 LT ISZERO PUSH2 0x102D JUMPI DUP5 DUP10 ADD MLOAD DUP3 SSTORE PUSH1 0x1 DUP3 ADD SWAP2 POP PUSH1 0x20 DUP6 ADD SWAP5 POP PUSH1 0x20 DUP2 ADD SWAP1 POP PUSH2 0x1008 JUMP JUMPDEST DUP7 DUP4 LT ISZERO PUSH2 0x104A JUMPI DUP5 DUP10 ADD MLOAD PUSH2 0x1046 PUSH1 0x1F DUP10 AND DUP3 PUSH2 0xF59 JUMP JUMPDEST DUP4 SSTORE POP JUMPDEST PUSH1 0x1 PUSH1 0x2 DUP9 MUL ADD DUP9 SSTORE POP POP POP JUMPDEST POP POP POP POP POP POP JUMP JUMPDEST PUSH0 DUP2 SWAP1 POP DUP2 PUSH0 MSTORE PUSH1 0x20 PUSH0 KECCAK256 SWAP1 POP SWAP2 SWAP1 POP JUMP JUMPDEST PUSH1 0x1F DUP3 GT ISZERO PUSH2 0x10B2 JUMPI PUSH2 0x1083 DUP2 PUSH2 0x105F JUMP JUMPDEST PUSH2 0x108C DUP5 PUSH2 0xE02 JUMP JUMPDEST DUP2 ADD PUSH1 0x20 DUP6 LT ISZERO PUSH2 0x109B JUMPI DUP2 SWAP1 POP JUMPDEST PUSH2 0x10AF PUSH2 0x10A7 DUP6 PUSH2 0xE02 JUMP JUMPDEST DUP4 ADD DUP3 PUSH2 0xEE5 JUMP JUMPDEST POP POP JUMPDEST POP POP POP JUMP JUMPDEST PUSH2 0x10C0 DUP3 PUSH2 0x757 JUMP JUMPDEST PUSH8 0xFFFFFFFFFFFFFFFF DUP2 GT ISZERO PUSH2 0x10D9 JUMPI PUSH2 0x10D8 PUSH2 0x8E0 JUMP JUMPDEST JUMPDEST PUSH2 0x10E3 DUP3 SLOAD PUSH2 0xCF0 JUMP JUMPDEST PUSH2 0x10EE DUP3 DUP3 DUP6 PUSH2 0x1071 JUMP JUMPDEST PUSH0 PUSH1 0x20 SWAP1 POP PUSH1 0x1F DUP4 GT PUSH1 0x1 DUP2 EQ PUSH2 0x111F JUMPI PUSH0 DUP5 ISZERO PUSH2 0x110D JUMPI DUP3 DUP8 ADD MLOAD SWAP1 POP JUMPDEST PUSH2 0x1117 DUP6 DUP3 PUSH2 0xF75 JUMP JUMPDEST DUP7 SSTORE POP PUSH2 0x117E JUMP JUMPDEST PUSH1 0x1F NOT DUP5 AND PUSH2 0x112D DUP7 PUSH2 0x105F JUMP JUMPDEST PUSH0 JUMPDEST DUP3 DUP2 LT ISZERO PUSH2 0x1154 JUMPI DUP5 DUP10 ADD MLOAD DUP3 SSTORE PUSH1 0x1 DUP3 ADD SWAP2 POP PUSH1 0x20 DUP6 ADD SWAP5 POP PUSH1 0x20 DUP2 ADD SWAP1 POP PUSH2 0x112F JUMP JUMPDEST DUP7 DUP4 LT ISZERO PUSH2 0x1171 JUMPI DUP5 DUP10 ADD MLOAD PUSH2 0x116D PUSH1 0x1F DUP10 AND DUP3 PUSH2 0xF59 JUMP JUMPDEST DUP4 SSTORE POP JUMPDEST PUSH1 0x1 PUSH1 0x2 DUP9 MUL ADD DUP9 SSTORE POP POP POP JUMPDEST POP POP POP POP POP POP JUMP JUMPDEST PUSH32 0x417373657420646F6573206E6F742065786973742E0000000000000000000000 PUSH0 DUP3 ADD MSTORE POP JUMP JUMPDEST PUSH0 PUSH2 0x11BA PUSH1 0x15 DUP4 PUSH2 0xBE1 JUMP JUMPDEST SWAP2 POP PUSH2 0x11C5 DUP3 PUSH2 0x1186 JUMP JUMPDEST PUSH1 0x20 DUP3 ADD SWAP1 POP SWAP2 SWAP1 POP JUMP JUMPDEST PUSH0 PUSH1 0x20 DUP3 ADD SWAP1 POP DUP2 DUP2 SUB PUSH0 DUP4 ADD MSTORE PUSH2 0x11E7 DUP2 PUSH2 0x11AE JUMP JUMPDEST SWAP1 POP SWAP2 SWAP1 POP JUMP JUMPDEST PUSH32 0x4E487B7100000000000000000000000000000000000000000000000000000000 PUSH0 MSTORE PUSH1 0x32 PUSH1 0x4 MSTORE PUSH1 0x24 PUSH0 REVERT INVALID LOG2 PUSH5 0x6970667358 0x22 SLT KECCAK256 COINBASE PUSH27 0x7994C1BFC307E3CEA1E84770F5F86C846B5CBD795E8FAF0CF164C2 DUP16 NUMBER EQ PUSH5 0x736F6C6343 STOP ADDMOD SHR STOP CALLER "
	},
	"abi": [
		{
			"anonymous": false,
			"inputs": [
				{
					"indexed": true,
					"internalType": "uint256",
					"name": "assetIndex",
					"type": "uint256"
				},
				{
					"indexed": false,
					"internalType": "string",
					"name": "asset_id",
					"type": "string"
				},
				{
					"indexed": false,
					"internalType": "bytes",
					"name": "asset_hash",
					"type": "bytes"
				},
				{
					"indexed": false,
					"internalType": "uint256",
					"name": "submission_time",
					"type": "uint256"
				}
			],
			"name": "AssetHashSubmitted",
			"type": "event"
		},
		{
			"inputs": [
				{
					"internalType": "uint256",
					"name": "",
					"type": "uint256"
				}
			],
			"name": "assets",
			"outputs": [
				{
					"internalType": "string",
					"name": "asset_id",
					"type": "string"
				},
				{
					"internalType": "bytes",
					"name": "asset_hash",
					"type": "bytes"
				},
				{
					"internalType": "uint256",
					"name": "submission_time",
					"type": "uint256"
				}
			],
			"stateMutability": "view",
			"type": "function"
		},
		{
			"inputs": [
				{
					"internalType": "uint256",
					"name": "assetIndex",
					"type": "uint256"
				}
			],
			"name": "getAssetById",
			"outputs": [
				{
					"components": [
						{
							"internalType": "string",
							"name": "asset_id",
							"type": "string"
						},
						{
							"internalType": "bytes",
							"name": "asset_hash",
							"type": "bytes"
						},
						{
							"internalType": "uint256",
							"name": "submission_time",
							"type": "uint256"
						}
					],
					"internalType": "struct HederaAssetContract.Asset",
					"name": "",
					"type": "tuple"
				}
			],
			"stateMutability": "view",
			"type": "function"
		},
		{
			"inputs": [],
			"name": "getAssets",
			"outputs": [
				{
					"components": [
						{
							"internalType": "string",
							"name": "asset_id",
							"type": "string"
						},
						{
							"internalType": "bytes",
							"name": "asset_hash",
							"type": "bytes"
						},
						{
							"internalType": "uint256",
							"name": "submission_time",
							"type": "uint256"
						}
					],
					"internalType": "struct HederaAssetContract.Asset[]",
					"name": "",
					"type": "tuple[]"
				}
			],
			"stateMutability": "view",
			"type": "function"
		},
		{
			"inputs": [
				{
					"internalType": "string",
					"name": "asset_id",
					"type": "string"
				},
				{
					"internalType": "bytes",
					"name": "asset_hash",
					"type": "bytes"
				}
			],
			"name": "submitAssetHash",
			"outputs": [],
			"stateMutability": "nonpayable",
			"type": "function"
		}
	],
	"storageLayout": {
		"storage": [
			{
				"astId": 12,
				"contract": "Asset.sol:HederaAssetContract",
				"label": "assets",
				"offset": 0,
				"slot": "0",
				"type": "t_array(t_struct(Asset)8_storage)dyn_storage"
			}
		],
		"types": {
			"t_array(t_struct(Asset)8_storage)dyn_storage": {
				"base": "t_struct(Asset)8_storage",
				"encoding": "dynamic_array",
				"label": "struct HederaAssetContract.Asset[]",
				"numberOfBytes": "32"
			},
			"t_bytes_storage": {
				"encoding": "bytes",
				"label": "bytes",
				"numberOfBytes": "32"
			},
			"t_string_storage": {
				"encoding": "bytes",
				"label": "string",
				"numberOfBytes": "32"
			},
			"t_struct(Asset)8_storage": {
				"encoding": "inplace",
				"label": "struct HederaAssetContract.Asset",
				"members": [
					{
						"astId": 3,
						"contract": "Asset.sol:HederaAssetContract",
						"label": "asset_id",
						"offset": 0,
						"slot": "0",
						"type": "t_string_storage"
					},
					{
						"astId": 5,
						"contract": "Asset.sol:HederaAssetContract",
						"label": "asset_hash",
						"offset": 0,
						"slot": "1",
						"type": "t_bytes_storage"
					},
					{
						"astId": 7,
						"contract": "Asset.sol:HederaAssetContract",
						"label": "submission_time",
						"offset": 0,
						"slot": "2",
						"type": "t_uint256"
					}
				],
				"numberOfBytes": "96"
			},
			"t_uint256": {
				"encoding": "inplace",
				"label": "uint256",
				"numberOfBytes": "32"
			}
		}
	},
	"web3Deploy": "var hederaassetcontractContract = new web3.eth.Contract([{\"anonymous\":false,\"inputs\":[{\"indexed\":true,\"internalType\":\"uint256\",\"name\":\"assetIndex\",\"type\":\"uint256\"},{\"indexed\":false,\"internalType\":\"string\",\"name\":\"asset_id\",\"type\":\"string\"},{\"indexed\":false,\"internalType\":\"bytes\",\"name\":\"asset_hash\",\"type\":\"bytes\"},{\"indexed\":false,\"internalType\":\"uint256\",\"name\":\"submission_time\",\"type\":\"uint256\"}],\"name\":\"AssetHashSubmitted\",\"type\":\"event\"},{\"inputs\":[{\"internalType\":\"uint256\",\"name\":\"\",\"type\":\"uint256\"}],\"name\":\"assets\",\"outputs\":[{\"internalType\":\"string\",\"name\":\"asset_id\",\"type\":\"string\"},{\"internalType\":\"bytes\",\"name\":\"asset_hash\",\"type\":\"bytes\"},{\"internalType\":\"uint256\",\"name\":\"submission_time\",\"type\":\"uint256\"}],\"stateMutability\":\"view\",\"type\":\"function\"},{\"inputs\":[{\"internalType\":\"uint256\",\"name\":\"assetIndex\",\"type\":\"uint256\"}],\"name\":\"getAssetById\",\"outputs\":[{\"components\":[{\"internalType\":\"string\",\"name\":\"asset_id\",\"type\":\"string\"},{\"internalType\":\"bytes\",\"name\":\"asset_hash\",\"type\":\"bytes\"},{\"internalType\":\"uint256\",\"name\":\"submission_time\",\"type\":\"uint256\"}],\"internalType\":\"struct HederaAssetContract.Asset\",\"name\":\"\",\"type\":\"tuple\"}],\"stateMutability\":\"view\",\"type\":\"function\"},{\"inputs\":[],\"name\":\"getAssets\",\"outputs\":[{\"components\":[{\"internalType\":\"string\",\"name\":\"asset_id\",\"type\":\"string\"},{\"internalType\":\"bytes\",\"name\":\"asset_hash\",\"type\":\"bytes\"},{\"internalType\":\"uint256\",\"name\":\"submission_time\",\"type\":\"uint256\"}],\"internalType\":\"struct HederaAssetContract.Asset[]\",\"name\":\"\",\"type\":\"tuple[]\"}],\"stateMutability\":\"view\",\"type\":\"function\"},{\"inputs\":[{\"internalType\":\"string\",\"name\":\"asset_id\",\"type\":\"string\"},{\"internalType\":\"bytes\",\"name\":\"asset_hash\",\"type\":\"bytes\"}],\"name\":\"submitAssetHash\",\"outputs\":[],\"stateMutability\":\"nonpayable\",\"type\":\"function\"}]);\nvar hederaassetcontract = hederaassetcontractContract.deploy({\n     data: '0x6080604052348015600e575f5ffd5b506112518061001c5f395ff3fe608060405234801561000f575f5ffd5b506004361061004a575f3560e01c806367e4ac2c1461004e5780639d9557841461006c578063b3e444a714610088578063cf35bdd0146100b8575b5f5ffd5b6100566100ea565b60405161006391906108a7565b60405180910390f35b61008660048036038101906100819190610aa2565b61026e565b005b6100a2600480360381019061009d9190610b42565b6103b6565b6040516100af9190610bc1565b60405180910390f35b6100d260048036038101906100cd9190610b42565b61055e565b6040516100e193929190610c80565b60405180910390f35b60605f805480602002602001604051908101604052809291908181526020015f905b82821015610265578382905f5260205f2090600302016040518060600160405290815f8201805461013c90610cf0565b80601f016020809104026020016040519081016040528092919081815260200182805461016890610cf0565b80156101b35780601f1061018a576101008083540402835291602001916101b3565b820191905f5260205f20905b81548152906001019060200180831161019657829003601f168201915b505050505081526020016001820180546101cc90610cf0565b80601f01602080910402602001604051908101604052809291908181526020018280546101f890610cf0565b80156102435780601f1061021a57610100808354040283529160200191610243565b820191905f5260205f20905b81548152906001019060200180831161022657829003601f168201915b505050505081526020016002820154815250508152602001906001019061010c565b50505050905090565b5f8251116102b1576040517f08c379a00000000000000000000000000000000000000000000000000000000081526004016102a890610d6a565b60405180910390fd5b60208151146102f5576040517f08c379a00000000000000000000000000000000000000000000000000000000081526004016102ec90610dd2565b60405180910390fd5b5f5f8054905090505f604051806060016040528085815260200184815260200142815250908060018154018082558091505060019003905f5260205f2090600302015f909190919091505f820151815f0190816103529190610f90565b50602082015181600101908161036891906110b7565b50604082015181600201555050807ff3c6b7b3ff355d728d0dbf07abb80a9934ada89ffee658478ffe970adec675698484426040516103a993929190610c80565b60405180910390a2505050565b6103be61069e565b5f805490508210610404576040517f08c379a00000000000000000000000000000000000000000000000000000000081526004016103fb906111d0565b60405180910390fd5b5f8281548110610417576104166111ee565b5b905f5260205f2090600302016040518060600160405290815f8201805461043d90610cf0565b80601f016020809104026020016040519081016040528092919081815260200182805461046990610cf0565b80156104b45780601f1061048b576101008083540402835291602001916104b4565b820191905f5260205f20905b81548152906001019060200180831161049757829003601f168201915b505050505081526020016001820180546104cd90610cf0565b80601f01602080910402602001604051908101604052809291908181526020018280546104f990610cf0565b80156105445780601f1061051b57610100808354040283529160200191610544565b820191905f5260205f20905b81548152906001019060200180831161052757829003601f168201915b505050505081526020016002820154815250509050919050565b5f818154811061056c575f80fd5b905f5260205f2090600302015f91509050805f01805461058b90610cf0565b80601f01602080910402602001604051908101604052809291908181526020018280546105b790610cf0565b80156106025780601f106105d957610100808354040283529160200191610602565b820191905f5260205f20905b8154815290600101906020018083116105e557829003601f168201915b50505050509080600101805461061790610cf0565b80601f016020809104026020016040519081016040528092919081815260200182805461064390610cf0565b801561068e5780601f106106655761010080835404028352916020019161068e565b820191905f5260205f20905b81548152906001019060200180831161067157829003601f168201915b5050505050908060020154905083565b604051806060016040528060608152602001606081526020015f81525090565b5f81519050919050565b5f82825260208201905092915050565b5f819050602082019050919050565b5f81519050919050565b5f82825260208201905092915050565b8281835e5f83830152505050565b5f601f19601f8301169050919050565b5f610729826106e7565b61073381856106f1565b9350610743818560208601610701565b61074c8161070f565b840191505092915050565b5f81519050919050565b5f82825260208201905092915050565b5f61077b82610757565b6107858185610761565b9350610795818560208601610701565b61079e8161070f565b840191505092915050565b5f819050919050565b6107bb816107a9565b82525050565b5f606083015f8301518482035f8601526107db828261071f565b915050602083015184820360208601526107f58282610771565b915050604083015161080a60408601826107b2565b508091505092915050565b5f61082083836107c1565b905092915050565b5f602082019050919050565b5f61083e826106be565b61084881856106c8565b93508360208202850161085a856106d8565b805f5b8581101561089557848403895281516108768582610815565b945061088183610828565b925060208a0199505060018101905061085d565b50829750879550505050505092915050565b5f6020820190508181035f8301526108bf8184610834565b905092915050565b5f604051905090565b5f5ffd5b5f5ffd5b5f5ffd5b5f5ffd5b7f4e487b71000000000000000000000000000000000000000000000000000000005f52604160045260245ffd5b6109168261070f565b810181811067ffffffffffffffff82111715610935576109346108e0565b5b80604052505050565b5f6109476108c7565b9050610953828261090d565b919050565b5f67ffffffffffffffff821115610972576109716108e0565b5b61097b8261070f565b9050602081019050919050565b828183375f83830152505050565b5f6109a86109a384610958565b61093e565b9050828152602081018484840111156109c4576109c36108dc565b5b6109cf848285610988565b509392505050565b5f82601f8301126109eb576109ea6108d8565b5b81356109fb848260208601610996565b91505092915050565b5f67ffffffffffffffff821115610a1e57610a1d6108e0565b5b610a278261070f565b9050602081019050919050565b5f610a46610a4184610a04565b61093e565b905082815260208101848484011115610a6257610a616108dc565b5b610a6d848285610988565b509392505050565b5f82601f830112610a8957610a886108d8565b5b8135610a99848260208601610a34565b91505092915050565b5f5f60408385031215610ab857610ab76108d0565b5b5f83013567ffffffffffffffff811115610ad557610ad46108d4565b5b610ae1858286016109d7565b925050602083013567ffffffffffffffff811115610b0257610b016108d4565b5b610b0e85828601610a75565b9150509250929050565b610b21816107a9565b8114610b2b575f5ffd5b50565b5f81359050610b3c81610b18565b92915050565b5f60208284031215610b5757610b566108d0565b5b5f610b6484828501610b2e565b91505092915050565b5f606083015f8301518482035f860152610b87828261071f565b91505060208301518482036020860152610ba18282610771565b9150506040830151610bb660408601826107b2565b508091505092915050565b5f6020820190508181035f830152610bd98184610b6d565b905092915050565b5f82825260208201905092915050565b5f610bfb826106e7565b610c058185610be1565b9350610c15818560208601610701565b610c1e8161070f565b840191505092915050565b5f82825260208201905092915050565b5f610c4382610757565b610c4d8185610c29565b9350610c5d818560208601610701565b610c668161070f565b840191505092915050565b610c7a816107a9565b82525050565b5f6060820190508181035f830152610c988186610bf1565b90508181036020830152610cac8185610c39565b9050610cbb6040830184610c71565b949350505050565b7f4e487b71000000000000000000000000000000000000000000000000000000005f52602260045260245ffd5b5f6002820490506001821680610d0757607f821691505b602082108103610d1a57610d19610cc3565b5b50919050565b7f41737365742049442069732072657175697265642e00000000000000000000005f82015250565b5f610d54601583610be1565b9150610d5f82610d20565b602082019050919050565b5f6020820190508181035f830152610d8181610d48565b9050919050565b7f41737365742068617368206d7573742062652033322062797465732e000000005f82015250565b5f610dbc601c83610be1565b9150610dc782610d88565b602082019050919050565b5f6020820190508181035f830152610de981610db0565b9050919050565b5f819050815f5260205f209050919050565b5f6020601f8301049050919050565b5f82821b905092915050565b5f60088302610e4c7fffffffffffffffffffffffffffffffffffffffffffffffffffffffffffffffff82610e11565b610e568683610e11565b95508019841693508086168417925050509392505050565b5f819050919050565b5f610e91610e8c610e87846107a9565b610e6e565b6107a9565b9050919050565b5f819050919050565b610eaa83610e77565b610ebe610eb682610e98565b848454610e1d565b825550505050565b5f5f905090565b610ed5610ec6565b610ee0818484610ea1565b505050565b5b81811015610f0357610ef85f82610ecd565b600181019050610ee6565b5050565b601f821115610f4857610f1981610df0565b610f2284610e02565b81016020851015610f31578190505b610f45610f3d85610e02565b830182610ee5565b50505b505050565b5f82821c905092915050565b5f610f685f1984600802610f4d565b1980831691505092915050565b5f610f808383610f59565b9150826002028217905092915050565b610f99826106e7565b67ffffffffffffffff811115610fb257610fb16108e0565b5b610fbc8254610cf0565b610fc7828285610f07565b5f60209050601f831160018114610ff8575f8415610fe6578287015190505b610ff08582610f75565b865550611057565b601f19841661100686610df0565b5f5b8281101561102d57848901518255600182019150602085019450602081019050611008565b8683101561104a5784890151611046601f891682610f59565b8355505b6001600288020188555050505b505050505050565b5f819050815f5260205f209050919050565b601f8211156110b2576110838161105f565b61108c84610e02565b8101602085101561109b578190505b6110af6110a785610e02565b830182610ee5565b50505b505050565b6110c082610757565b67ffffffffffffffff8111156110d9576110d86108e0565b5b6110e38254610cf0565b6110ee828285611071565b5f60209050601f83116001811461111f575f841561110d578287015190505b6111178582610f75565b86555061117e565b601f19841661112d8661105f565b5f5b828110156111545784890151825560018201915060208501945060208101905061112f565b86831015611171578489015161116d601f891682610f59565b8355505b6001600288020188555050505b505050505050565b7f417373657420646f6573206e6f742065786973742e00000000000000000000005f82015250565b5f6111ba601583610be1565b91506111c582611186565b602082019050919050565b5f6020820190508181035f8301526111e7816111ae565b9050919050565b7f4e487b71000000000000000000000000000000000000000000000000000000005f52603260045260245ffdfea2646970667358221220417a7994c1bfc307e3cea1e84770f5f86c846b5cbd795e8faf0cf164c28f431464736f6c634300081c0033', \n     arguments: [\n     ]\n}).send({\n     from: web3.eth.accounts[0], \n     gas: '4700000'\n   }, function (e, contract){\n    console.log(e, contract);\n    if (typeof contract.address !== 'undefined') {\n         console.log('Contract mined! address: ' + contract.address + ' transactionHash: ' + contract.transactionHash);\n    }\n })",
	"functionHashes": {
		"cf35bdd0": "assets(uint256)",
		"b3e444a7": "getAssetById(uint256)",
		"67e4ac2c": "getAssets()",
		"9d955784": "submitAssetHash(string,bytes)"
	},
	"gasEstimates": {
		"Creation": {
			"codeDepositCost": "937800",
			"executionCost": "973",
			"totalCost": "938773"
		},
		"External": {
			"assets(uint256)": "infinite",
			"getAssetById(uint256)": "infinite",
			"getAssets()": "infinite",
			"submitAssetHash(string,bytes)": "infinite"
		}
	},
	"devdoc": {
		"kind": "dev",
		"methods": {},
		"version": 1
	},
	"userdoc": {
		"kind": "user",
		"methods": {},
		"version": 1
	},
	"Runtime Bytecode": {
		"immutableReferences": {},
		"linkReferences": {},
		"object": "608060405234801561000f575f5ffd5b506004361061004a575f3560e01c806367e4ac2c1461004e5780639d9557841461006c578063b3e444a714610088578063cf35bdd0146100b8575b5f5ffd5b6100566100ea565b60405161006391906108a7565b60405180910390f35b61008660048036038101906100819190610aa2565b61026e565b005b6100a2600480360381019061009d9190610b42565b6103b6565b6040516100af9190610bc1565b60405180910390f35b6100d260048036038101906100cd9190610b42565b61055e565b6040516100e193929190610c80565b60405180910390f35b60605f805480602002602001604051908101604052809291908181526020015f905b82821015610265578382905f5260205f2090600302016040518060600160405290815f8201805461013c90610cf0565b80601f016020809104026020016040519081016040528092919081815260200182805461016890610cf0565b80156101b35780601f1061018a576101008083540402835291602001916101b3565b820191905f5260205f20905b81548152906001019060200180831161019657829003601f168201915b505050505081526020016001820180546101cc90610cf0565b80601f01602080910402602001604051908101604052809291908181526020018280546101f890610cf0565b80156102435780601f1061021a57610100808354040283529160200191610243565b820191905f5260205f20905b81548152906001019060200180831161022657829003601f168201915b505050505081526020016002820154815250508152602001906001019061010c565b50505050905090565b5f8251116102b1576040517f08c379a00000000000000000000000000000000000000000000000000000000081526004016102a890610d6a565b60405180910390fd5b60208151146102f5576040517f08c379a00000000000000000000000000000000000000000000000000000000081526004016102ec90610dd2565b60405180910390fd5b5f5f8054905090505f604051806060016040528085815260200184815260200142815250908060018154018082558091505060019003905f5260205f2090600302015f909190919091505f820151815f0190816103529190610f90565b50602082015181600101908161036891906110b7565b50604082015181600201555050807ff3c6b7b3ff355d728d0dbf07abb80a9934ada89ffee658478ffe970adec675698484426040516103a993929190610c80565b60405180910390a2505050565b6103be61069e565b5f805490508210610404576040517f08c379a00000000000000000000000000000000000000000000000000000000081526004016103fb906111d0565b60405180910390fd5b5f8281548110610417576104166111ee565b5b905f5260205f2090600302016040518060600160405290815f8201805461043d90610cf0565b80601f016020809104026020016040519081016040528092919081815260200182805461046990610cf0565b80156104b45780601f1061048b576101008083540402835291602001916104b4565b820191905f5260205f20905b81548152906001019060200180831161049757829003601f168201915b505050505081526020016001820180546104cd90610cf0565b80601f01602080910402602001604051908101604052809291908181526020018280546104f990610cf0565b80156105445780601f1061051b57610100808354040283529160200191610544565b820191905f5260205f20905b81548152906001019060200180831161052757829003601f168201915b505050505081526020016002820154815250509050919050565b5f818154811061056c575f80fd5b905f5260205f2090600302015f91509050805f01805461058b90610cf0565b80601f01602080910402602001604051908101604052809291908181526020018280546105b790610cf0565b80156106025780601f106105d957610100808354040283529160200191610602565b820191905f5260205f20905b8154815290600101906020018083116105e557829003601f168201915b50505050509080600101805461061790610cf0565b80601f016020809104026020016040519081016040528092919081815260200182805461064390610cf0565b801561068e5780601f106106655761010080835404028352916020019161068e565b820191905f5260205f20905b81548152906001019060200180831161067157829003601f168201915b5050505050908060020154905083565b604051806060016040528060608152602001606081526020015f81525090565b5f81519050919050565b5f82825260208201905092915050565b5f819050602082019050919050565b5f81519050919050565b5f82825260208201905092915050565b8281835e5f83830152505050565b5f601f19601f8301169050919050565b5f610729826106e7565b61073381856106f1565b9350610743818560208601610701565b61074c8161070f565b840191505092915050565b5f81519050919050565b5f82825260208201905092915050565b5f61077b82610757565b6107858185610761565b9350610795818560208601610701565b61079e8161070f565b840191505092915050565b5f819050919050565b6107bb816107a9565b82525050565b5f606083015f8301518482035f8601526107db828261071f565b915050602083015184820360208601526107f58282610771565b915050604083015161080a60408601826107b2565b508091505092915050565b5f61082083836107c1565b905092915050565b5f602082019050919050565b5f61083e826106be565b61084881856106c8565b93508360208202850161085a856106d8565b805f5b8581101561089557848403895281516108768582610815565b945061088183610828565b925060208a0199505060018101905061085d565b50829750879550505050505092915050565b5f6020820190508181035f8301526108bf8184610834565b905092915050565b5f604051905090565b5f5ffd5b5f5ffd5b5f5ffd5b5f5ffd5b7f4e487b71000000000000000000000000000000000000000000000000000000005f52604160045260245ffd5b6109168261070f565b810181811067ffffffffffffffff82111715610935576109346108e0565b5b80604052505050565b5f6109476108c7565b9050610953828261090d565b919050565b5f67ffffffffffffffff821115610972576109716108e0565b5b61097b8261070f565b9050602081019050919050565b828183375f83830152505050565b5f6109a86109a384610958565b61093e565b9050828152602081018484840111156109c4576109c36108dc565b5b6109cf848285610988565b509392505050565b5f82601f8301126109eb576109ea6108d8565b5b81356109fb848260208601610996565b91505092915050565b5f67ffffffffffffffff821115610a1e57610a1d6108e0565b5b610a278261070f565b9050602081019050919050565b5f610a46610a4184610a04565b61093e565b905082815260208101848484011115610a6257610a616108dc565b5b610a6d848285610988565b509392505050565b5f82601f830112610a8957610a886108d8565b5b8135610a99848260208601610a34565b91505092915050565b5f5f60408385031215610ab857610ab76108d0565b5b5f83013567ffffffffffffffff811115610ad557610ad46108d4565b5b610ae1858286016109d7565b925050602083013567ffffffffffffffff811115610b0257610b016108d4565b5b610b0e85828601610a75565b9150509250929050565b610b21816107a9565b8114610b2b575f5ffd5b50565b5f81359050610b3c81610b18565b92915050565b5f60208284031215610b5757610b566108d0565b5b5f610b6484828501610b2e565b91505092915050565b5f606083015f8301518482035f860152610b87828261071f565b91505060208301518482036020860152610ba18282610771565b9150506040830151610bb660408601826107b2565b508091505092915050565b5f6020820190508181035f830152610bd98184610b6d565b905092915050565b5f82825260208201905092915050565b5f610bfb826106e7565b610c058185610be1565b9350610c15818560208601610701565b610c1e8161070f565b840191505092915050565b5f82825260208201905092915050565b5f610c4382610757565b610c4d8185610c29565b9350610c5d818560208601610701565b610c668161070f565b840191505092915050565b610c7a816107a9565b82525050565b5f6060820190508181035f830152610c988186610bf1565b90508181036020830152610cac8185610c39565b9050610cbb6040830184610c71565b949350505050565b7f4e487b71000000000000000000000000000000000000000000000000000000005f52602260045260245ffd5b5f6002820490506001821680610d0757607f821691505b602082108103610d1a57610d19610cc3565b5b50919050565b7f41737365742049442069732072657175697265642e00000000000000000000005f82015250565b5f610d54601583610be1565b9150610d5f82610d20565b602082019050919050565b5f6020820190508181035f830152610d8181610d48565b9050919050565b7f41737365742068617368206d7573742062652033322062797465732e000000005f82015250565b5f610dbc601c83610be1565b9150610dc782610d88565b602082019050919050565b5f6020820190508181035f830152610de981610db0565b9050919050565b5f819050815f5260205f209050919050565b5f6020601f8301049050919050565b5f82821b905092915050565b5f60088302610e4c7fffffffffffffffffffffffffffffffffffffffffffffffffffffffffffffffff82610e11565b610e568683610e11565b95508019841693508086168417925050509392505050565b5f819050919050565b5f610e91610e8c610e87846107a9565b610e6e565b6107a9565b9050919050565b5f819050919050565b610eaa83610e77565b610ebe610eb682610e98565b848454610e1d565b825550505050565b5f5f905090565b610ed5610ec6565b610ee0818484610ea1565b505050565b5b81811015610f0357610ef85f82610ecd565b600181019050610ee6565b5050565b601f821115610f4857610f1981610df0565b610f2284610e02565b81016020851015610f31578190505b610f45610f3d85610e02565b830182610ee5565b50505b505050565b5f82821c905092915050565b5f610f685f1984600802610f4d565b1980831691505092915050565b5f610f808383610f59565b9150826002028217905092915050565b610f99826106e7565b67ffffffffffffffff811115610fb257610fb16108e0565b5b610fbc8254610cf0565b610fc7828285610f07565b5f60209050601f831160018114610ff8575f8415610fe6578287015190505b610ff08582610f75565b865550611057565b601f19841661100686610df0565b5f5b8281101561102d57848901518255600182019150602085019450602081019050611008565b8683101561104a5784890151611046601f891682610f59565b8355505b6001600288020188555050505b505050505050565b5f819050815f5260205f209050919050565b601f8211156110b2576110838161105f565b61108c84610e02565b8101602085101561109b578190505b6110af6110a785610e02565b830182610ee5565b50505b505050565b6110c082610757565b67ffffffffffffffff8111156110d9576110d86108e0565b5b6110e38254610cf0565b6110ee828285611071565b5f60209050601f83116001811461111f575f841561110d578287015190505b6111178582610f75565b86555061117e565b601f19841661112d8661105f565b5f5b828110156111545784890151825560018201915060208501945060208101905061112f565b86831015611171578489015161116d601f891682610f59565b8355505b6001600288020188555050505b505050505050565b7f417373657420646f6573206e6f742065786973742e00000000000000000000005f82015250565b5f6111ba601583610be1565b91506111c582611186565b602082019050919050565b5f6020820190508181035f8301526111e7816111ae565b9050919050565b7f4e487b71000000000000000000000000000000000000000000000000000000005f52603260045260245ffdfea2646970667358221220417a7994c1bfc307e3cea1e84770f5f86c846b5cbd795e8faf0cf164c28f431464736f6c634300081c0033",
		"opcodes": "PUSH1 0x80 PUSH1 0x40 MSTORE CALLVALUE DUP1 ISZERO PUSH2 0xF JUMPI PUSH0 PUSH0 REVERT JUMPDEST POP PUSH1 0x4 CALLDATASIZE LT PUSH2 0x4A JUMPI PUSH0 CALLDATALOAD PUSH1 0xE0 SHR DUP1 PUSH4 0x67E4AC2C EQ PUSH2 0x4E JUMPI DUP1 PUSH4 0x9D955784 EQ PUSH2 0x6C JUMPI DUP1 PUSH4 0xB3E444A7 EQ PUSH2 0x88 JUMPI DUP1 PUSH4 0xCF35BDD0 EQ PUSH2 0xB8 JUMPI JUMPDEST PUSH0 PUSH0 REVERT JUMPDEST PUSH2 0x56 PUSH2 0xEA JUMP JUMPDEST PUSH1 0x40 MLOAD PUSH2 0x63 SWAP2 SWAP1 PUSH2 0x8A7 JUMP JUMPDEST PUSH1 0x40 MLOAD DUP1 SWAP2 SUB SWAP1 RETURN JUMPDEST PUSH2 0x86 PUSH1 0x4 DUP1 CALLDATASIZE SUB DUP2 ADD SWAP1 PUSH2 0x81 SWAP2 SWAP1 PUSH2 0xAA2 JUMP JUMPDEST PUSH2 0x26E JUMP JUMPDEST STOP JUMPDEST PUSH2 0xA2 PUSH1 0x4 DUP1 CALLDATASIZE SUB DUP2 ADD SWAP1 PUSH2 0x9D SWAP2 SWAP1 PUSH2 0xB42 JUMP JUMPDEST PUSH2 0x3B6 JUMP JUMPDEST PUSH1 0x40 MLOAD PUSH2 0xAF SWAP2 SWAP1 PUSH2 0xBC1 JUMP JUMPDEST PUSH1 0x40 MLOAD DUP1 SWAP2 SUB SWAP1 RETURN JUMPDEST PUSH2 0xD2 PUSH1 0x4 DUP1 CALLDATASIZE SUB DUP2 ADD SWAP1 PUSH2 0xCD SWAP2 SWAP1 PUSH2 0xB42 JUMP JUMPDEST PUSH2 0x55E JUMP JUMPDEST PUSH1 0x40 MLOAD PUSH2 0xE1 SWAP4 SWAP3 SWAP2 SWAP1 PUSH2 0xC80 JUMP JUMPDEST PUSH1 0x40 MLOAD DUP1 SWAP2 SUB SWAP1 RETURN JUMPDEST PUSH1 0x60 PUSH0 DUP1 SLOAD DUP1 PUSH1 0x20 MUL PUSH1 0x20 ADD PUSH1 0x40 MLOAD SWAP1 DUP2 ADD PUSH1 0x40 MSTORE DUP1 SWAP3 SWAP2 SWAP1 DUP2 DUP2 MSTORE PUSH1 0x20 ADD PUSH0 SWAP1 JUMPDEST DUP3 DUP3 LT ISZERO PUSH2 0x265 JUMPI DUP4 DUP3 SWAP1 PUSH0 MSTORE PUSH1 0x20 PUSH0 KECCAK256 SWAP1 PUSH1 0x3 MUL ADD PUSH1 0x40 MLOAD DUP1 PUSH1 0x60 ADD PUSH1 0x40 MSTORE SWAP1 DUP2 PUSH0 DUP3 ADD DUP1 SLOAD PUSH2 0x13C SWAP1 PUSH2 0xCF0 JUMP JUMPDEST DUP1 PUSH1 0x1F ADD PUSH1 0x20 DUP1 SWAP2 DIV MUL PUSH1 0x20 ADD PUSH1 0x40 MLOAD SWAP1 DUP2 ADD PUSH1 0x40 MSTORE DUP1 SWAP3 SWAP2 SWAP1 DUP2 DUP2 MSTORE PUSH1 0x20 ADD DUP3 DUP1 SLOAD PUSH2 0x168 SWAP1 PUSH2 0xCF0 JUMP JUMPDEST DUP1 ISZERO PUSH2 0x1B3 JUMPI DUP1 PUSH1 0x1F LT PUSH2 0x18A JUMPI PUSH2 0x100 DUP1 DUP4 SLOAD DIV MUL DUP4 MSTORE SWAP2 PUSH1 0x20 ADD SWAP2 PUSH2 0x1B3 JUMP JUMPDEST DUP3 ADD SWAP2 SWAP1 PUSH0 MSTORE PUSH1 0x20 PUSH0 KECCAK256 SWAP1 JUMPDEST DUP2 SLOAD DUP2 MSTORE SWAP1 PUSH1 0x1 ADD SWAP1 PUSH1 0x20 ADD DUP1 DUP4 GT PUSH2 0x196 JUMPI DUP3 SWAP1 SUB PUSH1 0x1F AND DUP3 ADD SWAP2 JUMPDEST POP POP POP POP POP DUP2 MSTORE PUSH1 0x20 ADD PUSH1 0x1 DUP3 ADD DUP1 SLOAD PUSH2 0x1CC SWAP1 PUSH2 0xCF0 JUMP JUMPDEST DUP1 PUSH1 0x1F ADD PUSH1 0x20 DUP1 SWAP2 DIV MUL PUSH1 0x20 ADD PUSH1 0x40 MLOAD SWAP1 DUP2 ADD PUSH1 0x40 MSTORE DUP1 SWAP3 SWAP2 SWAP1 DUP2 DUP2 MSTORE PUSH1 0x20 ADD DUP3 DUP1 SLOAD PUSH2 0x1F8 SWAP1 PUSH2 0xCF0 JUMP JUMPDEST DUP1 ISZERO PUSH2 0x243 JUMPI DUP1 PUSH1 0x1F LT PUSH2 0x21A JUMPI PUSH2 0x100 DUP1 DUP4 SLOAD DIV MUL DUP4 MSTORE SWAP2 PUSH1 0x20 ADD SWAP2 PUSH2 0x243 JUMP JUMPDEST DUP3 ADD SWAP2 SWAP1 PUSH0 MSTORE PUSH1 0x20 PUSH0 KECCAK256 SWAP1 JUMPDEST DUP2 SLOAD DUP2 MSTORE SWAP1 PUSH1 0x1 ADD SWAP1 PUSH1 0x20 ADD DUP1 DUP4 GT PUSH2 0x226 JUMPI DUP3 SWAP1 SUB PUSH1 0x1F AND DUP3 ADD SWAP2 JUMPDEST POP POP POP POP POP DUP2 MSTORE PUSH1 0x20 ADD PUSH1 0x2 DUP3 ADD SLOAD DUP2 MSTORE POP POP DUP2 MSTORE PUSH1 0x20 ADD SWAP1 PUSH1 0x1 ADD SWAP1 PUSH2 0x10C JUMP JUMPDEST POP POP POP POP SWAP1 POP SWAP1 JUMP JUMPDEST PUSH0 DUP3 MLOAD GT PUSH2 0x2B1 JUMPI PUSH1 0x40 MLOAD PUSH32 0x8C379A000000000000000000000000000000000000000000000000000000000 DUP2 MSTORE PUSH1 0x4 ADD PUSH2 0x2A8 SWAP1 PUSH2 0xD6A JUMP JUMPDEST PUSH1 0x40 MLOAD DUP1 SWAP2 SUB SWAP1 REVERT JUMPDEST PUSH1 0x20 DUP2 MLOAD EQ PUSH2 0x2F5 JUMPI PUSH1 0x40 MLOAD PUSH32 0x8C379A000000000000000000000000000000000000000000000000000000000 DUP2 MSTORE PUSH1 0x4 ADD PUSH2 0x2EC SWAP1 PUSH2 0xDD2 JUMP JUMPDEST PUSH1 0x40 MLOAD DUP1 SWAP2 SUB SWAP1 REVERT JUMPDEST PUSH0 PUSH0 DUP1 SLOAD SWAP1 POP SWAP1 POP PUSH0 PUSH1 0x40 MLOAD DUP1 PUSH1 0x60 ADD PUSH1 0x40 MSTORE DUP1 DUP6 DUP2 MSTORE PUSH1 0x20 ADD DUP5 DUP2 MSTORE PUSH1 0x20 ADD TIMESTAMP DUP2 MSTORE POP SWAP1 DUP1 PUSH1 0x1 DUP2 SLOAD ADD DUP1 DUP3 SSTORE DUP1 SWAP2 POP POP PUSH1 0x1 SWAP1 SUB SWAP1 PUSH0 MSTORE PUSH1 0x20 PUSH0 KECCAK256 SWAP1 PUSH1 0x3 MUL ADD PUSH0 SWAP1 SWAP2 SWAP1 SWAP2 SWAP1 SWAP2 POP PUSH0 DUP3 ADD MLOAD DUP2 PUSH0 ADD SWAP1 DUP2 PUSH2 0x352 SWAP2 SWAP1 PUSH2 0xF90 JUMP JUMPDEST POP PUSH1 0x20 DUP3 ADD MLOAD DUP2 PUSH1 0x1 ADD SWAP1 DUP2 PUSH2 0x368 SWAP2 SWAP1 PUSH2 0x10B7 JUMP JUMPDEST POP PUSH1 0x40 DUP3 ADD MLOAD DUP2 PUSH1 0x2 ADD SSTORE POP POP DUP1 PUSH32 0xF3C6B7B3FF355D728D0DBF07ABB80A9934ADA89FFEE658478FFE970ADEC67569 DUP5 DUP5 TIMESTAMP PUSH1 0x40 MLOAD PUSH2 0x3A9 SWAP4 SWAP3 SWAP2 SWAP1 PUSH2 0xC80 JUMP JUMPDEST PUSH1 0x40 MLOAD DUP1 SWAP2 SUB SWAP1 LOG2 POP POP POP JUMP JUMPDEST PUSH2 0x3BE PUSH2 0x69E JUMP JUMPDEST PUSH0 DUP1 SLOAD SWAP1 POP DUP3 LT PUSH2 0x404 JUMPI PUSH1 0x40 MLOAD PUSH32 0x8C379A000000000000000000000000000000000000000000000000000000000 DUP2 MSTORE PUSH1 0x4 ADD PUSH2 0x3FB SWAP1 PUSH2 0x11D0 JUMP JUMPDEST PUSH1 0x40 MLOAD DUP1 SWAP2 SUB SWAP1 REVERT JUMPDEST PUSH0 DUP3 DUP2 SLOAD DUP2 LT PUSH2 0x417 JUMPI PUSH2 0x416 PUSH2 0x11EE JUMP JUMPDEST JUMPDEST SWAP1 PUSH0 MSTORE PUSH1 0x20 PUSH0 KECCAK256 SWAP1 PUSH1 0x3 MUL ADD PUSH1 0x40 MLOAD DUP1 PUSH1 0x60 ADD PUSH1 0x40 MSTORE SWAP1 DUP2 PUSH0 DUP3 ADD DUP1 SLOAD PUSH2 0x43D SWAP1 PUSH2 0xCF0 JUMP JUMPDEST DUP1 PUSH1 0x1F ADD PUSH1 0x20 DUP1 SWAP2 DIV MUL PUSH1 0x20 ADD PUSH1 0x40 MLOAD SWAP1 DUP2 ADD PUSH1 0x40 MSTORE DUP1 SWAP3 SWAP2 SWAP1 DUP2 DUP2 MSTORE PUSH1 0x20 ADD DUP3 DUP1 SLOAD PUSH2 0x469 SWAP1 PUSH2 0xCF0 JUMP JUMPDEST DUP1 ISZERO PUSH2 0x4B4 JUMPI DUP1 PUSH1 0x1F LT PUSH2 0x48B JUMPI PUSH2 0x100 DUP1 DUP4 SLOAD DIV MUL DUP4 MSTORE SWAP2 PUSH1 0x20 ADD SWAP2 PUSH2 0x4B4 JUMP JUMPDEST DUP3 ADD SWAP2 SWAP1 PUSH0 MSTORE PUSH1 0x20 PUSH0 KECCAK256 SWAP1 JUMPDEST DUP2 SLOAD DUP2 MSTORE SWAP1 PUSH1 0x1 ADD SWAP1 PUSH1 0x20 ADD DUP1 DUP4 GT PUSH2 0x497 JUMPI DUP3 SWAP1 SUB PUSH1 0x1F AND DUP3 ADD SWAP2 JUMPDEST POP POP POP POP POP DUP2 MSTORE PUSH1 0x20 ADD PUSH1 0x1 DUP3 ADD DUP1 SLOAD PUSH2 0x4CD SWAP1 PUSH2 0xCF0 JUMP JUMPDEST DUP1 PUSH1 0x1F ADD PUSH1 0x20 DUP1 SWAP2 DIV MUL PUSH1 0x20 ADD PUSH1 0x40 MLOAD SWAP1 DUP2 ADD PUSH1 0x40 MSTORE DUP1 SWAP3 SWAP2 SWAP1 DUP2 DUP2 MSTORE PUSH1 0x20 ADD DUP3 DUP1 SLOAD PUSH2 0x4F9 SWAP1 PUSH2 0xCF0 JUMP JUMPDEST DUP1 ISZERO PUSH2 0x544 JUMPI DUP1 PUSH1 0x1F LT PUSH2 0x51B JUMPI PUSH2 0x100 DUP1 DUP4 SLOAD DIV MUL DUP4 MSTORE SWAP2 PUSH1 0x20 ADD SWAP2 PUSH2 0x544 JUMP JUMPDEST DUP3 ADD SWAP2 SWAP1 PUSH0 MSTORE PUSH1 0x20 PUSH0 KECCAK256 SWAP1 JUMPDEST DUP2 SLOAD DUP2 MSTORE SWAP1 PUSH1 0x1 ADD SWAP1 PUSH1 0x20 ADD DUP1 DUP4 GT PUSH2 0x527 JUMPI DUP3 SWAP1 SUB PUSH1 0x1F AND DUP3 ADD SWAP2 JUMPDEST POP POP POP POP POP DUP2 MSTORE PUSH1 0x20 ADD PUSH1 0x2 DUP3 ADD SLOAD DUP2 MSTORE POP POP SWAP1 POP SWAP2 SWAP1 POP JUMP JUMPDEST PUSH0 DUP2 DUP2 SLOAD DUP2 LT PUSH2 0x56C JUMPI PUSH0 DUP1 REVERT JUMPDEST SWAP1 PUSH0 MSTORE PUSH1 0x20 PUSH0 KECCAK256 SWAP1 PUSH1 0x3 MUL ADD PUSH0 SWAP2 POP SWAP1 POP DUP1 PUSH0 ADD DUP1 SLOAD PUSH2 0x58B SWAP1 PUSH2 0xCF0 JUMP JUMPDEST DUP1 PUSH1 0x1F ADD PUSH1 0x20 DUP1 SWAP2 DIV MUL PUSH1 0x20 ADD PUSH1 0x40 MLOAD SWAP1 DUP2 ADD PUSH1 0x40 MSTORE DUP1 SWAP3 SWAP2 SWAP1 DUP2 DUP2 MSTORE PUSH1 0x20 ADD DUP3 DUP1 SLOAD PUSH2 0x5B7 SWAP1 PUSH2 0xCF0 JUMP JUMPDEST DUP1 ISZERO PUSH2 0x602 JUMPI DUP1 PUSH1 0x1F LT PUSH2 0x5D9 JUMPI PUSH2 0x100 DUP1 DUP4 SLOAD DIV MUL DUP4 MSTORE SWAP2 PUSH1 0x20 ADD SWAP2 PUSH2 0x602 JUMP JUMPDEST DUP3 ADD SWAP2 SWAP1 PUSH0 MSTORE PUSH1 0x20 PUSH0 KECCAK256 SWAP1 JUMPDEST DUP2 SLOAD DUP2 MSTORE SWAP1 PUSH1 0x1 ADD SWAP1 PUSH1 0x20 ADD DUP1 DUP4 GT PUSH2 0x5E5 JUMPI DUP3 SWAP1 SUB PUSH1 0x1F AND DUP3 ADD SWAP2 JUMPDEST POP POP POP POP POP SWAP1 DUP1 PUSH1 0x1 ADD DUP1 SLOAD PUSH2 0x617 SWAP1 PUSH2 0xCF0 JUMP JUMPDEST DUP1 PUSH1 0x1F ADD PUSH1 0x20 DUP1 SWAP2 DIV MUL PUSH1 0x20 ADD PUSH1 0x40 MLOAD SWAP1 DUP2 ADD PUSH1 0x40 MSTORE DUP1 SWAP3 SWAP2 SWAP1 DUP2 DUP2 MSTORE PUSH1 0x20 ADD DUP3 DUP1 SLOAD PUSH2 0x643 SWAP1 PUSH2 0xCF0 JUMP JUMPDEST DUP1 ISZERO PUSH2 0x68E JUMPI DUP1 PUSH1 0x1F LT PUSH2 0x665 JUMPI PUSH2 0x100 DUP1 DUP4 SLOAD DIV MUL DUP4 MSTORE SWAP2 PUSH1 0x20 ADD SWAP2 PUSH2 0x68E JUMP JUMPDEST DUP3 ADD SWAP2 SWAP1 PUSH0 MSTORE PUSH1 0x20 PUSH0 KECCAK256 SWAP1 JUMPDEST DUP2 SLOAD DUP2 MSTORE SWAP1 PUSH1 0x1 ADD SWAP1 PUSH1 0x20 ADD DUP1 DUP4 GT PUSH2 0x671 JUMPI DUP3 SWAP1 SUB PUSH1 0x1F AND DUP3 ADD SWAP2 JUMPDEST POP POP POP POP POP SWAP1 DUP1 PUSH1 0x2 ADD SLOAD SWAP1 POP DUP4 JUMP JUMPDEST PUSH1 0x40 MLOAD DUP1 PUSH1 0x60 ADD PUSH1 0x40 MSTORE DUP1 PUSH1 0x60 DUP2 MSTORE PUSH1 0x20 ADD PUSH1 0x60 DUP2 MSTORE PUSH1 0x20 ADD PUSH0 DUP2 MSTORE POP SWAP1 JUMP JUMPDEST PUSH0 DUP2 MLOAD SWAP1 POP SWAP2 SWAP1 POP JUMP JUMPDEST PUSH0 DUP3 DUP3 MSTORE PUSH1 0x20 DUP3 ADD SWAP1 POP SWAP3 SWAP2 POP POP JUMP JUMPDEST PUSH0 DUP2 SWAP1 POP PUSH1 0x20 DUP3 ADD SWAP1 POP SWAP2 SWAP1 POP JUMP JUMPDEST PUSH0 DUP2 MLOAD SWAP1 POP SWAP2 SWAP1 POP JUMP JUMPDEST PUSH0 DUP3 DUP3 MSTORE PUSH1 0x20 DUP3 ADD SWAP1 POP SWAP3 SWAP2 POP POP JUMP JUMPDEST DUP3 DUP2 DUP4 MCOPY PUSH0 DUP4 DUP4 ADD MSTORE POP POP POP JUMP JUMPDEST PUSH0 PUSH1 0x1F NOT PUSH1 0x1F DUP4 ADD AND SWAP1 POP SWAP2 SWAP1 POP JUMP JUMPDEST PUSH0 PUSH2 0x729 DUP3 PUSH2 0x6E7 JUMP JUMPDEST PUSH2 0x733 DUP2 DUP6 PUSH2 0x6F1 JUMP JUMPDEST SWAP4 POP PUSH2 0x743 DUP2 DUP6 PUSH1 0x20 DUP7 ADD PUSH2 0x701 JUMP JUMPDEST PUSH2 0x74C DUP2 PUSH2 0x70F JUMP JUMPDEST DUP5 ADD SWAP2 POP POP SWAP3 SWAP2 POP POP JUMP JUMPDEST PUSH0 DUP2 MLOAD SWAP1 POP SWAP2 SWAP1 POP JUMP JUMPDEST PUSH0 DUP3 DUP3 MSTORE PUSH1 0x20 DUP3 ADD SWAP1 POP SWAP3 SWAP2 POP POP JUMP JUMPDEST PUSH0 PUSH2 0x77B DUP3 PUSH2 0x757 JUMP JUMPDEST PUSH2 0x785 DUP2 DUP6 PUSH2 0x761 JUMP JUMPDEST SWAP4 POP PUSH2 0x795 DUP2 DUP6 PUSH1 0x20 DUP7 ADD PUSH2 0x701 JUMP JUMPDEST PUSH2 0x79E DUP2 PUSH2 0x70F JUMP JUMPDEST DUP5 ADD SWAP2 POP POP SWAP3 SWAP2 POP POP JUMP JUMPDEST PUSH0 DUP2 SWAP1 POP SWAP2 SWAP1 POP JUMP JUMPDEST PUSH2 0x7BB DUP2 PUSH2 0x7A9 JUMP JUMPDEST DUP3 MSTORE POP POP JUMP JUMPDEST PUSH0 PUSH1 0x60 DUP4 ADD PUSH0 DUP4 ADD MLOAD DUP5 DUP3 SUB PUSH0 DUP7 ADD MSTORE PUSH2 0x7DB DUP3 DUP3 PUSH2 0x71F JUMP JUMPDEST SWAP2 POP POP PUSH1 0x20 DUP4 ADD MLOAD DUP5 DUP3 SUB PUSH1 0x20 DUP7 ADD MSTORE PUSH2 0x7F5 DUP3 DUP3 PUSH2 0x771 JUMP JUMPDEST SWAP2 POP POP PUSH1 0x40 DUP4 ADD MLOAD PUSH2 0x80A PUSH1 0x40 DUP7 ADD DUP3 PUSH2 0x7B2 JUMP JUMPDEST POP DUP1 SWAP2 POP POP SWAP3 SWAP2 POP POP JUMP JUMPDEST PUSH0 PUSH2 0x820 DUP4 DUP4 PUSH2 0x7C1 JUMP JUMPDEST SWAP1 POP SWAP3 SWAP2 POP POP JUMP JUMPDEST PUSH0 PUSH1 0x20 DUP3 ADD SWAP1 POP SWAP2 SWAP1 POP JUMP JUMPDEST PUSH0 PUSH2 0x83E DUP3 PUSH2 0x6BE JUMP JUMPDEST PUSH2 0x848 DUP2 DUP6 PUSH2 0x6C8 JUMP JUMPDEST SWAP4 POP DUP4 PUSH1 0x20 DUP3 MUL DUP6 ADD PUSH2 0x85A DUP6 PUSH2 0x6D8 JUMP JUMPDEST DUP1 PUSH0 JUMPDEST DUP6 DUP2 LT ISZERO PUSH2 0x895 JUMPI DUP5 DUP5 SUB DUP10 MSTORE DUP2 MLOAD PUSH2 0x876 DUP6 DUP3 PUSH2 0x815 JUMP JUMPDEST SWAP5 POP PUSH2 0x881 DUP4 PUSH2 0x828 JUMP JUMPDEST SWAP3 POP PUSH1 0x20 DUP11 ADD SWAP10 POP POP PUSH1 0x1 DUP2 ADD SWAP1 POP PUSH2 0x85D JUMP JUMPDEST POP DUP3 SWAP8 POP DUP8 SWAP6 POP POP POP POP POP POP SWAP3 SWAP2 POP POP JUMP JUMPDEST PUSH0 PUSH1 0x20 DUP3 ADD SWAP1 POP DUP2 DUP2 SUB PUSH0 DUP4 ADD MSTORE PUSH2 0x8BF DUP2 DUP5 PUSH2 0x834 JUMP JUMPDEST SWAP1 POP SWAP3 SWAP2 POP POP JUMP JUMPDEST PUSH0 PUSH1 0x40 MLOAD SWAP1 POP SWAP1 JUMP JUMPDEST PUSH0 PUSH0 REVERT JUMPDEST PUSH0 PUSH0 REVERT JUMPDEST PUSH0 PUSH0 REVERT JUMPDEST PUSH0 PUSH0 REVERT JUMPDEST PUSH32 0x4E487B7100000000000000000000000000000000000000000000000000000000 PUSH0 MSTORE PUSH1 0x41 PUSH1 0x4 MSTORE PUSH1 0x24 PUSH0 REVERT JUMPDEST PUSH2 0x916 DUP3 PUSH2 0x70F JUMP JUMPDEST DUP2 ADD DUP2 DUP2 LT PUSH8 0xFFFFFFFFFFFFFFFF DUP3 GT OR ISZERO PUSH2 0x935 JUMPI PUSH2 0x934 PUSH2 0x8E0 JUMP JUMPDEST JUMPDEST DUP1 PUSH1 0x40 MSTORE POP POP POP JUMP JUMPDEST PUSH0 PUSH2 0x947 PUSH2 0x8C7 JUMP JUMPDEST SWAP1 POP PUSH2 0x953 DUP3 DUP3 PUSH2 0x90D JUMP JUMPDEST SWAP2 SWAP1 POP JUMP JUMPDEST PUSH0 PUSH8 0xFFFFFFFFFFFFFFFF DUP3 GT ISZERO PUSH2 0x972 JUMPI PUSH2 0x971 PUSH2 0x8E0 JUMP JUMPDEST JUMPDEST PUSH2 0x97B DUP3 PUSH2 0x70F JUMP JUMPDEST SWAP1 POP PUSH1 0x20 DUP2 ADD SWAP1 POP SWAP2 SWAP1 POP JUMP JUMPDEST DUP3 DUP2 DUP4 CALLDATACOPY PUSH0 DUP4 DUP4 ADD MSTORE POP POP POP JUMP JUMPDEST PUSH0 PUSH2 0x9A8 PUSH2 0x9A3 DUP5 PUSH2 0x958 JUMP JUMPDEST PUSH2 0x93E JUMP JUMPDEST SWAP1 POP DUP3 DUP2 MSTORE PUSH1 0x20 DUP2 ADD DUP5 DUP5 DUP5 ADD GT ISZERO PUSH2 0x9C4 JUMPI PUSH2 0x9C3 PUSH2 0x8DC JUMP JUMPDEST JUMPDEST PUSH2 0x9CF DUP5 DUP3 DUP6 PUSH2 0x988 JUMP JUMPDEST POP SWAP4 SWAP3 POP POP POP JUMP JUMPDEST PUSH0 DUP3 PUSH1 0x1F DUP4 ADD SLT PUSH2 0x9EB JUMPI PUSH2 0x9EA PUSH2 0x8D8 JUMP JUMPDEST JUMPDEST DUP2 CALLDATALOAD PUSH2 0x9FB DUP5 DUP3 PUSH1 0x20 DUP7 ADD PUSH2 0x996 JUMP JUMPDEST SWAP2 POP POP SWAP3 SWAP2 POP POP JUMP JUMPDEST PUSH0 PUSH8 0xFFFFFFFFFFFFFFFF DUP3 GT ISZERO PUSH2 0xA1E JUMPI PUSH2 0xA1D PUSH2 0x8E0 JUMP JUMPDEST JUMPDEST PUSH2 0xA27 DUP3 PUSH2 0x70F JUMP JUMPDEST SWAP1 POP PUSH1 0x20 DUP2 ADD SWAP1 POP SWAP2 SWAP1 POP JUMP JUMPDEST PUSH0 PUSH2 0xA46 PUSH2 0xA41 DUP5 PUSH2 0xA04 JUMP JUMPDEST PUSH2 0x93E JUMP JUMPDEST SWAP1 POP DUP3 DUP2 MSTORE PUSH1 0x20 DUP2 ADD DUP5 DUP5 DUP5 ADD GT ISZERO PUSH2 0xA62 JUMPI PUSH2 0xA61 PUSH2 0x8DC JUMP JUMPDEST JUMPDEST PUSH2 0xA6D DUP5 DUP3 DUP6 PUSH2 0x988 JUMP JUMPDEST POP SWAP4 SWAP3 POP POP POP JUMP JUMPDEST PUSH0 DUP3 PUSH1 0x1F DUP4 ADD SLT PUSH2 0xA89 JUMPI PUSH2 0xA88 PUSH2 0x8D8 JUMP JUMPDEST JUMPDEST DUP2 CALLDATALOAD PUSH2 0xA99 DUP5 DUP3 PUSH1 0x20 DUP7 ADD PUSH2 0xA34 JUMP JUMPDEST SWAP2 POP POP SWAP3 SWAP2 POP POP JUMP JUMPDEST PUSH0 PUSH0 PUSH1 0x40 DUP4 DUP6 SUB SLT ISZERO PUSH2 0xAB8 JUMPI PUSH2 0xAB7 PUSH2 0x8D0 JUMP JUMPDEST JUMPDEST PUSH0 DUP4 ADD CALLDATALOAD PUSH8 0xFFFFFFFFFFFFFFFF DUP2 GT ISZERO PUSH2 0xAD5 JUMPI PUSH2 0xAD4 PUSH2 0x8D4 JUMP JUMPDEST JUMPDEST PUSH2 0xAE1 DUP6 DUP3 DUP7 ADD PUSH2 0x9D7 JUMP JUMPDEST SWAP3 POP POP PUSH1 0x20 DUP4 ADD CALLDATALOAD PUSH8 0xFFFFFFFFFFFFFFFF DUP2 GT ISZERO PUSH2 0xB02 JUMPI PUSH2 0xB01 PUSH2 0x8D4 JUMP JUMPDEST JUMPDEST PUSH2 0xB0E DUP6 DUP3 DUP7 ADD PUSH2 0xA75 JUMP JUMPDEST SWAP2 POP POP SWAP3 POP SWAP3 SWAP1 POP JUMP JUMPDEST PUSH2 0xB21 DUP2 PUSH2 0x7A9 JUMP JUMPDEST DUP2 EQ PUSH2 0xB2B JUMPI PUSH0 PUSH0 REVERT JUMPDEST POP JUMP JUMPDEST PUSH0 DUP2 CALLDATALOAD SWAP1 POP PUSH2 0xB3C DUP2 PUSH2 0xB18 JUMP JUMPDEST SWAP3 SWAP2 POP POP JUMP JUMPDEST PUSH0 PUSH1 0x20 DUP3 DUP5 SUB SLT ISZERO PUSH2 0xB57 JUMPI PUSH2 0xB56 PUSH2 0x8D0 JUMP JUMPDEST JUMPDEST PUSH0 PUSH2 0xB64 DUP5 DUP3 DUP6 ADD PUSH2 0xB2E JUMP JUMPDEST SWAP2 POP POP SWAP3 SWAP2 POP POP JUMP JUMPDEST PUSH0 PUSH1 0x60 DUP4 ADD PUSH0 DUP4 ADD MLOAD DUP5 DUP3 SUB PUSH0 DUP7 ADD MSTORE PUSH2 0xB87 DUP3 DUP3 PUSH2 0x71F JUMP JUMPDEST SWAP2 POP POP PUSH1 0x20 DUP4 ADD MLOAD DUP5 DUP3 SUB PUSH1 0x20 DUP7 ADD MSTORE PUSH2 0xBA1 DUP3 DUP3 PUSH2 0x771 JUMP JUMPDEST SWAP2 POP POP PUSH1 0x40 DUP4 ADD MLOAD PUSH2 0xBB6 PUSH1 0x40 DUP7 ADD DUP3 PUSH2 0x7B2 JUMP JUMPDEST POP DUP1 SWAP2 POP POP SWAP3 SWAP2 POP POP JUMP JUMPDEST PUSH0 PUSH1 0x20 DUP3 ADD SWAP1 POP DUP2 DUP2 SUB PUSH0 DUP4 ADD MSTORE PUSH2 0xBD9 DUP2 DUP5 PUSH2 0xB6D JUMP JUMPDEST SWAP1 POP SWAP3 SWAP2 POP POP JUMP JUMPDEST PUSH0 DUP3 DUP3 MSTORE PUSH1 0x20 DUP3 ADD SWAP1 POP SWAP3 SWAP2 POP POP JUMP JUMPDEST PUSH0 PUSH2 0xBFB DUP3 PUSH2 0x6E7 JUMP JUMPDEST PUSH2 0xC05 DUP2 DUP6 PUSH2 0xBE1 JUMP JUMPDEST SWAP4 POP PUSH2 0xC15 DUP2 DUP6 PUSH1 0x20 DUP7 ADD PUSH2 0x701 JUMP JUMPDEST PUSH2 0xC1E DUP2 PUSH2 0x70F JUMP JUMPDEST DUP5 ADD SWAP2 POP POP SWAP3 SWAP2 POP POP JUMP JUMPDEST PUSH0 DUP3 DUP3 MSTORE PUSH1 0x20 DUP3 ADD SWAP1 POP SWAP3 SWAP2 POP POP JUMP JUMPDEST PUSH0 PUSH2 0xC43 DUP3 PUSH2 0x757 JUMP JUMPDEST PUSH2 0xC4D DUP2 DUP6 PUSH2 0xC29 JUMP JUMPDEST SWAP4 POP PUSH2 0xC5D DUP2 DUP6 PUSH1 0x20 DUP7 ADD PUSH2 0x701 JUMP JUMPDEST PUSH2 0xC66 DUP2 PUSH2 0x70F JUMP JUMPDEST DUP5 ADD SWAP2 POP POP SWAP3 SWAP2 POP POP JUMP JUMPDEST PUSH2 0xC7A DUP2 PUSH2 0x7A9 JUMP JUMPDEST DUP3 MSTORE POP POP JUMP JUMPDEST PUSH0 PUSH1 0x60 DUP3 ADD SWAP1 POP DUP2 DUP2 SUB PUSH0 DUP4 ADD MSTORE PUSH2 0xC98 DUP2 DUP7 PUSH2 0xBF1 JUMP JUMPDEST SWAP1 POP DUP2 DUP2 SUB PUSH1 0x20 DUP4 ADD MSTORE PUSH2 0xCAC DUP2 DUP6 PUSH2 0xC39 JUMP JUMPDEST SWAP1 POP PUSH2 0xCBB PUSH1 0x40 DUP4 ADD DUP5 PUSH2 0xC71 JUMP JUMPDEST SWAP5 SWAP4 POP POP POP POP JUMP JUMPDEST PUSH32 0x4E487B7100000000000000000000000000000000000000000000000000000000 PUSH0 MSTORE PUSH1 0x22 PUSH1 0x4 MSTORE PUSH1 0x24 PUSH0 REVERT JUMPDEST PUSH0 PUSH1 0x2 DUP3 DIV SWAP1 POP PUSH1 0x1 DUP3 AND DUP1 PUSH2 0xD07 JUMPI PUSH1 0x7F DUP3 AND SWAP2 POP JUMPDEST PUSH1 0x20 DUP3 LT DUP2 SUB PUSH2 0xD1A JUMPI PUSH2 0xD19 PUSH2 0xCC3 JUMP JUMPDEST JUMPDEST POP SWAP2 SWAP1 POP JUMP JUMPDEST PUSH32 0x41737365742049442069732072657175697265642E0000000000000000000000 PUSH0 DUP3 ADD MSTORE POP JUMP JUMPDEST PUSH0 PUSH2 0xD54 PUSH1 0x15 DUP4 PUSH2 0xBE1 JUMP JUMPDEST SWAP2 POP PUSH2 0xD5F DUP3 PUSH2 0xD20 JUMP JUMPDEST PUSH1 0x20 DUP3 ADD SWAP1 POP SWAP2 SWAP1 POP JUMP JUMPDEST PUSH0 PUSH1 0x20 DUP3 ADD SWAP1 POP DUP2 DUP2 SUB PUSH0 DUP4 ADD MSTORE PUSH2 0xD81 DUP2 PUSH2 0xD48 JUMP JUMPDEST SWAP1 POP SWAP2 SWAP1 POP JUMP JUMPDEST PUSH32 0x41737365742068617368206D7573742062652033322062797465732E00000000 PUSH0 DUP3 ADD MSTORE POP JUMP JUMPDEST PUSH0 PUSH2 0xDBC PUSH1 0x1C DUP4 PUSH2 0xBE1 JUMP JUMPDEST SWAP2 POP PUSH2 0xDC7 DUP3 PUSH2 0xD88 JUMP JUMPDEST PUSH1 0x20 DUP3 ADD SWAP1 POP SWAP2 SWAP1 POP JUMP JUMPDEST PUSH0 PUSH1 0x20 DUP3 ADD SWAP1 POP DUP2 DUP2 SUB PUSH0 DUP4 ADD MSTORE PUSH2 0xDE9 DUP2 PUSH2 0xDB0 JUMP JUMPDEST SWAP1 POP SWAP2 SWAP1 POP JUMP JUMPDEST PUSH0 DUP2 SWAP1 POP DUP2 PUSH0 MSTORE PUSH1 0x20 PUSH0 KECCAK256 SWAP1 POP SWAP2 SWAP1 POP JUMP JUMPDEST PUSH0 PUSH1 0x20 PUSH1 0x1F DUP4 ADD DIV SWAP1 POP SWAP2 SWAP1 POP JUMP JUMPDEST PUSH0 DUP3 DUP3 SHL SWAP1 POP SWAP3 SWAP2 POP POP JUMP JUMPDEST PUSH0 PUSH1 0x8 DUP4 MUL PUSH2 0xE4C PUSH32 0xFFFFFFFFFFFFFFFFFFFFFFFFFFFFFFFFFFFFFFFFFFFFFFFFFFFFFFFFFFFFFFFF DUP3 PUSH2 0xE11 JUMP JUMPDEST PUSH2 0xE56 DUP7 DUP4 PUSH2 0xE11 JUMP JUMPDEST SWAP6 POP DUP1 NOT DUP5 AND SWAP4 POP DUP1 DUP7 AND DUP5 OR SWAP3 POP POP POP SWAP4 SWAP3 POP POP POP JUMP JUMPDEST PUSH0 DUP2 SWAP1 POP SWAP2 SWAP1 POP JUMP JUMPDEST PUSH0 PUSH2 0xE91 PUSH2 0xE8C PUSH2 0xE87 DUP5 PUSH2 0x7A9 JUMP JUMPDEST PUSH2 0xE6E JUMP JUMPDEST PUSH2 0x7A9 JUMP JUMPDEST SWAP1 POP SWAP2 SWAP1 POP JUMP JUMPDEST PUSH0 DUP2 SWAP1 POP SWAP2 SWAP1 POP JUMP JUMPDEST PUSH2 0xEAA DUP4 PUSH2 0xE77 JUMP JUMPDEST PUSH2 0xEBE PUSH2 0xEB6 DUP3 PUSH2 0xE98 JUMP JUMPDEST DUP5 DUP5 SLOAD PUSH2 0xE1D JUMP JUMPDEST DUP3 SSTORE POP POP POP POP JUMP JUMPDEST PUSH0 PUSH0 SWAP1 POP SWAP1 JUMP JUMPDEST PUSH2 0xED5 PUSH2 0xEC6 JUMP JUMPDEST PUSH2 0xEE0 DUP2 DUP5 DUP5 PUSH2 0xEA1 JUMP JUMPDEST POP POP POP JUMP JUMPDEST JUMPDEST DUP2 DUP2 LT ISZERO PUSH2 0xF03 JUMPI PUSH2 0xEF8 PUSH0 DUP3 PUSH2 0xECD JUMP JUMPDEST PUSH1 0x1 DUP2 ADD SWAP1 POP PUSH2 0xEE6 JUMP JUMPDEST POP POP JUMP JUMPDEST PUSH1 0x1F DUP3 GT ISZERO PUSH2 0xF48 JUMPI PUSH2 0xF19 DUP2 PUSH2 0xDF0 JUMP JUMPDEST PUSH2 0xF22 DUP5 PUSH2 0xE02 JUMP JUMPDEST DUP2 ADD PUSH1 0x20 DUP6 LT ISZERO PUSH2 0xF31 JUMPI DUP2 SWAP1 POP JUMPDEST PUSH2 0xF45 PUSH2 0xF3D DUP6 PUSH2 0xE02 JUMP JUMPDEST DUP4 ADD DUP3 PUSH2 0xEE5 JUMP JUMPDEST POP POP JUMPDEST POP POP POP JUMP JUMPDEST PUSH0 DUP3 DUP3 SHR SWAP1 POP SWAP3 SWAP2 POP POP JUMP JUMPDEST PUSH0 PUSH2 0xF68 PUSH0 NOT DUP5 PUSH1 0x8 MUL PUSH2 0xF4D JUMP JUMPDEST NOT DUP1 DUP4 AND SWAP2 POP POP SWAP3 SWAP2 POP POP JUMP JUMPDEST PUSH0 PUSH2 0xF80 DUP4 DUP4 PUSH2 0xF59 JUMP JUMPDEST SWAP2 POP DUP3 PUSH1 0x2 MUL DUP3 OR SWAP1 POP SWAP3 SWAP2 POP POP JUMP JUMPDEST PUSH2 0xF99 DUP3 PUSH2 0x6E7 JUMP JUMPDEST PUSH8 0xFFFFFFFFFFFFFFFF DUP2 GT ISZERO PUSH2 0xFB2 JUMPI PUSH2 0xFB1 PUSH2 0x8E0 JUMP JUMPDEST JUMPDEST PUSH2 0xFBC DUP3 SLOAD PUSH2 0xCF0 JUMP JUMPDEST PUSH2 0xFC7 DUP3 DUP3 DUP6 PUSH2 0xF07 JUMP JUMPDEST PUSH0 PUSH1 0x20 SWAP1 POP PUSH1 0x1F DUP4 GT PUSH1 0x1 DUP2 EQ PUSH2 0xFF8 JUMPI PUSH0 DUP5 ISZERO PUSH2 0xFE6 JUMPI DUP3 DUP8 ADD MLOAD SWAP1 POP JUMPDEST PUSH2 0xFF0 DUP6 DUP3 PUSH2 0xF75 JUMP JUMPDEST DUP7 SSTORE POP PUSH2 0x1057 JUMP JUMPDEST PUSH1 0x1F NOT DUP5 AND PUSH2 0x1006 DUP7 PUSH2 0xDF0 JUMP JUMPDEST PUSH0 JUMPDEST DUP3 DUP2 LT ISZERO PUSH2 0x102D JUMPI DUP5 DUP10 ADD MLOAD DUP3 SSTORE PUSH1 0x1 DUP3 ADD SWAP2 POP PUSH1 0x20 DUP6 ADD SWAP5 POP PUSH1 0x20 DUP2 ADD SWAP1 POP PUSH2 0x1008 JUMP JUMPDEST DUP7 DUP4 LT ISZERO PUSH2 0x104A JUMPI DUP5 DUP10 ADD MLOAD PUSH2 0x1046 PUSH1 0x1F DUP10 AND DUP3 PUSH2 0xF59 JUMP JUMPDEST DUP4 SSTORE POP JUMPDEST PUSH1 0x1 PUSH1 0x2 DUP9 MUL ADD DUP9 SSTORE POP POP POP JUMPDEST POP POP POP POP POP POP JUMP JUMPDEST PUSH0 DUP2 SWAP1 POP DUP2 PUSH0 MSTORE PUSH1 0x20 PUSH0 KECCAK256 SWAP1 POP SWAP2 SWAP1 POP JUMP JUMPDEST PUSH1 0x1F DUP3 GT ISZERO PUSH2 0x10B2 JUMPI PUSH2 0x1083 DUP2 PUSH2 0x105F JUMP JUMPDEST PUSH2 0x108C DUP5 PUSH2 0xE02 JUMP JUMPDEST DUP2 ADD PUSH1 0x20 DUP6 LT ISZERO PUSH2 0x109B JUMPI DUP2 SWAP1 POP JUMPDEST PUSH2 0x10AF PUSH2 0x10A7 DUP6 PUSH2 0xE02 JUMP JUMPDEST DUP4 ADD DUP3 PUSH2 0xEE5 JUMP JUMPDEST POP POP JUMPDEST POP POP POP JUMP JUMPDEST PUSH2 0x10C0 DUP3 PUSH2 0x757 JUMP JUMPDEST PUSH8 0xFFFFFFFFFFFFFFFF DUP2 GT ISZERO PUSH2 0x10D9 JUMPI PUSH2 0x10D8 PUSH2 0x8E0 JUMP JUMPDEST JUMPDEST PUSH2 0x10E3 DUP3 SLOAD PUSH2 0xCF0 JUMP JUMPDEST PUSH2 0x10EE DUP3 DUP3 DUP6 PUSH2 0x1071 JUMP JUMPDEST PUSH0 PUSH1 0x20 SWAP1 POP PUSH1 0x1F DUP4 GT PUSH1 0x1 DUP2 EQ PUSH2 0x111F JUMPI PUSH0 DUP5 ISZERO PUSH2 0x110D JUMPI DUP3 DUP8 ADD MLOAD SWAP1 POP JUMPDEST PUSH2 0x1117 DUP6 DUP3 PUSH2 0xF75 JUMP JUMPDEST DUP7 SSTORE POP PUSH2 0x117E JUMP JUMPDEST PUSH1 0x1F NOT DUP5 AND PUSH2 0x112D DUP7 PUSH2 0x105F JUMP JUMPDEST PUSH0 JUMPDEST DUP3 DUP2 LT ISZERO PUSH2 0x1154 JUMPI DUP5 DUP10 ADD MLOAD DUP3 SSTORE PUSH1 0x1 DUP3 ADD SWAP2 POP PUSH1 0x20 DUP6 ADD SWAP5 POP PUSH1 0x20 DUP2 ADD SWAP1 POP PUSH2 0x112F JUMP JUMPDEST DUP7 DUP4 LT ISZERO PUSH2 0x1171 JUMPI DUP5 DUP10 ADD MLOAD PUSH2 0x116D PUSH1 0x1F DUP10 AND DUP3 PUSH2 0xF59 JUMP JUMPDEST DUP4 SSTORE POP JUMPDEST PUSH1 0x1 PUSH1 0x2 DUP9 MUL ADD DUP9 SSTORE POP POP POP JUMPDEST POP POP POP POP POP POP JUMP JUMPDEST PUSH32 0x417373657420646F6573206E6F742065786973742E0000000000000000000000 PUSH0 DUP3 ADD MSTORE POP JUMP JUMPDEST PUSH0 PUSH2 0x11BA PUSH1 0x15 DUP4 PUSH2 0xBE1 JUMP JUMPDEST SWAP2 POP PUSH2 0x11C5 DUP3 PUSH2 0x1186 JUMP JUMPDEST PUSH1 0x20 DUP3 ADD SWAP1 POP SWAP2 SWAP1 POP JUMP JUMPDEST PUSH0 PUSH1 0x20 DUP3 ADD SWAP1 POP DUP2 DUP2 SUB PUSH0 DUP4 ADD MSTORE PUSH2 0x11E7 DUP2 PUSH2 0x11AE JUMP JUMPDEST SWAP1 POP SWAP2 SWAP1 POP JUMP JUMPDEST PUSH32 0x4E487B7100000000000000000000000000000000000000000000000000000000 PUSH0 MSTORE PUSH1 0x32 PUSH1 0x4 MSTORE PUSH1 0x24 PUSH0 REVERT INVALID LOG2 PUSH5 0x6970667358 0x22 SLT KECCAK256 COINBASE PUSH27 0x7994C1BFC307E3CEA1E84770F5F86C846B5CBD795E8FAF0CF164C2 DUP16 NUMBER EQ PUSH5 0x736F6C6343 STOP ADDMOD SHR STOP CALLER "
	},
	"Assembly": ".code\n  PUSH 80\t\t\tcontract HederaAssetContract {...\n  PUSH 40\t\t\tcontract HederaAssetContract {...\n  MSTORE \t\t\tcontract HederaAssetContract {...\n  CALLVALUE \t\t\tcontract HederaAssetContract {...\n  DUP1 \t\t\tcontract HederaAssetContract {...\n  ISZERO \t\t\tcontract HederaAssetContract {...\n  PUSH [tag] 1\t\t\tcontract HederaAssetContract {...\n  JUMPI \t\t\tcontract HederaAssetContract {...\n  PUSH 0\t\t\tcontract HederaAssetContract {...\n  PUSH 0\t\t\tcontract HederaAssetContract {...\n  REVERT \t\t\tcontract HederaAssetContract {...\ntag 1\t\t\tcontract HederaAssetContract {...\n  JUMPDEST \t\t\tcontract HederaAssetContract {...\n  POP \t\t\tcontract HederaAssetContract {...\n  PUSH #[$] 0000000000000000000000000000000000000000000000000000000000000000\t\t\tcontract HederaAssetContract {...\n  DUP1 \t\t\tcontract HederaAssetContract {...\n  PUSH [$] 0000000000000000000000000000000000000000000000000000000000000000\t\t\tcontract HederaAssetContract {...\n  PUSH 0\t\t\tcontract HederaAssetContract {...\n  CODECOPY \t\t\tcontract HederaAssetContract {...\n  PUSH 0\t\t\tcontract HederaAssetContract {...\n  RETURN \t\t\tcontract HederaAssetContract {...\n.data\n  0:\n    .code\n      PUSH 80\t\t\tcontract HederaAssetContract {...\n      PUSH 40\t\t\tcontract HederaAssetContract {...\n      MSTORE \t\t\tcontract HederaAssetContract {...\n      CALLVALUE \t\t\tcontract HederaAssetContract {...\n      DUP1 \t\t\tcontract HederaAssetContract {...\n      ISZERO \t\t\tcontract HederaAssetContract {...\n      PUSH [tag] 1\t\t\tcontract HederaAssetContract {...\n      JUMPI \t\t\tcontract HederaAssetContract {...\n      PUSH 0\t\t\tcontract HederaAssetContract {...\n      PUSH 0\t\t\tcontract HederaAssetContract {...\n      REVERT \t\t\tcontract HederaAssetContract {...\n    tag 1\t\t\tcontract HederaAssetContract {...\n      JUMPDEST \t\t\tcontract HederaAssetContract {...\n      POP \t\t\tcontract HederaAssetContract {...\n      PUSH 4\t\t\tcontract HederaAssetContract {...\n      CALLDATASIZE \t\t\tcontract HederaAssetContract {...\n      LT \t\t\tcontract HederaAssetContract {...\n      PUSH [tag] 2\t\t\tcontract HederaAssetContract {...\n      JUMPI \t\t\tcontract HederaAssetContract {...\n      PUSH 0\t\t\tcontract HederaAssetContract {...\n      CALLDATALOAD \t\t\tcontract HederaAssetContract {...\n      PUSH E0\t\t\tcontract HederaAssetContract {...\n      SHR \t\t\tcontract HederaAssetContract {...\n      DUP1 \t\t\tcontract HederaAssetContract {...\n      PUSH 67E4AC2C\t\t\tcontract HederaAssetContract {...\n      EQ \t\t\tcontract HederaAssetContract {...\n      PUSH [tag] 3\t\t\tcontract HederaAssetContract {...\n      JUMPI \t\t\tcontract HederaAssetContract {...\n      DUP1 \t\t\tcontract HederaAssetContract {...\n      PUSH 9D955784\t\t\tcontract HederaAssetContract {...\n      EQ \t\t\tcontract HederaAssetContract {...\n      PUSH [tag] 4\t\t\tcontract HederaAssetContract {...\n      JUMPI \t\t\tcontract HederaAssetContract {...\n      DUP1 \t\t\tcontract HederaAssetContract {...\n      PUSH B3E444A7\t\t\tcontract HederaAssetContract {...\n      EQ \t\t\tcontract HederaAssetContract {...\n      PUSH [tag] 5\t\t\tcontract HederaAssetContract {...\n      JUMPI \t\t\tcontract HederaAssetContract {...\n      DUP1 \t\t\tcontract HederaAssetContract {...\n      PUSH CF35BDD0\t\t\tcontract HederaAssetContract {...\n      EQ \t\t\tcontract HederaAssetContract {...\n      PUSH [tag] 6\t\t\tcontract HederaAssetContract {...\n      JUMPI \t\t\tcontract HederaAssetContract {...\n    tag 2\t\t\tcontract HederaAssetContract {...\n      JUMPDEST \t\t\tcontract HederaAssetContract {...\n      PUSH 0\t\t\tcontract HederaAssetContract {...\n      PUSH 0\t\t\tcontract HederaAssetContract {...\n      REVERT \t\t\tcontract HederaAssetContract {...\n    tag 3\t\t\tfunction getAssets() public vi...\n      JUMPDEST \t\t\tfunction getAssets() public vi...\n      PUSH [tag] 7\t\t\tfunction getAssets() public vi...\n      PUSH [tag] 8\t\t\tfunction getAssets() public vi...\n      JUMP \t\t\tfunction getAssets() public vi...\n    tag 7\t\t\tfunction getAssets() public vi...\n      JUMPDEST \t\t\tfunction getAssets() public vi...\n      PUSH 40\t\t\tfunction getAssets() public vi...\n      MLOAD \t\t\tfunction getAssets() public vi...\n      PUSH [tag] 9\t\t\tfunction getAssets() public vi...\n      SWAP2 \t\t\tfunction getAssets() public vi...\n      SWAP1 \t\t\tfunction getAssets() public vi...\n      PUSH [tag] 10\t\t\tfunction getAssets() public vi...\n      JUMP \t\t\tfunction getAssets() public vi...\n    tag 9\t\t\tfunction getAssets() public vi...\n      JUMPDEST \t\t\tfunction getAssets() public vi...\n      PUSH 40\t\t\tfunction getAssets() public vi...\n      MLOAD \t\t\tfunction getAssets() public vi...\n      DUP1 \t\t\tfunction getAssets() public vi...\n      SWAP2 \t\t\tfunction getAssets() public vi...\n      SUB \t\t\tfunction getAssets() public vi...\n      SWAP1 \t\t\tfunction getAssets() public vi...\n      RETURN \t\t\tfunction getAssets() public vi...\n    tag 4\t\t\tfunction submitAssetHash(\\r\\n ...\n      JUMPDEST \t\t\tfunction submitAssetHash(\\r\\n ...\n      PUSH [tag] 11\t\t\tfunction submitAssetHash(\\r\\n ...\n      PUSH 4\t\t\tfunction submitAssetHash(\\r\\n ...\n      DUP1 \t\t\tfunction submitAssetHash(\\r\\n ...\n      CALLDATASIZE \t\t\tfunction submitAssetHash(\\r\\n ...\n      SUB \t\t\tfunction submitAssetHash(\\r\\n ...\n      DUP2 \t\t\tfunction submitAssetHash(\\r\\n ...\n      ADD \t\t\tfunction submitAssetHash(\\r\\n ...\n      SWAP1 \t\t\tfunction submitAssetHash(\\r\\n ...\n      PUSH [tag] 12\t\t\tfunction submitAssetHash(\\r\\n ...\n      SWAP2 \t\t\tfunction submitAssetHash(\\r\\n ...\n      SWAP1 \t\t\tfunction submitAssetHash(\\r\\n ...\n      PUSH [tag] 13\t\t\tfunction submitAssetHash(\\r\\n ...\n      JUMP \t\t\tfunction submitAssetHash(\\r\\n ...\n    tag 12\t\t\tfunction submitAssetHash(\\r\\n ...\n      JUMPDEST \t\t\tfunction submitAssetHash(\\r\\n ...\n      PUSH [tag] 14\t\t\tfunction submitAssetHash(\\r\\n ...\n      JUMP \t\t\tfunction submitAssetHash(\\r\\n ...\n    tag 11\t\t\tfunction submitAssetHash(\\r\\n ...\n      JUMPDEST \t\t\tfunction submitAssetHash(\\r\\n ...\n      STOP \t\t\tfunction submitAssetHash(\\r\\n ...\n    tag 5\t\t\tfunction getAssetById(uint256 ...\n      JUMPDEST \t\t\tfunction getAssetById(uint256 ...\n      PUSH [tag] 15\t\t\tfunction getAssetById(uint256 ...\n      PUSH 4\t\t\tfunction getAssetById(uint256 ...\n      DUP1 \t\t\tfunction getAssetById(uint256 ...\n      CALLDATASIZE \t\t\tfunction getAssetById(uint256 ...\n      SUB \t\t\tfunction getAssetById(uint256 ...\n      DUP2 \t\t\tfunction getAssetById(uint256 ...\n      ADD \t\t\tfunction getAssetById(uint256 ...\n      SWAP1 \t\t\tfunction getAssetById(uint256 ...\n      PUSH [tag] 16\t\t\tfunction getAssetById(uint256 ...\n      SWAP2 \t\t\tfunction getAssetById(uint256 ...\n      SWAP1 \t\t\tfunction getAssetById(uint256 ...\n      PUSH [tag] 17\t\t\tfunction getAssetById(uint256 ...\n      JUMP \t\t\tfunction getAssetById(uint256 ...\n    tag 16\t\t\tfunction getAssetById(uint256 ...\n      JUMPDEST \t\t\tfunction getAssetById(uint256 ...\n      PUSH [tag] 18\t\t\tfunction getAssetById(uint256 ...\n      JUMP \t\t\tfunction getAssetById(uint256 ...\n    tag 15\t\t\tfunction getAssetById(uint256 ...\n      JUMPDEST \t\t\tfunction getAssetById(uint256 ...\n      PUSH 40\t\t\tfunction getAssetById(uint256 ...\n      MLOAD \t\t\tfunction getAssetById(uint256 ...\n      PUSH [tag] 19\t\t\tfunction getAssetById(uint256 ...\n      SWAP2 \t\t\tfunction getAssetById(uint256 ...\n      SWAP1 \t\t\tfunction getAssetById(uint256 ...\n      PUSH [tag] 20\t\t\tfunction getAssetById(uint256 ...\n      JUMP \t\t\tfunction getAssetById(uint256 ...\n    tag 19\t\t\tfunction getAssetById(uint256 ...\n      JUMPDEST \t\t\tfunction getAssetById(uint256 ...\n      PUSH 40\t\t\tfunction getAssetById(uint256 ...\n      MLOAD \t\t\tfunction getAssetById(uint256 ...\n      DUP1 \t\t\tfunction getAssetById(uint256 ...\n      SWAP2 \t\t\tfunction getAssetById(uint256 ...\n      SUB \t\t\tfunction getAssetById(uint256 ...\n      SWAP1 \t\t\tfunction getAssetById(uint256 ...\n      RETURN \t\t\tfunction getAssetById(uint256 ...\n    tag 6\t\t\tAsset[] public assets\n      JUMPDEST \t\t\tAsset[] public assets\n      PUSH [tag] 21\t\t\tAsset[] public assets\n      PUSH 4\t\t\tAsset[] public assets\n      DUP1 \t\t\tAsset[] public assets\n      CALLDATASIZE \t\t\tAsset[] public assets\n      SUB \t\t\tAsset[] public assets\n      DUP2 \t\t\tAsset[] public assets\n      ADD \t\t\tAsset[] public assets\n      SWAP1 \t\t\tAsset[] public assets\n      PUSH [tag] 22\t\t\tAsset[] public assets\n      SWAP2 \t\t\tAsset[] public assets\n      SWAP1 \t\t\tAsset[] public assets\n      PUSH [tag] 17\t\t\tAsset[] public assets\n      JUMP \t\t\tAsset[] public assets\n    tag 22\t\t\tAsset[] public assets\n      JUMPDEST \t\t\tAsset[] public assets\n      PUSH [tag] 23\t\t\tAsset[] public assets\n      JUMP \t\t\tAsset[] public assets\n    tag 21\t\t\tAsset[] public assets\n      JUMPDEST \t\t\tAsset[] public assets\n      PUSH 40\t\t\tAsset[] public assets\n      MLOAD \t\t\tAsset[] public assets\n      PUSH [tag] 24\t\t\tAsset[] public assets\n      SWAP4 \t\t\tAsset[] public assets\n      SWAP3 \t\t\tAsset[] public assets\n      SWAP2 \t\t\tAsset[] public assets\n      SWAP1 \t\t\tAsset[] public assets\n      PUSH [tag] 25\t\t\tAsset[] public assets\n      JUMP \t\t\tAsset[] public assets\n    tag 24\t\t\tAsset[] public assets\n      JUMPDEST \t\t\tAsset[] public assets\n      PUSH 40\t\t\tAsset[] public assets\n      MLOAD \t\t\tAsset[] public assets\n      DUP1 \t\t\tAsset[] public assets\n      SWAP2 \t\t\tAsset[] public assets\n      SUB \t\t\tAsset[] public assets\n      SWAP1 \t\t\tAsset[] public assets\n      RETURN \t\t\tAsset[] public assets\n    tag 8\t\t\tfunction getAssets() public vi...\n      JUMPDEST \t\t\tfunction getAssets() public vi...\n      PUSH 60\t\t\tAsset[] memory\n      PUSH 0\t\t\tassets\n      DUP1 \t\t\treturn assets\n      SLOAD \t\t\treturn assets\n      DUP1 \t\t\treturn assets\n      PUSH 20\t\t\treturn assets\n      MUL \t\t\treturn assets\n      PUSH 20\t\t\treturn assets\n      ADD \t\t\treturn assets\n      PUSH 40\t\t\treturn assets\n      MLOAD \t\t\treturn assets\n      SWAP1 \t\t\treturn assets\n      DUP2 \t\t\treturn assets\n      ADD \t\t\treturn assets\n      PUSH 40\t\t\treturn assets\n      MSTORE \t\t\treturn assets\n      DUP1 \t\t\treturn assets\n      SWAP3 \t\t\treturn assets\n      SWAP2 \t\t\treturn assets\n      SWAP1 \t\t\treturn assets\n      DUP2 \t\t\treturn assets\n      DUP2 \t\t\treturn assets\n      MSTORE \t\t\treturn assets\n      PUSH 20\t\t\treturn assets\n      ADD \t\t\treturn assets\n      PUSH 0\t\t\treturn assets\n      SWAP1 \t\t\treturn assets\n    tag 27\t\t\treturn assets\n      JUMPDEST \t\t\treturn assets\n      DUP3 \t\t\treturn assets\n      DUP3 \t\t\treturn assets\n      LT \t\t\treturn assets\n      ISZERO \t\t\treturn assets\n      PUSH [tag] 28\t\t\treturn assets\n      JUMPI \t\t\treturn assets\n      DUP4 \t\t\treturn assets\n      DUP3 \t\t\treturn assets\n      SWAP1 \t\t\treturn assets\n      PUSH 0\t\t\treturn assets\n      MSTORE \t\t\treturn assets\n      PUSH 20\t\t\treturn assets\n      PUSH 0\t\t\treturn assets\n      KECCAK256 \t\t\treturn assets\n      SWAP1 \t\t\treturn assets\n      PUSH 3\t\t\treturn assets\n      MUL \t\t\treturn assets\n      ADD \t\t\treturn assets\n      PUSH 40\t\t\treturn assets\n      MLOAD \t\t\treturn assets\n      DUP1 \t\t\treturn assets\n      PUSH 60\t\t\treturn assets\n      ADD \t\t\treturn assets\n      PUSH 40\t\t\treturn assets\n      MSTORE \t\t\treturn assets\n      SWAP1 \t\t\treturn assets\n      DUP2 \t\t\treturn assets\n      PUSH 0\t\t\treturn assets\n      DUP3 \t\t\treturn assets\n      ADD \t\t\treturn assets\n      DUP1 \t\t\treturn assets\n      SLOAD \t\t\treturn assets\n      PUSH [tag] 30\t\t\treturn assets\n      SWAP1 \t\t\treturn assets\n      PUSH [tag] 31\t\t\treturn assets\n      JUMP \t\t\treturn assets\n    tag 30\t\t\treturn assets\n      JUMPDEST \t\t\treturn assets\n      DUP1 \t\t\treturn assets\n      PUSH 1F\t\t\treturn assets\n      ADD \t\t\treturn assets\n      PUSH 20\t\t\treturn assets\n      DUP1 \t\t\treturn assets\n      SWAP2 \t\t\treturn assets\n      DIV \t\t\treturn assets\n      MUL \t\t\treturn assets\n      PUSH 20\t\t\treturn assets\n      ADD \t\t\treturn assets\n      PUSH 40\t\t\treturn assets\n      MLOAD \t\t\treturn assets\n      SWAP1 \t\t\treturn assets\n      DUP2 \t\t\treturn assets\n      ADD \t\t\treturn assets\n      PUSH 40\t\t\treturn assets\n      MSTORE \t\t\treturn assets\n      DUP1 \t\t\treturn assets\n      SWAP3 \t\t\treturn assets\n      SWAP2 \t\t\treturn assets\n      SWAP1 \t\t\treturn assets\n      DUP2 \t\t\treturn assets\n      DUP2 \t\t\treturn assets\n      MSTORE \t\t\treturn assets\n      PUSH 20\t\t\treturn assets\n      ADD \t\t\treturn assets\n      DUP3 \t\t\treturn assets\n      DUP1 \t\t\treturn assets\n      SLOAD \t\t\treturn assets\n      PUSH [tag] 32\t\t\treturn assets\n      SWAP1 \t\t\treturn assets\n      PUSH [tag] 31\t\t\treturn assets\n      JUMP \t\t\treturn assets\n    tag 32\t\t\treturn assets\n      JUMPDEST \t\t\treturn assets\n      DUP1 \t\t\treturn assets\n      ISZERO \t\t\treturn assets\n      PUSH [tag] 33\t\t\treturn assets\n      JUMPI \t\t\treturn assets\n      DUP1 \t\t\treturn assets\n      PUSH 1F\t\t\treturn assets\n      LT \t\t\treturn assets\n      PUSH [tag] 34\t\t\treturn assets\n      JUMPI \t\t\treturn assets\n      PUSH 100\t\t\treturn assets\n      DUP1 \t\t\treturn assets\n      DUP4 \t\t\treturn assets\n      SLOAD \t\t\treturn assets\n      DIV \t\t\treturn assets\n      MUL \t\t\treturn assets\n      DUP4 \t\t\treturn assets\n      MSTORE \t\t\treturn assets\n      SWAP2 \t\t\treturn assets\n      PUSH 20\t\t\treturn assets\n      ADD \t\t\treturn assets\n      SWAP2 \t\t\treturn assets\n      PUSH [tag] 33\t\t\treturn assets\n      JUMP \t\t\treturn assets\n    tag 34\t\t\treturn assets\n      JUMPDEST \t\t\treturn assets\n      DUP3 \t\t\treturn assets\n      ADD \t\t\treturn assets\n      SWAP2 \t\t\treturn assets\n      SWAP1 \t\t\treturn assets\n      PUSH 0\t\t\treturn assets\n      MSTORE \t\t\treturn assets\n      PUSH 20\t\t\treturn assets\n      PUSH 0\t\t\treturn assets\n      KECCAK256 \t\t\treturn assets\n      SWAP1 \t\t\treturn assets\n    tag 35\t\t\treturn assets\n      JUMPDEST \t\t\treturn assets\n      DUP2 \t\t\treturn assets\n      SLOAD \t\t\treturn assets\n      DUP2 \t\t\treturn assets\n      MSTORE \t\t\treturn assets\n      SWAP1 \t\t\treturn assets\n      PUSH 1\t\t\treturn assets\n      ADD \t\t\treturn assets\n      SWAP1 \t\t\treturn assets\n      PUSH 20\t\t\treturn assets\n      ADD \t\t\treturn assets\n      DUP1 \t\t\treturn assets\n      DUP4 \t\t\treturn assets\n      GT \t\t\treturn assets\n      PUSH [tag] 35\t\t\treturn assets\n      JUMPI \t\t\treturn assets\n      DUP3 \t\t\treturn assets\n      SWAP1 \t\t\treturn assets\n      SUB \t\t\treturn assets\n      PUSH 1F\t\t\treturn assets\n      AND \t\t\treturn assets\n      DUP3 \t\t\treturn assets\n      ADD \t\t\treturn assets\n      SWAP2 \t\t\treturn assets\n    tag 33\t\t\treturn assets\n      JUMPDEST \t\t\treturn assets\n      POP \t\t\treturn assets\n      POP \t\t\treturn assets\n      POP \t\t\treturn assets\n      POP \t\t\treturn assets\n      POP \t\t\treturn assets\n      DUP2 \t\t\treturn assets\n      MSTORE \t\t\treturn assets\n      PUSH 20\t\t\treturn assets\n      ADD \t\t\treturn assets\n      PUSH 1\t\t\treturn assets\n      DUP3 \t\t\treturn assets\n      ADD \t\t\treturn assets\n      DUP1 \t\t\treturn assets\n      SLOAD \t\t\treturn assets\n      PUSH [tag] 36\t\t\treturn assets\n      SWAP1 \t\t\treturn assets\n      PUSH [tag] 31\t\t\treturn assets\n      JUMP \t\t\treturn assets\n    tag 36\t\t\treturn assets\n      JUMPDEST \t\t\treturn assets\n      DUP1 \t\t\treturn assets\n      PUSH 1F\t\t\treturn assets\n      ADD \t\t\treturn assets\n      PUSH 20\t\t\treturn assets\n      DUP1 \t\t\treturn assets\n      SWAP2 \t\t\treturn assets\n      DIV \t\t\treturn assets\n      MUL \t\t\treturn assets\n      PUSH 20\t\t\treturn assets\n      ADD \t\t\treturn assets\n      PUSH 40\t\t\treturn assets\n      MLOAD \t\t\treturn assets\n      SWAP1 \t\t\treturn assets\n      DUP2 \t\t\treturn assets\n      ADD \t\t\treturn assets\n      PUSH 40\t\t\treturn assets\n      MSTORE \t\t\treturn assets\n      DUP1 \t\t\treturn assets\n      SWAP3 \t\t\treturn assets\n      SWAP2 \t\t\treturn assets\n      SWAP1 \t\t\treturn assets\n      DUP2 \t\t\treturn assets\n      DUP2 \t\t\treturn assets\n      MSTORE \t\t\treturn assets\n      PUSH 20\t\t\treturn assets\n      ADD \t\t\treturn assets\n      DUP3 \t\t\treturn assets\n      DUP1 \t\t\treturn assets\n      SLOAD \t\t\treturn assets\n      PUSH [tag] 37\t\t\treturn assets\n      SWAP1 \t\t\treturn assets\n      PUSH [tag] 31\t\t\treturn assets\n      JUMP \t\t\treturn assets\n    tag 37\t\t\treturn assets\n      JUMPDEST \t\t\treturn assets\n      DUP1 \t\t\treturn assets\n      ISZERO \t\t\treturn assets\n      PUSH [tag] 38\t\t\treturn assets\n      JUMPI \t\t\treturn assets\n      DUP1 \t\t\treturn assets\n      PUSH 1F\t\t\treturn assets\n      LT \t\t\treturn assets\n      PUSH [tag] 39\t\t\treturn assets\n      JUMPI \t\t\treturn assets\n      PUSH 100\t\t\treturn assets\n      DUP1 \t\t\treturn assets\n      DUP4 \t\t\treturn assets\n      SLOAD \t\t\treturn assets\n      DIV \t\t\treturn assets\n      MUL \t\t\treturn assets\n      DUP4 \t\t\treturn assets\n      MSTORE \t\t\treturn assets\n      SWAP2 \t\t\treturn assets\n      PUSH 20\t\t\treturn assets\n      ADD \t\t\treturn assets\n      SWAP2 \t\t\treturn assets\n      PUSH [tag] 38\t\t\treturn assets\n      JUMP \t\t\treturn assets\n    tag 39\t\t\treturn assets\n      JUMPDEST \t\t\treturn assets\n      DUP3 \t\t\treturn assets\n      ADD \t\t\treturn assets\n      SWAP2 \t\t\treturn assets\n      SWAP1 \t\t\treturn assets\n      PUSH 0\t\t\treturn assets\n      MSTORE \t\t\treturn assets\n      PUSH 20\t\t\treturn assets\n      PUSH 0\t\t\treturn assets\n      KECCAK256 \t\t\treturn assets\n      SWAP1 \t\t\treturn assets\n    tag 40\t\t\treturn assets\n      JUMPDEST \t\t\treturn assets\n      DUP2 \t\t\treturn assets\n      SLOAD \t\t\treturn assets\n      DUP2 \t\t\treturn assets\n      MSTORE \t\t\treturn assets\n      SWAP1 \t\t\treturn assets\n      PUSH 1\t\t\treturn assets\n      ADD \t\t\treturn assets\n      SWAP1 \t\t\treturn assets\n      PUSH 20\t\t\treturn assets\n      ADD \t\t\treturn assets\n      DUP1 \t\t\treturn assets\n      DUP4 \t\t\treturn assets\n      GT \t\t\treturn assets\n      PUSH [tag] 40\t\t\treturn assets\n      JUMPI \t\t\treturn assets\n      DUP3 \t\t\treturn assets\n      SWAP1 \t\t\treturn assets\n      SUB \t\t\treturn assets\n      PUSH 1F\t\t\treturn assets\n      AND \t\t\treturn assets\n      DUP3 \t\t\treturn assets\n      ADD \t\t\treturn assets\n      SWAP2 \t\t\treturn assets\n    tag 38\t\t\treturn assets\n      JUMPDEST \t\t\treturn assets\n      POP \t\t\treturn assets\n      POP \t\t\treturn assets\n      POP \t\t\treturn assets\n      POP \t\t\treturn assets\n      POP \t\t\treturn assets\n      DUP2 \t\t\treturn assets\n      MSTORE \t\t\treturn assets\n      PUSH 20\t\t\treturn assets\n      ADD \t\t\treturn assets\n      PUSH 2\t\t\treturn assets\n      DUP3 \t\t\treturn assets\n      ADD \t\t\treturn assets\n      SLOAD \t\t\treturn assets\n      DUP2 \t\t\treturn assets\n      MSTORE \t\t\treturn assets\n      POP \t\t\treturn assets\n      POP \t\t\treturn assets\n      DUP2 \t\t\treturn assets\n      MSTORE \t\t\treturn assets\n      PUSH 20\t\t\treturn assets\n      ADD \t\t\treturn assets\n      SWAP1 \t\t\treturn assets\n      PUSH 1\t\t\treturn assets\n      ADD \t\t\treturn assets\n      SWAP1 \t\t\treturn assets\n      PUSH [tag] 27\t\t\treturn assets\n      JUMP \t\t\treturn assets\n    tag 28\t\t\treturn assets\n      JUMPDEST \t\t\treturn assets\n      POP \t\t\treturn assets\n      POP \t\t\treturn assets\n      POP \t\t\treturn assets\n      POP \t\t\treturn assets\n      SWAP1 \t\t\treturn assets\n      POP \t\t\treturn assets\n      SWAP1 \t\t\tfunction getAssets() public vi...\n      JUMP \t\t\tfunction getAssets() public vi...\n    tag 14\t\t\tfunction submitAssetHash(\\r\\n ...\n      JUMPDEST \t\t\tfunction submitAssetHash(\\r\\n ...\n      PUSH 0\t\t\t0\n      DUP3 \t\t\tasset_id\n      MLOAD \t\t\tbytes(asset_id).length\n      GT \t\t\tbytes(asset_id).length > 0\n      PUSH [tag] 42\t\t\trequire(bytes(asset_id).length...\n      JUMPI \t\t\trequire(bytes(asset_id).length...\n      PUSH 40\t\t\trequire(bytes(asset_id).length...\n      MLOAD \t\t\trequire(bytes(asset_id).length...\n      PUSH 8C379A000000000000000000000000000000000000000000000000000000000\t\t\trequire(bytes(asset_id).length...\n      DUP2 \t\t\trequire(bytes(asset_id).length...\n      MSTORE \t\t\trequire(bytes(asset_id).length...\n      PUSH 4\t\t\trequire(bytes(asset_id).length...\n      ADD \t\t\trequire(bytes(asset_id).length...\n      PUSH [tag] 43\t\t\trequire(bytes(asset_id).length...\n      SWAP1 \t\t\trequire(bytes(asset_id).length...\n      PUSH [tag] 44\t\t\trequire(bytes(asset_id).length...\n      JUMP \t\t\trequire(bytes(asset_id).length...\n    tag 43\t\t\trequire(bytes(asset_id).length...\n      JUMPDEST \t\t\trequire(bytes(asset_id).length...\n      PUSH 40\t\t\trequire(bytes(asset_id).length...\n      MLOAD \t\t\trequire(bytes(asset_id).length...\n      DUP1 \t\t\trequire(bytes(asset_id).length...\n      SWAP2 \t\t\trequire(bytes(asset_id).length...\n      SUB \t\t\trequire(bytes(asset_id).length...\n      SWAP1 \t\t\trequire(bytes(asset_id).length...\n      REVERT \t\t\trequire(bytes(asset_id).length...\n    tag 42\t\t\trequire(bytes(asset_id).length...\n      JUMPDEST \t\t\trequire(bytes(asset_id).length...\n      PUSH 20\t\t\t32\n      DUP2 \t\t\tasset_hash\n      MLOAD \t\t\tasset_hash.length\n      EQ \t\t\tasset_hash.length == 32\n      PUSH [tag] 45\t\t\trequire(asset_hash.length == 3...\n      JUMPI \t\t\trequire(asset_hash.length == 3...\n      PUSH 40\t\t\trequire(asset_hash.length == 3...\n      MLOAD \t\t\trequire(asset_hash.length == 3...\n      PUSH 8C379A000000000000000000000000000000000000000000000000000000000\t\t\trequire(asset_hash.length == 3...\n      DUP2 \t\t\trequire(asset_hash.length == 3...\n      MSTORE \t\t\trequire(asset_hash.length == 3...\n      PUSH 4\t\t\trequire(asset_hash.length == 3...\n      ADD \t\t\trequire(asset_hash.length == 3...\n      PUSH [tag] 46\t\t\trequire(asset_hash.length == 3...\n      SWAP1 \t\t\trequire(asset_hash.length == 3...\n      PUSH [tag] 47\t\t\trequire(asset_hash.length == 3...\n      JUMP \t\t\trequire(asset_hash.length == 3...\n    tag 46\t\t\trequire(asset_hash.length == 3...\n      JUMPDEST \t\t\trequire(asset_hash.length == 3...\n      PUSH 40\t\t\trequire(asset_hash.length == 3...\n      MLOAD \t\t\trequire(asset_hash.length == 3...\n      DUP1 \t\t\trequire(asset_hash.length == 3...\n      SWAP2 \t\t\trequire(asset_hash.length == 3...\n      SUB \t\t\trequire(asset_hash.length == 3...\n      SWAP1 \t\t\trequire(asset_hash.length == 3...\n      REVERT \t\t\trequire(asset_hash.length == 3...\n    tag 45\t\t\trequire(asset_hash.length == 3...\n      JUMPDEST \t\t\trequire(asset_hash.length == 3...\n      PUSH 0\t\t\tuint256 assetIndex\n      PUSH 0\t\t\tassets\n      DUP1 \t\t\tassets.length\n      SLOAD \t\t\tassets.length\n      SWAP1 \t\t\tassets.length\n      POP \t\t\tassets.length\n      SWAP1 \t\t\tuint256 assetIndex = assets.le...\n      POP \t\t\tuint256 assetIndex = assets.le...\n      PUSH 0\t\t\tassets\n      PUSH 40\t\t\tAsset({\\r\\n                ass...\n      MLOAD \t\t\tAsset({\\r\\n                ass...\n      DUP1 \t\t\tAsset({\\r\\n                ass...\n      PUSH 60\t\t\tAsset({\\r\\n                ass...\n      ADD \t\t\tAsset({\\r\\n                ass...\n      PUSH 40\t\t\tAsset({\\r\\n                ass...\n      MSTORE \t\t\tAsset({\\r\\n                ass...\n      DUP1 \t\t\tAsset({\\r\\n                ass...\n      DUP6 \t\t\tasset_id\n      DUP2 \t\t\tAsset({\\r\\n                ass...\n      MSTORE \t\t\tAsset({\\r\\n                ass...\n      PUSH 20\t\t\tAsset({\\r\\n                ass...\n      ADD \t\t\tAsset({\\r\\n                ass...\n      DUP5 \t\t\tasset_hash\n      DUP2 \t\t\tAsset({\\r\\n                ass...\n      MSTORE \t\t\tAsset({\\r\\n                ass...\n      PUSH 20\t\t\tAsset({\\r\\n                ass...\n      ADD \t\t\tAsset({\\r\\n                ass...\n      TIMESTAMP \t\t\tblock.timestamp\n      DUP2 \t\t\tAsset({\\r\\n                ass...\n      MSTORE \t\t\tAsset({\\r\\n                ass...\n      POP \t\t\tAsset({\\r\\n                ass...\n      SWAP1 \t\t\tassets.push(\\r\\n            As...\n      DUP1 \t\t\tassets.push(\\r\\n            As...\n      PUSH 1\t\t\tassets.push(\\r\\n            As...\n      DUP2 \t\t\tassets.push(\\r\\n            As...\n      SLOAD \t\t\tassets.push(\\r\\n            As...\n      ADD \t\t\tassets.push(\\r\\n            As...\n      DUP1 \t\t\tassets.push(\\r\\n            As...\n      DUP3 \t\t\tassets.push(\\r\\n            As...\n      SSTORE \t\t\tassets.push(\\r\\n            As...\n      DUP1 \t\t\tassets.push(\\r\\n            As...\n      SWAP2 \t\t\tassets.push(\\r\\n            As...\n      POP \t\t\tassets.push(\\r\\n            As...\n      POP \t\t\tassets.push(\\r\\n            As...\n      PUSH 1\t\t\tassets.push(\\r\\n            As...\n      SWAP1 \t\t\tassets.push(\\r\\n            As...\n      SUB \t\t\tassets.push(\\r\\n            As...\n      SWAP1 \t\t\tassets.push(\\r\\n            As...\n      PUSH 0\t\t\tassets.push(\\r\\n            As...\n      MSTORE \t\t\tassets.push(\\r\\n            As...\n      PUSH 20\t\t\tassets.push(\\r\\n            As...\n      PUSH 0\t\t\tassets.push(\\r\\n            As...\n      KECCAK256 \t\t\tassets.push(\\r\\n            As...\n      SWAP1 \t\t\tassets.push(\\r\\n            As...\n      PUSH 3\t\t\tassets.push(\\r\\n            As...\n      MUL \t\t\tassets.push(\\r\\n            As...\n      ADD \t\t\tassets.push(\\r\\n            As...\n      PUSH 0\t\t\tassets.push(\\r\\n            As...\n      SWAP1 \t\t\tassets.push(\\r\\n            As...\n      SWAP2 \t\t\tassets.push(\\r\\n            As...\n      SWAP1 \t\t\tassets.push(\\r\\n            As...\n      SWAP2 \t\t\tassets.push(\\r\\n            As...\n      SWAP1 \t\t\tassets.push(\\r\\n            As...\n      SWAP2 \t\t\tassets.push(\\r\\n            As...\n      POP \t\t\tassets.push(\\r\\n            As...\n      PUSH 0\t\t\tassets.push(\\r\\n            As...\n      DUP3 \t\t\tassets.push(\\r\\n            As...\n      ADD \t\t\tassets.push(\\r\\n            As...\n      MLOAD \t\t\tassets.push(\\r\\n            As...\n      DUP2 \t\t\tassets.push(\\r\\n            As...\n      PUSH 0\t\t\tassets.push(\\r\\n            As...\n      ADD \t\t\tassets.push(\\r\\n            As...\n      SWAP1 \t\t\tassets.push(\\r\\n            As...\n      DUP2 \t\t\tassets.push(\\r\\n            As...\n      PUSH [tag] 49\t\t\tassets.push(\\r\\n            As...\n      SWAP2 \t\t\tassets.push(\\r\\n            As...\n      SWAP1 \t\t\tassets.push(\\r\\n            As...\n      PUSH [tag] 50\t\t\tassets.push(\\r\\n            As...\n      JUMP \t\t\tassets.push(\\r\\n            As...\n    tag 49\t\t\tassets.push(\\r\\n            As...\n      JUMPDEST \t\t\tassets.push(\\r\\n            As...\n      POP \t\t\tassets.push(\\r\\n            As...\n      PUSH 20\t\t\tassets.push(\\r\\n            As...\n      DUP3 \t\t\tassets.push(\\r\\n            As...\n      ADD \t\t\tassets.push(\\r\\n            As...\n      MLOAD \t\t\tassets.push(\\r\\n            As...\n      DUP2 \t\t\tassets.push(\\r\\n            As...\n      PUSH 1\t\t\tassets.push(\\r\\n            As...\n      ADD \t\t\tassets.push(\\r\\n            As...\n      SWAP1 \t\t\tassets.push(\\r\\n            As...\n      DUP2 \t\t\tassets.push(\\r\\n            As...\n      PUSH [tag] 51\t\t\tassets.push(\\r\\n            As...\n      SWAP2 \t\t\tassets.push(\\r\\n            As...\n      SWAP1 \t\t\tassets.push(\\r\\n            As...\n      PUSH [tag] 52\t\t\tassets.push(\\r\\n            As...\n      JUMP \t\t\tassets.push(\\r\\n            As...\n    tag 51\t\t\tassets.push(\\r\\n            As...\n      JUMPDEST \t\t\tassets.push(\\r\\n            As...\n      POP \t\t\tassets.push(\\r\\n            As...\n      PUSH 40\t\t\tassets.push(\\r\\n            As...\n      DUP3 \t\t\tassets.push(\\r\\n            As...\n      ADD \t\t\tassets.push(\\r\\n            As...\n      MLOAD \t\t\tassets.push(\\r\\n            As...\n      DUP2 \t\t\tassets.push(\\r\\n            As...\n      PUSH 2\t\t\tassets.push(\\r\\n            As...\n      ADD \t\t\tassets.push(\\r\\n            As...\n      SSTORE \t\t\tassets.push(\\r\\n            As...\n      POP \t\t\tassets.push(\\r\\n            As...\n      POP \t\t\tassets.push(\\r\\n            As...\n      DUP1 \t\t\tassetIndex\n      PUSH F3C6B7B3FF355D728D0DBF07ABB80A9934ADA89FFEE658478FFE970ADEC67569\t\t\tAssetHashSubmitted(\\r\\n       ...\n      DUP5 \t\t\tasset_id\n      DUP5 \t\t\tasset_hash\n      TIMESTAMP \t\t\tblock.timestamp\n      PUSH 40\t\t\tAssetHashSubmitted(\\r\\n       ...\n      MLOAD \t\t\tAssetHashSubmitted(\\r\\n       ...\n      PUSH [tag] 53\t\t\tAssetHashSubmitted(\\r\\n       ...\n      SWAP4 \t\t\tAssetHashSubmitted(\\r\\n       ...\n      SWAP3 \t\t\tAssetHashSubmitted(\\r\\n       ...\n      SWAP2 \t\t\tAssetHashSubmitted(\\r\\n       ...\n      SWAP1 \t\t\tAssetHashSubmitted(\\r\\n       ...\n      PUSH [tag] 25\t\t\tAssetHashSubmitted(\\r\\n       ...\n      JUMP \t\t\tAssetHashSubmitted(\\r\\n       ...\n    tag 53\t\t\tAssetHashSubmitted(\\r\\n       ...\n      JUMPDEST \t\t\tAssetHashSubmitted(\\r\\n       ...\n      PUSH 40\t\t\tAssetHashSubmitted(\\r\\n       ...\n      MLOAD \t\t\tAssetHashSubmitted(\\r\\n       ...\n      DUP1 \t\t\tAssetHashSubmitted(\\r\\n       ...\n      SWAP2 \t\t\tAssetHashSubmitted(\\r\\n       ...\n      SUB \t\t\tAssetHashSubmitted(\\r\\n       ...\n      SWAP1 \t\t\tAssetHashSubmitted(\\r\\n       ...\n      LOG2 \t\t\tAssetHashSubmitted(\\r\\n       ...\n      POP \t\t\t{\\r\\n        require(bytes(ass...\n      POP \t\t\tfunction submitAssetHash(\\r\\n ...\n      POP \t\t\tfunction submitAssetHash(\\r\\n ...\n      JUMP \t\t\tfunction submitAssetHash(\\r\\n ...\n    tag 18\t\t\tfunction getAssetById(uint256 ...\n      JUMPDEST \t\t\tfunction getAssetById(uint256 ...\n      PUSH [tag] 54\t\t\tAsset memory\n      PUSH [tag] 55\t\t\tAsset memory\n      JUMP \t\t\tAsset memory\n    tag 54\t\t\tAsset memory\n      JUMPDEST \t\t\tAsset memory\n      PUSH 0\t\t\tassets\n      DUP1 \t\t\tassets.length\n      SLOAD \t\t\tassets.length\n      SWAP1 \t\t\tassets.length\n      POP \t\t\tassets.length\n      DUP3 \t\t\tassetIndex\n      LT \t\t\tassetIndex < assets.length\n      PUSH [tag] 57\t\t\trequire(assetIndex < assets.le...\n      JUMPI \t\t\trequire(assetIndex < assets.le...\n      PUSH 40\t\t\trequire(assetIndex < assets.le...\n      MLOAD \t\t\trequire(assetIndex < assets.le...\n      PUSH 8C379A000000000000000000000000000000000000000000000000000000000\t\t\trequire(assetIndex < assets.le...\n      DUP2 \t\t\trequire(assetIndex < assets.le...\n      MSTORE \t\t\trequire(assetIndex < assets.le...\n      PUSH 4\t\t\trequire(assetIndex < assets.le...\n      ADD \t\t\trequire(assetIndex < assets.le...\n      PUSH [tag] 58\t\t\trequire(assetIndex < assets.le...\n      SWAP1 \t\t\trequire(assetIndex < assets.le...\n      PUSH [tag] 59\t\t\trequire(assetIndex < assets.le...\n      JUMP \t\t\trequire(assetIndex < assets.le...\n    tag 58\t\t\trequire(assetIndex < assets.le...\n      JUMPDEST \t\t\trequire(assetIndex < assets.le...\n      PUSH 40\t\t\trequire(assetIndex < assets.le...\n      MLOAD \t\t\trequire(assetIndex < assets.le...\n      DUP1 \t\t\trequire(assetIndex < assets.le...\n      SWAP2 \t\t\trequire(assetIndex < assets.le...\n      SUB \t\t\trequire(assetIndex < assets.le...\n      SWAP1 \t\t\trequire(assetIndex < assets.le...\n      REVERT \t\t\trequire(assetIndex < assets.le...\n    tag 57\t\t\trequire(assetIndex < assets.le...\n      JUMPDEST \t\t\trequire(assetIndex < assets.le...\n      PUSH 0\t\t\tassets\n      DUP3 \t\t\tassetIndex\n      DUP2 \t\t\tassets[assetIndex]\n      SLOAD \t\t\tassets[assetIndex]\n      DUP2 \t\t\tassets[assetIndex]\n      LT \t\t\tassets[assetIndex]\n      PUSH [tag] 60\t\t\tassets[assetIndex]\n      JUMPI \t\t\tassets[assetIndex]\n      PUSH [tag] 61\t\t\tassets[assetIndex]\n      PUSH [tag] 62\t\t\tassets[assetIndex]\n      JUMP \t\t\tassets[assetIndex]\n    tag 61\t\t\tassets[assetIndex]\n      JUMPDEST \t\t\tassets[assetIndex]\n    tag 60\t\t\tassets[assetIndex]\n      JUMPDEST \t\t\tassets[assetIndex]\n      SWAP1 \t\t\tassets[assetIndex]\n      PUSH 0\t\t\tassets[assetIndex]\n      MSTORE \t\t\tassets[assetIndex]\n      PUSH 20\t\t\tassets[assetIndex]\n      PUSH 0\t\t\tassets[assetIndex]\n      KECCAK256 \t\t\tassets[assetIndex]\n      SWAP1 \t\t\tassets[assetIndex]\n      PUSH 3\t\t\tassets[assetIndex]\n      MUL \t\t\tassets[assetIndex]\n      ADD \t\t\tassets[assetIndex]\n      PUSH 40\t\t\treturn assets[assetIndex]\n      MLOAD \t\t\treturn assets[assetIndex]\n      DUP1 \t\t\treturn assets[assetIndex]\n      PUSH 60\t\t\treturn assets[assetIndex]\n      ADD \t\t\treturn assets[assetIndex]\n      PUSH 40\t\t\treturn assets[assetIndex]\n      MSTORE \t\t\treturn assets[assetIndex]\n      SWAP1 \t\t\treturn assets[assetIndex]\n      DUP2 \t\t\treturn assets[assetIndex]\n      PUSH 0\t\t\treturn assets[assetIndex]\n      DUP3 \t\t\treturn assets[assetIndex]\n      ADD \t\t\treturn assets[assetIndex]\n      DUP1 \t\t\treturn assets[assetIndex]\n      SLOAD \t\t\treturn assets[assetIndex]\n      PUSH [tag] 64\t\t\treturn assets[assetIndex]\n      SWAP1 \t\t\treturn assets[assetIndex]\n      PUSH [tag] 31\t\t\treturn assets[assetIndex]\n      JUMP \t\t\treturn assets[assetIndex]\n    tag 64\t\t\treturn assets[assetIndex]\n      JUMPDEST \t\t\treturn assets[assetIndex]\n      DUP1 \t\t\treturn assets[assetIndex]\n      PUSH 1F\t\t\treturn assets[assetIndex]\n      ADD \t\t\treturn assets[assetIndex]\n      PUSH 20\t\t\treturn assets[assetIndex]\n      DUP1 \t\t\treturn assets[assetIndex]\n      SWAP2 \t\t\treturn assets[assetIndex]\n      DIV \t\t\treturn assets[assetIndex]\n      MUL \t\t\treturn assets[assetIndex]\n      PUSH 20\t\t\treturn assets[assetIndex]\n      ADD \t\t\treturn assets[assetIndex]\n      PUSH 40\t\t\treturn assets[assetIndex]\n      MLOAD \t\t\treturn assets[assetIndex]\n      SWAP1 \t\t\treturn assets[assetIndex]\n      DUP2 \t\t\treturn assets[assetIndex]\n      ADD \t\t\treturn assets[assetIndex]\n      PUSH 40\t\t\treturn assets[assetIndex]\n      MSTORE \t\t\treturn assets[assetIndex]\n      DUP1 \t\t\treturn assets[assetIndex]\n      SWAP3 \t\t\treturn assets[assetIndex]\n      SWAP2 \t\t\treturn assets[assetIndex]\n      SWAP1 \t\t\treturn assets[assetIndex]\n      DUP2 \t\t\treturn assets[assetIndex]\n      DUP2 \t\t\treturn assets[assetIndex]\n      MSTORE \t\t\treturn assets[assetIndex]\n      PUSH 20\t\t\treturn assets[assetIndex]\n      ADD \t\t\treturn assets[assetIndex]\n      DUP3 \t\t\treturn assets[assetIndex]\n      DUP1 \t\t\treturn assets[assetIndex]\n      SLOAD \t\t\treturn assets[assetIndex]\n      PUSH [tag] 65\t\t\treturn assets[assetIndex]\n      SWAP1 \t\t\treturn assets[assetIndex]\n      PUSH [tag] 31\t\t\treturn assets[assetIndex]\n      JUMP \t\t\treturn assets[assetIndex]\n    tag 65\t\t\treturn assets[assetIndex]\n      JUMPDEST \t\t\treturn assets[assetIndex]\n      DUP1 \t\t\treturn assets[assetIndex]\n      ISZERO \t\t\treturn assets[assetIndex]\n      PUSH [tag] 66\t\t\treturn assets[assetIndex]\n      JUMPI \t\t\treturn assets[assetIndex]\n      DUP1 \t\t\treturn assets[assetIndex]\n      PUSH 1F\t\t\treturn assets[assetIndex]\n      LT \t\t\treturn assets[assetIndex]\n      PUSH [tag] 67\t\t\treturn assets[assetIndex]\n      JUMPI \t\t\treturn assets[assetIndex]\n      PUSH 100\t\t\treturn assets[assetIndex]\n      DUP1 \t\t\treturn assets[assetIndex]\n      DUP4 \t\t\treturn assets[assetIndex]\n      SLOAD \t\t\treturn assets[assetIndex]\n      DIV \t\t\treturn assets[assetIndex]\n      MUL \t\t\treturn assets[assetIndex]\n      DUP4 \t\t\treturn assets[assetIndex]\n      MSTORE \t\t\treturn assets[assetIndex]\n      SWAP2 \t\t\treturn assets[assetIndex]\n      PUSH 20\t\t\treturn assets[assetIndex]\n      ADD \t\t\treturn assets[assetIndex]\n      SWAP2 \t\t\treturn assets[assetIndex]\n      PUSH [tag] 66\t\t\treturn assets[assetIndex]\n      JUMP \t\t\treturn assets[assetIndex]\n    tag 67\t\t\treturn assets[assetIndex]\n      JUMPDEST \t\t\treturn assets[assetIndex]\n      DUP3 \t\t\treturn assets[assetIndex]\n      ADD \t\t\treturn assets[assetIndex]\n      SWAP2 \t\t\treturn assets[assetIndex]\n      SWAP1 \t\t\treturn assets[assetIndex]\n      PUSH 0\t\t\treturn assets[assetIndex]\n      MSTORE \t\t\treturn assets[assetIndex]\n      PUSH 20\t\t\treturn assets[assetIndex]\n      PUSH 0\t\t\treturn assets[assetIndex]\n      KECCAK256 \t\t\treturn assets[assetIndex]\n      SWAP1 \t\t\treturn assets[assetIndex]\n    tag 68\t\t\treturn assets[assetIndex]\n      JUMPDEST \t\t\treturn assets[assetIndex]\n      DUP2 \t\t\treturn assets[assetIndex]\n      SLOAD \t\t\treturn assets[assetIndex]\n      DUP2 \t\t\treturn assets[assetIndex]\n      MSTORE \t\t\treturn assets[assetIndex]\n      SWAP1 \t\t\treturn assets[assetIndex]\n      PUSH 1\t\t\treturn assets[assetIndex]\n      ADD \t\t\treturn assets[assetIndex]\n      SWAP1 \t\t\treturn assets[assetIndex]\n      PUSH 20\t\t\treturn assets[assetIndex]\n      ADD \t\t\treturn assets[assetIndex]\n      DUP1 \t\t\treturn assets[assetIndex]\n      DUP4 \t\t\treturn assets[assetIndex]\n      GT \t\t\treturn assets[assetIndex]\n      PUSH [tag] 68\t\t\treturn assets[assetIndex]\n      JUMPI \t\t\treturn assets[assetIndex]\n      DUP3 \t\t\treturn assets[assetIndex]\n      SWAP1 \t\t\treturn assets[assetIndex]\n      SUB \t\t\treturn assets[assetIndex]\n      PUSH 1F\t\t\treturn assets[assetIndex]\n      AND \t\t\treturn assets[assetIndex]\n      DUP3 \t\t\treturn assets[assetIndex]\n      ADD \t\t\treturn assets[assetIndex]\n      SWAP2 \t\t\treturn assets[assetIndex]\n    tag 66\t\t\treturn assets[assetIndex]\n      JUMPDEST \t\t\treturn assets[assetIndex]\n      POP \t\t\treturn assets[assetIndex]\n      POP \t\t\treturn assets[assetIndex]\n      POP \t\t\treturn assets[assetIndex]\n      POP \t\t\treturn assets[assetIndex]\n      POP \t\t\treturn assets[assetIndex]\n      DUP2 \t\t\treturn assets[assetIndex]\n      MSTORE \t\t\treturn assets[assetIndex]\n      PUSH 20\t\t\treturn assets[assetIndex]\n      ADD \t\t\treturn assets[assetIndex]\n      PUSH 1\t\t\treturn assets[assetIndex]\n      DUP3 \t\t\treturn assets[assetIndex]\n      ADD \t\t\treturn assets[assetIndex]\n      DUP1 \t\t\treturn assets[assetIndex]\n      SLOAD \t\t\treturn assets[assetIndex]\n      PUSH [tag] 69\t\t\treturn assets[assetIndex]\n      SWAP1 \t\t\treturn assets[assetIndex]\n      PUSH [tag] 31\t\t\treturn assets[assetIndex]\n      JUMP \t\t\treturn assets[assetIndex]\n    tag 69\t\t\treturn assets[assetIndex]\n      JUMPDEST \t\t\treturn assets[assetIndex]\n      DUP1 \t\t\treturn assets[assetIndex]\n      PUSH 1F\t\t\treturn assets[assetIndex]\n      ADD \t\t\treturn assets[assetIndex]\n      PUSH 20\t\t\treturn assets[assetIndex]\n      DUP1 \t\t\treturn assets[assetIndex]\n      SWAP2 \t\t\treturn assets[assetIndex]\n      DIV \t\t\treturn assets[assetIndex]\n      MUL \t\t\treturn assets[assetIndex]\n      PUSH 20\t\t\treturn assets[assetIndex]\n      ADD \t\t\treturn assets[assetIndex]\n      PUSH 40\t\t\treturn assets[assetIndex]\n      MLOAD \t\t\treturn assets[assetIndex]\n      SWAP1 \t\t\treturn assets[assetIndex]\n      DUP2 \t\t\treturn assets[assetIndex]\n      ADD \t\t\treturn assets[assetIndex]\n      PUSH 40\t\t\treturn assets[assetIndex]\n      MSTORE \t\t\treturn assets[assetIndex]\n      DUP1 \t\t\treturn assets[assetIndex]\n      SWAP3 \t\t\treturn assets[assetIndex]\n      SWAP2 \t\t\treturn assets[assetIndex]\n      SWAP1 \t\t\treturn assets[assetIndex]\n      DUP2 \t\t\treturn assets[assetIndex]\n      DUP2 \t\t\treturn assets[assetIndex]\n      MSTORE \t\t\treturn assets[assetIndex]\n      PUSH 20\t\t\treturn assets[assetIndex]\n      ADD \t\t\treturn assets[assetIndex]\n      DUP3 \t\t\treturn assets[assetIndex]\n      DUP1 \t\t\treturn assets[assetIndex]\n      SLOAD \t\t\treturn assets[assetIndex]\n      PUSH [tag] 70\t\t\treturn assets[assetIndex]\n      SWAP1 \t\t\treturn assets[assetIndex]\n      PUSH [tag] 31\t\t\treturn assets[assetIndex]\n      JUMP \t\t\treturn assets[assetIndex]\n    tag 70\t\t\treturn assets[assetIndex]\n      JUMPDEST \t\t\treturn assets[assetIndex]\n      DUP1 \t\t\treturn assets[assetIndex]\n      ISZERO \t\t\treturn assets[assetIndex]\n      PUSH [tag] 71\t\t\treturn assets[assetIndex]\n      JUMPI \t\t\treturn assets[assetIndex]\n      DUP1 \t\t\treturn assets[assetIndex]\n      PUSH 1F\t\t\treturn assets[assetIndex]\n      LT \t\t\treturn assets[assetIndex]\n      PUSH [tag] 72\t\t\treturn assets[assetIndex]\n      JUMPI \t\t\treturn assets[assetIndex]\n      PUSH 100\t\t\treturn assets[assetIndex]\n      DUP1 \t\t\treturn assets[assetIndex]\n      DUP4 \t\t\treturn assets[assetIndex]\n      SLOAD \t\t\treturn assets[assetIndex]\n      DIV \t\t\treturn assets[assetIndex]\n      MUL \t\t\treturn assets[assetIndex]\n      DUP4 \t\t\treturn assets[assetIndex]\n      MSTORE \t\t\treturn assets[assetIndex]\n      SWAP2 \t\t\treturn assets[assetIndex]\n      PUSH 20\t\t\treturn assets[assetIndex]\n      ADD \t\t\treturn assets[assetIndex]\n      SWAP2 \t\t\treturn assets[assetIndex]\n      PUSH [tag] 71\t\t\treturn assets[assetIndex]\n      JUMP \t\t\treturn assets[assetIndex]\n    tag 72\t\t\treturn assets[assetIndex]\n      JUMPDEST \t\t\treturn assets[assetIndex]\n      DUP3 \t\t\treturn assets[assetIndex]\n      ADD \t\t\treturn assets[assetIndex]\n      SWAP2 \t\t\treturn assets[assetIndex]\n      SWAP1 \t\t\treturn assets[assetIndex]\n      PUSH 0\t\t\treturn assets[assetIndex]\n      MSTORE \t\t\treturn assets[assetIndex]\n      PUSH 20\t\t\treturn assets[assetIndex]\n      PUSH 0\t\t\treturn assets[assetIndex]\n      KECCAK256 \t\t\treturn assets[assetIndex]\n      SWAP1 \t\t\treturn assets[assetIndex]\n    tag 73\t\t\treturn assets[assetIndex]\n      JUMPDEST \t\t\treturn assets[assetIndex]\n      DUP2 \t\t\treturn assets[assetIndex]\n      SLOAD \t\t\treturn assets[assetIndex]\n      DUP2 \t\t\treturn assets[assetIndex]\n      MSTORE \t\t\treturn assets[assetIndex]\n      SWAP1 \t\t\treturn assets[assetIndex]\n      PUSH 1\t\t\treturn assets[assetIndex]\n      ADD \t\t\treturn assets[assetIndex]\n      SWAP1 \t\t\treturn assets[assetIndex]\n      PUSH 20\t\t\treturn assets[assetIndex]\n      ADD \t\t\treturn assets[assetIndex]\n      DUP1 \t\t\treturn assets[assetIndex]\n      DUP4 \t\t\treturn assets[assetIndex]\n      GT \t\t\treturn assets[assetIndex]\n      PUSH [tag] 73\t\t\treturn assets[assetIndex]\n      JUMPI \t\t\treturn assets[assetIndex]\n      DUP3 \t\t\treturn assets[assetIndex]\n      SWAP1 \t\t\treturn assets[assetIndex]\n      SUB \t\t\treturn assets[assetIndex]\n      PUSH 1F\t\t\treturn assets[assetIndex]\n      AND \t\t\treturn assets[assetIndex]\n      DUP3 \t\t\treturn assets[assetIndex]\n      ADD \t\t\treturn assets[assetIndex]\n      SWAP2 \t\t\treturn assets[assetIndex]\n    tag 71\t\t\treturn assets[assetIndex]\n      JUMPDEST \t\t\treturn assets[assetIndex]\n      POP \t\t\treturn assets[assetIndex]\n      POP \t\t\treturn assets[assetIndex]\n      POP \t\t\treturn assets[assetIndex]\n      POP \t\t\treturn assets[assetIndex]\n      POP \t\t\treturn assets[assetIndex]\n      DUP2 \t\t\treturn assets[assetIndex]\n      MSTORE \t\t\treturn assets[assetIndex]\n      PUSH 20\t\t\treturn assets[assetIndex]\n      ADD \t\t\treturn assets[assetIndex]\n      PUSH 2\t\t\treturn assets[assetIndex]\n      DUP3 \t\t\treturn assets[assetIndex]\n      ADD \t\t\treturn assets[assetIndex]\n      SLOAD \t\t\treturn assets[assetIndex]\n      DUP2 \t\t\treturn assets[assetIndex]\n      MSTORE \t\t\treturn assets[assetIndex]\n      POP \t\t\treturn assets[assetIndex]\n      POP \t\t\treturn assets[assetIndex]\n      SWAP1 \t\t\treturn assets[assetIndex]\n      POP \t\t\treturn assets[assetIndex]\n      SWAP2 \t\t\tfunction getAssetById(uint256 ...\n      SWAP1 \t\t\tfunction getAssetById(uint256 ...\n      POP \t\t\tfunction getAssetById(uint256 ...\n      JUMP \t\t\tfunction getAssetById(uint256 ...\n    tag 23\t\t\tAsset[] public assets\n      JUMPDEST \t\t\tAsset[] public assets\n      PUSH 0\t\t\tAsset[] public assets\n      DUP2 \t\t\tAsset[] public assets\n      DUP2 \t\t\tAsset[] public assets\n      SLOAD \t\t\tAsset[] public assets\n      DUP2 \t\t\tAsset[] public assets\n      LT \t\t\tAsset[] public assets\n      PUSH [tag] 74\t\t\tAsset[] public assets\n      JUMPI \t\t\tAsset[] public assets\n      PUSH 0\t\t\tAsset[] public assets\n      DUP1 \t\t\tAsset[] public assets\n      REVERT \t\t\tAsset[] public assets\n    tag 74\t\t\tAsset[] public assets\n      JUMPDEST \t\t\tAsset[] public assets\n      SWAP1 \t\t\tAsset[] public assets\n      PUSH 0\t\t\tAsset[] public assets\n      MSTORE \t\t\tAsset[] public assets\n      PUSH 20\t\t\tAsset[] public assets\n      PUSH 0\t\t\tAsset[] public assets\n      KECCAK256 \t\t\tAsset[] public assets\n      SWAP1 \t\t\tAsset[] public assets\n      PUSH 3\t\t\tAsset[] public assets\n      MUL \t\t\tAsset[] public assets\n      ADD \t\t\tAsset[] public assets\n      PUSH 0\t\t\tAsset[] public assets\n      SWAP2 \t\t\tAsset[] public assets\n      POP \t\t\tAsset[] public assets\n      SWAP1 \t\t\tAsset[] public assets\n      POP \t\t\tAsset[] public assets\n      DUP1 \t\t\tAsset[] public assets\n      PUSH 0\t\t\tAsset[] public assets\n      ADD \t\t\tAsset[] public assets\n      DUP1 \t\t\tAsset[] public assets\n      SLOAD \t\t\tAsset[] public assets\n      PUSH [tag] 76\t\t\tAsset[] public assets\n      SWAP1 \t\t\tAsset[] public assets\n      PUSH [tag] 31\t\t\tAsset[] public assets\n      JUMP \t\t\tAsset[] public assets\n    tag 76\t\t\tAsset[] public assets\n      JUMPDEST \t\t\tAsset[] public assets\n      DUP1 \t\t\tAsset[] public assets\n      PUSH 1F\t\t\tAsset[] public assets\n      ADD \t\t\tAsset[] public assets\n      PUSH 20\t\t\tAsset[] public assets\n      DUP1 \t\t\tAsset[] public assets\n      SWAP2 \t\t\tAsset[] public assets\n      DIV \t\t\tAsset[] public assets\n      MUL \t\t\tAsset[] public assets\n      PUSH 20\t\t\tAsset[] public assets\n      ADD \t\t\tAsset[] public assets\n      PUSH 40\t\t\tAsset[] public assets\n      MLOAD \t\t\tAsset[] public assets\n      SWAP1 \t\t\tAsset[] public assets\n      DUP2 \t\t\tAsset[] public assets\n      ADD \t\t\tAsset[] public assets\n      PUSH 40\t\t\tAsset[] public assets\n      MSTORE \t\t\tAsset[] public assets\n      DUP1 \t\t\tAsset[] public assets\n      SWAP3 \t\t\tAsset[] public assets\n      SWAP2 \t\t\tAsset[] public assets\n      SWAP1 \t\t\tAsset[] public assets\n      DUP2 \t\t\tAsset[] public assets\n      DUP2 \t\t\tAsset[] public assets\n      MSTORE \t\t\tAsset[] public assets\n      PUSH 20\t\t\tAsset[] public assets\n      ADD \t\t\tAsset[] public assets\n      DUP3 \t\t\tAsset[] public assets\n      DUP1 \t\t\tAsset[] public assets\n      SLOAD \t\t\tAsset[] public assets\n      PUSH [tag] 77\t\t\tAsset[] public assets\n      SWAP1 \t\t\tAsset[] public assets\n      PUSH [tag] 31\t\t\tAsset[] public assets\n      JUMP \t\t\tAsset[] public assets\n    tag 77\t\t\tAsset[] public assets\n      JUMPDEST \t\t\tAsset[] public assets\n      DUP1 \t\t\tAsset[] public assets\n      ISZERO \t\t\tAsset[] public assets\n      PUSH [tag] 78\t\t\tAsset[] public assets\n      JUMPI \t\t\tAsset[] public assets\n      DUP1 \t\t\tAsset[] public assets\n      PUSH 1F\t\t\tAsset[] public assets\n      LT \t\t\tAsset[] public assets\n      PUSH [tag] 79\t\t\tAsset[] public assets\n      JUMPI \t\t\tAsset[] public assets\n      PUSH 100\t\t\tAsset[] public assets\n      DUP1 \t\t\tAsset[] public assets\n      DUP4 \t\t\tAsset[] public assets\n      SLOAD \t\t\tAsset[] public assets\n      DIV \t\t\tAsset[] public assets\n      MUL \t\t\tAsset[] public assets\n      DUP4 \t\t\tAsset[] public assets\n      MSTORE \t\t\tAsset[] public assets\n      SWAP2 \t\t\tAsset[] public assets\n      PUSH 20\t\t\tAsset[] public assets\n      ADD \t\t\tAsset[] public assets\n      SWAP2 \t\t\tAsset[] public assets\n      PUSH [tag] 78\t\t\tAsset[] public assets\n      JUMP \t\t\tAsset[] public assets\n    tag 79\t\t\tAsset[] public assets\n      JUMPDEST \t\t\tAsset[] public assets\n      DUP3 \t\t\tAsset[] public assets\n      ADD \t\t\tAsset[] public assets\n      SWAP2 \t\t\tAsset[] public assets\n      SWAP1 \t\t\tAsset[] public assets\n      PUSH 0\t\t\tAsset[] public assets\n      MSTORE \t\t\tAsset[] public assets\n      PUSH 20\t\t\tAsset[] public assets\n      PUSH 0\t\t\tAsset[] public assets\n      KECCAK256 \t\t\tAsset[] public assets\n      SWAP1 \t\t\tAsset[] public assets\n    tag 80\t\t\tAsset[] public assets\n      JUMPDEST \t\t\tAsset[] public assets\n      DUP2 \t\t\tAsset[] public assets\n      SLOAD \t\t\tAsset[] public assets\n      DUP2 \t\t\tAsset[] public assets\n      MSTORE \t\t\tAsset[] public assets\n      SWAP1 \t\t\tAsset[] public assets\n      PUSH 1\t\t\tAsset[] public assets\n      ADD \t\t\tAsset[] public assets\n      SWAP1 \t\t\tAsset[] public assets\n      PUSH 20\t\t\tAsset[] public assets\n      ADD \t\t\tAsset[] public assets\n      DUP1 \t\t\tAsset[] public assets\n      DUP4 \t\t\tAsset[] public assets\n      GT \t\t\tAsset[] public assets\n      PUSH [tag] 80\t\t\tAsset[] public assets\n      JUMPI \t\t\tAsset[] public assets\n      DUP3 \t\t\tAsset[] public assets\n      SWAP1 \t\t\tAsset[] public assets\n      SUB \t\t\tAsset[] public assets\n      PUSH 1F\t\t\tAsset[] public assets\n      AND \t\t\tAsset[] public assets\n      DUP3 \t\t\tAsset[] public assets\n      ADD \t\t\tAsset[] public assets\n      SWAP2 \t\t\tAsset[] public assets\n    tag 78\t\t\tAsset[] public assets\n      JUMPDEST \t\t\tAsset[] public assets\n      POP \t\t\tAsset[] public assets\n      POP \t\t\tAsset[] public assets\n      POP \t\t\tAsset[] public assets\n      POP \t\t\tAsset[] public assets\n      POP \t\t\tAsset[] public assets\n      SWAP1 \t\t\tAsset[] public assets\n      DUP1 \t\t\tAsset[] public assets\n      PUSH 1\t\t\tAsset[] public assets\n      ADD \t\t\tAsset[] public assets\n      DUP1 \t\t\tAsset[] public assets\n      SLOAD \t\t\tAsset[] public assets\n      PUSH [tag] 81\t\t\tAsset[] public assets\n      SWAP1 \t\t\tAsset[] public assets\n      PUSH [tag] 31\t\t\tAsset[] public assets\n      JUMP \t\t\tAsset[] public assets\n    tag 81\t\t\tAsset[] public assets\n      JUMPDEST \t\t\tAsset[] public assets\n      DUP1 \t\t\tAsset[] public assets\n      PUSH 1F\t\t\tAsset[] public assets\n      ADD \t\t\tAsset[] public assets\n      PUSH 20\t\t\tAsset[] public assets\n      DUP1 \t\t\tAsset[] public assets\n      SWAP2 \t\t\tAsset[] public assets\n      DIV \t\t\tAsset[] public assets\n      MUL \t\t\tAsset[] public assets\n      PUSH 20\t\t\tAsset[] public assets\n      ADD \t\t\tAsset[] public assets\n      PUSH 40\t\t\tAsset[] public assets\n      MLOAD \t\t\tAsset[] public assets\n      SWAP1 \t\t\tAsset[] public assets\n      DUP2 \t\t\tAsset[] public assets\n      ADD \t\t\tAsset[] public assets\n      PUSH 40\t\t\tAsset[] public assets\n      MSTORE \t\t\tAsset[] public assets\n      DUP1 \t\t\tAsset[] public assets\n      SWAP3 \t\t\tAsset[] public assets\n      SWAP2 \t\t\tAsset[] public assets\n      SWAP1 \t\t\tAsset[] public assets\n      DUP2 \t\t\tAsset[] public assets\n      DUP2 \t\t\tAsset[] public assets\n      MSTORE \t\t\tAsset[] public assets\n      PUSH 20\t\t\tAsset[] public assets\n      ADD \t\t\tAsset[] public assets\n      DUP3 \t\t\tAsset[] public assets\n      DUP1 \t\t\tAsset[] public assets\n      SLOAD \t\t\tAsset[] public assets\n      PUSH [tag] 82\t\t\tAsset[] public assets\n      SWAP1 \t\t\tAsset[] public assets\n      PUSH [tag] 31\t\t\tAsset[] public assets\n      JUMP \t\t\tAsset[] public assets\n    tag 82\t\t\tAsset[] public assets\n      JUMPDEST \t\t\tAsset[] public assets\n      DUP1 \t\t\tAsset[] public assets\n      ISZERO \t\t\tAsset[] public assets\n      PUSH [tag] 83\t\t\tAsset[] public assets\n      JUMPI \t\t\tAsset[] public assets\n      DUP1 \t\t\tAsset[] public assets\n      PUSH 1F\t\t\tAsset[] public assets\n      LT \t\t\tAsset[] public assets\n      PUSH [tag] 84\t\t\tAsset[] public assets\n      JUMPI \t\t\tAsset[] public assets\n      PUSH 100\t\t\tAsset[] public assets\n      DUP1 \t\t\tAsset[] public assets\n      DUP4 \t\t\tAsset[] public assets\n      SLOAD \t\t\tAsset[] public assets\n      DIV \t\t\tAsset[] public assets\n      MUL \t\t\tAsset[] public assets\n      DUP4 \t\t\tAsset[] public assets\n      MSTORE \t\t\tAsset[] public assets\n      SWAP2 \t\t\tAsset[] public assets\n      PUSH 20\t\t\tAsset[] public assets\n      ADD \t\t\tAsset[] public assets\n      SWAP2 \t\t\tAsset[] public assets\n      PUSH [tag] 83\t\t\tAsset[] public assets\n      JUMP \t\t\tAsset[] public assets\n    tag 84\t\t\tAsset[] public assets\n      JUMPDEST \t\t\tAsset[] public assets\n      DUP3 \t\t\tAsset[] public assets\n      ADD \t\t\tAsset[] public assets\n      SWAP2 \t\t\tAsset[] public assets\n      SWAP1 \t\t\tAsset[] public assets\n      PUSH 0\t\t\tAsset[] public assets\n      MSTORE \t\t\tAsset[] public assets\n      PUSH 20\t\t\tAsset[] public assets\n      PUSH 0\t\t\tAsset[] public assets\n      KECCAK256 \t\t\tAsset[] public assets\n      SWAP1 \t\t\tAsset[] public assets\n    tag 85\t\t\tAsset[] public assets\n      JUMPDEST \t\t\tAsset[] public assets\n      DUP2 \t\t\tAsset[] public assets\n      SLOAD \t\t\tAsset[] public assets\n      DUP2 \t\t\tAsset[] public assets\n      MSTORE \t\t\tAsset[] public assets\n      SWAP1 \t\t\tAsset[] public assets\n      PUSH 1\t\t\tAsset[] public assets\n      ADD \t\t\tAsset[] public assets\n      SWAP1 \t\t\tAsset[] public assets\n      PUSH 20\t\t\tAsset[] public assets\n      ADD \t\t\tAsset[] public assets\n      DUP1 \t\t\tAsset[] public assets\n      DUP4 \t\t\tAsset[] public assets\n      GT \t\t\tAsset[] public assets\n      PUSH [tag] 85\t\t\tAsset[] public assets\n      JUMPI \t\t\tAsset[] public assets\n      DUP3 \t\t\tAsset[] public assets\n      SWAP1 \t\t\tAsset[] public assets\n      SUB \t\t\tAsset[] public assets\n      PUSH 1F\t\t\tAsset[] public assets\n      AND \t\t\tAsset[] public assets\n      DUP3 \t\t\tAsset[] public assets\n      ADD \t\t\tAsset[] public assets\n      SWAP2 \t\t\tAsset[] public assets\n    tag 83\t\t\tAsset[] public assets\n      JUMPDEST \t\t\tAsset[] public assets\n      POP \t\t\tAsset[] public assets\n      POP \t\t\tAsset[] public assets\n      POP \t\t\tAsset[] public assets\n      POP \t\t\tAsset[] public assets\n      POP \t\t\tAsset[] public assets\n      SWAP1 \t\t\tAsset[] public assets\n      DUP1 \t\t\tAsset[] public assets\n      PUSH 2\t\t\tAsset[] public assets\n      ADD \t\t\tAsset[] public assets\n      SLOAD \t\t\tAsset[] public assets\n      SWAP1 \t\t\tAsset[] public assets\n      POP \t\t\tAsset[] public assets\n      DUP4 \t\t\tAsset[] public assets\n      JUMP \t\t\tAsset[] public assets\n    tag 55\t\t\t\n      JUMPDEST \t\t\t\n      PUSH 40\t\t\t\n      MLOAD \t\t\t\n      DUP1 \t\t\t\n      PUSH 60\t\t\t\n      ADD \t\t\t\n      PUSH 40\t\t\t\n      MSTORE \t\t\t\n      DUP1 \t\t\t\n      PUSH 60\t\t\t\n      DUP2 \t\t\t\n      MSTORE \t\t\t\n      PUSH 20\t\t\t\n      ADD \t\t\t\n      PUSH 60\t\t\t\n      DUP2 \t\t\t\n      MSTORE \t\t\t\n      PUSH 20\t\t\t\n      ADD \t\t\t\n      PUSH 0\t\t\t\n      DUP2 \t\t\t\n      MSTORE \t\t\t\n      POP \t\t\t\n      SWAP1 \t\t\t\n      JUMP \t\t\t\n    tag 86\t\t\t-License-Identifier: MIT\\r\\npr...\n      JUMPDEST \t\t\t-License-Identifier: MIT\\r\\npr...\n      PUSH 0\t\t\t  stru\n      DUP2 \t\t\tsset_\n      MLOAD \t\t\tring asset_i\n      SWAP1 \t\t\t        string asset_i\n      POP \t\t\t        string asset_i\n      SWAP2 \t\t\t-License-Identifier: MIT\\r\\npr...\n      SWAP1 \t\t\t-License-Identifier: MIT\\r\\npr...\n      POP \t\t\t-License-Identifier: MIT\\r\\npr...\n      JUMP \t\t\t-License-Identifier: MIT\\r\\npr...\n    tag 87\t\t\tytes asset_hash;\\r\\n        ui...\n      JUMPDEST \t\t\tytes asset_hash;\\r\\n        ui...\n      PUSH 0\t\t\t(\\r\\n        \n      DUP3 \t\t\tdex,\\r\\n\n      DUP3 \t\t\tset\n      MSTORE \t\t\texed assetIndex,\\r\\n \n      PUSH 20\t\t\tbyte\n      DUP3 \t\t\t   \n      ADD \t\t\t\\n        bytes\n      SWAP1 \t\t\tring asset_id,\\r\\n        byte...\n      POP \t\t\tring asset_id,\\r\\n        byte...\n      SWAP3 \t\t\tytes asset_hash;\\r\\n        ui...\n      SWAP2 \t\t\tytes asset_hash;\\r\\n        ui...\n      POP \t\t\tytes asset_hash;\\r\\n        ui...\n      POP \t\t\tytes asset_hash;\\r\\n        ui...\n      JUMP \t\t\tytes asset_hash;\\r\\n        ui...\n    tag 88\t\t\t\\r\\n        uint256 submission...\n      JUMPDEST \t\t\t\\r\\n        uint256 submission...\n      PUSH 0\t\t\ting \n      DUP2 \t\t\t   \n      SWAP1 \t\t\tt_id,\\r\\n    \n      POP \t\t\tt_id,\\r\\n    \n      PUSH 20\t\t\t\\r\\n  \n      DUP3 \t\t\t_ha\n      ADD \t\t\tsset_hash\\r\\n   \n      SWAP1 \t\t\tmemory asset_hash\\r\\n   \n      POP \t\t\tmemory asset_hash\\r\\n   \n      SWAP2 \t\t\t\\r\\n        uint256 submission...\n      SWAP1 \t\t\t\\r\\n        uint256 submission...\n      POP \t\t\t\\r\\n        uint256 submission...\n      JUMP \t\t\t\\r\\n        uint256 submission...\n    tag 89\t\t\t        require(bytes(asset_id...\n      JUMPDEST \t\t\t        require(bytes(asset_id...\n      PUSH 0\t\t\tD is r\n      DUP2 \t\t\t(asse\n      MLOAD \t\t\tequire(asset\n      SWAP1 \t\t\t\\n        require(asset\n      POP \t\t\t\\n        require(asset\n      SWAP2 \t\t\t        require(bytes(asset_id...\n      SWAP1 \t\t\t        require(bytes(asset_id...\n      POP \t\t\t        require(bytes(asset_id...\n      JUMP \t\t\t        require(bytes(asset_id...\n    tag 90\t\t\t== 32, \"Asset hash must be 32 ...\n      JUMPDEST \t\t\t== 32, \"Asset hash must be 32 ...\n      PUSH 0\t\t\tsets.length\n      DUP3 \t\t\th(\\r\\n  \n      DUP3 \t\t\ts.p\n      MSTORE \t\t\t  assets.push(\\r\\n   \n      PUSH 20\t\t\t ass\n      DUP3 \t\t\t   \n      ADD \t\t\t          asse\n      SWAP1 \t\t\tAsset({\\r\\n                ass...\n      POP \t\t\tAsset({\\r\\n                ass...\n      SWAP3 \t\t\t== 32, \"Asset hash must be 32 ...\n      SWAP2 \t\t\t== 32, \"Asset hash must be 32 ...\n      POP \t\t\t== 32, \"Asset hash must be 32 ...\n      POP \t\t\t== 32, \"Asset hash must be 32 ...\n      JUMP \t\t\t== 32, \"Asset hash must be 32 ...\n    tag 91\t\t\tid,\\r\\n                asset_h...\n      JUMPDEST \t\t\tid,\\r\\n                asset_h...\n      DUP3 \t\t\tstamp\\r\n      DUP2 \t\t\t.ti\n      DUP4 \t\t\tblo\n      MCOPY \t\t\ttime: block.timestamp\\r\\n\n      PUSH 0\t\t\t \n      DUP4 \t\t\t;\\r\\n\\r\\n \n      DUP4 \t\t\t   \n      ADD \t\t\t        );\\r\\n\\r\\n  \n      MSTORE \t\t\t   })\\r\\n        );\\r\\n\\r\\n   ...\n      POP \t\t\tid,\\r\\n                asset_h...\n      POP \t\t\tid,\\r\\n                asset_h...\n      POP \t\t\tid,\\r\\n                asset_h...\n      JUMP \t\t\tid,\\r\\n                asset_h...\n    tag 92\t\t\tashSubmitted(\\r\\n            a...\n      JUMPDEST \t\t\tashSubmitted(\\r\\n            a...\n      PUSH 0\t\t\t      \n      PUSH 1F\t\t\t  \n      NOT \t\t\t       \n      PUSH 1F\t\t\tsh\n      DUP4 \t\t\tsset_\n      ADD \t\t\t   asset_hash,\n      AND \t\t\t       asset_hash,\\r\\n        \n      SWAP1 \t\t\tid,\\r\\n            asset_hash,...\n      POP \t\t\tid,\\r\\n            asset_hash,...\n      SWAP2 \t\t\tashSubmitted(\\r\\n            a...\n      SWAP1 \t\t\tashSubmitted(\\r\\n            a...\n      POP \t\t\tashSubmitted(\\r\\n            a...\n      JUMP \t\t\tashSubmitted(\\r\\n            a...\n    tag 93\t\t\tmestamp\\r\\n        );\\r\\n    }...\n      JUMPDEST \t\t\tmestamp\\r\\n        );\\r\\n    }...\n      PUSH 0\t\t\ton \n      PUSH [tag] 159\t\t\teturns (Asset[] memory) {\\r\\n ...\n      DUP3 \t\t\t  ret\n      PUSH [tag] 89\t\t\teturns (Asset[] memory) {\\r\\n ...\n      JUMP \t\t\teturns (Asset[] memory) {\\r\\n ...\n    tag 159\t\t\teturns (Asset[] memory) {\\r\\n ...\n      JUMPDEST \t\t\teturns (Asset[] memory) {\\r\\n ...\n      PUSH [tag] 160\t\t\t}\\r\\n\\r\\n    // Fetch a specif...\n      DUP2 \t\t\tion ge\n      DUP6 \t\t\tfun\n      PUSH [tag] 90\t\t\t}\\r\\n\\r\\n    // Fetch a specif...\n      JUMP \t\t\t}\\r\\n\\r\\n    // Fetch a specif...\n    tag 160\t\t\t}\\r\\n\\r\\n    // Fetch a specif...\n      JUMPDEST \t\t\t}\\r\\n\\r\\n    // Fetch a specif...\n      SWAP4 \t\t\t;\\r\\n    }\\r\\n\\r\\n    // Fetch...\n      POP \t\t\t;\\r\\n    }\\r\\n\\r\\n    // Fetch...\n      PUSH [tag] 161\t\t\t(uint256 assetIndex) public vi...\n      DUP2 \t\t\t\\n     \n      DUP6 \t\t\ty) \n      PUSH 20\t\t\tt me\n      DUP7 \t\t\ts (As\n      ADD \t\t\tturns (Asset mem\n      PUSH [tag] 91\t\t\t(uint256 assetIndex) public vi...\n      JUMP \t\t\t(uint256 assetIndex) public vi...\n    tag 161\t\t\t(uint256 assetIndex) public vi...\n      JUMPDEST \t\t\t(uint256 assetIndex) public vi...\n      PUSH [tag] 162\t\t\tsets.length, \"Asset does not \n      DUP2 \t\t\tes not\n      PUSH [tag] 92\t\t\tsets.length, \"Asset does not \n      JUMP \t\t\tsets.length, \"Asset does not \n    tag 162\t\t\tsets.length, \"Asset does not \n      JUMPDEST \t\t\tsets.length, \"Asset does not \n      DUP5 \t\t\t < \n      ADD \t\t\tndex < assets.length, \"Asset d...\n      SWAP2 \t\t\t(assetIndex < assets.length, \"...\n      POP \t\t\t(assetIndex < assets.length, \"...\n      POP \t\t\tetAssets() public view returns...\n      SWAP3 \t\t\tmestamp\\r\\n        );\\r\\n    }...\n      SWAP2 \t\t\tmestamp\\r\\n        );\\r\\n    }...\n      POP \t\t\tmestamp\\r\\n        );\\r\\n    }...\n      POP \t\t\tmestamp\\r\\n        );\\r\\n    }...\n      JUMP \t\t\tmestamp\\r\\n        );\\r\\n    }...\n    tag 94\t\t\t      return assets[assetIndex...\n      JUMPDEST \t\t\t      return assets[assetIndex...\n      PUSH 0\t\t\t\n      DUP2 \t\t\t\n      MLOAD \t\t\t\n      SWAP1 \t\t\t\n      POP \t\t\t\n      SWAP2 \t\t\t      return assets[assetIndex...\n      SWAP1 \t\t\t      return assets[assetIndex...\n      POP \t\t\t      return assets[assetIndex...\n      JUMP \t\t\t      return assets[assetIndex...\n    tag 95\t\t\t\n      JUMPDEST \t\t\t\n      PUSH 0\t\t\t\n      DUP3 \t\t\t\n      DUP3 \t\t\t\n      MSTORE \t\t\t\n      PUSH 20\t\t\t\n      DUP3 \t\t\t\n      ADD \t\t\t\n      SWAP1 \t\t\t\n      POP \t\t\t\n      SWAP3 \t\t\t\n      SWAP2 \t\t\t\n      POP \t\t\t\n      POP \t\t\t\n      JUMP \t\t\t\n    tag 96\t\t\t\n      JUMPDEST \t\t\t\n      PUSH 0\t\t\t\n      PUSH [tag] 166\t\t\t\n      DUP3 \t\t\t\n      PUSH [tag] 94\t\t\t\n      JUMP \t\t\t\n    tag 166\t\t\t\n      JUMPDEST \t\t\t\n      PUSH [tag] 167\t\t\t\n      DUP2 \t\t\t\n      DUP6 \t\t\t\n      PUSH [tag] 95\t\t\t\n      JUMP \t\t\t\n    tag 167\t\t\t\n      JUMPDEST \t\t\t\n      SWAP4 \t\t\t\n      POP \t\t\t\n      PUSH [tag] 168\t\t\t\n      DUP2 \t\t\t\n      DUP6 \t\t\t\n      PUSH 20\t\t\t\n      DUP7 \t\t\t\n      ADD \t\t\t\n      PUSH [tag] 91\t\t\t\n      JUMP \t\t\t\n    tag 168\t\t\t\n      JUMPDEST \t\t\t\n      PUSH [tag] 169\t\t\t\n      DUP2 \t\t\t\n      PUSH [tag] 92\t\t\t\n      JUMP \t\t\t\n    tag 169\t\t\t\n      JUMPDEST \t\t\t\n      DUP5 \t\t\t\n      ADD \t\t\t\n      SWAP2 \t\t\t\n      POP \t\t\t\n      POP \t\t\t\n      SWAP3 \t\t\t\n      SWAP2 \t\t\t\n      POP \t\t\t\n      POP \t\t\t\n      JUMP \t\t\t\n    tag 97\t\t\t\n      JUMPDEST \t\t\t\n      PUSH 0\t\t\t\n      DUP2 \t\t\t\n      SWAP1 \t\t\t\n      POP \t\t\t\n      SWAP2 \t\t\t\n      SWAP1 \t\t\t\n      POP \t\t\t\n      JUMP \t\t\t\n    tag 98\t\t\t\n      JUMPDEST \t\t\t\n      PUSH [tag] 172\t\t\t\n      DUP2 \t\t\t\n      PUSH [tag] 97\t\t\t\n      JUMP \t\t\t\n    tag 172\t\t\t\n      JUMPDEST \t\t\t\n      DUP3 \t\t\t\n      MSTORE \t\t\t\n      POP \t\t\t\n      POP \t\t\t\n      JUMP \t\t\t\n    tag 99\t\t\t\n      JUMPDEST \t\t\t\n      PUSH 0\t\t\t\n      PUSH 60\t\t\t\n      DUP4 \t\t\t\n      ADD \t\t\t\n      PUSH 0\t\t\t\n      DUP4 \t\t\t\n      ADD \t\t\t\n      MLOAD \t\t\t\n      DUP5 \t\t\t\n      DUP3 \t\t\t\n      SUB \t\t\t\n      PUSH 0\t\t\t\n      DUP7 \t\t\t\n      ADD \t\t\t\n      MSTORE \t\t\t\n      PUSH [tag] 174\t\t\t\n      DUP3 \t\t\t\n      DUP3 \t\t\t\n      PUSH [tag] 93\t\t\t\n      JUMP \t\t\t\n    tag 174\t\t\t\n      JUMPDEST \t\t\t\n      SWAP2 \t\t\t\n      POP \t\t\t\n      POP \t\t\t\n      PUSH 20\t\t\t\n      DUP4 \t\t\t\n      ADD \t\t\t\n      MLOAD \t\t\t\n      DUP5 \t\t\t\n      DUP3 \t\t\t\n      SUB \t\t\t\n      PUSH 20\t\t\t\n      DUP7 \t\t\t\n      ADD \t\t\t\n      MSTORE \t\t\t\n      PUSH [tag] 175\t\t\t\n      DUP3 \t\t\t\n      DUP3 \t\t\t\n      PUSH [tag] 96\t\t\t\n      JUMP \t\t\t\n    tag 175\t\t\t\n      JUMPDEST \t\t\t\n      SWAP2 \t\t\t\n      POP \t\t\t\n      POP \t\t\t\n      PUSH 40\t\t\t\n      DUP4 \t\t\t\n      ADD \t\t\t\n      MLOAD \t\t\t\n      PUSH [tag] 176\t\t\t\n      PUSH 40\t\t\t\n      DUP7 \t\t\t\n      ADD \t\t\t\n      DUP3 \t\t\t\n      PUSH [tag] 98\t\t\t\n      JUMP \t\t\t\n    tag 176\t\t\t\n      JUMPDEST \t\t\t\n      POP \t\t\t\n      DUP1 \t\t\t\n      SWAP2 \t\t\t\n      POP \t\t\t\n      POP \t\t\t\n      SWAP3 \t\t\t\n      SWAP2 \t\t\t\n      POP \t\t\t\n      POP \t\t\t\n      JUMP \t\t\t\n    tag 100\t\t\t\n      JUMPDEST \t\t\t\n      PUSH 0\t\t\t\n      PUSH [tag] 178\t\t\t\n      DUP4 \t\t\t\n      DUP4 \t\t\t\n      PUSH [tag] 99\t\t\t\n      JUMP \t\t\t\n    tag 178\t\t\t\n      JUMPDEST \t\t\t\n      SWAP1 \t\t\t\n      POP \t\t\t\n      SWAP3 \t\t\t\n      SWAP2 \t\t\t\n      POP \t\t\t\n      POP \t\t\t\n      JUMP \t\t\t\n    tag 101\t\t\t\n      JUMPDEST \t\t\t\n      PUSH 0\t\t\t\n      PUSH 20\t\t\t\n      DUP3 \t\t\t\n      ADD \t\t\t\n      SWAP1 \t\t\t\n      POP \t\t\t\n      SWAP2 \t\t\t\n      SWAP1 \t\t\t\n      POP \t\t\t\n      JUMP \t\t\t\n    tag 102\t\t\t\n      JUMPDEST \t\t\t\n      PUSH 0\t\t\t\n      PUSH [tag] 181\t\t\t\n      DUP3 \t\t\t\n      PUSH [tag] 86\t\t\t\n      JUMP \t\t\t\n    tag 181\t\t\t\n      JUMPDEST \t\t\t\n      PUSH [tag] 182\t\t\t\n      DUP2 \t\t\t\n      DUP6 \t\t\t\n      PUSH [tag] 87\t\t\t\n      JUMP \t\t\t\n    tag 182\t\t\t\n      JUMPDEST \t\t\t\n      SWAP4 \t\t\t\n      POP \t\t\t\n      DUP4 \t\t\t\n      PUSH 20\t\t\t\n      DUP3 \t\t\t\n      MUL \t\t\t\n      DUP6 \t\t\t\n      ADD \t\t\t\n      PUSH [tag] 183\t\t\t\n      DUP6 \t\t\t\n      PUSH [tag] 88\t\t\t\n      JUMP \t\t\t\n    tag 183\t\t\t\n      JUMPDEST \t\t\t\n      DUP1 \t\t\t\n      PUSH 0\t\t\t\n    tag 184\t\t\t\n      JUMPDEST \t\t\t\n      DUP6 \t\t\t\n      DUP2 \t\t\t\n      LT \t\t\t\n      ISZERO \t\t\t\n      PUSH [tag] 186\t\t\t\n      JUMPI \t\t\t\n      DUP5 \t\t\t\n      DUP5 \t\t\t\n      SUB \t\t\t\n      DUP10 \t\t\t\n      MSTORE \t\t\t\n      DUP2 \t\t\t\n      MLOAD \t\t\t\n      PUSH [tag] 187\t\t\t\n      DUP6 \t\t\t\n      DUP3 \t\t\t\n      PUSH [tag] 100\t\t\t\n      JUMP \t\t\t\n    tag 187\t\t\t\n      JUMPDEST \t\t\t\n      SWAP5 \t\t\t\n      POP \t\t\t\n      PUSH [tag] 188\t\t\t\n      DUP4 \t\t\t\n      PUSH [tag] 101\t\t\t\n      JUMP \t\t\t\n    tag 188\t\t\t\n      JUMPDEST \t\t\t\n      SWAP3 \t\t\t\n      POP \t\t\t\n      PUSH 20\t\t\t\n      DUP11 \t\t\t\n      ADD \t\t\t\n      SWAP10 \t\t\t\n      POP \t\t\t\n      POP \t\t\t\n      PUSH 1\t\t\t\n      DUP2 \t\t\t\n      ADD \t\t\t\n      SWAP1 \t\t\t\n      POP \t\t\t\n      PUSH [tag] 184\t\t\t\n      JUMP \t\t\t\n    tag 186\t\t\t\n      JUMPDEST \t\t\t\n      POP \t\t\t\n      DUP3 \t\t\t\n      SWAP8 \t\t\t\n      POP \t\t\t\n      DUP8 \t\t\t\n      SWAP6 \t\t\t\n      POP \t\t\t\n      POP \t\t\t\n      POP \t\t\t\n      POP \t\t\t\n      POP \t\t\t\n      POP \t\t\t\n      SWAP3 \t\t\t\n      SWAP2 \t\t\t\n      POP \t\t\t\n      POP \t\t\t\n      JUMP \t\t\t\n    tag 10\t\t\t\n      JUMPDEST \t\t\t\n      PUSH 0\t\t\t\n      PUSH 20\t\t\t\n      DUP3 \t\t\t\n      ADD \t\t\t\n      SWAP1 \t\t\t\n      POP \t\t\t\n      DUP2 \t\t\t\n      DUP2 \t\t\t\n      SUB \t\t\t\n      PUSH 0\t\t\t\n      DUP4 \t\t\t\n      ADD \t\t\t\n      MSTORE \t\t\t\n      PUSH [tag] 190\t\t\t\n      DUP2 \t\t\t\n      DUP5 \t\t\t\n      PUSH [tag] 102\t\t\t\n      JUMP \t\t\t\n    tag 190\t\t\t\n      JUMPDEST \t\t\t\n      SWAP1 \t\t\t\n      POP \t\t\t\n      SWAP3 \t\t\t\n      SWAP2 \t\t\t\n      POP \t\t\t\n      POP \t\t\t\n      JUMP \t\t\t\n    tag 103\t\t\t\n      JUMPDEST \t\t\t\n      PUSH 0\t\t\t\n      PUSH 40\t\t\t\n      MLOAD \t\t\t\n      SWAP1 \t\t\t\n      POP \t\t\t\n      SWAP1 \t\t\t\n      JUMP \t\t\t\n    tag 104\t\t\t\n      JUMPDEST \t\t\t\n      PUSH 0\t\t\t\n      PUSH 0\t\t\t\n      REVERT \t\t\t\n    tag 105\t\t\t\n      JUMPDEST \t\t\t\n      PUSH 0\t\t\t\n      PUSH 0\t\t\t\n      REVERT \t\t\t\n    tag 106\t\t\t\n      JUMPDEST \t\t\t\n      PUSH 0\t\t\t\n      PUSH 0\t\t\t\n      REVERT \t\t\t\n    tag 107\t\t\t\n      JUMPDEST \t\t\t\n      PUSH 0\t\t\t\n      PUSH 0\t\t\t\n      REVERT \t\t\t\n    tag 108\t\t\t\n      JUMPDEST \t\t\t\n      PUSH 4E487B7100000000000000000000000000000000000000000000000000000000\t\t\t\n      PUSH 0\t\t\t\n      MSTORE \t\t\t\n      PUSH 41\t\t\t\n      PUSH 4\t\t\t\n      MSTORE \t\t\t\n      PUSH 24\t\t\t\n      PUSH 0\t\t\t\n      REVERT \t\t\t\n    tag 109\t\t\t\n      JUMPDEST \t\t\t\n      PUSH [tag] 198\t\t\t\n      DUP3 \t\t\t\n      PUSH [tag] 92\t\t\t\n      JUMP \t\t\t\n    tag 198\t\t\t\n      JUMPDEST \t\t\t\n      DUP2 \t\t\t\n      ADD \t\t\t\n      DUP2 \t\t\t\n      DUP2 \t\t\t\n      LT \t\t\t\n      PUSH FFFFFFFFFFFFFFFF\t\t\t\n      DUP3 \t\t\t\n      GT \t\t\t\n      OR \t\t\t\n      ISZERO \t\t\t\n      PUSH [tag] 199\t\t\t\n      JUMPI \t\t\t\n      PUSH [tag] 200\t\t\t\n      PUSH [tag] 108\t\t\t\n      JUMP \t\t\t\n    tag 200\t\t\t\n      JUMPDEST \t\t\t\n    tag 199\t\t\t\n      JUMPDEST \t\t\t\n      DUP1 \t\t\t\n      PUSH 40\t\t\t\n      MSTORE \t\t\t\n      POP \t\t\t\n      POP \t\t\t\n      POP \t\t\t\n      JUMP \t\t\t\n    tag 110\t\t\t\n      JUMPDEST \t\t\t\n      PUSH 0\t\t\t\n      PUSH [tag] 202\t\t\t\n      PUSH [tag] 103\t\t\t\n      JUMP \t\t\t\n    tag 202\t\t\t\n      JUMPDEST \t\t\t\n      SWAP1 \t\t\t\n      POP \t\t\t\n      PUSH [tag] 203\t\t\t\n      DUP3 \t\t\t\n      DUP3 \t\t\t\n      PUSH [tag] 109\t\t\t\n      JUMP \t\t\t\n    tag 203\t\t\t\n      JUMPDEST \t\t\t\n      SWAP2 \t\t\t\n      SWAP1 \t\t\t\n      POP \t\t\t\n      JUMP \t\t\t\n    tag 111\t\t\t\n      JUMPDEST \t\t\t\n      PUSH 0\t\t\t\n      PUSH FFFFFFFFFFFFFFFF\t\t\t\n      DUP3 \t\t\t\n      GT \t\t\t\n      ISZERO \t\t\t\n      PUSH [tag] 205\t\t\t\n      JUMPI \t\t\t\n      PUSH [tag] 206\t\t\t\n      PUSH [tag] 108\t\t\t\n      JUMP \t\t\t\n    tag 206\t\t\t\n      JUMPDEST \t\t\t\n    tag 205\t\t\t\n      JUMPDEST \t\t\t\n      PUSH [tag] 207\t\t\t\n      DUP3 \t\t\t\n      PUSH [tag] 92\t\t\t\n      JUMP \t\t\t\n    tag 207\t\t\t\n      JUMPDEST \t\t\t\n      SWAP1 \t\t\t\n      POP \t\t\t\n      PUSH 20\t\t\t\n      DUP2 \t\t\t\n      ADD \t\t\t\n      SWAP1 \t\t\t\n      POP \t\t\t\n      SWAP2 \t\t\t\n      SWAP1 \t\t\t\n      POP \t\t\t\n      JUMP \t\t\t\n    tag 112\t\t\t\n      JUMPDEST \t\t\t\n      DUP3 \t\t\t\n      DUP2 \t\t\t\n      DUP4 \t\t\t\n      CALLDATACOPY \t\t\t\n      PUSH 0\t\t\t\n      DUP4 \t\t\t\n      DUP4 \t\t\t\n      ADD \t\t\t\n      MSTORE \t\t\t\n      POP \t\t\t\n      POP \t\t\t\n      POP \t\t\t\n      JUMP \t\t\t\n    tag 113\t\t\t\n      JUMPDEST \t\t\t\n      PUSH 0\t\t\t\n      PUSH [tag] 210\t\t\t\n      PUSH [tag] 211\t\t\t\n      DUP5 \t\t\t\n      PUSH [tag] 111\t\t\t\n      JUMP \t\t\t\n    tag 211\t\t\t\n      JUMPDEST \t\t\t\n      PUSH [tag] 110\t\t\t\n      JUMP \t\t\t\n    tag 210\t\t\t\n      JUMPDEST \t\t\t\n      SWAP1 \t\t\t\n      POP \t\t\t\n      DUP3 \t\t\t\n      DUP2 \t\t\t\n      MSTORE \t\t\t\n      PUSH 20\t\t\t\n      DUP2 \t\t\t\n      ADD \t\t\t\n      DUP5 \t\t\t\n      DUP5 \t\t\t\n      DUP5 \t\t\t\n      ADD \t\t\t\n      GT \t\t\t\n      ISZERO \t\t\t\n      PUSH [tag] 212\t\t\t\n      JUMPI \t\t\t\n      PUSH [tag] 213\t\t\t\n      PUSH [tag] 107\t\t\t\n      JUMP \t\t\t\n    tag 213\t\t\t\n      JUMPDEST \t\t\t\n    tag 212\t\t\t\n      JUMPDEST \t\t\t\n      PUSH [tag] 214\t\t\t\n      DUP5 \t\t\t\n      DUP3 \t\t\t\n      DUP6 \t\t\t\n      PUSH [tag] 112\t\t\t\n      JUMP \t\t\t\n    tag 214\t\t\t\n      JUMPDEST \t\t\t\n      POP \t\t\t\n      SWAP4 \t\t\t\n      SWAP3 \t\t\t\n      POP \t\t\t\n      POP \t\t\t\n      POP \t\t\t\n      JUMP \t\t\t\n    tag 114\t\t\t\n      JUMPDEST \t\t\t\n      PUSH 0\t\t\t\n      DUP3 \t\t\t\n      PUSH 1F\t\t\t\n      DUP4 \t\t\t\n      ADD \t\t\t\n      SLT \t\t\t\n      PUSH [tag] 216\t\t\t\n      JUMPI \t\t\t\n      PUSH [tag] 217\t\t\t\n      PUSH [tag] 106\t\t\t\n      JUMP \t\t\t\n    tag 217\t\t\t\n      JUMPDEST \t\t\t\n    tag 216\t\t\t\n      JUMPDEST \t\t\t\n      DUP2 \t\t\t\n      CALLDATALOAD \t\t\t\n      PUSH [tag] 218\t\t\t\n      DUP5 \t\t\t\n      DUP3 \t\t\t\n      PUSH 20\t\t\t\n      DUP7 \t\t\t\n      ADD \t\t\t\n      PUSH [tag] 113\t\t\t\n      JUMP \t\t\t\n    tag 218\t\t\t\n      JUMPDEST \t\t\t\n      SWAP2 \t\t\t\n      POP \t\t\t\n      POP \t\t\t\n      SWAP3 \t\t\t\n      SWAP2 \t\t\t\n      POP \t\t\t\n      POP \t\t\t\n      JUMP \t\t\t\n    tag 115\t\t\t\n      JUMPDEST \t\t\t\n      PUSH 0\t\t\t\n      PUSH FFFFFFFFFFFFFFFF\t\t\t\n      DUP3 \t\t\t\n      GT \t\t\t\n      ISZERO \t\t\t\n      PUSH [tag] 220\t\t\t\n      JUMPI \t\t\t\n      PUSH [tag] 221\t\t\t\n      PUSH [tag] 108\t\t\t\n      JUMP \t\t\t\n    tag 221\t\t\t\n      JUMPDEST \t\t\t\n    tag 220\t\t\t\n      JUMPDEST \t\t\t\n      PUSH [tag] 222\t\t\t\n      DUP3 \t\t\t\n      PUSH [tag] 92\t\t\t\n      JUMP \t\t\t\n    tag 222\t\t\t\n      JUMPDEST \t\t\t\n      SWAP1 \t\t\t\n      POP \t\t\t\n      PUSH 20\t\t\t\n      DUP2 \t\t\t\n      ADD \t\t\t\n      SWAP1 \t\t\t\n      POP \t\t\t\n      SWAP2 \t\t\t\n      SWAP1 \t\t\t\n      POP \t\t\t\n      JUMP \t\t\t\n    tag 116\t\t\t\n      JUMPDEST \t\t\t\n      PUSH 0\t\t\t\n      PUSH [tag] 224\t\t\t\n      PUSH [tag] 225\t\t\t\n      DUP5 \t\t\t\n      PUSH [tag] 115\t\t\t\n      JUMP \t\t\t\n    tag 225\t\t\t\n      JUMPDEST \t\t\t\n      PUSH [tag] 110\t\t\t\n      JUMP \t\t\t\n    tag 224\t\t\t\n      JUMPDEST \t\t\t\n      SWAP1 \t\t\t\n      POP \t\t\t\n      DUP3 \t\t\t\n      DUP2 \t\t\t\n      MSTORE \t\t\t\n      PUSH 20\t\t\t\n      DUP2 \t\t\t\n      ADD \t\t\t\n      DUP5 \t\t\t\n      DUP5 \t\t\t\n      DUP5 \t\t\t\n      ADD \t\t\t\n      GT \t\t\t\n      ISZERO \t\t\t\n      PUSH [tag] 226\t\t\t\n      JUMPI \t\t\t\n      PUSH [tag] 227\t\t\t\n      PUSH [tag] 107\t\t\t\n      JUMP \t\t\t\n    tag 227\t\t\t\n      JUMPDEST \t\t\t\n    tag 226\t\t\t\n      JUMPDEST \t\t\t\n      PUSH [tag] 228\t\t\t\n      DUP5 \t\t\t\n      DUP3 \t\t\t\n      DUP6 \t\t\t\n      PUSH [tag] 112\t\t\t\n      JUMP \t\t\t\n    tag 228\t\t\t\n      JUMPDEST \t\t\t\n      POP \t\t\t\n      SWAP4 \t\t\t\n      SWAP3 \t\t\t\n      POP \t\t\t\n      POP \t\t\t\n      POP \t\t\t\n      JUMP \t\t\t\n    tag 117\t\t\t\n      JUMPDEST \t\t\t\n      PUSH 0\t\t\t\n      DUP3 \t\t\t\n      PUSH 1F\t\t\t\n      DUP4 \t\t\t\n      ADD \t\t\t\n      SLT \t\t\t\n      PUSH [tag] 230\t\t\t\n      JUMPI \t\t\t\n      PUSH [tag] 231\t\t\t\n      PUSH [tag] 106\t\t\t\n      JUMP \t\t\t\n    tag 231\t\t\t\n      JUMPDEST \t\t\t\n    tag 230\t\t\t\n      JUMPDEST \t\t\t\n      DUP2 \t\t\t\n      CALLDATALOAD \t\t\t\n      PUSH [tag] 232\t\t\t\n      DUP5 \t\t\t\n      DUP3 \t\t\t\n      PUSH 20\t\t\t\n      DUP7 \t\t\t\n      ADD \t\t\t\n      PUSH [tag] 116\t\t\t\n      JUMP \t\t\t\n    tag 232\t\t\t\n      JUMPDEST \t\t\t\n      SWAP2 \t\t\t\n      POP \t\t\t\n      POP \t\t\t\n      SWAP3 \t\t\t\n      SWAP2 \t\t\t\n      POP \t\t\t\n      POP \t\t\t\n      JUMP \t\t\t\n    tag 13\t\t\t\n      JUMPDEST \t\t\t\n      PUSH 0\t\t\t\n      PUSH 0\t\t\t\n      PUSH 40\t\t\t\n      DUP4 \t\t\t\n      DUP6 \t\t\t\n      SUB \t\t\t\n      SLT \t\t\t\n      ISZERO \t\t\t\n      PUSH [tag] 234\t\t\t\n      JUMPI \t\t\t\n      PUSH [tag] 235\t\t\t\n      PUSH [tag] 104\t\t\t\n      JUMP \t\t\t\n    tag 235\t\t\t\n      JUMPDEST \t\t\t\n    tag 234\t\t\t\n      JUMPDEST \t\t\t\n      PUSH 0\t\t\t\n      DUP4 \t\t\t\n      ADD \t\t\t\n      CALLDATALOAD \t\t\t\n      PUSH FFFFFFFFFFFFFFFF\t\t\t\n      DUP2 \t\t\t\n      GT \t\t\t\n      ISZERO \t\t\t\n      PUSH [tag] 236\t\t\t\n      JUMPI \t\t\t\n      PUSH [tag] 237\t\t\t\n      PUSH [tag] 105\t\t\t\n      JUMP \t\t\t\n    tag 237\t\t\t\n      JUMPDEST \t\t\t\n    tag 236\t\t\t\n      JUMPDEST \t\t\t\n      PUSH [tag] 238\t\t\t\n      DUP6 \t\t\t\n      DUP3 \t\t\t\n      DUP7 \t\t\t\n      ADD \t\t\t\n      PUSH [tag] 114\t\t\t\n      JUMP \t\t\t\n    tag 238\t\t\t\n      JUMPDEST \t\t\t\n      SWAP3 \t\t\t\n      POP \t\t\t\n      POP \t\t\t\n      PUSH 20\t\t\t\n      DUP4 \t\t\t\n      ADD \t\t\t\n      CALLDATALOAD \t\t\t\n      PUSH FFFFFFFFFFFFFFFF\t\t\t\n      DUP2 \t\t\t\n      GT \t\t\t\n      ISZERO \t\t\t\n      PUSH [tag] 239\t\t\t\n      JUMPI \t\t\t\n      PUSH [tag] 240\t\t\t\n      PUSH [tag] 105\t\t\t\n      JUMP \t\t\t\n    tag 240\t\t\t\n      JUMPDEST \t\t\t\n    tag 239\t\t\t\n      JUMPDEST \t\t\t\n      PUSH [tag] 241\t\t\t\n      DUP6 \t\t\t\n      DUP3 \t\t\t\n      DUP7 \t\t\t\n      ADD \t\t\t\n      PUSH [tag] 117\t\t\t\n      JUMP \t\t\t\n    tag 241\t\t\t\n      JUMPDEST \t\t\t\n      SWAP2 \t\t\t\n      POP \t\t\t\n      POP \t\t\t\n      SWAP3 \t\t\t\n      POP \t\t\t\n      SWAP3 \t\t\t\n      SWAP1 \t\t\t\n      POP \t\t\t\n      JUMP \t\t\t\n    tag 118\t\t\t\n      JUMPDEST \t\t\t\n      PUSH [tag] 243\t\t\t\n      DUP2 \t\t\t\n      PUSH [tag] 97\t\t\t\n      JUMP \t\t\t\n    tag 243\t\t\t\n      JUMPDEST \t\t\t\n      DUP2 \t\t\t\n      EQ \t\t\t\n      PUSH [tag] 244\t\t\t\n      JUMPI \t\t\t\n      PUSH 0\t\t\t\n      PUSH 0\t\t\t\n      REVERT \t\t\t\n    tag 244\t\t\t\n      JUMPDEST \t\t\t\n      POP \t\t\t\n      JUMP \t\t\t\n    tag 119\t\t\t\n      JUMPDEST \t\t\t\n      PUSH 0\t\t\t\n      DUP2 \t\t\t\n      CALLDATALOAD \t\t\t\n      SWAP1 \t\t\t\n      POP \t\t\t\n      PUSH [tag] 246\t\t\t\n      DUP2 \t\t\t\n      PUSH [tag] 118\t\t\t\n      JUMP \t\t\t\n    tag 246\t\t\t\n      JUMPDEST \t\t\t\n      SWAP3 \t\t\t\n      SWAP2 \t\t\t\n      POP \t\t\t\n      POP \t\t\t\n      JUMP \t\t\t\n    tag 17\t\t\t\n      JUMPDEST \t\t\t\n      PUSH 0\t\t\t\n      PUSH 20\t\t\t\n      DUP3 \t\t\t\n      DUP5 \t\t\t\n      SUB \t\t\t\n      SLT \t\t\t\n      ISZERO \t\t\t\n      PUSH [tag] 248\t\t\t\n      JUMPI \t\t\t\n      PUSH [tag] 249\t\t\t\n      PUSH [tag] 104\t\t\t\n      JUMP \t\t\t\n    tag 249\t\t\t\n      JUMPDEST \t\t\t\n    tag 248\t\t\t\n      JUMPDEST \t\t\t\n      PUSH 0\t\t\t\n      PUSH [tag] 250\t\t\t\n      DUP5 \t\t\t\n      DUP3 \t\t\t\n      DUP6 \t\t\t\n      ADD \t\t\t\n      PUSH [tag] 119\t\t\t\n      JUMP \t\t\t\n    tag 250\t\t\t\n      JUMPDEST \t\t\t\n      SWAP2 \t\t\t\n      POP \t\t\t\n      POP \t\t\t\n      SWAP3 \t\t\t\n      SWAP2 \t\t\t\n      POP \t\t\t\n      POP \t\t\t\n      JUMP \t\t\t\n    tag 120\t\t\t\n      JUMPDEST \t\t\t\n      PUSH 0\t\t\t\n      PUSH 60\t\t\t\n      DUP4 \t\t\t\n      ADD \t\t\t\n      PUSH 0\t\t\t\n      DUP4 \t\t\t\n      ADD \t\t\t\n      MLOAD \t\t\t\n      DUP5 \t\t\t\n      DUP3 \t\t\t\n      SUB \t\t\t\n      PUSH 0\t\t\t\n      DUP7 \t\t\t\n      ADD \t\t\t\n      MSTORE \t\t\t\n      PUSH [tag] 252\t\t\t\n      DUP3 \t\t\t\n      DUP3 \t\t\t\n      PUSH [tag] 93\t\t\t\n      JUMP \t\t\t\n    tag 252\t\t\t\n      JUMPDEST \t\t\t\n      SWAP2 \t\t\t\n      POP \t\t\t\n      POP \t\t\t\n      PUSH 20\t\t\t\n      DUP4 \t\t\t\n      ADD \t\t\t\n      MLOAD \t\t\t\n      DUP5 \t\t\t\n      DUP3 \t\t\t\n      SUB \t\t\t\n      PUSH 20\t\t\t\n      DUP7 \t\t\t\n      ADD \t\t\t\n      MSTORE \t\t\t\n      PUSH [tag] 253\t\t\t\n      DUP3 \t\t\t\n      DUP3 \t\t\t\n      PUSH [tag] 96\t\t\t\n      JUMP \t\t\t\n    tag 253\t\t\t\n      JUMPDEST \t\t\t\n      SWAP2 \t\t\t\n      POP \t\t\t\n      POP \t\t\t\n      PUSH 40\t\t\t\n      DUP4 \t\t\t\n      ADD \t\t\t\n      MLOAD \t\t\t\n      PUSH [tag] 254\t\t\t\n      PUSH 40\t\t\t\n      DUP7 \t\t\t\n      ADD \t\t\t\n      DUP3 \t\t\t\n      PUSH [tag] 98\t\t\t\n      JUMP \t\t\t\n    tag 254\t\t\t\n      JUMPDEST \t\t\t\n      POP \t\t\t\n      DUP1 \t\t\t\n      SWAP2 \t\t\t\n      POP \t\t\t\n      POP \t\t\t\n      SWAP3 \t\t\t\n      SWAP2 \t\t\t\n      POP \t\t\t\n      POP \t\t\t\n      JUMP \t\t\t\n    tag 20\t\t\t\n      JUMPDEST \t\t\t\n      PUSH 0\t\t\t\n      PUSH 20\t\t\t\n      DUP3 \t\t\t\n      ADD \t\t\t\n      SWAP1 \t\t\t\n      POP \t\t\t\n      DUP2 \t\t\t\n      DUP2 \t\t\t\n      SUB \t\t\t\n      PUSH 0\t\t\t\n      DUP4 \t\t\t\n      ADD \t\t\t\n      MSTORE \t\t\t\n      PUSH [tag] 256\t\t\t\n      DUP2 \t\t\t\n      DUP5 \t\t\t\n      PUSH [tag] 120\t\t\t\n      JUMP \t\t\t\n    tag 256\t\t\t\n      JUMPDEST \t\t\t\n      SWAP1 \t\t\t\n      POP \t\t\t\n      SWAP3 \t\t\t\n      SWAP2 \t\t\t\n      POP \t\t\t\n      POP \t\t\t\n      JUMP \t\t\t\n    tag 121\t\t\t\n      JUMPDEST \t\t\t\n      PUSH 0\t\t\t\n      DUP3 \t\t\t\n      DUP3 \t\t\t\n      MSTORE \t\t\t\n      PUSH 20\t\t\t\n      DUP3 \t\t\t\n      ADD \t\t\t\n      SWAP1 \t\t\t\n      POP \t\t\t\n      SWAP3 \t\t\t\n      SWAP2 \t\t\t\n      POP \t\t\t\n      POP \t\t\t\n      JUMP \t\t\t\n    tag 122\t\t\t\n      JUMPDEST \t\t\t\n      PUSH 0\t\t\t\n      PUSH [tag] 259\t\t\t\n      DUP3 \t\t\t\n      PUSH [tag] 89\t\t\t\n      JUMP \t\t\t\n    tag 259\t\t\t\n      JUMPDEST \t\t\t\n      PUSH [tag] 260\t\t\t\n      DUP2 \t\t\t\n      DUP6 \t\t\t\n      PUSH [tag] 121\t\t\t\n      JUMP \t\t\t\n    tag 260\t\t\t\n      JUMPDEST \t\t\t\n      SWAP4 \t\t\t\n      POP \t\t\t\n      PUSH [tag] 261\t\t\t\n      DUP2 \t\t\t\n      DUP6 \t\t\t\n      PUSH 20\t\t\t\n      DUP7 \t\t\t\n      ADD \t\t\t\n      PUSH [tag] 91\t\t\t\n      JUMP \t\t\t\n    tag 261\t\t\t\n      JUMPDEST \t\t\t\n      PUSH [tag] 262\t\t\t\n      DUP2 \t\t\t\n      PUSH [tag] 92\t\t\t\n      JUMP \t\t\t\n    tag 262\t\t\t\n      JUMPDEST \t\t\t\n      DUP5 \t\t\t\n      ADD \t\t\t\n      SWAP2 \t\t\t\n      POP \t\t\t\n      POP \t\t\t\n      SWAP3 \t\t\t\n      SWAP2 \t\t\t\n      POP \t\t\t\n      POP \t\t\t\n      JUMP \t\t\t\n    tag 123\t\t\t\n      JUMPDEST \t\t\t\n      PUSH 0\t\t\t\n      DUP3 \t\t\t\n      DUP3 \t\t\t\n      MSTORE \t\t\t\n      PUSH 20\t\t\t\n      DUP3 \t\t\t\n      ADD \t\t\t\n      SWAP1 \t\t\t\n      POP \t\t\t\n      SWAP3 \t\t\t\n      SWAP2 \t\t\t\n      POP \t\t\t\n      POP \t\t\t\n      JUMP \t\t\t\n    tag 124\t\t\t\n      JUMPDEST \t\t\t\n      PUSH 0\t\t\t\n      PUSH [tag] 265\t\t\t\n      DUP3 \t\t\t\n      PUSH [tag] 94\t\t\t\n      JUMP \t\t\t\n    tag 265\t\t\t\n      JUMPDEST \t\t\t\n      PUSH [tag] 266\t\t\t\n      DUP2 \t\t\t\n      DUP6 \t\t\t\n      PUSH [tag] 123\t\t\t\n      JUMP \t\t\t\n    tag 266\t\t\t\n      JUMPDEST \t\t\t\n      SWAP4 \t\t\t\n      POP \t\t\t\n      PUSH [tag] 267\t\t\t\n      DUP2 \t\t\t\n      DUP6 \t\t\t\n      PUSH 20\t\t\t\n      DUP7 \t\t\t\n      ADD \t\t\t\n      PUSH [tag] 91\t\t\t\n      JUMP \t\t\t\n    tag 267\t\t\t\n      JUMPDEST \t\t\t\n      PUSH [tag] 268\t\t\t\n      DUP2 \t\t\t\n      PUSH [tag] 92\t\t\t\n      JUMP \t\t\t\n    tag 268\t\t\t\n      JUMPDEST \t\t\t\n      DUP5 \t\t\t\n      ADD \t\t\t\n      SWAP2 \t\t\t\n      POP \t\t\t\n      POP \t\t\t\n      SWAP3 \t\t\t\n      SWAP2 \t\t\t\n      POP \t\t\t\n      POP \t\t\t\n      JUMP \t\t\t\n    tag 125\t\t\t\n      JUMPDEST \t\t\t\n      PUSH [tag] 270\t\t\t\n      DUP2 \t\t\t\n      PUSH [tag] 97\t\t\t\n      JUMP \t\t\t\n    tag 270\t\t\t\n      JUMPDEST \t\t\t\n      DUP3 \t\t\t\n      MSTORE \t\t\t\n      POP \t\t\t\n      POP \t\t\t\n      JUMP \t\t\t\n    tag 25\t\t\t\n      JUMPDEST \t\t\t\n      PUSH 0\t\t\t\n      PUSH 60\t\t\t\n      DUP3 \t\t\t\n      ADD \t\t\t\n      SWAP1 \t\t\t\n      POP \t\t\t\n      DUP2 \t\t\t\n      DUP2 \t\t\t\n      SUB \t\t\t\n      PUSH 0\t\t\t\n      DUP4 \t\t\t\n      ADD \t\t\t\n      MSTORE \t\t\t\n      PUSH [tag] 272\t\t\t\n      DUP2 \t\t\t\n      DUP7 \t\t\t\n      PUSH [tag] 122\t\t\t\n      JUMP \t\t\t\n    tag 272\t\t\t\n      JUMPDEST \t\t\t\n      SWAP1 \t\t\t\n      POP \t\t\t\n      DUP2 \t\t\t\n      DUP2 \t\t\t\n      SUB \t\t\t\n      PUSH 20\t\t\t\n      DUP4 \t\t\t\n      ADD \t\t\t\n      MSTORE \t\t\t\n      PUSH [tag] 273\t\t\t\n      DUP2 \t\t\t\n      DUP6 \t\t\t\n      PUSH [tag] 124\t\t\t\n      JUMP \t\t\t\n    tag 273\t\t\t\n      JUMPDEST \t\t\t\n      SWAP1 \t\t\t\n      POP \t\t\t\n      PUSH [tag] 274\t\t\t\n      PUSH 40\t\t\t\n      DUP4 \t\t\t\n      ADD \t\t\t\n      DUP5 \t\t\t\n      PUSH [tag] 125\t\t\t\n      JUMP \t\t\t\n    tag 274\t\t\t\n      JUMPDEST \t\t\t\n      SWAP5 \t\t\t\n      SWAP4 \t\t\t\n      POP \t\t\t\n      POP \t\t\t\n      POP \t\t\t\n      POP \t\t\t\n      JUMP \t\t\t\n    tag 126\t\t\t\n      JUMPDEST \t\t\t\n      PUSH 4E487B7100000000000000000000000000000000000000000000000000000000\t\t\t\n      PUSH 0\t\t\t\n      MSTORE \t\t\t\n      PUSH 22\t\t\t\n      PUSH 4\t\t\t\n      MSTORE \t\t\t\n      PUSH 24\t\t\t\n      PUSH 0\t\t\t\n      REVERT \t\t\t\n    tag 31\t\t\t\n      JUMPDEST \t\t\t\n      PUSH 0\t\t\t\n      PUSH 2\t\t\t\n      DUP3 \t\t\t\n      DIV \t\t\t\n      SWAP1 \t\t\t\n      POP \t\t\t\n      PUSH 1\t\t\t\n      DUP3 \t\t\t\n      AND \t\t\t\n      DUP1 \t\t\t\n      PUSH [tag] 277\t\t\t\n      JUMPI \t\t\t\n      PUSH 7F\t\t\t\n      DUP3 \t\t\t\n      AND \t\t\t\n      SWAP2 \t\t\t\n      POP \t\t\t\n    tag 277\t\t\t\n      JUMPDEST \t\t\t\n      PUSH 20\t\t\t\n      DUP3 \t\t\t\n      LT \t\t\t\n      DUP2 \t\t\t\n      SUB \t\t\t\n      PUSH [tag] 278\t\t\t\n      JUMPI \t\t\t\n      PUSH [tag] 279\t\t\t\n      PUSH [tag] 126\t\t\t\n      JUMP \t\t\t\n    tag 279\t\t\t\n      JUMPDEST \t\t\t\n    tag 278\t\t\t\n      JUMPDEST \t\t\t\n      POP \t\t\t\n      SWAP2 \t\t\t\n      SWAP1 \t\t\t\n      POP \t\t\t\n      JUMP \t\t\t\n    tag 127\t\t\t\n      JUMPDEST \t\t\t\n      PUSH 41737365742049442069732072657175697265642E0000000000000000000000\t\t\t\n      PUSH 0\t\t\t\n      DUP3 \t\t\t\n      ADD \t\t\t\n      MSTORE \t\t\t\n      POP \t\t\t\n      JUMP \t\t\t\n    tag 128\t\t\t\n      JUMPDEST \t\t\t\n      PUSH 0\t\t\t\n      PUSH [tag] 282\t\t\t\n      PUSH 15\t\t\t\n      DUP4 \t\t\t\n      PUSH [tag] 121\t\t\t\n      JUMP \t\t\t\n    tag 282\t\t\t\n      JUMPDEST \t\t\t\n      SWAP2 \t\t\t\n      POP \t\t\t\n      PUSH [tag] 283\t\t\t\n      DUP3 \t\t\t\n      PUSH [tag] 127\t\t\t\n      JUMP \t\t\t\n    tag 283\t\t\t\n      JUMPDEST \t\t\t\n      PUSH 20\t\t\t\n      DUP3 \t\t\t\n      ADD \t\t\t\n      SWAP1 \t\t\t\n      POP \t\t\t\n      SWAP2 \t\t\t\n      SWAP1 \t\t\t\n      POP \t\t\t\n      JUMP \t\t\t\n    tag 44\t\t\t\n      JUMPDEST \t\t\t\n      PUSH 0\t\t\t\n      PUSH 20\t\t\t\n      DUP3 \t\t\t\n      ADD \t\t\t\n      SWAP1 \t\t\t\n      POP \t\t\t\n      DUP2 \t\t\t\n      DUP2 \t\t\t\n      SUB \t\t\t\n      PUSH 0\t\t\t\n      DUP4 \t\t\t\n      ADD \t\t\t\n      MSTORE \t\t\t\n      PUSH [tag] 285\t\t\t\n      DUP2 \t\t\t\n      PUSH [tag] 128\t\t\t\n      JUMP \t\t\t\n    tag 285\t\t\t\n      JUMPDEST \t\t\t\n      SWAP1 \t\t\t\n      POP \t\t\t\n      SWAP2 \t\t\t\n      SWAP1 \t\t\t\n      POP \t\t\t\n      JUMP \t\t\t\n    tag 129\t\t\t\n      JUMPDEST \t\t\t\n      PUSH 41737365742068617368206D7573742062652033322062797465732E00000000\t\t\t\n      PUSH 0\t\t\t\n      DUP3 \t\t\t\n      ADD \t\t\t\n      MSTORE \t\t\t\n      POP \t\t\t\n      JUMP \t\t\t\n    tag 130\t\t\t\n      JUMPDEST \t\t\t\n      PUSH 0\t\t\t\n      PUSH [tag] 288\t\t\t\n      PUSH 1C\t\t\t\n      DUP4 \t\t\t\n      PUSH [tag] 121\t\t\t\n      JUMP \t\t\t\n    tag 288\t\t\t\n      JUMPDEST \t\t\t\n      SWAP2 \t\t\t\n      POP \t\t\t\n      PUSH [tag] 289\t\t\t\n      DUP3 \t\t\t\n      PUSH [tag] 129\t\t\t\n      JUMP \t\t\t\n    tag 289\t\t\t\n      JUMPDEST \t\t\t\n      PUSH 20\t\t\t\n      DUP3 \t\t\t\n      ADD \t\t\t\n      SWAP1 \t\t\t\n      POP \t\t\t\n      SWAP2 \t\t\t\n      SWAP1 \t\t\t\n      POP \t\t\t\n      JUMP \t\t\t\n    tag 47\t\t\t\n      JUMPDEST \t\t\t\n      PUSH 0\t\t\t\n      PUSH 20\t\t\t\n      DUP3 \t\t\t\n      ADD \t\t\t\n      SWAP1 \t\t\t\n      POP \t\t\t\n      DUP2 \t\t\t\n      DUP2 \t\t\t\n      SUB \t\t\t\n      PUSH 0\t\t\t\n      DUP4 \t\t\t\n      ADD \t\t\t\n      MSTORE \t\t\t\n      PUSH [tag] 291\t\t\t\n      DUP2 \t\t\t\n      PUSH [tag] 130\t\t\t\n      JUMP \t\t\t\n    tag 291\t\t\t\n      JUMPDEST \t\t\t\n      SWAP1 \t\t\t\n      POP \t\t\t\n      SWAP2 \t\t\t\n      SWAP1 \t\t\t\n      POP \t\t\t\n      JUMP \t\t\t\n    tag 131\t\t\t\n      JUMPDEST \t\t\t\n      PUSH 0\t\t\t\n      DUP2 \t\t\t\n      SWAP1 \t\t\t\n      POP \t\t\t\n      DUP2 \t\t\t\n      PUSH 0\t\t\t\n      MSTORE \t\t\t\n      PUSH 20\t\t\t\n      PUSH 0\t\t\t\n      KECCAK256 \t\t\t\n      SWAP1 \t\t\t\n      POP \t\t\t\n      SWAP2 \t\t\t\n      SWAP1 \t\t\t\n      POP \t\t\t\n      JUMP \t\t\t\n    tag 132\t\t\t\n      JUMPDEST \t\t\t\n      PUSH 0\t\t\t\n      PUSH 20\t\t\t\n      PUSH 1F\t\t\t\n      DUP4 \t\t\t\n      ADD \t\t\t\n      DIV \t\t\t\n      SWAP1 \t\t\t\n      POP \t\t\t\n      SWAP2 \t\t\t\n      SWAP1 \t\t\t\n      POP \t\t\t\n      JUMP \t\t\t\n    tag 133\t\t\t\n      JUMPDEST \t\t\t\n      PUSH 0\t\t\t\n      DUP3 \t\t\t\n      DUP3 \t\t\t\n      SHL \t\t\t\n      SWAP1 \t\t\t\n      POP \t\t\t\n      SWAP3 \t\t\t\n      SWAP2 \t\t\t\n      POP \t\t\t\n      POP \t\t\t\n      JUMP \t\t\t\n    tag 134\t\t\t\n      JUMPDEST \t\t\t\n      PUSH 0\t\t\t\n      PUSH 8\t\t\t\n      DUP4 \t\t\t\n      MUL \t\t\t\n      PUSH [tag] 296\t\t\t\n      PUSH FFFFFFFFFFFFFFFFFFFFFFFFFFFFFFFFFFFFFFFFFFFFFFFFFFFFFFFFFFFFFFFF\t\t\t\n      DUP3 \t\t\t\n      PUSH [tag] 133\t\t\t\n      JUMP \t\t\t\n    tag 296\t\t\t\n      JUMPDEST \t\t\t\n      PUSH [tag] 297\t\t\t\n      DUP7 \t\t\t\n      DUP4 \t\t\t\n      PUSH [tag] 133\t\t\t\n      JUMP \t\t\t\n    tag 297\t\t\t\n      JUMPDEST \t\t\t\n      SWAP6 \t\t\t\n      POP \t\t\t\n      DUP1 \t\t\t\n      NOT \t\t\t\n      DUP5 \t\t\t\n      AND \t\t\t\n      SWAP4 \t\t\t\n      POP \t\t\t\n      DUP1 \t\t\t\n      DUP7 \t\t\t\n      AND \t\t\t\n      DUP5 \t\t\t\n      OR \t\t\t\n      SWAP3 \t\t\t\n      POP \t\t\t\n      POP \t\t\t\n      POP \t\t\t\n      SWAP4 \t\t\t\n      SWAP3 \t\t\t\n      POP \t\t\t\n      POP \t\t\t\n      POP \t\t\t\n      JUMP \t\t\t\n    tag 135\t\t\t\n      JUMPDEST \t\t\t\n      PUSH 0\t\t\t\n      DUP2 \t\t\t\n      SWAP1 \t\t\t\n      POP \t\t\t\n      SWAP2 \t\t\t\n      SWAP1 \t\t\t\n      POP \t\t\t\n      JUMP \t\t\t\n    tag 136\t\t\t\n      JUMPDEST \t\t\t\n      PUSH 0\t\t\t\n      PUSH [tag] 300\t\t\t\n      PUSH [tag] 301\t\t\t\n      PUSH [tag] 302\t\t\t\n      DUP5 \t\t\t\n      PUSH [tag] 97\t\t\t\n      JUMP \t\t\t\n    tag 302\t\t\t\n      JUMPDEST \t\t\t\n      PUSH [tag] 135\t\t\t\n      JUMP \t\t\t\n    tag 301\t\t\t\n      JUMPDEST \t\t\t\n      PUSH [tag] 97\t\t\t\n      JUMP \t\t\t\n    tag 300\t\t\t\n      JUMPDEST \t\t\t\n      SWAP1 \t\t\t\n      POP \t\t\t\n      SWAP2 \t\t\t\n      SWAP1 \t\t\t\n      POP \t\t\t\n      JUMP \t\t\t\n    tag 137\t\t\t\n      JUMPDEST \t\t\t\n      PUSH 0\t\t\t\n      DUP2 \t\t\t\n      SWAP1 \t\t\t\n      POP \t\t\t\n      SWAP2 \t\t\t\n      SWAP1 \t\t\t\n      POP \t\t\t\n      JUMP \t\t\t\n    tag 138\t\t\t\n      JUMPDEST \t\t\t\n      PUSH [tag] 305\t\t\t\n      DUP4 \t\t\t\n      PUSH [tag] 136\t\t\t\n      JUMP \t\t\t\n    tag 305\t\t\t\n      JUMPDEST \t\t\t\n      PUSH [tag] 306\t\t\t\n      PUSH [tag] 307\t\t\t\n      DUP3 \t\t\t\n      PUSH [tag] 137\t\t\t\n      JUMP \t\t\t\n    tag 307\t\t\t\n      JUMPDEST \t\t\t\n      DUP5 \t\t\t\n      DUP5 \t\t\t\n      SLOAD \t\t\t\n      PUSH [tag] 134\t\t\t\n      JUMP \t\t\t\n    tag 306\t\t\t\n      JUMPDEST \t\t\t\n      DUP3 \t\t\t\n      SSTORE \t\t\t\n      POP \t\t\t\n      POP \t\t\t\n      POP \t\t\t\n      POP \t\t\t\n      JUMP \t\t\t\n    tag 139\t\t\t\n      JUMPDEST \t\t\t\n      PUSH 0\t\t\t\n      PUSH 0\t\t\t\n      SWAP1 \t\t\t\n      POP \t\t\t\n      SWAP1 \t\t\t\n      JUMP \t\t\t\n    tag 140\t\t\t\n      JUMPDEST \t\t\t\n      PUSH [tag] 310\t\t\t\n      PUSH [tag] 139\t\t\t\n      JUMP \t\t\t\n    tag 310\t\t\t\n      JUMPDEST \t\t\t\n      PUSH [tag] 311\t\t\t\n      DUP2 \t\t\t\n      DUP5 \t\t\t\n      DUP5 \t\t\t\n      PUSH [tag] 138\t\t\t\n      JUMP \t\t\t\n    tag 311\t\t\t\n      JUMPDEST \t\t\t\n      POP \t\t\t\n      POP \t\t\t\n      POP \t\t\t\n      JUMP \t\t\t\n    tag 141\t\t\t\n      JUMPDEST \t\t\t\n    tag 313\t\t\t\n      JUMPDEST \t\t\t\n      DUP2 \t\t\t\n      DUP2 \t\t\t\n      LT \t\t\t\n      ISZERO \t\t\t\n      PUSH [tag] 315\t\t\t\n      JUMPI \t\t\t\n      PUSH [tag] 316\t\t\t\n      PUSH 0\t\t\t\n      DUP3 \t\t\t\n      PUSH [tag] 140\t\t\t\n      JUMP \t\t\t\n    tag 316\t\t\t\n      JUMPDEST \t\t\t\n      PUSH 1\t\t\t\n      DUP2 \t\t\t\n      ADD \t\t\t\n      SWAP1 \t\t\t\n      POP \t\t\t\n      PUSH [tag] 313\t\t\t\n      JUMP \t\t\t\n    tag 315\t\t\t\n      JUMPDEST \t\t\t\n      POP \t\t\t\n      POP \t\t\t\n      JUMP \t\t\t\n    tag 142\t\t\t\n      JUMPDEST \t\t\t\n      PUSH 1F\t\t\t\n      DUP3 \t\t\t\n      GT \t\t\t\n      ISZERO \t\t\t\n      PUSH [tag] 318\t\t\t\n      JUMPI \t\t\t\n      PUSH [tag] 319\t\t\t\n      DUP2 \t\t\t\n      PUSH [tag] 131\t\t\t\n      JUMP \t\t\t\n    tag 319\t\t\t\n      JUMPDEST \t\t\t\n      PUSH [tag] 320\t\t\t\n      DUP5 \t\t\t\n      PUSH [tag] 132\t\t\t\n      JUMP \t\t\t\n    tag 320\t\t\t\n      JUMPDEST \t\t\t\n      DUP2 \t\t\t\n      ADD \t\t\t\n      PUSH 20\t\t\t\n      DUP6 \t\t\t\n      LT \t\t\t\n      ISZERO \t\t\t\n      PUSH [tag] 321\t\t\t\n      JUMPI \t\t\t\n      DUP2 \t\t\t\n      SWAP1 \t\t\t\n      POP \t\t\t\n    tag 321\t\t\t\n      JUMPDEST \t\t\t\n      PUSH [tag] 322\t\t\t\n      PUSH [tag] 323\t\t\t\n      DUP6 \t\t\t\n      PUSH [tag] 132\t\t\t\n      JUMP \t\t\t\n    tag 323\t\t\t\n      JUMPDEST \t\t\t\n      DUP4 \t\t\t\n      ADD \t\t\t\n      DUP3 \t\t\t\n      PUSH [tag] 141\t\t\t\n      JUMP \t\t\t\n    tag 322\t\t\t\n      JUMPDEST \t\t\t\n      POP \t\t\t\n      POP \t\t\t\n    tag 318\t\t\t\n      JUMPDEST \t\t\t\n      POP \t\t\t\n      POP \t\t\t\n      POP \t\t\t\n      JUMP \t\t\t\n    tag 143\t\t\t\n      JUMPDEST \t\t\t\n      PUSH 0\t\t\t\n      DUP3 \t\t\t\n      DUP3 \t\t\t\n      SHR \t\t\t\n      SWAP1 \t\t\t\n      POP \t\t\t\n      SWAP3 \t\t\t\n      SWAP2 \t\t\t\n      POP \t\t\t\n      POP \t\t\t\n      JUMP \t\t\t\n    tag 144\t\t\t\n      JUMPDEST \t\t\t\n      PUSH 0\t\t\t\n      PUSH [tag] 326\t\t\t\n      PUSH 0\t\t\t\n      NOT \t\t\t\n      DUP5 \t\t\t\n      PUSH 8\t\t\t\n      MUL \t\t\t\n      PUSH [tag] 143\t\t\t\n      JUMP \t\t\t\n    tag 326\t\t\t\n      JUMPDEST \t\t\t\n      NOT \t\t\t\n      DUP1 \t\t\t\n      DUP4 \t\t\t\n      AND \t\t\t\n      SWAP2 \t\t\t\n      POP \t\t\t\n      POP \t\t\t\n      SWAP3 \t\t\t\n      SWAP2 \t\t\t\n      POP \t\t\t\n      POP \t\t\t\n      JUMP \t\t\t\n    tag 145\t\t\t\n      JUMPDEST \t\t\t\n      PUSH 0\t\t\t\n      PUSH [tag] 328\t\t\t\n      DUP4 \t\t\t\n      DUP4 \t\t\t\n      PUSH [tag] 144\t\t\t\n      JUMP \t\t\t\n    tag 328\t\t\t\n      JUMPDEST \t\t\t\n      SWAP2 \t\t\t\n      POP \t\t\t\n      DUP3 \t\t\t\n      PUSH 2\t\t\t\n      MUL \t\t\t\n      DUP3 \t\t\t\n      OR \t\t\t\n      SWAP1 \t\t\t\n      POP \t\t\t\n      SWAP3 \t\t\t\n      SWAP2 \t\t\t\n      POP \t\t\t\n      POP \t\t\t\n      JUMP \t\t\t\n    tag 50\t\t\t\n      JUMPDEST \t\t\t\n      PUSH [tag] 330\t\t\t\n      DUP3 \t\t\t\n      PUSH [tag] 89\t\t\t\n      JUMP \t\t\t\n    tag 330\t\t\t\n      JUMPDEST \t\t\t\n      PUSH FFFFFFFFFFFFFFFF\t\t\t\n      DUP2 \t\t\t\n      GT \t\t\t\n      ISZERO \t\t\t\n      PUSH [tag] 331\t\t\t\n      JUMPI \t\t\t\n      PUSH [tag] 332\t\t\t\n      PUSH [tag] 108\t\t\t\n      JUMP \t\t\t\n    tag 332\t\t\t\n      JUMPDEST \t\t\t\n    tag 331\t\t\t\n      JUMPDEST \t\t\t\n      PUSH [tag] 333\t\t\t\n      DUP3 \t\t\t\n      SLOAD \t\t\t\n      PUSH [tag] 31\t\t\t\n      JUMP \t\t\t\n    tag 333\t\t\t\n      JUMPDEST \t\t\t\n      PUSH [tag] 334\t\t\t\n      DUP3 \t\t\t\n      DUP3 \t\t\t\n      DUP6 \t\t\t\n      PUSH [tag] 142\t\t\t\n      JUMP \t\t\t\n    tag 334\t\t\t\n      JUMPDEST \t\t\t\n      PUSH 0\t\t\t\n      PUSH 20\t\t\t\n      SWAP1 \t\t\t\n      POP \t\t\t\n      PUSH 1F\t\t\t\n      DUP4 \t\t\t\n      GT \t\t\t\n      PUSH 1\t\t\t\n      DUP2 \t\t\t\n      EQ \t\t\t\n      PUSH [tag] 336\t\t\t\n      JUMPI \t\t\t\n      PUSH 0\t\t\t\n      DUP5 \t\t\t\n      ISZERO \t\t\t\n      PUSH [tag] 337\t\t\t\n      JUMPI \t\t\t\n      DUP3 \t\t\t\n      DUP8 \t\t\t\n      ADD \t\t\t\n      MLOAD \t\t\t\n      SWAP1 \t\t\t\n      POP \t\t\t\n    tag 337\t\t\t\n      JUMPDEST \t\t\t\n      PUSH [tag] 338\t\t\t\n      DUP6 \t\t\t\n      DUP3 \t\t\t\n      PUSH [tag] 145\t\t\t\n      JUMP \t\t\t\n    tag 338\t\t\t\n      JUMPDEST \t\t\t\n      DUP7 \t\t\t\n      SSTORE \t\t\t\n      POP \t\t\t\n      PUSH [tag] 335\t\t\t\n      JUMP \t\t\t\n    tag 336\t\t\t\n      JUMPDEST \t\t\t\n      PUSH 1F\t\t\t\n      NOT \t\t\t\n      DUP5 \t\t\t\n      AND \t\t\t\n      PUSH [tag] 339\t\t\t\n      DUP7 \t\t\t\n      PUSH [tag] 131\t\t\t\n      JUMP \t\t\t\n    tag 339\t\t\t\n      JUMPDEST \t\t\t\n      PUSH 0\t\t\t\n    tag 340\t\t\t\n      JUMPDEST \t\t\t\n      DUP3 \t\t\t\n      DUP2 \t\t\t\n      LT \t\t\t\n      ISZERO \t\t\t\n      PUSH [tag] 342\t\t\t\n      JUMPI \t\t\t\n      DUP5 \t\t\t\n      DUP10 \t\t\t\n      ADD \t\t\t\n      MLOAD \t\t\t\n      DUP3 \t\t\t\n      SSTORE \t\t\t\n      PUSH 1\t\t\t\n      DUP3 \t\t\t\n      ADD \t\t\t\n      SWAP2 \t\t\t\n      POP \t\t\t\n      PUSH 20\t\t\t\n      DUP6 \t\t\t\n      ADD \t\t\t\n      SWAP5 \t\t\t\n      POP \t\t\t\n      PUSH 20\t\t\t\n      DUP2 \t\t\t\n      ADD \t\t\t\n      SWAP1 \t\t\t\n      POP \t\t\t\n      PUSH [tag] 340\t\t\t\n      JUMP \t\t\t\n    tag 342\t\t\t\n      JUMPDEST \t\t\t\n      DUP7 \t\t\t\n      DUP4 \t\t\t\n      LT \t\t\t\n      ISZERO \t\t\t\n      PUSH [tag] 343\t\t\t\n      JUMPI \t\t\t\n      DUP5 \t\t\t\n      DUP10 \t\t\t\n      ADD \t\t\t\n      MLOAD \t\t\t\n      PUSH [tag] 344\t\t\t\n      PUSH 1F\t\t\t\n      DUP10 \t\t\t\n      AND \t\t\t\n      DUP3 \t\t\t\n      PUSH [tag] 144\t\t\t\n      JUMP \t\t\t\n    tag 344\t\t\t\n      JUMPDEST \t\t\t\n      DUP4 \t\t\t\n      SSTORE \t\t\t\n      POP \t\t\t\n    tag 343\t\t\t\n      JUMPDEST \t\t\t\n      PUSH 1\t\t\t\n      PUSH 2\t\t\t\n      DUP9 \t\t\t\n      MUL \t\t\t\n      ADD \t\t\t\n      DUP9 \t\t\t\n      SSTORE \t\t\t\n      POP \t\t\t\n      POP \t\t\t\n      POP \t\t\t\n    tag 335\t\t\t\n      JUMPDEST \t\t\t\n      POP \t\t\t\n      POP \t\t\t\n      POP \t\t\t\n      POP \t\t\t\n      POP \t\t\t\n      POP \t\t\t\n      JUMP \t\t\t\n    tag 146\t\t\t\n      JUMPDEST \t\t\t\n      PUSH 0\t\t\t\n      DUP2 \t\t\t\n      SWAP1 \t\t\t\n      POP \t\t\t\n      DUP2 \t\t\t\n      PUSH 0\t\t\t\n      MSTORE \t\t\t\n      PUSH 20\t\t\t\n      PUSH 0\t\t\t\n      KECCAK256 \t\t\t\n      SWAP1 \t\t\t\n      POP \t\t\t\n      SWAP2 \t\t\t\n      SWAP1 \t\t\t\n      POP \t\t\t\n      JUMP \t\t\t\n    tag 147\t\t\t\n      JUMPDEST \t\t\t\n      PUSH 1F\t\t\t\n      DUP3 \t\t\t\n      GT \t\t\t\n      ISZERO \t\t\t\n      PUSH [tag] 347\t\t\t\n      JUMPI \t\t\t\n      PUSH [tag] 348\t\t\t\n      DUP2 \t\t\t\n      PUSH [tag] 146\t\t\t\n      JUMP \t\t\t\n    tag 348\t\t\t\n      JUMPDEST \t\t\t\n      PUSH [tag] 349\t\t\t\n      DUP5 \t\t\t\n      PUSH [tag] 132\t\t\t\n      JUMP \t\t\t\n    tag 349\t\t\t\n      JUMPDEST \t\t\t\n      DUP2 \t\t\t\n      ADD \t\t\t\n      PUSH 20\t\t\t\n      DUP6 \t\t\t\n      LT \t\t\t\n      ISZERO \t\t\t\n      PUSH [tag] 350\t\t\t\n      JUMPI \t\t\t\n      DUP2 \t\t\t\n      SWAP1 \t\t\t\n      POP \t\t\t\n    tag 350\t\t\t\n      JUMPDEST \t\t\t\n      PUSH [tag] 351\t\t\t\n      PUSH [tag] 352\t\t\t\n      DUP6 \t\t\t\n      PUSH [tag] 132\t\t\t\n      JUMP \t\t\t\n    tag 352\t\t\t\n      JUMPDEST \t\t\t\n      DUP4 \t\t\t\n      ADD \t\t\t\n      DUP3 \t\t\t\n      PUSH [tag] 141\t\t\t\n      JUMP \t\t\t\n    tag 351\t\t\t\n      JUMPDEST \t\t\t\n      POP \t\t\t\n      POP \t\t\t\n    tag 347\t\t\t\n      JUMPDEST \t\t\t\n      POP \t\t\t\n      POP \t\t\t\n      POP \t\t\t\n      JUMP \t\t\t\n    tag 52\t\t\t\n      JUMPDEST \t\t\t\n      PUSH [tag] 354\t\t\t\n      DUP3 \t\t\t\n      PUSH [tag] 94\t\t\t\n      JUMP \t\t\t\n    tag 354\t\t\t\n      JUMPDEST \t\t\t\n      PUSH FFFFFFFFFFFFFFFF\t\t\t\n      DUP2 \t\t\t\n      GT \t\t\t\n      ISZERO \t\t\t\n      PUSH [tag] 355\t\t\t\n      JUMPI \t\t\t\n      PUSH [tag] 356\t\t\t\n      PUSH [tag] 108\t\t\t\n      JUMP \t\t\t\n    tag 356\t\t\t\n      JUMPDEST \t\t\t\n    tag 355\t\t\t\n      JUMPDEST \t\t\t\n      PUSH [tag] 357\t\t\t\n      DUP3 \t\t\t\n      SLOAD \t\t\t\n      PUSH [tag] 31\t\t\t\n      JUMP \t\t\t\n    tag 357\t\t\t\n      JUMPDEST \t\t\t\n      PUSH [tag] 358\t\t\t\n      DUP3 \t\t\t\n      DUP3 \t\t\t\n      DUP6 \t\t\t\n      PUSH [tag] 147\t\t\t\n      JUMP \t\t\t\n    tag 358\t\t\t\n      JUMPDEST \t\t\t\n      PUSH 0\t\t\t\n      PUSH 20\t\t\t\n      SWAP1 \t\t\t\n      POP \t\t\t\n      PUSH 1F\t\t\t\n      DUP4 \t\t\t\n      GT \t\t\t\n      PUSH 1\t\t\t\n      DUP2 \t\t\t\n      EQ \t\t\t\n      PUSH [tag] 360\t\t\t\n      JUMPI \t\t\t\n      PUSH 0\t\t\t\n      DUP5 \t\t\t\n      ISZERO \t\t\t\n      PUSH [tag] 361\t\t\t\n      JUMPI \t\t\t\n      DUP3 \t\t\t\n      DUP8 \t\t\t\n      ADD \t\t\t\n      MLOAD \t\t\t\n      SWAP1 \t\t\t\n      POP \t\t\t\n    tag 361\t\t\t\n      JUMPDEST \t\t\t\n      PUSH [tag] 362\t\t\t\n      DUP6 \t\t\t\n      DUP3 \t\t\t\n      PUSH [tag] 145\t\t\t\n      JUMP \t\t\t\n    tag 362\t\t\t\n      JUMPDEST \t\t\t\n      DUP7 \t\t\t\n      SSTORE \t\t\t\n      POP \t\t\t\n      PUSH [tag] 359\t\t\t\n      JUMP \t\t\t\n    tag 360\t\t\t\n      JUMPDEST \t\t\t\n      PUSH 1F\t\t\t\n      NOT \t\t\t\n      DUP5 \t\t\t\n      AND \t\t\t\n      PUSH [tag] 363\t\t\t\n      DUP7 \t\t\t\n      PUSH [tag] 146\t\t\t\n      JUMP \t\t\t\n    tag 363\t\t\t\n      JUMPDEST \t\t\t\n      PUSH 0\t\t\t\n    tag 364\t\t\t\n      JUMPDEST \t\t\t\n      DUP3 \t\t\t\n      DUP2 \t\t\t\n      LT \t\t\t\n      ISZERO \t\t\t\n      PUSH [tag] 366\t\t\t\n      JUMPI \t\t\t\n      DUP5 \t\t\t\n      DUP10 \t\t\t\n      ADD \t\t\t\n      MLOAD \t\t\t\n      DUP3 \t\t\t\n      SSTORE \t\t\t\n      PUSH 1\t\t\t\n      DUP3 \t\t\t\n      ADD \t\t\t\n      SWAP2 \t\t\t\n      POP \t\t\t\n      PUSH 20\t\t\t\n      DUP6 \t\t\t\n      ADD \t\t\t\n      SWAP5 \t\t\t\n      POP \t\t\t\n      PUSH 20\t\t\t\n      DUP2 \t\t\t\n      ADD \t\t\t\n      SWAP1 \t\t\t\n      POP \t\t\t\n      PUSH [tag] 364\t\t\t\n      JUMP \t\t\t\n    tag 366\t\t\t\n      JUMPDEST \t\t\t\n      DUP7 \t\t\t\n      DUP4 \t\t\t\n      LT \t\t\t\n      ISZERO \t\t\t\n      PUSH [tag] 367\t\t\t\n      JUMPI \t\t\t\n      DUP5 \t\t\t\n      DUP10 \t\t\t\n      ADD \t\t\t\n      MLOAD \t\t\t\n      PUSH [tag] 368\t\t\t\n      PUSH 1F\t\t\t\n      DUP10 \t\t\t\n      AND \t\t\t\n      DUP3 \t\t\t\n      PUSH [tag] 144\t\t\t\n      JUMP \t\t\t\n    tag 368\t\t\t\n      JUMPDEST \t\t\t\n      DUP4 \t\t\t\n      SSTORE \t\t\t\n      POP \t\t\t\n    tag 367\t\t\t\n      JUMPDEST \t\t\t\n      PUSH 1\t\t\t\n      PUSH 2\t\t\t\n      DUP9 \t\t\t\n      MUL \t\t\t\n      ADD \t\t\t\n      DUP9 \t\t\t\n      SSTORE \t\t\t\n      POP \t\t\t\n      POP \t\t\t\n      POP \t\t\t\n    tag 359\t\t\t\n      JUMPDEST \t\t\t\n      POP \t\t\t\n      POP \t\t\t\n      POP \t\t\t\n      POP \t\t\t\n      POP \t\t\t\n      POP \t\t\t\n      JUMP \t\t\t\n    tag 148\t\t\t\n      JUMPDEST \t\t\t\n      PUSH 417373657420646F6573206E6F742065786973742E0000000000000000000000\t\t\t\n      PUSH 0\t\t\t\n      DUP3 \t\t\t\n      ADD \t\t\t\n      MSTORE \t\t\t\n      POP \t\t\t\n      JUMP \t\t\t\n    tag 149\t\t\t\n      JUMPDEST \t\t\t\n      PUSH 0\t\t\t\n      PUSH [tag] 371\t\t\t\n      PUSH 15\t\t\t\n      DUP4 \t\t\t\n      PUSH [tag] 121\t\t\t\n      JUMP \t\t\t\n    tag 371\t\t\t\n      JUMPDEST \t\t\t\n      SWAP2 \t\t\t\n      POP \t\t\t\n      PUSH [tag] 372\t\t\t\n      DUP3 \t\t\t\n      PUSH [tag] 148\t\t\t\n      JUMP \t\t\t\n    tag 372\t\t\t\n      JUMPDEST \t\t\t\n      PUSH 20\t\t\t\n      DUP3 \t\t\t\n      ADD \t\t\t\n      SWAP1 \t\t\t\n      POP \t\t\t\n      SWAP2 \t\t\t\n      SWAP1 \t\t\t\n      POP \t\t\t\n      JUMP \t\t\t\n    tag 59\t\t\t\n      JUMPDEST \t\t\t\n      PUSH 0\t\t\t\n      PUSH 20\t\t\t\n      DUP3 \t\t\t\n      ADD \t\t\t\n      SWAP1 \t\t\t\n      POP \t\t\t\n      DUP2 \t\t\t\n      DUP2 \t\t\t\n      SUB \t\t\t\n      PUSH 0\t\t\t\n      DUP4 \t\t\t\n      ADD \t\t\t\n      MSTORE \t\t\t\n      PUSH [tag] 374\t\t\t\n      DUP2 \t\t\t\n      PUSH [tag] 149\t\t\t\n      JUMP \t\t\t\n    tag 374\t\t\t\n      JUMPDEST \t\t\t\n      SWAP1 \t\t\t\n      POP \t\t\t\n      SWAP2 \t\t\t\n      SWAP1 \t\t\t\n      POP \t\t\t\n      JUMP \t\t\t\n    tag 62\t\t\t\n      JUMPDEST \t\t\t\n      PUSH 4E487B7100000000000000000000000000000000000000000000000000000000\t\t\t\n      PUSH 0\t\t\t\n      MSTORE \t\t\t\n      PUSH 32\t\t\t\n      PUSH 4\t\t\t\n      MSTORE \t\t\t\n      PUSH 24\t\t\t\n      PUSH 0\t\t\t\n      REVERT \t\t\t\n    .data\n"
}