{
	"compilerInput": "{\"language\":\"Solidity\",\"sources\":{\"Hello.sol\":{\"content\":\"// SPDX-License-Identifier: MIT\\r\\npragma solidity ^0.8.0;\\r\\n\\r\\ncontract HederaProjectContract {\\r\\n    // Define the updated Project structure\\r\\n    struct Project {\\r\\n        string prj_id;        // Project ID\\r\\n        bytes prj_hash;       // Project hash (dynamic-length bytes)\\r\\n        uint256 submission_time; // Timestamp of submission\\r\\n    }\\r\\n\\r\\n    Project[] public projects;\\r\\n\\r\\n    // Event to track submissions of new project hashes\\r\\n    event ProjectHashSubmitted(\\r\\n        uint256 indexed projectIndex,\\r\\n        string prj_id,\\r\\n        bytes prj_hash,\\r\\n        uint256 submission_time // Include the timestamp in the event\\r\\n    );\\r\\n\\r\\n    // Add a new project hash to the contract\\r\\n    function submitProjectHash(\\r\\n        string memory prj_id,\\r\\n        bytes memory prj_hash\\r\\n    ) public {\\r\\n        require(bytes(prj_id).length > 0, \\\"Project ID is required.\\\");\\r\\n        require(prj_hash.length == 32, \\\"Project hash must be 32 bytes.\\\");\\r\\n\\r\\n        uint256 projectIndex = projects.length;\\r\\n\\r\\n        projects.push(\\r\\n            Project({\\r\\n                prj_id: prj_id,\\r\\n                prj_hash: prj_hash,\\r\\n                submission_time: block.timestamp // Store the current timestamp\\r\\n            })\\r\\n        );\\r\\n\\r\\n        emit ProjectHashSubmitted(\\r\\n            projectIndex,\\r\\n            prj_id,\\r\\n            prj_hash,\\r\\n            block.timestamp // Include the timestamp in the event\\r\\n        );\\r\\n    }\\r\\n\\r\\n    // Fetch all stored project hashes\\r\\n    function getProjects() public view returns (Project[] memory) {\\r\\n        return projects;\\r\\n    }\\r\\n\\r\\n    // Fetch a specific project by index\\r\\n    function getProjectById(uint256 projectIndex) public view returns (Project memory) {\\r\\n        require(projectIndex < projects.length, \\\"Project does not exist.\\\");\\r\\n        return projects[projectIndex];\\r\\n    }\\r\\n}\\r\\n\"}},\"settings\":{\"optimizer\":{\"enabled\":false,\"runs\":200},\"outputSelection\":{\"*\":{\"\":[\"ast\"],\"*\":[\"abi\",\"metadata\",\"devdoc\",\"userdoc\",\"storageLayout\",\"evm.legacyAssembly\",\"evm.bytecode\",\"evm.deployedBytecode\",\"evm.methodIdentifiers\",\"evm.gasEstimates\",\"evm.assembly\"]}},\"remappings\":[]}}",
	"name": "HederaProjectContract",
	"bytecode": {
		"linkReferences": {},
		"object": "6080604052348015600e575f5ffd5b506112518061001c5f395ff3fe608060405234801561000f575f5ffd5b506004361061004a575f3560e01c8063107046bd1461004e5780638ae6cbe814610080578063bee5cdca1461009c578063dcc60128146100cc575b5f5ffd5b61006860048036038101906100639190610702565b6100ea565b604051610077939291906107fe565b60405180910390f35b61009a60048036038101906100959190610a0b565b61022a565b005b6100b660048036038101906100b19190610702565b610372565b6040516100c39190610b74565b60405180910390f35b6100d461051a565b6040516100e19190610ca3565b60405180910390f35b5f81815481106100f8575f80fd5b905f5260205f2090600302015f91509050805f01805461011790610cf0565b80601f016020809104026020016040519081016040528092919081815260200182805461014390610cf0565b801561018e5780601f106101655761010080835404028352916020019161018e565b820191905f5260205f20905b81548152906001019060200180831161017157829003601f168201915b5050505050908060010180546101a390610cf0565b80601f01602080910402602001604051908101604052809291908181526020018280546101cf90610cf0565b801561021a5780601f106101f15761010080835404028352916020019161021a565b820191905f5260205f20905b8154815290600101906020018083116101fd57829003601f168201915b5050505050908060020154905083565b5f82511161026d576040517f08c379a000000000000000000000000000000000000000000000000000000000815260040161026490610d6a565b60405180910390fd5b60208151146102b1576040517f08c379a00000000000000000000000000000000000000000000000000000000081526004016102a890610dd2565b60405180910390fd5b5f5f8054905090505f604051806060016040528085815260200184815260200142815250908060018154018082558091505060019003905f5260205f2090600302015f909190919091505f820151815f01908161030e9190610f90565b50602082015181600101908161032491906110b7565b50604082015181600201555050807fa8094aa947a1de718368f91354a0fde9fb961a0bcd7f9024ed54abd38ac5108c848442604051610365939291906107fe565b60405180910390a2505050565b61037a61069e565b5f8054905082106103c0576040517f08c379a00000000000000000000000000000000000000000000000000000000081526004016103b7906111d0565b60405180910390fd5b5f82815481106103d3576103d26111ee565b5b905f5260205f2090600302016040518060600160405290815f820180546103f990610cf0565b80601f016020809104026020016040519081016040528092919081815260200182805461042590610cf0565b80156104705780601f1061044757610100808354040283529160200191610470565b820191905f5260205f20905b81548152906001019060200180831161045357829003601f168201915b5050505050815260200160018201805461048990610cf0565b80601f01602080910402602001604051908101604052809291908181526020018280546104b590610cf0565b80156105005780601f106104d757610100808354040283529160200191610500565b820191905f5260205f20905b8154815290600101906020018083116104e357829003601f168201915b505050505081526020016002820154815250509050919050565b60605f805480602002602001604051908101604052809291908181526020015f905b82821015610695578382905f5260205f2090600302016040518060600160405290815f8201805461056c90610cf0565b80601f016020809104026020016040519081016040528092919081815260200182805461059890610cf0565b80156105e35780601f106105ba576101008083540402835291602001916105e3565b820191905f5260205f20905b8154815290600101906020018083116105c657829003601f168201915b505050505081526020016001820180546105fc90610cf0565b80601f016020809104026020016040519081016040528092919081815260200182805461062890610cf0565b80156106735780601f1061064a57610100808354040283529160200191610673565b820191905f5260205f20905b81548152906001019060200180831161065657829003601f168201915b505050505081526020016002820154815250508152602001906001019061053c565b50505050905090565b604051806060016040528060608152602001606081526020015f81525090565b5f604051905090565b5f5ffd5b5f5ffd5b5f819050919050565b6106e1816106cf565b81146106eb575f5ffd5b50565b5f813590506106fc816106d8565b92915050565b5f60208284031215610717576107166106c7565b5b5f610724848285016106ee565b91505092915050565b5f81519050919050565b5f82825260208201905092915050565b8281835e5f83830152505050565b5f601f19601f8301169050919050565b5f61076f8261072d565b6107798185610737565b9350610789818560208601610747565b61079281610755565b840191505092915050565b5f81519050919050565b5f82825260208201905092915050565b5f6107c18261079d565b6107cb81856107a7565b93506107db818560208601610747565b6107e481610755565b840191505092915050565b6107f8816106cf565b82525050565b5f6060820190508181035f8301526108168186610765565b9050818103602083015261082a81856107b7565b905061083960408301846107ef565b949350505050565b5f5ffd5b5f5ffd5b7f4e487b71000000000000000000000000000000000000000000000000000000005f52604160045260245ffd5b61087f82610755565b810181811067ffffffffffffffff8211171561089e5761089d610849565b5b80604052505050565b5f6108b06106be565b90506108bc8282610876565b919050565b5f67ffffffffffffffff8211156108db576108da610849565b5b6108e482610755565b9050602081019050919050565b828183375f83830152505050565b5f61091161090c846108c1565b6108a7565b90508281526020810184848401111561092d5761092c610845565b5b6109388482856108f1565b509392505050565b5f82601f83011261095457610953610841565b5b81356109648482602086016108ff565b91505092915050565b5f67ffffffffffffffff82111561098757610986610849565b5b61099082610755565b9050602081019050919050565b5f6109af6109aa8461096d565b6108a7565b9050828152602081018484840111156109cb576109ca610845565b5b6109d68482856108f1565b509392505050565b5f82601f8301126109f2576109f1610841565b5b8135610a0284826020860161099d565b91505092915050565b5f5f60408385031215610a2157610a206106c7565b5b5f83013567ffffffffffffffff811115610a3e57610a3d6106cb565b5b610a4a85828601610940565b925050602083013567ffffffffffffffff811115610a6b57610a6a6106cb565b5b610a77858286016109de565b9150509250929050565b5f82825260208201905092915050565b5f610a9b8261072d565b610aa58185610a81565b9350610ab5818560208601610747565b610abe81610755565b840191505092915050565b5f82825260208201905092915050565b5f610ae38261079d565b610aed8185610ac9565b9350610afd818560208601610747565b610b0681610755565b840191505092915050565b610b1a816106cf565b82525050565b5f606083015f8301518482035f860152610b3a8282610a91565b91505060208301518482036020860152610b548282610ad9565b9150506040830151610b696040860182610b11565b508091505092915050565b5f6020820190508181035f830152610b8c8184610b20565b905092915050565b5f81519050919050565b5f82825260208201905092915050565b5f819050602082019050919050565b5f606083015f8301518482035f860152610bd78282610a91565b91505060208301518482036020860152610bf18282610ad9565b9150506040830151610c066040860182610b11565b508091505092915050565b5f610c1c8383610bbd565b905092915050565b5f602082019050919050565b5f610c3a82610b94565b610c448185610b9e565b935083602082028501610c5685610bae565b805f5b85811015610c915784840389528151610c728582610c11565b9450610c7d83610c24565b925060208a01995050600181019050610c59565b50829750879550505050505092915050565b5f6020820190508181035f830152610cbb8184610c30565b905092915050565b7f4e487b71000000000000000000000000000000000000000000000000000000005f52602260045260245ffd5b5f6002820490506001821680610d0757607f821691505b602082108103610d1a57610d19610cc3565b5b50919050565b7f50726f6a6563742049442069732072657175697265642e0000000000000000005f82015250565b5f610d54601783610737565b9150610d5f82610d20565b602082019050919050565b5f6020820190508181035f830152610d8181610d48565b9050919050565b7f50726f6a6563742068617368206d7573742062652033322062797465732e00005f82015250565b5f610dbc601e83610737565b9150610dc782610d88565b602082019050919050565b5f6020820190508181035f830152610de981610db0565b9050919050565b5f819050815f5260205f209050919050565b5f6020601f8301049050919050565b5f82821b905092915050565b5f60088302610e4c7fffffffffffffffffffffffffffffffffffffffffffffffffffffffffffffffff82610e11565b610e568683610e11565b95508019841693508086168417925050509392505050565b5f819050919050565b5f610e91610e8c610e87846106cf565b610e6e565b6106cf565b9050919050565b5f819050919050565b610eaa83610e77565b610ebe610eb682610e98565b848454610e1d565b825550505050565b5f5f905090565b610ed5610ec6565b610ee0818484610ea1565b505050565b5b81811015610f0357610ef85f82610ecd565b600181019050610ee6565b5050565b601f821115610f4857610f1981610df0565b610f2284610e02565b81016020851015610f31578190505b610f45610f3d85610e02565b830182610ee5565b50505b505050565b5f82821c905092915050565b5f610f685f1984600802610f4d565b1980831691505092915050565b5f610f808383610f59565b9150826002028217905092915050565b610f998261072d565b67ffffffffffffffff811115610fb257610fb1610849565b5b610fbc8254610cf0565b610fc7828285610f07565b5f60209050601f831160018114610ff8575f8415610fe6578287015190505b610ff08582610f75565b865550611057565b601f19841661100686610df0565b5f5b8281101561102d57848901518255600182019150602085019450602081019050611008565b8683101561104a5784890151611046601f891682610f59565b8355505b6001600288020188555050505b505050505050565b5f819050815f5260205f209050919050565b601f8211156110b2576110838161105f565b61108c84610e02565b8101602085101561109b578190505b6110af6110a785610e02565b830182610ee5565b50505b505050565b6110c08261079d565b67ffffffffffffffff8111156110d9576110d8610849565b5b6110e38254610cf0565b6110ee828285611071565b5f60209050601f83116001811461111f575f841561110d578287015190505b6111178582610f75565b86555061117e565b601f19841661112d8661105f565b5f5b828110156111545784890151825560018201915060208501945060208101905061112f565b86831015611171578489015161116d601f891682610f59565b8355505b6001600288020188555050505b505050505050565b7f50726f6a65637420646f6573206e6f742065786973742e0000000000000000005f82015250565b5f6111ba601783610737565b91506111c582611186565b602082019050919050565b5f6020820190508181035f8301526111e7816111ae565b9050919050565b7f4e487b71000000000000000000000000000000000000000000000000000000005f52603260045260245ffdfea26469706673582212204bc2f7b3e333de7213cdc1e4ca4eb070e2ccff082208acbac4fdb53356888b8364736f6c634300081c0033",
		"opcodes": "PUSH1 0x80 PUSH1 0x40 MSTORE CALLVALUE DUP1 ISZERO PUSH1 0xE JUMPI PUSH0 PUSH0 REVERT JUMPDEST POP PUSH2 0x1251 DUP1 PUSH2 0x1C PUSH0 CODECOPY PUSH0 RETURN INVALID PUSH1 0x80 PUSH1 0x40 MSTORE CALLVALUE DUP1 ISZERO PUSH2 0xF JUMPI PUSH0 PUSH0 REVERT JUMPDEST POP PUSH1 0x4 CALLDATASIZE LT PUSH2 0x4A JUMPI PUSH0 CALLDATALOAD PUSH1 0xE0 SHR DUP1 PUSH4 0x107046BD EQ PUSH2 0x4E JUMPI DUP1 PUSH4 0x8AE6CBE8 EQ PUSH2 0x80 JUMPI DUP1 PUSH4 0xBEE5CDCA EQ PUSH2 0x9C JUMPI DUP1 PUSH4 0xDCC60128 EQ PUSH2 0xCC JUMPI JUMPDEST PUSH0 PUSH0 REVERT JUMPDEST PUSH2 0x68 PUSH1 0x4 DUP1 CALLDATASIZE SUB DUP2 ADD SWAP1 PUSH2 0x63 SWAP2 SWAP1 PUSH2 0x702 JUMP JUMPDEST PUSH2 0xEA JUMP JUMPDEST PUSH1 0x40 MLOAD PUSH2 0x77 SWAP4 SWAP3 SWAP2 SWAP1 PUSH2 0x7FE JUMP JUMPDEST PUSH1 0x40 MLOAD DUP1 SWAP2 SUB SWAP1 RETURN JUMPDEST PUSH2 0x9A PUSH1 0x4 DUP1 CALLDATASIZE SUB DUP2 ADD SWAP1 PUSH2 0x95 SWAP2 SWAP1 PUSH2 0xA0B JUMP JUMPDEST PUSH2 0x22A JUMP JUMPDEST STOP JUMPDEST PUSH2 0xB6 PUSH1 0x4 DUP1 CALLDATASIZE SUB DUP2 ADD SWAP1 PUSH2 0xB1 SWAP2 SWAP1 PUSH2 0x702 JUMP JUMPDEST PUSH2 0x372 JUMP JUMPDEST PUSH1 0x40 MLOAD PUSH2 0xC3 SWAP2 SWAP1 PUSH2 0xB74 JUMP JUMPDEST PUSH1 0x40 MLOAD DUP1 SWAP2 SUB SWAP1 RETURN JUMPDEST PUSH2 0xD4 PUSH2 0x51A JUMP JUMPDEST PUSH1 0x40 MLOAD PUSH2 0xE1 SWAP2 SWAP1 PUSH2 0xCA3 JUMP JUMPDEST PUSH1 0x40 MLOAD DUP1 SWAP2 SUB SWAP1 RETURN JUMPDEST PUSH0 DUP2 DUP2 SLOAD DUP2 LT PUSH2 0xF8 JUMPI PUSH0 DUP1 REVERT JUMPDEST SWAP1 PUSH0 MSTORE PUSH1 0x20 PUSH0 KECCAK256 SWAP1 PUSH1 0x3 MUL ADD PUSH0 SWAP2 POP SWAP1 POP DUP1 PUSH0 ADD DUP1 SLOAD PUSH2 0x117 SWAP1 PUSH2 0xCF0 JUMP JUMPDEST DUP1 PUSH1 0x1F ADD PUSH1 0x20 DUP1 SWAP2 DIV MUL PUSH1 0x20 ADD PUSH1 0x40 MLOAD SWAP1 DUP2 ADD PUSH1 0x40 MSTORE DUP1 SWAP3 SWAP2 SWAP1 DUP2 DUP2 MSTORE PUSH1 0x20 ADD DUP3 DUP1 SLOAD PUSH2 0x143 SWAP1 PUSH2 0xCF0 JUMP JUMPDEST DUP1 ISZERO PUSH2 0x18E JUMPI DUP1 PUSH1 0x1F LT PUSH2 0x165 JUMPI PUSH2 0x100 DUP1 DUP4 SLOAD DIV MUL DUP4 MSTORE SWAP2 PUSH1 0x20 ADD SWAP2 PUSH2 0x18E JUMP JUMPDEST DUP3 ADD SWAP2 SWAP1 PUSH0 MSTORE PUSH1 0x20 PUSH0 KECCAK256 SWAP1 JUMPDEST DUP2 SLOAD DUP2 MSTORE SWAP1 PUSH1 0x1 ADD SWAP1 PUSH1 0x20 ADD DUP1 DUP4 GT PUSH2 0x171 JUMPI DUP3 SWAP1 SUB PUSH1 0x1F AND DUP3 ADD SWAP2 JUMPDEST POP POP POP POP POP SWAP1 DUP1 PUSH1 0x1 ADD DUP1 SLOAD PUSH2 0x1A3 SWAP1 PUSH2 0xCF0 JUMP JUMPDEST DUP1 PUSH1 0x1F ADD PUSH1 0x20 DUP1 SWAP2 DIV MUL PUSH1 0x20 ADD PUSH1 0x40 MLOAD SWAP1 DUP2 ADD PUSH1 0x40 MSTORE DUP1 SWAP3 SWAP2 SWAP1 DUP2 DUP2 MSTORE PUSH1 0x20 ADD DUP3 DUP1 SLOAD PUSH2 0x1CF SWAP1 PUSH2 0xCF0 JUMP JUMPDEST DUP1 ISZERO PUSH2 0x21A JUMPI DUP1 PUSH1 0x1F LT PUSH2 0x1F1 JUMPI PUSH2 0x100 DUP1 DUP4 SLOAD DIV MUL DUP4 MSTORE SWAP2 PUSH1 0x20 ADD SWAP2 PUSH2 0x21A JUMP JUMPDEST DUP3 ADD SWAP2 SWAP1 PUSH0 MSTORE PUSH1 0x20 PUSH0 KECCAK256 SWAP1 JUMPDEST DUP2 SLOAD DUP2 MSTORE SWAP1 PUSH1 0x1 ADD SWAP1 PUSH1 0x20 ADD DUP1 DUP4 GT PUSH2 0x1FD JUMPI DUP3 SWAP1 SUB PUSH1 0x1F AND DUP3 ADD SWAP2 JUMPDEST POP POP POP POP POP SWAP1 DUP1 PUSH1 0x2 ADD SLOAD SWAP1 POP DUP4 JUMP JUMPDEST PUSH0 DUP3 MLOAD GT PUSH2 0x26D JUMPI PUSH1 0x40 MLOAD PUSH32 0x8C379A000000000000000000000000000000000000000000000000000000000 DUP2 MSTORE PUSH1 0x4 ADD PUSH2 0x264 SWAP1 PUSH2 0xD6A JUMP JUMPDEST PUSH1 0x40 MLOAD DUP1 SWAP2 SUB SWAP1 REVERT JUMPDEST PUSH1 0x20 DUP2 MLOAD EQ PUSH2 0x2B1 JUMPI PUSH1 0x40 MLOAD PUSH32 0x8C379A000000000000000000000000000000000000000000000000000000000 DUP2 MSTORE PUSH1 0x4 ADD PUSH2 0x2A8 SWAP1 PUSH2 0xDD2 JUMP JUMPDEST PUSH1 0x40 MLOAD DUP1 SWAP2 SUB SWAP1 REVERT JUMPDEST PUSH0 PUSH0 DUP1 SLOAD SWAP1 POP SWAP1 POP PUSH0 PUSH1 0x40 MLOAD DUP1 PUSH1 0x60 ADD PUSH1 0x40 MSTORE DUP1 DUP6 DUP2 MSTORE PUSH1 0x20 ADD DUP5 DUP2 MSTORE PUSH1 0x20 ADD TIMESTAMP DUP2 MSTORE POP SWAP1 DUP1 PUSH1 0x1 DUP2 SLOAD ADD DUP1 DUP3 SSTORE DUP1 SWAP2 POP POP PUSH1 0x1 SWAP1 SUB SWAP1 PUSH0 MSTORE PUSH1 0x20 PUSH0 KECCAK256 SWAP1 PUSH1 0x3 MUL ADD PUSH0 SWAP1 SWAP2 SWAP1 SWAP2 SWAP1 SWAP2 POP PUSH0 DUP3 ADD MLOAD DUP2 PUSH0 ADD SWAP1 DUP2 PUSH2 0x30E SWAP2 SWAP1 PUSH2 0xF90 JUMP JUMPDEST POP PUSH1 0x20 DUP3 ADD MLOAD DUP2 PUSH1 0x1 ADD SWAP1 DUP2 PUSH2 0x324 SWAP2 SWAP1 PUSH2 0x10B7 JUMP JUMPDEST POP PUSH1 0x40 DUP3 ADD MLOAD DUP2 PUSH1 0x2 ADD SSTORE POP POP DUP1 PUSH32 0xA8094AA947A1DE718368F91354A0FDE9FB961A0BCD7F9024ED54ABD38AC5108C DUP5 DUP5 TIMESTAMP PUSH1 0x40 MLOAD PUSH2 0x365 SWAP4 SWAP3 SWAP2 SWAP1 PUSH2 0x7FE JUMP JUMPDEST PUSH1 0x40 MLOAD DUP1 SWAP2 SUB SWAP1 LOG2 POP POP POP JUMP JUMPDEST PUSH2 0x37A PUSH2 0x69E JUMP JUMPDEST PUSH0 DUP1 SLOAD SWAP1 POP DUP3 LT PUSH2 0x3C0 JUMPI PUSH1 0x40 MLOAD PUSH32 0x8C379A000000000000000000000000000000000000000000000000000000000 DUP2 MSTORE PUSH1 0x4 ADD PUSH2 0x3B7 SWAP1 PUSH2 0x11D0 JUMP JUMPDEST PUSH1 0x40 MLOAD DUP1 SWAP2 SUB SWAP1 REVERT JUMPDEST PUSH0 DUP3 DUP2 SLOAD DUP2 LT PUSH2 0x3D3 JUMPI PUSH2 0x3D2 PUSH2 0x11EE JUMP JUMPDEST JUMPDEST SWAP1 PUSH0 MSTORE PUSH1 0x20 PUSH0 KECCAK256 SWAP1 PUSH1 0x3 MUL ADD PUSH1 0x40 MLOAD DUP1 PUSH1 0x60 ADD PUSH1 0x40 MSTORE SWAP1 DUP2 PUSH0 DUP3 ADD DUP1 SLOAD PUSH2 0x3F9 SWAP1 PUSH2 0xCF0 JUMP JUMPDEST DUP1 PUSH1 0x1F ADD PUSH1 0x20 DUP1 SWAP2 DIV MUL PUSH1 0x20 ADD PUSH1 0x40 MLOAD SWAP1 DUP2 ADD PUSH1 0x40 MSTORE DUP1 SWAP3 SWAP2 SWAP1 DUP2 DUP2 MSTORE PUSH1 0x20 ADD DUP3 DUP1 SLOAD PUSH2 0x425 SWAP1 PUSH2 0xCF0 JUMP JUMPDEST DUP1 ISZERO PUSH2 0x470 JUMPI DUP1 PUSH1 0x1F LT PUSH2 0x447 JUMPI PUSH2 0x100 DUP1 DUP4 SLOAD DIV MUL DUP4 MSTORE SWAP2 PUSH1 0x20 ADD SWAP2 PUSH2 0x470 JUMP JUMPDEST DUP3 ADD SWAP2 SWAP1 PUSH0 MSTORE PUSH1 0x20 PUSH0 KECCAK256 SWAP1 JUMPDEST DUP2 SLOAD DUP2 MSTORE SWAP1 PUSH1 0x1 ADD SWAP1 PUSH1 0x20 ADD DUP1 DUP4 GT PUSH2 0x453 JUMPI DUP3 SWAP1 SUB PUSH1 0x1F AND DUP3 ADD SWAP2 JUMPDEST POP POP POP POP POP DUP2 MSTORE PUSH1 0x20 ADD PUSH1 0x1 DUP3 ADD DUP1 SLOAD PUSH2 0x489 SWAP1 PUSH2 0xCF0 JUMP JUMPDEST DUP1 PUSH1 0x1F ADD PUSH1 0x20 DUP1 SWAP2 DIV MUL PUSH1 0x20 ADD PUSH1 0x40 MLOAD SWAP1 DUP2 ADD PUSH1 0x40 MSTORE DUP1 SWAP3 SWAP2 SWAP1 DUP2 DUP2 MSTORE PUSH1 0x20 ADD DUP3 DUP1 SLOAD PUSH2 0x4B5 SWAP1 PUSH2 0xCF0 JUMP JUMPDEST DUP1 ISZERO PUSH2 0x500 JUMPI DUP1 PUSH1 0x1F LT PUSH2 0x4D7 JUMPI PUSH2 0x100 DUP1 DUP4 SLOAD DIV MUL DUP4 MSTORE SWAP2 PUSH1 0x20 ADD SWAP2 PUSH2 0x500 JUMP JUMPDEST DUP3 ADD SWAP2 SWAP1 PUSH0 MSTORE PUSH1 0x20 PUSH0 KECCAK256 SWAP1 JUMPDEST DUP2 SLOAD DUP2 MSTORE SWAP1 PUSH1 0x1 ADD SWAP1 PUSH1 0x20 ADD DUP1 DUP4 GT PUSH2 0x4E3 JUMPI DUP3 SWAP1 SUB PUSH1 0x1F AND DUP3 ADD SWAP2 JUMPDEST POP POP POP POP POP DUP2 MSTORE PUSH1 0x20 ADD PUSH1 0x2 DUP3 ADD SLOAD DUP2 MSTORE POP POP SWAP1 POP SWAP2 SWAP1 POP JUMP JUMPDEST PUSH1 0x60 PUSH0 DUP1 SLOAD DUP1 PUSH1 0x20 MUL PUSH1 0x20 ADD PUSH1 0x40 MLOAD SWAP1 DUP2 ADD PUSH1 0x40 MSTORE DUP1 SWAP3 SWAP2 SWAP1 DUP2 DUP2 MSTORE PUSH1 0x20 ADD PUSH0 SWAP1 JUMPDEST DUP3 DUP3 LT ISZERO PUSH2 0x695 JUMPI DUP4 DUP3 SWAP1 PUSH0 MSTORE PUSH1 0x20 PUSH0 KECCAK256 SWAP1 PUSH1 0x3 MUL ADD PUSH1 0x40 MLOAD DUP1 PUSH1 0x60 ADD PUSH1 0x40 MSTORE SWAP1 DUP2 PUSH0 DUP3 ADD DUP1 SLOAD PUSH2 0x56C SWAP1 PUSH2 0xCF0 JUMP JUMPDEST DUP1 PUSH1 0x1F ADD PUSH1 0x20 DUP1 SWAP2 DIV MUL PUSH1 0x20 ADD PUSH1 0x40 MLOAD SWAP1 DUP2 ADD PUSH1 0x40 MSTORE DUP1 SWAP3 SWAP2 SWAP1 DUP2 DUP2 MSTORE PUSH1 0x20 ADD DUP3 DUP1 SLOAD PUSH2 0x598 SWAP1 PUSH2 0xCF0 JUMP JUMPDEST DUP1 ISZERO PUSH2 0x5E3 JUMPI DUP1 PUSH1 0x1F LT PUSH2 0x5BA JUMPI PUSH2 0x100 DUP1 DUP4 SLOAD DIV MUL DUP4 MSTORE SWAP2 PUSH1 0x20 ADD SWAP2 PUSH2 0x5E3 JUMP JUMPDEST DUP3 ADD SWAP2 SWAP1 PUSH0 MSTORE PUSH1 0x20 PUSH0 KECCAK256 SWAP1 JUMPDEST DUP2 SLOAD DUP2 MSTORE SWAP1 PUSH1 0x1 ADD SWAP1 PUSH1 0x20 ADD DUP1 DUP4 GT PUSH2 0x5C6 JUMPI DUP3 SWAP1 SUB PUSH1 0x1F AND DUP3 ADD SWAP2 JUMPDEST POP POP POP POP POP DUP2 MSTORE PUSH1 0x20 ADD PUSH1 0x1 DUP3 ADD DUP1 SLOAD PUSH2 0x5FC SWAP1 PUSH2 0xCF0 JUMP JUMPDEST DUP1 PUSH1 0x1F ADD PUSH1 0x20 DUP1 SWAP2 DIV MUL PUSH1 0x20 ADD PUSH1 0x40 MLOAD SWAP1 DUP2 ADD PUSH1 0x40 MSTORE DUP1 SWAP3 SWAP2 SWAP1 DUP2 DUP2 MSTORE PUSH1 0x20 ADD DUP3 DUP1 SLOAD PUSH2 0x628 SWAP1 PUSH2 0xCF0 JUMP JUMPDEST DUP1 ISZERO PUSH2 0x673 JUMPI DUP1 PUSH1 0x1F LT PUSH2 0x64A JUMPI PUSH2 0x100 DUP1 DUP4 SLOAD DIV MUL DUP4 MSTORE SWAP2 PUSH1 0x20 ADD SWAP2 PUSH2 0x673 JUMP JUMPDEST DUP3 ADD SWAP2 SWAP1 PUSH0 MSTORE PUSH1 0x20 PUSH0 KECCAK256 SWAP1 JUMPDEST DUP2 SLOAD DUP2 MSTORE SWAP1 PUSH1 0x1 ADD SWAP1 PUSH1 0x20 ADD DUP1 DUP4 GT PUSH2 0x656 JUMPI DUP3 SWAP1 SUB PUSH1 0x1F AND DUP3 ADD SWAP2 JUMPDEST POP POP POP POP POP DUP2 MSTORE PUSH1 0x20 ADD PUSH1 0x2 DUP3 ADD SLOAD DUP2 MSTORE POP POP DUP2 MSTORE PUSH1 0x20 ADD SWAP1 PUSH1 0x1 ADD SWAP1 PUSH2 0x53C JUMP JUMPDEST POP POP POP POP SWAP1 POP SWAP1 JUMP JUMPDEST PUSH1 0x40 MLOAD DUP1 PUSH1 0x60 ADD PUSH1 0x40 MSTORE DUP1 PUSH1 0x60 DUP2 MSTORE PUSH1 0x20 ADD PUSH1 0x60 DUP2 MSTORE PUSH1 0x20 ADD PUSH0 DUP2 MSTORE POP SWAP1 JUMP JUMPDEST PUSH0 PUSH1 0x40 MLOAD SWAP1 POP SWAP1 JUMP JUMPDEST PUSH0 PUSH0 REVERT JUMPDEST PUSH0 PUSH0 REVERT JUMPDEST PUSH0 DUP2 SWAP1 POP SWAP2 SWAP1 POP JUMP JUMPDEST PUSH2 0x6E1 DUP2 PUSH2 0x6CF JUMP JUMPDEST DUP2 EQ PUSH2 0x6EB JUMPI PUSH0 PUSH0 REVERT JUMPDEST POP JUMP JUMPDEST PUSH0 DUP2 CALLDATALOAD SWAP1 POP PUSH2 0x6FC DUP2 PUSH2 0x6D8 JUMP JUMPDEST SWAP3 SWAP2 POP POP JUMP JUMPDEST PUSH0 PUSH1 0x20 DUP3 DUP5 SUB SLT ISZERO PUSH2 0x717 JUMPI PUSH2 0x716 PUSH2 0x6C7 JUMP JUMPDEST JUMPDEST PUSH0 PUSH2 0x724 DUP5 DUP3 DUP6 ADD PUSH2 0x6EE JUMP JUMPDEST SWAP2 POP POP SWAP3 SWAP2 POP POP JUMP JUMPDEST PUSH0 DUP2 MLOAD SWAP1 POP SWAP2 SWAP1 POP JUMP JUMPDEST PUSH0 DUP3 DUP3 MSTORE PUSH1 0x20 DUP3 ADD SWAP1 POP SWAP3 SWAP2 POP POP JUMP JUMPDEST DUP3 DUP2 DUP4 MCOPY PUSH0 DUP4 DUP4 ADD MSTORE POP POP POP JUMP JUMPDEST PUSH0 PUSH1 0x1F NOT PUSH1 0x1F DUP4 ADD AND SWAP1 POP SWAP2 SWAP1 POP JUMP JUMPDEST PUSH0 PUSH2 0x76F DUP3 PUSH2 0x72D JUMP JUMPDEST PUSH2 0x779 DUP2 DUP6 PUSH2 0x737 JUMP JUMPDEST SWAP4 POP PUSH2 0x789 DUP2 DUP6 PUSH1 0x20 DUP7 ADD PUSH2 0x747 JUMP JUMPDEST PUSH2 0x792 DUP2 PUSH2 0x755 JUMP JUMPDEST DUP5 ADD SWAP2 POP POP SWAP3 SWAP2 POP POP JUMP JUMPDEST PUSH0 DUP2 MLOAD SWAP1 POP SWAP2 SWAP1 POP JUMP JUMPDEST PUSH0 DUP3 DUP3 MSTORE PUSH1 0x20 DUP3 ADD SWAP1 POP SWAP3 SWAP2 POP POP JUMP JUMPDEST PUSH0 PUSH2 0x7C1 DUP3 PUSH2 0x79D JUMP JUMPDEST PUSH2 0x7CB DUP2 DUP6 PUSH2 0x7A7 JUMP JUMPDEST SWAP4 POP PUSH2 0x7DB DUP2 DUP6 PUSH1 0x20 DUP7 ADD PUSH2 0x747 JUMP JUMPDEST PUSH2 0x7E4 DUP2 PUSH2 0x755 JUMP JUMPDEST DUP5 ADD SWAP2 POP POP SWAP3 SWAP2 POP POP JUMP JUMPDEST PUSH2 0x7F8 DUP2 PUSH2 0x6CF JUMP JUMPDEST DUP3 MSTORE POP POP JUMP JUMPDEST PUSH0 PUSH1 0x60 DUP3 ADD SWAP1 POP DUP2 DUP2 SUB PUSH0 DUP4 ADD MSTORE PUSH2 0x816 DUP2 DUP7 PUSH2 0x765 JUMP JUMPDEST SWAP1 POP DUP2 DUP2 SUB PUSH1 0x20 DUP4 ADD MSTORE PUSH2 0x82A DUP2 DUP6 PUSH2 0x7B7 JUMP JUMPDEST SWAP1 POP PUSH2 0x839 PUSH1 0x40 DUP4 ADD DUP5 PUSH2 0x7EF JUMP JUMPDEST SWAP5 SWAP4 POP POP POP POP JUMP JUMPDEST PUSH0 PUSH0 REVERT JUMPDEST PUSH0 PUSH0 REVERT JUMPDEST PUSH32 0x4E487B7100000000000000000000000000000000000000000000000000000000 PUSH0 MSTORE PUSH1 0x41 PUSH1 0x4 MSTORE PUSH1 0x24 PUSH0 REVERT JUMPDEST PUSH2 0x87F DUP3 PUSH2 0x755 JUMP JUMPDEST DUP2 ADD DUP2 DUP2 LT PUSH8 0xFFFFFFFFFFFFFFFF DUP3 GT OR ISZERO PUSH2 0x89E JUMPI PUSH2 0x89D PUSH2 0x849 JUMP JUMPDEST JUMPDEST DUP1 PUSH1 0x40 MSTORE POP POP POP JUMP JUMPDEST PUSH0 PUSH2 0x8B0 PUSH2 0x6BE JUMP JUMPDEST SWAP1 POP PUSH2 0x8BC DUP3 DUP3 PUSH2 0x876 JUMP JUMPDEST SWAP2 SWAP1 POP JUMP JUMPDEST PUSH0 PUSH8 0xFFFFFFFFFFFFFFFF DUP3 GT ISZERO PUSH2 0x8DB JUMPI PUSH2 0x8DA PUSH2 0x849 JUMP JUMPDEST JUMPDEST PUSH2 0x8E4 DUP3 PUSH2 0x755 JUMP JUMPDEST SWAP1 POP PUSH1 0x20 DUP2 ADD SWAP1 POP SWAP2 SWAP1 POP JUMP JUMPDEST DUP3 DUP2 DUP4 CALLDATACOPY PUSH0 DUP4 DUP4 ADD MSTORE POP POP POP JUMP JUMPDEST PUSH0 PUSH2 0x911 PUSH2 0x90C DUP5 PUSH2 0x8C1 JUMP JUMPDEST PUSH2 0x8A7 JUMP JUMPDEST SWAP1 POP DUP3 DUP2 MSTORE PUSH1 0x20 DUP2 ADD DUP5 DUP5 DUP5 ADD GT ISZERO PUSH2 0x92D JUMPI PUSH2 0x92C PUSH2 0x845 JUMP JUMPDEST JUMPDEST PUSH2 0x938 DUP5 DUP3 DUP6 PUSH2 0x8F1 JUMP JUMPDEST POP SWAP4 SWAP3 POP POP POP JUMP JUMPDEST PUSH0 DUP3 PUSH1 0x1F DUP4 ADD SLT PUSH2 0x954 JUMPI PUSH2 0x953 PUSH2 0x841 JUMP JUMPDEST JUMPDEST DUP2 CALLDATALOAD PUSH2 0x964 DUP5 DUP3 PUSH1 0x20 DUP7 ADD PUSH2 0x8FF JUMP JUMPDEST SWAP2 POP POP SWAP3 SWAP2 POP POP JUMP JUMPDEST PUSH0 PUSH8 0xFFFFFFFFFFFFFFFF DUP3 GT ISZERO PUSH2 0x987 JUMPI PUSH2 0x986 PUSH2 0x849 JUMP JUMPDEST JUMPDEST PUSH2 0x990 DUP3 PUSH2 0x755 JUMP JUMPDEST SWAP1 POP PUSH1 0x20 DUP2 ADD SWAP1 POP SWAP2 SWAP1 POP JUMP JUMPDEST PUSH0 PUSH2 0x9AF PUSH2 0x9AA DUP5 PUSH2 0x96D JUMP JUMPDEST PUSH2 0x8A7 JUMP JUMPDEST SWAP1 POP DUP3 DUP2 MSTORE PUSH1 0x20 DUP2 ADD DUP5 DUP5 DUP5 ADD GT ISZERO PUSH2 0x9CB JUMPI PUSH2 0x9CA PUSH2 0x845 JUMP JUMPDEST JUMPDEST PUSH2 0x9D6 DUP5 DUP3 DUP6 PUSH2 0x8F1 JUMP JUMPDEST POP SWAP4 SWAP3 POP POP POP JUMP JUMPDEST PUSH0 DUP3 PUSH1 0x1F DUP4 ADD SLT PUSH2 0x9F2 JUMPI PUSH2 0x9F1 PUSH2 0x841 JUMP JUMPDEST JUMPDEST DUP2 CALLDATALOAD PUSH2 0xA02 DUP5 DUP3 PUSH1 0x20 DUP7 ADD PUSH2 0x99D JUMP JUMPDEST SWAP2 POP POP SWAP3 SWAP2 POP POP JUMP JUMPDEST PUSH0 PUSH0 PUSH1 0x40 DUP4 DUP6 SUB SLT ISZERO PUSH2 0xA21 JUMPI PUSH2 0xA20 PUSH2 0x6C7 JUMP JUMPDEST JUMPDEST PUSH0 DUP4 ADD CALLDATALOAD PUSH8 0xFFFFFFFFFFFFFFFF DUP2 GT ISZERO PUSH2 0xA3E JUMPI PUSH2 0xA3D PUSH2 0x6CB JUMP JUMPDEST JUMPDEST PUSH2 0xA4A DUP6 DUP3 DUP7 ADD PUSH2 0x940 JUMP JUMPDEST SWAP3 POP POP PUSH1 0x20 DUP4 ADD CALLDATALOAD PUSH8 0xFFFFFFFFFFFFFFFF DUP2 GT ISZERO PUSH2 0xA6B JUMPI PUSH2 0xA6A PUSH2 0x6CB JUMP JUMPDEST JUMPDEST PUSH2 0xA77 DUP6 DUP3 DUP7 ADD PUSH2 0x9DE JUMP JUMPDEST SWAP2 POP POP SWAP3 POP SWAP3 SWAP1 POP JUMP JUMPDEST PUSH0 DUP3 DUP3 MSTORE PUSH1 0x20 DUP3 ADD SWAP1 POP SWAP3 SWAP2 POP POP JUMP JUMPDEST PUSH0 PUSH2 0xA9B DUP3 PUSH2 0x72D JUMP JUMPDEST PUSH2 0xAA5 DUP2 DUP6 PUSH2 0xA81 JUMP JUMPDEST SWAP4 POP PUSH2 0xAB5 DUP2 DUP6 PUSH1 0x20 DUP7 ADD PUSH2 0x747 JUMP JUMPDEST PUSH2 0xABE DUP2 PUSH2 0x755 JUMP JUMPDEST DUP5 ADD SWAP2 POP POP SWAP3 SWAP2 POP POP JUMP JUMPDEST PUSH0 DUP3 DUP3 MSTORE PUSH1 0x20 DUP3 ADD SWAP1 POP SWAP3 SWAP2 POP POP JUMP JUMPDEST PUSH0 PUSH2 0xAE3 DUP3 PUSH2 0x79D JUMP JUMPDEST PUSH2 0xAED DUP2 DUP6 PUSH2 0xAC9 JUMP JUMPDEST SWAP4 POP PUSH2 0xAFD DUP2 DUP6 PUSH1 0x20 DUP7 ADD PUSH2 0x747 JUMP JUMPDEST PUSH2 0xB06 DUP2 PUSH2 0x755 JUMP JUMPDEST DUP5 ADD SWAP2 POP POP SWAP3 SWAP2 POP POP JUMP JUMPDEST PUSH2 0xB1A DUP2 PUSH2 0x6CF JUMP JUMPDEST DUP3 MSTORE POP POP JUMP JUMPDEST PUSH0 PUSH1 0x60 DUP4 ADD PUSH0 DUP4 ADD MLOAD DUP5 DUP3 SUB PUSH0 DUP7 ADD MSTORE PUSH2 0xB3A DUP3 DUP3 PUSH2 0xA91 JUMP JUMPDEST SWAP2 POP POP PUSH1 0x20 DUP4 ADD MLOAD DUP5 DUP3 SUB PUSH1 0x20 DUP7 ADD MSTORE PUSH2 0xB54 DUP3 DUP3 PUSH2 0xAD9 JUMP JUMPDEST SWAP2 POP POP PUSH1 0x40 DUP4 ADD MLOAD PUSH2 0xB69 PUSH1 0x40 DUP7 ADD DUP3 PUSH2 0xB11 JUMP JUMPDEST POP DUP1 SWAP2 POP POP SWAP3 SWAP2 POP POP JUMP JUMPDEST PUSH0 PUSH1 0x20 DUP3 ADD SWAP1 POP DUP2 DUP2 SUB PUSH0 DUP4 ADD MSTORE PUSH2 0xB8C DUP2 DUP5 PUSH2 0xB20 JUMP JUMPDEST SWAP1 POP SWAP3 SWAP2 POP POP JUMP JUMPDEST PUSH0 DUP2 MLOAD SWAP1 POP SWAP2 SWAP1 POP JUMP JUMPDEST PUSH0 DUP3 DUP3 MSTORE PUSH1 0x20 DUP3 ADD SWAP1 POP SWAP3 SWAP2 POP POP JUMP JUMPDEST PUSH0 DUP2 SWAP1 POP PUSH1 0x20 DUP3 ADD SWAP1 POP SWAP2 SWAP1 POP JUMP JUMPDEST PUSH0 PUSH1 0x60 DUP4 ADD PUSH0 DUP4 ADD MLOAD DUP5 DUP3 SUB PUSH0 DUP7 ADD MSTORE PUSH2 0xBD7 DUP3 DUP3 PUSH2 0xA91 JUMP JUMPDEST SWAP2 POP POP PUSH1 0x20 DUP4 ADD MLOAD DUP5 DUP3 SUB PUSH1 0x20 DUP7 ADD MSTORE PUSH2 0xBF1 DUP3 DUP3 PUSH2 0xAD9 JUMP JUMPDEST SWAP2 POP POP PUSH1 0x40 DUP4 ADD MLOAD PUSH2 0xC06 PUSH1 0x40 DUP7 ADD DUP3 PUSH2 0xB11 JUMP JUMPDEST POP DUP1 SWAP2 POP POP SWAP3 SWAP2 POP POP JUMP JUMPDEST PUSH0 PUSH2 0xC1C DUP4 DUP4 PUSH2 0xBBD JUMP JUMPDEST SWAP1 POP SWAP3 SWAP2 POP POP JUMP JUMPDEST PUSH0 PUSH1 0x20 DUP3 ADD SWAP1 POP SWAP2 SWAP1 POP JUMP JUMPDEST PUSH0 PUSH2 0xC3A DUP3 PUSH2 0xB94 JUMP JUMPDEST PUSH2 0xC44 DUP2 DUP6 PUSH2 0xB9E JUMP JUMPDEST SWAP4 POP DUP4 PUSH1 0x20 DUP3 MUL DUP6 ADD PUSH2 0xC56 DUP6 PUSH2 0xBAE JUMP JUMPDEST DUP1 PUSH0 JUMPDEST DUP6 DUP2 LT ISZERO PUSH2 0xC91 JUMPI DUP5 DUP5 SUB DUP10 MSTORE DUP2 MLOAD PUSH2 0xC72 DUP6 DUP3 PUSH2 0xC11 JUMP JUMPDEST SWAP5 POP PUSH2 0xC7D DUP4 PUSH2 0xC24 JUMP JUMPDEST SWAP3 POP PUSH1 0x20 DUP11 ADD SWAP10 POP POP PUSH1 0x1 DUP2 ADD SWAP1 POP PUSH2 0xC59 JUMP JUMPDEST POP DUP3 SWAP8 POP DUP8 SWAP6 POP POP POP POP POP POP SWAP3 SWAP2 POP POP JUMP JUMPDEST PUSH0 PUSH1 0x20 DUP3 ADD SWAP1 POP DUP2 DUP2 SUB PUSH0 DUP4 ADD MSTORE PUSH2 0xCBB DUP2 DUP5 PUSH2 0xC30 JUMP JUMPDEST SWAP1 POP SWAP3 SWAP2 POP POP JUMP JUMPDEST PUSH32 0x4E487B7100000000000000000000000000000000000000000000000000000000 PUSH0 MSTORE PUSH1 0x22 PUSH1 0x4 MSTORE PUSH1 0x24 PUSH0 REVERT JUMPDEST PUSH0 PUSH1 0x2 DUP3 DIV SWAP1 POP PUSH1 0x1 DUP3 AND DUP1 PUSH2 0xD07 JUMPI PUSH1 0x7F DUP3 AND SWAP2 POP JUMPDEST PUSH1 0x20 DUP3 LT DUP2 SUB PUSH2 0xD1A JUMPI PUSH2 0xD19 PUSH2 0xCC3 JUMP JUMPDEST JUMPDEST POP SWAP2 SWAP1 POP JUMP JUMPDEST PUSH32 0x50726F6A6563742049442069732072657175697265642E000000000000000000 PUSH0 DUP3 ADD MSTORE POP JUMP JUMPDEST PUSH0 PUSH2 0xD54 PUSH1 0x17 DUP4 PUSH2 0x737 JUMP JUMPDEST SWAP2 POP PUSH2 0xD5F DUP3 PUSH2 0xD20 JUMP JUMPDEST PUSH1 0x20 DUP3 ADD SWAP1 POP SWAP2 SWAP1 POP JUMP JUMPDEST PUSH0 PUSH1 0x20 DUP3 ADD SWAP1 POP DUP2 DUP2 SUB PUSH0 DUP4 ADD MSTORE PUSH2 0xD81 DUP2 PUSH2 0xD48 JUMP JUMPDEST SWAP1 POP SWAP2 SWAP1 POP JUMP JUMPDEST PUSH32 0x50726F6A6563742068617368206D7573742062652033322062797465732E0000 PUSH0 DUP3 ADD MSTORE POP JUMP JUMPDEST PUSH0 PUSH2 0xDBC PUSH1 0x1E DUP4 PUSH2 0x737 JUMP JUMPDEST SWAP2 POP PUSH2 0xDC7 DUP3 PUSH2 0xD88 JUMP JUMPDEST PUSH1 0x20 DUP3 ADD SWAP1 POP SWAP2 SWAP1 POP JUMP JUMPDEST PUSH0 PUSH1 0x20 DUP3 ADD SWAP1 POP DUP2 DUP2 SUB PUSH0 DUP4 ADD MSTORE PUSH2 0xDE9 DUP2 PUSH2 0xDB0 JUMP JUMPDEST SWAP1 POP SWAP2 SWAP1 POP JUMP JUMPDEST PUSH0 DUP2 SWAP1 POP DUP2 PUSH0 MSTORE PUSH1 0x20 PUSH0 KECCAK256 SWAP1 POP SWAP2 SWAP1 POP JUMP JUMPDEST PUSH0 PUSH1 0x20 PUSH1 0x1F DUP4 ADD DIV SWAP1 POP SWAP2 SWAP1 POP JUMP JUMPDEST PUSH0 DUP3 DUP3 SHL SWAP1 POP SWAP3 SWAP2 POP POP JUMP JUMPDEST PUSH0 PUSH1 0x8 DUP4 MUL PUSH2 0xE4C PUSH32 0xFFFFFFFFFFFFFFFFFFFFFFFFFFFFFFFFFFFFFFFFFFFFFFFFFFFFFFFFFFFFFFFF DUP3 PUSH2 0xE11 JUMP JUMPDEST PUSH2 0xE56 DUP7 DUP4 PUSH2 0xE11 JUMP JUMPDEST SWAP6 POP DUP1 NOT DUP5 AND SWAP4 POP DUP1 DUP7 AND DUP5 OR SWAP3 POP POP POP SWAP4 SWAP3 POP POP POP JUMP JUMPDEST PUSH0 DUP2 SWAP1 POP SWAP2 SWAP1 POP JUMP JUMPDEST PUSH0 PUSH2 0xE91 PUSH2 0xE8C PUSH2 0xE87 DUP5 PUSH2 0x6CF JUMP JUMPDEST PUSH2 0xE6E JUMP JUMPDEST PUSH2 0x6CF JUMP JUMPDEST SWAP1 POP SWAP2 SWAP1 POP JUMP JUMPDEST PUSH0 DUP2 SWAP1 POP SWAP2 SWAP1 POP JUMP JUMPDEST PUSH2 0xEAA DUP4 PUSH2 0xE77 JUMP JUMPDEST PUSH2 0xEBE PUSH2 0xEB6 DUP3 PUSH2 0xE98 JUMP JUMPDEST DUP5 DUP5 SLOAD PUSH2 0xE1D JUMP JUMPDEST DUP3 SSTORE POP POP POP POP JUMP JUMPDEST PUSH0 PUSH0 SWAP1 POP SWAP1 JUMP JUMPDEST PUSH2 0xED5 PUSH2 0xEC6 JUMP JUMPDEST PUSH2 0xEE0 DUP2 DUP5 DUP5 PUSH2 0xEA1 JUMP JUMPDEST POP POP POP JUMP JUMPDEST JUMPDEST DUP2 DUP2 LT ISZERO PUSH2 0xF03 JUMPI PUSH2 0xEF8 PUSH0 DUP3 PUSH2 0xECD JUMP JUMPDEST PUSH1 0x1 DUP2 ADD SWAP1 POP PUSH2 0xEE6 JUMP JUMPDEST POP POP JUMP JUMPDEST PUSH1 0x1F DUP3 GT ISZERO PUSH2 0xF48 JUMPI PUSH2 0xF19 DUP2 PUSH2 0xDF0 JUMP JUMPDEST PUSH2 0xF22 DUP5 PUSH2 0xE02 JUMP JUMPDEST DUP2 ADD PUSH1 0x20 DUP6 LT ISZERO PUSH2 0xF31 JUMPI DUP2 SWAP1 POP JUMPDEST PUSH2 0xF45 PUSH2 0xF3D DUP6 PUSH2 0xE02 JUMP JUMPDEST DUP4 ADD DUP3 PUSH2 0xEE5 JUMP JUMPDEST POP POP JUMPDEST POP POP POP JUMP JUMPDEST PUSH0 DUP3 DUP3 SHR SWAP1 POP SWAP3 SWAP2 POP POP JUMP JUMPDEST PUSH0 PUSH2 0xF68 PUSH0 NOT DUP5 PUSH1 0x8 MUL PUSH2 0xF4D JUMP JUMPDEST NOT DUP1 DUP4 AND SWAP2 POP POP SWAP3 SWAP2 POP POP JUMP JUMPDEST PUSH0 PUSH2 0xF80 DUP4 DUP4 PUSH2 0xF59 JUMP JUMPDEST SWAP2 POP DUP3 PUSH1 0x2 MUL DUP3 OR SWAP1 POP SWAP3 SWAP2 POP POP JUMP JUMPDEST PUSH2 0xF99 DUP3 PUSH2 0x72D JUMP JUMPDEST PUSH8 0xFFFFFFFFFFFFFFFF DUP2 GT ISZERO PUSH2 0xFB2 JUMPI PUSH2 0xFB1 PUSH2 0x849 JUMP JUMPDEST JUMPDEST PUSH2 0xFBC DUP3 SLOAD PUSH2 0xCF0 JUMP JUMPDEST PUSH2 0xFC7 DUP3 DUP3 DUP6 PUSH2 0xF07 JUMP JUMPDEST PUSH0 PUSH1 0x20 SWAP1 POP PUSH1 0x1F DUP4 GT PUSH1 0x1 DUP2 EQ PUSH2 0xFF8 JUMPI PUSH0 DUP5 ISZERO PUSH2 0xFE6 JUMPI DUP3 DUP8 ADD MLOAD SWAP1 POP JUMPDEST PUSH2 0xFF0 DUP6 DUP3 PUSH2 0xF75 JUMP JUMPDEST DUP7 SSTORE POP PUSH2 0x1057 JUMP JUMPDEST PUSH1 0x1F NOT DUP5 AND PUSH2 0x1006 DUP7 PUSH2 0xDF0 JUMP JUMPDEST PUSH0 JUMPDEST DUP3 DUP2 LT ISZERO PUSH2 0x102D JUMPI DUP5 DUP10 ADD MLOAD DUP3 SSTORE PUSH1 0x1 DUP3 ADD SWAP2 POP PUSH1 0x20 DUP6 ADD SWAP5 POP PUSH1 0x20 DUP2 ADD SWAP1 POP PUSH2 0x1008 JUMP JUMPDEST DUP7 DUP4 LT ISZERO PUSH2 0x104A JUMPI DUP5 DUP10 ADD MLOAD PUSH2 0x1046 PUSH1 0x1F DUP10 AND DUP3 PUSH2 0xF59 JUMP JUMPDEST DUP4 SSTORE POP JUMPDEST PUSH1 0x1 PUSH1 0x2 DUP9 MUL ADD DUP9 SSTORE POP POP POP JUMPDEST POP POP POP POP POP POP JUMP JUMPDEST PUSH0 DUP2 SWAP1 POP DUP2 PUSH0 MSTORE PUSH1 0x20 PUSH0 KECCAK256 SWAP1 POP SWAP2 SWAP1 POP JUMP JUMPDEST PUSH1 0x1F DUP3 GT ISZERO PUSH2 0x10B2 JUMPI PUSH2 0x1083 DUP2 PUSH2 0x105F JUMP JUMPDEST PUSH2 0x108C DUP5 PUSH2 0xE02 JUMP JUMPDEST DUP2 ADD PUSH1 0x20 DUP6 LT ISZERO PUSH2 0x109B JUMPI DUP2 SWAP1 POP JUMPDEST PUSH2 0x10AF PUSH2 0x10A7 DUP6 PUSH2 0xE02 JUMP JUMPDEST DUP4 ADD DUP3 PUSH2 0xEE5 JUMP JUMPDEST POP POP JUMPDEST POP POP POP JUMP JUMPDEST PUSH2 0x10C0 DUP3 PUSH2 0x79D JUMP JUMPDEST PUSH8 0xFFFFFFFFFFFFFFFF DUP2 GT ISZERO PUSH2 0x10D9 JUMPI PUSH2 0x10D8 PUSH2 0x849 JUMP JUMPDEST JUMPDEST PUSH2 0x10E3 DUP3 SLOAD PUSH2 0xCF0 JUMP JUMPDEST PUSH2 0x10EE DUP3 DUP3 DUP6 PUSH2 0x1071 JUMP JUMPDEST PUSH0 PUSH1 0x20 SWAP1 POP PUSH1 0x1F DUP4 GT PUSH1 0x1 DUP2 EQ PUSH2 0x111F JUMPI PUSH0 DUP5 ISZERO PUSH2 0x110D JUMPI DUP3 DUP8 ADD MLOAD SWAP1 POP JUMPDEST PUSH2 0x1117 DUP6 DUP3 PUSH2 0xF75 JUMP JUMPDEST DUP7 SSTORE POP PUSH2 0x117E JUMP JUMPDEST PUSH1 0x1F NOT DUP5 AND PUSH2 0x112D DUP7 PUSH2 0x105F JUMP JUMPDEST PUSH0 JUMPDEST DUP3 DUP2 LT ISZERO PUSH2 0x1154 JUMPI DUP5 DUP10 ADD MLOAD DUP3 SSTORE PUSH1 0x1 DUP3 ADD SWAP2 POP PUSH1 0x20 DUP6 ADD SWAP5 POP PUSH1 0x20 DUP2 ADD SWAP1 POP PUSH2 0x112F JUMP JUMPDEST DUP7 DUP4 LT ISZERO PUSH2 0x1171 JUMPI DUP5 DUP10 ADD MLOAD PUSH2 0x116D PUSH1 0x1F DUP10 AND DUP3 PUSH2 0xF59 JUMP JUMPDEST DUP4 SSTORE POP JUMPDEST PUSH1 0x1 PUSH1 0x2 DUP9 MUL ADD DUP9 SSTORE POP POP POP JUMPDEST POP POP POP POP POP POP JUMP JUMPDEST PUSH32 0x50726F6A65637420646F6573206E6F742065786973742E000000000000000000 PUSH0 DUP3 ADD MSTORE POP JUMP JUMPDEST PUSH0 PUSH2 0x11BA PUSH1 0x17 DUP4 PUSH2 0x737 JUMP JUMPDEST SWAP2 POP PUSH2 0x11C5 DUP3 PUSH2 0x1186 JUMP JUMPDEST PUSH1 0x20 DUP3 ADD SWAP1 POP SWAP2 SWAP1 POP JUMP JUMPDEST PUSH0 PUSH1 0x20 DUP3 ADD SWAP1 POP DUP2 DUP2 SUB PUSH0 DUP4 ADD MSTORE PUSH2 0x11E7 DUP2 PUSH2 0x11AE JUMP JUMPDEST SWAP1 POP SWAP2 SWAP1 POP JUMP JUMPDEST PUSH32 0x4E487B7100000000000000000000000000000000000000000000000000000000 PUSH0 MSTORE PUSH1 0x32 PUSH1 0x4 MSTORE PUSH1 0x24 PUSH0 REVERT INVALID LOG2 PUSH5 0x6970667358 0x22 SLT KECCAK256 0x4B 0xC2 0xF7 0xB3 0xE3 CALLER 0xDE PUSH19 0x13CDC1E4CA4EB070E2CCFF082208ACBAC4FDB5 CALLER JUMP DUP9 DUP12 DUP4 PUSH5 0x736F6C6343 STOP ADDMOD SHR STOP CALLER "
	},
	"abi": [
		{
			"anonymous": false,
			"inputs": [
				{
					"indexed": true,
					"internalType": "uint256",
					"name": "projectIndex",
					"type": "uint256"
				},
				{
					"indexed": false,
					"internalType": "string",
					"name": "prj_id",
					"type": "string"
				},
				{
					"indexed": false,
					"internalType": "bytes",
					"name": "prj_hash",
					"type": "bytes"
				},
				{
					"indexed": false,
					"internalType": "uint256",
					"name": "submission_time",
					"type": "uint256"
				}
			],
			"name": "ProjectHashSubmitted",
			"type": "event"
		},
		{
			"inputs": [
				{
					"internalType": "uint256",
					"name": "projectIndex",
					"type": "uint256"
				}
			],
			"name": "getProjectById",
			"outputs": [
				{
					"components": [
						{
							"internalType": "string",
							"name": "prj_id",
							"type": "string"
						},
						{
							"internalType": "bytes",
							"name": "prj_hash",
							"type": "bytes"
						},
						{
							"internalType": "uint256",
							"name": "submission_time",
							"type": "uint256"
						}
					],
					"internalType": "struct HederaProjectContract.Project",
					"name": "",
					"type": "tuple"
				}
			],
			"stateMutability": "view",
			"type": "function"
		},
		{
			"inputs": [],
			"name": "getProjects",
			"outputs": [
				{
					"components": [
						{
							"internalType": "string",
							"name": "prj_id",
							"type": "string"
						},
						{
							"internalType": "bytes",
							"name": "prj_hash",
							"type": "bytes"
						},
						{
							"internalType": "uint256",
							"name": "submission_time",
							"type": "uint256"
						}
					],
					"internalType": "struct HederaProjectContract.Project[]",
					"name": "",
					"type": "tuple[]"
				}
			],
			"stateMutability": "view",
			"type": "function"
		},
		{
			"inputs": [
				{
					"internalType": "uint256",
					"name": "",
					"type": "uint256"
				}
			],
			"name": "projects",
			"outputs": [
				{
					"internalType": "string",
					"name": "prj_id",
					"type": "string"
				},
				{
					"internalType": "bytes",
					"name": "prj_hash",
					"type": "bytes"
				},
				{
					"internalType": "uint256",
					"name": "submission_time",
					"type": "uint256"
				}
			],
			"stateMutability": "view",
			"type": "function"
		},
		{
			"inputs": [
				{
					"internalType": "string",
					"name": "prj_id",
					"type": "string"
				},
				{
					"internalType": "bytes",
					"name": "prj_hash",
					"type": "bytes"
				}
			],
			"name": "submitProjectHash",
			"outputs": [],
			"stateMutability": "nonpayable",
			"type": "function"
		}
	],
	"storageLayout": {
		"storage": [
			{
				"astId": 12,
				"contract": "Hello.sol:HederaProjectContract",
				"label": "projects",
				"offset": 0,
				"slot": "0",
				"type": "t_array(t_struct(Project)8_storage)dyn_storage"
			}
		],
		"types": {
			"t_array(t_struct(Project)8_storage)dyn_storage": {
				"base": "t_struct(Project)8_storage",
				"encoding": "dynamic_array",
				"label": "struct HederaProjectContract.Project[]",
				"numberOfBytes": "32"
			},
			"t_bytes_storage": {
				"encoding": "bytes",
				"label": "bytes",
				"numberOfBytes": "32"
			},
			"t_string_storage": {
				"encoding": "bytes",
				"label": "string",
				"numberOfBytes": "32"
			},
			"t_struct(Project)8_storage": {
				"encoding": "inplace",
				"label": "struct HederaProjectContract.Project",
				"members": [
					{
						"astId": 3,
						"contract": "Hello.sol:HederaProjectContract",
						"label": "prj_id",
						"offset": 0,
						"slot": "0",
						"type": "t_string_storage"
					},
					{
						"astId": 5,
						"contract": "Hello.sol:HederaProjectContract",
						"label": "prj_hash",
						"offset": 0,
						"slot": "1",
						"type": "t_bytes_storage"
					},
					{
						"astId": 7,
						"contract": "Hello.sol:HederaProjectContract",
						"label": "submission_time",
						"offset": 0,
						"slot": "2",
						"type": "t_uint256"
					}
				],
				"numberOfBytes": "96"
			},
			"t_uint256": {
				"encoding": "inplace",
				"label": "uint256",
				"numberOfBytes": "32"
			}
		}
	},
	"web3Deploy": "var hederaprojectcontractContract = new web3.eth.Contract([{\"anonymous\":false,\"inputs\":[{\"indexed\":true,\"internalType\":\"uint256\",\"name\":\"projectIndex\",\"type\":\"uint256\"},{\"indexed\":false,\"internalType\":\"string\",\"name\":\"prj_id\",\"type\":\"string\"},{\"indexed\":false,\"internalType\":\"bytes\",\"name\":\"prj_hash\",\"type\":\"bytes\"},{\"indexed\":false,\"internalType\":\"uint256\",\"name\":\"submission_time\",\"type\":\"uint256\"}],\"name\":\"ProjectHashSubmitted\",\"type\":\"event\"},{\"inputs\":[{\"internalType\":\"uint256\",\"name\":\"projectIndex\",\"type\":\"uint256\"}],\"name\":\"getProjectById\",\"outputs\":[{\"components\":[{\"internalType\":\"string\",\"name\":\"prj_id\",\"type\":\"string\"},{\"internalType\":\"bytes\",\"name\":\"prj_hash\",\"type\":\"bytes\"},{\"internalType\":\"uint256\",\"name\":\"submission_time\",\"type\":\"uint256\"}],\"internalType\":\"struct HederaProjectContract.Project\",\"name\":\"\",\"type\":\"tuple\"}],\"stateMutability\":\"view\",\"type\":\"function\"},{\"inputs\":[],\"name\":\"getProjects\",\"outputs\":[{\"components\":[{\"internalType\":\"string\",\"name\":\"prj_id\",\"type\":\"string\"},{\"internalType\":\"bytes\",\"name\":\"prj_hash\",\"type\":\"bytes\"},{\"internalType\":\"uint256\",\"name\":\"submission_time\",\"type\":\"uint256\"}],\"internalType\":\"struct HederaProjectContract.Project[]\",\"name\":\"\",\"type\":\"tuple[]\"}],\"stateMutability\":\"view\",\"type\":\"function\"},{\"inputs\":[{\"internalType\":\"uint256\",\"name\":\"\",\"type\":\"uint256\"}],\"name\":\"projects\",\"outputs\":[{\"internalType\":\"string\",\"name\":\"prj_id\",\"type\":\"string\"},{\"internalType\":\"bytes\",\"name\":\"prj_hash\",\"type\":\"bytes\"},{\"internalType\":\"uint256\",\"name\":\"submission_time\",\"type\":\"uint256\"}],\"stateMutability\":\"view\",\"type\":\"function\"},{\"inputs\":[{\"internalType\":\"string\",\"name\":\"prj_id\",\"type\":\"string\"},{\"internalType\":\"bytes\",\"name\":\"prj_hash\",\"type\":\"bytes\"}],\"name\":\"submitProjectHash\",\"outputs\":[],\"stateMutability\":\"nonpayable\",\"type\":\"function\"}]);\nvar hederaprojectcontract = hederaprojectcontractContract.deploy({\n     data: '0x6080604052348015600e575f5ffd5b506112518061001c5f395ff3fe608060405234801561000f575f5ffd5b506004361061004a575f3560e01c8063107046bd1461004e5780638ae6cbe814610080578063bee5cdca1461009c578063dcc60128146100cc575b5f5ffd5b61006860048036038101906100639190610702565b6100ea565b604051610077939291906107fe565b60405180910390f35b61009a60048036038101906100959190610a0b565b61022a565b005b6100b660048036038101906100b19190610702565b610372565b6040516100c39190610b74565b60405180910390f35b6100d461051a565b6040516100e19190610ca3565b60405180910390f35b5f81815481106100f8575f80fd5b905f5260205f2090600302015f91509050805f01805461011790610cf0565b80601f016020809104026020016040519081016040528092919081815260200182805461014390610cf0565b801561018e5780601f106101655761010080835404028352916020019161018e565b820191905f5260205f20905b81548152906001019060200180831161017157829003601f168201915b5050505050908060010180546101a390610cf0565b80601f01602080910402602001604051908101604052809291908181526020018280546101cf90610cf0565b801561021a5780601f106101f15761010080835404028352916020019161021a565b820191905f5260205f20905b8154815290600101906020018083116101fd57829003601f168201915b5050505050908060020154905083565b5f82511161026d576040517f08c379a000000000000000000000000000000000000000000000000000000000815260040161026490610d6a565b60405180910390fd5b60208151146102b1576040517f08c379a00000000000000000000000000000000000000000000000000000000081526004016102a890610dd2565b60405180910390fd5b5f5f8054905090505f604051806060016040528085815260200184815260200142815250908060018154018082558091505060019003905f5260205f2090600302015f909190919091505f820151815f01908161030e9190610f90565b50602082015181600101908161032491906110b7565b50604082015181600201555050807fa8094aa947a1de718368f91354a0fde9fb961a0bcd7f9024ed54abd38ac5108c848442604051610365939291906107fe565b60405180910390a2505050565b61037a61069e565b5f8054905082106103c0576040517f08c379a00000000000000000000000000000000000000000000000000000000081526004016103b7906111d0565b60405180910390fd5b5f82815481106103d3576103d26111ee565b5b905f5260205f2090600302016040518060600160405290815f820180546103f990610cf0565b80601f016020809104026020016040519081016040528092919081815260200182805461042590610cf0565b80156104705780601f1061044757610100808354040283529160200191610470565b820191905f5260205f20905b81548152906001019060200180831161045357829003601f168201915b5050505050815260200160018201805461048990610cf0565b80601f01602080910402602001604051908101604052809291908181526020018280546104b590610cf0565b80156105005780601f106104d757610100808354040283529160200191610500565b820191905f5260205f20905b8154815290600101906020018083116104e357829003601f168201915b505050505081526020016002820154815250509050919050565b60605f805480602002602001604051908101604052809291908181526020015f905b82821015610695578382905f5260205f2090600302016040518060600160405290815f8201805461056c90610cf0565b80601f016020809104026020016040519081016040528092919081815260200182805461059890610cf0565b80156105e35780601f106105ba576101008083540402835291602001916105e3565b820191905f5260205f20905b8154815290600101906020018083116105c657829003601f168201915b505050505081526020016001820180546105fc90610cf0565b80601f016020809104026020016040519081016040528092919081815260200182805461062890610cf0565b80156106735780601f1061064a57610100808354040283529160200191610673565b820191905f5260205f20905b81548152906001019060200180831161065657829003601f168201915b505050505081526020016002820154815250508152602001906001019061053c565b50505050905090565b604051806060016040528060608152602001606081526020015f81525090565b5f604051905090565b5f5ffd5b5f5ffd5b5f819050919050565b6106e1816106cf565b81146106eb575f5ffd5b50565b5f813590506106fc816106d8565b92915050565b5f60208284031215610717576107166106c7565b5b5f610724848285016106ee565b91505092915050565b5f81519050919050565b5f82825260208201905092915050565b8281835e5f83830152505050565b5f601f19601f8301169050919050565b5f61076f8261072d565b6107798185610737565b9350610789818560208601610747565b61079281610755565b840191505092915050565b5f81519050919050565b5f82825260208201905092915050565b5f6107c18261079d565b6107cb81856107a7565b93506107db818560208601610747565b6107e481610755565b840191505092915050565b6107f8816106cf565b82525050565b5f6060820190508181035f8301526108168186610765565b9050818103602083015261082a81856107b7565b905061083960408301846107ef565b949350505050565b5f5ffd5b5f5ffd5b7f4e487b71000000000000000000000000000000000000000000000000000000005f52604160045260245ffd5b61087f82610755565b810181811067ffffffffffffffff8211171561089e5761089d610849565b5b80604052505050565b5f6108b06106be565b90506108bc8282610876565b919050565b5f67ffffffffffffffff8211156108db576108da610849565b5b6108e482610755565b9050602081019050919050565b828183375f83830152505050565b5f61091161090c846108c1565b6108a7565b90508281526020810184848401111561092d5761092c610845565b5b6109388482856108f1565b509392505050565b5f82601f83011261095457610953610841565b5b81356109648482602086016108ff565b91505092915050565b5f67ffffffffffffffff82111561098757610986610849565b5b61099082610755565b9050602081019050919050565b5f6109af6109aa8461096d565b6108a7565b9050828152602081018484840111156109cb576109ca610845565b5b6109d68482856108f1565b509392505050565b5f82601f8301126109f2576109f1610841565b5b8135610a0284826020860161099d565b91505092915050565b5f5f60408385031215610a2157610a206106c7565b5b5f83013567ffffffffffffffff811115610a3e57610a3d6106cb565b5b610a4a85828601610940565b925050602083013567ffffffffffffffff811115610a6b57610a6a6106cb565b5b610a77858286016109de565b9150509250929050565b5f82825260208201905092915050565b5f610a9b8261072d565b610aa58185610a81565b9350610ab5818560208601610747565b610abe81610755565b840191505092915050565b5f82825260208201905092915050565b5f610ae38261079d565b610aed8185610ac9565b9350610afd818560208601610747565b610b0681610755565b840191505092915050565b610b1a816106cf565b82525050565b5f606083015f8301518482035f860152610b3a8282610a91565b91505060208301518482036020860152610b548282610ad9565b9150506040830151610b696040860182610b11565b508091505092915050565b5f6020820190508181035f830152610b8c8184610b20565b905092915050565b5f81519050919050565b5f82825260208201905092915050565b5f819050602082019050919050565b5f606083015f8301518482035f860152610bd78282610a91565b91505060208301518482036020860152610bf18282610ad9565b9150506040830151610c066040860182610b11565b508091505092915050565b5f610c1c8383610bbd565b905092915050565b5f602082019050919050565b5f610c3a82610b94565b610c448185610b9e565b935083602082028501610c5685610bae565b805f5b85811015610c915784840389528151610c728582610c11565b9450610c7d83610c24565b925060208a01995050600181019050610c59565b50829750879550505050505092915050565b5f6020820190508181035f830152610cbb8184610c30565b905092915050565b7f4e487b71000000000000000000000000000000000000000000000000000000005f52602260045260245ffd5b5f6002820490506001821680610d0757607f821691505b602082108103610d1a57610d19610cc3565b5b50919050565b7f50726f6a6563742049442069732072657175697265642e0000000000000000005f82015250565b5f610d54601783610737565b9150610d5f82610d20565b602082019050919050565b5f6020820190508181035f830152610d8181610d48565b9050919050565b7f50726f6a6563742068617368206d7573742062652033322062797465732e00005f82015250565b5f610dbc601e83610737565b9150610dc782610d88565b602082019050919050565b5f6020820190508181035f830152610de981610db0565b9050919050565b5f819050815f5260205f209050919050565b5f6020601f8301049050919050565b5f82821b905092915050565b5f60088302610e4c7fffffffffffffffffffffffffffffffffffffffffffffffffffffffffffffffff82610e11565b610e568683610e11565b95508019841693508086168417925050509392505050565b5f819050919050565b5f610e91610e8c610e87846106cf565b610e6e565b6106cf565b9050919050565b5f819050919050565b610eaa83610e77565b610ebe610eb682610e98565b848454610e1d565b825550505050565b5f5f905090565b610ed5610ec6565b610ee0818484610ea1565b505050565b5b81811015610f0357610ef85f82610ecd565b600181019050610ee6565b5050565b601f821115610f4857610f1981610df0565b610f2284610e02565b81016020851015610f31578190505b610f45610f3d85610e02565b830182610ee5565b50505b505050565b5f82821c905092915050565b5f610f685f1984600802610f4d565b1980831691505092915050565b5f610f808383610f59565b9150826002028217905092915050565b610f998261072d565b67ffffffffffffffff811115610fb257610fb1610849565b5b610fbc8254610cf0565b610fc7828285610f07565b5f60209050601f831160018114610ff8575f8415610fe6578287015190505b610ff08582610f75565b865550611057565b601f19841661100686610df0565b5f5b8281101561102d57848901518255600182019150602085019450602081019050611008565b8683101561104a5784890151611046601f891682610f59565b8355505b6001600288020188555050505b505050505050565b5f819050815f5260205f209050919050565b601f8211156110b2576110838161105f565b61108c84610e02565b8101602085101561109b578190505b6110af6110a785610e02565b830182610ee5565b50505b505050565b6110c08261079d565b67ffffffffffffffff8111156110d9576110d8610849565b5b6110e38254610cf0565b6110ee828285611071565b5f60209050601f83116001811461111f575f841561110d578287015190505b6111178582610f75565b86555061117e565b601f19841661112d8661105f565b5f5b828110156111545784890151825560018201915060208501945060208101905061112f565b86831015611171578489015161116d601f891682610f59565b8355505b6001600288020188555050505b505050505050565b7f50726f6a65637420646f6573206e6f742065786973742e0000000000000000005f82015250565b5f6111ba601783610737565b91506111c582611186565b602082019050919050565b5f6020820190508181035f8301526111e7816111ae565b9050919050565b7f4e487b71000000000000000000000000000000000000000000000000000000005f52603260045260245ffdfea26469706673582212204bc2f7b3e333de7213cdc1e4ca4eb070e2ccff082208acbac4fdb53356888b8364736f6c634300081c0033', \n     arguments: [\n     ]\n}).send({\n     from: web3.eth.accounts[0], \n     gas: '4700000'\n   }, function (e, contract){\n    console.log(e, contract);\n    if (typeof contract.address !== 'undefined') {\n         console.log('Contract mined! address: ' + contract.address + ' transactionHash: ' + contract.transactionHash);\n    }\n })",
	"functionHashes": {
		"bee5cdca": "getProjectById(uint256)",
		"dcc60128": "getProjects()",
		"107046bd": "projects(uint256)",
		"8ae6cbe8": "submitProjectHash(string,bytes)"
	},
	"gasEstimates": {
		"Creation": {
			"codeDepositCost": "937800",
			"executionCost": "973",
			"totalCost": "938773"
		},
		"External": {
			"getProjectById(uint256)": "infinite",
			"getProjects()": "infinite",
			"projects(uint256)": "infinite",
			"submitProjectHash(string,bytes)": "infinite"
		}
	},
	"devdoc": {
		"kind": "dev",
		"methods": {},
		"version": 1
	},
	"userdoc": {
		"kind": "user",
		"methods": {},
		"version": 1
	},
	"Runtime Bytecode": {
		"immutableReferences": {},
		"linkReferences": {},
		"object": "608060405234801561000f575f5ffd5b506004361061004a575f3560e01c8063107046bd1461004e5780638ae6cbe814610080578063bee5cdca1461009c578063dcc60128146100cc575b5f5ffd5b61006860048036038101906100639190610702565b6100ea565b604051610077939291906107fe565b60405180910390f35b61009a60048036038101906100959190610a0b565b61022a565b005b6100b660048036038101906100b19190610702565b610372565b6040516100c39190610b74565b60405180910390f35b6100d461051a565b6040516100e19190610ca3565b60405180910390f35b5f81815481106100f8575f80fd5b905f5260205f2090600302015f91509050805f01805461011790610cf0565b80601f016020809104026020016040519081016040528092919081815260200182805461014390610cf0565b801561018e5780601f106101655761010080835404028352916020019161018e565b820191905f5260205f20905b81548152906001019060200180831161017157829003601f168201915b5050505050908060010180546101a390610cf0565b80601f01602080910402602001604051908101604052809291908181526020018280546101cf90610cf0565b801561021a5780601f106101f15761010080835404028352916020019161021a565b820191905f5260205f20905b8154815290600101906020018083116101fd57829003601f168201915b5050505050908060020154905083565b5f82511161026d576040517f08c379a000000000000000000000000000000000000000000000000000000000815260040161026490610d6a565b60405180910390fd5b60208151146102b1576040517f08c379a00000000000000000000000000000000000000000000000000000000081526004016102a890610dd2565b60405180910390fd5b5f5f8054905090505f604051806060016040528085815260200184815260200142815250908060018154018082558091505060019003905f5260205f2090600302015f909190919091505f820151815f01908161030e9190610f90565b50602082015181600101908161032491906110b7565b50604082015181600201555050807fa8094aa947a1de718368f91354a0fde9fb961a0bcd7f9024ed54abd38ac5108c848442604051610365939291906107fe565b60405180910390a2505050565b61037a61069e565b5f8054905082106103c0576040517f08c379a00000000000000000000000000000000000000000000000000000000081526004016103b7906111d0565b60405180910390fd5b5f82815481106103d3576103d26111ee565b5b905f5260205f2090600302016040518060600160405290815f820180546103f990610cf0565b80601f016020809104026020016040519081016040528092919081815260200182805461042590610cf0565b80156104705780601f1061044757610100808354040283529160200191610470565b820191905f5260205f20905b81548152906001019060200180831161045357829003601f168201915b5050505050815260200160018201805461048990610cf0565b80601f01602080910402602001604051908101604052809291908181526020018280546104b590610cf0565b80156105005780601f106104d757610100808354040283529160200191610500565b820191905f5260205f20905b8154815290600101906020018083116104e357829003601f168201915b505050505081526020016002820154815250509050919050565b60605f805480602002602001604051908101604052809291908181526020015f905b82821015610695578382905f5260205f2090600302016040518060600160405290815f8201805461056c90610cf0565b80601f016020809104026020016040519081016040528092919081815260200182805461059890610cf0565b80156105e35780601f106105ba576101008083540402835291602001916105e3565b820191905f5260205f20905b8154815290600101906020018083116105c657829003601f168201915b505050505081526020016001820180546105fc90610cf0565b80601f016020809104026020016040519081016040528092919081815260200182805461062890610cf0565b80156106735780601f1061064a57610100808354040283529160200191610673565b820191905f5260205f20905b81548152906001019060200180831161065657829003601f168201915b505050505081526020016002820154815250508152602001906001019061053c565b50505050905090565b604051806060016040528060608152602001606081526020015f81525090565b5f604051905090565b5f5ffd5b5f5ffd5b5f819050919050565b6106e1816106cf565b81146106eb575f5ffd5b50565b5f813590506106fc816106d8565b92915050565b5f60208284031215610717576107166106c7565b5b5f610724848285016106ee565b91505092915050565b5f81519050919050565b5f82825260208201905092915050565b8281835e5f83830152505050565b5f601f19601f8301169050919050565b5f61076f8261072d565b6107798185610737565b9350610789818560208601610747565b61079281610755565b840191505092915050565b5f81519050919050565b5f82825260208201905092915050565b5f6107c18261079d565b6107cb81856107a7565b93506107db818560208601610747565b6107e481610755565b840191505092915050565b6107f8816106cf565b82525050565b5f6060820190508181035f8301526108168186610765565b9050818103602083015261082a81856107b7565b905061083960408301846107ef565b949350505050565b5f5ffd5b5f5ffd5b7f4e487b71000000000000000000000000000000000000000000000000000000005f52604160045260245ffd5b61087f82610755565b810181811067ffffffffffffffff8211171561089e5761089d610849565b5b80604052505050565b5f6108b06106be565b90506108bc8282610876565b919050565b5f67ffffffffffffffff8211156108db576108da610849565b5b6108e482610755565b9050602081019050919050565b828183375f83830152505050565b5f61091161090c846108c1565b6108a7565b90508281526020810184848401111561092d5761092c610845565b5b6109388482856108f1565b509392505050565b5f82601f83011261095457610953610841565b5b81356109648482602086016108ff565b91505092915050565b5f67ffffffffffffffff82111561098757610986610849565b5b61099082610755565b9050602081019050919050565b5f6109af6109aa8461096d565b6108a7565b9050828152602081018484840111156109cb576109ca610845565b5b6109d68482856108f1565b509392505050565b5f82601f8301126109f2576109f1610841565b5b8135610a0284826020860161099d565b91505092915050565b5f5f60408385031215610a2157610a206106c7565b5b5f83013567ffffffffffffffff811115610a3e57610a3d6106cb565b5b610a4a85828601610940565b925050602083013567ffffffffffffffff811115610a6b57610a6a6106cb565b5b610a77858286016109de565b9150509250929050565b5f82825260208201905092915050565b5f610a9b8261072d565b610aa58185610a81565b9350610ab5818560208601610747565b610abe81610755565b840191505092915050565b5f82825260208201905092915050565b5f610ae38261079d565b610aed8185610ac9565b9350610afd818560208601610747565b610b0681610755565b840191505092915050565b610b1a816106cf565b82525050565b5f606083015f8301518482035f860152610b3a8282610a91565b91505060208301518482036020860152610b548282610ad9565b9150506040830151610b696040860182610b11565b508091505092915050565b5f6020820190508181035f830152610b8c8184610b20565b905092915050565b5f81519050919050565b5f82825260208201905092915050565b5f819050602082019050919050565b5f606083015f8301518482035f860152610bd78282610a91565b91505060208301518482036020860152610bf18282610ad9565b9150506040830151610c066040860182610b11565b508091505092915050565b5f610c1c8383610bbd565b905092915050565b5f602082019050919050565b5f610c3a82610b94565b610c448185610b9e565b935083602082028501610c5685610bae565b805f5b85811015610c915784840389528151610c728582610c11565b9450610c7d83610c24565b925060208a01995050600181019050610c59565b50829750879550505050505092915050565b5f6020820190508181035f830152610cbb8184610c30565b905092915050565b7f4e487b71000000000000000000000000000000000000000000000000000000005f52602260045260245ffd5b5f6002820490506001821680610d0757607f821691505b602082108103610d1a57610d19610cc3565b5b50919050565b7f50726f6a6563742049442069732072657175697265642e0000000000000000005f82015250565b5f610d54601783610737565b9150610d5f82610d20565b602082019050919050565b5f6020820190508181035f830152610d8181610d48565b9050919050565b7f50726f6a6563742068617368206d7573742062652033322062797465732e00005f82015250565b5f610dbc601e83610737565b9150610dc782610d88565b602082019050919050565b5f6020820190508181035f830152610de981610db0565b9050919050565b5f819050815f5260205f209050919050565b5f6020601f8301049050919050565b5f82821b905092915050565b5f60088302610e4c7fffffffffffffffffffffffffffffffffffffffffffffffffffffffffffffffff82610e11565b610e568683610e11565b95508019841693508086168417925050509392505050565b5f819050919050565b5f610e91610e8c610e87846106cf565b610e6e565b6106cf565b9050919050565b5f819050919050565b610eaa83610e77565b610ebe610eb682610e98565b848454610e1d565b825550505050565b5f5f905090565b610ed5610ec6565b610ee0818484610ea1565b505050565b5b81811015610f0357610ef85f82610ecd565b600181019050610ee6565b5050565b601f821115610f4857610f1981610df0565b610f2284610e02565b81016020851015610f31578190505b610f45610f3d85610e02565b830182610ee5565b50505b505050565b5f82821c905092915050565b5f610f685f1984600802610f4d565b1980831691505092915050565b5f610f808383610f59565b9150826002028217905092915050565b610f998261072d565b67ffffffffffffffff811115610fb257610fb1610849565b5b610fbc8254610cf0565b610fc7828285610f07565b5f60209050601f831160018114610ff8575f8415610fe6578287015190505b610ff08582610f75565b865550611057565b601f19841661100686610df0565b5f5b8281101561102d57848901518255600182019150602085019450602081019050611008565b8683101561104a5784890151611046601f891682610f59565b8355505b6001600288020188555050505b505050505050565b5f819050815f5260205f209050919050565b601f8211156110b2576110838161105f565b61108c84610e02565b8101602085101561109b578190505b6110af6110a785610e02565b830182610ee5565b50505b505050565b6110c08261079d565b67ffffffffffffffff8111156110d9576110d8610849565b5b6110e38254610cf0565b6110ee828285611071565b5f60209050601f83116001811461111f575f841561110d578287015190505b6111178582610f75565b86555061117e565b601f19841661112d8661105f565b5f5b828110156111545784890151825560018201915060208501945060208101905061112f565b86831015611171578489015161116d601f891682610f59565b8355505b6001600288020188555050505b505050505050565b7f50726f6a65637420646f6573206e6f742065786973742e0000000000000000005f82015250565b5f6111ba601783610737565b91506111c582611186565b602082019050919050565b5f6020820190508181035f8301526111e7816111ae565b9050919050565b7f4e487b71000000000000000000000000000000000000000000000000000000005f52603260045260245ffdfea26469706673582212204bc2f7b3e333de7213cdc1e4ca4eb070e2ccff082208acbac4fdb53356888b8364736f6c634300081c0033",
		"opcodes": "PUSH1 0x80 PUSH1 0x40 MSTORE CALLVALUE DUP1 ISZERO PUSH2 0xF JUMPI PUSH0 PUSH0 REVERT JUMPDEST POP PUSH1 0x4 CALLDATASIZE LT PUSH2 0x4A JUMPI PUSH0 CALLDATALOAD PUSH1 0xE0 SHR DUP1 PUSH4 0x107046BD EQ PUSH2 0x4E JUMPI DUP1 PUSH4 0x8AE6CBE8 EQ PUSH2 0x80 JUMPI DUP1 PUSH4 0xBEE5CDCA EQ PUSH2 0x9C JUMPI DUP1 PUSH4 0xDCC60128 EQ PUSH2 0xCC JUMPI JUMPDEST PUSH0 PUSH0 REVERT JUMPDEST PUSH2 0x68 PUSH1 0x4 DUP1 CALLDATASIZE SUB DUP2 ADD SWAP1 PUSH2 0x63 SWAP2 SWAP1 PUSH2 0x702 JUMP JUMPDEST PUSH2 0xEA JUMP JUMPDEST PUSH1 0x40 MLOAD PUSH2 0x77 SWAP4 SWAP3 SWAP2 SWAP1 PUSH2 0x7FE JUMP JUMPDEST PUSH1 0x40 MLOAD DUP1 SWAP2 SUB SWAP1 RETURN JUMPDEST PUSH2 0x9A PUSH1 0x4 DUP1 CALLDATASIZE SUB DUP2 ADD SWAP1 PUSH2 0x95 SWAP2 SWAP1 PUSH2 0xA0B JUMP JUMPDEST PUSH2 0x22A JUMP JUMPDEST STOP JUMPDEST PUSH2 0xB6 PUSH1 0x4 DUP1 CALLDATASIZE SUB DUP2 ADD SWAP1 PUSH2 0xB1 SWAP2 SWAP1 PUSH2 0x702 JUMP JUMPDEST PUSH2 0x372 JUMP JUMPDEST PUSH1 0x40 MLOAD PUSH2 0xC3 SWAP2 SWAP1 PUSH2 0xB74 JUMP JUMPDEST PUSH1 0x40 MLOAD DUP1 SWAP2 SUB SWAP1 RETURN JUMPDEST PUSH2 0xD4 PUSH2 0x51A JUMP JUMPDEST PUSH1 0x40 MLOAD PUSH2 0xE1 SWAP2 SWAP1 PUSH2 0xCA3 JUMP JUMPDEST PUSH1 0x40 MLOAD DUP1 SWAP2 SUB SWAP1 RETURN JUMPDEST PUSH0 DUP2 DUP2 SLOAD DUP2 LT PUSH2 0xF8 JUMPI PUSH0 DUP1 REVERT JUMPDEST SWAP1 PUSH0 MSTORE PUSH1 0x20 PUSH0 KECCAK256 SWAP1 PUSH1 0x3 MUL ADD PUSH0 SWAP2 POP SWAP1 POP DUP1 PUSH0 ADD DUP1 SLOAD PUSH2 0x117 SWAP1 PUSH2 0xCF0 JUMP JUMPDEST DUP1 PUSH1 0x1F ADD PUSH1 0x20 DUP1 SWAP2 DIV MUL PUSH1 0x20 ADD PUSH1 0x40 MLOAD SWAP1 DUP2 ADD PUSH1 0x40 MSTORE DUP1 SWAP3 SWAP2 SWAP1 DUP2 DUP2 MSTORE PUSH1 0x20 ADD DUP3 DUP1 SLOAD PUSH2 0x143 SWAP1 PUSH2 0xCF0 JUMP JUMPDEST DUP1 ISZERO PUSH2 0x18E JUMPI DUP1 PUSH1 0x1F LT PUSH2 0x165 JUMPI PUSH2 0x100 DUP1 DUP4 SLOAD DIV MUL DUP4 MSTORE SWAP2 PUSH1 0x20 ADD SWAP2 PUSH2 0x18E JUMP JUMPDEST DUP3 ADD SWAP2 SWAP1 PUSH0 MSTORE PUSH1 0x20 PUSH0 KECCAK256 SWAP1 JUMPDEST DUP2 SLOAD DUP2 MSTORE SWAP1 PUSH1 0x1 ADD SWAP1 PUSH1 0x20 ADD DUP1 DUP4 GT PUSH2 0x171 JUMPI DUP3 SWAP1 SUB PUSH1 0x1F AND DUP3 ADD SWAP2 JUMPDEST POP POP POP POP POP SWAP1 DUP1 PUSH1 0x1 ADD DUP1 SLOAD PUSH2 0x1A3 SWAP1 PUSH2 0xCF0 JUMP JUMPDEST DUP1 PUSH1 0x1F ADD PUSH1 0x20 DUP1 SWAP2 DIV MUL PUSH1 0x20 ADD PUSH1 0x40 MLOAD SWAP1 DUP2 ADD PUSH1 0x40 MSTORE DUP1 SWAP3 SWAP2 SWAP1 DUP2 DUP2 MSTORE PUSH1 0x20 ADD DUP3 DUP1 SLOAD PUSH2 0x1CF SWAP1 PUSH2 0xCF0 JUMP JUMPDEST DUP1 ISZERO PUSH2 0x21A JUMPI DUP1 PUSH1 0x1F LT PUSH2 0x1F1 JUMPI PUSH2 0x100 DUP1 DUP4 SLOAD DIV MUL DUP4 MSTORE SWAP2 PUSH1 0x20 ADD SWAP2 PUSH2 0x21A JUMP JUMPDEST DUP3 ADD SWAP2 SWAP1 PUSH0 MSTORE PUSH1 0x20 PUSH0 KECCAK256 SWAP1 JUMPDEST DUP2 SLOAD DUP2 MSTORE SWAP1 PUSH1 0x1 ADD SWAP1 PUSH1 0x20 ADD DUP1 DUP4 GT PUSH2 0x1FD JUMPI DUP3 SWAP1 SUB PUSH1 0x1F AND DUP3 ADD SWAP2 JUMPDEST POP POP POP POP POP SWAP1 DUP1 PUSH1 0x2 ADD SLOAD SWAP1 POP DUP4 JUMP JUMPDEST PUSH0 DUP3 MLOAD GT PUSH2 0x26D JUMPI PUSH1 0x40 MLOAD PUSH32 0x8C379A000000000000000000000000000000000000000000000000000000000 DUP2 MSTORE PUSH1 0x4 ADD PUSH2 0x264 SWAP1 PUSH2 0xD6A JUMP JUMPDEST PUSH1 0x40 MLOAD DUP1 SWAP2 SUB SWAP1 REVERT JUMPDEST PUSH1 0x20 DUP2 MLOAD EQ PUSH2 0x2B1 JUMPI PUSH1 0x40 MLOAD PUSH32 0x8C379A000000000000000000000000000000000000000000000000000000000 DUP2 MSTORE PUSH1 0x4 ADD PUSH2 0x2A8 SWAP1 PUSH2 0xDD2 JUMP JUMPDEST PUSH1 0x40 MLOAD DUP1 SWAP2 SUB SWAP1 REVERT JUMPDEST PUSH0 PUSH0 DUP1 SLOAD SWAP1 POP SWAP1 POP PUSH0 PUSH1 0x40 MLOAD DUP1 PUSH1 0x60 ADD PUSH1 0x40 MSTORE DUP1 DUP6 DUP2 MSTORE PUSH1 0x20 ADD DUP5 DUP2 MSTORE PUSH1 0x20 ADD TIMESTAMP DUP2 MSTORE POP SWAP1 DUP1 PUSH1 0x1 DUP2 SLOAD ADD DUP1 DUP3 SSTORE DUP1 SWAP2 POP POP PUSH1 0x1 SWAP1 SUB SWAP1 PUSH0 MSTORE PUSH1 0x20 PUSH0 KECCAK256 SWAP1 PUSH1 0x3 MUL ADD PUSH0 SWAP1 SWAP2 SWAP1 SWAP2 SWAP1 SWAP2 POP PUSH0 DUP3 ADD MLOAD DUP2 PUSH0 ADD SWAP1 DUP2 PUSH2 0x30E SWAP2 SWAP1 PUSH2 0xF90 JUMP JUMPDEST POP PUSH1 0x20 DUP3 ADD MLOAD DUP2 PUSH1 0x1 ADD SWAP1 DUP2 PUSH2 0x324 SWAP2 SWAP1 PUSH2 0x10B7 JUMP JUMPDEST POP PUSH1 0x40 DUP3 ADD MLOAD DUP2 PUSH1 0x2 ADD SSTORE POP POP DUP1 PUSH32 0xA8094AA947A1DE718368F91354A0FDE9FB961A0BCD7F9024ED54ABD38AC5108C DUP5 DUP5 TIMESTAMP PUSH1 0x40 MLOAD PUSH2 0x365 SWAP4 SWAP3 SWAP2 SWAP1 PUSH2 0x7FE JUMP JUMPDEST PUSH1 0x40 MLOAD DUP1 SWAP2 SUB SWAP1 LOG2 POP POP POP JUMP JUMPDEST PUSH2 0x37A PUSH2 0x69E JUMP JUMPDEST PUSH0 DUP1 SLOAD SWAP1 POP DUP3 LT PUSH2 0x3C0 JUMPI PUSH1 0x40 MLOAD PUSH32 0x8C379A000000000000000000000000000000000000000000000000000000000 DUP2 MSTORE PUSH1 0x4 ADD PUSH2 0x3B7 SWAP1 PUSH2 0x11D0 JUMP JUMPDEST PUSH1 0x40 MLOAD DUP1 SWAP2 SUB SWAP1 REVERT JUMPDEST PUSH0 DUP3 DUP2 SLOAD DUP2 LT PUSH2 0x3D3 JUMPI PUSH2 0x3D2 PUSH2 0x11EE JUMP JUMPDEST JUMPDEST SWAP1 PUSH0 MSTORE PUSH1 0x20 PUSH0 KECCAK256 SWAP1 PUSH1 0x3 MUL ADD PUSH1 0x40 MLOAD DUP1 PUSH1 0x60 ADD PUSH1 0x40 MSTORE SWAP1 DUP2 PUSH0 DUP3 ADD DUP1 SLOAD PUSH2 0x3F9 SWAP1 PUSH2 0xCF0 JUMP JUMPDEST DUP1 PUSH1 0x1F ADD PUSH1 0x20 DUP1 SWAP2 DIV MUL PUSH1 0x20 ADD PUSH1 0x40 MLOAD SWAP1 DUP2 ADD PUSH1 0x40 MSTORE DUP1 SWAP3 SWAP2 SWAP1 DUP2 DUP2 MSTORE PUSH1 0x20 ADD DUP3 DUP1 SLOAD PUSH2 0x425 SWAP1 PUSH2 0xCF0 JUMP JUMPDEST DUP1 ISZERO PUSH2 0x470 JUMPI DUP1 PUSH1 0x1F LT PUSH2 0x447 JUMPI PUSH2 0x100 DUP1 DUP4 SLOAD DIV MUL DUP4 MSTORE SWAP2 PUSH1 0x20 ADD SWAP2 PUSH2 0x470 JUMP JUMPDEST DUP3 ADD SWAP2 SWAP1 PUSH0 MSTORE PUSH1 0x20 PUSH0 KECCAK256 SWAP1 JUMPDEST DUP2 SLOAD DUP2 MSTORE SWAP1 PUSH1 0x1 ADD SWAP1 PUSH1 0x20 ADD DUP1 DUP4 GT PUSH2 0x453 JUMPI DUP3 SWAP1 SUB PUSH1 0x1F AND DUP3 ADD SWAP2 JUMPDEST POP POP POP POP POP DUP2 MSTORE PUSH1 0x20 ADD PUSH1 0x1 DUP3 ADD DUP1 SLOAD PUSH2 0x489 SWAP1 PUSH2 0xCF0 JUMP JUMPDEST DUP1 PUSH1 0x1F ADD PUSH1 0x20 DUP1 SWAP2 DIV MUL PUSH1 0x20 ADD PUSH1 0x40 MLOAD SWAP1 DUP2 ADD PUSH1 0x40 MSTORE DUP1 SWAP3 SWAP2 SWAP1 DUP2 DUP2 MSTORE PUSH1 0x20 ADD DUP3 DUP1 SLOAD PUSH2 0x4B5 SWAP1 PUSH2 0xCF0 JUMP JUMPDEST DUP1 ISZERO PUSH2 0x500 JUMPI DUP1 PUSH1 0x1F LT PUSH2 0x4D7 JUMPI PUSH2 0x100 DUP1 DUP4 SLOAD DIV MUL DUP4 MSTORE SWAP2 PUSH1 0x20 ADD SWAP2 PUSH2 0x500 JUMP JUMPDEST DUP3 ADD SWAP2 SWAP1 PUSH0 MSTORE PUSH1 0x20 PUSH0 KECCAK256 SWAP1 JUMPDEST DUP2 SLOAD DUP2 MSTORE SWAP1 PUSH1 0x1 ADD SWAP1 PUSH1 0x20 ADD DUP1 DUP4 GT PUSH2 0x4E3 JUMPI DUP3 SWAP1 SUB PUSH1 0x1F AND DUP3 ADD SWAP2 JUMPDEST POP POP POP POP POP DUP2 MSTORE PUSH1 0x20 ADD PUSH1 0x2 DUP3 ADD SLOAD DUP2 MSTORE POP POP SWAP1 POP SWAP2 SWAP1 POP JUMP JUMPDEST PUSH1 0x60 PUSH0 DUP1 SLOAD DUP1 PUSH1 0x20 MUL PUSH1 0x20 ADD PUSH1 0x40 MLOAD SWAP1 DUP2 ADD PUSH1 0x40 MSTORE DUP1 SWAP3 SWAP2 SWAP1 DUP2 DUP2 MSTORE PUSH1 0x20 ADD PUSH0 SWAP1 JUMPDEST DUP3 DUP3 LT ISZERO PUSH2 0x695 JUMPI DUP4 DUP3 SWAP1 PUSH0 MSTORE PUSH1 0x20 PUSH0 KECCAK256 SWAP1 PUSH1 0x3 MUL ADD PUSH1 0x40 MLOAD DUP1 PUSH1 0x60 ADD PUSH1 0x40 MSTORE SWAP1 DUP2 PUSH0 DUP3 ADD DUP1 SLOAD PUSH2 0x56C SWAP1 PUSH2 0xCF0 JUMP JUMPDEST DUP1 PUSH1 0x1F ADD PUSH1 0x20 DUP1 SWAP2 DIV MUL PUSH1 0x20 ADD PUSH1 0x40 MLOAD SWAP1 DUP2 ADD PUSH1 0x40 MSTORE DUP1 SWAP3 SWAP2 SWAP1 DUP2 DUP2 MSTORE PUSH1 0x20 ADD DUP3 DUP1 SLOAD PUSH2 0x598 SWAP1 PUSH2 0xCF0 JUMP JUMPDEST DUP1 ISZERO PUSH2 0x5E3 JUMPI DUP1 PUSH1 0x1F LT PUSH2 0x5BA JUMPI PUSH2 0x100 DUP1 DUP4 SLOAD DIV MUL DUP4 MSTORE SWAP2 PUSH1 0x20 ADD SWAP2 PUSH2 0x5E3 JUMP JUMPDEST DUP3 ADD SWAP2 SWAP1 PUSH0 MSTORE PUSH1 0x20 PUSH0 KECCAK256 SWAP1 JUMPDEST DUP2 SLOAD DUP2 MSTORE SWAP1 PUSH1 0x1 ADD SWAP1 PUSH1 0x20 ADD DUP1 DUP4 GT PUSH2 0x5C6 JUMPI DUP3 SWAP1 SUB PUSH1 0x1F AND DUP3 ADD SWAP2 JUMPDEST POP POP POP POP POP DUP2 MSTORE PUSH1 0x20 ADD PUSH1 0x1 DUP3 ADD DUP1 SLOAD PUSH2 0x5FC SWAP1 PUSH2 0xCF0 JUMP JUMPDEST DUP1 PUSH1 0x1F ADD PUSH1 0x20 DUP1 SWAP2 DIV MUL PUSH1 0x20 ADD PUSH1 0x40 MLOAD SWAP1 DUP2 ADD PUSH1 0x40 MSTORE DUP1 SWAP3 SWAP2 SWAP1 DUP2 DUP2 MSTORE PUSH1 0x20 ADD DUP3 DUP1 SLOAD PUSH2 0x628 SWAP1 PUSH2 0xCF0 JUMP JUMPDEST DUP1 ISZERO PUSH2 0x673 JUMPI DUP1 PUSH1 0x1F LT PUSH2 0x64A JUMPI PUSH2 0x100 DUP1 DUP4 SLOAD DIV MUL DUP4 MSTORE SWAP2 PUSH1 0x20 ADD SWAP2 PUSH2 0x673 JUMP JUMPDEST DUP3 ADD SWAP2 SWAP1 PUSH0 MSTORE PUSH1 0x20 PUSH0 KECCAK256 SWAP1 JUMPDEST DUP2 SLOAD DUP2 MSTORE SWAP1 PUSH1 0x1 ADD SWAP1 PUSH1 0x20 ADD DUP1 DUP4 GT PUSH2 0x656 JUMPI DUP3 SWAP1 SUB PUSH1 0x1F AND DUP3 ADD SWAP2 JUMPDEST POP POP POP POP POP DUP2 MSTORE PUSH1 0x20 ADD PUSH1 0x2 DUP3 ADD SLOAD DUP2 MSTORE POP POP DUP2 MSTORE PUSH1 0x20 ADD SWAP1 PUSH1 0x1 ADD SWAP1 PUSH2 0x53C JUMP JUMPDEST POP POP POP POP SWAP1 POP SWAP1 JUMP JUMPDEST PUSH1 0x40 MLOAD DUP1 PUSH1 0x60 ADD PUSH1 0x40 MSTORE DUP1 PUSH1 0x60 DUP2 MSTORE PUSH1 0x20 ADD PUSH1 0x60 DUP2 MSTORE PUSH1 0x20 ADD PUSH0 DUP2 MSTORE POP SWAP1 JUMP JUMPDEST PUSH0 PUSH1 0x40 MLOAD SWAP1 POP SWAP1 JUMP JUMPDEST PUSH0 PUSH0 REVERT JUMPDEST PUSH0 PUSH0 REVERT JUMPDEST PUSH0 DUP2 SWAP1 POP SWAP2 SWAP1 POP JUMP JUMPDEST PUSH2 0x6E1 DUP2 PUSH2 0x6CF JUMP JUMPDEST DUP2 EQ PUSH2 0x6EB JUMPI PUSH0 PUSH0 REVERT JUMPDEST POP JUMP JUMPDEST PUSH0 DUP2 CALLDATALOAD SWAP1 POP PUSH2 0x6FC DUP2 PUSH2 0x6D8 JUMP JUMPDEST SWAP3 SWAP2 POP POP JUMP JUMPDEST PUSH0 PUSH1 0x20 DUP3 DUP5 SUB SLT ISZERO PUSH2 0x717 JUMPI PUSH2 0x716 PUSH2 0x6C7 JUMP JUMPDEST JUMPDEST PUSH0 PUSH2 0x724 DUP5 DUP3 DUP6 ADD PUSH2 0x6EE JUMP JUMPDEST SWAP2 POP POP SWAP3 SWAP2 POP POP JUMP JUMPDEST PUSH0 DUP2 MLOAD SWAP1 POP SWAP2 SWAP1 POP JUMP JUMPDEST PUSH0 DUP3 DUP3 MSTORE PUSH1 0x20 DUP3 ADD SWAP1 POP SWAP3 SWAP2 POP POP JUMP JUMPDEST DUP3 DUP2 DUP4 MCOPY PUSH0 DUP4 DUP4 ADD MSTORE POP POP POP JUMP JUMPDEST PUSH0 PUSH1 0x1F NOT PUSH1 0x1F DUP4 ADD AND SWAP1 POP SWAP2 SWAP1 POP JUMP JUMPDEST PUSH0 PUSH2 0x76F DUP3 PUSH2 0x72D JUMP JUMPDEST PUSH2 0x779 DUP2 DUP6 PUSH2 0x737 JUMP JUMPDEST SWAP4 POP PUSH2 0x789 DUP2 DUP6 PUSH1 0x20 DUP7 ADD PUSH2 0x747 JUMP JUMPDEST PUSH2 0x792 DUP2 PUSH2 0x755 JUMP JUMPDEST DUP5 ADD SWAP2 POP POP SWAP3 SWAP2 POP POP JUMP JUMPDEST PUSH0 DUP2 MLOAD SWAP1 POP SWAP2 SWAP1 POP JUMP JUMPDEST PUSH0 DUP3 DUP3 MSTORE PUSH1 0x20 DUP3 ADD SWAP1 POP SWAP3 SWAP2 POP POP JUMP JUMPDEST PUSH0 PUSH2 0x7C1 DUP3 PUSH2 0x79D JUMP JUMPDEST PUSH2 0x7CB DUP2 DUP6 PUSH2 0x7A7 JUMP JUMPDEST SWAP4 POP PUSH2 0x7DB DUP2 DUP6 PUSH1 0x20 DUP7 ADD PUSH2 0x747 JUMP JUMPDEST PUSH2 0x7E4 DUP2 PUSH2 0x755 JUMP JUMPDEST DUP5 ADD SWAP2 POP POP SWAP3 SWAP2 POP POP JUMP JUMPDEST PUSH2 0x7F8 DUP2 PUSH2 0x6CF JUMP JUMPDEST DUP3 MSTORE POP POP JUMP JUMPDEST PUSH0 PUSH1 0x60 DUP3 ADD SWAP1 POP DUP2 DUP2 SUB PUSH0 DUP4 ADD MSTORE PUSH2 0x816 DUP2 DUP7 PUSH2 0x765 JUMP JUMPDEST SWAP1 POP DUP2 DUP2 SUB PUSH1 0x20 DUP4 ADD MSTORE PUSH2 0x82A DUP2 DUP6 PUSH2 0x7B7 JUMP JUMPDEST SWAP1 POP PUSH2 0x839 PUSH1 0x40 DUP4 ADD DUP5 PUSH2 0x7EF JUMP JUMPDEST SWAP5 SWAP4 POP POP POP POP JUMP JUMPDEST PUSH0 PUSH0 REVERT JUMPDEST PUSH0 PUSH0 REVERT JUMPDEST PUSH32 0x4E487B7100000000000000000000000000000000000000000000000000000000 PUSH0 MSTORE PUSH1 0x41 PUSH1 0x4 MSTORE PUSH1 0x24 PUSH0 REVERT JUMPDEST PUSH2 0x87F DUP3 PUSH2 0x755 JUMP JUMPDEST DUP2 ADD DUP2 DUP2 LT PUSH8 0xFFFFFFFFFFFFFFFF DUP3 GT OR ISZERO PUSH2 0x89E JUMPI PUSH2 0x89D PUSH2 0x849 JUMP JUMPDEST JUMPDEST DUP1 PUSH1 0x40 MSTORE POP POP POP JUMP JUMPDEST PUSH0 PUSH2 0x8B0 PUSH2 0x6BE JUMP JUMPDEST SWAP1 POP PUSH2 0x8BC DUP3 DUP3 PUSH2 0x876 JUMP JUMPDEST SWAP2 SWAP1 POP JUMP JUMPDEST PUSH0 PUSH8 0xFFFFFFFFFFFFFFFF DUP3 GT ISZERO PUSH2 0x8DB JUMPI PUSH2 0x8DA PUSH2 0x849 JUMP JUMPDEST JUMPDEST PUSH2 0x8E4 DUP3 PUSH2 0x755 JUMP JUMPDEST SWAP1 POP PUSH1 0x20 DUP2 ADD SWAP1 POP SWAP2 SWAP1 POP JUMP JUMPDEST DUP3 DUP2 DUP4 CALLDATACOPY PUSH0 DUP4 DUP4 ADD MSTORE POP POP POP JUMP JUMPDEST PUSH0 PUSH2 0x911 PUSH2 0x90C DUP5 PUSH2 0x8C1 JUMP JUMPDEST PUSH2 0x8A7 JUMP JUMPDEST SWAP1 POP DUP3 DUP2 MSTORE PUSH1 0x20 DUP2 ADD DUP5 DUP5 DUP5 ADD GT ISZERO PUSH2 0x92D JUMPI PUSH2 0x92C PUSH2 0x845 JUMP JUMPDEST JUMPDEST PUSH2 0x938 DUP5 DUP3 DUP6 PUSH2 0x8F1 JUMP JUMPDEST POP SWAP4 SWAP3 POP POP POP JUMP JUMPDEST PUSH0 DUP3 PUSH1 0x1F DUP4 ADD SLT PUSH2 0x954 JUMPI PUSH2 0x953 PUSH2 0x841 JUMP JUMPDEST JUMPDEST DUP2 CALLDATALOAD PUSH2 0x964 DUP5 DUP3 PUSH1 0x20 DUP7 ADD PUSH2 0x8FF JUMP JUMPDEST SWAP2 POP POP SWAP3 SWAP2 POP POP JUMP JUMPDEST PUSH0 PUSH8 0xFFFFFFFFFFFFFFFF DUP3 GT ISZERO PUSH2 0x987 JUMPI PUSH2 0x986 PUSH2 0x849 JUMP JUMPDEST JUMPDEST PUSH2 0x990 DUP3 PUSH2 0x755 JUMP JUMPDEST SWAP1 POP PUSH1 0x20 DUP2 ADD SWAP1 POP SWAP2 SWAP1 POP JUMP JUMPDEST PUSH0 PUSH2 0x9AF PUSH2 0x9AA DUP5 PUSH2 0x96D JUMP JUMPDEST PUSH2 0x8A7 JUMP JUMPDEST SWAP1 POP DUP3 DUP2 MSTORE PUSH1 0x20 DUP2 ADD DUP5 DUP5 DUP5 ADD GT ISZERO PUSH2 0x9CB JUMPI PUSH2 0x9CA PUSH2 0x845 JUMP JUMPDEST JUMPDEST PUSH2 0x9D6 DUP5 DUP3 DUP6 PUSH2 0x8F1 JUMP JUMPDEST POP SWAP4 SWAP3 POP POP POP JUMP JUMPDEST PUSH0 DUP3 PUSH1 0x1F DUP4 ADD SLT PUSH2 0x9F2 JUMPI PUSH2 0x9F1 PUSH2 0x841 JUMP JUMPDEST JUMPDEST DUP2 CALLDATALOAD PUSH2 0xA02 DUP5 DUP3 PUSH1 0x20 DUP7 ADD PUSH2 0x99D JUMP JUMPDEST SWAP2 POP POP SWAP3 SWAP2 POP POP JUMP JUMPDEST PUSH0 PUSH0 PUSH1 0x40 DUP4 DUP6 SUB SLT ISZERO PUSH2 0xA21 JUMPI PUSH2 0xA20 PUSH2 0x6C7 JUMP JUMPDEST JUMPDEST PUSH0 DUP4 ADD CALLDATALOAD PUSH8 0xFFFFFFFFFFFFFFFF DUP2 GT ISZERO PUSH2 0xA3E JUMPI PUSH2 0xA3D PUSH2 0x6CB JUMP JUMPDEST JUMPDEST PUSH2 0xA4A DUP6 DUP3 DUP7 ADD PUSH2 0x940 JUMP JUMPDEST SWAP3 POP POP PUSH1 0x20 DUP4 ADD CALLDATALOAD PUSH8 0xFFFFFFFFFFFFFFFF DUP2 GT ISZERO PUSH2 0xA6B JUMPI PUSH2 0xA6A PUSH2 0x6CB JUMP JUMPDEST JUMPDEST PUSH2 0xA77 DUP6 DUP3 DUP7 ADD PUSH2 0x9DE JUMP JUMPDEST SWAP2 POP POP SWAP3 POP SWAP3 SWAP1 POP JUMP JUMPDEST PUSH0 DUP3 DUP3 MSTORE PUSH1 0x20 DUP3 ADD SWAP1 POP SWAP3 SWAP2 POP POP JUMP JUMPDEST PUSH0 PUSH2 0xA9B DUP3 PUSH2 0x72D JUMP JUMPDEST PUSH2 0xAA5 DUP2 DUP6 PUSH2 0xA81 JUMP JUMPDEST SWAP4 POP PUSH2 0xAB5 DUP2 DUP6 PUSH1 0x20 DUP7 ADD PUSH2 0x747 JUMP JUMPDEST PUSH2 0xABE DUP2 PUSH2 0x755 JUMP JUMPDEST DUP5 ADD SWAP2 POP POP SWAP3 SWAP2 POP POP JUMP JUMPDEST PUSH0 DUP3 DUP3 MSTORE PUSH1 0x20 DUP3 ADD SWAP1 POP SWAP3 SWAP2 POP POP JUMP JUMPDEST PUSH0 PUSH2 0xAE3 DUP3 PUSH2 0x79D JUMP JUMPDEST PUSH2 0xAED DUP2 DUP6 PUSH2 0xAC9 JUMP JUMPDEST SWAP4 POP PUSH2 0xAFD DUP2 DUP6 PUSH1 0x20 DUP7 ADD PUSH2 0x747 JUMP JUMPDEST PUSH2 0xB06 DUP2 PUSH2 0x755 JUMP JUMPDEST DUP5 ADD SWAP2 POP POP SWAP3 SWAP2 POP POP JUMP JUMPDEST PUSH2 0xB1A DUP2 PUSH2 0x6CF JUMP JUMPDEST DUP3 MSTORE POP POP JUMP JUMPDEST PUSH0 PUSH1 0x60 DUP4 ADD PUSH0 DUP4 ADD MLOAD DUP5 DUP3 SUB PUSH0 DUP7 ADD MSTORE PUSH2 0xB3A DUP3 DUP3 PUSH2 0xA91 JUMP JUMPDEST SWAP2 POP POP PUSH1 0x20 DUP4 ADD MLOAD DUP5 DUP3 SUB PUSH1 0x20 DUP7 ADD MSTORE PUSH2 0xB54 DUP3 DUP3 PUSH2 0xAD9 JUMP JUMPDEST SWAP2 POP POP PUSH1 0x40 DUP4 ADD MLOAD PUSH2 0xB69 PUSH1 0x40 DUP7 ADD DUP3 PUSH2 0xB11 JUMP JUMPDEST POP DUP1 SWAP2 POP POP SWAP3 SWAP2 POP POP JUMP JUMPDEST PUSH0 PUSH1 0x20 DUP3 ADD SWAP1 POP DUP2 DUP2 SUB PUSH0 DUP4 ADD MSTORE PUSH2 0xB8C DUP2 DUP5 PUSH2 0xB20 JUMP JUMPDEST SWAP1 POP SWAP3 SWAP2 POP POP JUMP JUMPDEST PUSH0 DUP2 MLOAD SWAP1 POP SWAP2 SWAP1 POP JUMP JUMPDEST PUSH0 DUP3 DUP3 MSTORE PUSH1 0x20 DUP3 ADD SWAP1 POP SWAP3 SWAP2 POP POP JUMP JUMPDEST PUSH0 DUP2 SWAP1 POP PUSH1 0x20 DUP3 ADD SWAP1 POP SWAP2 SWAP1 POP JUMP JUMPDEST PUSH0 PUSH1 0x60 DUP4 ADD PUSH0 DUP4 ADD MLOAD DUP5 DUP3 SUB PUSH0 DUP7 ADD MSTORE PUSH2 0xBD7 DUP3 DUP3 PUSH2 0xA91 JUMP JUMPDEST SWAP2 POP POP PUSH1 0x20 DUP4 ADD MLOAD DUP5 DUP3 SUB PUSH1 0x20 DUP7 ADD MSTORE PUSH2 0xBF1 DUP3 DUP3 PUSH2 0xAD9 JUMP JUMPDEST SWAP2 POP POP PUSH1 0x40 DUP4 ADD MLOAD PUSH2 0xC06 PUSH1 0x40 DUP7 ADD DUP3 PUSH2 0xB11 JUMP JUMPDEST POP DUP1 SWAP2 POP POP SWAP3 SWAP2 POP POP JUMP JUMPDEST PUSH0 PUSH2 0xC1C DUP4 DUP4 PUSH2 0xBBD JUMP JUMPDEST SWAP1 POP SWAP3 SWAP2 POP POP JUMP JUMPDEST PUSH0 PUSH1 0x20 DUP3 ADD SWAP1 POP SWAP2 SWAP1 POP JUMP JUMPDEST PUSH0 PUSH2 0xC3A DUP3 PUSH2 0xB94 JUMP JUMPDEST PUSH2 0xC44 DUP2 DUP6 PUSH2 0xB9E JUMP JUMPDEST SWAP4 POP DUP4 PUSH1 0x20 DUP3 MUL DUP6 ADD PUSH2 0xC56 DUP6 PUSH2 0xBAE JUMP JUMPDEST DUP1 PUSH0 JUMPDEST DUP6 DUP2 LT ISZERO PUSH2 0xC91 JUMPI DUP5 DUP5 SUB DUP10 MSTORE DUP2 MLOAD PUSH2 0xC72 DUP6 DUP3 PUSH2 0xC11 JUMP JUMPDEST SWAP5 POP PUSH2 0xC7D DUP4 PUSH2 0xC24 JUMP JUMPDEST SWAP3 POP PUSH1 0x20 DUP11 ADD SWAP10 POP POP PUSH1 0x1 DUP2 ADD SWAP1 POP PUSH2 0xC59 JUMP JUMPDEST POP DUP3 SWAP8 POP DUP8 SWAP6 POP POP POP POP POP POP SWAP3 SWAP2 POP POP JUMP JUMPDEST PUSH0 PUSH1 0x20 DUP3 ADD SWAP1 POP DUP2 DUP2 SUB PUSH0 DUP4 ADD MSTORE PUSH2 0xCBB DUP2 DUP5 PUSH2 0xC30 JUMP JUMPDEST SWAP1 POP SWAP3 SWAP2 POP POP JUMP JUMPDEST PUSH32 0x4E487B7100000000000000000000000000000000000000000000000000000000 PUSH0 MSTORE PUSH1 0x22 PUSH1 0x4 MSTORE PUSH1 0x24 PUSH0 REVERT JUMPDEST PUSH0 PUSH1 0x2 DUP3 DIV SWAP1 POP PUSH1 0x1 DUP3 AND DUP1 PUSH2 0xD07 JUMPI PUSH1 0x7F DUP3 AND SWAP2 POP JUMPDEST PUSH1 0x20 DUP3 LT DUP2 SUB PUSH2 0xD1A JUMPI PUSH2 0xD19 PUSH2 0xCC3 JUMP JUMPDEST JUMPDEST POP SWAP2 SWAP1 POP JUMP JUMPDEST PUSH32 0x50726F6A6563742049442069732072657175697265642E000000000000000000 PUSH0 DUP3 ADD MSTORE POP JUMP JUMPDEST PUSH0 PUSH2 0xD54 PUSH1 0x17 DUP4 PUSH2 0x737 JUMP JUMPDEST SWAP2 POP PUSH2 0xD5F DUP3 PUSH2 0xD20 JUMP JUMPDEST PUSH1 0x20 DUP3 ADD SWAP1 POP SWAP2 SWAP1 POP JUMP JUMPDEST PUSH0 PUSH1 0x20 DUP3 ADD SWAP1 POP DUP2 DUP2 SUB PUSH0 DUP4 ADD MSTORE PUSH2 0xD81 DUP2 PUSH2 0xD48 JUMP JUMPDEST SWAP1 POP SWAP2 SWAP1 POP JUMP JUMPDEST PUSH32 0x50726F6A6563742068617368206D7573742062652033322062797465732E0000 PUSH0 DUP3 ADD MSTORE POP JUMP JUMPDEST PUSH0 PUSH2 0xDBC PUSH1 0x1E DUP4 PUSH2 0x737 JUMP JUMPDEST SWAP2 POP PUSH2 0xDC7 DUP3 PUSH2 0xD88 JUMP JUMPDEST PUSH1 0x20 DUP3 ADD SWAP1 POP SWAP2 SWAP1 POP JUMP JUMPDEST PUSH0 PUSH1 0x20 DUP3 ADD SWAP1 POP DUP2 DUP2 SUB PUSH0 DUP4 ADD MSTORE PUSH2 0xDE9 DUP2 PUSH2 0xDB0 JUMP JUMPDEST SWAP1 POP SWAP2 SWAP1 POP JUMP JUMPDEST PUSH0 DUP2 SWAP1 POP DUP2 PUSH0 MSTORE PUSH1 0x20 PUSH0 KECCAK256 SWAP1 POP SWAP2 SWAP1 POP JUMP JUMPDEST PUSH0 PUSH1 0x20 PUSH1 0x1F DUP4 ADD DIV SWAP1 POP SWAP2 SWAP1 POP JUMP JUMPDEST PUSH0 DUP3 DUP3 SHL SWAP1 POP SWAP3 SWAP2 POP POP JUMP JUMPDEST PUSH0 PUSH1 0x8 DUP4 MUL PUSH2 0xE4C PUSH32 0xFFFFFFFFFFFFFFFFFFFFFFFFFFFFFFFFFFFFFFFFFFFFFFFFFFFFFFFFFFFFFFFF DUP3 PUSH2 0xE11 JUMP JUMPDEST PUSH2 0xE56 DUP7 DUP4 PUSH2 0xE11 JUMP JUMPDEST SWAP6 POP DUP1 NOT DUP5 AND SWAP4 POP DUP1 DUP7 AND DUP5 OR SWAP3 POP POP POP SWAP4 SWAP3 POP POP POP JUMP JUMPDEST PUSH0 DUP2 SWAP1 POP SWAP2 SWAP1 POP JUMP JUMPDEST PUSH0 PUSH2 0xE91 PUSH2 0xE8C PUSH2 0xE87 DUP5 PUSH2 0x6CF JUMP JUMPDEST PUSH2 0xE6E JUMP JUMPDEST PUSH2 0x6CF JUMP JUMPDEST SWAP1 POP SWAP2 SWAP1 POP JUMP JUMPDEST PUSH0 DUP2 SWAP1 POP SWAP2 SWAP1 POP JUMP JUMPDEST PUSH2 0xEAA DUP4 PUSH2 0xE77 JUMP JUMPDEST PUSH2 0xEBE PUSH2 0xEB6 DUP3 PUSH2 0xE98 JUMP JUMPDEST DUP5 DUP5 SLOAD PUSH2 0xE1D JUMP JUMPDEST DUP3 SSTORE POP POP POP POP JUMP JUMPDEST PUSH0 PUSH0 SWAP1 POP SWAP1 JUMP JUMPDEST PUSH2 0xED5 PUSH2 0xEC6 JUMP JUMPDEST PUSH2 0xEE0 DUP2 DUP5 DUP5 PUSH2 0xEA1 JUMP JUMPDEST POP POP POP JUMP JUMPDEST JUMPDEST DUP2 DUP2 LT ISZERO PUSH2 0xF03 JUMPI PUSH2 0xEF8 PUSH0 DUP3 PUSH2 0xECD JUMP JUMPDEST PUSH1 0x1 DUP2 ADD SWAP1 POP PUSH2 0xEE6 JUMP JUMPDEST POP POP JUMP JUMPDEST PUSH1 0x1F DUP3 GT ISZERO PUSH2 0xF48 JUMPI PUSH2 0xF19 DUP2 PUSH2 0xDF0 JUMP JUMPDEST PUSH2 0xF22 DUP5 PUSH2 0xE02 JUMP JUMPDEST DUP2 ADD PUSH1 0x20 DUP6 LT ISZERO PUSH2 0xF31 JUMPI DUP2 SWAP1 POP JUMPDEST PUSH2 0xF45 PUSH2 0xF3D DUP6 PUSH2 0xE02 JUMP JUMPDEST DUP4 ADD DUP3 PUSH2 0xEE5 JUMP JUMPDEST POP POP JUMPDEST POP POP POP JUMP JUMPDEST PUSH0 DUP3 DUP3 SHR SWAP1 POP SWAP3 SWAP2 POP POP JUMP JUMPDEST PUSH0 PUSH2 0xF68 PUSH0 NOT DUP5 PUSH1 0x8 MUL PUSH2 0xF4D JUMP JUMPDEST NOT DUP1 DUP4 AND SWAP2 POP POP SWAP3 SWAP2 POP POP JUMP JUMPDEST PUSH0 PUSH2 0xF80 DUP4 DUP4 PUSH2 0xF59 JUMP JUMPDEST SWAP2 POP DUP3 PUSH1 0x2 MUL DUP3 OR SWAP1 POP SWAP3 SWAP2 POP POP JUMP JUMPDEST PUSH2 0xF99 DUP3 PUSH2 0x72D JUMP JUMPDEST PUSH8 0xFFFFFFFFFFFFFFFF DUP2 GT ISZERO PUSH2 0xFB2 JUMPI PUSH2 0xFB1 PUSH2 0x849 JUMP JUMPDEST JUMPDEST PUSH2 0xFBC DUP3 SLOAD PUSH2 0xCF0 JUMP JUMPDEST PUSH2 0xFC7 DUP3 DUP3 DUP6 PUSH2 0xF07 JUMP JUMPDEST PUSH0 PUSH1 0x20 SWAP1 POP PUSH1 0x1F DUP4 GT PUSH1 0x1 DUP2 EQ PUSH2 0xFF8 JUMPI PUSH0 DUP5 ISZERO PUSH2 0xFE6 JUMPI DUP3 DUP8 ADD MLOAD SWAP1 POP JUMPDEST PUSH2 0xFF0 DUP6 DUP3 PUSH2 0xF75 JUMP JUMPDEST DUP7 SSTORE POP PUSH2 0x1057 JUMP JUMPDEST PUSH1 0x1F NOT DUP5 AND PUSH2 0x1006 DUP7 PUSH2 0xDF0 JUMP JUMPDEST PUSH0 JUMPDEST DUP3 DUP2 LT ISZERO PUSH2 0x102D JUMPI DUP5 DUP10 ADD MLOAD DUP3 SSTORE PUSH1 0x1 DUP3 ADD SWAP2 POP PUSH1 0x20 DUP6 ADD SWAP5 POP PUSH1 0x20 DUP2 ADD SWAP1 POP PUSH2 0x1008 JUMP JUMPDEST DUP7 DUP4 LT ISZERO PUSH2 0x104A JUMPI DUP5 DUP10 ADD MLOAD PUSH2 0x1046 PUSH1 0x1F DUP10 AND DUP3 PUSH2 0xF59 JUMP JUMPDEST DUP4 SSTORE POP JUMPDEST PUSH1 0x1 PUSH1 0x2 DUP9 MUL ADD DUP9 SSTORE POP POP POP JUMPDEST POP POP POP POP POP POP JUMP JUMPDEST PUSH0 DUP2 SWAP1 POP DUP2 PUSH0 MSTORE PUSH1 0x20 PUSH0 KECCAK256 SWAP1 POP SWAP2 SWAP1 POP JUMP JUMPDEST PUSH1 0x1F DUP3 GT ISZERO PUSH2 0x10B2 JUMPI PUSH2 0x1083 DUP2 PUSH2 0x105F JUMP JUMPDEST PUSH2 0x108C DUP5 PUSH2 0xE02 JUMP JUMPDEST DUP2 ADD PUSH1 0x20 DUP6 LT ISZERO PUSH2 0x109B JUMPI DUP2 SWAP1 POP JUMPDEST PUSH2 0x10AF PUSH2 0x10A7 DUP6 PUSH2 0xE02 JUMP JUMPDEST DUP4 ADD DUP3 PUSH2 0xEE5 JUMP JUMPDEST POP POP JUMPDEST POP POP POP JUMP JUMPDEST PUSH2 0x10C0 DUP3 PUSH2 0x79D JUMP JUMPDEST PUSH8 0xFFFFFFFFFFFFFFFF DUP2 GT ISZERO PUSH2 0x10D9 JUMPI PUSH2 0x10D8 PUSH2 0x849 JUMP JUMPDEST JUMPDEST PUSH2 0x10E3 DUP3 SLOAD PUSH2 0xCF0 JUMP JUMPDEST PUSH2 0x10EE DUP3 DUP3 DUP6 PUSH2 0x1071 JUMP JUMPDEST PUSH0 PUSH1 0x20 SWAP1 POP PUSH1 0x1F DUP4 GT PUSH1 0x1 DUP2 EQ PUSH2 0x111F JUMPI PUSH0 DUP5 ISZERO PUSH2 0x110D JUMPI DUP3 DUP8 ADD MLOAD SWAP1 POP JUMPDEST PUSH2 0x1117 DUP6 DUP3 PUSH2 0xF75 JUMP JUMPDEST DUP7 SSTORE POP PUSH2 0x117E JUMP JUMPDEST PUSH1 0x1F NOT DUP5 AND PUSH2 0x112D DUP7 PUSH2 0x105F JUMP JUMPDEST PUSH0 JUMPDEST DUP3 DUP2 LT ISZERO PUSH2 0x1154 JUMPI DUP5 DUP10 ADD MLOAD DUP3 SSTORE PUSH1 0x1 DUP3 ADD SWAP2 POP PUSH1 0x20 DUP6 ADD SWAP5 POP PUSH1 0x20 DUP2 ADD SWAP1 POP PUSH2 0x112F JUMP JUMPDEST DUP7 DUP4 LT ISZERO PUSH2 0x1171 JUMPI DUP5 DUP10 ADD MLOAD PUSH2 0x116D PUSH1 0x1F DUP10 AND DUP3 PUSH2 0xF59 JUMP JUMPDEST DUP4 SSTORE POP JUMPDEST PUSH1 0x1 PUSH1 0x2 DUP9 MUL ADD DUP9 SSTORE POP POP POP JUMPDEST POP POP POP POP POP POP JUMP JUMPDEST PUSH32 0x50726F6A65637420646F6573206E6F742065786973742E000000000000000000 PUSH0 DUP3 ADD MSTORE POP JUMP JUMPDEST PUSH0 PUSH2 0x11BA PUSH1 0x17 DUP4 PUSH2 0x737 JUMP JUMPDEST SWAP2 POP PUSH2 0x11C5 DUP3 PUSH2 0x1186 JUMP JUMPDEST PUSH1 0x20 DUP3 ADD SWAP1 POP SWAP2 SWAP1 POP JUMP JUMPDEST PUSH0 PUSH1 0x20 DUP3 ADD SWAP1 POP DUP2 DUP2 SUB PUSH0 DUP4 ADD MSTORE PUSH2 0x11E7 DUP2 PUSH2 0x11AE JUMP JUMPDEST SWAP1 POP SWAP2 SWAP1 POP JUMP JUMPDEST PUSH32 0x4E487B7100000000000000000000000000000000000000000000000000000000 PUSH0 MSTORE PUSH1 0x32 PUSH1 0x4 MSTORE PUSH1 0x24 PUSH0 REVERT INVALID LOG2 PUSH5 0x6970667358 0x22 SLT KECCAK256 0x4B 0xC2 0xF7 0xB3 0xE3 CALLER 0xDE PUSH19 0x13CDC1E4CA4EB070E2CCFF082208ACBAC4FDB5 CALLER JUMP DUP9 DUP12 DUP4 PUSH5 0x736F6C6343 STOP ADDMOD SHR STOP CALLER "
	},
	"Assembly": ".code\n  PUSH 80\t\t\tcontract HederaProjectContract...\n  PUSH 40\t\t\tcontract HederaProjectContract...\n  MSTORE \t\t\tcontract HederaProjectContract...\n  CALLVALUE \t\t\tcontract HederaProjectContract...\n  DUP1 \t\t\tcontract HederaProjectContract...\n  ISZERO \t\t\tcontract HederaProjectContract...\n  PUSH [tag] 1\t\t\tcontract HederaProjectContract...\n  JUMPI \t\t\tcontract HederaProjectContract...\n  PUSH 0\t\t\tcontract HederaProjectContract...\n  PUSH 0\t\t\tcontract HederaProjectContract...\n  REVERT \t\t\tcontract HederaProjectContract...\ntag 1\t\t\tcontract HederaProjectContract...\n  JUMPDEST \t\t\tcontract HederaProjectContract...\n  POP \t\t\tcontract HederaProjectContract...\n  PUSH #[$] 0000000000000000000000000000000000000000000000000000000000000000\t\t\tcontract HederaProjectContract...\n  DUP1 \t\t\tcontract HederaProjectContract...\n  PUSH [$] 0000000000000000000000000000000000000000000000000000000000000000\t\t\tcontract HederaProjectContract...\n  PUSH 0\t\t\tcontract HederaProjectContract...\n  CODECOPY \t\t\tcontract HederaProjectContract...\n  PUSH 0\t\t\tcontract HederaProjectContract...\n  RETURN \t\t\tcontract HederaProjectContract...\n.data\n  0:\n    .code\n      PUSH 80\t\t\tcontract HederaProjectContract...\n      PUSH 40\t\t\tcontract HederaProjectContract...\n      MSTORE \t\t\tcontract HederaProjectContract...\n      CALLVALUE \t\t\tcontract HederaProjectContract...\n      DUP1 \t\t\tcontract HederaProjectContract...\n      ISZERO \t\t\tcontract HederaProjectContract...\n      PUSH [tag] 1\t\t\tcontract HederaProjectContract...\n      JUMPI \t\t\tcontract HederaProjectContract...\n      PUSH 0\t\t\tcontract HederaProjectContract...\n      PUSH 0\t\t\tcontract HederaProjectContract...\n      REVERT \t\t\tcontract HederaProjectContract...\n    tag 1\t\t\tcontract HederaProjectContract...\n      JUMPDEST \t\t\tcontract HederaProjectContract...\n      POP \t\t\tcontract HederaProjectContract...\n      PUSH 4\t\t\tcontract HederaProjectContract...\n      CALLDATASIZE \t\t\tcontract HederaProjectContract...\n      LT \t\t\tcontract HederaProjectContract...\n      PUSH [tag] 2\t\t\tcontract HederaProjectContract...\n      JUMPI \t\t\tcontract HederaProjectContract...\n      PUSH 0\t\t\tcontract HederaProjectContract...\n      CALLDATALOAD \t\t\tcontract HederaProjectContract...\n      PUSH E0\t\t\tcontract HederaProjectContract...\n      SHR \t\t\tcontract HederaProjectContract...\n      DUP1 \t\t\tcontract HederaProjectContract...\n      PUSH 107046BD\t\t\tcontract HederaProjectContract...\n      EQ \t\t\tcontract HederaProjectContract...\n      PUSH [tag] 3\t\t\tcontract HederaProjectContract...\n      JUMPI \t\t\tcontract HederaProjectContract...\n      DUP1 \t\t\tcontract HederaProjectContract...\n      PUSH 8AE6CBE8\t\t\tcontract HederaProjectContract...\n      EQ \t\t\tcontract HederaProjectContract...\n      PUSH [tag] 4\t\t\tcontract HederaProjectContract...\n      JUMPI \t\t\tcontract HederaProjectContract...\n      DUP1 \t\t\tcontract HederaProjectContract...\n      PUSH BEE5CDCA\t\t\tcontract HederaProjectContract...\n      EQ \t\t\tcontract HederaProjectContract...\n      PUSH [tag] 5\t\t\tcontract HederaProjectContract...\n      JUMPI \t\t\tcontract HederaProjectContract...\n      DUP1 \t\t\tcontract HederaProjectContract...\n      PUSH DCC60128\t\t\tcontract HederaProjectContract...\n      EQ \t\t\tcontract HederaProjectContract...\n      PUSH [tag] 6\t\t\tcontract HederaProjectContract...\n      JUMPI \t\t\tcontract HederaProjectContract...\n    tag 2\t\t\tcontract HederaProjectContract...\n      JUMPDEST \t\t\tcontract HederaProjectContract...\n      PUSH 0\t\t\tcontract HederaProjectContract...\n      PUSH 0\t\t\tcontract HederaProjectContract...\n      REVERT \t\t\tcontract HederaProjectContract...\n    tag 3\t\t\tProject[] public projects\n      JUMPDEST \t\t\tProject[] public projects\n      PUSH [tag] 7\t\t\tProject[] public projects\n      PUSH 4\t\t\tProject[] public projects\n      DUP1 \t\t\tProject[] public projects\n      CALLDATASIZE \t\t\tProject[] public projects\n      SUB \t\t\tProject[] public projects\n      DUP2 \t\t\tProject[] public projects\n      ADD \t\t\tProject[] public projects\n      SWAP1 \t\t\tProject[] public projects\n      PUSH [tag] 8\t\t\tProject[] public projects\n      SWAP2 \t\t\tProject[] public projects\n      SWAP1 \t\t\tProject[] public projects\n      PUSH [tag] 9\t\t\tProject[] public projects\n      JUMP \t\t\tProject[] public projects\n    tag 8\t\t\tProject[] public projects\n      JUMPDEST \t\t\tProject[] public projects\n      PUSH [tag] 10\t\t\tProject[] public projects\n      JUMP \t\t\tProject[] public projects\n    tag 7\t\t\tProject[] public projects\n      JUMPDEST \t\t\tProject[] public projects\n      PUSH 40\t\t\tProject[] public projects\n      MLOAD \t\t\tProject[] public projects\n      PUSH [tag] 11\t\t\tProject[] public projects\n      SWAP4 \t\t\tProject[] public projects\n      SWAP3 \t\t\tProject[] public projects\n      SWAP2 \t\t\tProject[] public projects\n      SWAP1 \t\t\tProject[] public projects\n      PUSH [tag] 12\t\t\tProject[] public projects\n      JUMP \t\t\tProject[] public projects\n    tag 11\t\t\tProject[] public projects\n      JUMPDEST \t\t\tProject[] public projects\n      PUSH 40\t\t\tProject[] public projects\n      MLOAD \t\t\tProject[] public projects\n      DUP1 \t\t\tProject[] public projects\n      SWAP2 \t\t\tProject[] public projects\n      SUB \t\t\tProject[] public projects\n      SWAP1 \t\t\tProject[] public projects\n      RETURN \t\t\tProject[] public projects\n    tag 4\t\t\tfunction submitProjectHash(\\r\\...\n      JUMPDEST \t\t\tfunction submitProjectHash(\\r\\...\n      PUSH [tag] 13\t\t\tfunction submitProjectHash(\\r\\...\n      PUSH 4\t\t\tfunction submitProjectHash(\\r\\...\n      DUP1 \t\t\tfunction submitProjectHash(\\r\\...\n      CALLDATASIZE \t\t\tfunction submitProjectHash(\\r\\...\n      SUB \t\t\tfunction submitProjectHash(\\r\\...\n      DUP2 \t\t\tfunction submitProjectHash(\\r\\...\n      ADD \t\t\tfunction submitProjectHash(\\r\\...\n      SWAP1 \t\t\tfunction submitProjectHash(\\r\\...\n      PUSH [tag] 14\t\t\tfunction submitProjectHash(\\r\\...\n      SWAP2 \t\t\tfunction submitProjectHash(\\r\\...\n      SWAP1 \t\t\tfunction submitProjectHash(\\r\\...\n      PUSH [tag] 15\t\t\tfunction submitProjectHash(\\r\\...\n      JUMP \t\t\tfunction submitProjectHash(\\r\\...\n    tag 14\t\t\tfunction submitProjectHash(\\r\\...\n      JUMPDEST \t\t\tfunction submitProjectHash(\\r\\...\n      PUSH [tag] 16\t\t\tfunction submitProjectHash(\\r\\...\n      JUMP \t\t\tfunction submitProjectHash(\\r\\...\n    tag 13\t\t\tfunction submitProjectHash(\\r\\...\n      JUMPDEST \t\t\tfunction submitProjectHash(\\r\\...\n      STOP \t\t\tfunction submitProjectHash(\\r\\...\n    tag 5\t\t\tfunction getProjectById(uint25...\n      JUMPDEST \t\t\tfunction getProjectById(uint25...\n      PUSH [tag] 17\t\t\tfunction getProjectById(uint25...\n      PUSH 4\t\t\tfunction getProjectById(uint25...\n      DUP1 \t\t\tfunction getProjectById(uint25...\n      CALLDATASIZE \t\t\tfunction getProjectById(uint25...\n      SUB \t\t\tfunction getProjectById(uint25...\n      DUP2 \t\t\tfunction getProjectById(uint25...\n      ADD \t\t\tfunction getProjectById(uint25...\n      SWAP1 \t\t\tfunction getProjectById(uint25...\n      PUSH [tag] 18\t\t\tfunction getProjectById(uint25...\n      SWAP2 \t\t\tfunction getProjectById(uint25...\n      SWAP1 \t\t\tfunction getProjectById(uint25...\n      PUSH [tag] 9\t\t\tfunction getProjectById(uint25...\n      JUMP \t\t\tfunction getProjectById(uint25...\n    tag 18\t\t\tfunction getProjectById(uint25...\n      JUMPDEST \t\t\tfunction getProjectById(uint25...\n      PUSH [tag] 19\t\t\tfunction getProjectById(uint25...\n      JUMP \t\t\tfunction getProjectById(uint25...\n    tag 17\t\t\tfunction getProjectById(uint25...\n      JUMPDEST \t\t\tfunction getProjectById(uint25...\n      PUSH 40\t\t\tfunction getProjectById(uint25...\n      MLOAD \t\t\tfunction getProjectById(uint25...\n      PUSH [tag] 20\t\t\tfunction getProjectById(uint25...\n      SWAP2 \t\t\tfunction getProjectById(uint25...\n      SWAP1 \t\t\tfunction getProjectById(uint25...\n      PUSH [tag] 21\t\t\tfunction getProjectById(uint25...\n      JUMP \t\t\tfunction getProjectById(uint25...\n    tag 20\t\t\tfunction getProjectById(uint25...\n      JUMPDEST \t\t\tfunction getProjectById(uint25...\n      PUSH 40\t\t\tfunction getProjectById(uint25...\n      MLOAD \t\t\tfunction getProjectById(uint25...\n      DUP1 \t\t\tfunction getProjectById(uint25...\n      SWAP2 \t\t\tfunction getProjectById(uint25...\n      SUB \t\t\tfunction getProjectById(uint25...\n      SWAP1 \t\t\tfunction getProjectById(uint25...\n      RETURN \t\t\tfunction getProjectById(uint25...\n    tag 6\t\t\tfunction getProjects() public ...\n      JUMPDEST \t\t\tfunction getProjects() public ...\n      PUSH [tag] 22\t\t\tfunction getProjects() public ...\n      PUSH [tag] 23\t\t\tfunction getProjects() public ...\n      JUMP \t\t\tfunction getProjects() public ...\n    tag 22\t\t\tfunction getProjects() public ...\n      JUMPDEST \t\t\tfunction getProjects() public ...\n      PUSH 40\t\t\tfunction getProjects() public ...\n      MLOAD \t\t\tfunction getProjects() public ...\n      PUSH [tag] 24\t\t\tfunction getProjects() public ...\n      SWAP2 \t\t\tfunction getProjects() public ...\n      SWAP1 \t\t\tfunction getProjects() public ...\n      PUSH [tag] 25\t\t\tfunction getProjects() public ...\n      JUMP \t\t\tfunction getProjects() public ...\n    tag 24\t\t\tfunction getProjects() public ...\n      JUMPDEST \t\t\tfunction getProjects() public ...\n      PUSH 40\t\t\tfunction getProjects() public ...\n      MLOAD \t\t\tfunction getProjects() public ...\n      DUP1 \t\t\tfunction getProjects() public ...\n      SWAP2 \t\t\tfunction getProjects() public ...\n      SUB \t\t\tfunction getProjects() public ...\n      SWAP1 \t\t\tfunction getProjects() public ...\n      RETURN \t\t\tfunction getProjects() public ...\n    tag 10\t\t\tProject[] public projects\n      JUMPDEST \t\t\tProject[] public projects\n      PUSH 0\t\t\tProject[] public projects\n      DUP2 \t\t\tProject[] public projects\n      DUP2 \t\t\tProject[] public projects\n      SLOAD \t\t\tProject[] public projects\n      DUP2 \t\t\tProject[] public projects\n      LT \t\t\tProject[] public projects\n      PUSH [tag] 26\t\t\tProject[] public projects\n      JUMPI \t\t\tProject[] public projects\n      PUSH 0\t\t\tProject[] public projects\n      DUP1 \t\t\tProject[] public projects\n      REVERT \t\t\tProject[] public projects\n    tag 26\t\t\tProject[] public projects\n      JUMPDEST \t\t\tProject[] public projects\n      SWAP1 \t\t\tProject[] public projects\n      PUSH 0\t\t\tProject[] public projects\n      MSTORE \t\t\tProject[] public projects\n      PUSH 20\t\t\tProject[] public projects\n      PUSH 0\t\t\tProject[] public projects\n      KECCAK256 \t\t\tProject[] public projects\n      SWAP1 \t\t\tProject[] public projects\n      PUSH 3\t\t\tProject[] public projects\n      MUL \t\t\tProject[] public projects\n      ADD \t\t\tProject[] public projects\n      PUSH 0\t\t\tProject[] public projects\n      SWAP2 \t\t\tProject[] public projects\n      POP \t\t\tProject[] public projects\n      SWAP1 \t\t\tProject[] public projects\n      POP \t\t\tProject[] public projects\n      DUP1 \t\t\tProject[] public projects\n      PUSH 0\t\t\tProject[] public projects\n      ADD \t\t\tProject[] public projects\n      DUP1 \t\t\tProject[] public projects\n      SLOAD \t\t\tProject[] public projects\n      PUSH [tag] 28\t\t\tProject[] public projects\n      SWAP1 \t\t\tProject[] public projects\n      PUSH [tag] 29\t\t\tProject[] public projects\n      JUMP \t\t\tProject[] public projects\n    tag 28\t\t\tProject[] public projects\n      JUMPDEST \t\t\tProject[] public projects\n      DUP1 \t\t\tProject[] public projects\n      PUSH 1F\t\t\tProject[] public projects\n      ADD \t\t\tProject[] public projects\n      PUSH 20\t\t\tProject[] public projects\n      DUP1 \t\t\tProject[] public projects\n      SWAP2 \t\t\tProject[] public projects\n      DIV \t\t\tProject[] public projects\n      MUL \t\t\tProject[] public projects\n      PUSH 20\t\t\tProject[] public projects\n      ADD \t\t\tProject[] public projects\n      PUSH 40\t\t\tProject[] public projects\n      MLOAD \t\t\tProject[] public projects\n      SWAP1 \t\t\tProject[] public projects\n      DUP2 \t\t\tProject[] public projects\n      ADD \t\t\tProject[] public projects\n      PUSH 40\t\t\tProject[] public projects\n      MSTORE \t\t\tProject[] public projects\n      DUP1 \t\t\tProject[] public projects\n      SWAP3 \t\t\tProject[] public projects\n      SWAP2 \t\t\tProject[] public projects\n      SWAP1 \t\t\tProject[] public projects\n      DUP2 \t\t\tProject[] public projects\n      DUP2 \t\t\tProject[] public projects\n      MSTORE \t\t\tProject[] public projects\n      PUSH 20\t\t\tProject[] public projects\n      ADD \t\t\tProject[] public projects\n      DUP3 \t\t\tProject[] public projects\n      DUP1 \t\t\tProject[] public projects\n      SLOAD \t\t\tProject[] public projects\n      PUSH [tag] 30\t\t\tProject[] public projects\n      SWAP1 \t\t\tProject[] public projects\n      PUSH [tag] 29\t\t\tProject[] public projects\n      JUMP \t\t\tProject[] public projects\n    tag 30\t\t\tProject[] public projects\n      JUMPDEST \t\t\tProject[] public projects\n      DUP1 \t\t\tProject[] public projects\n      ISZERO \t\t\tProject[] public projects\n      PUSH [tag] 31\t\t\tProject[] public projects\n      JUMPI \t\t\tProject[] public projects\n      DUP1 \t\t\tProject[] public projects\n      PUSH 1F\t\t\tProject[] public projects\n      LT \t\t\tProject[] public projects\n      PUSH [tag] 32\t\t\tProject[] public projects\n      JUMPI \t\t\tProject[] public projects\n      PUSH 100\t\t\tProject[] public projects\n      DUP1 \t\t\tProject[] public projects\n      DUP4 \t\t\tProject[] public projects\n      SLOAD \t\t\tProject[] public projects\n      DIV \t\t\tProject[] public projects\n      MUL \t\t\tProject[] public projects\n      DUP4 \t\t\tProject[] public projects\n      MSTORE \t\t\tProject[] public projects\n      SWAP2 \t\t\tProject[] public projects\n      PUSH 20\t\t\tProject[] public projects\n      ADD \t\t\tProject[] public projects\n      SWAP2 \t\t\tProject[] public projects\n      PUSH [tag] 31\t\t\tProject[] public projects\n      JUMP \t\t\tProject[] public projects\n    tag 32\t\t\tProject[] public projects\n      JUMPDEST \t\t\tProject[] public projects\n      DUP3 \t\t\tProject[] public projects\n      ADD \t\t\tProject[] public projects\n      SWAP2 \t\t\tProject[] public projects\n      SWAP1 \t\t\tProject[] public projects\n      PUSH 0\t\t\tProject[] public projects\n      MSTORE \t\t\tProject[] public projects\n      PUSH 20\t\t\tProject[] public projects\n      PUSH 0\t\t\tProject[] public projects\n      KECCAK256 \t\t\tProject[] public projects\n      SWAP1 \t\t\tProject[] public projects\n    tag 33\t\t\tProject[] public projects\n      JUMPDEST \t\t\tProject[] public projects\n      DUP2 \t\t\tProject[] public projects\n      SLOAD \t\t\tProject[] public projects\n      DUP2 \t\t\tProject[] public projects\n      MSTORE \t\t\tProject[] public projects\n      SWAP1 \t\t\tProject[] public projects\n      PUSH 1\t\t\tProject[] public projects\n      ADD \t\t\tProject[] public projects\n      SWAP1 \t\t\tProject[] public projects\n      PUSH 20\t\t\tProject[] public projects\n      ADD \t\t\tProject[] public projects\n      DUP1 \t\t\tProject[] public projects\n      DUP4 \t\t\tProject[] public projects\n      GT \t\t\tProject[] public projects\n      PUSH [tag] 33\t\t\tProject[] public projects\n      JUMPI \t\t\tProject[] public projects\n      DUP3 \t\t\tProject[] public projects\n      SWAP1 \t\t\tProject[] public projects\n      SUB \t\t\tProject[] public projects\n      PUSH 1F\t\t\tProject[] public projects\n      AND \t\t\tProject[] public projects\n      DUP3 \t\t\tProject[] public projects\n      ADD \t\t\tProject[] public projects\n      SWAP2 \t\t\tProject[] public projects\n    tag 31\t\t\tProject[] public projects\n      JUMPDEST \t\t\tProject[] public projects\n      POP \t\t\tProject[] public projects\n      POP \t\t\tProject[] public projects\n      POP \t\t\tProject[] public projects\n      POP \t\t\tProject[] public projects\n      POP \t\t\tProject[] public projects\n      SWAP1 \t\t\tProject[] public projects\n      DUP1 \t\t\tProject[] public projects\n      PUSH 1\t\t\tProject[] public projects\n      ADD \t\t\tProject[] public projects\n      DUP1 \t\t\tProject[] public projects\n      SLOAD \t\t\tProject[] public projects\n      PUSH [tag] 34\t\t\tProject[] public projects\n      SWAP1 \t\t\tProject[] public projects\n      PUSH [tag] 29\t\t\tProject[] public projects\n      JUMP \t\t\tProject[] public projects\n    tag 34\t\t\tProject[] public projects\n      JUMPDEST \t\t\tProject[] public projects\n      DUP1 \t\t\tProject[] public projects\n      PUSH 1F\t\t\tProject[] public projects\n      ADD \t\t\tProject[] public projects\n      PUSH 20\t\t\tProject[] public projects\n      DUP1 \t\t\tProject[] public projects\n      SWAP2 \t\t\tProject[] public projects\n      DIV \t\t\tProject[] public projects\n      MUL \t\t\tProject[] public projects\n      PUSH 20\t\t\tProject[] public projects\n      ADD \t\t\tProject[] public projects\n      PUSH 40\t\t\tProject[] public projects\n      MLOAD \t\t\tProject[] public projects\n      SWAP1 \t\t\tProject[] public projects\n      DUP2 \t\t\tProject[] public projects\n      ADD \t\t\tProject[] public projects\n      PUSH 40\t\t\tProject[] public projects\n      MSTORE \t\t\tProject[] public projects\n      DUP1 \t\t\tProject[] public projects\n      SWAP3 \t\t\tProject[] public projects\n      SWAP2 \t\t\tProject[] public projects\n      SWAP1 \t\t\tProject[] public projects\n      DUP2 \t\t\tProject[] public projects\n      DUP2 \t\t\tProject[] public projects\n      MSTORE \t\t\tProject[] public projects\n      PUSH 20\t\t\tProject[] public projects\n      ADD \t\t\tProject[] public projects\n      DUP3 \t\t\tProject[] public projects\n      DUP1 \t\t\tProject[] public projects\n      SLOAD \t\t\tProject[] public projects\n      PUSH [tag] 35\t\t\tProject[] public projects\n      SWAP1 \t\t\tProject[] public projects\n      PUSH [tag] 29\t\t\tProject[] public projects\n      JUMP \t\t\tProject[] public projects\n    tag 35\t\t\tProject[] public projects\n      JUMPDEST \t\t\tProject[] public projects\n      DUP1 \t\t\tProject[] public projects\n      ISZERO \t\t\tProject[] public projects\n      PUSH [tag] 36\t\t\tProject[] public projects\n      JUMPI \t\t\tProject[] public projects\n      DUP1 \t\t\tProject[] public projects\n      PUSH 1F\t\t\tProject[] public projects\n      LT \t\t\tProject[] public projects\n      PUSH [tag] 37\t\t\tProject[] public projects\n      JUMPI \t\t\tProject[] public projects\n      PUSH 100\t\t\tProject[] public projects\n      DUP1 \t\t\tProject[] public projects\n      DUP4 \t\t\tProject[] public projects\n      SLOAD \t\t\tProject[] public projects\n      DIV \t\t\tProject[] public projects\n      MUL \t\t\tProject[] public projects\n      DUP4 \t\t\tProject[] public projects\n      MSTORE \t\t\tProject[] public projects\n      SWAP2 \t\t\tProject[] public projects\n      PUSH 20\t\t\tProject[] public projects\n      ADD \t\t\tProject[] public projects\n      SWAP2 \t\t\tProject[] public projects\n      PUSH [tag] 36\t\t\tProject[] public projects\n      JUMP \t\t\tProject[] public projects\n    tag 37\t\t\tProject[] public projects\n      JUMPDEST \t\t\tProject[] public projects\n      DUP3 \t\t\tProject[] public projects\n      ADD \t\t\tProject[] public projects\n      SWAP2 \t\t\tProject[] public projects\n      SWAP1 \t\t\tProject[] public projects\n      PUSH 0\t\t\tProject[] public projects\n      MSTORE \t\t\tProject[] public projects\n      PUSH 20\t\t\tProject[] public projects\n      PUSH 0\t\t\tProject[] public projects\n      KECCAK256 \t\t\tProject[] public projects\n      SWAP1 \t\t\tProject[] public projects\n    tag 38\t\t\tProject[] public projects\n      JUMPDEST \t\t\tProject[] public projects\n      DUP2 \t\t\tProject[] public projects\n      SLOAD \t\t\tProject[] public projects\n      DUP2 \t\t\tProject[] public projects\n      MSTORE \t\t\tProject[] public projects\n      SWAP1 \t\t\tProject[] public projects\n      PUSH 1\t\t\tProject[] public projects\n      ADD \t\t\tProject[] public projects\n      SWAP1 \t\t\tProject[] public projects\n      PUSH 20\t\t\tProject[] public projects\n      ADD \t\t\tProject[] public projects\n      DUP1 \t\t\tProject[] public projects\n      DUP4 \t\t\tProject[] public projects\n      GT \t\t\tProject[] public projects\n      PUSH [tag] 38\t\t\tProject[] public projects\n      JUMPI \t\t\tProject[] public projects\n      DUP3 \t\t\tProject[] public projects\n      SWAP1 \t\t\tProject[] public projects\n      SUB \t\t\tProject[] public projects\n      PUSH 1F\t\t\tProject[] public projects\n      AND \t\t\tProject[] public projects\n      DUP3 \t\t\tProject[] public projects\n      ADD \t\t\tProject[] public projects\n      SWAP2 \t\t\tProject[] public projects\n    tag 36\t\t\tProject[] public projects\n      JUMPDEST \t\t\tProject[] public projects\n      POP \t\t\tProject[] public projects\n      POP \t\t\tProject[] public projects\n      POP \t\t\tProject[] public projects\n      POP \t\t\tProject[] public projects\n      POP \t\t\tProject[] public projects\n      SWAP1 \t\t\tProject[] public projects\n      DUP1 \t\t\tProject[] public projects\n      PUSH 2\t\t\tProject[] public projects\n      ADD \t\t\tProject[] public projects\n      SLOAD \t\t\tProject[] public projects\n      SWAP1 \t\t\tProject[] public projects\n      POP \t\t\tProject[] public projects\n      DUP4 \t\t\tProject[] public projects\n      JUMP \t\t\tProject[] public projects\n    tag 16\t\t\tfunction submitProjectHash(\\r\\...\n      JUMPDEST \t\t\tfunction submitProjectHash(\\r\\...\n      PUSH 0\t\t\t0\n      DUP3 \t\t\tprj_id\n      MLOAD \t\t\tbytes(prj_id).length\n      GT \t\t\tbytes(prj_id).length > 0\n      PUSH [tag] 40\t\t\trequire(bytes(prj_id).length >...\n      JUMPI \t\t\trequire(bytes(prj_id).length >...\n      PUSH 40\t\t\trequire(bytes(prj_id).length >...\n      MLOAD \t\t\trequire(bytes(prj_id).length >...\n      PUSH 8C379A000000000000000000000000000000000000000000000000000000000\t\t\trequire(bytes(prj_id).length >...\n      DUP2 \t\t\trequire(bytes(prj_id).length >...\n      MSTORE \t\t\trequire(bytes(prj_id).length >...\n      PUSH 4\t\t\trequire(bytes(prj_id).length >...\n      ADD \t\t\trequire(bytes(prj_id).length >...\n      PUSH [tag] 41\t\t\trequire(bytes(prj_id).length >...\n      SWAP1 \t\t\trequire(bytes(prj_id).length >...\n      PUSH [tag] 42\t\t\trequire(bytes(prj_id).length >...\n      JUMP \t\t\trequire(bytes(prj_id).length >...\n    tag 41\t\t\trequire(bytes(prj_id).length >...\n      JUMPDEST \t\t\trequire(bytes(prj_id).length >...\n      PUSH 40\t\t\trequire(bytes(prj_id).length >...\n      MLOAD \t\t\trequire(bytes(prj_id).length >...\n      DUP1 \t\t\trequire(bytes(prj_id).length >...\n      SWAP2 \t\t\trequire(bytes(prj_id).length >...\n      SUB \t\t\trequire(bytes(prj_id).length >...\n      SWAP1 \t\t\trequire(bytes(prj_id).length >...\n      REVERT \t\t\trequire(bytes(prj_id).length >...\n    tag 40\t\t\trequire(bytes(prj_id).length >...\n      JUMPDEST \t\t\trequire(bytes(prj_id).length >...\n      PUSH 20\t\t\t32\n      DUP2 \t\t\tprj_hash\n      MLOAD \t\t\tprj_hash.length\n      EQ \t\t\tprj_hash.length == 32\n      PUSH [tag] 43\t\t\trequire(prj_hash.length == 32,...\n      JUMPI \t\t\trequire(prj_hash.length == 32,...\n      PUSH 40\t\t\trequire(prj_hash.length == 32,...\n      MLOAD \t\t\trequire(prj_hash.length == 32,...\n      PUSH 8C379A000000000000000000000000000000000000000000000000000000000\t\t\trequire(prj_hash.length == 32,...\n      DUP2 \t\t\trequire(prj_hash.length == 32,...\n      MSTORE \t\t\trequire(prj_hash.length == 32,...\n      PUSH 4\t\t\trequire(prj_hash.length == 32,...\n      ADD \t\t\trequire(prj_hash.length == 32,...\n      PUSH [tag] 44\t\t\trequire(prj_hash.length == 32,...\n      SWAP1 \t\t\trequire(prj_hash.length == 32,...\n      PUSH [tag] 45\t\t\trequire(prj_hash.length == 32,...\n      JUMP \t\t\trequire(prj_hash.length == 32,...\n    tag 44\t\t\trequire(prj_hash.length == 32,...\n      JUMPDEST \t\t\trequire(prj_hash.length == 32,...\n      PUSH 40\t\t\trequire(prj_hash.length == 32,...\n      MLOAD \t\t\trequire(prj_hash.length == 32,...\n      DUP1 \t\t\trequire(prj_hash.length == 32,...\n      SWAP2 \t\t\trequire(prj_hash.length == 32,...\n      SUB \t\t\trequire(prj_hash.length == 32,...\n      SWAP1 \t\t\trequire(prj_hash.length == 32,...\n      REVERT \t\t\trequire(prj_hash.length == 32,...\n    tag 43\t\t\trequire(prj_hash.length == 32,...\n      JUMPDEST \t\t\trequire(prj_hash.length == 32,...\n      PUSH 0\t\t\tuint256 projectIndex\n      PUSH 0\t\t\tprojects\n      DUP1 \t\t\tprojects.length\n      SLOAD \t\t\tprojects.length\n      SWAP1 \t\t\tprojects.length\n      POP \t\t\tprojects.length\n      SWAP1 \t\t\tuint256 projectIndex = project...\n      POP \t\t\tuint256 projectIndex = project...\n      PUSH 0\t\t\tprojects\n      PUSH 40\t\t\tProject({\\r\\n                p...\n      MLOAD \t\t\tProject({\\r\\n                p...\n      DUP1 \t\t\tProject({\\r\\n                p...\n      PUSH 60\t\t\tProject({\\r\\n                p...\n      ADD \t\t\tProject({\\r\\n                p...\n      PUSH 40\t\t\tProject({\\r\\n                p...\n      MSTORE \t\t\tProject({\\r\\n                p...\n      DUP1 \t\t\tProject({\\r\\n                p...\n      DUP6 \t\t\tprj_id\n      DUP2 \t\t\tProject({\\r\\n                p...\n      MSTORE \t\t\tProject({\\r\\n                p...\n      PUSH 20\t\t\tProject({\\r\\n                p...\n      ADD \t\t\tProject({\\r\\n                p...\n      DUP5 \t\t\tprj_hash\n      DUP2 \t\t\tProject({\\r\\n                p...\n      MSTORE \t\t\tProject({\\r\\n                p...\n      PUSH 20\t\t\tProject({\\r\\n                p...\n      ADD \t\t\tProject({\\r\\n                p...\n      TIMESTAMP \t\t\tblock.timestamp\n      DUP2 \t\t\tProject({\\r\\n                p...\n      MSTORE \t\t\tProject({\\r\\n                p...\n      POP \t\t\tProject({\\r\\n                p...\n      SWAP1 \t\t\tprojects.push(\\r\\n            ...\n      DUP1 \t\t\tprojects.push(\\r\\n            ...\n      PUSH 1\t\t\tprojects.push(\\r\\n            ...\n      DUP2 \t\t\tprojects.push(\\r\\n            ...\n      SLOAD \t\t\tprojects.push(\\r\\n            ...\n      ADD \t\t\tprojects.push(\\r\\n            ...\n      DUP1 \t\t\tprojects.push(\\r\\n            ...\n      DUP3 \t\t\tprojects.push(\\r\\n            ...\n      SSTORE \t\t\tprojects.push(\\r\\n            ...\n      DUP1 \t\t\tprojects.push(\\r\\n            ...\n      SWAP2 \t\t\tprojects.push(\\r\\n            ...\n      POP \t\t\tprojects.push(\\r\\n            ...\n      POP \t\t\tprojects.push(\\r\\n            ...\n      PUSH 1\t\t\tprojects.push(\\r\\n            ...\n      SWAP1 \t\t\tprojects.push(\\r\\n            ...\n      SUB \t\t\tprojects.push(\\r\\n            ...\n      SWAP1 \t\t\tprojects.push(\\r\\n            ...\n      PUSH 0\t\t\tprojects.push(\\r\\n            ...\n      MSTORE \t\t\tprojects.push(\\r\\n            ...\n      PUSH 20\t\t\tprojects.push(\\r\\n            ...\n      PUSH 0\t\t\tprojects.push(\\r\\n            ...\n      KECCAK256 \t\t\tprojects.push(\\r\\n            ...\n      SWAP1 \t\t\tprojects.push(\\r\\n            ...\n      PUSH 3\t\t\tprojects.push(\\r\\n            ...\n      MUL \t\t\tprojects.push(\\r\\n            ...\n      ADD \t\t\tprojects.push(\\r\\n            ...\n      PUSH 0\t\t\tprojects.push(\\r\\n            ...\n      SWAP1 \t\t\tprojects.push(\\r\\n            ...\n      SWAP2 \t\t\tprojects.push(\\r\\n            ...\n      SWAP1 \t\t\tprojects.push(\\r\\n            ...\n      SWAP2 \t\t\tprojects.push(\\r\\n            ...\n      SWAP1 \t\t\tprojects.push(\\r\\n            ...\n      SWAP2 \t\t\tprojects.push(\\r\\n            ...\n      POP \t\t\tprojects.push(\\r\\n            ...\n      PUSH 0\t\t\tprojects.push(\\r\\n            ...\n      DUP3 \t\t\tprojects.push(\\r\\n            ...\n      ADD \t\t\tprojects.push(\\r\\n            ...\n      MLOAD \t\t\tprojects.push(\\r\\n            ...\n      DUP2 \t\t\tprojects.push(\\r\\n            ...\n      PUSH 0\t\t\tprojects.push(\\r\\n            ...\n      ADD \t\t\tprojects.push(\\r\\n            ...\n      SWAP1 \t\t\tprojects.push(\\r\\n            ...\n      DUP2 \t\t\tprojects.push(\\r\\n            ...\n      PUSH [tag] 47\t\t\tprojects.push(\\r\\n            ...\n      SWAP2 \t\t\tprojects.push(\\r\\n            ...\n      SWAP1 \t\t\tprojects.push(\\r\\n            ...\n      PUSH [tag] 48\t\t\tprojects.push(\\r\\n            ...\n      JUMP \t\t\tprojects.push(\\r\\n            ...\n    tag 47\t\t\tprojects.push(\\r\\n            ...\n      JUMPDEST \t\t\tprojects.push(\\r\\n            ...\n      POP \t\t\tprojects.push(\\r\\n            ...\n      PUSH 20\t\t\tprojects.push(\\r\\n            ...\n      DUP3 \t\t\tprojects.push(\\r\\n            ...\n      ADD \t\t\tprojects.push(\\r\\n            ...\n      MLOAD \t\t\tprojects.push(\\r\\n            ...\n      DUP2 \t\t\tprojects.push(\\r\\n            ...\n      PUSH 1\t\t\tprojects.push(\\r\\n            ...\n      ADD \t\t\tprojects.push(\\r\\n            ...\n      SWAP1 \t\t\tprojects.push(\\r\\n            ...\n      DUP2 \t\t\tprojects.push(\\r\\n            ...\n      PUSH [tag] 49\t\t\tprojects.push(\\r\\n            ...\n      SWAP2 \t\t\tprojects.push(\\r\\n            ...\n      SWAP1 \t\t\tprojects.push(\\r\\n            ...\n      PUSH [tag] 50\t\t\tprojects.push(\\r\\n            ...\n      JUMP \t\t\tprojects.push(\\r\\n            ...\n    tag 49\t\t\tprojects.push(\\r\\n            ...\n      JUMPDEST \t\t\tprojects.push(\\r\\n            ...\n      POP \t\t\tprojects.push(\\r\\n            ...\n      PUSH 40\t\t\tprojects.push(\\r\\n            ...\n      DUP3 \t\t\tprojects.push(\\r\\n            ...\n      ADD \t\t\tprojects.push(\\r\\n            ...\n      MLOAD \t\t\tprojects.push(\\r\\n            ...\n      DUP2 \t\t\tprojects.push(\\r\\n            ...\n      PUSH 2\t\t\tprojects.push(\\r\\n            ...\n      ADD \t\t\tprojects.push(\\r\\n            ...\n      SSTORE \t\t\tprojects.push(\\r\\n            ...\n      POP \t\t\tprojects.push(\\r\\n            ...\n      POP \t\t\tprojects.push(\\r\\n            ...\n      DUP1 \t\t\tprojectIndex\n      PUSH A8094AA947A1DE718368F91354A0FDE9FB961A0BCD7F9024ED54ABD38AC5108C\t\t\tProjectHashSubmitted(\\r\\n     ...\n      DUP5 \t\t\tprj_id\n      DUP5 \t\t\tprj_hash\n      TIMESTAMP \t\t\tblock.timestamp\n      PUSH 40\t\t\tProjectHashSubmitted(\\r\\n     ...\n      MLOAD \t\t\tProjectHashSubmitted(\\r\\n     ...\n      PUSH [tag] 51\t\t\tProjectHashSubmitted(\\r\\n     ...\n      SWAP4 \t\t\tProjectHashSubmitted(\\r\\n     ...\n      SWAP3 \t\t\tProjectHashSubmitted(\\r\\n     ...\n      SWAP2 \t\t\tProjectHashSubmitted(\\r\\n     ...\n      SWAP1 \t\t\tProjectHashSubmitted(\\r\\n     ...\n      PUSH [tag] 12\t\t\tProjectHashSubmitted(\\r\\n     ...\n      JUMP \t\t\tProjectHashSubmitted(\\r\\n     ...\n    tag 51\t\t\tProjectHashSubmitted(\\r\\n     ...\n      JUMPDEST \t\t\tProjectHashSubmitted(\\r\\n     ...\n      PUSH 40\t\t\tProjectHashSubmitted(\\r\\n     ...\n      MLOAD \t\t\tProjectHashSubmitted(\\r\\n     ...\n      DUP1 \t\t\tProjectHashSubmitted(\\r\\n     ...\n      SWAP2 \t\t\tProjectHashSubmitted(\\r\\n     ...\n      SUB \t\t\tProjectHashSubmitted(\\r\\n     ...\n      SWAP1 \t\t\tProjectHashSubmitted(\\r\\n     ...\n      LOG2 \t\t\tProjectHashSubmitted(\\r\\n     ...\n      POP \t\t\t{\\r\\n        require(bytes(prj...\n      POP \t\t\tfunction submitProjectHash(\\r\\...\n      POP \t\t\tfunction submitProjectHash(\\r\\...\n      JUMP \t\t\tfunction submitProjectHash(\\r\\...\n    tag 19\t\t\tfunction getProjectById(uint25...\n      JUMPDEST \t\t\tfunction getProjectById(uint25...\n      PUSH [tag] 52\t\t\tProject memory\n      PUSH [tag] 53\t\t\tProject memory\n      JUMP \t\t\tProject memory\n    tag 52\t\t\tProject memory\n      JUMPDEST \t\t\tProject memory\n      PUSH 0\t\t\tprojects\n      DUP1 \t\t\tprojects.length\n      SLOAD \t\t\tprojects.length\n      SWAP1 \t\t\tprojects.length\n      POP \t\t\tprojects.length\n      DUP3 \t\t\tprojectIndex\n      LT \t\t\tprojectIndex < projects.length\n      PUSH [tag] 55\t\t\trequire(projectIndex < project...\n      JUMPI \t\t\trequire(projectIndex < project...\n      PUSH 40\t\t\trequire(projectIndex < project...\n      MLOAD \t\t\trequire(projectIndex < project...\n      PUSH 8C379A000000000000000000000000000000000000000000000000000000000\t\t\trequire(projectIndex < project...\n      DUP2 \t\t\trequire(projectIndex < project...\n      MSTORE \t\t\trequire(projectIndex < project...\n      PUSH 4\t\t\trequire(projectIndex < project...\n      ADD \t\t\trequire(projectIndex < project...\n      PUSH [tag] 56\t\t\trequire(projectIndex < project...\n      SWAP1 \t\t\trequire(projectIndex < project...\n      PUSH [tag] 57\t\t\trequire(projectIndex < project...\n      JUMP \t\t\trequire(projectIndex < project...\n    tag 56\t\t\trequire(projectIndex < project...\n      JUMPDEST \t\t\trequire(projectIndex < project...\n      PUSH 40\t\t\trequire(projectIndex < project...\n      MLOAD \t\t\trequire(projectIndex < project...\n      DUP1 \t\t\trequire(projectIndex < project...\n      SWAP2 \t\t\trequire(projectIndex < project...\n      SUB \t\t\trequire(projectIndex < project...\n      SWAP1 \t\t\trequire(projectIndex < project...\n      REVERT \t\t\trequire(projectIndex < project...\n    tag 55\t\t\trequire(projectIndex < project...\n      JUMPDEST \t\t\trequire(projectIndex < project...\n      PUSH 0\t\t\tprojects\n      DUP3 \t\t\tprojectIndex\n      DUP2 \t\t\tprojects[projectIndex]\n      SLOAD \t\t\tprojects[projectIndex]\n      DUP2 \t\t\tprojects[projectIndex]\n      LT \t\t\tprojects[projectIndex]\n      PUSH [tag] 58\t\t\tprojects[projectIndex]\n      JUMPI \t\t\tprojects[projectIndex]\n      PUSH [tag] 59\t\t\tprojects[projectIndex]\n      PUSH [tag] 60\t\t\tprojects[projectIndex]\n      JUMP \t\t\tprojects[projectIndex]\n    tag 59\t\t\tprojects[projectIndex]\n      JUMPDEST \t\t\tprojects[projectIndex]\n    tag 58\t\t\tprojects[projectIndex]\n      JUMPDEST \t\t\tprojects[projectIndex]\n      SWAP1 \t\t\tprojects[projectIndex]\n      PUSH 0\t\t\tprojects[projectIndex]\n      MSTORE \t\t\tprojects[projectIndex]\n      PUSH 20\t\t\tprojects[projectIndex]\n      PUSH 0\t\t\tprojects[projectIndex]\n      KECCAK256 \t\t\tprojects[projectIndex]\n      SWAP1 \t\t\tprojects[projectIndex]\n      PUSH 3\t\t\tprojects[projectIndex]\n      MUL \t\t\tprojects[projectIndex]\n      ADD \t\t\tprojects[projectIndex]\n      PUSH 40\t\t\treturn projects[projectIndex]\n      MLOAD \t\t\treturn projects[projectIndex]\n      DUP1 \t\t\treturn projects[projectIndex]\n      PUSH 60\t\t\treturn projects[projectIndex]\n      ADD \t\t\treturn projects[projectIndex]\n      PUSH 40\t\t\treturn projects[projectIndex]\n      MSTORE \t\t\treturn projects[projectIndex]\n      SWAP1 \t\t\treturn projects[projectIndex]\n      DUP2 \t\t\treturn projects[projectIndex]\n      PUSH 0\t\t\treturn projects[projectIndex]\n      DUP3 \t\t\treturn projects[projectIndex]\n      ADD \t\t\treturn projects[projectIndex]\n      DUP1 \t\t\treturn projects[projectIndex]\n      SLOAD \t\t\treturn projects[projectIndex]\n      PUSH [tag] 62\t\t\treturn projects[projectIndex]\n      SWAP1 \t\t\treturn projects[projectIndex]\n      PUSH [tag] 29\t\t\treturn projects[projectIndex]\n      JUMP \t\t\treturn projects[projectIndex]\n    tag 62\t\t\treturn projects[projectIndex]\n      JUMPDEST \t\t\treturn projects[projectIndex]\n      DUP1 \t\t\treturn projects[projectIndex]\n      PUSH 1F\t\t\treturn projects[projectIndex]\n      ADD \t\t\treturn projects[projectIndex]\n      PUSH 20\t\t\treturn projects[projectIndex]\n      DUP1 \t\t\treturn projects[projectIndex]\n      SWAP2 \t\t\treturn projects[projectIndex]\n      DIV \t\t\treturn projects[projectIndex]\n      MUL \t\t\treturn projects[projectIndex]\n      PUSH 20\t\t\treturn projects[projectIndex]\n      ADD \t\t\treturn projects[projectIndex]\n      PUSH 40\t\t\treturn projects[projectIndex]\n      MLOAD \t\t\treturn projects[projectIndex]\n      SWAP1 \t\t\treturn projects[projectIndex]\n      DUP2 \t\t\treturn projects[projectIndex]\n      ADD \t\t\treturn projects[projectIndex]\n      PUSH 40\t\t\treturn projects[projectIndex]\n      MSTORE \t\t\treturn projects[projectIndex]\n      DUP1 \t\t\treturn projects[projectIndex]\n      SWAP3 \t\t\treturn projects[projectIndex]\n      SWAP2 \t\t\treturn projects[projectIndex]\n      SWAP1 \t\t\treturn projects[projectIndex]\n      DUP2 \t\t\treturn projects[projectIndex]\n      DUP2 \t\t\treturn projects[projectIndex]\n      MSTORE \t\t\treturn projects[projectIndex]\n      PUSH 20\t\t\treturn projects[projectIndex]\n      ADD \t\t\treturn projects[projectIndex]\n      DUP3 \t\t\treturn projects[projectIndex]\n      DUP1 \t\t\treturn projects[projectIndex]\n      SLOAD \t\t\treturn projects[projectIndex]\n      PUSH [tag] 63\t\t\treturn projects[projectIndex]\n      SWAP1 \t\t\treturn projects[projectIndex]\n      PUSH [tag] 29\t\t\treturn projects[projectIndex]\n      JUMP \t\t\treturn projects[projectIndex]\n    tag 63\t\t\treturn projects[projectIndex]\n      JUMPDEST \t\t\treturn projects[projectIndex]\n      DUP1 \t\t\treturn projects[projectIndex]\n      ISZERO \t\t\treturn projects[projectIndex]\n      PUSH [tag] 64\t\t\treturn projects[projectIndex]\n      JUMPI \t\t\treturn projects[projectIndex]\n      DUP1 \t\t\treturn projects[projectIndex]\n      PUSH 1F\t\t\treturn projects[projectIndex]\n      LT \t\t\treturn projects[projectIndex]\n      PUSH [tag] 65\t\t\treturn projects[projectIndex]\n      JUMPI \t\t\treturn projects[projectIndex]\n      PUSH 100\t\t\treturn projects[projectIndex]\n      DUP1 \t\t\treturn projects[projectIndex]\n      DUP4 \t\t\treturn projects[projectIndex]\n      SLOAD \t\t\treturn projects[projectIndex]\n      DIV \t\t\treturn projects[projectIndex]\n      MUL \t\t\treturn projects[projectIndex]\n      DUP4 \t\t\treturn projects[projectIndex]\n      MSTORE \t\t\treturn projects[projectIndex]\n      SWAP2 \t\t\treturn projects[projectIndex]\n      PUSH 20\t\t\treturn projects[projectIndex]\n      ADD \t\t\treturn projects[projectIndex]\n      SWAP2 \t\t\treturn projects[projectIndex]\n      PUSH [tag] 64\t\t\treturn projects[projectIndex]\n      JUMP \t\t\treturn projects[projectIndex]\n    tag 65\t\t\treturn projects[projectIndex]\n      JUMPDEST \t\t\treturn projects[projectIndex]\n      DUP3 \t\t\treturn projects[projectIndex]\n      ADD \t\t\treturn projects[projectIndex]\n      SWAP2 \t\t\treturn projects[projectIndex]\n      SWAP1 \t\t\treturn projects[projectIndex]\n      PUSH 0\t\t\treturn projects[projectIndex]\n      MSTORE \t\t\treturn projects[projectIndex]\n      PUSH 20\t\t\treturn projects[projectIndex]\n      PUSH 0\t\t\treturn projects[projectIndex]\n      KECCAK256 \t\t\treturn projects[projectIndex]\n      SWAP1 \t\t\treturn projects[projectIndex]\n    tag 66\t\t\treturn projects[projectIndex]\n      JUMPDEST \t\t\treturn projects[projectIndex]\n      DUP2 \t\t\treturn projects[projectIndex]\n      SLOAD \t\t\treturn projects[projectIndex]\n      DUP2 \t\t\treturn projects[projectIndex]\n      MSTORE \t\t\treturn projects[projectIndex]\n      SWAP1 \t\t\treturn projects[projectIndex]\n      PUSH 1\t\t\treturn projects[projectIndex]\n      ADD \t\t\treturn projects[projectIndex]\n      SWAP1 \t\t\treturn projects[projectIndex]\n      PUSH 20\t\t\treturn projects[projectIndex]\n      ADD \t\t\treturn projects[projectIndex]\n      DUP1 \t\t\treturn projects[projectIndex]\n      DUP4 \t\t\treturn projects[projectIndex]\n      GT \t\t\treturn projects[projectIndex]\n      PUSH [tag] 66\t\t\treturn projects[projectIndex]\n      JUMPI \t\t\treturn projects[projectIndex]\n      DUP3 \t\t\treturn projects[projectIndex]\n      SWAP1 \t\t\treturn projects[projectIndex]\n      SUB \t\t\treturn projects[projectIndex]\n      PUSH 1F\t\t\treturn projects[projectIndex]\n      AND \t\t\treturn projects[projectIndex]\n      DUP3 \t\t\treturn projects[projectIndex]\n      ADD \t\t\treturn projects[projectIndex]\n      SWAP2 \t\t\treturn projects[projectIndex]\n    tag 64\t\t\treturn projects[projectIndex]\n      JUMPDEST \t\t\treturn projects[projectIndex]\n      POP \t\t\treturn projects[projectIndex]\n      POP \t\t\treturn projects[projectIndex]\n      POP \t\t\treturn projects[projectIndex]\n      POP \t\t\treturn projects[projectIndex]\n      POP \t\t\treturn projects[projectIndex]\n      DUP2 \t\t\treturn projects[projectIndex]\n      MSTORE \t\t\treturn projects[projectIndex]\n      PUSH 20\t\t\treturn projects[projectIndex]\n      ADD \t\t\treturn projects[projectIndex]\n      PUSH 1\t\t\treturn projects[projectIndex]\n      DUP3 \t\t\treturn projects[projectIndex]\n      ADD \t\t\treturn projects[projectIndex]\n      DUP1 \t\t\treturn projects[projectIndex]\n      SLOAD \t\t\treturn projects[projectIndex]\n      PUSH [tag] 67\t\t\treturn projects[projectIndex]\n      SWAP1 \t\t\treturn projects[projectIndex]\n      PUSH [tag] 29\t\t\treturn projects[projectIndex]\n      JUMP \t\t\treturn projects[projectIndex]\n    tag 67\t\t\treturn projects[projectIndex]\n      JUMPDEST \t\t\treturn projects[projectIndex]\n      DUP1 \t\t\treturn projects[projectIndex]\n      PUSH 1F\t\t\treturn projects[projectIndex]\n      ADD \t\t\treturn projects[projectIndex]\n      PUSH 20\t\t\treturn projects[projectIndex]\n      DUP1 \t\t\treturn projects[projectIndex]\n      SWAP2 \t\t\treturn projects[projectIndex]\n      DIV \t\t\treturn projects[projectIndex]\n      MUL \t\t\treturn projects[projectIndex]\n      PUSH 20\t\t\treturn projects[projectIndex]\n      ADD \t\t\treturn projects[projectIndex]\n      PUSH 40\t\t\treturn projects[projectIndex]\n      MLOAD \t\t\treturn projects[projectIndex]\n      SWAP1 \t\t\treturn projects[projectIndex]\n      DUP2 \t\t\treturn projects[projectIndex]\n      ADD \t\t\treturn projects[projectIndex]\n      PUSH 40\t\t\treturn projects[projectIndex]\n      MSTORE \t\t\treturn projects[projectIndex]\n      DUP1 \t\t\treturn projects[projectIndex]\n      SWAP3 \t\t\treturn projects[projectIndex]\n      SWAP2 \t\t\treturn projects[projectIndex]\n      SWAP1 \t\t\treturn projects[projectIndex]\n      DUP2 \t\t\treturn projects[projectIndex]\n      DUP2 \t\t\treturn projects[projectIndex]\n      MSTORE \t\t\treturn projects[projectIndex]\n      PUSH 20\t\t\treturn projects[projectIndex]\n      ADD \t\t\treturn projects[projectIndex]\n      DUP3 \t\t\treturn projects[projectIndex]\n      DUP1 \t\t\treturn projects[projectIndex]\n      SLOAD \t\t\treturn projects[projectIndex]\n      PUSH [tag] 68\t\t\treturn projects[projectIndex]\n      SWAP1 \t\t\treturn projects[projectIndex]\n      PUSH [tag] 29\t\t\treturn projects[projectIndex]\n      JUMP \t\t\treturn projects[projectIndex]\n    tag 68\t\t\treturn projects[projectIndex]\n      JUMPDEST \t\t\treturn projects[projectIndex]\n      DUP1 \t\t\treturn projects[projectIndex]\n      ISZERO \t\t\treturn projects[projectIndex]\n      PUSH [tag] 69\t\t\treturn projects[projectIndex]\n      JUMPI \t\t\treturn projects[projectIndex]\n      DUP1 \t\t\treturn projects[projectIndex]\n      PUSH 1F\t\t\treturn projects[projectIndex]\n      LT \t\t\treturn projects[projectIndex]\n      PUSH [tag] 70\t\t\treturn projects[projectIndex]\n      JUMPI \t\t\treturn projects[projectIndex]\n      PUSH 100\t\t\treturn projects[projectIndex]\n      DUP1 \t\t\treturn projects[projectIndex]\n      DUP4 \t\t\treturn projects[projectIndex]\n      SLOAD \t\t\treturn projects[projectIndex]\n      DIV \t\t\treturn projects[projectIndex]\n      MUL \t\t\treturn projects[projectIndex]\n      DUP4 \t\t\treturn projects[projectIndex]\n      MSTORE \t\t\treturn projects[projectIndex]\n      SWAP2 \t\t\treturn projects[projectIndex]\n      PUSH 20\t\t\treturn projects[projectIndex]\n      ADD \t\t\treturn projects[projectIndex]\n      SWAP2 \t\t\treturn projects[projectIndex]\n      PUSH [tag] 69\t\t\treturn projects[projectIndex]\n      JUMP \t\t\treturn projects[projectIndex]\n    tag 70\t\t\treturn projects[projectIndex]\n      JUMPDEST \t\t\treturn projects[projectIndex]\n      DUP3 \t\t\treturn projects[projectIndex]\n      ADD \t\t\treturn projects[projectIndex]\n      SWAP2 \t\t\treturn projects[projectIndex]\n      SWAP1 \t\t\treturn projects[projectIndex]\n      PUSH 0\t\t\treturn projects[projectIndex]\n      MSTORE \t\t\treturn projects[projectIndex]\n      PUSH 20\t\t\treturn projects[projectIndex]\n      PUSH 0\t\t\treturn projects[projectIndex]\n      KECCAK256 \t\t\treturn projects[projectIndex]\n      SWAP1 \t\t\treturn projects[projectIndex]\n    tag 71\t\t\treturn projects[projectIndex]\n      JUMPDEST \t\t\treturn projects[projectIndex]\n      DUP2 \t\t\treturn projects[projectIndex]\n      SLOAD \t\t\treturn projects[projectIndex]\n      DUP2 \t\t\treturn projects[projectIndex]\n      MSTORE \t\t\treturn projects[projectIndex]\n      SWAP1 \t\t\treturn projects[projectIndex]\n      PUSH 1\t\t\treturn projects[projectIndex]\n      ADD \t\t\treturn projects[projectIndex]\n      SWAP1 \t\t\treturn projects[projectIndex]\n      PUSH 20\t\t\treturn projects[projectIndex]\n      ADD \t\t\treturn projects[projectIndex]\n      DUP1 \t\t\treturn projects[projectIndex]\n      DUP4 \t\t\treturn projects[projectIndex]\n      GT \t\t\treturn projects[projectIndex]\n      PUSH [tag] 71\t\t\treturn projects[projectIndex]\n      JUMPI \t\t\treturn projects[projectIndex]\n      DUP3 \t\t\treturn projects[projectIndex]\n      SWAP1 \t\t\treturn projects[projectIndex]\n      SUB \t\t\treturn projects[projectIndex]\n      PUSH 1F\t\t\treturn projects[projectIndex]\n      AND \t\t\treturn projects[projectIndex]\n      DUP3 \t\t\treturn projects[projectIndex]\n      ADD \t\t\treturn projects[projectIndex]\n      SWAP2 \t\t\treturn projects[projectIndex]\n    tag 69\t\t\treturn projects[projectIndex]\n      JUMPDEST \t\t\treturn projects[projectIndex]\n      POP \t\t\treturn projects[projectIndex]\n      POP \t\t\treturn projects[projectIndex]\n      POP \t\t\treturn projects[projectIndex]\n      POP \t\t\treturn projects[projectIndex]\n      POP \t\t\treturn projects[projectIndex]\n      DUP2 \t\t\treturn projects[projectIndex]\n      MSTORE \t\t\treturn projects[projectIndex]\n      PUSH 20\t\t\treturn projects[projectIndex]\n      ADD \t\t\treturn projects[projectIndex]\n      PUSH 2\t\t\treturn projects[projectIndex]\n      DUP3 \t\t\treturn projects[projectIndex]\n      ADD \t\t\treturn projects[projectIndex]\n      SLOAD \t\t\treturn projects[projectIndex]\n      DUP2 \t\t\treturn projects[projectIndex]\n      MSTORE \t\t\treturn projects[projectIndex]\n      POP \t\t\treturn projects[projectIndex]\n      POP \t\t\treturn projects[projectIndex]\n      SWAP1 \t\t\treturn projects[projectIndex]\n      POP \t\t\treturn projects[projectIndex]\n      SWAP2 \t\t\tfunction getProjectById(uint25...\n      SWAP1 \t\t\tfunction getProjectById(uint25...\n      POP \t\t\tfunction getProjectById(uint25...\n      JUMP \t\t\tfunction getProjectById(uint25...\n    tag 23\t\t\tfunction getProjects() public ...\n      JUMPDEST \t\t\tfunction getProjects() public ...\n      PUSH 60\t\t\tProject[] memory\n      PUSH 0\t\t\tprojects\n      DUP1 \t\t\treturn projects\n      SLOAD \t\t\treturn projects\n      DUP1 \t\t\treturn projects\n      PUSH 20\t\t\treturn projects\n      MUL \t\t\treturn projects\n      PUSH 20\t\t\treturn projects\n      ADD \t\t\treturn projects\n      PUSH 40\t\t\treturn projects\n      MLOAD \t\t\treturn projects\n      SWAP1 \t\t\treturn projects\n      DUP2 \t\t\treturn projects\n      ADD \t\t\treturn projects\n      PUSH 40\t\t\treturn projects\n      MSTORE \t\t\treturn projects\n      DUP1 \t\t\treturn projects\n      SWAP3 \t\t\treturn projects\n      SWAP2 \t\t\treturn projects\n      SWAP1 \t\t\treturn projects\n      DUP2 \t\t\treturn projects\n      DUP2 \t\t\treturn projects\n      MSTORE \t\t\treturn projects\n      PUSH 20\t\t\treturn projects\n      ADD \t\t\treturn projects\n      PUSH 0\t\t\treturn projects\n      SWAP1 \t\t\treturn projects\n    tag 73\t\t\treturn projects\n      JUMPDEST \t\t\treturn projects\n      DUP3 \t\t\treturn projects\n      DUP3 \t\t\treturn projects\n      LT \t\t\treturn projects\n      ISZERO \t\t\treturn projects\n      PUSH [tag] 74\t\t\treturn projects\n      JUMPI \t\t\treturn projects\n      DUP4 \t\t\treturn projects\n      DUP3 \t\t\treturn projects\n      SWAP1 \t\t\treturn projects\n      PUSH 0\t\t\treturn projects\n      MSTORE \t\t\treturn projects\n      PUSH 20\t\t\treturn projects\n      PUSH 0\t\t\treturn projects\n      KECCAK256 \t\t\treturn projects\n      SWAP1 \t\t\treturn projects\n      PUSH 3\t\t\treturn projects\n      MUL \t\t\treturn projects\n      ADD \t\t\treturn projects\n      PUSH 40\t\t\treturn projects\n      MLOAD \t\t\treturn projects\n      DUP1 \t\t\treturn projects\n      PUSH 60\t\t\treturn projects\n      ADD \t\t\treturn projects\n      PUSH 40\t\t\treturn projects\n      MSTORE \t\t\treturn projects\n      SWAP1 \t\t\treturn projects\n      DUP2 \t\t\treturn projects\n      PUSH 0\t\t\treturn projects\n      DUP3 \t\t\treturn projects\n      ADD \t\t\treturn projects\n      DUP1 \t\t\treturn projects\n      SLOAD \t\t\treturn projects\n      PUSH [tag] 76\t\t\treturn projects\n      SWAP1 \t\t\treturn projects\n      PUSH [tag] 29\t\t\treturn projects\n      JUMP \t\t\treturn projects\n    tag 76\t\t\treturn projects\n      JUMPDEST \t\t\treturn projects\n      DUP1 \t\t\treturn projects\n      PUSH 1F\t\t\treturn projects\n      ADD \t\t\treturn projects\n      PUSH 20\t\t\treturn projects\n      DUP1 \t\t\treturn projects\n      SWAP2 \t\t\treturn projects\n      DIV \t\t\treturn projects\n      MUL \t\t\treturn projects\n      PUSH 20\t\t\treturn projects\n      ADD \t\t\treturn projects\n      PUSH 40\t\t\treturn projects\n      MLOAD \t\t\treturn projects\n      SWAP1 \t\t\treturn projects\n      DUP2 \t\t\treturn projects\n      ADD \t\t\treturn projects\n      PUSH 40\t\t\treturn projects\n      MSTORE \t\t\treturn projects\n      DUP1 \t\t\treturn projects\n      SWAP3 \t\t\treturn projects\n      SWAP2 \t\t\treturn projects\n      SWAP1 \t\t\treturn projects\n      DUP2 \t\t\treturn projects\n      DUP2 \t\t\treturn projects\n      MSTORE \t\t\treturn projects\n      PUSH 20\t\t\treturn projects\n      ADD \t\t\treturn projects\n      DUP3 \t\t\treturn projects\n      DUP1 \t\t\treturn projects\n      SLOAD \t\t\treturn projects\n      PUSH [tag] 77\t\t\treturn projects\n      SWAP1 \t\t\treturn projects\n      PUSH [tag] 29\t\t\treturn projects\n      JUMP \t\t\treturn projects\n    tag 77\t\t\treturn projects\n      JUMPDEST \t\t\treturn projects\n      DUP1 \t\t\treturn projects\n      ISZERO \t\t\treturn projects\n      PUSH [tag] 78\t\t\treturn projects\n      JUMPI \t\t\treturn projects\n      DUP1 \t\t\treturn projects\n      PUSH 1F\t\t\treturn projects\n      LT \t\t\treturn projects\n      PUSH [tag] 79\t\t\treturn projects\n      JUMPI \t\t\treturn projects\n      PUSH 100\t\t\treturn projects\n      DUP1 \t\t\treturn projects\n      DUP4 \t\t\treturn projects\n      SLOAD \t\t\treturn projects\n      DIV \t\t\treturn projects\n      MUL \t\t\treturn projects\n      DUP4 \t\t\treturn projects\n      MSTORE \t\t\treturn projects\n      SWAP2 \t\t\treturn projects\n      PUSH 20\t\t\treturn projects\n      ADD \t\t\treturn projects\n      SWAP2 \t\t\treturn projects\n      PUSH [tag] 78\t\t\treturn projects\n      JUMP \t\t\treturn projects\n    tag 79\t\t\treturn projects\n      JUMPDEST \t\t\treturn projects\n      DUP3 \t\t\treturn projects\n      ADD \t\t\treturn projects\n      SWAP2 \t\t\treturn projects\n      SWAP1 \t\t\treturn projects\n      PUSH 0\t\t\treturn projects\n      MSTORE \t\t\treturn projects\n      PUSH 20\t\t\treturn projects\n      PUSH 0\t\t\treturn projects\n      KECCAK256 \t\t\treturn projects\n      SWAP1 \t\t\treturn projects\n    tag 80\t\t\treturn projects\n      JUMPDEST \t\t\treturn projects\n      DUP2 \t\t\treturn projects\n      SLOAD \t\t\treturn projects\n      DUP2 \t\t\treturn projects\n      MSTORE \t\t\treturn projects\n      SWAP1 \t\t\treturn projects\n      PUSH 1\t\t\treturn projects\n      ADD \t\t\treturn projects\n      SWAP1 \t\t\treturn projects\n      PUSH 20\t\t\treturn projects\n      ADD \t\t\treturn projects\n      DUP1 \t\t\treturn projects\n      DUP4 \t\t\treturn projects\n      GT \t\t\treturn projects\n      PUSH [tag] 80\t\t\treturn projects\n      JUMPI \t\t\treturn projects\n      DUP3 \t\t\treturn projects\n      SWAP1 \t\t\treturn projects\n      SUB \t\t\treturn projects\n      PUSH 1F\t\t\treturn projects\n      AND \t\t\treturn projects\n      DUP3 \t\t\treturn projects\n      ADD \t\t\treturn projects\n      SWAP2 \t\t\treturn projects\n    tag 78\t\t\treturn projects\n      JUMPDEST \t\t\treturn projects\n      POP \t\t\treturn projects\n      POP \t\t\treturn projects\n      POP \t\t\treturn projects\n      POP \t\t\treturn projects\n      POP \t\t\treturn projects\n      DUP2 \t\t\treturn projects\n      MSTORE \t\t\treturn projects\n      PUSH 20\t\t\treturn projects\n      ADD \t\t\treturn projects\n      PUSH 1\t\t\treturn projects\n      DUP3 \t\t\treturn projects\n      ADD \t\t\treturn projects\n      DUP1 \t\t\treturn projects\n      SLOAD \t\t\treturn projects\n      PUSH [tag] 81\t\t\treturn projects\n      SWAP1 \t\t\treturn projects\n      PUSH [tag] 29\t\t\treturn projects\n      JUMP \t\t\treturn projects\n    tag 81\t\t\treturn projects\n      JUMPDEST \t\t\treturn projects\n      DUP1 \t\t\treturn projects\n      PUSH 1F\t\t\treturn projects\n      ADD \t\t\treturn projects\n      PUSH 20\t\t\treturn projects\n      DUP1 \t\t\treturn projects\n      SWAP2 \t\t\treturn projects\n      DIV \t\t\treturn projects\n      MUL \t\t\treturn projects\n      PUSH 20\t\t\treturn projects\n      ADD \t\t\treturn projects\n      PUSH 40\t\t\treturn projects\n      MLOAD \t\t\treturn projects\n      SWAP1 \t\t\treturn projects\n      DUP2 \t\t\treturn projects\n      ADD \t\t\treturn projects\n      PUSH 40\t\t\treturn projects\n      MSTORE \t\t\treturn projects\n      DUP1 \t\t\treturn projects\n      SWAP3 \t\t\treturn projects\n      SWAP2 \t\t\treturn projects\n      SWAP1 \t\t\treturn projects\n      DUP2 \t\t\treturn projects\n      DUP2 \t\t\treturn projects\n      MSTORE \t\t\treturn projects\n      PUSH 20\t\t\treturn projects\n      ADD \t\t\treturn projects\n      DUP3 \t\t\treturn projects\n      DUP1 \t\t\treturn projects\n      SLOAD \t\t\treturn projects\n      PUSH [tag] 82\t\t\treturn projects\n      SWAP1 \t\t\treturn projects\n      PUSH [tag] 29\t\t\treturn projects\n      JUMP \t\t\treturn projects\n    tag 82\t\t\treturn projects\n      JUMPDEST \t\t\treturn projects\n      DUP1 \t\t\treturn projects\n      ISZERO \t\t\treturn projects\n      PUSH [tag] 83\t\t\treturn projects\n      JUMPI \t\t\treturn projects\n      DUP1 \t\t\treturn projects\n      PUSH 1F\t\t\treturn projects\n      LT \t\t\treturn projects\n      PUSH [tag] 84\t\t\treturn projects\n      JUMPI \t\t\treturn projects\n      PUSH 100\t\t\treturn projects\n      DUP1 \t\t\treturn projects\n      DUP4 \t\t\treturn projects\n      SLOAD \t\t\treturn projects\n      DIV \t\t\treturn projects\n      MUL \t\t\treturn projects\n      DUP4 \t\t\treturn projects\n      MSTORE \t\t\treturn projects\n      SWAP2 \t\t\treturn projects\n      PUSH 20\t\t\treturn projects\n      ADD \t\t\treturn projects\n      SWAP2 \t\t\treturn projects\n      PUSH [tag] 83\t\t\treturn projects\n      JUMP \t\t\treturn projects\n    tag 84\t\t\treturn projects\n      JUMPDEST \t\t\treturn projects\n      DUP3 \t\t\treturn projects\n      ADD \t\t\treturn projects\n      SWAP2 \t\t\treturn projects\n      SWAP1 \t\t\treturn projects\n      PUSH 0\t\t\treturn projects\n      MSTORE \t\t\treturn projects\n      PUSH 20\t\t\treturn projects\n      PUSH 0\t\t\treturn projects\n      KECCAK256 \t\t\treturn projects\n      SWAP1 \t\t\treturn projects\n    tag 85\t\t\treturn projects\n      JUMPDEST \t\t\treturn projects\n      DUP2 \t\t\treturn projects\n      SLOAD \t\t\treturn projects\n      DUP2 \t\t\treturn projects\n      MSTORE \t\t\treturn projects\n      SWAP1 \t\t\treturn projects\n      PUSH 1\t\t\treturn projects\n      ADD \t\t\treturn projects\n      SWAP1 \t\t\treturn projects\n      PUSH 20\t\t\treturn projects\n      ADD \t\t\treturn projects\n      DUP1 \t\t\treturn projects\n      DUP4 \t\t\treturn projects\n      GT \t\t\treturn projects\n      PUSH [tag] 85\t\t\treturn projects\n      JUMPI \t\t\treturn projects\n      DUP3 \t\t\treturn projects\n      SWAP1 \t\t\treturn projects\n      SUB \t\t\treturn projects\n      PUSH 1F\t\t\treturn projects\n      AND \t\t\treturn projects\n      DUP3 \t\t\treturn projects\n      ADD \t\t\treturn projects\n      SWAP2 \t\t\treturn projects\n    tag 83\t\t\treturn projects\n      JUMPDEST \t\t\treturn projects\n      POP \t\t\treturn projects\n      POP \t\t\treturn projects\n      POP \t\t\treturn projects\n      POP \t\t\treturn projects\n      POP \t\t\treturn projects\n      DUP2 \t\t\treturn projects\n      MSTORE \t\t\treturn projects\n      PUSH 20\t\t\treturn projects\n      ADD \t\t\treturn projects\n      PUSH 2\t\t\treturn projects\n      DUP3 \t\t\treturn projects\n      ADD \t\t\treturn projects\n      SLOAD \t\t\treturn projects\n      DUP2 \t\t\treturn projects\n      MSTORE \t\t\treturn projects\n      POP \t\t\treturn projects\n      POP \t\t\treturn projects\n      DUP2 \t\t\treturn projects\n      MSTORE \t\t\treturn projects\n      PUSH 20\t\t\treturn projects\n      ADD \t\t\treturn projects\n      SWAP1 \t\t\treturn projects\n      PUSH 1\t\t\treturn projects\n      ADD \t\t\treturn projects\n      SWAP1 \t\t\treturn projects\n      PUSH [tag] 73\t\t\treturn projects\n      JUMP \t\t\treturn projects\n    tag 74\t\t\treturn projects\n      JUMPDEST \t\t\treturn projects\n      POP \t\t\treturn projects\n      POP \t\t\treturn projects\n      POP \t\t\treturn projects\n      POP \t\t\treturn projects\n      SWAP1 \t\t\treturn projects\n      POP \t\t\treturn projects\n      SWAP1 \t\t\tfunction getProjects() public ...\n      JUMP \t\t\tfunction getProjects() public ...\n    tag 53\t\t\t\n      JUMPDEST \t\t\t\n      PUSH 40\t\t\t\n      MLOAD \t\t\t\n      DUP1 \t\t\t\n      PUSH 60\t\t\t\n      ADD \t\t\t\n      PUSH 40\t\t\t\n      MSTORE \t\t\t\n      DUP1 \t\t\t\n      PUSH 60\t\t\t\n      DUP2 \t\t\t\n      MSTORE \t\t\t\n      PUSH 20\t\t\t\n      ADD \t\t\t\n      PUSH 60\t\t\t\n      DUP2 \t\t\t\n      MSTORE \t\t\t\n      PUSH 20\t\t\t\n      ADD \t\t\t\n      PUSH 0\t\t\t\n      DUP2 \t\t\t\n      MSTORE \t\t\t\n      POP \t\t\t\n      SWAP1 \t\t\t\n      JUMP \t\t\t\n    tag 86\t\t\t-License-Identifier: MIT\\r\\npr...\n      JUMPDEST \t\t\t-License-Identifier: MIT\\r\\npr...\n      PUSH 0\t\t\tsolidi\n      PUSH 40\t\t\tra\n      MLOAD \t\t\tt HederaP\n      SWAP1 \t\t\t\\n\\r\\ncontract HederaP\n      POP \t\t\t\\n\\r\\ncontract HederaP\n      SWAP1 \t\t\t-License-Identifier: MIT\\r\\npr...\n      JUMP \t\t\t-License-Identifier: MIT\\r\\npr...\n    tag 87\t\t\tct {\\r\\n    // Define the upda...\n      JUMPDEST \t\t\tct {\\r\\n    // Define the upda...\n      PUSH 0\t\t\tj\n      PUSH 0\t\t\tP\n      REVERT \t\t\t    // Proje\n    tag 88\t\t\t   bytes prj_hash;       // Pr...\n      JUMPDEST \t\t\t   bytes prj_hash;       // Pr...\n      PUSH 0\t\t\tp\n      PUSH 0\t\t\tt\n      REVERT \t\t\t/ Timestamp \n    tag 89\t\t\tn\\r\\n    }\\r\\n\\r\\n    Project[...\n      JUMPDEST \t\t\tn\\r\\n    }\\r\\n\\r\\n    Project[...\n      PUSH 0\t\t\tects;\\r\\n\n      DUP2 \t\t\tk sub\n      SWAP1 \t\t\tent to track sub\n      POP \t\t\tent to track sub\n      SWAP2 \t\t\tn\\r\\n    }\\r\\n\\r\\n    Project[...\n      SWAP1 \t\t\tn\\r\\n    }\\r\\n\\r\\n    Project[...\n      POP \t\t\tn\\r\\n    }\\r\\n\\r\\n    Project[...\n      JUMP \t\t\tn\\r\\n    }\\r\\n\\r\\n    Project[...\n    tag 90\t\t\tnew project hashes\\r\\n    even...\n      JUMPDEST \t\t\tnew project hashes\\r\\n    even...\n      PUSH [tag] 156\t\t\txed projectIndex,\\r\\n     \n      DUP2 \t\t\t\\n    \n      PUSH [tag] 89\t\t\txed projectIndex,\\r\\n     \n      JUMP \t\t\txed projectIndex,\\r\\n     \n    tag 156\t\t\txed projectIndex,\\r\\n     \n      JUMPDEST \t\t\txed projectIndex,\\r\\n     \n      DUP2 \t\t\t56 in\n      EQ \t\t\tnt256 indexed projectIndex,\\r\\...\n      PUSH [tag] 157\t\t\t        uint256 indexed projec...\n      JUMPI \t\t\t        uint256 indexed projec...\n      PUSH 0\t\t\td\n      PUSH 0\t\t\tj\n      REVERT \t\t\tring prj_id,\n    tag 157\t\t\t        uint256 indexed projec...\n      JUMPDEST \t\t\t        uint256 indexed projec...\n      POP \t\t\tnew project hashes\\r\\n    even...\n      JUMP \t\t\tnew project hashes\\r\\n    even...\n    tag 91\t\t\ts prj_hash,\\r\\n        uint256...\n      JUMPDEST \t\t\ts prj_hash,\\r\\n        uint256...\n      PUSH 0\t\t\t/ Inc\n      DUP2 \t\t\t    );\n      CALLDATALOAD \t\t\tn the event\\r\\n    );\\r\n      SWAP1 \t\t\tmestamp in the event\\r\\n    );...\n      POP \t\t\tmestamp in the event\\r\\n    );...\n      PUSH [tag] 159\t\t\t Add a new project hash to the...\n      DUP2 \t\t\tthe c\n      PUSH [tag] 90\t\t\t Add a new project hash to the...\n      JUMP \t\t\t Add a new project hash to the...\n    tag 159\t\t\t Add a new project hash to the...\n      JUMPDEST \t\t\t Add a new project hash to the...\n      SWAP3 \t\t\ts prj_hash,\\r\\n        uint256...\n      SWAP2 \t\t\ts prj_hash,\\r\\n        uint256...\n      POP \t\t\ts prj_hash,\\r\\n        uint256...\n      POP \t\t\ts prj_hash,\\r\\n        uint256...\n      JUMP \t\t\ts prj_hash,\\r\\n        uint256...\n    tag 9\t\t\tfunction submitProjectHash(\\r\\...\n      JUMPDEST \t\t\tfunction submitProjectHash(\\r\\...\n      PUSH 0\t\t\t\\n     \n      PUSH 20\t\t\t  \n      DUP3 \t\t\t public {\n      DUP5 \t\t\tsh\\r\\n   \n      SUB \t\t\tj_hash\\r\\n    ) public {\\r\n      SLT \t\t\ty prj_hash\\r\\n    ) public {\\r...\n      ISZERO \t\t\tmory prj_hash\\r\\n    ) public ...\n      PUSH [tag] 161\t\t\tmory prj_hash\\r\\n    ) public ...\n      JUMPI \t\t\tmory prj_hash\\r\\n    ) public ...\n      PUSH [tag] 162\t\t\t require(bytes(prj_id).length ...\n      PUSH [tag] 87\t\t\t require(bytes(prj_id).length ...\n      JUMP \t\t\t require(bytes(prj_id).length ...\n    tag 162\t\t\t require(bytes(prj_id).length ...\n      JUMPDEST \t\t\t require(bytes(prj_id).length ...\n    tag 161\t\t\tmory prj_hash\\r\\n    ) public ...\n      JUMPDEST \t\t\tmory prj_hash\\r\\n    ) public ...\n      PUSH 0\t\t\tt\n      PUSH [tag] 163\t\t\t    uint256 projectIndex = pro...\n      DUP5 \t\t\t\\r\\n     \n      DUP3 \t\t\tlength\n      DUP6 \t\t\t= project\n      ADD \t\t\tdex = projects.length;\n      PUSH [tag] 91\t\t\t    uint256 projectIndex = pro...\n      JUMP \t\t\t    uint256 projectIndex = pro...\n    tag 163\t\t\t    uint256 projectIndex = pro...\n      JUMPDEST \t\t\t    uint256 projectIndex = pro...\n      SWAP2 \t\t\t);\\r\\n\\r\\n        uint256 proj...\n      POP \t\t\t);\\r\\n\\r\\n        uint256 proj...\n      POP \t\t\tngth == 32, \"Project hash must...\n      SWAP3 \t\t\tfunction submitProjectHash(\\r\\...\n      SWAP2 \t\t\tfunction submitProjectHash(\\r\\...\n      POP \t\t\tfunction submitProjectHash(\\r\\...\n      POP \t\t\tfunction submitProjectHash(\\r\\...\n      JUMP \t\t\tfunction submitProjectHash(\\r\\...\n    tag 92\t\t\t       Project({\\r\\n          ...\n      JUMPDEST \t\t\t       Project({\\r\\n          ...\n      PUSH 0\t\t\t      \n      DUP2 \t\t\t\\r\\n   \n      MLOAD \t\t\t_hash,\\r\\n    \n      SWAP1 \t\t\t_hash: prj_hash,\\r\\n    \n      POP \t\t\t_hash: prj_hash,\\r\\n    \n      SWAP2 \t\t\t       Project({\\r\\n          ...\n      SWAP1 \t\t\t       Project({\\r\\n          ...\n      POP \t\t\t       Project({\\r\\n          ...\n      JUMP \t\t\t       Project({\\r\\n          ...\n    tag 93\t\t\tubmission_time: block.timestam...\n      JUMPDEST \t\t\tubmission_time: block.timestam...\n      PUSH 0\t\t\t    );\\r\\n\\r\\n \n      DUP3 \t\t\tSubmit\n      DUP3 \t\t\ttHa\n      MSTORE \t\t\t ProjectHashSubmitt\n      PUSH 20\t\t\t    \n      DUP3 \t\t\tx,\\r\n      ADD \t\t\tIndex,\\r\\n      \n      SWAP1 \t\t\t        projectIndex,\\r\\n     ...\n      POP \t\t\t        projectIndex,\\r\\n     ...\n      SWAP3 \t\t\tubmission_time: block.timestam...\n      SWAP2 \t\t\tubmission_time: block.timestam...\n      POP \t\t\tubmission_time: block.timestam...\n      POP \t\t\tubmission_time: block.timestam...\n      JUMP \t\t\tubmission_time: block.timestam...\n    tag 94\t\t\t,\\r\\n            prj_hash,\\r\\n...\n      JUMPDEST \t\t\t,\\r\\n            prj_hash,\\r\\n...\n      DUP3 \t\t\tnt\\r\\n  \n      DUP2 \t\t\te e\n      DUP4 \t\t\tin \n      MCOPY \t\t\tstamp in the event\\r\\n   \n      PUSH 0\t\t\t \n      DUP4 \t\t\tFetch \n      DUP4 \t\t\t  /\n      ADD \t\t\t\\r\\n    // Fetch a\n      MSTORE \t\t\t    }\\r\\n\\r\\n    // Fetch all ...\n      POP \t\t\t,\\r\\n            prj_hash,\\r\\n...\n      POP \t\t\t,\\r\\n            prj_hash,\\r\\n...\n      POP \t\t\t,\\r\\n            prj_hash,\\r\\n...\n      JUMP \t\t\t,\\r\\n            prj_hash,\\r\\n...\n    tag 95\t\t\t hashes\\r\\n    function getPro...\n      JUMPDEST \t\t\t hashes\\r\\n    function getPro...\n      PUSH 0\t\t\tc view\n      PUSH 1F\t\t\t p\n      NOT \t\t\tturn pr\n      PUSH 1F\t\t\t  \n      DUP4 \t\t\t\\r\\n   \n      ADD \t\t\ty) {\\r\\n        \n      AND \t\t\temory) {\\r\\n        return pro\n      SWAP1 \t\t\troject[] memory) {\\r\\n        ...\n      POP \t\t\troject[] memory) {\\r\\n        ...\n      SWAP2 \t\t\t hashes\\r\\n    function getPro...\n      SWAP1 \t\t\t hashes\\r\\n    function getPro...\n      POP \t\t\t hashes\\r\\n    function getPro...\n      JUMP \t\t\t hashes\\r\\n    function getPro...\n    tag 96\t\t\t}\\r\\n\\r\\n    // Fetch a specif...\n      JUMPDEST \t\t\t}\\r\\n\\r\\n    // Fetch a specif...\n      PUSH 0\t\t\tctI\n      PUSH [tag] 169\t\t\t (Project memory) {\\r\\n       ...\n      DUP3 \t\t\tire(p\n      PUSH [tag] 92\t\t\t (Project memory) {\\r\\n       ...\n      JUMP \t\t\t (Project memory) {\\r\\n       ...\n    tag 169\t\t\t (Project memory) {\\r\\n       ...\n      JUMPDEST \t\t\t (Project memory) {\\r\\n       ...\n      PUSH [tag] 170\t\t\tjects.length, \"Project does no...\n      DUP2 \t\t\tts[pro\n      DUP6 \t\t\troj\n      PUSH [tag] 93\t\t\tjects.length, \"Project does no...\n      JUMP \t\t\tjects.length, \"Project does no...\n    tag 170\t\t\tjects.length, \"Project does no...\n      JUMPDEST \t\t\tjects.length, \"Project does no...\n      SWAP4 \t\t\tx < projects.length, \"Project ...\n      POP \t\t\tx < projects.length, \"Project ...\n      PUSH [tag] 171\t\t\t;\\r\\n    }\\r\\n}\\r\\n\n      DUP2 \t\t\t\n      DUP6 \t\t\t\n      PUSH 20\t\t\t\n      DUP7 \t\t\t\n      ADD \t\t\t\n      PUSH [tag] 94\t\t\t;\\r\\n    }\\r\\n}\\r\\n\n      JUMP \t\t\t;\\r\\n    }\\r\\n}\\r\\n\n    tag 171\t\t\t;\\r\\n    }\\r\\n}\\r\\n\n      JUMPDEST \t\t\t;\\r\\n    }\\r\\n}\\r\\n\n      PUSH [tag] 172\t\t\t\n      DUP2 \t\t\t\n      PUSH [tag] 95\t\t\t\n      JUMP \t\t\t\n    tag 172\t\t\t\n      JUMPDEST \t\t\t\n      DUP5 \t\t\t\n      ADD \t\t\t\n      SWAP2 \t\t\t\n      POP \t\t\t\n      POP \t\t\tdex) public view returns (Proj...\n      SWAP3 \t\t\t}\\r\\n\\r\\n    // Fetch a specif...\n      SWAP2 \t\t\t}\\r\\n\\r\\n    // Fetch a specif...\n      POP \t\t\t}\\r\\n\\r\\n    // Fetch a specif...\n      POP \t\t\t}\\r\\n\\r\\n    // Fetch a specif...\n      JUMP \t\t\t}\\r\\n\\r\\n    // Fetch a specif...\n    tag 97\t\t\t\n      JUMPDEST \t\t\t\n      PUSH 0\t\t\t\n      DUP2 \t\t\t\n      MLOAD \t\t\t\n      SWAP1 \t\t\t\n      POP \t\t\t\n      SWAP2 \t\t\t\n      SWAP1 \t\t\t\n      POP \t\t\t\n      JUMP \t\t\t\n    tag 98\t\t\t\n      JUMPDEST \t\t\t\n      PUSH 0\t\t\t\n      DUP3 \t\t\t\n      DUP3 \t\t\t\n      MSTORE \t\t\t\n      PUSH 20\t\t\t\n      DUP3 \t\t\t\n      ADD \t\t\t\n      SWAP1 \t\t\t\n      POP \t\t\t\n      SWAP3 \t\t\t\n      SWAP2 \t\t\t\n      POP \t\t\t\n      POP \t\t\t\n      JUMP \t\t\t\n    tag 99\t\t\t\n      JUMPDEST \t\t\t\n      PUSH 0\t\t\t\n      PUSH [tag] 176\t\t\t\n      DUP3 \t\t\t\n      PUSH [tag] 97\t\t\t\n      JUMP \t\t\t\n    tag 176\t\t\t\n      JUMPDEST \t\t\t\n      PUSH [tag] 177\t\t\t\n      DUP2 \t\t\t\n      DUP6 \t\t\t\n      PUSH [tag] 98\t\t\t\n      JUMP \t\t\t\n    tag 177\t\t\t\n      JUMPDEST \t\t\t\n      SWAP4 \t\t\t\n      POP \t\t\t\n      PUSH [tag] 178\t\t\t\n      DUP2 \t\t\t\n      DUP6 \t\t\t\n      PUSH 20\t\t\t\n      DUP7 \t\t\t\n      ADD \t\t\t\n      PUSH [tag] 94\t\t\t\n      JUMP \t\t\t\n    tag 178\t\t\t\n      JUMPDEST \t\t\t\n      PUSH [tag] 179\t\t\t\n      DUP2 \t\t\t\n      PUSH [tag] 95\t\t\t\n      JUMP \t\t\t\n    tag 179\t\t\t\n      JUMPDEST \t\t\t\n      DUP5 \t\t\t\n      ADD \t\t\t\n      SWAP2 \t\t\t\n      POP \t\t\t\n      POP \t\t\t\n      SWAP3 \t\t\t\n      SWAP2 \t\t\t\n      POP \t\t\t\n      POP \t\t\t\n      JUMP \t\t\t\n    tag 100\t\t\t\n      JUMPDEST \t\t\t\n      PUSH [tag] 181\t\t\t\n      DUP2 \t\t\t\n      PUSH [tag] 89\t\t\t\n      JUMP \t\t\t\n    tag 181\t\t\t\n      JUMPDEST \t\t\t\n      DUP3 \t\t\t\n      MSTORE \t\t\t\n      POP \t\t\t\n      POP \t\t\t\n      JUMP \t\t\t\n    tag 12\t\t\t\n      JUMPDEST \t\t\t\n      PUSH 0\t\t\t\n      PUSH 60\t\t\t\n      DUP3 \t\t\t\n      ADD \t\t\t\n      SWAP1 \t\t\t\n      POP \t\t\t\n      DUP2 \t\t\t\n      DUP2 \t\t\t\n      SUB \t\t\t\n      PUSH 0\t\t\t\n      DUP4 \t\t\t\n      ADD \t\t\t\n      MSTORE \t\t\t\n      PUSH [tag] 183\t\t\t\n      DUP2 \t\t\t\n      DUP7 \t\t\t\n      PUSH [tag] 96\t\t\t\n      JUMP \t\t\t\n    tag 183\t\t\t\n      JUMPDEST \t\t\t\n      SWAP1 \t\t\t\n      POP \t\t\t\n      DUP2 \t\t\t\n      DUP2 \t\t\t\n      SUB \t\t\t\n      PUSH 20\t\t\t\n      DUP4 \t\t\t\n      ADD \t\t\t\n      MSTORE \t\t\t\n      PUSH [tag] 184\t\t\t\n      DUP2 \t\t\t\n      DUP6 \t\t\t\n      PUSH [tag] 99\t\t\t\n      JUMP \t\t\t\n    tag 184\t\t\t\n      JUMPDEST \t\t\t\n      SWAP1 \t\t\t\n      POP \t\t\t\n      PUSH [tag] 185\t\t\t\n      PUSH 40\t\t\t\n      DUP4 \t\t\t\n      ADD \t\t\t\n      DUP5 \t\t\t\n      PUSH [tag] 100\t\t\t\n      JUMP \t\t\t\n    tag 185\t\t\t\n      JUMPDEST \t\t\t\n      SWAP5 \t\t\t\n      SWAP4 \t\t\t\n      POP \t\t\t\n      POP \t\t\t\n      POP \t\t\t\n      POP \t\t\t\n      JUMP \t\t\t\n    tag 101\t\t\t\n      JUMPDEST \t\t\t\n      PUSH 0\t\t\t\n      PUSH 0\t\t\t\n      REVERT \t\t\t\n    tag 102\t\t\t\n      JUMPDEST \t\t\t\n      PUSH 0\t\t\t\n      PUSH 0\t\t\t\n      REVERT \t\t\t\n    tag 103\t\t\t\n      JUMPDEST \t\t\t\n      PUSH 4E487B7100000000000000000000000000000000000000000000000000000000\t\t\t\n      PUSH 0\t\t\t\n      MSTORE \t\t\t\n      PUSH 41\t\t\t\n      PUSH 4\t\t\t\n      MSTORE \t\t\t\n      PUSH 24\t\t\t\n      PUSH 0\t\t\t\n      REVERT \t\t\t\n    tag 104\t\t\t\n      JUMPDEST \t\t\t\n      PUSH [tag] 190\t\t\t\n      DUP3 \t\t\t\n      PUSH [tag] 95\t\t\t\n      JUMP \t\t\t\n    tag 190\t\t\t\n      JUMPDEST \t\t\t\n      DUP2 \t\t\t\n      ADD \t\t\t\n      DUP2 \t\t\t\n      DUP2 \t\t\t\n      LT \t\t\t\n      PUSH FFFFFFFFFFFFFFFF\t\t\t\n      DUP3 \t\t\t\n      GT \t\t\t\n      OR \t\t\t\n      ISZERO \t\t\t\n      PUSH [tag] 191\t\t\t\n      JUMPI \t\t\t\n      PUSH [tag] 192\t\t\t\n      PUSH [tag] 103\t\t\t\n      JUMP \t\t\t\n    tag 192\t\t\t\n      JUMPDEST \t\t\t\n    tag 191\t\t\t\n      JUMPDEST \t\t\t\n      DUP1 \t\t\t\n      PUSH 40\t\t\t\n      MSTORE \t\t\t\n      POP \t\t\t\n      POP \t\t\t\n      POP \t\t\t\n      JUMP \t\t\t\n    tag 105\t\t\t\n      JUMPDEST \t\t\t\n      PUSH 0\t\t\t\n      PUSH [tag] 194\t\t\t\n      PUSH [tag] 86\t\t\t\n      JUMP \t\t\t\n    tag 194\t\t\t\n      JUMPDEST \t\t\t\n      SWAP1 \t\t\t\n      POP \t\t\t\n      PUSH [tag] 195\t\t\t\n      DUP3 \t\t\t\n      DUP3 \t\t\t\n      PUSH [tag] 104\t\t\t\n      JUMP \t\t\t\n    tag 195\t\t\t\n      JUMPDEST \t\t\t\n      SWAP2 \t\t\t\n      SWAP1 \t\t\t\n      POP \t\t\t\n      JUMP \t\t\t\n    tag 106\t\t\t\n      JUMPDEST \t\t\t\n      PUSH 0\t\t\t\n      PUSH FFFFFFFFFFFFFFFF\t\t\t\n      DUP3 \t\t\t\n      GT \t\t\t\n      ISZERO \t\t\t\n      PUSH [tag] 197\t\t\t\n      JUMPI \t\t\t\n      PUSH [tag] 198\t\t\t\n      PUSH [tag] 103\t\t\t\n      JUMP \t\t\t\n    tag 198\t\t\t\n      JUMPDEST \t\t\t\n    tag 197\t\t\t\n      JUMPDEST \t\t\t\n      PUSH [tag] 199\t\t\t\n      DUP3 \t\t\t\n      PUSH [tag] 95\t\t\t\n      JUMP \t\t\t\n    tag 199\t\t\t\n      JUMPDEST \t\t\t\n      SWAP1 \t\t\t\n      POP \t\t\t\n      PUSH 20\t\t\t\n      DUP2 \t\t\t\n      ADD \t\t\t\n      SWAP1 \t\t\t\n      POP \t\t\t\n      SWAP2 \t\t\t\n      SWAP1 \t\t\t\n      POP \t\t\t\n      JUMP \t\t\t\n    tag 107\t\t\t\n      JUMPDEST \t\t\t\n      DUP3 \t\t\t\n      DUP2 \t\t\t\n      DUP4 \t\t\t\n      CALLDATACOPY \t\t\t\n      PUSH 0\t\t\t\n      DUP4 \t\t\t\n      DUP4 \t\t\t\n      ADD \t\t\t\n      MSTORE \t\t\t\n      POP \t\t\t\n      POP \t\t\t\n      POP \t\t\t\n      JUMP \t\t\t\n    tag 108\t\t\t\n      JUMPDEST \t\t\t\n      PUSH 0\t\t\t\n      PUSH [tag] 202\t\t\t\n      PUSH [tag] 203\t\t\t\n      DUP5 \t\t\t\n      PUSH [tag] 106\t\t\t\n      JUMP \t\t\t\n    tag 203\t\t\t\n      JUMPDEST \t\t\t\n      PUSH [tag] 105\t\t\t\n      JUMP \t\t\t\n    tag 202\t\t\t\n      JUMPDEST \t\t\t\n      SWAP1 \t\t\t\n      POP \t\t\t\n      DUP3 \t\t\t\n      DUP2 \t\t\t\n      MSTORE \t\t\t\n      PUSH 20\t\t\t\n      DUP2 \t\t\t\n      ADD \t\t\t\n      DUP5 \t\t\t\n      DUP5 \t\t\t\n      DUP5 \t\t\t\n      ADD \t\t\t\n      GT \t\t\t\n      ISZERO \t\t\t\n      PUSH [tag] 204\t\t\t\n      JUMPI \t\t\t\n      PUSH [tag] 205\t\t\t\n      PUSH [tag] 102\t\t\t\n      JUMP \t\t\t\n    tag 205\t\t\t\n      JUMPDEST \t\t\t\n    tag 204\t\t\t\n      JUMPDEST \t\t\t\n      PUSH [tag] 206\t\t\t\n      DUP5 \t\t\t\n      DUP3 \t\t\t\n      DUP6 \t\t\t\n      PUSH [tag] 107\t\t\t\n      JUMP \t\t\t\n    tag 206\t\t\t\n      JUMPDEST \t\t\t\n      POP \t\t\t\n      SWAP4 \t\t\t\n      SWAP3 \t\t\t\n      POP \t\t\t\n      POP \t\t\t\n      POP \t\t\t\n      JUMP \t\t\t\n    tag 109\t\t\t\n      JUMPDEST \t\t\t\n      PUSH 0\t\t\t\n      DUP3 \t\t\t\n      PUSH 1F\t\t\t\n      DUP4 \t\t\t\n      ADD \t\t\t\n      SLT \t\t\t\n      PUSH [tag] 208\t\t\t\n      JUMPI \t\t\t\n      PUSH [tag] 209\t\t\t\n      PUSH [tag] 101\t\t\t\n      JUMP \t\t\t\n    tag 209\t\t\t\n      JUMPDEST \t\t\t\n    tag 208\t\t\t\n      JUMPDEST \t\t\t\n      DUP2 \t\t\t\n      CALLDATALOAD \t\t\t\n      PUSH [tag] 210\t\t\t\n      DUP5 \t\t\t\n      DUP3 \t\t\t\n      PUSH 20\t\t\t\n      DUP7 \t\t\t\n      ADD \t\t\t\n      PUSH [tag] 108\t\t\t\n      JUMP \t\t\t\n    tag 210\t\t\t\n      JUMPDEST \t\t\t\n      SWAP2 \t\t\t\n      POP \t\t\t\n      POP \t\t\t\n      SWAP3 \t\t\t\n      SWAP2 \t\t\t\n      POP \t\t\t\n      POP \t\t\t\n      JUMP \t\t\t\n    tag 110\t\t\t\n      JUMPDEST \t\t\t\n      PUSH 0\t\t\t\n      PUSH FFFFFFFFFFFFFFFF\t\t\t\n      DUP3 \t\t\t\n      GT \t\t\t\n      ISZERO \t\t\t\n      PUSH [tag] 212\t\t\t\n      JUMPI \t\t\t\n      PUSH [tag] 213\t\t\t\n      PUSH [tag] 103\t\t\t\n      JUMP \t\t\t\n    tag 213\t\t\t\n      JUMPDEST \t\t\t\n    tag 212\t\t\t\n      JUMPDEST \t\t\t\n      PUSH [tag] 214\t\t\t\n      DUP3 \t\t\t\n      PUSH [tag] 95\t\t\t\n      JUMP \t\t\t\n    tag 214\t\t\t\n      JUMPDEST \t\t\t\n      SWAP1 \t\t\t\n      POP \t\t\t\n      PUSH 20\t\t\t\n      DUP2 \t\t\t\n      ADD \t\t\t\n      SWAP1 \t\t\t\n      POP \t\t\t\n      SWAP2 \t\t\t\n      SWAP1 \t\t\t\n      POP \t\t\t\n      JUMP \t\t\t\n    tag 111\t\t\t\n      JUMPDEST \t\t\t\n      PUSH 0\t\t\t\n      PUSH [tag] 216\t\t\t\n      PUSH [tag] 217\t\t\t\n      DUP5 \t\t\t\n      PUSH [tag] 110\t\t\t\n      JUMP \t\t\t\n    tag 217\t\t\t\n      JUMPDEST \t\t\t\n      PUSH [tag] 105\t\t\t\n      JUMP \t\t\t\n    tag 216\t\t\t\n      JUMPDEST \t\t\t\n      SWAP1 \t\t\t\n      POP \t\t\t\n      DUP3 \t\t\t\n      DUP2 \t\t\t\n      MSTORE \t\t\t\n      PUSH 20\t\t\t\n      DUP2 \t\t\t\n      ADD \t\t\t\n      DUP5 \t\t\t\n      DUP5 \t\t\t\n      DUP5 \t\t\t\n      ADD \t\t\t\n      GT \t\t\t\n      ISZERO \t\t\t\n      PUSH [tag] 218\t\t\t\n      JUMPI \t\t\t\n      PUSH [tag] 219\t\t\t\n      PUSH [tag] 102\t\t\t\n      JUMP \t\t\t\n    tag 219\t\t\t\n      JUMPDEST \t\t\t\n    tag 218\t\t\t\n      JUMPDEST \t\t\t\n      PUSH [tag] 220\t\t\t\n      DUP5 \t\t\t\n      DUP3 \t\t\t\n      DUP6 \t\t\t\n      PUSH [tag] 107\t\t\t\n      JUMP \t\t\t\n    tag 220\t\t\t\n      JUMPDEST \t\t\t\n      POP \t\t\t\n      SWAP4 \t\t\t\n      SWAP3 \t\t\t\n      POP \t\t\t\n      POP \t\t\t\n      POP \t\t\t\n      JUMP \t\t\t\n    tag 112\t\t\t\n      JUMPDEST \t\t\t\n      PUSH 0\t\t\t\n      DUP3 \t\t\t\n      PUSH 1F\t\t\t\n      DUP4 \t\t\t\n      ADD \t\t\t\n      SLT \t\t\t\n      PUSH [tag] 222\t\t\t\n      JUMPI \t\t\t\n      PUSH [tag] 223\t\t\t\n      PUSH [tag] 101\t\t\t\n      JUMP \t\t\t\n    tag 223\t\t\t\n      JUMPDEST \t\t\t\n    tag 222\t\t\t\n      JUMPDEST \t\t\t\n      DUP2 \t\t\t\n      CALLDATALOAD \t\t\t\n      PUSH [tag] 224\t\t\t\n      DUP5 \t\t\t\n      DUP3 \t\t\t\n      PUSH 20\t\t\t\n      DUP7 \t\t\t\n      ADD \t\t\t\n      PUSH [tag] 111\t\t\t\n      JUMP \t\t\t\n    tag 224\t\t\t\n      JUMPDEST \t\t\t\n      SWAP2 \t\t\t\n      POP \t\t\t\n      POP \t\t\t\n      SWAP3 \t\t\t\n      SWAP2 \t\t\t\n      POP \t\t\t\n      POP \t\t\t\n      JUMP \t\t\t\n    tag 15\t\t\t\n      JUMPDEST \t\t\t\n      PUSH 0\t\t\t\n      PUSH 0\t\t\t\n      PUSH 40\t\t\t\n      DUP4 \t\t\t\n      DUP6 \t\t\t\n      SUB \t\t\t\n      SLT \t\t\t\n      ISZERO \t\t\t\n      PUSH [tag] 226\t\t\t\n      JUMPI \t\t\t\n      PUSH [tag] 227\t\t\t\n      PUSH [tag] 87\t\t\t\n      JUMP \t\t\t\n    tag 227\t\t\t\n      JUMPDEST \t\t\t\n    tag 226\t\t\t\n      JUMPDEST \t\t\t\n      PUSH 0\t\t\t\n      DUP4 \t\t\t\n      ADD \t\t\t\n      CALLDATALOAD \t\t\t\n      PUSH FFFFFFFFFFFFFFFF\t\t\t\n      DUP2 \t\t\t\n      GT \t\t\t\n      ISZERO \t\t\t\n      PUSH [tag] 228\t\t\t\n      JUMPI \t\t\t\n      PUSH [tag] 229\t\t\t\n      PUSH [tag] 88\t\t\t\n      JUMP \t\t\t\n    tag 229\t\t\t\n      JUMPDEST \t\t\t\n    tag 228\t\t\t\n      JUMPDEST \t\t\t\n      PUSH [tag] 230\t\t\t\n      DUP6 \t\t\t\n      DUP3 \t\t\t\n      DUP7 \t\t\t\n      ADD \t\t\t\n      PUSH [tag] 109\t\t\t\n      JUMP \t\t\t\n    tag 230\t\t\t\n      JUMPDEST \t\t\t\n      SWAP3 \t\t\t\n      POP \t\t\t\n      POP \t\t\t\n      PUSH 20\t\t\t\n      DUP4 \t\t\t\n      ADD \t\t\t\n      CALLDATALOAD \t\t\t\n      PUSH FFFFFFFFFFFFFFFF\t\t\t\n      DUP2 \t\t\t\n      GT \t\t\t\n      ISZERO \t\t\t\n      PUSH [tag] 231\t\t\t\n      JUMPI \t\t\t\n      PUSH [tag] 232\t\t\t\n      PUSH [tag] 88\t\t\t\n      JUMP \t\t\t\n    tag 232\t\t\t\n      JUMPDEST \t\t\t\n    tag 231\t\t\t\n      JUMPDEST \t\t\t\n      PUSH [tag] 233\t\t\t\n      DUP6 \t\t\t\n      DUP3 \t\t\t\n      DUP7 \t\t\t\n      ADD \t\t\t\n      PUSH [tag] 112\t\t\t\n      JUMP \t\t\t\n    tag 233\t\t\t\n      JUMPDEST \t\t\t\n      SWAP2 \t\t\t\n      POP \t\t\t\n      POP \t\t\t\n      SWAP3 \t\t\t\n      POP \t\t\t\n      SWAP3 \t\t\t\n      SWAP1 \t\t\t\n      POP \t\t\t\n      JUMP \t\t\t\n    tag 113\t\t\t\n      JUMPDEST \t\t\t\n      PUSH 0\t\t\t\n      DUP3 \t\t\t\n      DUP3 \t\t\t\n      MSTORE \t\t\t\n      PUSH 20\t\t\t\n      DUP3 \t\t\t\n      ADD \t\t\t\n      SWAP1 \t\t\t\n      POP \t\t\t\n      SWAP3 \t\t\t\n      SWAP2 \t\t\t\n      POP \t\t\t\n      POP \t\t\t\n      JUMP \t\t\t\n    tag 114\t\t\t\n      JUMPDEST \t\t\t\n      PUSH 0\t\t\t\n      PUSH [tag] 236\t\t\t\n      DUP3 \t\t\t\n      PUSH [tag] 92\t\t\t\n      JUMP \t\t\t\n    tag 236\t\t\t\n      JUMPDEST \t\t\t\n      PUSH [tag] 237\t\t\t\n      DUP2 \t\t\t\n      DUP6 \t\t\t\n      PUSH [tag] 113\t\t\t\n      JUMP \t\t\t\n    tag 237\t\t\t\n      JUMPDEST \t\t\t\n      SWAP4 \t\t\t\n      POP \t\t\t\n      PUSH [tag] 238\t\t\t\n      DUP2 \t\t\t\n      DUP6 \t\t\t\n      PUSH 20\t\t\t\n      DUP7 \t\t\t\n      ADD \t\t\t\n      PUSH [tag] 94\t\t\t\n      JUMP \t\t\t\n    tag 238\t\t\t\n      JUMPDEST \t\t\t\n      PUSH [tag] 239\t\t\t\n      DUP2 \t\t\t\n      PUSH [tag] 95\t\t\t\n      JUMP \t\t\t\n    tag 239\t\t\t\n      JUMPDEST \t\t\t\n      DUP5 \t\t\t\n      ADD \t\t\t\n      SWAP2 \t\t\t\n      POP \t\t\t\n      POP \t\t\t\n      SWAP3 \t\t\t\n      SWAP2 \t\t\t\n      POP \t\t\t\n      POP \t\t\t\n      JUMP \t\t\t\n    tag 115\t\t\t\n      JUMPDEST \t\t\t\n      PUSH 0\t\t\t\n      DUP3 \t\t\t\n      DUP3 \t\t\t\n      MSTORE \t\t\t\n      PUSH 20\t\t\t\n      DUP3 \t\t\t\n      ADD \t\t\t\n      SWAP1 \t\t\t\n      POP \t\t\t\n      SWAP3 \t\t\t\n      SWAP2 \t\t\t\n      POP \t\t\t\n      POP \t\t\t\n      JUMP \t\t\t\n    tag 116\t\t\t\n      JUMPDEST \t\t\t\n      PUSH 0\t\t\t\n      PUSH [tag] 242\t\t\t\n      DUP3 \t\t\t\n      PUSH [tag] 97\t\t\t\n      JUMP \t\t\t\n    tag 242\t\t\t\n      JUMPDEST \t\t\t\n      PUSH [tag] 243\t\t\t\n      DUP2 \t\t\t\n      DUP6 \t\t\t\n      PUSH [tag] 115\t\t\t\n      JUMP \t\t\t\n    tag 243\t\t\t\n      JUMPDEST \t\t\t\n      SWAP4 \t\t\t\n      POP \t\t\t\n      PUSH [tag] 244\t\t\t\n      DUP2 \t\t\t\n      DUP6 \t\t\t\n      PUSH 20\t\t\t\n      DUP7 \t\t\t\n      ADD \t\t\t\n      PUSH [tag] 94\t\t\t\n      JUMP \t\t\t\n    tag 244\t\t\t\n      JUMPDEST \t\t\t\n      PUSH [tag] 245\t\t\t\n      DUP2 \t\t\t\n      PUSH [tag] 95\t\t\t\n      JUMP \t\t\t\n    tag 245\t\t\t\n      JUMPDEST \t\t\t\n      DUP5 \t\t\t\n      ADD \t\t\t\n      SWAP2 \t\t\t\n      POP \t\t\t\n      POP \t\t\t\n      SWAP3 \t\t\t\n      SWAP2 \t\t\t\n      POP \t\t\t\n      POP \t\t\t\n      JUMP \t\t\t\n    tag 117\t\t\t\n      JUMPDEST \t\t\t\n      PUSH [tag] 247\t\t\t\n      DUP2 \t\t\t\n      PUSH [tag] 89\t\t\t\n      JUMP \t\t\t\n    tag 247\t\t\t\n      JUMPDEST \t\t\t\n      DUP3 \t\t\t\n      MSTORE \t\t\t\n      POP \t\t\t\n      POP \t\t\t\n      JUMP \t\t\t\n    tag 118\t\t\t\n      JUMPDEST \t\t\t\n      PUSH 0\t\t\t\n      PUSH 60\t\t\t\n      DUP4 \t\t\t\n      ADD \t\t\t\n      PUSH 0\t\t\t\n      DUP4 \t\t\t\n      ADD \t\t\t\n      MLOAD \t\t\t\n      DUP5 \t\t\t\n      DUP3 \t\t\t\n      SUB \t\t\t\n      PUSH 0\t\t\t\n      DUP7 \t\t\t\n      ADD \t\t\t\n      MSTORE \t\t\t\n      PUSH [tag] 249\t\t\t\n      DUP3 \t\t\t\n      DUP3 \t\t\t\n      PUSH [tag] 114\t\t\t\n      JUMP \t\t\t\n    tag 249\t\t\t\n      JUMPDEST \t\t\t\n      SWAP2 \t\t\t\n      POP \t\t\t\n      POP \t\t\t\n      PUSH 20\t\t\t\n      DUP4 \t\t\t\n      ADD \t\t\t\n      MLOAD \t\t\t\n      DUP5 \t\t\t\n      DUP3 \t\t\t\n      SUB \t\t\t\n      PUSH 20\t\t\t\n      DUP7 \t\t\t\n      ADD \t\t\t\n      MSTORE \t\t\t\n      PUSH [tag] 250\t\t\t\n      DUP3 \t\t\t\n      DUP3 \t\t\t\n      PUSH [tag] 116\t\t\t\n      JUMP \t\t\t\n    tag 250\t\t\t\n      JUMPDEST \t\t\t\n      SWAP2 \t\t\t\n      POP \t\t\t\n      POP \t\t\t\n      PUSH 40\t\t\t\n      DUP4 \t\t\t\n      ADD \t\t\t\n      MLOAD \t\t\t\n      PUSH [tag] 251\t\t\t\n      PUSH 40\t\t\t\n      DUP7 \t\t\t\n      ADD \t\t\t\n      DUP3 \t\t\t\n      PUSH [tag] 117\t\t\t\n      JUMP \t\t\t\n    tag 251\t\t\t\n      JUMPDEST \t\t\t\n      POP \t\t\t\n      DUP1 \t\t\t\n      SWAP2 \t\t\t\n      POP \t\t\t\n      POP \t\t\t\n      SWAP3 \t\t\t\n      SWAP2 \t\t\t\n      POP \t\t\t\n      POP \t\t\t\n      JUMP \t\t\t\n    tag 21\t\t\t\n      JUMPDEST \t\t\t\n      PUSH 0\t\t\t\n      PUSH 20\t\t\t\n      DUP3 \t\t\t\n      ADD \t\t\t\n      SWAP1 \t\t\t\n      POP \t\t\t\n      DUP2 \t\t\t\n      DUP2 \t\t\t\n      SUB \t\t\t\n      PUSH 0\t\t\t\n      DUP4 \t\t\t\n      ADD \t\t\t\n      MSTORE \t\t\t\n      PUSH [tag] 253\t\t\t\n      DUP2 \t\t\t\n      DUP5 \t\t\t\n      PUSH [tag] 118\t\t\t\n      JUMP \t\t\t\n    tag 253\t\t\t\n      JUMPDEST \t\t\t\n      SWAP1 \t\t\t\n      POP \t\t\t\n      SWAP3 \t\t\t\n      SWAP2 \t\t\t\n      POP \t\t\t\n      POP \t\t\t\n      JUMP \t\t\t\n    tag 119\t\t\t\n      JUMPDEST \t\t\t\n      PUSH 0\t\t\t\n      DUP2 \t\t\t\n      MLOAD \t\t\t\n      SWAP1 \t\t\t\n      POP \t\t\t\n      SWAP2 \t\t\t\n      SWAP1 \t\t\t\n      POP \t\t\t\n      JUMP \t\t\t\n    tag 120\t\t\t\n      JUMPDEST \t\t\t\n      PUSH 0\t\t\t\n      DUP3 \t\t\t\n      DUP3 \t\t\t\n      MSTORE \t\t\t\n      PUSH 20\t\t\t\n      DUP3 \t\t\t\n      ADD \t\t\t\n      SWAP1 \t\t\t\n      POP \t\t\t\n      SWAP3 \t\t\t\n      SWAP2 \t\t\t\n      POP \t\t\t\n      POP \t\t\t\n      JUMP \t\t\t\n    tag 121\t\t\t\n      JUMPDEST \t\t\t\n      PUSH 0\t\t\t\n      DUP2 \t\t\t\n      SWAP1 \t\t\t\n      POP \t\t\t\n      PUSH 20\t\t\t\n      DUP3 \t\t\t\n      ADD \t\t\t\n      SWAP1 \t\t\t\n      POP \t\t\t\n      SWAP2 \t\t\t\n      SWAP1 \t\t\t\n      POP \t\t\t\n      JUMP \t\t\t\n    tag 122\t\t\t\n      JUMPDEST \t\t\t\n      PUSH 0\t\t\t\n      PUSH 60\t\t\t\n      DUP4 \t\t\t\n      ADD \t\t\t\n      PUSH 0\t\t\t\n      DUP4 \t\t\t\n      ADD \t\t\t\n      MLOAD \t\t\t\n      DUP5 \t\t\t\n      DUP3 \t\t\t\n      SUB \t\t\t\n      PUSH 0\t\t\t\n      DUP7 \t\t\t\n      ADD \t\t\t\n      MSTORE \t\t\t\n      PUSH [tag] 258\t\t\t\n      DUP3 \t\t\t\n      DUP3 \t\t\t\n      PUSH [tag] 114\t\t\t\n      JUMP \t\t\t\n    tag 258\t\t\t\n      JUMPDEST \t\t\t\n      SWAP2 \t\t\t\n      POP \t\t\t\n      POP \t\t\t\n      PUSH 20\t\t\t\n      DUP4 \t\t\t\n      ADD \t\t\t\n      MLOAD \t\t\t\n      DUP5 \t\t\t\n      DUP3 \t\t\t\n      SUB \t\t\t\n      PUSH 20\t\t\t\n      DUP7 \t\t\t\n      ADD \t\t\t\n      MSTORE \t\t\t\n      PUSH [tag] 259\t\t\t\n      DUP3 \t\t\t\n      DUP3 \t\t\t\n      PUSH [tag] 116\t\t\t\n      JUMP \t\t\t\n    tag 259\t\t\t\n      JUMPDEST \t\t\t\n      SWAP2 \t\t\t\n      POP \t\t\t\n      POP \t\t\t\n      PUSH 40\t\t\t\n      DUP4 \t\t\t\n      ADD \t\t\t\n      MLOAD \t\t\t\n      PUSH [tag] 260\t\t\t\n      PUSH 40\t\t\t\n      DUP7 \t\t\t\n      ADD \t\t\t\n      DUP3 \t\t\t\n      PUSH [tag] 117\t\t\t\n      JUMP \t\t\t\n    tag 260\t\t\t\n      JUMPDEST \t\t\t\n      POP \t\t\t\n      DUP1 \t\t\t\n      SWAP2 \t\t\t\n      POP \t\t\t\n      POP \t\t\t\n      SWAP3 \t\t\t\n      SWAP2 \t\t\t\n      POP \t\t\t\n      POP \t\t\t\n      JUMP \t\t\t\n    tag 123\t\t\t\n      JUMPDEST \t\t\t\n      PUSH 0\t\t\t\n      PUSH [tag] 262\t\t\t\n      DUP4 \t\t\t\n      DUP4 \t\t\t\n      PUSH [tag] 122\t\t\t\n      JUMP \t\t\t\n    tag 262\t\t\t\n      JUMPDEST \t\t\t\n      SWAP1 \t\t\t\n      POP \t\t\t\n      SWAP3 \t\t\t\n      SWAP2 \t\t\t\n      POP \t\t\t\n      POP \t\t\t\n      JUMP \t\t\t\n    tag 124\t\t\t\n      JUMPDEST \t\t\t\n      PUSH 0\t\t\t\n      PUSH 20\t\t\t\n      DUP3 \t\t\t\n      ADD \t\t\t\n      SWAP1 \t\t\t\n      POP \t\t\t\n      SWAP2 \t\t\t\n      SWAP1 \t\t\t\n      POP \t\t\t\n      JUMP \t\t\t\n    tag 125\t\t\t\n      JUMPDEST \t\t\t\n      PUSH 0\t\t\t\n      PUSH [tag] 265\t\t\t\n      DUP3 \t\t\t\n      PUSH [tag] 119\t\t\t\n      JUMP \t\t\t\n    tag 265\t\t\t\n      JUMPDEST \t\t\t\n      PUSH [tag] 266\t\t\t\n      DUP2 \t\t\t\n      DUP6 \t\t\t\n      PUSH [tag] 120\t\t\t\n      JUMP \t\t\t\n    tag 266\t\t\t\n      JUMPDEST \t\t\t\n      SWAP4 \t\t\t\n      POP \t\t\t\n      DUP4 \t\t\t\n      PUSH 20\t\t\t\n      DUP3 \t\t\t\n      MUL \t\t\t\n      DUP6 \t\t\t\n      ADD \t\t\t\n      PUSH [tag] 267\t\t\t\n      DUP6 \t\t\t\n      PUSH [tag] 121\t\t\t\n      JUMP \t\t\t\n    tag 267\t\t\t\n      JUMPDEST \t\t\t\n      DUP1 \t\t\t\n      PUSH 0\t\t\t\n    tag 268\t\t\t\n      JUMPDEST \t\t\t\n      DUP6 \t\t\t\n      DUP2 \t\t\t\n      LT \t\t\t\n      ISZERO \t\t\t\n      PUSH [tag] 270\t\t\t\n      JUMPI \t\t\t\n      DUP5 \t\t\t\n      DUP5 \t\t\t\n      SUB \t\t\t\n      DUP10 \t\t\t\n      MSTORE \t\t\t\n      DUP2 \t\t\t\n      MLOAD \t\t\t\n      PUSH [tag] 271\t\t\t\n      DUP6 \t\t\t\n      DUP3 \t\t\t\n      PUSH [tag] 123\t\t\t\n      JUMP \t\t\t\n    tag 271\t\t\t\n      JUMPDEST \t\t\t\n      SWAP5 \t\t\t\n      POP \t\t\t\n      PUSH [tag] 272\t\t\t\n      DUP4 \t\t\t\n      PUSH [tag] 124\t\t\t\n      JUMP \t\t\t\n    tag 272\t\t\t\n      JUMPDEST \t\t\t\n      SWAP3 \t\t\t\n      POP \t\t\t\n      PUSH 20\t\t\t\n      DUP11 \t\t\t\n      ADD \t\t\t\n      SWAP10 \t\t\t\n      POP \t\t\t\n      POP \t\t\t\n      PUSH 1\t\t\t\n      DUP2 \t\t\t\n      ADD \t\t\t\n      SWAP1 \t\t\t\n      POP \t\t\t\n      PUSH [tag] 268\t\t\t\n      JUMP \t\t\t\n    tag 270\t\t\t\n      JUMPDEST \t\t\t\n      POP \t\t\t\n      DUP3 \t\t\t\n      SWAP8 \t\t\t\n      POP \t\t\t\n      DUP8 \t\t\t\n      SWAP6 \t\t\t\n      POP \t\t\t\n      POP \t\t\t\n      POP \t\t\t\n      POP \t\t\t\n      POP \t\t\t\n      POP \t\t\t\n      SWAP3 \t\t\t\n      SWAP2 \t\t\t\n      POP \t\t\t\n      POP \t\t\t\n      JUMP \t\t\t\n    tag 25\t\t\t\n      JUMPDEST \t\t\t\n      PUSH 0\t\t\t\n      PUSH 20\t\t\t\n      DUP3 \t\t\t\n      ADD \t\t\t\n      SWAP1 \t\t\t\n      POP \t\t\t\n      DUP2 \t\t\t\n      DUP2 \t\t\t\n      SUB \t\t\t\n      PUSH 0\t\t\t\n      DUP4 \t\t\t\n      ADD \t\t\t\n      MSTORE \t\t\t\n      PUSH [tag] 274\t\t\t\n      DUP2 \t\t\t\n      DUP5 \t\t\t\n      PUSH [tag] 125\t\t\t\n      JUMP \t\t\t\n    tag 274\t\t\t\n      JUMPDEST \t\t\t\n      SWAP1 \t\t\t\n      POP \t\t\t\n      SWAP3 \t\t\t\n      SWAP2 \t\t\t\n      POP \t\t\t\n      POP \t\t\t\n      JUMP \t\t\t\n    tag 126\t\t\t\n      JUMPDEST \t\t\t\n      PUSH 4E487B7100000000000000000000000000000000000000000000000000000000\t\t\t\n      PUSH 0\t\t\t\n      MSTORE \t\t\t\n      PUSH 22\t\t\t\n      PUSH 4\t\t\t\n      MSTORE \t\t\t\n      PUSH 24\t\t\t\n      PUSH 0\t\t\t\n      REVERT \t\t\t\n    tag 29\t\t\t\n      JUMPDEST \t\t\t\n      PUSH 0\t\t\t\n      PUSH 2\t\t\t\n      DUP3 \t\t\t\n      DIV \t\t\t\n      SWAP1 \t\t\t\n      POP \t\t\t\n      PUSH 1\t\t\t\n      DUP3 \t\t\t\n      AND \t\t\t\n      DUP1 \t\t\t\n      PUSH [tag] 277\t\t\t\n      JUMPI \t\t\t\n      PUSH 7F\t\t\t\n      DUP3 \t\t\t\n      AND \t\t\t\n      SWAP2 \t\t\t\n      POP \t\t\t\n    tag 277\t\t\t\n      JUMPDEST \t\t\t\n      PUSH 20\t\t\t\n      DUP3 \t\t\t\n      LT \t\t\t\n      DUP2 \t\t\t\n      SUB \t\t\t\n      PUSH [tag] 278\t\t\t\n      JUMPI \t\t\t\n      PUSH [tag] 279\t\t\t\n      PUSH [tag] 126\t\t\t\n      JUMP \t\t\t\n    tag 279\t\t\t\n      JUMPDEST \t\t\t\n    tag 278\t\t\t\n      JUMPDEST \t\t\t\n      POP \t\t\t\n      SWAP2 \t\t\t\n      SWAP1 \t\t\t\n      POP \t\t\t\n      JUMP \t\t\t\n    tag 127\t\t\t\n      JUMPDEST \t\t\t\n      PUSH 50726F6A6563742049442069732072657175697265642E000000000000000000\t\t\t\n      PUSH 0\t\t\t\n      DUP3 \t\t\t\n      ADD \t\t\t\n      MSTORE \t\t\t\n      POP \t\t\t\n      JUMP \t\t\t\n    tag 128\t\t\t\n      JUMPDEST \t\t\t\n      PUSH 0\t\t\t\n      PUSH [tag] 282\t\t\t\n      PUSH 17\t\t\t\n      DUP4 \t\t\t\n      PUSH [tag] 93\t\t\t\n      JUMP \t\t\t\n    tag 282\t\t\t\n      JUMPDEST \t\t\t\n      SWAP2 \t\t\t\n      POP \t\t\t\n      PUSH [tag] 283\t\t\t\n      DUP3 \t\t\t\n      PUSH [tag] 127\t\t\t\n      JUMP \t\t\t\n    tag 283\t\t\t\n      JUMPDEST \t\t\t\n      PUSH 20\t\t\t\n      DUP3 \t\t\t\n      ADD \t\t\t\n      SWAP1 \t\t\t\n      POP \t\t\t\n      SWAP2 \t\t\t\n      SWAP1 \t\t\t\n      POP \t\t\t\n      JUMP \t\t\t\n    tag 42\t\t\t\n      JUMPDEST \t\t\t\n      PUSH 0\t\t\t\n      PUSH 20\t\t\t\n      DUP3 \t\t\t\n      ADD \t\t\t\n      SWAP1 \t\t\t\n      POP \t\t\t\n      DUP2 \t\t\t\n      DUP2 \t\t\t\n      SUB \t\t\t\n      PUSH 0\t\t\t\n      DUP4 \t\t\t\n      ADD \t\t\t\n      MSTORE \t\t\t\n      PUSH [tag] 285\t\t\t\n      DUP2 \t\t\t\n      PUSH [tag] 128\t\t\t\n      JUMP \t\t\t\n    tag 285\t\t\t\n      JUMPDEST \t\t\t\n      SWAP1 \t\t\t\n      POP \t\t\t\n      SWAP2 \t\t\t\n      SWAP1 \t\t\t\n      POP \t\t\t\n      JUMP \t\t\t\n    tag 129\t\t\t\n      JUMPDEST \t\t\t\n      PUSH 50726F6A6563742068617368206D7573742062652033322062797465732E0000\t\t\t\n      PUSH 0\t\t\t\n      DUP3 \t\t\t\n      ADD \t\t\t\n      MSTORE \t\t\t\n      POP \t\t\t\n      JUMP \t\t\t\n    tag 130\t\t\t\n      JUMPDEST \t\t\t\n      PUSH 0\t\t\t\n      PUSH [tag] 288\t\t\t\n      PUSH 1E\t\t\t\n      DUP4 \t\t\t\n      PUSH [tag] 93\t\t\t\n      JUMP \t\t\t\n    tag 288\t\t\t\n      JUMPDEST \t\t\t\n      SWAP2 \t\t\t\n      POP \t\t\t\n      PUSH [tag] 289\t\t\t\n      DUP3 \t\t\t\n      PUSH [tag] 129\t\t\t\n      JUMP \t\t\t\n    tag 289\t\t\t\n      JUMPDEST \t\t\t\n      PUSH 20\t\t\t\n      DUP3 \t\t\t\n      ADD \t\t\t\n      SWAP1 \t\t\t\n      POP \t\t\t\n      SWAP2 \t\t\t\n      SWAP1 \t\t\t\n      POP \t\t\t\n      JUMP \t\t\t\n    tag 45\t\t\t\n      JUMPDEST \t\t\t\n      PUSH 0\t\t\t\n      PUSH 20\t\t\t\n      DUP3 \t\t\t\n      ADD \t\t\t\n      SWAP1 \t\t\t\n      POP \t\t\t\n      DUP2 \t\t\t\n      DUP2 \t\t\t\n      SUB \t\t\t\n      PUSH 0\t\t\t\n      DUP4 \t\t\t\n      ADD \t\t\t\n      MSTORE \t\t\t\n      PUSH [tag] 291\t\t\t\n      DUP2 \t\t\t\n      PUSH [tag] 130\t\t\t\n      JUMP \t\t\t\n    tag 291\t\t\t\n      JUMPDEST \t\t\t\n      SWAP1 \t\t\t\n      POP \t\t\t\n      SWAP2 \t\t\t\n      SWAP1 \t\t\t\n      POP \t\t\t\n      JUMP \t\t\t\n    tag 131\t\t\t\n      JUMPDEST \t\t\t\n      PUSH 0\t\t\t\n      DUP2 \t\t\t\n      SWAP1 \t\t\t\n      POP \t\t\t\n      DUP2 \t\t\t\n      PUSH 0\t\t\t\n      MSTORE \t\t\t\n      PUSH 20\t\t\t\n      PUSH 0\t\t\t\n      KECCAK256 \t\t\t\n      SWAP1 \t\t\t\n      POP \t\t\t\n      SWAP2 \t\t\t\n      SWAP1 \t\t\t\n      POP \t\t\t\n      JUMP \t\t\t\n    tag 132\t\t\t\n      JUMPDEST \t\t\t\n      PUSH 0\t\t\t\n      PUSH 20\t\t\t\n      PUSH 1F\t\t\t\n      DUP4 \t\t\t\n      ADD \t\t\t\n      DIV \t\t\t\n      SWAP1 \t\t\t\n      POP \t\t\t\n      SWAP2 \t\t\t\n      SWAP1 \t\t\t\n      POP \t\t\t\n      JUMP \t\t\t\n    tag 133\t\t\t\n      JUMPDEST \t\t\t\n      PUSH 0\t\t\t\n      DUP3 \t\t\t\n      DUP3 \t\t\t\n      SHL \t\t\t\n      SWAP1 \t\t\t\n      POP \t\t\t\n      SWAP3 \t\t\t\n      SWAP2 \t\t\t\n      POP \t\t\t\n      POP \t\t\t\n      JUMP \t\t\t\n    tag 134\t\t\t\n      JUMPDEST \t\t\t\n      PUSH 0\t\t\t\n      PUSH 8\t\t\t\n      DUP4 \t\t\t\n      MUL \t\t\t\n      PUSH [tag] 296\t\t\t\n      PUSH FFFFFFFFFFFFFFFFFFFFFFFFFFFFFFFFFFFFFFFFFFFFFFFFFFFFFFFFFFFFFFFF\t\t\t\n      DUP3 \t\t\t\n      PUSH [tag] 133\t\t\t\n      JUMP \t\t\t\n    tag 296\t\t\t\n      JUMPDEST \t\t\t\n      PUSH [tag] 297\t\t\t\n      DUP7 \t\t\t\n      DUP4 \t\t\t\n      PUSH [tag] 133\t\t\t\n      JUMP \t\t\t\n    tag 297\t\t\t\n      JUMPDEST \t\t\t\n      SWAP6 \t\t\t\n      POP \t\t\t\n      DUP1 \t\t\t\n      NOT \t\t\t\n      DUP5 \t\t\t\n      AND \t\t\t\n      SWAP4 \t\t\t\n      POP \t\t\t\n      DUP1 \t\t\t\n      DUP7 \t\t\t\n      AND \t\t\t\n      DUP5 \t\t\t\n      OR \t\t\t\n      SWAP3 \t\t\t\n      POP \t\t\t\n      POP \t\t\t\n      POP \t\t\t\n      SWAP4 \t\t\t\n      SWAP3 \t\t\t\n      POP \t\t\t\n      POP \t\t\t\n      POP \t\t\t\n      JUMP \t\t\t\n    tag 135\t\t\t\n      JUMPDEST \t\t\t\n      PUSH 0\t\t\t\n      DUP2 \t\t\t\n      SWAP1 \t\t\t\n      POP \t\t\t\n      SWAP2 \t\t\t\n      SWAP1 \t\t\t\n      POP \t\t\t\n      JUMP \t\t\t\n    tag 136\t\t\t\n      JUMPDEST \t\t\t\n      PUSH 0\t\t\t\n      PUSH [tag] 300\t\t\t\n      PUSH [tag] 301\t\t\t\n      PUSH [tag] 302\t\t\t\n      DUP5 \t\t\t\n      PUSH [tag] 89\t\t\t\n      JUMP \t\t\t\n    tag 302\t\t\t\n      JUMPDEST \t\t\t\n      PUSH [tag] 135\t\t\t\n      JUMP \t\t\t\n    tag 301\t\t\t\n      JUMPDEST \t\t\t\n      PUSH [tag] 89\t\t\t\n      JUMP \t\t\t\n    tag 300\t\t\t\n      JUMPDEST \t\t\t\n      SWAP1 \t\t\t\n      POP \t\t\t\n      SWAP2 \t\t\t\n      SWAP1 \t\t\t\n      POP \t\t\t\n      JUMP \t\t\t\n    tag 137\t\t\t\n      JUMPDEST \t\t\t\n      PUSH 0\t\t\t\n      DUP2 \t\t\t\n      SWAP1 \t\t\t\n      POP \t\t\t\n      SWAP2 \t\t\t\n      SWAP1 \t\t\t\n      POP \t\t\t\n      JUMP \t\t\t\n    tag 138\t\t\t\n      JUMPDEST \t\t\t\n      PUSH [tag] 305\t\t\t\n      DUP4 \t\t\t\n      PUSH [tag] 136\t\t\t\n      JUMP \t\t\t\n    tag 305\t\t\t\n      JUMPDEST \t\t\t\n      PUSH [tag] 306\t\t\t\n      PUSH [tag] 307\t\t\t\n      DUP3 \t\t\t\n      PUSH [tag] 137\t\t\t\n      JUMP \t\t\t\n    tag 307\t\t\t\n      JUMPDEST \t\t\t\n      DUP5 \t\t\t\n      DUP5 \t\t\t\n      SLOAD \t\t\t\n      PUSH [tag] 134\t\t\t\n      JUMP \t\t\t\n    tag 306\t\t\t\n      JUMPDEST \t\t\t\n      DUP3 \t\t\t\n      SSTORE \t\t\t\n      POP \t\t\t\n      POP \t\t\t\n      POP \t\t\t\n      POP \t\t\t\n      JUMP \t\t\t\n    tag 139\t\t\t\n      JUMPDEST \t\t\t\n      PUSH 0\t\t\t\n      PUSH 0\t\t\t\n      SWAP1 \t\t\t\n      POP \t\t\t\n      SWAP1 \t\t\t\n      JUMP \t\t\t\n    tag 140\t\t\t\n      JUMPDEST \t\t\t\n      PUSH [tag] 310\t\t\t\n      PUSH [tag] 139\t\t\t\n      JUMP \t\t\t\n    tag 310\t\t\t\n      JUMPDEST \t\t\t\n      PUSH [tag] 311\t\t\t\n      DUP2 \t\t\t\n      DUP5 \t\t\t\n      DUP5 \t\t\t\n      PUSH [tag] 138\t\t\t\n      JUMP \t\t\t\n    tag 311\t\t\t\n      JUMPDEST \t\t\t\n      POP \t\t\t\n      POP \t\t\t\n      POP \t\t\t\n      JUMP \t\t\t\n    tag 141\t\t\t\n      JUMPDEST \t\t\t\n    tag 313\t\t\t\n      JUMPDEST \t\t\t\n      DUP2 \t\t\t\n      DUP2 \t\t\t\n      LT \t\t\t\n      ISZERO \t\t\t\n      PUSH [tag] 315\t\t\t\n      JUMPI \t\t\t\n      PUSH [tag] 316\t\t\t\n      PUSH 0\t\t\t\n      DUP3 \t\t\t\n      PUSH [tag] 140\t\t\t\n      JUMP \t\t\t\n    tag 316\t\t\t\n      JUMPDEST \t\t\t\n      PUSH 1\t\t\t\n      DUP2 \t\t\t\n      ADD \t\t\t\n      SWAP1 \t\t\t\n      POP \t\t\t\n      PUSH [tag] 313\t\t\t\n      JUMP \t\t\t\n    tag 315\t\t\t\n      JUMPDEST \t\t\t\n      POP \t\t\t\n      POP \t\t\t\n      JUMP \t\t\t\n    tag 142\t\t\t\n      JUMPDEST \t\t\t\n      PUSH 1F\t\t\t\n      DUP3 \t\t\t\n      GT \t\t\t\n      ISZERO \t\t\t\n      PUSH [tag] 318\t\t\t\n      JUMPI \t\t\t\n      PUSH [tag] 319\t\t\t\n      DUP2 \t\t\t\n      PUSH [tag] 131\t\t\t\n      JUMP \t\t\t\n    tag 319\t\t\t\n      JUMPDEST \t\t\t\n      PUSH [tag] 320\t\t\t\n      DUP5 \t\t\t\n      PUSH [tag] 132\t\t\t\n      JUMP \t\t\t\n    tag 320\t\t\t\n      JUMPDEST \t\t\t\n      DUP2 \t\t\t\n      ADD \t\t\t\n      PUSH 20\t\t\t\n      DUP6 \t\t\t\n      LT \t\t\t\n      ISZERO \t\t\t\n      PUSH [tag] 321\t\t\t\n      JUMPI \t\t\t\n      DUP2 \t\t\t\n      SWAP1 \t\t\t\n      POP \t\t\t\n    tag 321\t\t\t\n      JUMPDEST \t\t\t\n      PUSH [tag] 322\t\t\t\n      PUSH [tag] 323\t\t\t\n      DUP6 \t\t\t\n      PUSH [tag] 132\t\t\t\n      JUMP \t\t\t\n    tag 323\t\t\t\n      JUMPDEST \t\t\t\n      DUP4 \t\t\t\n      ADD \t\t\t\n      DUP3 \t\t\t\n      PUSH [tag] 141\t\t\t\n      JUMP \t\t\t\n    tag 322\t\t\t\n      JUMPDEST \t\t\t\n      POP \t\t\t\n      POP \t\t\t\n    tag 318\t\t\t\n      JUMPDEST \t\t\t\n      POP \t\t\t\n      POP \t\t\t\n      POP \t\t\t\n      JUMP \t\t\t\n    tag 143\t\t\t\n      JUMPDEST \t\t\t\n      PUSH 0\t\t\t\n      DUP3 \t\t\t\n      DUP3 \t\t\t\n      SHR \t\t\t\n      SWAP1 \t\t\t\n      POP \t\t\t\n      SWAP3 \t\t\t\n      SWAP2 \t\t\t\n      POP \t\t\t\n      POP \t\t\t\n      JUMP \t\t\t\n    tag 144\t\t\t\n      JUMPDEST \t\t\t\n      PUSH 0\t\t\t\n      PUSH [tag] 326\t\t\t\n      PUSH 0\t\t\t\n      NOT \t\t\t\n      DUP5 \t\t\t\n      PUSH 8\t\t\t\n      MUL \t\t\t\n      PUSH [tag] 143\t\t\t\n      JUMP \t\t\t\n    tag 326\t\t\t\n      JUMPDEST \t\t\t\n      NOT \t\t\t\n      DUP1 \t\t\t\n      DUP4 \t\t\t\n      AND \t\t\t\n      SWAP2 \t\t\t\n      POP \t\t\t\n      POP \t\t\t\n      SWAP3 \t\t\t\n      SWAP2 \t\t\t\n      POP \t\t\t\n      POP \t\t\t\n      JUMP \t\t\t\n    tag 145\t\t\t\n      JUMPDEST \t\t\t\n      PUSH 0\t\t\t\n      PUSH [tag] 328\t\t\t\n      DUP4 \t\t\t\n      DUP4 \t\t\t\n      PUSH [tag] 144\t\t\t\n      JUMP \t\t\t\n    tag 328\t\t\t\n      JUMPDEST \t\t\t\n      SWAP2 \t\t\t\n      POP \t\t\t\n      DUP3 \t\t\t\n      PUSH 2\t\t\t\n      MUL \t\t\t\n      DUP3 \t\t\t\n      OR \t\t\t\n      SWAP1 \t\t\t\n      POP \t\t\t\n      SWAP3 \t\t\t\n      SWAP2 \t\t\t\n      POP \t\t\t\n      POP \t\t\t\n      JUMP \t\t\t\n    tag 48\t\t\t\n      JUMPDEST \t\t\t\n      PUSH [tag] 330\t\t\t\n      DUP3 \t\t\t\n      PUSH [tag] 92\t\t\t\n      JUMP \t\t\t\n    tag 330\t\t\t\n      JUMPDEST \t\t\t\n      PUSH FFFFFFFFFFFFFFFF\t\t\t\n      DUP2 \t\t\t\n      GT \t\t\t\n      ISZERO \t\t\t\n      PUSH [tag] 331\t\t\t\n      JUMPI \t\t\t\n      PUSH [tag] 332\t\t\t\n      PUSH [tag] 103\t\t\t\n      JUMP \t\t\t\n    tag 332\t\t\t\n      JUMPDEST \t\t\t\n    tag 331\t\t\t\n      JUMPDEST \t\t\t\n      PUSH [tag] 333\t\t\t\n      DUP3 \t\t\t\n      SLOAD \t\t\t\n      PUSH [tag] 29\t\t\t\n      JUMP \t\t\t\n    tag 333\t\t\t\n      JUMPDEST \t\t\t\n      PUSH [tag] 334\t\t\t\n      DUP3 \t\t\t\n      DUP3 \t\t\t\n      DUP6 \t\t\t\n      PUSH [tag] 142\t\t\t\n      JUMP \t\t\t\n    tag 334\t\t\t\n      JUMPDEST \t\t\t\n      PUSH 0\t\t\t\n      PUSH 20\t\t\t\n      SWAP1 \t\t\t\n      POP \t\t\t\n      PUSH 1F\t\t\t\n      DUP4 \t\t\t\n      GT \t\t\t\n      PUSH 1\t\t\t\n      DUP2 \t\t\t\n      EQ \t\t\t\n      PUSH [tag] 336\t\t\t\n      JUMPI \t\t\t\n      PUSH 0\t\t\t\n      DUP5 \t\t\t\n      ISZERO \t\t\t\n      PUSH [tag] 337\t\t\t\n      JUMPI \t\t\t\n      DUP3 \t\t\t\n      DUP8 \t\t\t\n      ADD \t\t\t\n      MLOAD \t\t\t\n      SWAP1 \t\t\t\n      POP \t\t\t\n    tag 337\t\t\t\n      JUMPDEST \t\t\t\n      PUSH [tag] 338\t\t\t\n      DUP6 \t\t\t\n      DUP3 \t\t\t\n      PUSH [tag] 145\t\t\t\n      JUMP \t\t\t\n    tag 338\t\t\t\n      JUMPDEST \t\t\t\n      DUP7 \t\t\t\n      SSTORE \t\t\t\n      POP \t\t\t\n      PUSH [tag] 335\t\t\t\n      JUMP \t\t\t\n    tag 336\t\t\t\n      JUMPDEST \t\t\t\n      PUSH 1F\t\t\t\n      NOT \t\t\t\n      DUP5 \t\t\t\n      AND \t\t\t\n      PUSH [tag] 339\t\t\t\n      DUP7 \t\t\t\n      PUSH [tag] 131\t\t\t\n      JUMP \t\t\t\n    tag 339\t\t\t\n      JUMPDEST \t\t\t\n      PUSH 0\t\t\t\n    tag 340\t\t\t\n      JUMPDEST \t\t\t\n      DUP3 \t\t\t\n      DUP2 \t\t\t\n      LT \t\t\t\n      ISZERO \t\t\t\n      PUSH [tag] 342\t\t\t\n      JUMPI \t\t\t\n      DUP5 \t\t\t\n      DUP10 \t\t\t\n      ADD \t\t\t\n      MLOAD \t\t\t\n      DUP3 \t\t\t\n      SSTORE \t\t\t\n      PUSH 1\t\t\t\n      DUP3 \t\t\t\n      ADD \t\t\t\n      SWAP2 \t\t\t\n      POP \t\t\t\n      PUSH 20\t\t\t\n      DUP6 \t\t\t\n      ADD \t\t\t\n      SWAP5 \t\t\t\n      POP \t\t\t\n      PUSH 20\t\t\t\n      DUP2 \t\t\t\n      ADD \t\t\t\n      SWAP1 \t\t\t\n      POP \t\t\t\n      PUSH [tag] 340\t\t\t\n      JUMP \t\t\t\n    tag 342\t\t\t\n      JUMPDEST \t\t\t\n      DUP7 \t\t\t\n      DUP4 \t\t\t\n      LT \t\t\t\n      ISZERO \t\t\t\n      PUSH [tag] 343\t\t\t\n      JUMPI \t\t\t\n      DUP5 \t\t\t\n      DUP10 \t\t\t\n      ADD \t\t\t\n      MLOAD \t\t\t\n      PUSH [tag] 344\t\t\t\n      PUSH 1F\t\t\t\n      DUP10 \t\t\t\n      AND \t\t\t\n      DUP3 \t\t\t\n      PUSH [tag] 144\t\t\t\n      JUMP \t\t\t\n    tag 344\t\t\t\n      JUMPDEST \t\t\t\n      DUP4 \t\t\t\n      SSTORE \t\t\t\n      POP \t\t\t\n    tag 343\t\t\t\n      JUMPDEST \t\t\t\n      PUSH 1\t\t\t\n      PUSH 2\t\t\t\n      DUP9 \t\t\t\n      MUL \t\t\t\n      ADD \t\t\t\n      DUP9 \t\t\t\n      SSTORE \t\t\t\n      POP \t\t\t\n      POP \t\t\t\n      POP \t\t\t\n    tag 335\t\t\t\n      JUMPDEST \t\t\t\n      POP \t\t\t\n      POP \t\t\t\n      POP \t\t\t\n      POP \t\t\t\n      POP \t\t\t\n      POP \t\t\t\n      JUMP \t\t\t\n    tag 146\t\t\t\n      JUMPDEST \t\t\t\n      PUSH 0\t\t\t\n      DUP2 \t\t\t\n      SWAP1 \t\t\t\n      POP \t\t\t\n      DUP2 \t\t\t\n      PUSH 0\t\t\t\n      MSTORE \t\t\t\n      PUSH 20\t\t\t\n      PUSH 0\t\t\t\n      KECCAK256 \t\t\t\n      SWAP1 \t\t\t\n      POP \t\t\t\n      SWAP2 \t\t\t\n      SWAP1 \t\t\t\n      POP \t\t\t\n      JUMP \t\t\t\n    tag 147\t\t\t\n      JUMPDEST \t\t\t\n      PUSH 1F\t\t\t\n      DUP3 \t\t\t\n      GT \t\t\t\n      ISZERO \t\t\t\n      PUSH [tag] 347\t\t\t\n      JUMPI \t\t\t\n      PUSH [tag] 348\t\t\t\n      DUP2 \t\t\t\n      PUSH [tag] 146\t\t\t\n      JUMP \t\t\t\n    tag 348\t\t\t\n      JUMPDEST \t\t\t\n      PUSH [tag] 349\t\t\t\n      DUP5 \t\t\t\n      PUSH [tag] 132\t\t\t\n      JUMP \t\t\t\n    tag 349\t\t\t\n      JUMPDEST \t\t\t\n      DUP2 \t\t\t\n      ADD \t\t\t\n      PUSH 20\t\t\t\n      DUP6 \t\t\t\n      LT \t\t\t\n      ISZERO \t\t\t\n      PUSH [tag] 350\t\t\t\n      JUMPI \t\t\t\n      DUP2 \t\t\t\n      SWAP1 \t\t\t\n      POP \t\t\t\n    tag 350\t\t\t\n      JUMPDEST \t\t\t\n      PUSH [tag] 351\t\t\t\n      PUSH [tag] 352\t\t\t\n      DUP6 \t\t\t\n      PUSH [tag] 132\t\t\t\n      JUMP \t\t\t\n    tag 352\t\t\t\n      JUMPDEST \t\t\t\n      DUP4 \t\t\t\n      ADD \t\t\t\n      DUP3 \t\t\t\n      PUSH [tag] 141\t\t\t\n      JUMP \t\t\t\n    tag 351\t\t\t\n      JUMPDEST \t\t\t\n      POP \t\t\t\n      POP \t\t\t\n    tag 347\t\t\t\n      JUMPDEST \t\t\t\n      POP \t\t\t\n      POP \t\t\t\n      POP \t\t\t\n      JUMP \t\t\t\n    tag 50\t\t\t\n      JUMPDEST \t\t\t\n      PUSH [tag] 354\t\t\t\n      DUP3 \t\t\t\n      PUSH [tag] 97\t\t\t\n      JUMP \t\t\t\n    tag 354\t\t\t\n      JUMPDEST \t\t\t\n      PUSH FFFFFFFFFFFFFFFF\t\t\t\n      DUP2 \t\t\t\n      GT \t\t\t\n      ISZERO \t\t\t\n      PUSH [tag] 355\t\t\t\n      JUMPI \t\t\t\n      PUSH [tag] 356\t\t\t\n      PUSH [tag] 103\t\t\t\n      JUMP \t\t\t\n    tag 356\t\t\t\n      JUMPDEST \t\t\t\n    tag 355\t\t\t\n      JUMPDEST \t\t\t\n      PUSH [tag] 357\t\t\t\n      DUP3 \t\t\t\n      SLOAD \t\t\t\n      PUSH [tag] 29\t\t\t\n      JUMP \t\t\t\n    tag 357\t\t\t\n      JUMPDEST \t\t\t\n      PUSH [tag] 358\t\t\t\n      DUP3 \t\t\t\n      DUP3 \t\t\t\n      DUP6 \t\t\t\n      PUSH [tag] 147\t\t\t\n      JUMP \t\t\t\n    tag 358\t\t\t\n      JUMPDEST \t\t\t\n      PUSH 0\t\t\t\n      PUSH 20\t\t\t\n      SWAP1 \t\t\t\n      POP \t\t\t\n      PUSH 1F\t\t\t\n      DUP4 \t\t\t\n      GT \t\t\t\n      PUSH 1\t\t\t\n      DUP2 \t\t\t\n      EQ \t\t\t\n      PUSH [tag] 360\t\t\t\n      JUMPI \t\t\t\n      PUSH 0\t\t\t\n      DUP5 \t\t\t\n      ISZERO \t\t\t\n      PUSH [tag] 361\t\t\t\n      JUMPI \t\t\t\n      DUP3 \t\t\t\n      DUP8 \t\t\t\n      ADD \t\t\t\n      MLOAD \t\t\t\n      SWAP1 \t\t\t\n      POP \t\t\t\n    tag 361\t\t\t\n      JUMPDEST \t\t\t\n      PUSH [tag] 362\t\t\t\n      DUP6 \t\t\t\n      DUP3 \t\t\t\n      PUSH [tag] 145\t\t\t\n      JUMP \t\t\t\n    tag 362\t\t\t\n      JUMPDEST \t\t\t\n      DUP7 \t\t\t\n      SSTORE \t\t\t\n      POP \t\t\t\n      PUSH [tag] 359\t\t\t\n      JUMP \t\t\t\n    tag 360\t\t\t\n      JUMPDEST \t\t\t\n      PUSH 1F\t\t\t\n      NOT \t\t\t\n      DUP5 \t\t\t\n      AND \t\t\t\n      PUSH [tag] 363\t\t\t\n      DUP7 \t\t\t\n      PUSH [tag] 146\t\t\t\n      JUMP \t\t\t\n    tag 363\t\t\t\n      JUMPDEST \t\t\t\n      PUSH 0\t\t\t\n    tag 364\t\t\t\n      JUMPDEST \t\t\t\n      DUP3 \t\t\t\n      DUP2 \t\t\t\n      LT \t\t\t\n      ISZERO \t\t\t\n      PUSH [tag] 366\t\t\t\n      JUMPI \t\t\t\n      DUP5 \t\t\t\n      DUP10 \t\t\t\n      ADD \t\t\t\n      MLOAD \t\t\t\n      DUP3 \t\t\t\n      SSTORE \t\t\t\n      PUSH 1\t\t\t\n      DUP3 \t\t\t\n      ADD \t\t\t\n      SWAP2 \t\t\t\n      POP \t\t\t\n      PUSH 20\t\t\t\n      DUP6 \t\t\t\n      ADD \t\t\t\n      SWAP5 \t\t\t\n      POP \t\t\t\n      PUSH 20\t\t\t\n      DUP2 \t\t\t\n      ADD \t\t\t\n      SWAP1 \t\t\t\n      POP \t\t\t\n      PUSH [tag] 364\t\t\t\n      JUMP \t\t\t\n    tag 366\t\t\t\n      JUMPDEST \t\t\t\n      DUP7 \t\t\t\n      DUP4 \t\t\t\n      LT \t\t\t\n      ISZERO \t\t\t\n      PUSH [tag] 367\t\t\t\n      JUMPI \t\t\t\n      DUP5 \t\t\t\n      DUP10 \t\t\t\n      ADD \t\t\t\n      MLOAD \t\t\t\n      PUSH [tag] 368\t\t\t\n      PUSH 1F\t\t\t\n      DUP10 \t\t\t\n      AND \t\t\t\n      DUP3 \t\t\t\n      PUSH [tag] 144\t\t\t\n      JUMP \t\t\t\n    tag 368\t\t\t\n      JUMPDEST \t\t\t\n      DUP4 \t\t\t\n      SSTORE \t\t\t\n      POP \t\t\t\n    tag 367\t\t\t\n      JUMPDEST \t\t\t\n      PUSH 1\t\t\t\n      PUSH 2\t\t\t\n      DUP9 \t\t\t\n      MUL \t\t\t\n      ADD \t\t\t\n      DUP9 \t\t\t\n      SSTORE \t\t\t\n      POP \t\t\t\n      POP \t\t\t\n      POP \t\t\t\n    tag 359\t\t\t\n      JUMPDEST \t\t\t\n      POP \t\t\t\n      POP \t\t\t\n      POP \t\t\t\n      POP \t\t\t\n      POP \t\t\t\n      POP \t\t\t\n      JUMP \t\t\t\n    tag 148\t\t\t\n      JUMPDEST \t\t\t\n      PUSH 50726F6A65637420646F6573206E6F742065786973742E000000000000000000\t\t\t\n      PUSH 0\t\t\t\n      DUP3 \t\t\t\n      ADD \t\t\t\n      MSTORE \t\t\t\n      POP \t\t\t\n      JUMP \t\t\t\n    tag 149\t\t\t\n      JUMPDEST \t\t\t\n      PUSH 0\t\t\t\n      PUSH [tag] 371\t\t\t\n      PUSH 17\t\t\t\n      DUP4 \t\t\t\n      PUSH [tag] 93\t\t\t\n      JUMP \t\t\t\n    tag 371\t\t\t\n      JUMPDEST \t\t\t\n      SWAP2 \t\t\t\n      POP \t\t\t\n      PUSH [tag] 372\t\t\t\n      DUP3 \t\t\t\n      PUSH [tag] 148\t\t\t\n      JUMP \t\t\t\n    tag 372\t\t\t\n      JUMPDEST \t\t\t\n      PUSH 20\t\t\t\n      DUP3 \t\t\t\n      ADD \t\t\t\n      SWAP1 \t\t\t\n      POP \t\t\t\n      SWAP2 \t\t\t\n      SWAP1 \t\t\t\n      POP \t\t\t\n      JUMP \t\t\t\n    tag 57\t\t\t\n      JUMPDEST \t\t\t\n      PUSH 0\t\t\t\n      PUSH 20\t\t\t\n      DUP3 \t\t\t\n      ADD \t\t\t\n      SWAP1 \t\t\t\n      POP \t\t\t\n      DUP2 \t\t\t\n      DUP2 \t\t\t\n      SUB \t\t\t\n      PUSH 0\t\t\t\n      DUP4 \t\t\t\n      ADD \t\t\t\n      MSTORE \t\t\t\n      PUSH [tag] 374\t\t\t\n      DUP2 \t\t\t\n      PUSH [tag] 149\t\t\t\n      JUMP \t\t\t\n    tag 374\t\t\t\n      JUMPDEST \t\t\t\n      SWAP1 \t\t\t\n      POP \t\t\t\n      SWAP2 \t\t\t\n      SWAP1 \t\t\t\n      POP \t\t\t\n      JUMP \t\t\t\n    tag 60\t\t\t\n      JUMPDEST \t\t\t\n      PUSH 4E487B7100000000000000000000000000000000000000000000000000000000\t\t\t\n      PUSH 0\t\t\t\n      MSTORE \t\t\t\n      PUSH 32\t\t\t\n      PUSH 4\t\t\t\n      MSTORE \t\t\t\n      PUSH 24\t\t\t\n      PUSH 0\t\t\t\n      REVERT \t\t\t\n    .data\n"
}