{
	"compilerInput": "{\"language\":\"Solidity\",\"sources\":{\"soulbond1.sol\":{\"content\":\"// SPDX-License-Identifier: MIT\\r\\npragma solidity ^0.8.0;\\r\\n\\r\\ncontract HederaSoulboundContract {\\r\\n    struct Soulbound {\\r\\n        string prj_id;\\r\\n        bytes soulbound_hash;\\r\\n        uint256 submission_time;\\r\\n    }\\r\\n\\r\\n    Soulbound[] public soulbounds;\\r\\n\\r\\n    event SoulboundHashSubmitted(\\r\\n        uint256 indexed soulboundIndex,\\r\\n        string prj_id,\\r\\n        bytes soulbound_hash,\\r\\n        uint256 submission_time\\r\\n    );\\r\\n\\r\\n    function submitSoulboundHash(\\r\\n        string memory prj_id,\\r\\n        bytes memory soulbound_hash\\r\\n    ) public {\\r\\n        require(bytes(prj_id).length > 0, \\\"Project ID is required.\\\");\\r\\n        require(soulbound_hash.length == 32, \\\"Soulbound hash must be 32 bytes.\\\");\\r\\n\\r\\n        uint256 soulboundIndex = soulbounds.length;\\r\\n\\r\\n        soulbounds.push(\\r\\n            Soulbound({\\r\\n                prj_id: prj_id,\\r\\n                soulbound_hash: soulbound_hash,\\r\\n                submission_time: block.timestamp\\r\\n            })\\r\\n        );\\r\\n\\r\\n        emit SoulboundHashSubmitted(\\r\\n            soulboundIndex,\\r\\n            prj_id,\\r\\n            soulbound_hash,\\r\\n            block.timestamp\\r\\n        );\\r\\n    }\\r\\n\\r\\n    function getSoulbounds() public view returns (Soulbound[] memory) {\\r\\n        return soulbounds;\\r\\n    }\\r\\n\\r\\n    function getSoulboundById(uint256 soulboundIndex) public view returns (Soulbound memory) {\\r\\n        require(soulboundIndex < soulbounds.length, \\\"Soulbound does not exist.\\\");\\r\\n        return soulbounds[soulboundIndex];\\r\\n    }\\r\\n}\\r\\n\"}},\"settings\":{\"optimizer\":{\"enabled\":false,\"runs\":200},\"outputSelection\":{\"*\":{\"\":[\"ast\"],\"*\":[\"abi\",\"metadata\",\"devdoc\",\"userdoc\",\"storageLayout\",\"evm.legacyAssembly\",\"evm.bytecode\",\"evm.deployedBytecode\",\"evm.methodIdentifiers\",\"evm.gasEstimates\",\"evm.assembly\"]}},\"remappings\":[]}}",
	"name": "HederaSoulboundContract",
	"bytecode": {
		"linkReferences": {},
		"object": "6080604052348015600e575f80fd5b5061124e8061001c5f395ff3fe608060405234801561000f575f80fd5b506004361061004a575f3560e01c8063089dc9551461004e578063171ebac714610080578063c5ae59e8146100b0578063fca83c55146100cc575b5f80fd5b61006860048036038101906100639190610702565b6100ea565b604051610077939291906107fe565b60405180910390f35b61009a60048036038101906100959190610702565b61022a565b6040516100a79190610934565b60405180910390f35b6100ca60048036038101906100c59190610b1e565b6103d2565b005b6100d461051a565b6040516100e19190610ca3565b60405180910390f35b5f81815481106100f8575f80fd5b905f5260205f2090600302015f91509050805f01805461011790610cf0565b80601f016020809104026020016040519081016040528092919081815260200182805461014390610cf0565b801561018e5780601f106101655761010080835404028352916020019161018e565b820191905f5260205f20905b81548152906001019060200180831161017157829003601f168201915b5050505050908060010180546101a390610cf0565b80601f01602080910402602001604051908101604052809291908181526020018280546101cf90610cf0565b801561021a5780601f106101f15761010080835404028352916020019161021a565b820191905f5260205f20905b8154815290600101906020018083116101fd57829003601f168201915b5050505050908060020154905083565b61023261069e565b5f805490508210610278576040517f08c379a000000000000000000000000000000000000000000000000000000000815260040161026f90610d6a565b60405180910390fd5b5f828154811061028b5761028a610d88565b5b905f5260205f2090600302016040518060600160405290815f820180546102b190610cf0565b80601f01602080910402602001604051908101604052809291908181526020018280546102dd90610cf0565b80156103285780601f106102ff57610100808354040283529160200191610328565b820191905f5260205f20905b81548152906001019060200180831161030b57829003601f168201915b5050505050815260200160018201805461034190610cf0565b80601f016020809104026020016040519081016040528092919081815260200182805461036d90610cf0565b80156103b85780601f1061038f576101008083540402835291602001916103b8565b820191905f5260205f20905b81548152906001019060200180831161039b57829003601f168201915b505050505081526020016002820154815250509050919050565b5f825111610415576040517f08c379a000000000000000000000000000000000000000000000000000000000815260040161040c90610dff565b60405180910390fd5b6020815114610459576040517f08c379a000000000000000000000000000000000000000000000000000000000815260040161045090610e67565b60405180910390fd5b5f808054905090505f604051806060016040528085815260200184815260200142815250908060018154018082558091505060019003905f5260205f2090600302015f909190919091505f820151815f0190816104b69190611022565b5060208201518160010190816104cc9190611149565b50604082015181600201555050807f69603b7380cdbdd9614011d9148b6413d333a686dc8ad33304d95e2ddc3f5b5784844260405161050d939291906107fe565b60405180910390a2505050565b60605f805480602002602001604051908101604052809291908181526020015f905b82821015610695578382905f5260205f2090600302016040518060600160405290815f8201805461056c90610cf0565b80601f016020809104026020016040519081016040528092919081815260200182805461059890610cf0565b80156105e35780601f106105ba576101008083540402835291602001916105e3565b820191905f5260205f20905b8154815290600101906020018083116105c657829003601f168201915b505050505081526020016001820180546105fc90610cf0565b80601f016020809104026020016040519081016040528092919081815260200182805461062890610cf0565b80156106735780601f1061064a57610100808354040283529160200191610673565b820191905f5260205f20905b81548152906001019060200180831161065657829003601f168201915b505050505081526020016002820154815250508152602001906001019061053c565b50505050905090565b604051806060016040528060608152602001606081526020015f81525090565b5f604051905090565b5f80fd5b5f80fd5b5f819050919050565b6106e1816106cf565b81146106eb575f80fd5b50565b5f813590506106fc816106d8565b92915050565b5f60208284031215610717576107166106c7565b5b5f610724848285016106ee565b91505092915050565b5f81519050919050565b5f82825260208201905092915050565b8281835e5f83830152505050565b5f601f19601f8301169050919050565b5f61076f8261072d565b6107798185610737565b9350610789818560208601610747565b61079281610755565b840191505092915050565b5f81519050919050565b5f82825260208201905092915050565b5f6107c18261079d565b6107cb81856107a7565b93506107db818560208601610747565b6107e481610755565b840191505092915050565b6107f8816106cf565b82525050565b5f6060820190508181035f8301526108168186610765565b9050818103602083015261082a81856107b7565b905061083960408301846107ef565b949350505050565b5f82825260208201905092915050565b5f61085b8261072d565b6108658185610841565b9350610875818560208601610747565b61087e81610755565b840191505092915050565b5f82825260208201905092915050565b5f6108a38261079d565b6108ad8185610889565b93506108bd818560208601610747565b6108c681610755565b840191505092915050565b6108da816106cf565b82525050565b5f606083015f8301518482035f8601526108fa8282610851565b915050602083015184820360208601526109148282610899565b915050604083015161092960408601826108d1565b508091505092915050565b5f6020820190508181035f83015261094c81846108e0565b905092915050565b5f80fd5b5f80fd5b7f4e487b71000000000000000000000000000000000000000000000000000000005f52604160045260245ffd5b61099282610755565b810181811067ffffffffffffffff821117156109b1576109b061095c565b5b80604052505050565b5f6109c36106be565b90506109cf8282610989565b919050565b5f67ffffffffffffffff8211156109ee576109ed61095c565b5b6109f782610755565b9050602081019050919050565b828183375f83830152505050565b5f610a24610a1f846109d4565b6109ba565b905082815260208101848484011115610a4057610a3f610958565b5b610a4b848285610a04565b509392505050565b5f82601f830112610a6757610a66610954565b5b8135610a77848260208601610a12565b91505092915050565b5f67ffffffffffffffff821115610a9a57610a9961095c565b5b610aa382610755565b9050602081019050919050565b5f610ac2610abd84610a80565b6109ba565b905082815260208101848484011115610ade57610add610958565b5b610ae9848285610a04565b509392505050565b5f82601f830112610b0557610b04610954565b5b8135610b15848260208601610ab0565b91505092915050565b5f8060408385031215610b3457610b336106c7565b5b5f83013567ffffffffffffffff811115610b5157610b506106cb565b5b610b5d85828601610a53565b925050602083013567ffffffffffffffff811115610b7e57610b7d6106cb565b5b610b8a85828601610af1565b9150509250929050565b5f81519050919050565b5f82825260208201905092915050565b5f819050602082019050919050565b5f606083015f8301518482035f860152610bd78282610851565b91505060208301518482036020860152610bf18282610899565b9150506040830151610c0660408601826108d1565b508091505092915050565b5f610c1c8383610bbd565b905092915050565b5f602082019050919050565b5f610c3a82610b94565b610c448185610b9e565b935083602082028501610c5685610bae565b805f5b85811015610c915784840389528151610c728582610c11565b9450610c7d83610c24565b925060208a01995050600181019050610c59565b50829750879550505050505092915050565b5f6020820190508181035f830152610cbb8184610c30565b905092915050565b7f4e487b71000000000000000000000000000000000000000000000000000000005f52602260045260245ffd5b5f6002820490506001821680610d0757607f821691505b602082108103610d1a57610d19610cc3565b5b50919050565b7f536f756c626f756e6420646f6573206e6f742065786973742e000000000000005f82015250565b5f610d54601983610737565b9150610d5f82610d20565b602082019050919050565b5f6020820190508181035f830152610d8181610d48565b9050919050565b7f4e487b71000000000000000000000000000000000000000000000000000000005f52603260045260245ffd5b7f50726f6a6563742049442069732072657175697265642e0000000000000000005f82015250565b5f610de9601783610737565b9150610df482610db5565b602082019050919050565b5f6020820190508181035f830152610e1681610ddd565b9050919050565b7f536f756c626f756e642068617368206d7573742062652033322062797465732e5f82015250565b5f610e51602083610737565b9150610e5c82610e1d565b602082019050919050565b5f6020820190508181035f830152610e7e81610e45565b9050919050565b5f819050815f5260205f209050919050565b5f6020601f8301049050919050565b5f82821b905092915050565b5f60088302610ee17fffffffffffffffffffffffffffffffffffffffffffffffffffffffffffffffff82610ea6565b610eeb8683610ea6565b95508019841693508086168417925050509392505050565b5f819050919050565b5f610f26610f21610f1c846106cf565b610f03565b6106cf565b9050919050565b5f819050919050565b610f3f83610f0c565b610f53610f4b82610f2d565b848454610eb2565b825550505050565b5f90565b610f67610f5b565b610f72818484610f36565b505050565b5b81811015610f9557610f8a5f82610f5f565b600181019050610f78565b5050565b601f821115610fda57610fab81610e85565b610fb484610e97565b81016020851015610fc3578190505b610fd7610fcf85610e97565b830182610f77565b50505b505050565b5f82821c905092915050565b5f610ffa5f1984600802610fdf565b1980831691505092915050565b5f6110128383610feb565b9150826002028217905092915050565b61102b8261072d565b67ffffffffffffffff8111156110445761104361095c565b5b61104e8254610cf0565b611059828285610f99565b5f60209050601f83116001811461108a575f8415611078578287015190505b6110828582611007565b8655506110e9565b601f19841661109886610e85565b5f5b828110156110bf5784890151825560018201915060208501945060208101905061109a565b868310156110dc57848901516110d8601f891682610feb565b8355505b6001600288020188555050505b505050505050565b5f819050815f5260205f209050919050565b601f82111561114457611115816110f1565b61111e84610e97565b8101602085101561112d578190505b61114161113985610e97565b830182610f77565b50505b505050565b6111528261079d565b67ffffffffffffffff81111561116b5761116a61095c565b5b6111758254610cf0565b611180828285611103565b5f60209050601f8311600181146111b1575f841561119f578287015190505b6111a98582611007565b865550611210565b601f1984166111bf866110f1565b5f5b828110156111e6578489015182556001820191506020850194506020810190506111c1565b8683101561120357848901516111ff601f891682610feb565b8355505b6001600288020188555050505b50505050505056fea26469706673582212208ca89d90e387cd7d4320c66db3b7f63d3731d17b5a97fc37fe8cc1c6c720a79864736f6c634300081a0033",
		"opcodes": "PUSH1 0x80 PUSH1 0x40 MSTORE CALLVALUE DUP1 ISZERO PUSH1 0xE JUMPI PUSH0 DUP1 REVERT JUMPDEST POP PUSH2 0x124E DUP1 PUSH2 0x1C PUSH0 CODECOPY PUSH0 RETURN INVALID PUSH1 0x80 PUSH1 0x40 MSTORE CALLVALUE DUP1 ISZERO PUSH2 0xF JUMPI PUSH0 DUP1 REVERT JUMPDEST POP PUSH1 0x4 CALLDATASIZE LT PUSH2 0x4A JUMPI PUSH0 CALLDATALOAD PUSH1 0xE0 SHR DUP1 PUSH4 0x89DC955 EQ PUSH2 0x4E JUMPI DUP1 PUSH4 0x171EBAC7 EQ PUSH2 0x80 JUMPI DUP1 PUSH4 0xC5AE59E8 EQ PUSH2 0xB0 JUMPI DUP1 PUSH4 0xFCA83C55 EQ PUSH2 0xCC JUMPI JUMPDEST PUSH0 DUP1 REVERT JUMPDEST PUSH2 0x68 PUSH1 0x4 DUP1 CALLDATASIZE SUB DUP2 ADD SWAP1 PUSH2 0x63 SWAP2 SWAP1 PUSH2 0x702 JUMP JUMPDEST PUSH2 0xEA JUMP JUMPDEST PUSH1 0x40 MLOAD PUSH2 0x77 SWAP4 SWAP3 SWAP2 SWAP1 PUSH2 0x7FE JUMP JUMPDEST PUSH1 0x40 MLOAD DUP1 SWAP2 SUB SWAP1 RETURN JUMPDEST PUSH2 0x9A PUSH1 0x4 DUP1 CALLDATASIZE SUB DUP2 ADD SWAP1 PUSH2 0x95 SWAP2 SWAP1 PUSH2 0x702 JUMP JUMPDEST PUSH2 0x22A JUMP JUMPDEST PUSH1 0x40 MLOAD PUSH2 0xA7 SWAP2 SWAP1 PUSH2 0x934 JUMP JUMPDEST PUSH1 0x40 MLOAD DUP1 SWAP2 SUB SWAP1 RETURN JUMPDEST PUSH2 0xCA PUSH1 0x4 DUP1 CALLDATASIZE SUB DUP2 ADD SWAP1 PUSH2 0xC5 SWAP2 SWAP1 PUSH2 0xB1E JUMP JUMPDEST PUSH2 0x3D2 JUMP JUMPDEST STOP JUMPDEST PUSH2 0xD4 PUSH2 0x51A JUMP JUMPDEST PUSH1 0x40 MLOAD PUSH2 0xE1 SWAP2 SWAP1 PUSH2 0xCA3 JUMP JUMPDEST PUSH1 0x40 MLOAD DUP1 SWAP2 SUB SWAP1 RETURN JUMPDEST PUSH0 DUP2 DUP2 SLOAD DUP2 LT PUSH2 0xF8 JUMPI PUSH0 DUP1 REVERT JUMPDEST SWAP1 PUSH0 MSTORE PUSH1 0x20 PUSH0 KECCAK256 SWAP1 PUSH1 0x3 MUL ADD PUSH0 SWAP2 POP SWAP1 POP DUP1 PUSH0 ADD DUP1 SLOAD PUSH2 0x117 SWAP1 PUSH2 0xCF0 JUMP JUMPDEST DUP1 PUSH1 0x1F ADD PUSH1 0x20 DUP1 SWAP2 DIV MUL PUSH1 0x20 ADD PUSH1 0x40 MLOAD SWAP1 DUP2 ADD PUSH1 0x40 MSTORE DUP1 SWAP3 SWAP2 SWAP1 DUP2 DUP2 MSTORE PUSH1 0x20 ADD DUP3 DUP1 SLOAD PUSH2 0x143 SWAP1 PUSH2 0xCF0 JUMP JUMPDEST DUP1 ISZERO PUSH2 0x18E JUMPI DUP1 PUSH1 0x1F LT PUSH2 0x165 JUMPI PUSH2 0x100 DUP1 DUP4 SLOAD DIV MUL DUP4 MSTORE SWAP2 PUSH1 0x20 ADD SWAP2 PUSH2 0x18E JUMP JUMPDEST DUP3 ADD SWAP2 SWAP1 PUSH0 MSTORE PUSH1 0x20 PUSH0 KECCAK256 SWAP1 JUMPDEST DUP2 SLOAD DUP2 MSTORE SWAP1 PUSH1 0x1 ADD SWAP1 PUSH1 0x20 ADD DUP1 DUP4 GT PUSH2 0x171 JUMPI DUP3 SWAP1 SUB PUSH1 0x1F AND DUP3 ADD SWAP2 JUMPDEST POP POP POP POP POP SWAP1 DUP1 PUSH1 0x1 ADD DUP1 SLOAD PUSH2 0x1A3 SWAP1 PUSH2 0xCF0 JUMP JUMPDEST DUP1 PUSH1 0x1F ADD PUSH1 0x20 DUP1 SWAP2 DIV MUL PUSH1 0x20 ADD PUSH1 0x40 MLOAD SWAP1 DUP2 ADD PUSH1 0x40 MSTORE DUP1 SWAP3 SWAP2 SWAP1 DUP2 DUP2 MSTORE PUSH1 0x20 ADD DUP3 DUP1 SLOAD PUSH2 0x1CF SWAP1 PUSH2 0xCF0 JUMP JUMPDEST DUP1 ISZERO PUSH2 0x21A JUMPI DUP1 PUSH1 0x1F LT PUSH2 0x1F1 JUMPI PUSH2 0x100 DUP1 DUP4 SLOAD DIV MUL DUP4 MSTORE SWAP2 PUSH1 0x20 ADD SWAP2 PUSH2 0x21A JUMP JUMPDEST DUP3 ADD SWAP2 SWAP1 PUSH0 MSTORE PUSH1 0x20 PUSH0 KECCAK256 SWAP1 JUMPDEST DUP2 SLOAD DUP2 MSTORE SWAP1 PUSH1 0x1 ADD SWAP1 PUSH1 0x20 ADD DUP1 DUP4 GT PUSH2 0x1FD JUMPI DUP3 SWAP1 SUB PUSH1 0x1F AND DUP3 ADD SWAP2 JUMPDEST POP POP POP POP POP SWAP1 DUP1 PUSH1 0x2 ADD SLOAD SWAP1 POP DUP4 JUMP JUMPDEST PUSH2 0x232 PUSH2 0x69E JUMP JUMPDEST PUSH0 DUP1 SLOAD SWAP1 POP DUP3 LT PUSH2 0x278 JUMPI PUSH1 0x40 MLOAD PUSH32 0x8C379A000000000000000000000000000000000000000000000000000000000 DUP2 MSTORE PUSH1 0x4 ADD PUSH2 0x26F SWAP1 PUSH2 0xD6A JUMP JUMPDEST PUSH1 0x40 MLOAD DUP1 SWAP2 SUB SWAP1 REVERT JUMPDEST PUSH0 DUP3 DUP2 SLOAD DUP2 LT PUSH2 0x28B JUMPI PUSH2 0x28A PUSH2 0xD88 JUMP JUMPDEST JUMPDEST SWAP1 PUSH0 MSTORE PUSH1 0x20 PUSH0 KECCAK256 SWAP1 PUSH1 0x3 MUL ADD PUSH1 0x40 MLOAD DUP1 PUSH1 0x60 ADD PUSH1 0x40 MSTORE SWAP1 DUP2 PUSH0 DUP3 ADD DUP1 SLOAD PUSH2 0x2B1 SWAP1 PUSH2 0xCF0 JUMP JUMPDEST DUP1 PUSH1 0x1F ADD PUSH1 0x20 DUP1 SWAP2 DIV MUL PUSH1 0x20 ADD PUSH1 0x40 MLOAD SWAP1 DUP2 ADD PUSH1 0x40 MSTORE DUP1 SWAP3 SWAP2 SWAP1 DUP2 DUP2 MSTORE PUSH1 0x20 ADD DUP3 DUP1 SLOAD PUSH2 0x2DD SWAP1 PUSH2 0xCF0 JUMP JUMPDEST DUP1 ISZERO PUSH2 0x328 JUMPI DUP1 PUSH1 0x1F LT PUSH2 0x2FF JUMPI PUSH2 0x100 DUP1 DUP4 SLOAD DIV MUL DUP4 MSTORE SWAP2 PUSH1 0x20 ADD SWAP2 PUSH2 0x328 JUMP JUMPDEST DUP3 ADD SWAP2 SWAP1 PUSH0 MSTORE PUSH1 0x20 PUSH0 KECCAK256 SWAP1 JUMPDEST DUP2 SLOAD DUP2 MSTORE SWAP1 PUSH1 0x1 ADD SWAP1 PUSH1 0x20 ADD DUP1 DUP4 GT PUSH2 0x30B JUMPI DUP3 SWAP1 SUB PUSH1 0x1F AND DUP3 ADD SWAP2 JUMPDEST POP POP POP POP POP DUP2 MSTORE PUSH1 0x20 ADD PUSH1 0x1 DUP3 ADD DUP1 SLOAD PUSH2 0x341 SWAP1 PUSH2 0xCF0 JUMP JUMPDEST DUP1 PUSH1 0x1F ADD PUSH1 0x20 DUP1 SWAP2 DIV MUL PUSH1 0x20 ADD PUSH1 0x40 MLOAD SWAP1 DUP2 ADD PUSH1 0x40 MSTORE DUP1 SWAP3 SWAP2 SWAP1 DUP2 DUP2 MSTORE PUSH1 0x20 ADD DUP3 DUP1 SLOAD PUSH2 0x36D SWAP1 PUSH2 0xCF0 JUMP JUMPDEST DUP1 ISZERO PUSH2 0x3B8 JUMPI DUP1 PUSH1 0x1F LT PUSH2 0x38F JUMPI PUSH2 0x100 DUP1 DUP4 SLOAD DIV MUL DUP4 MSTORE SWAP2 PUSH1 0x20 ADD SWAP2 PUSH2 0x3B8 JUMP JUMPDEST DUP3 ADD SWAP2 SWAP1 PUSH0 MSTORE PUSH1 0x20 PUSH0 KECCAK256 SWAP1 JUMPDEST DUP2 SLOAD DUP2 MSTORE SWAP1 PUSH1 0x1 ADD SWAP1 PUSH1 0x20 ADD DUP1 DUP4 GT PUSH2 0x39B JUMPI DUP3 SWAP1 SUB PUSH1 0x1F AND DUP3 ADD SWAP2 JUMPDEST POP POP POP POP POP DUP2 MSTORE PUSH1 0x20 ADD PUSH1 0x2 DUP3 ADD SLOAD DUP2 MSTORE POP POP SWAP1 POP SWAP2 SWAP1 POP JUMP JUMPDEST PUSH0 DUP3 MLOAD GT PUSH2 0x415 JUMPI PUSH1 0x40 MLOAD PUSH32 0x8C379A000000000000000000000000000000000000000000000000000000000 DUP2 MSTORE PUSH1 0x4 ADD PUSH2 0x40C SWAP1 PUSH2 0xDFF JUMP JUMPDEST PUSH1 0x40 MLOAD DUP1 SWAP2 SUB SWAP1 REVERT JUMPDEST PUSH1 0x20 DUP2 MLOAD EQ PUSH2 0x459 JUMPI PUSH1 0x40 MLOAD PUSH32 0x8C379A000000000000000000000000000000000000000000000000000000000 DUP2 MSTORE PUSH1 0x4 ADD PUSH2 0x450 SWAP1 PUSH2 0xE67 JUMP JUMPDEST PUSH1 0x40 MLOAD DUP1 SWAP2 SUB SWAP1 REVERT JUMPDEST PUSH0 DUP1 DUP1 SLOAD SWAP1 POP SWAP1 POP PUSH0 PUSH1 0x40 MLOAD DUP1 PUSH1 0x60 ADD PUSH1 0x40 MSTORE DUP1 DUP6 DUP2 MSTORE PUSH1 0x20 ADD DUP5 DUP2 MSTORE PUSH1 0x20 ADD TIMESTAMP DUP2 MSTORE POP SWAP1 DUP1 PUSH1 0x1 DUP2 SLOAD ADD DUP1 DUP3 SSTORE DUP1 SWAP2 POP POP PUSH1 0x1 SWAP1 SUB SWAP1 PUSH0 MSTORE PUSH1 0x20 PUSH0 KECCAK256 SWAP1 PUSH1 0x3 MUL ADD PUSH0 SWAP1 SWAP2 SWAP1 SWAP2 SWAP1 SWAP2 POP PUSH0 DUP3 ADD MLOAD DUP2 PUSH0 ADD SWAP1 DUP2 PUSH2 0x4B6 SWAP2 SWAP1 PUSH2 0x1022 JUMP JUMPDEST POP PUSH1 0x20 DUP3 ADD MLOAD DUP2 PUSH1 0x1 ADD SWAP1 DUP2 PUSH2 0x4CC SWAP2 SWAP1 PUSH2 0x1149 JUMP JUMPDEST POP PUSH1 0x40 DUP3 ADD MLOAD DUP2 PUSH1 0x2 ADD SSTORE POP POP DUP1 PUSH32 0x69603B7380CDBDD9614011D9148B6413D333A686DC8AD33304D95E2DDC3F5B57 DUP5 DUP5 TIMESTAMP PUSH1 0x40 MLOAD PUSH2 0x50D SWAP4 SWAP3 SWAP2 SWAP1 PUSH2 0x7FE JUMP JUMPDEST PUSH1 0x40 MLOAD DUP1 SWAP2 SUB SWAP1 LOG2 POP POP POP JUMP JUMPDEST PUSH1 0x60 PUSH0 DUP1 SLOAD DUP1 PUSH1 0x20 MUL PUSH1 0x20 ADD PUSH1 0x40 MLOAD SWAP1 DUP2 ADD PUSH1 0x40 MSTORE DUP1 SWAP3 SWAP2 SWAP1 DUP2 DUP2 MSTORE PUSH1 0x20 ADD PUSH0 SWAP1 JUMPDEST DUP3 DUP3 LT ISZERO PUSH2 0x695 JUMPI DUP4 DUP3 SWAP1 PUSH0 MSTORE PUSH1 0x20 PUSH0 KECCAK256 SWAP1 PUSH1 0x3 MUL ADD PUSH1 0x40 MLOAD DUP1 PUSH1 0x60 ADD PUSH1 0x40 MSTORE SWAP1 DUP2 PUSH0 DUP3 ADD DUP1 SLOAD PUSH2 0x56C SWAP1 PUSH2 0xCF0 JUMP JUMPDEST DUP1 PUSH1 0x1F ADD PUSH1 0x20 DUP1 SWAP2 DIV MUL PUSH1 0x20 ADD PUSH1 0x40 MLOAD SWAP1 DUP2 ADD PUSH1 0x40 MSTORE DUP1 SWAP3 SWAP2 SWAP1 DUP2 DUP2 MSTORE PUSH1 0x20 ADD DUP3 DUP1 SLOAD PUSH2 0x598 SWAP1 PUSH2 0xCF0 JUMP JUMPDEST DUP1 ISZERO PUSH2 0x5E3 JUMPI DUP1 PUSH1 0x1F LT PUSH2 0x5BA JUMPI PUSH2 0x100 DUP1 DUP4 SLOAD DIV MUL DUP4 MSTORE SWAP2 PUSH1 0x20 ADD SWAP2 PUSH2 0x5E3 JUMP JUMPDEST DUP3 ADD SWAP2 SWAP1 PUSH0 MSTORE PUSH1 0x20 PUSH0 KECCAK256 SWAP1 JUMPDEST DUP2 SLOAD DUP2 MSTORE SWAP1 PUSH1 0x1 ADD SWAP1 PUSH1 0x20 ADD DUP1 DUP4 GT PUSH2 0x5C6 JUMPI DUP3 SWAP1 SUB PUSH1 0x1F AND DUP3 ADD SWAP2 JUMPDEST POP POP POP POP POP DUP2 MSTORE PUSH1 0x20 ADD PUSH1 0x1 DUP3 ADD DUP1 SLOAD PUSH2 0x5FC SWAP1 PUSH2 0xCF0 JUMP JUMPDEST DUP1 PUSH1 0x1F ADD PUSH1 0x20 DUP1 SWAP2 DIV MUL PUSH1 0x20 ADD PUSH1 0x40 MLOAD SWAP1 DUP2 ADD PUSH1 0x40 MSTORE DUP1 SWAP3 SWAP2 SWAP1 DUP2 DUP2 MSTORE PUSH1 0x20 ADD DUP3 DUP1 SLOAD PUSH2 0x628 SWAP1 PUSH2 0xCF0 JUMP JUMPDEST DUP1 ISZERO PUSH2 0x673 JUMPI DUP1 PUSH1 0x1F LT PUSH2 0x64A JUMPI PUSH2 0x100 DUP1 DUP4 SLOAD DIV MUL DUP4 MSTORE SWAP2 PUSH1 0x20 ADD SWAP2 PUSH2 0x673 JUMP JUMPDEST DUP3 ADD SWAP2 SWAP1 PUSH0 MSTORE PUSH1 0x20 PUSH0 KECCAK256 SWAP1 JUMPDEST DUP2 SLOAD DUP2 MSTORE SWAP1 PUSH1 0x1 ADD SWAP1 PUSH1 0x20 ADD DUP1 DUP4 GT PUSH2 0x656 JUMPI DUP3 SWAP1 SUB PUSH1 0x1F AND DUP3 ADD SWAP2 JUMPDEST POP POP POP POP POP DUP2 MSTORE PUSH1 0x20 ADD PUSH1 0x2 DUP3 ADD SLOAD DUP2 MSTORE POP POP DUP2 MSTORE PUSH1 0x20 ADD SWAP1 PUSH1 0x1 ADD SWAP1 PUSH2 0x53C JUMP JUMPDEST POP POP POP POP SWAP1 POP SWAP1 JUMP JUMPDEST PUSH1 0x40 MLOAD DUP1 PUSH1 0x60 ADD PUSH1 0x40 MSTORE DUP1 PUSH1 0x60 DUP2 MSTORE PUSH1 0x20 ADD PUSH1 0x60 DUP2 MSTORE PUSH1 0x20 ADD PUSH0 DUP2 MSTORE POP SWAP1 JUMP JUMPDEST PUSH0 PUSH1 0x40 MLOAD SWAP1 POP SWAP1 JUMP JUMPDEST PUSH0 DUP1 REVERT JUMPDEST PUSH0 DUP1 REVERT JUMPDEST PUSH0 DUP2 SWAP1 POP SWAP2 SWAP1 POP JUMP JUMPDEST PUSH2 0x6E1 DUP2 PUSH2 0x6CF JUMP JUMPDEST DUP2 EQ PUSH2 0x6EB JUMPI PUSH0 DUP1 REVERT JUMPDEST POP JUMP JUMPDEST PUSH0 DUP2 CALLDATALOAD SWAP1 POP PUSH2 0x6FC DUP2 PUSH2 0x6D8 JUMP JUMPDEST SWAP3 SWAP2 POP POP JUMP JUMPDEST PUSH0 PUSH1 0x20 DUP3 DUP5 SUB SLT ISZERO PUSH2 0x717 JUMPI PUSH2 0x716 PUSH2 0x6C7 JUMP JUMPDEST JUMPDEST PUSH0 PUSH2 0x724 DUP5 DUP3 DUP6 ADD PUSH2 0x6EE JUMP JUMPDEST SWAP2 POP POP SWAP3 SWAP2 POP POP JUMP JUMPDEST PUSH0 DUP2 MLOAD SWAP1 POP SWAP2 SWAP1 POP JUMP JUMPDEST PUSH0 DUP3 DUP3 MSTORE PUSH1 0x20 DUP3 ADD SWAP1 POP SWAP3 SWAP2 POP POP JUMP JUMPDEST DUP3 DUP2 DUP4 MCOPY PUSH0 DUP4 DUP4 ADD MSTORE POP POP POP JUMP JUMPDEST PUSH0 PUSH1 0x1F NOT PUSH1 0x1F DUP4 ADD AND SWAP1 POP SWAP2 SWAP1 POP JUMP JUMPDEST PUSH0 PUSH2 0x76F DUP3 PUSH2 0x72D JUMP JUMPDEST PUSH2 0x779 DUP2 DUP6 PUSH2 0x737 JUMP JUMPDEST SWAP4 POP PUSH2 0x789 DUP2 DUP6 PUSH1 0x20 DUP7 ADD PUSH2 0x747 JUMP JUMPDEST PUSH2 0x792 DUP2 PUSH2 0x755 JUMP JUMPDEST DUP5 ADD SWAP2 POP POP SWAP3 SWAP2 POP POP JUMP JUMPDEST PUSH0 DUP2 MLOAD SWAP1 POP SWAP2 SWAP1 POP JUMP JUMPDEST PUSH0 DUP3 DUP3 MSTORE PUSH1 0x20 DUP3 ADD SWAP1 POP SWAP3 SWAP2 POP POP JUMP JUMPDEST PUSH0 PUSH2 0x7C1 DUP3 PUSH2 0x79D JUMP JUMPDEST PUSH2 0x7CB DUP2 DUP6 PUSH2 0x7A7 JUMP JUMPDEST SWAP4 POP PUSH2 0x7DB DUP2 DUP6 PUSH1 0x20 DUP7 ADD PUSH2 0x747 JUMP JUMPDEST PUSH2 0x7E4 DUP2 PUSH2 0x755 JUMP JUMPDEST DUP5 ADD SWAP2 POP POP SWAP3 SWAP2 POP POP JUMP JUMPDEST PUSH2 0x7F8 DUP2 PUSH2 0x6CF JUMP JUMPDEST DUP3 MSTORE POP POP JUMP JUMPDEST PUSH0 PUSH1 0x60 DUP3 ADD SWAP1 POP DUP2 DUP2 SUB PUSH0 DUP4 ADD MSTORE PUSH2 0x816 DUP2 DUP7 PUSH2 0x765 JUMP JUMPDEST SWAP1 POP DUP2 DUP2 SUB PUSH1 0x20 DUP4 ADD MSTORE PUSH2 0x82A DUP2 DUP6 PUSH2 0x7B7 JUMP JUMPDEST SWAP1 POP PUSH2 0x839 PUSH1 0x40 DUP4 ADD DUP5 PUSH2 0x7EF JUMP JUMPDEST SWAP5 SWAP4 POP POP POP POP JUMP JUMPDEST PUSH0 DUP3 DUP3 MSTORE PUSH1 0x20 DUP3 ADD SWAP1 POP SWAP3 SWAP2 POP POP JUMP JUMPDEST PUSH0 PUSH2 0x85B DUP3 PUSH2 0x72D JUMP JUMPDEST PUSH2 0x865 DUP2 DUP6 PUSH2 0x841 JUMP JUMPDEST SWAP4 POP PUSH2 0x875 DUP2 DUP6 PUSH1 0x20 DUP7 ADD PUSH2 0x747 JUMP JUMPDEST PUSH2 0x87E DUP2 PUSH2 0x755 JUMP JUMPDEST DUP5 ADD SWAP2 POP POP SWAP3 SWAP2 POP POP JUMP JUMPDEST PUSH0 DUP3 DUP3 MSTORE PUSH1 0x20 DUP3 ADD SWAP1 POP SWAP3 SWAP2 POP POP JUMP JUMPDEST PUSH0 PUSH2 0x8A3 DUP3 PUSH2 0x79D JUMP JUMPDEST PUSH2 0x8AD DUP2 DUP6 PUSH2 0x889 JUMP JUMPDEST SWAP4 POP PUSH2 0x8BD DUP2 DUP6 PUSH1 0x20 DUP7 ADD PUSH2 0x747 JUMP JUMPDEST PUSH2 0x8C6 DUP2 PUSH2 0x755 JUMP JUMPDEST DUP5 ADD SWAP2 POP POP SWAP3 SWAP2 POP POP JUMP JUMPDEST PUSH2 0x8DA DUP2 PUSH2 0x6CF JUMP JUMPDEST DUP3 MSTORE POP POP JUMP JUMPDEST PUSH0 PUSH1 0x60 DUP4 ADD PUSH0 DUP4 ADD MLOAD DUP5 DUP3 SUB PUSH0 DUP7 ADD MSTORE PUSH2 0x8FA DUP3 DUP3 PUSH2 0x851 JUMP JUMPDEST SWAP2 POP POP PUSH1 0x20 DUP4 ADD MLOAD DUP5 DUP3 SUB PUSH1 0x20 DUP7 ADD MSTORE PUSH2 0x914 DUP3 DUP3 PUSH2 0x899 JUMP JUMPDEST SWAP2 POP POP PUSH1 0x40 DUP4 ADD MLOAD PUSH2 0x929 PUSH1 0x40 DUP7 ADD DUP3 PUSH2 0x8D1 JUMP JUMPDEST POP DUP1 SWAP2 POP POP SWAP3 SWAP2 POP POP JUMP JUMPDEST PUSH0 PUSH1 0x20 DUP3 ADD SWAP1 POP DUP2 DUP2 SUB PUSH0 DUP4 ADD MSTORE PUSH2 0x94C DUP2 DUP5 PUSH2 0x8E0 JUMP JUMPDEST SWAP1 POP SWAP3 SWAP2 POP POP JUMP JUMPDEST PUSH0 DUP1 REVERT JUMPDEST PUSH0 DUP1 REVERT JUMPDEST PUSH32 0x4E487B7100000000000000000000000000000000000000000000000000000000 PUSH0 MSTORE PUSH1 0x41 PUSH1 0x4 MSTORE PUSH1 0x24 PUSH0 REVERT JUMPDEST PUSH2 0x992 DUP3 PUSH2 0x755 JUMP JUMPDEST DUP2 ADD DUP2 DUP2 LT PUSH8 0xFFFFFFFFFFFFFFFF DUP3 GT OR ISZERO PUSH2 0x9B1 JUMPI PUSH2 0x9B0 PUSH2 0x95C JUMP JUMPDEST JUMPDEST DUP1 PUSH1 0x40 MSTORE POP POP POP JUMP JUMPDEST PUSH0 PUSH2 0x9C3 PUSH2 0x6BE JUMP JUMPDEST SWAP1 POP PUSH2 0x9CF DUP3 DUP3 PUSH2 0x989 JUMP JUMPDEST SWAP2 SWAP1 POP JUMP JUMPDEST PUSH0 PUSH8 0xFFFFFFFFFFFFFFFF DUP3 GT ISZERO PUSH2 0x9EE JUMPI PUSH2 0x9ED PUSH2 0x95C JUMP JUMPDEST JUMPDEST PUSH2 0x9F7 DUP3 PUSH2 0x755 JUMP JUMPDEST SWAP1 POP PUSH1 0x20 DUP2 ADD SWAP1 POP SWAP2 SWAP1 POP JUMP JUMPDEST DUP3 DUP2 DUP4 CALLDATACOPY PUSH0 DUP4 DUP4 ADD MSTORE POP POP POP JUMP JUMPDEST PUSH0 PUSH2 0xA24 PUSH2 0xA1F DUP5 PUSH2 0x9D4 JUMP JUMPDEST PUSH2 0x9BA JUMP JUMPDEST SWAP1 POP DUP3 DUP2 MSTORE PUSH1 0x20 DUP2 ADD DUP5 DUP5 DUP5 ADD GT ISZERO PUSH2 0xA40 JUMPI PUSH2 0xA3F PUSH2 0x958 JUMP JUMPDEST JUMPDEST PUSH2 0xA4B DUP5 DUP3 DUP6 PUSH2 0xA04 JUMP JUMPDEST POP SWAP4 SWAP3 POP POP POP JUMP JUMPDEST PUSH0 DUP3 PUSH1 0x1F DUP4 ADD SLT PUSH2 0xA67 JUMPI PUSH2 0xA66 PUSH2 0x954 JUMP JUMPDEST JUMPDEST DUP2 CALLDATALOAD PUSH2 0xA77 DUP5 DUP3 PUSH1 0x20 DUP7 ADD PUSH2 0xA12 JUMP JUMPDEST SWAP2 POP POP SWAP3 SWAP2 POP POP JUMP JUMPDEST PUSH0 PUSH8 0xFFFFFFFFFFFFFFFF DUP3 GT ISZERO PUSH2 0xA9A JUMPI PUSH2 0xA99 PUSH2 0x95C JUMP JUMPDEST JUMPDEST PUSH2 0xAA3 DUP3 PUSH2 0x755 JUMP JUMPDEST SWAP1 POP PUSH1 0x20 DUP2 ADD SWAP1 POP SWAP2 SWAP1 POP JUMP JUMPDEST PUSH0 PUSH2 0xAC2 PUSH2 0xABD DUP5 PUSH2 0xA80 JUMP JUMPDEST PUSH2 0x9BA JUMP JUMPDEST SWAP1 POP DUP3 DUP2 MSTORE PUSH1 0x20 DUP2 ADD DUP5 DUP5 DUP5 ADD GT ISZERO PUSH2 0xADE JUMPI PUSH2 0xADD PUSH2 0x958 JUMP JUMPDEST JUMPDEST PUSH2 0xAE9 DUP5 DUP3 DUP6 PUSH2 0xA04 JUMP JUMPDEST POP SWAP4 SWAP3 POP POP POP JUMP JUMPDEST PUSH0 DUP3 PUSH1 0x1F DUP4 ADD SLT PUSH2 0xB05 JUMPI PUSH2 0xB04 PUSH2 0x954 JUMP JUMPDEST JUMPDEST DUP2 CALLDATALOAD PUSH2 0xB15 DUP5 DUP3 PUSH1 0x20 DUP7 ADD PUSH2 0xAB0 JUMP JUMPDEST SWAP2 POP POP SWAP3 SWAP2 POP POP JUMP JUMPDEST PUSH0 DUP1 PUSH1 0x40 DUP4 DUP6 SUB SLT ISZERO PUSH2 0xB34 JUMPI PUSH2 0xB33 PUSH2 0x6C7 JUMP JUMPDEST JUMPDEST PUSH0 DUP4 ADD CALLDATALOAD PUSH8 0xFFFFFFFFFFFFFFFF DUP2 GT ISZERO PUSH2 0xB51 JUMPI PUSH2 0xB50 PUSH2 0x6CB JUMP JUMPDEST JUMPDEST PUSH2 0xB5D DUP6 DUP3 DUP7 ADD PUSH2 0xA53 JUMP JUMPDEST SWAP3 POP POP PUSH1 0x20 DUP4 ADD CALLDATALOAD PUSH8 0xFFFFFFFFFFFFFFFF DUP2 GT ISZERO PUSH2 0xB7E JUMPI PUSH2 0xB7D PUSH2 0x6CB JUMP JUMPDEST JUMPDEST PUSH2 0xB8A DUP6 DUP3 DUP7 ADD PUSH2 0xAF1 JUMP JUMPDEST SWAP2 POP POP SWAP3 POP SWAP3 SWAP1 POP JUMP JUMPDEST PUSH0 DUP2 MLOAD SWAP1 POP SWAP2 SWAP1 POP JUMP JUMPDEST PUSH0 DUP3 DUP3 MSTORE PUSH1 0x20 DUP3 ADD SWAP1 POP SWAP3 SWAP2 POP POP JUMP JUMPDEST PUSH0 DUP2 SWAP1 POP PUSH1 0x20 DUP3 ADD SWAP1 POP SWAP2 SWAP1 POP JUMP JUMPDEST PUSH0 PUSH1 0x60 DUP4 ADD PUSH0 DUP4 ADD MLOAD DUP5 DUP3 SUB PUSH0 DUP7 ADD MSTORE PUSH2 0xBD7 DUP3 DUP3 PUSH2 0x851 JUMP JUMPDEST SWAP2 POP POP PUSH1 0x20 DUP4 ADD MLOAD DUP5 DUP3 SUB PUSH1 0x20 DUP7 ADD MSTORE PUSH2 0xBF1 DUP3 DUP3 PUSH2 0x899 JUMP JUMPDEST SWAP2 POP POP PUSH1 0x40 DUP4 ADD MLOAD PUSH2 0xC06 PUSH1 0x40 DUP7 ADD DUP3 PUSH2 0x8D1 JUMP JUMPDEST POP DUP1 SWAP2 POP POP SWAP3 SWAP2 POP POP JUMP JUMPDEST PUSH0 PUSH2 0xC1C DUP4 DUP4 PUSH2 0xBBD JUMP JUMPDEST SWAP1 POP SWAP3 SWAP2 POP POP JUMP JUMPDEST PUSH0 PUSH1 0x20 DUP3 ADD SWAP1 POP SWAP2 SWAP1 POP JUMP JUMPDEST PUSH0 PUSH2 0xC3A DUP3 PUSH2 0xB94 JUMP JUMPDEST PUSH2 0xC44 DUP2 DUP6 PUSH2 0xB9E JUMP JUMPDEST SWAP4 POP DUP4 PUSH1 0x20 DUP3 MUL DUP6 ADD PUSH2 0xC56 DUP6 PUSH2 0xBAE JUMP JUMPDEST DUP1 PUSH0 JUMPDEST DUP6 DUP2 LT ISZERO PUSH2 0xC91 JUMPI DUP5 DUP5 SUB DUP10 MSTORE DUP2 MLOAD PUSH2 0xC72 DUP6 DUP3 PUSH2 0xC11 JUMP JUMPDEST SWAP5 POP PUSH2 0xC7D DUP4 PUSH2 0xC24 JUMP JUMPDEST SWAP3 POP PUSH1 0x20 DUP11 ADD SWAP10 POP POP PUSH1 0x1 DUP2 ADD SWAP1 POP PUSH2 0xC59 JUMP JUMPDEST POP DUP3 SWAP8 POP DUP8 SWAP6 POP POP POP POP POP POP SWAP3 SWAP2 POP POP JUMP JUMPDEST PUSH0 PUSH1 0x20 DUP3 ADD SWAP1 POP DUP2 DUP2 SUB PUSH0 DUP4 ADD MSTORE PUSH2 0xCBB DUP2 DUP5 PUSH2 0xC30 JUMP JUMPDEST SWAP1 POP SWAP3 SWAP2 POP POP JUMP JUMPDEST PUSH32 0x4E487B7100000000000000000000000000000000000000000000000000000000 PUSH0 MSTORE PUSH1 0x22 PUSH1 0x4 MSTORE PUSH1 0x24 PUSH0 REVERT JUMPDEST PUSH0 PUSH1 0x2 DUP3 DIV SWAP1 POP PUSH1 0x1 DUP3 AND DUP1 PUSH2 0xD07 JUMPI PUSH1 0x7F DUP3 AND SWAP2 POP JUMPDEST PUSH1 0x20 DUP3 LT DUP2 SUB PUSH2 0xD1A JUMPI PUSH2 0xD19 PUSH2 0xCC3 JUMP JUMPDEST JUMPDEST POP SWAP2 SWAP1 POP JUMP JUMPDEST PUSH32 0x536F756C626F756E6420646F6573206E6F742065786973742E00000000000000 PUSH0 DUP3 ADD MSTORE POP JUMP JUMPDEST PUSH0 PUSH2 0xD54 PUSH1 0x19 DUP4 PUSH2 0x737 JUMP JUMPDEST SWAP2 POP PUSH2 0xD5F DUP3 PUSH2 0xD20 JUMP JUMPDEST PUSH1 0x20 DUP3 ADD SWAP1 POP SWAP2 SWAP1 POP JUMP JUMPDEST PUSH0 PUSH1 0x20 DUP3 ADD SWAP1 POP DUP2 DUP2 SUB PUSH0 DUP4 ADD MSTORE PUSH2 0xD81 DUP2 PUSH2 0xD48 JUMP JUMPDEST SWAP1 POP SWAP2 SWAP1 POP JUMP JUMPDEST PUSH32 0x4E487B7100000000000000000000000000000000000000000000000000000000 PUSH0 MSTORE PUSH1 0x32 PUSH1 0x4 MSTORE PUSH1 0x24 PUSH0 REVERT JUMPDEST PUSH32 0x50726F6A6563742049442069732072657175697265642E000000000000000000 PUSH0 DUP3 ADD MSTORE POP JUMP JUMPDEST PUSH0 PUSH2 0xDE9 PUSH1 0x17 DUP4 PUSH2 0x737 JUMP JUMPDEST SWAP2 POP PUSH2 0xDF4 DUP3 PUSH2 0xDB5 JUMP JUMPDEST PUSH1 0x20 DUP3 ADD SWAP1 POP SWAP2 SWAP1 POP JUMP JUMPDEST PUSH0 PUSH1 0x20 DUP3 ADD SWAP1 POP DUP2 DUP2 SUB PUSH0 DUP4 ADD MSTORE PUSH2 0xE16 DUP2 PUSH2 0xDDD JUMP JUMPDEST SWAP1 POP SWAP2 SWAP1 POP JUMP JUMPDEST PUSH32 0x536F756C626F756E642068617368206D7573742062652033322062797465732E PUSH0 DUP3 ADD MSTORE POP JUMP JUMPDEST PUSH0 PUSH2 0xE51 PUSH1 0x20 DUP4 PUSH2 0x737 JUMP JUMPDEST SWAP2 POP PUSH2 0xE5C DUP3 PUSH2 0xE1D JUMP JUMPDEST PUSH1 0x20 DUP3 ADD SWAP1 POP SWAP2 SWAP1 POP JUMP JUMPDEST PUSH0 PUSH1 0x20 DUP3 ADD SWAP1 POP DUP2 DUP2 SUB PUSH0 DUP4 ADD MSTORE PUSH2 0xE7E DUP2 PUSH2 0xE45 JUMP JUMPDEST SWAP1 POP SWAP2 SWAP1 POP JUMP JUMPDEST PUSH0 DUP2 SWAP1 POP DUP2 PUSH0 MSTORE PUSH1 0x20 PUSH0 KECCAK256 SWAP1 POP SWAP2 SWAP1 POP JUMP JUMPDEST PUSH0 PUSH1 0x20 PUSH1 0x1F DUP4 ADD DIV SWAP1 POP SWAP2 SWAP1 POP JUMP JUMPDEST PUSH0 DUP3 DUP3 SHL SWAP1 POP SWAP3 SWAP2 POP POP JUMP JUMPDEST PUSH0 PUSH1 0x8 DUP4 MUL PUSH2 0xEE1 PUSH32 0xFFFFFFFFFFFFFFFFFFFFFFFFFFFFFFFFFFFFFFFFFFFFFFFFFFFFFFFFFFFFFFFF DUP3 PUSH2 0xEA6 JUMP JUMPDEST PUSH2 0xEEB DUP7 DUP4 PUSH2 0xEA6 JUMP JUMPDEST SWAP6 POP DUP1 NOT DUP5 AND SWAP4 POP DUP1 DUP7 AND DUP5 OR SWAP3 POP POP POP SWAP4 SWAP3 POP POP POP JUMP JUMPDEST PUSH0 DUP2 SWAP1 POP SWAP2 SWAP1 POP JUMP JUMPDEST PUSH0 PUSH2 0xF26 PUSH2 0xF21 PUSH2 0xF1C DUP5 PUSH2 0x6CF JUMP JUMPDEST PUSH2 0xF03 JUMP JUMPDEST PUSH2 0x6CF JUMP JUMPDEST SWAP1 POP SWAP2 SWAP1 POP JUMP JUMPDEST PUSH0 DUP2 SWAP1 POP SWAP2 SWAP1 POP JUMP JUMPDEST PUSH2 0xF3F DUP4 PUSH2 0xF0C JUMP JUMPDEST PUSH2 0xF53 PUSH2 0xF4B DUP3 PUSH2 0xF2D JUMP JUMPDEST DUP5 DUP5 SLOAD PUSH2 0xEB2 JUMP JUMPDEST DUP3 SSTORE POP POP POP POP JUMP JUMPDEST PUSH0 SWAP1 JUMP JUMPDEST PUSH2 0xF67 PUSH2 0xF5B JUMP JUMPDEST PUSH2 0xF72 DUP2 DUP5 DUP5 PUSH2 0xF36 JUMP JUMPDEST POP POP POP JUMP JUMPDEST JUMPDEST DUP2 DUP2 LT ISZERO PUSH2 0xF95 JUMPI PUSH2 0xF8A PUSH0 DUP3 PUSH2 0xF5F JUMP JUMPDEST PUSH1 0x1 DUP2 ADD SWAP1 POP PUSH2 0xF78 JUMP JUMPDEST POP POP JUMP JUMPDEST PUSH1 0x1F DUP3 GT ISZERO PUSH2 0xFDA JUMPI PUSH2 0xFAB DUP2 PUSH2 0xE85 JUMP JUMPDEST PUSH2 0xFB4 DUP5 PUSH2 0xE97 JUMP JUMPDEST DUP2 ADD PUSH1 0x20 DUP6 LT ISZERO PUSH2 0xFC3 JUMPI DUP2 SWAP1 POP JUMPDEST PUSH2 0xFD7 PUSH2 0xFCF DUP6 PUSH2 0xE97 JUMP JUMPDEST DUP4 ADD DUP3 PUSH2 0xF77 JUMP JUMPDEST POP POP JUMPDEST POP POP POP JUMP JUMPDEST PUSH0 DUP3 DUP3 SHR SWAP1 POP SWAP3 SWAP2 POP POP JUMP JUMPDEST PUSH0 PUSH2 0xFFA PUSH0 NOT DUP5 PUSH1 0x8 MUL PUSH2 0xFDF JUMP JUMPDEST NOT DUP1 DUP4 AND SWAP2 POP POP SWAP3 SWAP2 POP POP JUMP JUMPDEST PUSH0 PUSH2 0x1012 DUP4 DUP4 PUSH2 0xFEB JUMP JUMPDEST SWAP2 POP DUP3 PUSH1 0x2 MUL DUP3 OR SWAP1 POP SWAP3 SWAP2 POP POP JUMP JUMPDEST PUSH2 0x102B DUP3 PUSH2 0x72D JUMP JUMPDEST PUSH8 0xFFFFFFFFFFFFFFFF DUP2 GT ISZERO PUSH2 0x1044 JUMPI PUSH2 0x1043 PUSH2 0x95C JUMP JUMPDEST JUMPDEST PUSH2 0x104E DUP3 SLOAD PUSH2 0xCF0 JUMP JUMPDEST PUSH2 0x1059 DUP3 DUP3 DUP6 PUSH2 0xF99 JUMP JUMPDEST PUSH0 PUSH1 0x20 SWAP1 POP PUSH1 0x1F DUP4 GT PUSH1 0x1 DUP2 EQ PUSH2 0x108A JUMPI PUSH0 DUP5 ISZERO PUSH2 0x1078 JUMPI DUP3 DUP8 ADD MLOAD SWAP1 POP JUMPDEST PUSH2 0x1082 DUP6 DUP3 PUSH2 0x1007 JUMP JUMPDEST DUP7 SSTORE POP PUSH2 0x10E9 JUMP JUMPDEST PUSH1 0x1F NOT DUP5 AND PUSH2 0x1098 DUP7 PUSH2 0xE85 JUMP JUMPDEST PUSH0 JUMPDEST DUP3 DUP2 LT ISZERO PUSH2 0x10BF JUMPI DUP5 DUP10 ADD MLOAD DUP3 SSTORE PUSH1 0x1 DUP3 ADD SWAP2 POP PUSH1 0x20 DUP6 ADD SWAP5 POP PUSH1 0x20 DUP2 ADD SWAP1 POP PUSH2 0x109A JUMP JUMPDEST DUP7 DUP4 LT ISZERO PUSH2 0x10DC JUMPI DUP5 DUP10 ADD MLOAD PUSH2 0x10D8 PUSH1 0x1F DUP10 AND DUP3 PUSH2 0xFEB JUMP JUMPDEST DUP4 SSTORE POP JUMPDEST PUSH1 0x1 PUSH1 0x2 DUP9 MUL ADD DUP9 SSTORE POP POP POP JUMPDEST POP POP POP POP POP POP JUMP JUMPDEST PUSH0 DUP2 SWAP1 POP DUP2 PUSH0 MSTORE PUSH1 0x20 PUSH0 KECCAK256 SWAP1 POP SWAP2 SWAP1 POP JUMP JUMPDEST PUSH1 0x1F DUP3 GT ISZERO PUSH2 0x1144 JUMPI PUSH2 0x1115 DUP2 PUSH2 0x10F1 JUMP JUMPDEST PUSH2 0x111E DUP5 PUSH2 0xE97 JUMP JUMPDEST DUP2 ADD PUSH1 0x20 DUP6 LT ISZERO PUSH2 0x112D JUMPI DUP2 SWAP1 POP JUMPDEST PUSH2 0x1141 PUSH2 0x1139 DUP6 PUSH2 0xE97 JUMP JUMPDEST DUP4 ADD DUP3 PUSH2 0xF77 JUMP JUMPDEST POP POP JUMPDEST POP POP POP JUMP JUMPDEST PUSH2 0x1152 DUP3 PUSH2 0x79D JUMP JUMPDEST PUSH8 0xFFFFFFFFFFFFFFFF DUP2 GT ISZERO PUSH2 0x116B JUMPI PUSH2 0x116A PUSH2 0x95C JUMP JUMPDEST JUMPDEST PUSH2 0x1175 DUP3 SLOAD PUSH2 0xCF0 JUMP JUMPDEST PUSH2 0x1180 DUP3 DUP3 DUP6 PUSH2 0x1103 JUMP JUMPDEST PUSH0 PUSH1 0x20 SWAP1 POP PUSH1 0x1F DUP4 GT PUSH1 0x1 DUP2 EQ PUSH2 0x11B1 JUMPI PUSH0 DUP5 ISZERO PUSH2 0x119F JUMPI DUP3 DUP8 ADD MLOAD SWAP1 POP JUMPDEST PUSH2 0x11A9 DUP6 DUP3 PUSH2 0x1007 JUMP JUMPDEST DUP7 SSTORE POP PUSH2 0x1210 JUMP JUMPDEST PUSH1 0x1F NOT DUP5 AND PUSH2 0x11BF DUP7 PUSH2 0x10F1 JUMP JUMPDEST PUSH0 JUMPDEST DUP3 DUP2 LT ISZERO PUSH2 0x11E6 JUMPI DUP5 DUP10 ADD MLOAD DUP3 SSTORE PUSH1 0x1 DUP3 ADD SWAP2 POP PUSH1 0x20 DUP6 ADD SWAP5 POP PUSH1 0x20 DUP2 ADD SWAP1 POP PUSH2 0x11C1 JUMP JUMPDEST DUP7 DUP4 LT ISZERO PUSH2 0x1203 JUMPI DUP5 DUP10 ADD MLOAD PUSH2 0x11FF PUSH1 0x1F DUP10 AND DUP3 PUSH2 0xFEB JUMP JUMPDEST DUP4 SSTORE POP JUMPDEST PUSH1 0x1 PUSH1 0x2 DUP9 MUL ADD DUP9 SSTORE POP POP POP JUMPDEST POP POP POP POP POP POP JUMP INVALID LOG2 PUSH5 0x6970667358 0x22 SLT KECCAK256 DUP13 0xA8 SWAP14 SWAP1 0xE3 DUP8 0xCD PUSH30 0x4320C66DB3B7F63D3731D17B5A97FC37FE8CC1C6C720A79864736F6C6343 STOP ADDMOD BYTE STOP CALLER "
	},
	"abi": [
		{
			"anonymous": false,
			"inputs": [
				{
					"indexed": true,
					"internalType": "uint256",
					"name": "soulboundIndex",
					"type": "uint256"
				},
				{
					"indexed": false,
					"internalType": "string",
					"name": "prj_id",
					"type": "string"
				},
				{
					"indexed": false,
					"internalType": "bytes",
					"name": "soulbound_hash",
					"type": "bytes"
				},
				{
					"indexed": false,
					"internalType": "uint256",
					"name": "submission_time",
					"type": "uint256"
				}
			],
			"name": "SoulboundHashSubmitted",
			"type": "event"
		},
		{
			"inputs": [
				{
					"internalType": "uint256",
					"name": "soulboundIndex",
					"type": "uint256"
				}
			],
			"name": "getSoulboundById",
			"outputs": [
				{
					"components": [
						{
							"internalType": "string",
							"name": "prj_id",
							"type": "string"
						},
						{
							"internalType": "bytes",
							"name": "soulbound_hash",
							"type": "bytes"
						},
						{
							"internalType": "uint256",
							"name": "submission_time",
							"type": "uint256"
						}
					],
					"internalType": "struct HederaSoulboundContract.Soulbound",
					"name": "",
					"type": "tuple"
				}
			],
			"stateMutability": "view",
			"type": "function"
		},
		{
			"inputs": [],
			"name": "getSoulbounds",
			"outputs": [
				{
					"components": [
						{
							"internalType": "string",
							"name": "prj_id",
							"type": "string"
						},
						{
							"internalType": "bytes",
							"name": "soulbound_hash",
							"type": "bytes"
						},
						{
							"internalType": "uint256",
							"name": "submission_time",
							"type": "uint256"
						}
					],
					"internalType": "struct HederaSoulboundContract.Soulbound[]",
					"name": "",
					"type": "tuple[]"
				}
			],
			"stateMutability": "view",
			"type": "function"
		},
		{
			"inputs": [
				{
					"internalType": "uint256",
					"name": "",
					"type": "uint256"
				}
			],
			"name": "soulbounds",
			"outputs": [
				{
					"internalType": "string",
					"name": "prj_id",
					"type": "string"
				},
				{
					"internalType": "bytes",
					"name": "soulbound_hash",
					"type": "bytes"
				},
				{
					"internalType": "uint256",
					"name": "submission_time",
					"type": "uint256"
				}
			],
			"stateMutability": "view",
			"type": "function"
		},
		{
			"inputs": [
				{
					"internalType": "string",
					"name": "prj_id",
					"type": "string"
				},
				{
					"internalType": "bytes",
					"name": "soulbound_hash",
					"type": "bytes"
				}
			],
			"name": "submitSoulboundHash",
			"outputs": [],
			"stateMutability": "nonpayable",
			"type": "function"
		}
	],
	"storageLayout": {
		"storage": [
			{
				"astId": 12,
				"contract": "soulbond1.sol:HederaSoulboundContract",
				"label": "soulbounds",
				"offset": 0,
				"slot": "0",
				"type": "t_array(t_struct(Soulbound)8_storage)dyn_storage"
			}
		],
		"types": {
			"t_array(t_struct(Soulbound)8_storage)dyn_storage": {
				"base": "t_struct(Soulbound)8_storage",
				"encoding": "dynamic_array",
				"label": "struct HederaSoulboundContract.Soulbound[]",
				"numberOfBytes": "32"
			},
			"t_bytes_storage": {
				"encoding": "bytes",
				"label": "bytes",
				"numberOfBytes": "32"
			},
			"t_string_storage": {
				"encoding": "bytes",
				"label": "string",
				"numberOfBytes": "32"
			},
			"t_struct(Soulbound)8_storage": {
				"encoding": "inplace",
				"label": "struct HederaSoulboundContract.Soulbound",
				"members": [
					{
						"astId": 3,
						"contract": "soulbond1.sol:HederaSoulboundContract",
						"label": "prj_id",
						"offset": 0,
						"slot": "0",
						"type": "t_string_storage"
					},
					{
						"astId": 5,
						"contract": "soulbond1.sol:HederaSoulboundContract",
						"label": "soulbound_hash",
						"offset": 0,
						"slot": "1",
						"type": "t_bytes_storage"
					},
					{
						"astId": 7,
						"contract": "soulbond1.sol:HederaSoulboundContract",
						"label": "submission_time",
						"offset": 0,
						"slot": "2",
						"type": "t_uint256"
					}
				],
				"numberOfBytes": "96"
			},
			"t_uint256": {
				"encoding": "inplace",
				"label": "uint256",
				"numberOfBytes": "32"
			}
		}
	},
	"web3Deploy": "var hederasoulboundcontractContract = new web3.eth.Contract([{\"anonymous\":false,\"inputs\":[{\"indexed\":true,\"internalType\":\"uint256\",\"name\":\"soulboundIndex\",\"type\":\"uint256\"},{\"indexed\":false,\"internalType\":\"string\",\"name\":\"prj_id\",\"type\":\"string\"},{\"indexed\":false,\"internalType\":\"bytes\",\"name\":\"soulbound_hash\",\"type\":\"bytes\"},{\"indexed\":false,\"internalType\":\"uint256\",\"name\":\"submission_time\",\"type\":\"uint256\"}],\"name\":\"SoulboundHashSubmitted\",\"type\":\"event\"},{\"inputs\":[{\"internalType\":\"uint256\",\"name\":\"soulboundIndex\",\"type\":\"uint256\"}],\"name\":\"getSoulboundById\",\"outputs\":[{\"components\":[{\"internalType\":\"string\",\"name\":\"prj_id\",\"type\":\"string\"},{\"internalType\":\"bytes\",\"name\":\"soulbound_hash\",\"type\":\"bytes\"},{\"internalType\":\"uint256\",\"name\":\"submission_time\",\"type\":\"uint256\"}],\"internalType\":\"struct HederaSoulboundContract.Soulbound\",\"name\":\"\",\"type\":\"tuple\"}],\"stateMutability\":\"view\",\"type\":\"function\"},{\"inputs\":[],\"name\":\"getSoulbounds\",\"outputs\":[{\"components\":[{\"internalType\":\"string\",\"name\":\"prj_id\",\"type\":\"string\"},{\"internalType\":\"bytes\",\"name\":\"soulbound_hash\",\"type\":\"bytes\"},{\"internalType\":\"uint256\",\"name\":\"submission_time\",\"type\":\"uint256\"}],\"internalType\":\"struct HederaSoulboundContract.Soulbound[]\",\"name\":\"\",\"type\":\"tuple[]\"}],\"stateMutability\":\"view\",\"type\":\"function\"},{\"inputs\":[{\"internalType\":\"uint256\",\"name\":\"\",\"type\":\"uint256\"}],\"name\":\"soulbounds\",\"outputs\":[{\"internalType\":\"string\",\"name\":\"prj_id\",\"type\":\"string\"},{\"internalType\":\"bytes\",\"name\":\"soulbound_hash\",\"type\":\"bytes\"},{\"internalType\":\"uint256\",\"name\":\"submission_time\",\"type\":\"uint256\"}],\"stateMutability\":\"view\",\"type\":\"function\"},{\"inputs\":[{\"internalType\":\"string\",\"name\":\"prj_id\",\"type\":\"string\"},{\"internalType\":\"bytes\",\"name\":\"soulbound_hash\",\"type\":\"bytes\"}],\"name\":\"submitSoulboundHash\",\"outputs\":[],\"stateMutability\":\"nonpayable\",\"type\":\"function\"}]);\nvar hederasoulboundcontract = hederasoulboundcontractContract.deploy({\n     data: '0x6080604052348015600e575f80fd5b5061124e8061001c5f395ff3fe608060405234801561000f575f80fd5b506004361061004a575f3560e01c8063089dc9551461004e578063171ebac714610080578063c5ae59e8146100b0578063fca83c55146100cc575b5f80fd5b61006860048036038101906100639190610702565b6100ea565b604051610077939291906107fe565b60405180910390f35b61009a60048036038101906100959190610702565b61022a565b6040516100a79190610934565b60405180910390f35b6100ca60048036038101906100c59190610b1e565b6103d2565b005b6100d461051a565b6040516100e19190610ca3565b60405180910390f35b5f81815481106100f8575f80fd5b905f5260205f2090600302015f91509050805f01805461011790610cf0565b80601f016020809104026020016040519081016040528092919081815260200182805461014390610cf0565b801561018e5780601f106101655761010080835404028352916020019161018e565b820191905f5260205f20905b81548152906001019060200180831161017157829003601f168201915b5050505050908060010180546101a390610cf0565b80601f01602080910402602001604051908101604052809291908181526020018280546101cf90610cf0565b801561021a5780601f106101f15761010080835404028352916020019161021a565b820191905f5260205f20905b8154815290600101906020018083116101fd57829003601f168201915b5050505050908060020154905083565b61023261069e565b5f805490508210610278576040517f08c379a000000000000000000000000000000000000000000000000000000000815260040161026f90610d6a565b60405180910390fd5b5f828154811061028b5761028a610d88565b5b905f5260205f2090600302016040518060600160405290815f820180546102b190610cf0565b80601f01602080910402602001604051908101604052809291908181526020018280546102dd90610cf0565b80156103285780601f106102ff57610100808354040283529160200191610328565b820191905f5260205f20905b81548152906001019060200180831161030b57829003601f168201915b5050505050815260200160018201805461034190610cf0565b80601f016020809104026020016040519081016040528092919081815260200182805461036d90610cf0565b80156103b85780601f1061038f576101008083540402835291602001916103b8565b820191905f5260205f20905b81548152906001019060200180831161039b57829003601f168201915b505050505081526020016002820154815250509050919050565b5f825111610415576040517f08c379a000000000000000000000000000000000000000000000000000000000815260040161040c90610dff565b60405180910390fd5b6020815114610459576040517f08c379a000000000000000000000000000000000000000000000000000000000815260040161045090610e67565b60405180910390fd5b5f808054905090505f604051806060016040528085815260200184815260200142815250908060018154018082558091505060019003905f5260205f2090600302015f909190919091505f820151815f0190816104b69190611022565b5060208201518160010190816104cc9190611149565b50604082015181600201555050807f69603b7380cdbdd9614011d9148b6413d333a686dc8ad33304d95e2ddc3f5b5784844260405161050d939291906107fe565b60405180910390a2505050565b60605f805480602002602001604051908101604052809291908181526020015f905b82821015610695578382905f5260205f2090600302016040518060600160405290815f8201805461056c90610cf0565b80601f016020809104026020016040519081016040528092919081815260200182805461059890610cf0565b80156105e35780601f106105ba576101008083540402835291602001916105e3565b820191905f5260205f20905b8154815290600101906020018083116105c657829003601f168201915b505050505081526020016001820180546105fc90610cf0565b80601f016020809104026020016040519081016040528092919081815260200182805461062890610cf0565b80156106735780601f1061064a57610100808354040283529160200191610673565b820191905f5260205f20905b81548152906001019060200180831161065657829003601f168201915b505050505081526020016002820154815250508152602001906001019061053c565b50505050905090565b604051806060016040528060608152602001606081526020015f81525090565b5f604051905090565b5f80fd5b5f80fd5b5f819050919050565b6106e1816106cf565b81146106eb575f80fd5b50565b5f813590506106fc816106d8565b92915050565b5f60208284031215610717576107166106c7565b5b5f610724848285016106ee565b91505092915050565b5f81519050919050565b5f82825260208201905092915050565b8281835e5f83830152505050565b5f601f19601f8301169050919050565b5f61076f8261072d565b6107798185610737565b9350610789818560208601610747565b61079281610755565b840191505092915050565b5f81519050919050565b5f82825260208201905092915050565b5f6107c18261079d565b6107cb81856107a7565b93506107db818560208601610747565b6107e481610755565b840191505092915050565b6107f8816106cf565b82525050565b5f6060820190508181035f8301526108168186610765565b9050818103602083015261082a81856107b7565b905061083960408301846107ef565b949350505050565b5f82825260208201905092915050565b5f61085b8261072d565b6108658185610841565b9350610875818560208601610747565b61087e81610755565b840191505092915050565b5f82825260208201905092915050565b5f6108a38261079d565b6108ad8185610889565b93506108bd818560208601610747565b6108c681610755565b840191505092915050565b6108da816106cf565b82525050565b5f606083015f8301518482035f8601526108fa8282610851565b915050602083015184820360208601526109148282610899565b915050604083015161092960408601826108d1565b508091505092915050565b5f6020820190508181035f83015261094c81846108e0565b905092915050565b5f80fd5b5f80fd5b7f4e487b71000000000000000000000000000000000000000000000000000000005f52604160045260245ffd5b61099282610755565b810181811067ffffffffffffffff821117156109b1576109b061095c565b5b80604052505050565b5f6109c36106be565b90506109cf8282610989565b919050565b5f67ffffffffffffffff8211156109ee576109ed61095c565b5b6109f782610755565b9050602081019050919050565b828183375f83830152505050565b5f610a24610a1f846109d4565b6109ba565b905082815260208101848484011115610a4057610a3f610958565b5b610a4b848285610a04565b509392505050565b5f82601f830112610a6757610a66610954565b5b8135610a77848260208601610a12565b91505092915050565b5f67ffffffffffffffff821115610a9a57610a9961095c565b5b610aa382610755565b9050602081019050919050565b5f610ac2610abd84610a80565b6109ba565b905082815260208101848484011115610ade57610add610958565b5b610ae9848285610a04565b509392505050565b5f82601f830112610b0557610b04610954565b5b8135610b15848260208601610ab0565b91505092915050565b5f8060408385031215610b3457610b336106c7565b5b5f83013567ffffffffffffffff811115610b5157610b506106cb565b5b610b5d85828601610a53565b925050602083013567ffffffffffffffff811115610b7e57610b7d6106cb565b5b610b8a85828601610af1565b9150509250929050565b5f81519050919050565b5f82825260208201905092915050565b5f819050602082019050919050565b5f606083015f8301518482035f860152610bd78282610851565b91505060208301518482036020860152610bf18282610899565b9150506040830151610c0660408601826108d1565b508091505092915050565b5f610c1c8383610bbd565b905092915050565b5f602082019050919050565b5f610c3a82610b94565b610c448185610b9e565b935083602082028501610c5685610bae565b805f5b85811015610c915784840389528151610c728582610c11565b9450610c7d83610c24565b925060208a01995050600181019050610c59565b50829750879550505050505092915050565b5f6020820190508181035f830152610cbb8184610c30565b905092915050565b7f4e487b71000000000000000000000000000000000000000000000000000000005f52602260045260245ffd5b5f6002820490506001821680610d0757607f821691505b602082108103610d1a57610d19610cc3565b5b50919050565b7f536f756c626f756e6420646f6573206e6f742065786973742e000000000000005f82015250565b5f610d54601983610737565b9150610d5f82610d20565b602082019050919050565b5f6020820190508181035f830152610d8181610d48565b9050919050565b7f4e487b71000000000000000000000000000000000000000000000000000000005f52603260045260245ffd5b7f50726f6a6563742049442069732072657175697265642e0000000000000000005f82015250565b5f610de9601783610737565b9150610df482610db5565b602082019050919050565b5f6020820190508181035f830152610e1681610ddd565b9050919050565b7f536f756c626f756e642068617368206d7573742062652033322062797465732e5f82015250565b5f610e51602083610737565b9150610e5c82610e1d565b602082019050919050565b5f6020820190508181035f830152610e7e81610e45565b9050919050565b5f819050815f5260205f209050919050565b5f6020601f8301049050919050565b5f82821b905092915050565b5f60088302610ee17fffffffffffffffffffffffffffffffffffffffffffffffffffffffffffffffff82610ea6565b610eeb8683610ea6565b95508019841693508086168417925050509392505050565b5f819050919050565b5f610f26610f21610f1c846106cf565b610f03565b6106cf565b9050919050565b5f819050919050565b610f3f83610f0c565b610f53610f4b82610f2d565b848454610eb2565b825550505050565b5f90565b610f67610f5b565b610f72818484610f36565b505050565b5b81811015610f9557610f8a5f82610f5f565b600181019050610f78565b5050565b601f821115610fda57610fab81610e85565b610fb484610e97565b81016020851015610fc3578190505b610fd7610fcf85610e97565b830182610f77565b50505b505050565b5f82821c905092915050565b5f610ffa5f1984600802610fdf565b1980831691505092915050565b5f6110128383610feb565b9150826002028217905092915050565b61102b8261072d565b67ffffffffffffffff8111156110445761104361095c565b5b61104e8254610cf0565b611059828285610f99565b5f60209050601f83116001811461108a575f8415611078578287015190505b6110828582611007565b8655506110e9565b601f19841661109886610e85565b5f5b828110156110bf5784890151825560018201915060208501945060208101905061109a565b868310156110dc57848901516110d8601f891682610feb565b8355505b6001600288020188555050505b505050505050565b5f819050815f5260205f209050919050565b601f82111561114457611115816110f1565b61111e84610e97565b8101602085101561112d578190505b61114161113985610e97565b830182610f77565b50505b505050565b6111528261079d565b67ffffffffffffffff81111561116b5761116a61095c565b5b6111758254610cf0565b611180828285611103565b5f60209050601f8311600181146111b1575f841561119f578287015190505b6111a98582611007565b865550611210565b601f1984166111bf866110f1565b5f5b828110156111e6578489015182556001820191506020850194506020810190506111c1565b8683101561120357848901516111ff601f891682610feb565b8355505b6001600288020188555050505b50505050505056fea26469706673582212208ca89d90e387cd7d4320c66db3b7f63d3731d17b5a97fc37fe8cc1c6c720a79864736f6c634300081a0033', \n     arguments: [\n     ]\n}).send({\n     from: web3.eth.accounts[0], \n     gas: '4700000'\n   }, function (e, contract){\n    console.log(e, contract);\n    if (typeof contract.address !== 'undefined') {\n         console.log('Contract mined! address: ' + contract.address + ' transactionHash: ' + contract.transactionHash);\n    }\n })",
	"functionHashes": {
		"171ebac7": "getSoulboundById(uint256)",
		"fca83c55": "getSoulbounds()",
		"089dc955": "soulbounds(uint256)",
		"c5ae59e8": "submitSoulboundHash(string,bytes)"
	},
	"gasEstimates": {
		"Creation": {
			"codeDepositCost": "937200",
			"executionCost": "973",
			"totalCost": "938173"
		},
		"External": {
			"getSoulboundById(uint256)": "infinite",
			"getSoulbounds()": "infinite",
			"soulbounds(uint256)": "infinite",
			"submitSoulboundHash(string,bytes)": "infinite"
		}
	},
	"devdoc": {
		"kind": "dev",
		"methods": {},
		"version": 1
	},
	"userdoc": {
		"kind": "user",
		"methods": {},
		"version": 1
	},
	"Runtime Bytecode": {
		"immutableReferences": {},
		"linkReferences": {},
		"object": "608060405234801561000f575f80fd5b506004361061004a575f3560e01c8063089dc9551461004e578063171ebac714610080578063c5ae59e8146100b0578063fca83c55146100cc575b5f80fd5b61006860048036038101906100639190610702565b6100ea565b604051610077939291906107fe565b60405180910390f35b61009a60048036038101906100959190610702565b61022a565b6040516100a79190610934565b60405180910390f35b6100ca60048036038101906100c59190610b1e565b6103d2565b005b6100d461051a565b6040516100e19190610ca3565b60405180910390f35b5f81815481106100f8575f80fd5b905f5260205f2090600302015f91509050805f01805461011790610cf0565b80601f016020809104026020016040519081016040528092919081815260200182805461014390610cf0565b801561018e5780601f106101655761010080835404028352916020019161018e565b820191905f5260205f20905b81548152906001019060200180831161017157829003601f168201915b5050505050908060010180546101a390610cf0565b80601f01602080910402602001604051908101604052809291908181526020018280546101cf90610cf0565b801561021a5780601f106101f15761010080835404028352916020019161021a565b820191905f5260205f20905b8154815290600101906020018083116101fd57829003601f168201915b5050505050908060020154905083565b61023261069e565b5f805490508210610278576040517f08c379a000000000000000000000000000000000000000000000000000000000815260040161026f90610d6a565b60405180910390fd5b5f828154811061028b5761028a610d88565b5b905f5260205f2090600302016040518060600160405290815f820180546102b190610cf0565b80601f01602080910402602001604051908101604052809291908181526020018280546102dd90610cf0565b80156103285780601f106102ff57610100808354040283529160200191610328565b820191905f5260205f20905b81548152906001019060200180831161030b57829003601f168201915b5050505050815260200160018201805461034190610cf0565b80601f016020809104026020016040519081016040528092919081815260200182805461036d90610cf0565b80156103b85780601f1061038f576101008083540402835291602001916103b8565b820191905f5260205f20905b81548152906001019060200180831161039b57829003601f168201915b505050505081526020016002820154815250509050919050565b5f825111610415576040517f08c379a000000000000000000000000000000000000000000000000000000000815260040161040c90610dff565b60405180910390fd5b6020815114610459576040517f08c379a000000000000000000000000000000000000000000000000000000000815260040161045090610e67565b60405180910390fd5b5f808054905090505f604051806060016040528085815260200184815260200142815250908060018154018082558091505060019003905f5260205f2090600302015f909190919091505f820151815f0190816104b69190611022565b5060208201518160010190816104cc9190611149565b50604082015181600201555050807f69603b7380cdbdd9614011d9148b6413d333a686dc8ad33304d95e2ddc3f5b5784844260405161050d939291906107fe565b60405180910390a2505050565b60605f805480602002602001604051908101604052809291908181526020015f905b82821015610695578382905f5260205f2090600302016040518060600160405290815f8201805461056c90610cf0565b80601f016020809104026020016040519081016040528092919081815260200182805461059890610cf0565b80156105e35780601f106105ba576101008083540402835291602001916105e3565b820191905f5260205f20905b8154815290600101906020018083116105c657829003601f168201915b505050505081526020016001820180546105fc90610cf0565b80601f016020809104026020016040519081016040528092919081815260200182805461062890610cf0565b80156106735780601f1061064a57610100808354040283529160200191610673565b820191905f5260205f20905b81548152906001019060200180831161065657829003601f168201915b505050505081526020016002820154815250508152602001906001019061053c565b50505050905090565b604051806060016040528060608152602001606081526020015f81525090565b5f604051905090565b5f80fd5b5f80fd5b5f819050919050565b6106e1816106cf565b81146106eb575f80fd5b50565b5f813590506106fc816106d8565b92915050565b5f60208284031215610717576107166106c7565b5b5f610724848285016106ee565b91505092915050565b5f81519050919050565b5f82825260208201905092915050565b8281835e5f83830152505050565b5f601f19601f8301169050919050565b5f61076f8261072d565b6107798185610737565b9350610789818560208601610747565b61079281610755565b840191505092915050565b5f81519050919050565b5f82825260208201905092915050565b5f6107c18261079d565b6107cb81856107a7565b93506107db818560208601610747565b6107e481610755565b840191505092915050565b6107f8816106cf565b82525050565b5f6060820190508181035f8301526108168186610765565b9050818103602083015261082a81856107b7565b905061083960408301846107ef565b949350505050565b5f82825260208201905092915050565b5f61085b8261072d565b6108658185610841565b9350610875818560208601610747565b61087e81610755565b840191505092915050565b5f82825260208201905092915050565b5f6108a38261079d565b6108ad8185610889565b93506108bd818560208601610747565b6108c681610755565b840191505092915050565b6108da816106cf565b82525050565b5f606083015f8301518482035f8601526108fa8282610851565b915050602083015184820360208601526109148282610899565b915050604083015161092960408601826108d1565b508091505092915050565b5f6020820190508181035f83015261094c81846108e0565b905092915050565b5f80fd5b5f80fd5b7f4e487b71000000000000000000000000000000000000000000000000000000005f52604160045260245ffd5b61099282610755565b810181811067ffffffffffffffff821117156109b1576109b061095c565b5b80604052505050565b5f6109c36106be565b90506109cf8282610989565b919050565b5f67ffffffffffffffff8211156109ee576109ed61095c565b5b6109f782610755565b9050602081019050919050565b828183375f83830152505050565b5f610a24610a1f846109d4565b6109ba565b905082815260208101848484011115610a4057610a3f610958565b5b610a4b848285610a04565b509392505050565b5f82601f830112610a6757610a66610954565b5b8135610a77848260208601610a12565b91505092915050565b5f67ffffffffffffffff821115610a9a57610a9961095c565b5b610aa382610755565b9050602081019050919050565b5f610ac2610abd84610a80565b6109ba565b905082815260208101848484011115610ade57610add610958565b5b610ae9848285610a04565b509392505050565b5f82601f830112610b0557610b04610954565b5b8135610b15848260208601610ab0565b91505092915050565b5f8060408385031215610b3457610b336106c7565b5b5f83013567ffffffffffffffff811115610b5157610b506106cb565b5b610b5d85828601610a53565b925050602083013567ffffffffffffffff811115610b7e57610b7d6106cb565b5b610b8a85828601610af1565b9150509250929050565b5f81519050919050565b5f82825260208201905092915050565b5f819050602082019050919050565b5f606083015f8301518482035f860152610bd78282610851565b91505060208301518482036020860152610bf18282610899565b9150506040830151610c0660408601826108d1565b508091505092915050565b5f610c1c8383610bbd565b905092915050565b5f602082019050919050565b5f610c3a82610b94565b610c448185610b9e565b935083602082028501610c5685610bae565b805f5b85811015610c915784840389528151610c728582610c11565b9450610c7d83610c24565b925060208a01995050600181019050610c59565b50829750879550505050505092915050565b5f6020820190508181035f830152610cbb8184610c30565b905092915050565b7f4e487b71000000000000000000000000000000000000000000000000000000005f52602260045260245ffd5b5f6002820490506001821680610d0757607f821691505b602082108103610d1a57610d19610cc3565b5b50919050565b7f536f756c626f756e6420646f6573206e6f742065786973742e000000000000005f82015250565b5f610d54601983610737565b9150610d5f82610d20565b602082019050919050565b5f6020820190508181035f830152610d8181610d48565b9050919050565b7f4e487b71000000000000000000000000000000000000000000000000000000005f52603260045260245ffd5b7f50726f6a6563742049442069732072657175697265642e0000000000000000005f82015250565b5f610de9601783610737565b9150610df482610db5565b602082019050919050565b5f6020820190508181035f830152610e1681610ddd565b9050919050565b7f536f756c626f756e642068617368206d7573742062652033322062797465732e5f82015250565b5f610e51602083610737565b9150610e5c82610e1d565b602082019050919050565b5f6020820190508181035f830152610e7e81610e45565b9050919050565b5f819050815f5260205f209050919050565b5f6020601f8301049050919050565b5f82821b905092915050565b5f60088302610ee17fffffffffffffffffffffffffffffffffffffffffffffffffffffffffffffffff82610ea6565b610eeb8683610ea6565b95508019841693508086168417925050509392505050565b5f819050919050565b5f610f26610f21610f1c846106cf565b610f03565b6106cf565b9050919050565b5f819050919050565b610f3f83610f0c565b610f53610f4b82610f2d565b848454610eb2565b825550505050565b5f90565b610f67610f5b565b610f72818484610f36565b505050565b5b81811015610f9557610f8a5f82610f5f565b600181019050610f78565b5050565b601f821115610fda57610fab81610e85565b610fb484610e97565b81016020851015610fc3578190505b610fd7610fcf85610e97565b830182610f77565b50505b505050565b5f82821c905092915050565b5f610ffa5f1984600802610fdf565b1980831691505092915050565b5f6110128383610feb565b9150826002028217905092915050565b61102b8261072d565b67ffffffffffffffff8111156110445761104361095c565b5b61104e8254610cf0565b611059828285610f99565b5f60209050601f83116001811461108a575f8415611078578287015190505b6110828582611007565b8655506110e9565b601f19841661109886610e85565b5f5b828110156110bf5784890151825560018201915060208501945060208101905061109a565b868310156110dc57848901516110d8601f891682610feb565b8355505b6001600288020188555050505b505050505050565b5f819050815f5260205f209050919050565b601f82111561114457611115816110f1565b61111e84610e97565b8101602085101561112d578190505b61114161113985610e97565b830182610f77565b50505b505050565b6111528261079d565b67ffffffffffffffff81111561116b5761116a61095c565b5b6111758254610cf0565b611180828285611103565b5f60209050601f8311600181146111b1575f841561119f578287015190505b6111a98582611007565b865550611210565b601f1984166111bf866110f1565b5f5b828110156111e6578489015182556001820191506020850194506020810190506111c1565b8683101561120357848901516111ff601f891682610feb565b8355505b6001600288020188555050505b50505050505056fea26469706673582212208ca89d90e387cd7d4320c66db3b7f63d3731d17b5a97fc37fe8cc1c6c720a79864736f6c634300081a0033",
		"opcodes": "PUSH1 0x80 PUSH1 0x40 MSTORE CALLVALUE DUP1 ISZERO PUSH2 0xF JUMPI PUSH0 DUP1 REVERT JUMPDEST POP PUSH1 0x4 CALLDATASIZE LT PUSH2 0x4A JUMPI PUSH0 CALLDATALOAD PUSH1 0xE0 SHR DUP1 PUSH4 0x89DC955 EQ PUSH2 0x4E JUMPI DUP1 PUSH4 0x171EBAC7 EQ PUSH2 0x80 JUMPI DUP1 PUSH4 0xC5AE59E8 EQ PUSH2 0xB0 JUMPI DUP1 PUSH4 0xFCA83C55 EQ PUSH2 0xCC JUMPI JUMPDEST PUSH0 DUP1 REVERT JUMPDEST PUSH2 0x68 PUSH1 0x4 DUP1 CALLDATASIZE SUB DUP2 ADD SWAP1 PUSH2 0x63 SWAP2 SWAP1 PUSH2 0x702 JUMP JUMPDEST PUSH2 0xEA JUMP JUMPDEST PUSH1 0x40 MLOAD PUSH2 0x77 SWAP4 SWAP3 SWAP2 SWAP1 PUSH2 0x7FE JUMP JUMPDEST PUSH1 0x40 MLOAD DUP1 SWAP2 SUB SWAP1 RETURN JUMPDEST PUSH2 0x9A PUSH1 0x4 DUP1 CALLDATASIZE SUB DUP2 ADD SWAP1 PUSH2 0x95 SWAP2 SWAP1 PUSH2 0x702 JUMP JUMPDEST PUSH2 0x22A JUMP JUMPDEST PUSH1 0x40 MLOAD PUSH2 0xA7 SWAP2 SWAP1 PUSH2 0x934 JUMP JUMPDEST PUSH1 0x40 MLOAD DUP1 SWAP2 SUB SWAP1 RETURN JUMPDEST PUSH2 0xCA PUSH1 0x4 DUP1 CALLDATASIZE SUB DUP2 ADD SWAP1 PUSH2 0xC5 SWAP2 SWAP1 PUSH2 0xB1E JUMP JUMPDEST PUSH2 0x3D2 JUMP JUMPDEST STOP JUMPDEST PUSH2 0xD4 PUSH2 0x51A JUMP JUMPDEST PUSH1 0x40 MLOAD PUSH2 0xE1 SWAP2 SWAP1 PUSH2 0xCA3 JUMP JUMPDEST PUSH1 0x40 MLOAD DUP1 SWAP2 SUB SWAP1 RETURN JUMPDEST PUSH0 DUP2 DUP2 SLOAD DUP2 LT PUSH2 0xF8 JUMPI PUSH0 DUP1 REVERT JUMPDEST SWAP1 PUSH0 MSTORE PUSH1 0x20 PUSH0 KECCAK256 SWAP1 PUSH1 0x3 MUL ADD PUSH0 SWAP2 POP SWAP1 POP DUP1 PUSH0 ADD DUP1 SLOAD PUSH2 0x117 SWAP1 PUSH2 0xCF0 JUMP JUMPDEST DUP1 PUSH1 0x1F ADD PUSH1 0x20 DUP1 SWAP2 DIV MUL PUSH1 0x20 ADD PUSH1 0x40 MLOAD SWAP1 DUP2 ADD PUSH1 0x40 MSTORE DUP1 SWAP3 SWAP2 SWAP1 DUP2 DUP2 MSTORE PUSH1 0x20 ADD DUP3 DUP1 SLOAD PUSH2 0x143 SWAP1 PUSH2 0xCF0 JUMP JUMPDEST DUP1 ISZERO PUSH2 0x18E JUMPI DUP1 PUSH1 0x1F LT PUSH2 0x165 JUMPI PUSH2 0x100 DUP1 DUP4 SLOAD DIV MUL DUP4 MSTORE SWAP2 PUSH1 0x20 ADD SWAP2 PUSH2 0x18E JUMP JUMPDEST DUP3 ADD SWAP2 SWAP1 PUSH0 MSTORE PUSH1 0x20 PUSH0 KECCAK256 SWAP1 JUMPDEST DUP2 SLOAD DUP2 MSTORE SWAP1 PUSH1 0x1 ADD SWAP1 PUSH1 0x20 ADD DUP1 DUP4 GT PUSH2 0x171 JUMPI DUP3 SWAP1 SUB PUSH1 0x1F AND DUP3 ADD SWAP2 JUMPDEST POP POP POP POP POP SWAP1 DUP1 PUSH1 0x1 ADD DUP1 SLOAD PUSH2 0x1A3 SWAP1 PUSH2 0xCF0 JUMP JUMPDEST DUP1 PUSH1 0x1F ADD PUSH1 0x20 DUP1 SWAP2 DIV MUL PUSH1 0x20 ADD PUSH1 0x40 MLOAD SWAP1 DUP2 ADD PUSH1 0x40 MSTORE DUP1 SWAP3 SWAP2 SWAP1 DUP2 DUP2 MSTORE PUSH1 0x20 ADD DUP3 DUP1 SLOAD PUSH2 0x1CF SWAP1 PUSH2 0xCF0 JUMP JUMPDEST DUP1 ISZERO PUSH2 0x21A JUMPI DUP1 PUSH1 0x1F LT PUSH2 0x1F1 JUMPI PUSH2 0x100 DUP1 DUP4 SLOAD DIV MUL DUP4 MSTORE SWAP2 PUSH1 0x20 ADD SWAP2 PUSH2 0x21A JUMP JUMPDEST DUP3 ADD SWAP2 SWAP1 PUSH0 MSTORE PUSH1 0x20 PUSH0 KECCAK256 SWAP1 JUMPDEST DUP2 SLOAD DUP2 MSTORE SWAP1 PUSH1 0x1 ADD SWAP1 PUSH1 0x20 ADD DUP1 DUP4 GT PUSH2 0x1FD JUMPI DUP3 SWAP1 SUB PUSH1 0x1F AND DUP3 ADD SWAP2 JUMPDEST POP POP POP POP POP SWAP1 DUP1 PUSH1 0x2 ADD SLOAD SWAP1 POP DUP4 JUMP JUMPDEST PUSH2 0x232 PUSH2 0x69E JUMP JUMPDEST PUSH0 DUP1 SLOAD SWAP1 POP DUP3 LT PUSH2 0x278 JUMPI PUSH1 0x40 MLOAD PUSH32 0x8C379A000000000000000000000000000000000000000000000000000000000 DUP2 MSTORE PUSH1 0x4 ADD PUSH2 0x26F SWAP1 PUSH2 0xD6A JUMP JUMPDEST PUSH1 0x40 MLOAD DUP1 SWAP2 SUB SWAP1 REVERT JUMPDEST PUSH0 DUP3 DUP2 SLOAD DUP2 LT PUSH2 0x28B JUMPI PUSH2 0x28A PUSH2 0xD88 JUMP JUMPDEST JUMPDEST SWAP1 PUSH0 MSTORE PUSH1 0x20 PUSH0 KECCAK256 SWAP1 PUSH1 0x3 MUL ADD PUSH1 0x40 MLOAD DUP1 PUSH1 0x60 ADD PUSH1 0x40 MSTORE SWAP1 DUP2 PUSH0 DUP3 ADD DUP1 SLOAD PUSH2 0x2B1 SWAP1 PUSH2 0xCF0 JUMP JUMPDEST DUP1 PUSH1 0x1F ADD PUSH1 0x20 DUP1 SWAP2 DIV MUL PUSH1 0x20 ADD PUSH1 0x40 MLOAD SWAP1 DUP2 ADD PUSH1 0x40 MSTORE DUP1 SWAP3 SWAP2 SWAP1 DUP2 DUP2 MSTORE PUSH1 0x20 ADD DUP3 DUP1 SLOAD PUSH2 0x2DD SWAP1 PUSH2 0xCF0 JUMP JUMPDEST DUP1 ISZERO PUSH2 0x328 JUMPI DUP1 PUSH1 0x1F LT PUSH2 0x2FF JUMPI PUSH2 0x100 DUP1 DUP4 SLOAD DIV MUL DUP4 MSTORE SWAP2 PUSH1 0x20 ADD SWAP2 PUSH2 0x328 JUMP JUMPDEST DUP3 ADD SWAP2 SWAP1 PUSH0 MSTORE PUSH1 0x20 PUSH0 KECCAK256 SWAP1 JUMPDEST DUP2 SLOAD DUP2 MSTORE SWAP1 PUSH1 0x1 ADD SWAP1 PUSH1 0x20 ADD DUP1 DUP4 GT PUSH2 0x30B JUMPI DUP3 SWAP1 SUB PUSH1 0x1F AND DUP3 ADD SWAP2 JUMPDEST POP POP POP POP POP DUP2 MSTORE PUSH1 0x20 ADD PUSH1 0x1 DUP3 ADD DUP1 SLOAD PUSH2 0x341 SWAP1 PUSH2 0xCF0 JUMP JUMPDEST DUP1 PUSH1 0x1F ADD PUSH1 0x20 DUP1 SWAP2 DIV MUL PUSH1 0x20 ADD PUSH1 0x40 MLOAD SWAP1 DUP2 ADD PUSH1 0x40 MSTORE DUP1 SWAP3 SWAP2 SWAP1 DUP2 DUP2 MSTORE PUSH1 0x20 ADD DUP3 DUP1 SLOAD PUSH2 0x36D SWAP1 PUSH2 0xCF0 JUMP JUMPDEST DUP1 ISZERO PUSH2 0x3B8 JUMPI DUP1 PUSH1 0x1F LT PUSH2 0x38F JUMPI PUSH2 0x100 DUP1 DUP4 SLOAD DIV MUL DUP4 MSTORE SWAP2 PUSH1 0x20 ADD SWAP2 PUSH2 0x3B8 JUMP JUMPDEST DUP3 ADD SWAP2 SWAP1 PUSH0 MSTORE PUSH1 0x20 PUSH0 KECCAK256 SWAP1 JUMPDEST DUP2 SLOAD DUP2 MSTORE SWAP1 PUSH1 0x1 ADD SWAP1 PUSH1 0x20 ADD DUP1 DUP4 GT PUSH2 0x39B JUMPI DUP3 SWAP1 SUB PUSH1 0x1F AND DUP3 ADD SWAP2 JUMPDEST POP POP POP POP POP DUP2 MSTORE PUSH1 0x20 ADD PUSH1 0x2 DUP3 ADD SLOAD DUP2 MSTORE POP POP SWAP1 POP SWAP2 SWAP1 POP JUMP JUMPDEST PUSH0 DUP3 MLOAD GT PUSH2 0x415 JUMPI PUSH1 0x40 MLOAD PUSH32 0x8C379A000000000000000000000000000000000000000000000000000000000 DUP2 MSTORE PUSH1 0x4 ADD PUSH2 0x40C SWAP1 PUSH2 0xDFF JUMP JUMPDEST PUSH1 0x40 MLOAD DUP1 SWAP2 SUB SWAP1 REVERT JUMPDEST PUSH1 0x20 DUP2 MLOAD EQ PUSH2 0x459 JUMPI PUSH1 0x40 MLOAD PUSH32 0x8C379A000000000000000000000000000000000000000000000000000000000 DUP2 MSTORE PUSH1 0x4 ADD PUSH2 0x450 SWAP1 PUSH2 0xE67 JUMP JUMPDEST PUSH1 0x40 MLOAD DUP1 SWAP2 SUB SWAP1 REVERT JUMPDEST PUSH0 DUP1 DUP1 SLOAD SWAP1 POP SWAP1 POP PUSH0 PUSH1 0x40 MLOAD DUP1 PUSH1 0x60 ADD PUSH1 0x40 MSTORE DUP1 DUP6 DUP2 MSTORE PUSH1 0x20 ADD DUP5 DUP2 MSTORE PUSH1 0x20 ADD TIMESTAMP DUP2 MSTORE POP SWAP1 DUP1 PUSH1 0x1 DUP2 SLOAD ADD DUP1 DUP3 SSTORE DUP1 SWAP2 POP POP PUSH1 0x1 SWAP1 SUB SWAP1 PUSH0 MSTORE PUSH1 0x20 PUSH0 KECCAK256 SWAP1 PUSH1 0x3 MUL ADD PUSH0 SWAP1 SWAP2 SWAP1 SWAP2 SWAP1 SWAP2 POP PUSH0 DUP3 ADD MLOAD DUP2 PUSH0 ADD SWAP1 DUP2 PUSH2 0x4B6 SWAP2 SWAP1 PUSH2 0x1022 JUMP JUMPDEST POP PUSH1 0x20 DUP3 ADD MLOAD DUP2 PUSH1 0x1 ADD SWAP1 DUP2 PUSH2 0x4CC SWAP2 SWAP1 PUSH2 0x1149 JUMP JUMPDEST POP PUSH1 0x40 DUP3 ADD MLOAD DUP2 PUSH1 0x2 ADD SSTORE POP POP DUP1 PUSH32 0x69603B7380CDBDD9614011D9148B6413D333A686DC8AD33304D95E2DDC3F5B57 DUP5 DUP5 TIMESTAMP PUSH1 0x40 MLOAD PUSH2 0x50D SWAP4 SWAP3 SWAP2 SWAP1 PUSH2 0x7FE JUMP JUMPDEST PUSH1 0x40 MLOAD DUP1 SWAP2 SUB SWAP1 LOG2 POP POP POP JUMP JUMPDEST PUSH1 0x60 PUSH0 DUP1 SLOAD DUP1 PUSH1 0x20 MUL PUSH1 0x20 ADD PUSH1 0x40 MLOAD SWAP1 DUP2 ADD PUSH1 0x40 MSTORE DUP1 SWAP3 SWAP2 SWAP1 DUP2 DUP2 MSTORE PUSH1 0x20 ADD PUSH0 SWAP1 JUMPDEST DUP3 DUP3 LT ISZERO PUSH2 0x695 JUMPI DUP4 DUP3 SWAP1 PUSH0 MSTORE PUSH1 0x20 PUSH0 KECCAK256 SWAP1 PUSH1 0x3 MUL ADD PUSH1 0x40 MLOAD DUP1 PUSH1 0x60 ADD PUSH1 0x40 MSTORE SWAP1 DUP2 PUSH0 DUP3 ADD DUP1 SLOAD PUSH2 0x56C SWAP1 PUSH2 0xCF0 JUMP JUMPDEST DUP1 PUSH1 0x1F ADD PUSH1 0x20 DUP1 SWAP2 DIV MUL PUSH1 0x20 ADD PUSH1 0x40 MLOAD SWAP1 DUP2 ADD PUSH1 0x40 MSTORE DUP1 SWAP3 SWAP2 SWAP1 DUP2 DUP2 MSTORE PUSH1 0x20 ADD DUP3 DUP1 SLOAD PUSH2 0x598 SWAP1 PUSH2 0xCF0 JUMP JUMPDEST DUP1 ISZERO PUSH2 0x5E3 JUMPI DUP1 PUSH1 0x1F LT PUSH2 0x5BA JUMPI PUSH2 0x100 DUP1 DUP4 SLOAD DIV MUL DUP4 MSTORE SWAP2 PUSH1 0x20 ADD SWAP2 PUSH2 0x5E3 JUMP JUMPDEST DUP3 ADD SWAP2 SWAP1 PUSH0 MSTORE PUSH1 0x20 PUSH0 KECCAK256 SWAP1 JUMPDEST DUP2 SLOAD DUP2 MSTORE SWAP1 PUSH1 0x1 ADD SWAP1 PUSH1 0x20 ADD DUP1 DUP4 GT PUSH2 0x5C6 JUMPI DUP3 SWAP1 SUB PUSH1 0x1F AND DUP3 ADD SWAP2 JUMPDEST POP POP POP POP POP DUP2 MSTORE PUSH1 0x20 ADD PUSH1 0x1 DUP3 ADD DUP1 SLOAD PUSH2 0x5FC SWAP1 PUSH2 0xCF0 JUMP JUMPDEST DUP1 PUSH1 0x1F ADD PUSH1 0x20 DUP1 SWAP2 DIV MUL PUSH1 0x20 ADD PUSH1 0x40 MLOAD SWAP1 DUP2 ADD PUSH1 0x40 MSTORE DUP1 SWAP3 SWAP2 SWAP1 DUP2 DUP2 MSTORE PUSH1 0x20 ADD DUP3 DUP1 SLOAD PUSH2 0x628 SWAP1 PUSH2 0xCF0 JUMP JUMPDEST DUP1 ISZERO PUSH2 0x673 JUMPI DUP1 PUSH1 0x1F LT PUSH2 0x64A JUMPI PUSH2 0x100 DUP1 DUP4 SLOAD DIV MUL DUP4 MSTORE SWAP2 PUSH1 0x20 ADD SWAP2 PUSH2 0x673 JUMP JUMPDEST DUP3 ADD SWAP2 SWAP1 PUSH0 MSTORE PUSH1 0x20 PUSH0 KECCAK256 SWAP1 JUMPDEST DUP2 SLOAD DUP2 MSTORE SWAP1 PUSH1 0x1 ADD SWAP1 PUSH1 0x20 ADD DUP1 DUP4 GT PUSH2 0x656 JUMPI DUP3 SWAP1 SUB PUSH1 0x1F AND DUP3 ADD SWAP2 JUMPDEST POP POP POP POP POP DUP2 MSTORE PUSH1 0x20 ADD PUSH1 0x2 DUP3 ADD SLOAD DUP2 MSTORE POP POP DUP2 MSTORE PUSH1 0x20 ADD SWAP1 PUSH1 0x1 ADD SWAP1 PUSH2 0x53C JUMP JUMPDEST POP POP POP POP SWAP1 POP SWAP1 JUMP JUMPDEST PUSH1 0x40 MLOAD DUP1 PUSH1 0x60 ADD PUSH1 0x40 MSTORE DUP1 PUSH1 0x60 DUP2 MSTORE PUSH1 0x20 ADD PUSH1 0x60 DUP2 MSTORE PUSH1 0x20 ADD PUSH0 DUP2 MSTORE POP SWAP1 JUMP JUMPDEST PUSH0 PUSH1 0x40 MLOAD SWAP1 POP SWAP1 JUMP JUMPDEST PUSH0 DUP1 REVERT JUMPDEST PUSH0 DUP1 REVERT JUMPDEST PUSH0 DUP2 SWAP1 POP SWAP2 SWAP1 POP JUMP JUMPDEST PUSH2 0x6E1 DUP2 PUSH2 0x6CF JUMP JUMPDEST DUP2 EQ PUSH2 0x6EB JUMPI PUSH0 DUP1 REVERT JUMPDEST POP JUMP JUMPDEST PUSH0 DUP2 CALLDATALOAD SWAP1 POP PUSH2 0x6FC DUP2 PUSH2 0x6D8 JUMP JUMPDEST SWAP3 SWAP2 POP POP JUMP JUMPDEST PUSH0 PUSH1 0x20 DUP3 DUP5 SUB SLT ISZERO PUSH2 0x717 JUMPI PUSH2 0x716 PUSH2 0x6C7 JUMP JUMPDEST JUMPDEST PUSH0 PUSH2 0x724 DUP5 DUP3 DUP6 ADD PUSH2 0x6EE JUMP JUMPDEST SWAP2 POP POP SWAP3 SWAP2 POP POP JUMP JUMPDEST PUSH0 DUP2 MLOAD SWAP1 POP SWAP2 SWAP1 POP JUMP JUMPDEST PUSH0 DUP3 DUP3 MSTORE PUSH1 0x20 DUP3 ADD SWAP1 POP SWAP3 SWAP2 POP POP JUMP JUMPDEST DUP3 DUP2 DUP4 MCOPY PUSH0 DUP4 DUP4 ADD MSTORE POP POP POP JUMP JUMPDEST PUSH0 PUSH1 0x1F NOT PUSH1 0x1F DUP4 ADD AND SWAP1 POP SWAP2 SWAP1 POP JUMP JUMPDEST PUSH0 PUSH2 0x76F DUP3 PUSH2 0x72D JUMP JUMPDEST PUSH2 0x779 DUP2 DUP6 PUSH2 0x737 JUMP JUMPDEST SWAP4 POP PUSH2 0x789 DUP2 DUP6 PUSH1 0x20 DUP7 ADD PUSH2 0x747 JUMP JUMPDEST PUSH2 0x792 DUP2 PUSH2 0x755 JUMP JUMPDEST DUP5 ADD SWAP2 POP POP SWAP3 SWAP2 POP POP JUMP JUMPDEST PUSH0 DUP2 MLOAD SWAP1 POP SWAP2 SWAP1 POP JUMP JUMPDEST PUSH0 DUP3 DUP3 MSTORE PUSH1 0x20 DUP3 ADD SWAP1 POP SWAP3 SWAP2 POP POP JUMP JUMPDEST PUSH0 PUSH2 0x7C1 DUP3 PUSH2 0x79D JUMP JUMPDEST PUSH2 0x7CB DUP2 DUP6 PUSH2 0x7A7 JUMP JUMPDEST SWAP4 POP PUSH2 0x7DB DUP2 DUP6 PUSH1 0x20 DUP7 ADD PUSH2 0x747 JUMP JUMPDEST PUSH2 0x7E4 DUP2 PUSH2 0x755 JUMP JUMPDEST DUP5 ADD SWAP2 POP POP SWAP3 SWAP2 POP POP JUMP JUMPDEST PUSH2 0x7F8 DUP2 PUSH2 0x6CF JUMP JUMPDEST DUP3 MSTORE POP POP JUMP JUMPDEST PUSH0 PUSH1 0x60 DUP3 ADD SWAP1 POP DUP2 DUP2 SUB PUSH0 DUP4 ADD MSTORE PUSH2 0x816 DUP2 DUP7 PUSH2 0x765 JUMP JUMPDEST SWAP1 POP DUP2 DUP2 SUB PUSH1 0x20 DUP4 ADD MSTORE PUSH2 0x82A DUP2 DUP6 PUSH2 0x7B7 JUMP JUMPDEST SWAP1 POP PUSH2 0x839 PUSH1 0x40 DUP4 ADD DUP5 PUSH2 0x7EF JUMP JUMPDEST SWAP5 SWAP4 POP POP POP POP JUMP JUMPDEST PUSH0 DUP3 DUP3 MSTORE PUSH1 0x20 DUP3 ADD SWAP1 POP SWAP3 SWAP2 POP POP JUMP JUMPDEST PUSH0 PUSH2 0x85B DUP3 PUSH2 0x72D JUMP JUMPDEST PUSH2 0x865 DUP2 DUP6 PUSH2 0x841 JUMP JUMPDEST SWAP4 POP PUSH2 0x875 DUP2 DUP6 PUSH1 0x20 DUP7 ADD PUSH2 0x747 JUMP JUMPDEST PUSH2 0x87E DUP2 PUSH2 0x755 JUMP JUMPDEST DUP5 ADD SWAP2 POP POP SWAP3 SWAP2 POP POP JUMP JUMPDEST PUSH0 DUP3 DUP3 MSTORE PUSH1 0x20 DUP3 ADD SWAP1 POP SWAP3 SWAP2 POP POP JUMP JUMPDEST PUSH0 PUSH2 0x8A3 DUP3 PUSH2 0x79D JUMP JUMPDEST PUSH2 0x8AD DUP2 DUP6 PUSH2 0x889 JUMP JUMPDEST SWAP4 POP PUSH2 0x8BD DUP2 DUP6 PUSH1 0x20 DUP7 ADD PUSH2 0x747 JUMP JUMPDEST PUSH2 0x8C6 DUP2 PUSH2 0x755 JUMP JUMPDEST DUP5 ADD SWAP2 POP POP SWAP3 SWAP2 POP POP JUMP JUMPDEST PUSH2 0x8DA DUP2 PUSH2 0x6CF JUMP JUMPDEST DUP3 MSTORE POP POP JUMP JUMPDEST PUSH0 PUSH1 0x60 DUP4 ADD PUSH0 DUP4 ADD MLOAD DUP5 DUP3 SUB PUSH0 DUP7 ADD MSTORE PUSH2 0x8FA DUP3 DUP3 PUSH2 0x851 JUMP JUMPDEST SWAP2 POP POP PUSH1 0x20 DUP4 ADD MLOAD DUP5 DUP3 SUB PUSH1 0x20 DUP7 ADD MSTORE PUSH2 0x914 DUP3 DUP3 PUSH2 0x899 JUMP JUMPDEST SWAP2 POP POP PUSH1 0x40 DUP4 ADD MLOAD PUSH2 0x929 PUSH1 0x40 DUP7 ADD DUP3 PUSH2 0x8D1 JUMP JUMPDEST POP DUP1 SWAP2 POP POP SWAP3 SWAP2 POP POP JUMP JUMPDEST PUSH0 PUSH1 0x20 DUP3 ADD SWAP1 POP DUP2 DUP2 SUB PUSH0 DUP4 ADD MSTORE PUSH2 0x94C DUP2 DUP5 PUSH2 0x8E0 JUMP JUMPDEST SWAP1 POP SWAP3 SWAP2 POP POP JUMP JUMPDEST PUSH0 DUP1 REVERT JUMPDEST PUSH0 DUP1 REVERT JUMPDEST PUSH32 0x4E487B7100000000000000000000000000000000000000000000000000000000 PUSH0 MSTORE PUSH1 0x41 PUSH1 0x4 MSTORE PUSH1 0x24 PUSH0 REVERT JUMPDEST PUSH2 0x992 DUP3 PUSH2 0x755 JUMP JUMPDEST DUP2 ADD DUP2 DUP2 LT PUSH8 0xFFFFFFFFFFFFFFFF DUP3 GT OR ISZERO PUSH2 0x9B1 JUMPI PUSH2 0x9B0 PUSH2 0x95C JUMP JUMPDEST JUMPDEST DUP1 PUSH1 0x40 MSTORE POP POP POP JUMP JUMPDEST PUSH0 PUSH2 0x9C3 PUSH2 0x6BE JUMP JUMPDEST SWAP1 POP PUSH2 0x9CF DUP3 DUP3 PUSH2 0x989 JUMP JUMPDEST SWAP2 SWAP1 POP JUMP JUMPDEST PUSH0 PUSH8 0xFFFFFFFFFFFFFFFF DUP3 GT ISZERO PUSH2 0x9EE JUMPI PUSH2 0x9ED PUSH2 0x95C JUMP JUMPDEST JUMPDEST PUSH2 0x9F7 DUP3 PUSH2 0x755 JUMP JUMPDEST SWAP1 POP PUSH1 0x20 DUP2 ADD SWAP1 POP SWAP2 SWAP1 POP JUMP JUMPDEST DUP3 DUP2 DUP4 CALLDATACOPY PUSH0 DUP4 DUP4 ADD MSTORE POP POP POP JUMP JUMPDEST PUSH0 PUSH2 0xA24 PUSH2 0xA1F DUP5 PUSH2 0x9D4 JUMP JUMPDEST PUSH2 0x9BA JUMP JUMPDEST SWAP1 POP DUP3 DUP2 MSTORE PUSH1 0x20 DUP2 ADD DUP5 DUP5 DUP5 ADD GT ISZERO PUSH2 0xA40 JUMPI PUSH2 0xA3F PUSH2 0x958 JUMP JUMPDEST JUMPDEST PUSH2 0xA4B DUP5 DUP3 DUP6 PUSH2 0xA04 JUMP JUMPDEST POP SWAP4 SWAP3 POP POP POP JUMP JUMPDEST PUSH0 DUP3 PUSH1 0x1F DUP4 ADD SLT PUSH2 0xA67 JUMPI PUSH2 0xA66 PUSH2 0x954 JUMP JUMPDEST JUMPDEST DUP2 CALLDATALOAD PUSH2 0xA77 DUP5 DUP3 PUSH1 0x20 DUP7 ADD PUSH2 0xA12 JUMP JUMPDEST SWAP2 POP POP SWAP3 SWAP2 POP POP JUMP JUMPDEST PUSH0 PUSH8 0xFFFFFFFFFFFFFFFF DUP3 GT ISZERO PUSH2 0xA9A JUMPI PUSH2 0xA99 PUSH2 0x95C JUMP JUMPDEST JUMPDEST PUSH2 0xAA3 DUP3 PUSH2 0x755 JUMP JUMPDEST SWAP1 POP PUSH1 0x20 DUP2 ADD SWAP1 POP SWAP2 SWAP1 POP JUMP JUMPDEST PUSH0 PUSH2 0xAC2 PUSH2 0xABD DUP5 PUSH2 0xA80 JUMP JUMPDEST PUSH2 0x9BA JUMP JUMPDEST SWAP1 POP DUP3 DUP2 MSTORE PUSH1 0x20 DUP2 ADD DUP5 DUP5 DUP5 ADD GT ISZERO PUSH2 0xADE JUMPI PUSH2 0xADD PUSH2 0x958 JUMP JUMPDEST JUMPDEST PUSH2 0xAE9 DUP5 DUP3 DUP6 PUSH2 0xA04 JUMP JUMPDEST POP SWAP4 SWAP3 POP POP POP JUMP JUMPDEST PUSH0 DUP3 PUSH1 0x1F DUP4 ADD SLT PUSH2 0xB05 JUMPI PUSH2 0xB04 PUSH2 0x954 JUMP JUMPDEST JUMPDEST DUP2 CALLDATALOAD PUSH2 0xB15 DUP5 DUP3 PUSH1 0x20 DUP7 ADD PUSH2 0xAB0 JUMP JUMPDEST SWAP2 POP POP SWAP3 SWAP2 POP POP JUMP JUMPDEST PUSH0 DUP1 PUSH1 0x40 DUP4 DUP6 SUB SLT ISZERO PUSH2 0xB34 JUMPI PUSH2 0xB33 PUSH2 0x6C7 JUMP JUMPDEST JUMPDEST PUSH0 DUP4 ADD CALLDATALOAD PUSH8 0xFFFFFFFFFFFFFFFF DUP2 GT ISZERO PUSH2 0xB51 JUMPI PUSH2 0xB50 PUSH2 0x6CB JUMP JUMPDEST JUMPDEST PUSH2 0xB5D DUP6 DUP3 DUP7 ADD PUSH2 0xA53 JUMP JUMPDEST SWAP3 POP POP PUSH1 0x20 DUP4 ADD CALLDATALOAD PUSH8 0xFFFFFFFFFFFFFFFF DUP2 GT ISZERO PUSH2 0xB7E JUMPI PUSH2 0xB7D PUSH2 0x6CB JUMP JUMPDEST JUMPDEST PUSH2 0xB8A DUP6 DUP3 DUP7 ADD PUSH2 0xAF1 JUMP JUMPDEST SWAP2 POP POP SWAP3 POP SWAP3 SWAP1 POP JUMP JUMPDEST PUSH0 DUP2 MLOAD SWAP1 POP SWAP2 SWAP1 POP JUMP JUMPDEST PUSH0 DUP3 DUP3 MSTORE PUSH1 0x20 DUP3 ADD SWAP1 POP SWAP3 SWAP2 POP POP JUMP JUMPDEST PUSH0 DUP2 SWAP1 POP PUSH1 0x20 DUP3 ADD SWAP1 POP SWAP2 SWAP1 POP JUMP JUMPDEST PUSH0 PUSH1 0x60 DUP4 ADD PUSH0 DUP4 ADD MLOAD DUP5 DUP3 SUB PUSH0 DUP7 ADD MSTORE PUSH2 0xBD7 DUP3 DUP3 PUSH2 0x851 JUMP JUMPDEST SWAP2 POP POP PUSH1 0x20 DUP4 ADD MLOAD DUP5 DUP3 SUB PUSH1 0x20 DUP7 ADD MSTORE PUSH2 0xBF1 DUP3 DUP3 PUSH2 0x899 JUMP JUMPDEST SWAP2 POP POP PUSH1 0x40 DUP4 ADD MLOAD PUSH2 0xC06 PUSH1 0x40 DUP7 ADD DUP3 PUSH2 0x8D1 JUMP JUMPDEST POP DUP1 SWAP2 POP POP SWAP3 SWAP2 POP POP JUMP JUMPDEST PUSH0 PUSH2 0xC1C DUP4 DUP4 PUSH2 0xBBD JUMP JUMPDEST SWAP1 POP SWAP3 SWAP2 POP POP JUMP JUMPDEST PUSH0 PUSH1 0x20 DUP3 ADD SWAP1 POP SWAP2 SWAP1 POP JUMP JUMPDEST PUSH0 PUSH2 0xC3A DUP3 PUSH2 0xB94 JUMP JUMPDEST PUSH2 0xC44 DUP2 DUP6 PUSH2 0xB9E JUMP JUMPDEST SWAP4 POP DUP4 PUSH1 0x20 DUP3 MUL DUP6 ADD PUSH2 0xC56 DUP6 PUSH2 0xBAE JUMP JUMPDEST DUP1 PUSH0 JUMPDEST DUP6 DUP2 LT ISZERO PUSH2 0xC91 JUMPI DUP5 DUP5 SUB DUP10 MSTORE DUP2 MLOAD PUSH2 0xC72 DUP6 DUP3 PUSH2 0xC11 JUMP JUMPDEST SWAP5 POP PUSH2 0xC7D DUP4 PUSH2 0xC24 JUMP JUMPDEST SWAP3 POP PUSH1 0x20 DUP11 ADD SWAP10 POP POP PUSH1 0x1 DUP2 ADD SWAP1 POP PUSH2 0xC59 JUMP JUMPDEST POP DUP3 SWAP8 POP DUP8 SWAP6 POP POP POP POP POP POP SWAP3 SWAP2 POP POP JUMP JUMPDEST PUSH0 PUSH1 0x20 DUP3 ADD SWAP1 POP DUP2 DUP2 SUB PUSH0 DUP4 ADD MSTORE PUSH2 0xCBB DUP2 DUP5 PUSH2 0xC30 JUMP JUMPDEST SWAP1 POP SWAP3 SWAP2 POP POP JUMP JUMPDEST PUSH32 0x4E487B7100000000000000000000000000000000000000000000000000000000 PUSH0 MSTORE PUSH1 0x22 PUSH1 0x4 MSTORE PUSH1 0x24 PUSH0 REVERT JUMPDEST PUSH0 PUSH1 0x2 DUP3 DIV SWAP1 POP PUSH1 0x1 DUP3 AND DUP1 PUSH2 0xD07 JUMPI PUSH1 0x7F DUP3 AND SWAP2 POP JUMPDEST PUSH1 0x20 DUP3 LT DUP2 SUB PUSH2 0xD1A JUMPI PUSH2 0xD19 PUSH2 0xCC3 JUMP JUMPDEST JUMPDEST POP SWAP2 SWAP1 POP JUMP JUMPDEST PUSH32 0x536F756C626F756E6420646F6573206E6F742065786973742E00000000000000 PUSH0 DUP3 ADD MSTORE POP JUMP JUMPDEST PUSH0 PUSH2 0xD54 PUSH1 0x19 DUP4 PUSH2 0x737 JUMP JUMPDEST SWAP2 POP PUSH2 0xD5F DUP3 PUSH2 0xD20 JUMP JUMPDEST PUSH1 0x20 DUP3 ADD SWAP1 POP SWAP2 SWAP1 POP JUMP JUMPDEST PUSH0 PUSH1 0x20 DUP3 ADD SWAP1 POP DUP2 DUP2 SUB PUSH0 DUP4 ADD MSTORE PUSH2 0xD81 DUP2 PUSH2 0xD48 JUMP JUMPDEST SWAP1 POP SWAP2 SWAP1 POP JUMP JUMPDEST PUSH32 0x4E487B7100000000000000000000000000000000000000000000000000000000 PUSH0 MSTORE PUSH1 0x32 PUSH1 0x4 MSTORE PUSH1 0x24 PUSH0 REVERT JUMPDEST PUSH32 0x50726F6A6563742049442069732072657175697265642E000000000000000000 PUSH0 DUP3 ADD MSTORE POP JUMP JUMPDEST PUSH0 PUSH2 0xDE9 PUSH1 0x17 DUP4 PUSH2 0x737 JUMP JUMPDEST SWAP2 POP PUSH2 0xDF4 DUP3 PUSH2 0xDB5 JUMP JUMPDEST PUSH1 0x20 DUP3 ADD SWAP1 POP SWAP2 SWAP1 POP JUMP JUMPDEST PUSH0 PUSH1 0x20 DUP3 ADD SWAP1 POP DUP2 DUP2 SUB PUSH0 DUP4 ADD MSTORE PUSH2 0xE16 DUP2 PUSH2 0xDDD JUMP JUMPDEST SWAP1 POP SWAP2 SWAP1 POP JUMP JUMPDEST PUSH32 0x536F756C626F756E642068617368206D7573742062652033322062797465732E PUSH0 DUP3 ADD MSTORE POP JUMP JUMPDEST PUSH0 PUSH2 0xE51 PUSH1 0x20 DUP4 PUSH2 0x737 JUMP JUMPDEST SWAP2 POP PUSH2 0xE5C DUP3 PUSH2 0xE1D JUMP JUMPDEST PUSH1 0x20 DUP3 ADD SWAP1 POP SWAP2 SWAP1 POP JUMP JUMPDEST PUSH0 PUSH1 0x20 DUP3 ADD SWAP1 POP DUP2 DUP2 SUB PUSH0 DUP4 ADD MSTORE PUSH2 0xE7E DUP2 PUSH2 0xE45 JUMP JUMPDEST SWAP1 POP SWAP2 SWAP1 POP JUMP JUMPDEST PUSH0 DUP2 SWAP1 POP DUP2 PUSH0 MSTORE PUSH1 0x20 PUSH0 KECCAK256 SWAP1 POP SWAP2 SWAP1 POP JUMP JUMPDEST PUSH0 PUSH1 0x20 PUSH1 0x1F DUP4 ADD DIV SWAP1 POP SWAP2 SWAP1 POP JUMP JUMPDEST PUSH0 DUP3 DUP3 SHL SWAP1 POP SWAP3 SWAP2 POP POP JUMP JUMPDEST PUSH0 PUSH1 0x8 DUP4 MUL PUSH2 0xEE1 PUSH32 0xFFFFFFFFFFFFFFFFFFFFFFFFFFFFFFFFFFFFFFFFFFFFFFFFFFFFFFFFFFFFFFFF DUP3 PUSH2 0xEA6 JUMP JUMPDEST PUSH2 0xEEB DUP7 DUP4 PUSH2 0xEA6 JUMP JUMPDEST SWAP6 POP DUP1 NOT DUP5 AND SWAP4 POP DUP1 DUP7 AND DUP5 OR SWAP3 POP POP POP SWAP4 SWAP3 POP POP POP JUMP JUMPDEST PUSH0 DUP2 SWAP1 POP SWAP2 SWAP1 POP JUMP JUMPDEST PUSH0 PUSH2 0xF26 PUSH2 0xF21 PUSH2 0xF1C DUP5 PUSH2 0x6CF JUMP JUMPDEST PUSH2 0xF03 JUMP JUMPDEST PUSH2 0x6CF JUMP JUMPDEST SWAP1 POP SWAP2 SWAP1 POP JUMP JUMPDEST PUSH0 DUP2 SWAP1 POP SWAP2 SWAP1 POP JUMP JUMPDEST PUSH2 0xF3F DUP4 PUSH2 0xF0C JUMP JUMPDEST PUSH2 0xF53 PUSH2 0xF4B DUP3 PUSH2 0xF2D JUMP JUMPDEST DUP5 DUP5 SLOAD PUSH2 0xEB2 JUMP JUMPDEST DUP3 SSTORE POP POP POP POP JUMP JUMPDEST PUSH0 SWAP1 JUMP JUMPDEST PUSH2 0xF67 PUSH2 0xF5B JUMP JUMPDEST PUSH2 0xF72 DUP2 DUP5 DUP5 PUSH2 0xF36 JUMP JUMPDEST POP POP POP JUMP JUMPDEST JUMPDEST DUP2 DUP2 LT ISZERO PUSH2 0xF95 JUMPI PUSH2 0xF8A PUSH0 DUP3 PUSH2 0xF5F JUMP JUMPDEST PUSH1 0x1 DUP2 ADD SWAP1 POP PUSH2 0xF78 JUMP JUMPDEST POP POP JUMP JUMPDEST PUSH1 0x1F DUP3 GT ISZERO PUSH2 0xFDA JUMPI PUSH2 0xFAB DUP2 PUSH2 0xE85 JUMP JUMPDEST PUSH2 0xFB4 DUP5 PUSH2 0xE97 JUMP JUMPDEST DUP2 ADD PUSH1 0x20 DUP6 LT ISZERO PUSH2 0xFC3 JUMPI DUP2 SWAP1 POP JUMPDEST PUSH2 0xFD7 PUSH2 0xFCF DUP6 PUSH2 0xE97 JUMP JUMPDEST DUP4 ADD DUP3 PUSH2 0xF77 JUMP JUMPDEST POP POP JUMPDEST POP POP POP JUMP JUMPDEST PUSH0 DUP3 DUP3 SHR SWAP1 POP SWAP3 SWAP2 POP POP JUMP JUMPDEST PUSH0 PUSH2 0xFFA PUSH0 NOT DUP5 PUSH1 0x8 MUL PUSH2 0xFDF JUMP JUMPDEST NOT DUP1 DUP4 AND SWAP2 POP POP SWAP3 SWAP2 POP POP JUMP JUMPDEST PUSH0 PUSH2 0x1012 DUP4 DUP4 PUSH2 0xFEB JUMP JUMPDEST SWAP2 POP DUP3 PUSH1 0x2 MUL DUP3 OR SWAP1 POP SWAP3 SWAP2 POP POP JUMP JUMPDEST PUSH2 0x102B DUP3 PUSH2 0x72D JUMP JUMPDEST PUSH8 0xFFFFFFFFFFFFFFFF DUP2 GT ISZERO PUSH2 0x1044 JUMPI PUSH2 0x1043 PUSH2 0x95C JUMP JUMPDEST JUMPDEST PUSH2 0x104E DUP3 SLOAD PUSH2 0xCF0 JUMP JUMPDEST PUSH2 0x1059 DUP3 DUP3 DUP6 PUSH2 0xF99 JUMP JUMPDEST PUSH0 PUSH1 0x20 SWAP1 POP PUSH1 0x1F DUP4 GT PUSH1 0x1 DUP2 EQ PUSH2 0x108A JUMPI PUSH0 DUP5 ISZERO PUSH2 0x1078 JUMPI DUP3 DUP8 ADD MLOAD SWAP1 POP JUMPDEST PUSH2 0x1082 DUP6 DUP3 PUSH2 0x1007 JUMP JUMPDEST DUP7 SSTORE POP PUSH2 0x10E9 JUMP JUMPDEST PUSH1 0x1F NOT DUP5 AND PUSH2 0x1098 DUP7 PUSH2 0xE85 JUMP JUMPDEST PUSH0 JUMPDEST DUP3 DUP2 LT ISZERO PUSH2 0x10BF JUMPI DUP5 DUP10 ADD MLOAD DUP3 SSTORE PUSH1 0x1 DUP3 ADD SWAP2 POP PUSH1 0x20 DUP6 ADD SWAP5 POP PUSH1 0x20 DUP2 ADD SWAP1 POP PUSH2 0x109A JUMP JUMPDEST DUP7 DUP4 LT ISZERO PUSH2 0x10DC JUMPI DUP5 DUP10 ADD MLOAD PUSH2 0x10D8 PUSH1 0x1F DUP10 AND DUP3 PUSH2 0xFEB JUMP JUMPDEST DUP4 SSTORE POP JUMPDEST PUSH1 0x1 PUSH1 0x2 DUP9 MUL ADD DUP9 SSTORE POP POP POP JUMPDEST POP POP POP POP POP POP JUMP JUMPDEST PUSH0 DUP2 SWAP1 POP DUP2 PUSH0 MSTORE PUSH1 0x20 PUSH0 KECCAK256 SWAP1 POP SWAP2 SWAP1 POP JUMP JUMPDEST PUSH1 0x1F DUP3 GT ISZERO PUSH2 0x1144 JUMPI PUSH2 0x1115 DUP2 PUSH2 0x10F1 JUMP JUMPDEST PUSH2 0x111E DUP5 PUSH2 0xE97 JUMP JUMPDEST DUP2 ADD PUSH1 0x20 DUP6 LT ISZERO PUSH2 0x112D JUMPI DUP2 SWAP1 POP JUMPDEST PUSH2 0x1141 PUSH2 0x1139 DUP6 PUSH2 0xE97 JUMP JUMPDEST DUP4 ADD DUP3 PUSH2 0xF77 JUMP JUMPDEST POP POP JUMPDEST POP POP POP JUMP JUMPDEST PUSH2 0x1152 DUP3 PUSH2 0x79D JUMP JUMPDEST PUSH8 0xFFFFFFFFFFFFFFFF DUP2 GT ISZERO PUSH2 0x116B JUMPI PUSH2 0x116A PUSH2 0x95C JUMP JUMPDEST JUMPDEST PUSH2 0x1175 DUP3 SLOAD PUSH2 0xCF0 JUMP JUMPDEST PUSH2 0x1180 DUP3 DUP3 DUP6 PUSH2 0x1103 JUMP JUMPDEST PUSH0 PUSH1 0x20 SWAP1 POP PUSH1 0x1F DUP4 GT PUSH1 0x1 DUP2 EQ PUSH2 0x11B1 JUMPI PUSH0 DUP5 ISZERO PUSH2 0x119F JUMPI DUP3 DUP8 ADD MLOAD SWAP1 POP JUMPDEST PUSH2 0x11A9 DUP6 DUP3 PUSH2 0x1007 JUMP JUMPDEST DUP7 SSTORE POP PUSH2 0x1210 JUMP JUMPDEST PUSH1 0x1F NOT DUP5 AND PUSH2 0x11BF DUP7 PUSH2 0x10F1 JUMP JUMPDEST PUSH0 JUMPDEST DUP3 DUP2 LT ISZERO PUSH2 0x11E6 JUMPI DUP5 DUP10 ADD MLOAD DUP3 SSTORE PUSH1 0x1 DUP3 ADD SWAP2 POP PUSH1 0x20 DUP6 ADD SWAP5 POP PUSH1 0x20 DUP2 ADD SWAP1 POP PUSH2 0x11C1 JUMP JUMPDEST DUP7 DUP4 LT ISZERO PUSH2 0x1203 JUMPI DUP5 DUP10 ADD MLOAD PUSH2 0x11FF PUSH1 0x1F DUP10 AND DUP3 PUSH2 0xFEB JUMP JUMPDEST DUP4 SSTORE POP JUMPDEST PUSH1 0x1 PUSH1 0x2 DUP9 MUL ADD DUP9 SSTORE POP POP POP JUMPDEST POP POP POP POP POP POP JUMP INVALID LOG2 PUSH5 0x6970667358 0x22 SLT KECCAK256 DUP13 0xA8 SWAP14 SWAP1 0xE3 DUP8 0xCD PUSH30 0x4320C66DB3B7F63D3731D17B5A97FC37FE8CC1C6C720A79864736F6C6343 STOP ADDMOD BYTE STOP CALLER "
	},
	"Assembly": ".code\n  PUSH 80\t\t\tcontract HederaSoulboundContra...\n  PUSH 40\t\t\tcontract HederaSoulboundContra...\n  MSTORE \t\t\tcontract HederaSoulboundContra...\n  CALLVALUE \t\t\tcontract HederaSoulboundContra...\n  DUP1 \t\t\tcontract HederaSoulboundContra...\n  ISZERO \t\t\tcontract HederaSoulboundContra...\n  PUSH [tag] 1\t\t\tcontract HederaSoulboundContra...\n  JUMPI \t\t\tcontract HederaSoulboundContra...\n  PUSH 0\t\t\tcontract HederaSoulboundContra...\n  DUP1 \t\t\tcontract HederaSoulboundContra...\n  REVERT \t\t\tcontract HederaSoulboundContra...\ntag 1\t\t\tcontract HederaSoulboundContra...\n  JUMPDEST \t\t\tcontract HederaSoulboundContra...\n  POP \t\t\tcontract HederaSoulboundContra...\n  PUSH #[$] 0000000000000000000000000000000000000000000000000000000000000000\t\t\tcontract HederaSoulboundContra...\n  DUP1 \t\t\tcontract HederaSoulboundContra...\n  PUSH [$] 0000000000000000000000000000000000000000000000000000000000000000\t\t\tcontract HederaSoulboundContra...\n  PUSH 0\t\t\tcontract HederaSoulboundContra...\n  CODECOPY \t\t\tcontract HederaSoulboundContra...\n  PUSH 0\t\t\tcontract HederaSoulboundContra...\n  RETURN \t\t\tcontract HederaSoulboundContra...\n.data\n  0:\n    .code\n      PUSH 80\t\t\tcontract HederaSoulboundContra...\n      PUSH 40\t\t\tcontract HederaSoulboundContra...\n      MSTORE \t\t\tcontract HederaSoulboundContra...\n      CALLVALUE \t\t\tcontract HederaSoulboundContra...\n      DUP1 \t\t\tcontract HederaSoulboundContra...\n      ISZERO \t\t\tcontract HederaSoulboundContra...\n      PUSH [tag] 1\t\t\tcontract HederaSoulboundContra...\n      JUMPI \t\t\tcontract HederaSoulboundContra...\n      PUSH 0\t\t\tcontract HederaSoulboundContra...\n      DUP1 \t\t\tcontract HederaSoulboundContra...\n      REVERT \t\t\tcontract HederaSoulboundContra...\n    tag 1\t\t\tcontract HederaSoulboundContra...\n      JUMPDEST \t\t\tcontract HederaSoulboundContra...\n      POP \t\t\tcontract HederaSoulboundContra...\n      PUSH 4\t\t\tcontract HederaSoulboundContra...\n      CALLDATASIZE \t\t\tcontract HederaSoulboundContra...\n      LT \t\t\tcontract HederaSoulboundContra...\n      PUSH [tag] 2\t\t\tcontract HederaSoulboundContra...\n      JUMPI \t\t\tcontract HederaSoulboundContra...\n      PUSH 0\t\t\tcontract HederaSoulboundContra...\n      CALLDATALOAD \t\t\tcontract HederaSoulboundContra...\n      PUSH E0\t\t\tcontract HederaSoulboundContra...\n      SHR \t\t\tcontract HederaSoulboundContra...\n      DUP1 \t\t\tcontract HederaSoulboundContra...\n      PUSH 89DC955\t\t\tcontract HederaSoulboundContra...\n      EQ \t\t\tcontract HederaSoulboundContra...\n      PUSH [tag] 3\t\t\tcontract HederaSoulboundContra...\n      JUMPI \t\t\tcontract HederaSoulboundContra...\n      DUP1 \t\t\tcontract HederaSoulboundContra...\n      PUSH 171EBAC7\t\t\tcontract HederaSoulboundContra...\n      EQ \t\t\tcontract HederaSoulboundContra...\n      PUSH [tag] 4\t\t\tcontract HederaSoulboundContra...\n      JUMPI \t\t\tcontract HederaSoulboundContra...\n      DUP1 \t\t\tcontract HederaSoulboundContra...\n      PUSH C5AE59E8\t\t\tcontract HederaSoulboundContra...\n      EQ \t\t\tcontract HederaSoulboundContra...\n      PUSH [tag] 5\t\t\tcontract HederaSoulboundContra...\n      JUMPI \t\t\tcontract HederaSoulboundContra...\n      DUP1 \t\t\tcontract HederaSoulboundContra...\n      PUSH FCA83C55\t\t\tcontract HederaSoulboundContra...\n      EQ \t\t\tcontract HederaSoulboundContra...\n      PUSH [tag] 6\t\t\tcontract HederaSoulboundContra...\n      JUMPI \t\t\tcontract HederaSoulboundContra...\n    tag 2\t\t\tcontract HederaSoulboundContra...\n      JUMPDEST \t\t\tcontract HederaSoulboundContra...\n      PUSH 0\t\t\tcontract HederaSoulboundContra...\n      DUP1 \t\t\tcontract HederaSoulboundContra...\n      REVERT \t\t\tcontract HederaSoulboundContra...\n    tag 3\t\t\tSoulbound[] public soulbounds\n      JUMPDEST \t\t\tSoulbound[] public soulbounds\n      PUSH [tag] 7\t\t\tSoulbound[] public soulbounds\n      PUSH 4\t\t\tSoulbound[] public soulbounds\n      DUP1 \t\t\tSoulbound[] public soulbounds\n      CALLDATASIZE \t\t\tSoulbound[] public soulbounds\n      SUB \t\t\tSoulbound[] public soulbounds\n      DUP2 \t\t\tSoulbound[] public soulbounds\n      ADD \t\t\tSoulbound[] public soulbounds\n      SWAP1 \t\t\tSoulbound[] public soulbounds\n      PUSH [tag] 8\t\t\tSoulbound[] public soulbounds\n      SWAP2 \t\t\tSoulbound[] public soulbounds\n      SWAP1 \t\t\tSoulbound[] public soulbounds\n      PUSH [tag] 9\t\t\tSoulbound[] public soulbounds\n      JUMP \t\t\tSoulbound[] public soulbounds\n    tag 8\t\t\tSoulbound[] public soulbounds\n      JUMPDEST \t\t\tSoulbound[] public soulbounds\n      PUSH [tag] 10\t\t\tSoulbound[] public soulbounds\n      JUMP \t\t\tSoulbound[] public soulbounds\n    tag 7\t\t\tSoulbound[] public soulbounds\n      JUMPDEST \t\t\tSoulbound[] public soulbounds\n      PUSH 40\t\t\tSoulbound[] public soulbounds\n      MLOAD \t\t\tSoulbound[] public soulbounds\n      PUSH [tag] 11\t\t\tSoulbound[] public soulbounds\n      SWAP4 \t\t\tSoulbound[] public soulbounds\n      SWAP3 \t\t\tSoulbound[] public soulbounds\n      SWAP2 \t\t\tSoulbound[] public soulbounds\n      SWAP1 \t\t\tSoulbound[] public soulbounds\n      PUSH [tag] 12\t\t\tSoulbound[] public soulbounds\n      JUMP \t\t\tSoulbound[] public soulbounds\n    tag 11\t\t\tSoulbound[] public soulbounds\n      JUMPDEST \t\t\tSoulbound[] public soulbounds\n      PUSH 40\t\t\tSoulbound[] public soulbounds\n      MLOAD \t\t\tSoulbound[] public soulbounds\n      DUP1 \t\t\tSoulbound[] public soulbounds\n      SWAP2 \t\t\tSoulbound[] public soulbounds\n      SUB \t\t\tSoulbound[] public soulbounds\n      SWAP1 \t\t\tSoulbound[] public soulbounds\n      RETURN \t\t\tSoulbound[] public soulbounds\n    tag 4\t\t\tfunction getSoulboundById(uint...\n      JUMPDEST \t\t\tfunction getSoulboundById(uint...\n      PUSH [tag] 13\t\t\tfunction getSoulboundById(uint...\n      PUSH 4\t\t\tfunction getSoulboundById(uint...\n      DUP1 \t\t\tfunction getSoulboundById(uint...\n      CALLDATASIZE \t\t\tfunction getSoulboundById(uint...\n      SUB \t\t\tfunction getSoulboundById(uint...\n      DUP2 \t\t\tfunction getSoulboundById(uint...\n      ADD \t\t\tfunction getSoulboundById(uint...\n      SWAP1 \t\t\tfunction getSoulboundById(uint...\n      PUSH [tag] 14\t\t\tfunction getSoulboundById(uint...\n      SWAP2 \t\t\tfunction getSoulboundById(uint...\n      SWAP1 \t\t\tfunction getSoulboundById(uint...\n      PUSH [tag] 9\t\t\tfunction getSoulboundById(uint...\n      JUMP \t\t\tfunction getSoulboundById(uint...\n    tag 14\t\t\tfunction getSoulboundById(uint...\n      JUMPDEST \t\t\tfunction getSoulboundById(uint...\n      PUSH [tag] 15\t\t\tfunction getSoulboundById(uint...\n      JUMP \t\t\tfunction getSoulboundById(uint...\n    tag 13\t\t\tfunction getSoulboundById(uint...\n      JUMPDEST \t\t\tfunction getSoulboundById(uint...\n      PUSH 40\t\t\tfunction getSoulboundById(uint...\n      MLOAD \t\t\tfunction getSoulboundById(uint...\n      PUSH [tag] 16\t\t\tfunction getSoulboundById(uint...\n      SWAP2 \t\t\tfunction getSoulboundById(uint...\n      SWAP1 \t\t\tfunction getSoulboundById(uint...\n      PUSH [tag] 17\t\t\tfunction getSoulboundById(uint...\n      JUMP \t\t\tfunction getSoulboundById(uint...\n    tag 16\t\t\tfunction getSoulboundById(uint...\n      JUMPDEST \t\t\tfunction getSoulboundById(uint...\n      PUSH 40\t\t\tfunction getSoulboundById(uint...\n      MLOAD \t\t\tfunction getSoulboundById(uint...\n      DUP1 \t\t\tfunction getSoulboundById(uint...\n      SWAP2 \t\t\tfunction getSoulboundById(uint...\n      SUB \t\t\tfunction getSoulboundById(uint...\n      SWAP1 \t\t\tfunction getSoulboundById(uint...\n      RETURN \t\t\tfunction getSoulboundById(uint...\n    tag 5\t\t\tfunction submitSoulboundHash(\\...\n      JUMPDEST \t\t\tfunction submitSoulboundHash(\\...\n      PUSH [tag] 18\t\t\tfunction submitSoulboundHash(\\...\n      PUSH 4\t\t\tfunction submitSoulboundHash(\\...\n      DUP1 \t\t\tfunction submitSoulboundHash(\\...\n      CALLDATASIZE \t\t\tfunction submitSoulboundHash(\\...\n      SUB \t\t\tfunction submitSoulboundHash(\\...\n      DUP2 \t\t\tfunction submitSoulboundHash(\\...\n      ADD \t\t\tfunction submitSoulboundHash(\\...\n      SWAP1 \t\t\tfunction submitSoulboundHash(\\...\n      PUSH [tag] 19\t\t\tfunction submitSoulboundHash(\\...\n      SWAP2 \t\t\tfunction submitSoulboundHash(\\...\n      SWAP1 \t\t\tfunction submitSoulboundHash(\\...\n      PUSH [tag] 20\t\t\tfunction submitSoulboundHash(\\...\n      JUMP \t\t\tfunction submitSoulboundHash(\\...\n    tag 19\t\t\tfunction submitSoulboundHash(\\...\n      JUMPDEST \t\t\tfunction submitSoulboundHash(\\...\n      PUSH [tag] 21\t\t\tfunction submitSoulboundHash(\\...\n      JUMP \t\t\tfunction submitSoulboundHash(\\...\n    tag 18\t\t\tfunction submitSoulboundHash(\\...\n      JUMPDEST \t\t\tfunction submitSoulboundHash(\\...\n      STOP \t\t\tfunction submitSoulboundHash(\\...\n    tag 6\t\t\tfunction getSoulbounds() publi...\n      JUMPDEST \t\t\tfunction getSoulbounds() publi...\n      PUSH [tag] 22\t\t\tfunction getSoulbounds() publi...\n      PUSH [tag] 23\t\t\tfunction getSoulbounds() publi...\n      JUMP \t\t\tfunction getSoulbounds() publi...\n    tag 22\t\t\tfunction getSoulbounds() publi...\n      JUMPDEST \t\t\tfunction getSoulbounds() publi...\n      PUSH 40\t\t\tfunction getSoulbounds() publi...\n      MLOAD \t\t\tfunction getSoulbounds() publi...\n      PUSH [tag] 24\t\t\tfunction getSoulbounds() publi...\n      SWAP2 \t\t\tfunction getSoulbounds() publi...\n      SWAP1 \t\t\tfunction getSoulbounds() publi...\n      PUSH [tag] 25\t\t\tfunction getSoulbounds() publi...\n      JUMP \t\t\tfunction getSoulbounds() publi...\n    tag 24\t\t\tfunction getSoulbounds() publi...\n      JUMPDEST \t\t\tfunction getSoulbounds() publi...\n      PUSH 40\t\t\tfunction getSoulbounds() publi...\n      MLOAD \t\t\tfunction getSoulbounds() publi...\n      DUP1 \t\t\tfunction getSoulbounds() publi...\n      SWAP2 \t\t\tfunction getSoulbounds() publi...\n      SUB \t\t\tfunction getSoulbounds() publi...\n      SWAP1 \t\t\tfunction getSoulbounds() publi...\n      RETURN \t\t\tfunction getSoulbounds() publi...\n    tag 10\t\t\tSoulbound[] public soulbounds\n      JUMPDEST \t\t\tSoulbound[] public soulbounds\n      PUSH 0\t\t\tSoulbound[] public soulbounds\n      DUP2 \t\t\tSoulbound[] public soulbounds\n      DUP2 \t\t\tSoulbound[] public soulbounds\n      SLOAD \t\t\tSoulbound[] public soulbounds\n      DUP2 \t\t\tSoulbound[] public soulbounds\n      LT \t\t\tSoulbound[] public soulbounds\n      PUSH [tag] 26\t\t\tSoulbound[] public soulbounds\n      JUMPI \t\t\tSoulbound[] public soulbounds\n      PUSH 0\t\t\tSoulbound[] public soulbounds\n      DUP1 \t\t\tSoulbound[] public soulbounds\n      REVERT \t\t\tSoulbound[] public soulbounds\n    tag 26\t\t\tSoulbound[] public soulbounds\n      JUMPDEST \t\t\tSoulbound[] public soulbounds\n      SWAP1 \t\t\tSoulbound[] public soulbounds\n      PUSH 0\t\t\tSoulbound[] public soulbounds\n      MSTORE \t\t\tSoulbound[] public soulbounds\n      PUSH 20\t\t\tSoulbound[] public soulbounds\n      PUSH 0\t\t\tSoulbound[] public soulbounds\n      KECCAK256 \t\t\tSoulbound[] public soulbounds\n      SWAP1 \t\t\tSoulbound[] public soulbounds\n      PUSH 3\t\t\tSoulbound[] public soulbounds\n      MUL \t\t\tSoulbound[] public soulbounds\n      ADD \t\t\tSoulbound[] public soulbounds\n      PUSH 0\t\t\tSoulbound[] public soulbounds\n      SWAP2 \t\t\tSoulbound[] public soulbounds\n      POP \t\t\tSoulbound[] public soulbounds\n      SWAP1 \t\t\tSoulbound[] public soulbounds\n      POP \t\t\tSoulbound[] public soulbounds\n      DUP1 \t\t\tSoulbound[] public soulbounds\n      PUSH 0\t\t\tSoulbound[] public soulbounds\n      ADD \t\t\tSoulbound[] public soulbounds\n      DUP1 \t\t\tSoulbound[] public soulbounds\n      SLOAD \t\t\tSoulbound[] public soulbounds\n      PUSH [tag] 28\t\t\tSoulbound[] public soulbounds\n      SWAP1 \t\t\tSoulbound[] public soulbounds\n      PUSH [tag] 29\t\t\tSoulbound[] public soulbounds\n      JUMP \t\t\tSoulbound[] public soulbounds\n    tag 28\t\t\tSoulbound[] public soulbounds\n      JUMPDEST \t\t\tSoulbound[] public soulbounds\n      DUP1 \t\t\tSoulbound[] public soulbounds\n      PUSH 1F\t\t\tSoulbound[] public soulbounds\n      ADD \t\t\tSoulbound[] public soulbounds\n      PUSH 20\t\t\tSoulbound[] public soulbounds\n      DUP1 \t\t\tSoulbound[] public soulbounds\n      SWAP2 \t\t\tSoulbound[] public soulbounds\n      DIV \t\t\tSoulbound[] public soulbounds\n      MUL \t\t\tSoulbound[] public soulbounds\n      PUSH 20\t\t\tSoulbound[] public soulbounds\n      ADD \t\t\tSoulbound[] public soulbounds\n      PUSH 40\t\t\tSoulbound[] public soulbounds\n      MLOAD \t\t\tSoulbound[] public soulbounds\n      SWAP1 \t\t\tSoulbound[] public soulbounds\n      DUP2 \t\t\tSoulbound[] public soulbounds\n      ADD \t\t\tSoulbound[] public soulbounds\n      PUSH 40\t\t\tSoulbound[] public soulbounds\n      MSTORE \t\t\tSoulbound[] public soulbounds\n      DUP1 \t\t\tSoulbound[] public soulbounds\n      SWAP3 \t\t\tSoulbound[] public soulbounds\n      SWAP2 \t\t\tSoulbound[] public soulbounds\n      SWAP1 \t\t\tSoulbound[] public soulbounds\n      DUP2 \t\t\tSoulbound[] public soulbounds\n      DUP2 \t\t\tSoulbound[] public soulbounds\n      MSTORE \t\t\tSoulbound[] public soulbounds\n      PUSH 20\t\t\tSoulbound[] public soulbounds\n      ADD \t\t\tSoulbound[] public soulbounds\n      DUP3 \t\t\tSoulbound[] public soulbounds\n      DUP1 \t\t\tSoulbound[] public soulbounds\n      SLOAD \t\t\tSoulbound[] public soulbounds\n      PUSH [tag] 30\t\t\tSoulbound[] public soulbounds\n      SWAP1 \t\t\tSoulbound[] public soulbounds\n      PUSH [tag] 29\t\t\tSoulbound[] public soulbounds\n      JUMP \t\t\tSoulbound[] public soulbounds\n    tag 30\t\t\tSoulbound[] public soulbounds\n      JUMPDEST \t\t\tSoulbound[] public soulbounds\n      DUP1 \t\t\tSoulbound[] public soulbounds\n      ISZERO \t\t\tSoulbound[] public soulbounds\n      PUSH [tag] 31\t\t\tSoulbound[] public soulbounds\n      JUMPI \t\t\tSoulbound[] public soulbounds\n      DUP1 \t\t\tSoulbound[] public soulbounds\n      PUSH 1F\t\t\tSoulbound[] public soulbounds\n      LT \t\t\tSoulbound[] public soulbounds\n      PUSH [tag] 32\t\t\tSoulbound[] public soulbounds\n      JUMPI \t\t\tSoulbound[] public soulbounds\n      PUSH 100\t\t\tSoulbound[] public soulbounds\n      DUP1 \t\t\tSoulbound[] public soulbounds\n      DUP4 \t\t\tSoulbound[] public soulbounds\n      SLOAD \t\t\tSoulbound[] public soulbounds\n      DIV \t\t\tSoulbound[] public soulbounds\n      MUL \t\t\tSoulbound[] public soulbounds\n      DUP4 \t\t\tSoulbound[] public soulbounds\n      MSTORE \t\t\tSoulbound[] public soulbounds\n      SWAP2 \t\t\tSoulbound[] public soulbounds\n      PUSH 20\t\t\tSoulbound[] public soulbounds\n      ADD \t\t\tSoulbound[] public soulbounds\n      SWAP2 \t\t\tSoulbound[] public soulbounds\n      PUSH [tag] 31\t\t\tSoulbound[] public soulbounds\n      JUMP \t\t\tSoulbound[] public soulbounds\n    tag 32\t\t\tSoulbound[] public soulbounds\n      JUMPDEST \t\t\tSoulbound[] public soulbounds\n      DUP3 \t\t\tSoulbound[] public soulbounds\n      ADD \t\t\tSoulbound[] public soulbounds\n      SWAP2 \t\t\tSoulbound[] public soulbounds\n      SWAP1 \t\t\tSoulbound[] public soulbounds\n      PUSH 0\t\t\tSoulbound[] public soulbounds\n      MSTORE \t\t\tSoulbound[] public soulbounds\n      PUSH 20\t\t\tSoulbound[] public soulbounds\n      PUSH 0\t\t\tSoulbound[] public soulbounds\n      KECCAK256 \t\t\tSoulbound[] public soulbounds\n      SWAP1 \t\t\tSoulbound[] public soulbounds\n    tag 33\t\t\tSoulbound[] public soulbounds\n      JUMPDEST \t\t\tSoulbound[] public soulbounds\n      DUP2 \t\t\tSoulbound[] public soulbounds\n      SLOAD \t\t\tSoulbound[] public soulbounds\n      DUP2 \t\t\tSoulbound[] public soulbounds\n      MSTORE \t\t\tSoulbound[] public soulbounds\n      SWAP1 \t\t\tSoulbound[] public soulbounds\n      PUSH 1\t\t\tSoulbound[] public soulbounds\n      ADD \t\t\tSoulbound[] public soulbounds\n      SWAP1 \t\t\tSoulbound[] public soulbounds\n      PUSH 20\t\t\tSoulbound[] public soulbounds\n      ADD \t\t\tSoulbound[] public soulbounds\n      DUP1 \t\t\tSoulbound[] public soulbounds\n      DUP4 \t\t\tSoulbound[] public soulbounds\n      GT \t\t\tSoulbound[] public soulbounds\n      PUSH [tag] 33\t\t\tSoulbound[] public soulbounds\n      JUMPI \t\t\tSoulbound[] public soulbounds\n      DUP3 \t\t\tSoulbound[] public soulbounds\n      SWAP1 \t\t\tSoulbound[] public soulbounds\n      SUB \t\t\tSoulbound[] public soulbounds\n      PUSH 1F\t\t\tSoulbound[] public soulbounds\n      AND \t\t\tSoulbound[] public soulbounds\n      DUP3 \t\t\tSoulbound[] public soulbounds\n      ADD \t\t\tSoulbound[] public soulbounds\n      SWAP2 \t\t\tSoulbound[] public soulbounds\n    tag 31\t\t\tSoulbound[] public soulbounds\n      JUMPDEST \t\t\tSoulbound[] public soulbounds\n      POP \t\t\tSoulbound[] public soulbounds\n      POP \t\t\tSoulbound[] public soulbounds\n      POP \t\t\tSoulbound[] public soulbounds\n      POP \t\t\tSoulbound[] public soulbounds\n      POP \t\t\tSoulbound[] public soulbounds\n      SWAP1 \t\t\tSoulbound[] public soulbounds\n      DUP1 \t\t\tSoulbound[] public soulbounds\n      PUSH 1\t\t\tSoulbound[] public soulbounds\n      ADD \t\t\tSoulbound[] public soulbounds\n      DUP1 \t\t\tSoulbound[] public soulbounds\n      SLOAD \t\t\tSoulbound[] public soulbounds\n      PUSH [tag] 34\t\t\tSoulbound[] public soulbounds\n      SWAP1 \t\t\tSoulbound[] public soulbounds\n      PUSH [tag] 29\t\t\tSoulbound[] public soulbounds\n      JUMP \t\t\tSoulbound[] public soulbounds\n    tag 34\t\t\tSoulbound[] public soulbounds\n      JUMPDEST \t\t\tSoulbound[] public soulbounds\n      DUP1 \t\t\tSoulbound[] public soulbounds\n      PUSH 1F\t\t\tSoulbound[] public soulbounds\n      ADD \t\t\tSoulbound[] public soulbounds\n      PUSH 20\t\t\tSoulbound[] public soulbounds\n      DUP1 \t\t\tSoulbound[] public soulbounds\n      SWAP2 \t\t\tSoulbound[] public soulbounds\n      DIV \t\t\tSoulbound[] public soulbounds\n      MUL \t\t\tSoulbound[] public soulbounds\n      PUSH 20\t\t\tSoulbound[] public soulbounds\n      ADD \t\t\tSoulbound[] public soulbounds\n      PUSH 40\t\t\tSoulbound[] public soulbounds\n      MLOAD \t\t\tSoulbound[] public soulbounds\n      SWAP1 \t\t\tSoulbound[] public soulbounds\n      DUP2 \t\t\tSoulbound[] public soulbounds\n      ADD \t\t\tSoulbound[] public soulbounds\n      PUSH 40\t\t\tSoulbound[] public soulbounds\n      MSTORE \t\t\tSoulbound[] public soulbounds\n      DUP1 \t\t\tSoulbound[] public soulbounds\n      SWAP3 \t\t\tSoulbound[] public soulbounds\n      SWAP2 \t\t\tSoulbound[] public soulbounds\n      SWAP1 \t\t\tSoulbound[] public soulbounds\n      DUP2 \t\t\tSoulbound[] public soulbounds\n      DUP2 \t\t\tSoulbound[] public soulbounds\n      MSTORE \t\t\tSoulbound[] public soulbounds\n      PUSH 20\t\t\tSoulbound[] public soulbounds\n      ADD \t\t\tSoulbound[] public soulbounds\n      DUP3 \t\t\tSoulbound[] public soulbounds\n      DUP1 \t\t\tSoulbound[] public soulbounds\n      SLOAD \t\t\tSoulbound[] public soulbounds\n      PUSH [tag] 35\t\t\tSoulbound[] public soulbounds\n      SWAP1 \t\t\tSoulbound[] public soulbounds\n      PUSH [tag] 29\t\t\tSoulbound[] public soulbounds\n      JUMP \t\t\tSoulbound[] public soulbounds\n    tag 35\t\t\tSoulbound[] public soulbounds\n      JUMPDEST \t\t\tSoulbound[] public soulbounds\n      DUP1 \t\t\tSoulbound[] public soulbounds\n      ISZERO \t\t\tSoulbound[] public soulbounds\n      PUSH [tag] 36\t\t\tSoulbound[] public soulbounds\n      JUMPI \t\t\tSoulbound[] public soulbounds\n      DUP1 \t\t\tSoulbound[] public soulbounds\n      PUSH 1F\t\t\tSoulbound[] public soulbounds\n      LT \t\t\tSoulbound[] public soulbounds\n      PUSH [tag] 37\t\t\tSoulbound[] public soulbounds\n      JUMPI \t\t\tSoulbound[] public soulbounds\n      PUSH 100\t\t\tSoulbound[] public soulbounds\n      DUP1 \t\t\tSoulbound[] public soulbounds\n      DUP4 \t\t\tSoulbound[] public soulbounds\n      SLOAD \t\t\tSoulbound[] public soulbounds\n      DIV \t\t\tSoulbound[] public soulbounds\n      MUL \t\t\tSoulbound[] public soulbounds\n      DUP4 \t\t\tSoulbound[] public soulbounds\n      MSTORE \t\t\tSoulbound[] public soulbounds\n      SWAP2 \t\t\tSoulbound[] public soulbounds\n      PUSH 20\t\t\tSoulbound[] public soulbounds\n      ADD \t\t\tSoulbound[] public soulbounds\n      SWAP2 \t\t\tSoulbound[] public soulbounds\n      PUSH [tag] 36\t\t\tSoulbound[] public soulbounds\n      JUMP \t\t\tSoulbound[] public soulbounds\n    tag 37\t\t\tSoulbound[] public soulbounds\n      JUMPDEST \t\t\tSoulbound[] public soulbounds\n      DUP3 \t\t\tSoulbound[] public soulbounds\n      ADD \t\t\tSoulbound[] public soulbounds\n      SWAP2 \t\t\tSoulbound[] public soulbounds\n      SWAP1 \t\t\tSoulbound[] public soulbounds\n      PUSH 0\t\t\tSoulbound[] public soulbounds\n      MSTORE \t\t\tSoulbound[] public soulbounds\n      PUSH 20\t\t\tSoulbound[] public soulbounds\n      PUSH 0\t\t\tSoulbound[] public soulbounds\n      KECCAK256 \t\t\tSoulbound[] public soulbounds\n      SWAP1 \t\t\tSoulbound[] public soulbounds\n    tag 38\t\t\tSoulbound[] public soulbounds\n      JUMPDEST \t\t\tSoulbound[] public soulbounds\n      DUP2 \t\t\tSoulbound[] public soulbounds\n      SLOAD \t\t\tSoulbound[] public soulbounds\n      DUP2 \t\t\tSoulbound[] public soulbounds\n      MSTORE \t\t\tSoulbound[] public soulbounds\n      SWAP1 \t\t\tSoulbound[] public soulbounds\n      PUSH 1\t\t\tSoulbound[] public soulbounds\n      ADD \t\t\tSoulbound[] public soulbounds\n      SWAP1 \t\t\tSoulbound[] public soulbounds\n      PUSH 20\t\t\tSoulbound[] public soulbounds\n      ADD \t\t\tSoulbound[] public soulbounds\n      DUP1 \t\t\tSoulbound[] public soulbounds\n      DUP4 \t\t\tSoulbound[] public soulbounds\n      GT \t\t\tSoulbound[] public soulbounds\n      PUSH [tag] 38\t\t\tSoulbound[] public soulbounds\n      JUMPI \t\t\tSoulbound[] public soulbounds\n      DUP3 \t\t\tSoulbound[] public soulbounds\n      SWAP1 \t\t\tSoulbound[] public soulbounds\n      SUB \t\t\tSoulbound[] public soulbounds\n      PUSH 1F\t\t\tSoulbound[] public soulbounds\n      AND \t\t\tSoulbound[] public soulbounds\n      DUP3 \t\t\tSoulbound[] public soulbounds\n      ADD \t\t\tSoulbound[] public soulbounds\n      SWAP2 \t\t\tSoulbound[] public soulbounds\n    tag 36\t\t\tSoulbound[] public soulbounds\n      JUMPDEST \t\t\tSoulbound[] public soulbounds\n      POP \t\t\tSoulbound[] public soulbounds\n      POP \t\t\tSoulbound[] public soulbounds\n      POP \t\t\tSoulbound[] public soulbounds\n      POP \t\t\tSoulbound[] public soulbounds\n      POP \t\t\tSoulbound[] public soulbounds\n      SWAP1 \t\t\tSoulbound[] public soulbounds\n      DUP1 \t\t\tSoulbound[] public soulbounds\n      PUSH 2\t\t\tSoulbound[] public soulbounds\n      ADD \t\t\tSoulbound[] public soulbounds\n      SLOAD \t\t\tSoulbound[] public soulbounds\n      SWAP1 \t\t\tSoulbound[] public soulbounds\n      POP \t\t\tSoulbound[] public soulbounds\n      DUP4 \t\t\tSoulbound[] public soulbounds\n      JUMP \t\t\tSoulbound[] public soulbounds\n    tag 15\t\t\tfunction getSoulboundById(uint...\n      JUMPDEST \t\t\tfunction getSoulboundById(uint...\n      PUSH [tag] 39\t\t\tSoulbound memory\n      PUSH [tag] 40\t\t\tSoulbound memory\n      JUMP \t\t\tSoulbound memory\n    tag 39\t\t\tSoulbound memory\n      JUMPDEST \t\t\tSoulbound memory\n      PUSH 0\t\t\tsoulbounds\n      DUP1 \t\t\tsoulbounds.length\n      SLOAD \t\t\tsoulbounds.length\n      SWAP1 \t\t\tsoulbounds.length\n      POP \t\t\tsoulbounds.length\n      DUP3 \t\t\tsoulboundIndex\n      LT \t\t\tsoulboundIndex < soulbounds.le...\n      PUSH [tag] 42\t\t\trequire(soulboundIndex < soulb...\n      JUMPI \t\t\trequire(soulboundIndex < soulb...\n      PUSH 40\t\t\trequire(soulboundIndex < soulb...\n      MLOAD \t\t\trequire(soulboundIndex < soulb...\n      PUSH 8C379A000000000000000000000000000000000000000000000000000000000\t\t\trequire(soulboundIndex < soulb...\n      DUP2 \t\t\trequire(soulboundIndex < soulb...\n      MSTORE \t\t\trequire(soulboundIndex < soulb...\n      PUSH 4\t\t\trequire(soulboundIndex < soulb...\n      ADD \t\t\trequire(soulboundIndex < soulb...\n      PUSH [tag] 43\t\t\trequire(soulboundIndex < soulb...\n      SWAP1 \t\t\trequire(soulboundIndex < soulb...\n      PUSH [tag] 44\t\t\trequire(soulboundIndex < soulb...\n      JUMP \t\t\trequire(soulboundIndex < soulb...\n    tag 43\t\t\trequire(soulboundIndex < soulb...\n      JUMPDEST \t\t\trequire(soulboundIndex < soulb...\n      PUSH 40\t\t\trequire(soulboundIndex < soulb...\n      MLOAD \t\t\trequire(soulboundIndex < soulb...\n      DUP1 \t\t\trequire(soulboundIndex < soulb...\n      SWAP2 \t\t\trequire(soulboundIndex < soulb...\n      SUB \t\t\trequire(soulboundIndex < soulb...\n      SWAP1 \t\t\trequire(soulboundIndex < soulb...\n      REVERT \t\t\trequire(soulboundIndex < soulb...\n    tag 42\t\t\trequire(soulboundIndex < soulb...\n      JUMPDEST \t\t\trequire(soulboundIndex < soulb...\n      PUSH 0\t\t\tsoulbounds\n      DUP3 \t\t\tsoulboundIndex\n      DUP2 \t\t\tsoulbounds[soulboundIndex]\n      SLOAD \t\t\tsoulbounds[soulboundIndex]\n      DUP2 \t\t\tsoulbounds[soulboundIndex]\n      LT \t\t\tsoulbounds[soulboundIndex]\n      PUSH [tag] 45\t\t\tsoulbounds[soulboundIndex]\n      JUMPI \t\t\tsoulbounds[soulboundIndex]\n      PUSH [tag] 46\t\t\tsoulbounds[soulboundIndex]\n      PUSH [tag] 47\t\t\tsoulbounds[soulboundIndex]\n      JUMP \t\t\tsoulbounds[soulboundIndex]\n    tag 46\t\t\tsoulbounds[soulboundIndex]\n      JUMPDEST \t\t\tsoulbounds[soulboundIndex]\n    tag 45\t\t\tsoulbounds[soulboundIndex]\n      JUMPDEST \t\t\tsoulbounds[soulboundIndex]\n      SWAP1 \t\t\tsoulbounds[soulboundIndex]\n      PUSH 0\t\t\tsoulbounds[soulboundIndex]\n      MSTORE \t\t\tsoulbounds[soulboundIndex]\n      PUSH 20\t\t\tsoulbounds[soulboundIndex]\n      PUSH 0\t\t\tsoulbounds[soulboundIndex]\n      KECCAK256 \t\t\tsoulbounds[soulboundIndex]\n      SWAP1 \t\t\tsoulbounds[soulboundIndex]\n      PUSH 3\t\t\tsoulbounds[soulboundIndex]\n      MUL \t\t\tsoulbounds[soulboundIndex]\n      ADD \t\t\tsoulbounds[soulboundIndex]\n      PUSH 40\t\t\treturn soulbounds[soulboundInd...\n      MLOAD \t\t\treturn soulbounds[soulboundInd...\n      DUP1 \t\t\treturn soulbounds[soulboundInd...\n      PUSH 60\t\t\treturn soulbounds[soulboundInd...\n      ADD \t\t\treturn soulbounds[soulboundInd...\n      PUSH 40\t\t\treturn soulbounds[soulboundInd...\n      MSTORE \t\t\treturn soulbounds[soulboundInd...\n      SWAP1 \t\t\treturn soulbounds[soulboundInd...\n      DUP2 \t\t\treturn soulbounds[soulboundInd...\n      PUSH 0\t\t\treturn soulbounds[soulboundInd...\n      DUP3 \t\t\treturn soulbounds[soulboundInd...\n      ADD \t\t\treturn soulbounds[soulboundInd...\n      DUP1 \t\t\treturn soulbounds[soulboundInd...\n      SLOAD \t\t\treturn soulbounds[soulboundInd...\n      PUSH [tag] 49\t\t\treturn soulbounds[soulboundInd...\n      SWAP1 \t\t\treturn soulbounds[soulboundInd...\n      PUSH [tag] 29\t\t\treturn soulbounds[soulboundInd...\n      JUMP \t\t\treturn soulbounds[soulboundInd...\n    tag 49\t\t\treturn soulbounds[soulboundInd...\n      JUMPDEST \t\t\treturn soulbounds[soulboundInd...\n      DUP1 \t\t\treturn soulbounds[soulboundInd...\n      PUSH 1F\t\t\treturn soulbounds[soulboundInd...\n      ADD \t\t\treturn soulbounds[soulboundInd...\n      PUSH 20\t\t\treturn soulbounds[soulboundInd...\n      DUP1 \t\t\treturn soulbounds[soulboundInd...\n      SWAP2 \t\t\treturn soulbounds[soulboundInd...\n      DIV \t\t\treturn soulbounds[soulboundInd...\n      MUL \t\t\treturn soulbounds[soulboundInd...\n      PUSH 20\t\t\treturn soulbounds[soulboundInd...\n      ADD \t\t\treturn soulbounds[soulboundInd...\n      PUSH 40\t\t\treturn soulbounds[soulboundInd...\n      MLOAD \t\t\treturn soulbounds[soulboundInd...\n      SWAP1 \t\t\treturn soulbounds[soulboundInd...\n      DUP2 \t\t\treturn soulbounds[soulboundInd...\n      ADD \t\t\treturn soulbounds[soulboundInd...\n      PUSH 40\t\t\treturn soulbounds[soulboundInd...\n      MSTORE \t\t\treturn soulbounds[soulboundInd...\n      DUP1 \t\t\treturn soulbounds[soulboundInd...\n      SWAP3 \t\t\treturn soulbounds[soulboundInd...\n      SWAP2 \t\t\treturn soulbounds[soulboundInd...\n      SWAP1 \t\t\treturn soulbounds[soulboundInd...\n      DUP2 \t\t\treturn soulbounds[soulboundInd...\n      DUP2 \t\t\treturn soulbounds[soulboundInd...\n      MSTORE \t\t\treturn soulbounds[soulboundInd...\n      PUSH 20\t\t\treturn soulbounds[soulboundInd...\n      ADD \t\t\treturn soulbounds[soulboundInd...\n      DUP3 \t\t\treturn soulbounds[soulboundInd...\n      DUP1 \t\t\treturn soulbounds[soulboundInd...\n      SLOAD \t\t\treturn soulbounds[soulboundInd...\n      PUSH [tag] 50\t\t\treturn soulbounds[soulboundInd...\n      SWAP1 \t\t\treturn soulbounds[soulboundInd...\n      PUSH [tag] 29\t\t\treturn soulbounds[soulboundInd...\n      JUMP \t\t\treturn soulbounds[soulboundInd...\n    tag 50\t\t\treturn soulbounds[soulboundInd...\n      JUMPDEST \t\t\treturn soulbounds[soulboundInd...\n      DUP1 \t\t\treturn soulbounds[soulboundInd...\n      ISZERO \t\t\treturn soulbounds[soulboundInd...\n      PUSH [tag] 51\t\t\treturn soulbounds[soulboundInd...\n      JUMPI \t\t\treturn soulbounds[soulboundInd...\n      DUP1 \t\t\treturn soulbounds[soulboundInd...\n      PUSH 1F\t\t\treturn soulbounds[soulboundInd...\n      LT \t\t\treturn soulbounds[soulboundInd...\n      PUSH [tag] 52\t\t\treturn soulbounds[soulboundInd...\n      JUMPI \t\t\treturn soulbounds[soulboundInd...\n      PUSH 100\t\t\treturn soulbounds[soulboundInd...\n      DUP1 \t\t\treturn soulbounds[soulboundInd...\n      DUP4 \t\t\treturn soulbounds[soulboundInd...\n      SLOAD \t\t\treturn soulbounds[soulboundInd...\n      DIV \t\t\treturn soulbounds[soulboundInd...\n      MUL \t\t\treturn soulbounds[soulboundInd...\n      DUP4 \t\t\treturn soulbounds[soulboundInd...\n      MSTORE \t\t\treturn soulbounds[soulboundInd...\n      SWAP2 \t\t\treturn soulbounds[soulboundInd...\n      PUSH 20\t\t\treturn soulbounds[soulboundInd...\n      ADD \t\t\treturn soulbounds[soulboundInd...\n      SWAP2 \t\t\treturn soulbounds[soulboundInd...\n      PUSH [tag] 51\t\t\treturn soulbounds[soulboundInd...\n      JUMP \t\t\treturn soulbounds[soulboundInd...\n    tag 52\t\t\treturn soulbounds[soulboundInd...\n      JUMPDEST \t\t\treturn soulbounds[soulboundInd...\n      DUP3 \t\t\treturn soulbounds[soulboundInd...\n      ADD \t\t\treturn soulbounds[soulboundInd...\n      SWAP2 \t\t\treturn soulbounds[soulboundInd...\n      SWAP1 \t\t\treturn soulbounds[soulboundInd...\n      PUSH 0\t\t\treturn soulbounds[soulboundInd...\n      MSTORE \t\t\treturn soulbounds[soulboundInd...\n      PUSH 20\t\t\treturn soulbounds[soulboundInd...\n      PUSH 0\t\t\treturn soulbounds[soulboundInd...\n      KECCAK256 \t\t\treturn soulbounds[soulboundInd...\n      SWAP1 \t\t\treturn soulbounds[soulboundInd...\n    tag 53\t\t\treturn soulbounds[soulboundInd...\n      JUMPDEST \t\t\treturn soulbounds[soulboundInd...\n      DUP2 \t\t\treturn soulbounds[soulboundInd...\n      SLOAD \t\t\treturn soulbounds[soulboundInd...\n      DUP2 \t\t\treturn soulbounds[soulboundInd...\n      MSTORE \t\t\treturn soulbounds[soulboundInd...\n      SWAP1 \t\t\treturn soulbounds[soulboundInd...\n      PUSH 1\t\t\treturn soulbounds[soulboundInd...\n      ADD \t\t\treturn soulbounds[soulboundInd...\n      SWAP1 \t\t\treturn soulbounds[soulboundInd...\n      PUSH 20\t\t\treturn soulbounds[soulboundInd...\n      ADD \t\t\treturn soulbounds[soulboundInd...\n      DUP1 \t\t\treturn soulbounds[soulboundInd...\n      DUP4 \t\t\treturn soulbounds[soulboundInd...\n      GT \t\t\treturn soulbounds[soulboundInd...\n      PUSH [tag] 53\t\t\treturn soulbounds[soulboundInd...\n      JUMPI \t\t\treturn soulbounds[soulboundInd...\n      DUP3 \t\t\treturn soulbounds[soulboundInd...\n      SWAP1 \t\t\treturn soulbounds[soulboundInd...\n      SUB \t\t\treturn soulbounds[soulboundInd...\n      PUSH 1F\t\t\treturn soulbounds[soulboundInd...\n      AND \t\t\treturn soulbounds[soulboundInd...\n      DUP3 \t\t\treturn soulbounds[soulboundInd...\n      ADD \t\t\treturn soulbounds[soulboundInd...\n      SWAP2 \t\t\treturn soulbounds[soulboundInd...\n    tag 51\t\t\treturn soulbounds[soulboundInd...\n      JUMPDEST \t\t\treturn soulbounds[soulboundInd...\n      POP \t\t\treturn soulbounds[soulboundInd...\n      POP \t\t\treturn soulbounds[soulboundInd...\n      POP \t\t\treturn soulbounds[soulboundInd...\n      POP \t\t\treturn soulbounds[soulboundInd...\n      POP \t\t\treturn soulbounds[soulboundInd...\n      DUP2 \t\t\treturn soulbounds[soulboundInd...\n      MSTORE \t\t\treturn soulbounds[soulboundInd...\n      PUSH 20\t\t\treturn soulbounds[soulboundInd...\n      ADD \t\t\treturn soulbounds[soulboundInd...\n      PUSH 1\t\t\treturn soulbounds[soulboundInd...\n      DUP3 \t\t\treturn soulbounds[soulboundInd...\n      ADD \t\t\treturn soulbounds[soulboundInd...\n      DUP1 \t\t\treturn soulbounds[soulboundInd...\n      SLOAD \t\t\treturn soulbounds[soulboundInd...\n      PUSH [tag] 54\t\t\treturn soulbounds[soulboundInd...\n      SWAP1 \t\t\treturn soulbounds[soulboundInd...\n      PUSH [tag] 29\t\t\treturn soulbounds[soulboundInd...\n      JUMP \t\t\treturn soulbounds[soulboundInd...\n    tag 54\t\t\treturn soulbounds[soulboundInd...\n      JUMPDEST \t\t\treturn soulbounds[soulboundInd...\n      DUP1 \t\t\treturn soulbounds[soulboundInd...\n      PUSH 1F\t\t\treturn soulbounds[soulboundInd...\n      ADD \t\t\treturn soulbounds[soulboundInd...\n      PUSH 20\t\t\treturn soulbounds[soulboundInd...\n      DUP1 \t\t\treturn soulbounds[soulboundInd...\n      SWAP2 \t\t\treturn soulbounds[soulboundInd...\n      DIV \t\t\treturn soulbounds[soulboundInd...\n      MUL \t\t\treturn soulbounds[soulboundInd...\n      PUSH 20\t\t\treturn soulbounds[soulboundInd...\n      ADD \t\t\treturn soulbounds[soulboundInd...\n      PUSH 40\t\t\treturn soulbounds[soulboundInd...\n      MLOAD \t\t\treturn soulbounds[soulboundInd...\n      SWAP1 \t\t\treturn soulbounds[soulboundInd...\n      DUP2 \t\t\treturn soulbounds[soulboundInd...\n      ADD \t\t\treturn soulbounds[soulboundInd...\n      PUSH 40\t\t\treturn soulbounds[soulboundInd...\n      MSTORE \t\t\treturn soulbounds[soulboundInd...\n      DUP1 \t\t\treturn soulbounds[soulboundInd...\n      SWAP3 \t\t\treturn soulbounds[soulboundInd...\n      SWAP2 \t\t\treturn soulbounds[soulboundInd...\n      SWAP1 \t\t\treturn soulbounds[soulboundInd...\n      DUP2 \t\t\treturn soulbounds[soulboundInd...\n      DUP2 \t\t\treturn soulbounds[soulboundInd...\n      MSTORE \t\t\treturn soulbounds[soulboundInd...\n      PUSH 20\t\t\treturn soulbounds[soulboundInd...\n      ADD \t\t\treturn soulbounds[soulboundInd...\n      DUP3 \t\t\treturn soulbounds[soulboundInd...\n      DUP1 \t\t\treturn soulbounds[soulboundInd...\n      SLOAD \t\t\treturn soulbounds[soulboundInd...\n      PUSH [tag] 55\t\t\treturn soulbounds[soulboundInd...\n      SWAP1 \t\t\treturn soulbounds[soulboundInd...\n      PUSH [tag] 29\t\t\treturn soulbounds[soulboundInd...\n      JUMP \t\t\treturn soulbounds[soulboundInd...\n    tag 55\t\t\treturn soulbounds[soulboundInd...\n      JUMPDEST \t\t\treturn soulbounds[soulboundInd...\n      DUP1 \t\t\treturn soulbounds[soulboundInd...\n      ISZERO \t\t\treturn soulbounds[soulboundInd...\n      PUSH [tag] 56\t\t\treturn soulbounds[soulboundInd...\n      JUMPI \t\t\treturn soulbounds[soulboundInd...\n      DUP1 \t\t\treturn soulbounds[soulboundInd...\n      PUSH 1F\t\t\treturn soulbounds[soulboundInd...\n      LT \t\t\treturn soulbounds[soulboundInd...\n      PUSH [tag] 57\t\t\treturn soulbounds[soulboundInd...\n      JUMPI \t\t\treturn soulbounds[soulboundInd...\n      PUSH 100\t\t\treturn soulbounds[soulboundInd...\n      DUP1 \t\t\treturn soulbounds[soulboundInd...\n      DUP4 \t\t\treturn soulbounds[soulboundInd...\n      SLOAD \t\t\treturn soulbounds[soulboundInd...\n      DIV \t\t\treturn soulbounds[soulboundInd...\n      MUL \t\t\treturn soulbounds[soulboundInd...\n      DUP4 \t\t\treturn soulbounds[soulboundInd...\n      MSTORE \t\t\treturn soulbounds[soulboundInd...\n      SWAP2 \t\t\treturn soulbounds[soulboundInd...\n      PUSH 20\t\t\treturn soulbounds[soulboundInd...\n      ADD \t\t\treturn soulbounds[soulboundInd...\n      SWAP2 \t\t\treturn soulbounds[soulboundInd...\n      PUSH [tag] 56\t\t\treturn soulbounds[soulboundInd...\n      JUMP \t\t\treturn soulbounds[soulboundInd...\n    tag 57\t\t\treturn soulbounds[soulboundInd...\n      JUMPDEST \t\t\treturn soulbounds[soulboundInd...\n      DUP3 \t\t\treturn soulbounds[soulboundInd...\n      ADD \t\t\treturn soulbounds[soulboundInd...\n      SWAP2 \t\t\treturn soulbounds[soulboundInd...\n      SWAP1 \t\t\treturn soulbounds[soulboundInd...\n      PUSH 0\t\t\treturn soulbounds[soulboundInd...\n      MSTORE \t\t\treturn soulbounds[soulboundInd...\n      PUSH 20\t\t\treturn soulbounds[soulboundInd...\n      PUSH 0\t\t\treturn soulbounds[soulboundInd...\n      KECCAK256 \t\t\treturn soulbounds[soulboundInd...\n      SWAP1 \t\t\treturn soulbounds[soulboundInd...\n    tag 58\t\t\treturn soulbounds[soulboundInd...\n      JUMPDEST \t\t\treturn soulbounds[soulboundInd...\n      DUP2 \t\t\treturn soulbounds[soulboundInd...\n      SLOAD \t\t\treturn soulbounds[soulboundInd...\n      DUP2 \t\t\treturn soulbounds[soulboundInd...\n      MSTORE \t\t\treturn soulbounds[soulboundInd...\n      SWAP1 \t\t\treturn soulbounds[soulboundInd...\n      PUSH 1\t\t\treturn soulbounds[soulboundInd...\n      ADD \t\t\treturn soulbounds[soulboundInd...\n      SWAP1 \t\t\treturn soulbounds[soulboundInd...\n      PUSH 20\t\t\treturn soulbounds[soulboundInd...\n      ADD \t\t\treturn soulbounds[soulboundInd...\n      DUP1 \t\t\treturn soulbounds[soulboundInd...\n      DUP4 \t\t\treturn soulbounds[soulboundInd...\n      GT \t\t\treturn soulbounds[soulboundInd...\n      PUSH [tag] 58\t\t\treturn soulbounds[soulboundInd...\n      JUMPI \t\t\treturn soulbounds[soulboundInd...\n      DUP3 \t\t\treturn soulbounds[soulboundInd...\n      SWAP1 \t\t\treturn soulbounds[soulboundInd...\n      SUB \t\t\treturn soulbounds[soulboundInd...\n      PUSH 1F\t\t\treturn soulbounds[soulboundInd...\n      AND \t\t\treturn soulbounds[soulboundInd...\n      DUP3 \t\t\treturn soulbounds[soulboundInd...\n      ADD \t\t\treturn soulbounds[soulboundInd...\n      SWAP2 \t\t\treturn soulbounds[soulboundInd...\n    tag 56\t\t\treturn soulbounds[soulboundInd...\n      JUMPDEST \t\t\treturn soulbounds[soulboundInd...\n      POP \t\t\treturn soulbounds[soulboundInd...\n      POP \t\t\treturn soulbounds[soulboundInd...\n      POP \t\t\treturn soulbounds[soulboundInd...\n      POP \t\t\treturn soulbounds[soulboundInd...\n      POP \t\t\treturn soulbounds[soulboundInd...\n      DUP2 \t\t\treturn soulbounds[soulboundInd...\n      MSTORE \t\t\treturn soulbounds[soulboundInd...\n      PUSH 20\t\t\treturn soulbounds[soulboundInd...\n      ADD \t\t\treturn soulbounds[soulboundInd...\n      PUSH 2\t\t\treturn soulbounds[soulboundInd...\n      DUP3 \t\t\treturn soulbounds[soulboundInd...\n      ADD \t\t\treturn soulbounds[soulboundInd...\n      SLOAD \t\t\treturn soulbounds[soulboundInd...\n      DUP2 \t\t\treturn soulbounds[soulboundInd...\n      MSTORE \t\t\treturn soulbounds[soulboundInd...\n      POP \t\t\treturn soulbounds[soulboundInd...\n      POP \t\t\treturn soulbounds[soulboundInd...\n      SWAP1 \t\t\treturn soulbounds[soulboundInd...\n      POP \t\t\treturn soulbounds[soulboundInd...\n      SWAP2 \t\t\tfunction getSoulboundById(uint...\n      SWAP1 \t\t\tfunction getSoulboundById(uint...\n      POP \t\t\tfunction getSoulboundById(uint...\n      JUMP \t\t\tfunction getSoulboundById(uint...\n    tag 21\t\t\tfunction submitSoulboundHash(\\...\n      JUMPDEST \t\t\tfunction submitSoulboundHash(\\...\n      PUSH 0\t\t\t0\n      DUP3 \t\t\tprj_id\n      MLOAD \t\t\tbytes(prj_id).length\n      GT \t\t\tbytes(prj_id).length > 0\n      PUSH [tag] 60\t\t\trequire(bytes(prj_id).length >...\n      JUMPI \t\t\trequire(bytes(prj_id).length >...\n      PUSH 40\t\t\trequire(bytes(prj_id).length >...\n      MLOAD \t\t\trequire(bytes(prj_id).length >...\n      PUSH 8C379A000000000000000000000000000000000000000000000000000000000\t\t\trequire(bytes(prj_id).length >...\n      DUP2 \t\t\trequire(bytes(prj_id).length >...\n      MSTORE \t\t\trequire(bytes(prj_id).length >...\n      PUSH 4\t\t\trequire(bytes(prj_id).length >...\n      ADD \t\t\trequire(bytes(prj_id).length >...\n      PUSH [tag] 61\t\t\trequire(bytes(prj_id).length >...\n      SWAP1 \t\t\trequire(bytes(prj_id).length >...\n      PUSH [tag] 62\t\t\trequire(bytes(prj_id).length >...\n      JUMP \t\t\trequire(bytes(prj_id).length >...\n    tag 61\t\t\trequire(bytes(prj_id).length >...\n      JUMPDEST \t\t\trequire(bytes(prj_id).length >...\n      PUSH 40\t\t\trequire(bytes(prj_id).length >...\n      MLOAD \t\t\trequire(bytes(prj_id).length >...\n      DUP1 \t\t\trequire(bytes(prj_id).length >...\n      SWAP2 \t\t\trequire(bytes(prj_id).length >...\n      SUB \t\t\trequire(bytes(prj_id).length >...\n      SWAP1 \t\t\trequire(bytes(prj_id).length >...\n      REVERT \t\t\trequire(bytes(prj_id).length >...\n    tag 60\t\t\trequire(bytes(prj_id).length >...\n      JUMPDEST \t\t\trequire(bytes(prj_id).length >...\n      PUSH 20\t\t\t32\n      DUP2 \t\t\tsoulbound_hash\n      MLOAD \t\t\tsoulbound_hash.length\n      EQ \t\t\tsoulbound_hash.length == 32\n      PUSH [tag] 63\t\t\trequire(soulbound_hash.length ...\n      JUMPI \t\t\trequire(soulbound_hash.length ...\n      PUSH 40\t\t\trequire(soulbound_hash.length ...\n      MLOAD \t\t\trequire(soulbound_hash.length ...\n      PUSH 8C379A000000000000000000000000000000000000000000000000000000000\t\t\trequire(soulbound_hash.length ...\n      DUP2 \t\t\trequire(soulbound_hash.length ...\n      MSTORE \t\t\trequire(soulbound_hash.length ...\n      PUSH 4\t\t\trequire(soulbound_hash.length ...\n      ADD \t\t\trequire(soulbound_hash.length ...\n      PUSH [tag] 64\t\t\trequire(soulbound_hash.length ...\n      SWAP1 \t\t\trequire(soulbound_hash.length ...\n      PUSH [tag] 65\t\t\trequire(soulbound_hash.length ...\n      JUMP \t\t\trequire(soulbound_hash.length ...\n    tag 64\t\t\trequire(soulbound_hash.length ...\n      JUMPDEST \t\t\trequire(soulbound_hash.length ...\n      PUSH 40\t\t\trequire(soulbound_hash.length ...\n      MLOAD \t\t\trequire(soulbound_hash.length ...\n      DUP1 \t\t\trequire(soulbound_hash.length ...\n      SWAP2 \t\t\trequire(soulbound_hash.length ...\n      SUB \t\t\trequire(soulbound_hash.length ...\n      SWAP1 \t\t\trequire(soulbound_hash.length ...\n      REVERT \t\t\trequire(soulbound_hash.length ...\n    tag 63\t\t\trequire(soulbound_hash.length ...\n      JUMPDEST \t\t\trequire(soulbound_hash.length ...\n      PUSH 0\t\t\tuint256 soulboundIndex\n      DUP1 \t\t\tsoulbounds\n      DUP1 \t\t\tsoulbounds.length\n      SLOAD \t\t\tsoulbounds.length\n      SWAP1 \t\t\tsoulbounds.length\n      POP \t\t\tsoulbounds.length\n      SWAP1 \t\t\tuint256 soulboundIndex = soulb...\n      POP \t\t\tuint256 soulboundIndex = soulb...\n      PUSH 0\t\t\tsoulbounds\n      PUSH 40\t\t\tSoulbound({\\r\\n               ...\n      MLOAD \t\t\tSoulbound({\\r\\n               ...\n      DUP1 \t\t\tSoulbound({\\r\\n               ...\n      PUSH 60\t\t\tSoulbound({\\r\\n               ...\n      ADD \t\t\tSoulbound({\\r\\n               ...\n      PUSH 40\t\t\tSoulbound({\\r\\n               ...\n      MSTORE \t\t\tSoulbound({\\r\\n               ...\n      DUP1 \t\t\tSoulbound({\\r\\n               ...\n      DUP6 \t\t\tprj_id\n      DUP2 \t\t\tSoulbound({\\r\\n               ...\n      MSTORE \t\t\tSoulbound({\\r\\n               ...\n      PUSH 20\t\t\tSoulbound({\\r\\n               ...\n      ADD \t\t\tSoulbound({\\r\\n               ...\n      DUP5 \t\t\tsoulbound_hash\n      DUP2 \t\t\tSoulbound({\\r\\n               ...\n      MSTORE \t\t\tSoulbound({\\r\\n               ...\n      PUSH 20\t\t\tSoulbound({\\r\\n               ...\n      ADD \t\t\tSoulbound({\\r\\n               ...\n      TIMESTAMP \t\t\tblock.timestamp\n      DUP2 \t\t\tSoulbound({\\r\\n               ...\n      MSTORE \t\t\tSoulbound({\\r\\n               ...\n      POP \t\t\tSoulbound({\\r\\n               ...\n      SWAP1 \t\t\tsoulbounds.push(\\r\\n          ...\n      DUP1 \t\t\tsoulbounds.push(\\r\\n          ...\n      PUSH 1\t\t\tsoulbounds.push(\\r\\n          ...\n      DUP2 \t\t\tsoulbounds.push(\\r\\n          ...\n      SLOAD \t\t\tsoulbounds.push(\\r\\n          ...\n      ADD \t\t\tsoulbounds.push(\\r\\n          ...\n      DUP1 \t\t\tsoulbounds.push(\\r\\n          ...\n      DUP3 \t\t\tsoulbounds.push(\\r\\n          ...\n      SSTORE \t\t\tsoulbounds.push(\\r\\n          ...\n      DUP1 \t\t\tsoulbounds.push(\\r\\n          ...\n      SWAP2 \t\t\tsoulbounds.push(\\r\\n          ...\n      POP \t\t\tsoulbounds.push(\\r\\n          ...\n      POP \t\t\tsoulbounds.push(\\r\\n          ...\n      PUSH 1\t\t\tsoulbounds.push(\\r\\n          ...\n      SWAP1 \t\t\tsoulbounds.push(\\r\\n          ...\n      SUB \t\t\tsoulbounds.push(\\r\\n          ...\n      SWAP1 \t\t\tsoulbounds.push(\\r\\n          ...\n      PUSH 0\t\t\tsoulbounds.push(\\r\\n          ...\n      MSTORE \t\t\tsoulbounds.push(\\r\\n          ...\n      PUSH 20\t\t\tsoulbounds.push(\\r\\n          ...\n      PUSH 0\t\t\tsoulbounds.push(\\r\\n          ...\n      KECCAK256 \t\t\tsoulbounds.push(\\r\\n          ...\n      SWAP1 \t\t\tsoulbounds.push(\\r\\n          ...\n      PUSH 3\t\t\tsoulbounds.push(\\r\\n          ...\n      MUL \t\t\tsoulbounds.push(\\r\\n          ...\n      ADD \t\t\tsoulbounds.push(\\r\\n          ...\n      PUSH 0\t\t\tsoulbounds.push(\\r\\n          ...\n      SWAP1 \t\t\tsoulbounds.push(\\r\\n          ...\n      SWAP2 \t\t\tsoulbounds.push(\\r\\n          ...\n      SWAP1 \t\t\tsoulbounds.push(\\r\\n          ...\n      SWAP2 \t\t\tsoulbounds.push(\\r\\n          ...\n      SWAP1 \t\t\tsoulbounds.push(\\r\\n          ...\n      SWAP2 \t\t\tsoulbounds.push(\\r\\n          ...\n      POP \t\t\tsoulbounds.push(\\r\\n          ...\n      PUSH 0\t\t\tsoulbounds.push(\\r\\n          ...\n      DUP3 \t\t\tsoulbounds.push(\\r\\n          ...\n      ADD \t\t\tsoulbounds.push(\\r\\n          ...\n      MLOAD \t\t\tsoulbounds.push(\\r\\n          ...\n      DUP2 \t\t\tsoulbounds.push(\\r\\n          ...\n      PUSH 0\t\t\tsoulbounds.push(\\r\\n          ...\n      ADD \t\t\tsoulbounds.push(\\r\\n          ...\n      SWAP1 \t\t\tsoulbounds.push(\\r\\n          ...\n      DUP2 \t\t\tsoulbounds.push(\\r\\n          ...\n      PUSH [tag] 67\t\t\tsoulbounds.push(\\r\\n          ...\n      SWAP2 \t\t\tsoulbounds.push(\\r\\n          ...\n      SWAP1 \t\t\tsoulbounds.push(\\r\\n          ...\n      PUSH [tag] 68\t\t\tsoulbounds.push(\\r\\n          ...\n      JUMP \t\t\tsoulbounds.push(\\r\\n          ...\n    tag 67\t\t\tsoulbounds.push(\\r\\n          ...\n      JUMPDEST \t\t\tsoulbounds.push(\\r\\n          ...\n      POP \t\t\tsoulbounds.push(\\r\\n          ...\n      PUSH 20\t\t\tsoulbounds.push(\\r\\n          ...\n      DUP3 \t\t\tsoulbounds.push(\\r\\n          ...\n      ADD \t\t\tsoulbounds.push(\\r\\n          ...\n      MLOAD \t\t\tsoulbounds.push(\\r\\n          ...\n      DUP2 \t\t\tsoulbounds.push(\\r\\n          ...\n      PUSH 1\t\t\tsoulbounds.push(\\r\\n          ...\n      ADD \t\t\tsoulbounds.push(\\r\\n          ...\n      SWAP1 \t\t\tsoulbounds.push(\\r\\n          ...\n      DUP2 \t\t\tsoulbounds.push(\\r\\n          ...\n      PUSH [tag] 69\t\t\tsoulbounds.push(\\r\\n          ...\n      SWAP2 \t\t\tsoulbounds.push(\\r\\n          ...\n      SWAP1 \t\t\tsoulbounds.push(\\r\\n          ...\n      PUSH [tag] 70\t\t\tsoulbounds.push(\\r\\n          ...\n      JUMP \t\t\tsoulbounds.push(\\r\\n          ...\n    tag 69\t\t\tsoulbounds.push(\\r\\n          ...\n      JUMPDEST \t\t\tsoulbounds.push(\\r\\n          ...\n      POP \t\t\tsoulbounds.push(\\r\\n          ...\n      PUSH 40\t\t\tsoulbounds.push(\\r\\n          ...\n      DUP3 \t\t\tsoulbounds.push(\\r\\n          ...\n      ADD \t\t\tsoulbounds.push(\\r\\n          ...\n      MLOAD \t\t\tsoulbounds.push(\\r\\n          ...\n      DUP2 \t\t\tsoulbounds.push(\\r\\n          ...\n      PUSH 2\t\t\tsoulbounds.push(\\r\\n          ...\n      ADD \t\t\tsoulbounds.push(\\r\\n          ...\n      SSTORE \t\t\tsoulbounds.push(\\r\\n          ...\n      POP \t\t\tsoulbounds.push(\\r\\n          ...\n      POP \t\t\tsoulbounds.push(\\r\\n          ...\n      DUP1 \t\t\tsoulboundIndex\n      PUSH 69603B7380CDBDD9614011D9148B6413D333A686DC8AD33304D95E2DDC3F5B57\t\t\tSoulboundHashSubmitted(\\r\\n   ...\n      DUP5 \t\t\tprj_id\n      DUP5 \t\t\tsoulbound_hash\n      TIMESTAMP \t\t\tblock.timestamp\n      PUSH 40\t\t\tSoulboundHashSubmitted(\\r\\n   ...\n      MLOAD \t\t\tSoulboundHashSubmitted(\\r\\n   ...\n      PUSH [tag] 71\t\t\tSoulboundHashSubmitted(\\r\\n   ...\n      SWAP4 \t\t\tSoulboundHashSubmitted(\\r\\n   ...\n      SWAP3 \t\t\tSoulboundHashSubmitted(\\r\\n   ...\n      SWAP2 \t\t\tSoulboundHashSubmitted(\\r\\n   ...\n      SWAP1 \t\t\tSoulboundHashSubmitted(\\r\\n   ...\n      PUSH [tag] 12\t\t\tSoulboundHashSubmitted(\\r\\n   ...\n      JUMP \t\t\tSoulboundHashSubmitted(\\r\\n   ...\n    tag 71\t\t\tSoulboundHashSubmitted(\\r\\n   ...\n      JUMPDEST \t\t\tSoulboundHashSubmitted(\\r\\n   ...\n      PUSH 40\t\t\tSoulboundHashSubmitted(\\r\\n   ...\n      MLOAD \t\t\tSoulboundHashSubmitted(\\r\\n   ...\n      DUP1 \t\t\tSoulboundHashSubmitted(\\r\\n   ...\n      SWAP2 \t\t\tSoulboundHashSubmitted(\\r\\n   ...\n      SUB \t\t\tSoulboundHashSubmitted(\\r\\n   ...\n      SWAP1 \t\t\tSoulboundHashSubmitted(\\r\\n   ...\n      LOG2 \t\t\tSoulboundHashSubmitted(\\r\\n   ...\n      POP \t\t\t{\\r\\n        require(bytes(prj...\n      POP \t\t\tfunction submitSoulboundHash(\\...\n      POP \t\t\tfunction submitSoulboundHash(\\...\n      JUMP \t\t\tfunction submitSoulboundHash(\\...\n    tag 23\t\t\tfunction getSoulbounds() publi...\n      JUMPDEST \t\t\tfunction getSoulbounds() publi...\n      PUSH 60\t\t\tSoulbound[] memory\n      PUSH 0\t\t\tsoulbounds\n      DUP1 \t\t\treturn soulbounds\n      SLOAD \t\t\treturn soulbounds\n      DUP1 \t\t\treturn soulbounds\n      PUSH 20\t\t\treturn soulbounds\n      MUL \t\t\treturn soulbounds\n      PUSH 20\t\t\treturn soulbounds\n      ADD \t\t\treturn soulbounds\n      PUSH 40\t\t\treturn soulbounds\n      MLOAD \t\t\treturn soulbounds\n      SWAP1 \t\t\treturn soulbounds\n      DUP2 \t\t\treturn soulbounds\n      ADD \t\t\treturn soulbounds\n      PUSH 40\t\t\treturn soulbounds\n      MSTORE \t\t\treturn soulbounds\n      DUP1 \t\t\treturn soulbounds\n      SWAP3 \t\t\treturn soulbounds\n      SWAP2 \t\t\treturn soulbounds\n      SWAP1 \t\t\treturn soulbounds\n      DUP2 \t\t\treturn soulbounds\n      DUP2 \t\t\treturn soulbounds\n      MSTORE \t\t\treturn soulbounds\n      PUSH 20\t\t\treturn soulbounds\n      ADD \t\t\treturn soulbounds\n      PUSH 0\t\t\treturn soulbounds\n      SWAP1 \t\t\treturn soulbounds\n    tag 73\t\t\treturn soulbounds\n      JUMPDEST \t\t\treturn soulbounds\n      DUP3 \t\t\treturn soulbounds\n      DUP3 \t\t\treturn soulbounds\n      LT \t\t\treturn soulbounds\n      ISZERO \t\t\treturn soulbounds\n      PUSH [tag] 74\t\t\treturn soulbounds\n      JUMPI \t\t\treturn soulbounds\n      DUP4 \t\t\treturn soulbounds\n      DUP3 \t\t\treturn soulbounds\n      SWAP1 \t\t\treturn soulbounds\n      PUSH 0\t\t\treturn soulbounds\n      MSTORE \t\t\treturn soulbounds\n      PUSH 20\t\t\treturn soulbounds\n      PUSH 0\t\t\treturn soulbounds\n      KECCAK256 \t\t\treturn soulbounds\n      SWAP1 \t\t\treturn soulbounds\n      PUSH 3\t\t\treturn soulbounds\n      MUL \t\t\treturn soulbounds\n      ADD \t\t\treturn soulbounds\n      PUSH 40\t\t\treturn soulbounds\n      MLOAD \t\t\treturn soulbounds\n      DUP1 \t\t\treturn soulbounds\n      PUSH 60\t\t\treturn soulbounds\n      ADD \t\t\treturn soulbounds\n      PUSH 40\t\t\treturn soulbounds\n      MSTORE \t\t\treturn soulbounds\n      SWAP1 \t\t\treturn soulbounds\n      DUP2 \t\t\treturn soulbounds\n      PUSH 0\t\t\treturn soulbounds\n      DUP3 \t\t\treturn soulbounds\n      ADD \t\t\treturn soulbounds\n      DUP1 \t\t\treturn soulbounds\n      SLOAD \t\t\treturn soulbounds\n      PUSH [tag] 76\t\t\treturn soulbounds\n      SWAP1 \t\t\treturn soulbounds\n      PUSH [tag] 29\t\t\treturn soulbounds\n      JUMP \t\t\treturn soulbounds\n    tag 76\t\t\treturn soulbounds\n      JUMPDEST \t\t\treturn soulbounds\n      DUP1 \t\t\treturn soulbounds\n      PUSH 1F\t\t\treturn soulbounds\n      ADD \t\t\treturn soulbounds\n      PUSH 20\t\t\treturn soulbounds\n      DUP1 \t\t\treturn soulbounds\n      SWAP2 \t\t\treturn soulbounds\n      DIV \t\t\treturn soulbounds\n      MUL \t\t\treturn soulbounds\n      PUSH 20\t\t\treturn soulbounds\n      ADD \t\t\treturn soulbounds\n      PUSH 40\t\t\treturn soulbounds\n      MLOAD \t\t\treturn soulbounds\n      SWAP1 \t\t\treturn soulbounds\n      DUP2 \t\t\treturn soulbounds\n      ADD \t\t\treturn soulbounds\n      PUSH 40\t\t\treturn soulbounds\n      MSTORE \t\t\treturn soulbounds\n      DUP1 \t\t\treturn soulbounds\n      SWAP3 \t\t\treturn soulbounds\n      SWAP2 \t\t\treturn soulbounds\n      SWAP1 \t\t\treturn soulbounds\n      DUP2 \t\t\treturn soulbounds\n      DUP2 \t\t\treturn soulbounds\n      MSTORE \t\t\treturn soulbounds\n      PUSH 20\t\t\treturn soulbounds\n      ADD \t\t\treturn soulbounds\n      DUP3 \t\t\treturn soulbounds\n      DUP1 \t\t\treturn soulbounds\n      SLOAD \t\t\treturn soulbounds\n      PUSH [tag] 77\t\t\treturn soulbounds\n      SWAP1 \t\t\treturn soulbounds\n      PUSH [tag] 29\t\t\treturn soulbounds\n      JUMP \t\t\treturn soulbounds\n    tag 77\t\t\treturn soulbounds\n      JUMPDEST \t\t\treturn soulbounds\n      DUP1 \t\t\treturn soulbounds\n      ISZERO \t\t\treturn soulbounds\n      PUSH [tag] 78\t\t\treturn soulbounds\n      JUMPI \t\t\treturn soulbounds\n      DUP1 \t\t\treturn soulbounds\n      PUSH 1F\t\t\treturn soulbounds\n      LT \t\t\treturn soulbounds\n      PUSH [tag] 79\t\t\treturn soulbounds\n      JUMPI \t\t\treturn soulbounds\n      PUSH 100\t\t\treturn soulbounds\n      DUP1 \t\t\treturn soulbounds\n      DUP4 \t\t\treturn soulbounds\n      SLOAD \t\t\treturn soulbounds\n      DIV \t\t\treturn soulbounds\n      MUL \t\t\treturn soulbounds\n      DUP4 \t\t\treturn soulbounds\n      MSTORE \t\t\treturn soulbounds\n      SWAP2 \t\t\treturn soulbounds\n      PUSH 20\t\t\treturn soulbounds\n      ADD \t\t\treturn soulbounds\n      SWAP2 \t\t\treturn soulbounds\n      PUSH [tag] 78\t\t\treturn soulbounds\n      JUMP \t\t\treturn soulbounds\n    tag 79\t\t\treturn soulbounds\n      JUMPDEST \t\t\treturn soulbounds\n      DUP3 \t\t\treturn soulbounds\n      ADD \t\t\treturn soulbounds\n      SWAP2 \t\t\treturn soulbounds\n      SWAP1 \t\t\treturn soulbounds\n      PUSH 0\t\t\treturn soulbounds\n      MSTORE \t\t\treturn soulbounds\n      PUSH 20\t\t\treturn soulbounds\n      PUSH 0\t\t\treturn soulbounds\n      KECCAK256 \t\t\treturn soulbounds\n      SWAP1 \t\t\treturn soulbounds\n    tag 80\t\t\treturn soulbounds\n      JUMPDEST \t\t\treturn soulbounds\n      DUP2 \t\t\treturn soulbounds\n      SLOAD \t\t\treturn soulbounds\n      DUP2 \t\t\treturn soulbounds\n      MSTORE \t\t\treturn soulbounds\n      SWAP1 \t\t\treturn soulbounds\n      PUSH 1\t\t\treturn soulbounds\n      ADD \t\t\treturn soulbounds\n      SWAP1 \t\t\treturn soulbounds\n      PUSH 20\t\t\treturn soulbounds\n      ADD \t\t\treturn soulbounds\n      DUP1 \t\t\treturn soulbounds\n      DUP4 \t\t\treturn soulbounds\n      GT \t\t\treturn soulbounds\n      PUSH [tag] 80\t\t\treturn soulbounds\n      JUMPI \t\t\treturn soulbounds\n      DUP3 \t\t\treturn soulbounds\n      SWAP1 \t\t\treturn soulbounds\n      SUB \t\t\treturn soulbounds\n      PUSH 1F\t\t\treturn soulbounds\n      AND \t\t\treturn soulbounds\n      DUP3 \t\t\treturn soulbounds\n      ADD \t\t\treturn soulbounds\n      SWAP2 \t\t\treturn soulbounds\n    tag 78\t\t\treturn soulbounds\n      JUMPDEST \t\t\treturn soulbounds\n      POP \t\t\treturn soulbounds\n      POP \t\t\treturn soulbounds\n      POP \t\t\treturn soulbounds\n      POP \t\t\treturn soulbounds\n      POP \t\t\treturn soulbounds\n      DUP2 \t\t\treturn soulbounds\n      MSTORE \t\t\treturn soulbounds\n      PUSH 20\t\t\treturn soulbounds\n      ADD \t\t\treturn soulbounds\n      PUSH 1\t\t\treturn soulbounds\n      DUP3 \t\t\treturn soulbounds\n      ADD \t\t\treturn soulbounds\n      DUP1 \t\t\treturn soulbounds\n      SLOAD \t\t\treturn soulbounds\n      PUSH [tag] 81\t\t\treturn soulbounds\n      SWAP1 \t\t\treturn soulbounds\n      PUSH [tag] 29\t\t\treturn soulbounds\n      JUMP \t\t\treturn soulbounds\n    tag 81\t\t\treturn soulbounds\n      JUMPDEST \t\t\treturn soulbounds\n      DUP1 \t\t\treturn soulbounds\n      PUSH 1F\t\t\treturn soulbounds\n      ADD \t\t\treturn soulbounds\n      PUSH 20\t\t\treturn soulbounds\n      DUP1 \t\t\treturn soulbounds\n      SWAP2 \t\t\treturn soulbounds\n      DIV \t\t\treturn soulbounds\n      MUL \t\t\treturn soulbounds\n      PUSH 20\t\t\treturn soulbounds\n      ADD \t\t\treturn soulbounds\n      PUSH 40\t\t\treturn soulbounds\n      MLOAD \t\t\treturn soulbounds\n      SWAP1 \t\t\treturn soulbounds\n      DUP2 \t\t\treturn soulbounds\n      ADD \t\t\treturn soulbounds\n      PUSH 40\t\t\treturn soulbounds\n      MSTORE \t\t\treturn soulbounds\n      DUP1 \t\t\treturn soulbounds\n      SWAP3 \t\t\treturn soulbounds\n      SWAP2 \t\t\treturn soulbounds\n      SWAP1 \t\t\treturn soulbounds\n      DUP2 \t\t\treturn soulbounds\n      DUP2 \t\t\treturn soulbounds\n      MSTORE \t\t\treturn soulbounds\n      PUSH 20\t\t\treturn soulbounds\n      ADD \t\t\treturn soulbounds\n      DUP3 \t\t\treturn soulbounds\n      DUP1 \t\t\treturn soulbounds\n      SLOAD \t\t\treturn soulbounds\n      PUSH [tag] 82\t\t\treturn soulbounds\n      SWAP1 \t\t\treturn soulbounds\n      PUSH [tag] 29\t\t\treturn soulbounds\n      JUMP \t\t\treturn soulbounds\n    tag 82\t\t\treturn soulbounds\n      JUMPDEST \t\t\treturn soulbounds\n      DUP1 \t\t\treturn soulbounds\n      ISZERO \t\t\treturn soulbounds\n      PUSH [tag] 83\t\t\treturn soulbounds\n      JUMPI \t\t\treturn soulbounds\n      DUP1 \t\t\treturn soulbounds\n      PUSH 1F\t\t\treturn soulbounds\n      LT \t\t\treturn soulbounds\n      PUSH [tag] 84\t\t\treturn soulbounds\n      JUMPI \t\t\treturn soulbounds\n      PUSH 100\t\t\treturn soulbounds\n      DUP1 \t\t\treturn soulbounds\n      DUP4 \t\t\treturn soulbounds\n      SLOAD \t\t\treturn soulbounds\n      DIV \t\t\treturn soulbounds\n      MUL \t\t\treturn soulbounds\n      DUP4 \t\t\treturn soulbounds\n      MSTORE \t\t\treturn soulbounds\n      SWAP2 \t\t\treturn soulbounds\n      PUSH 20\t\t\treturn soulbounds\n      ADD \t\t\treturn soulbounds\n      SWAP2 \t\t\treturn soulbounds\n      PUSH [tag] 83\t\t\treturn soulbounds\n      JUMP \t\t\treturn soulbounds\n    tag 84\t\t\treturn soulbounds\n      JUMPDEST \t\t\treturn soulbounds\n      DUP3 \t\t\treturn soulbounds\n      ADD \t\t\treturn soulbounds\n      SWAP2 \t\t\treturn soulbounds\n      SWAP1 \t\t\treturn soulbounds\n      PUSH 0\t\t\treturn soulbounds\n      MSTORE \t\t\treturn soulbounds\n      PUSH 20\t\t\treturn soulbounds\n      PUSH 0\t\t\treturn soulbounds\n      KECCAK256 \t\t\treturn soulbounds\n      SWAP1 \t\t\treturn soulbounds\n    tag 85\t\t\treturn soulbounds\n      JUMPDEST \t\t\treturn soulbounds\n      DUP2 \t\t\treturn soulbounds\n      SLOAD \t\t\treturn soulbounds\n      DUP2 \t\t\treturn soulbounds\n      MSTORE \t\t\treturn soulbounds\n      SWAP1 \t\t\treturn soulbounds\n      PUSH 1\t\t\treturn soulbounds\n      ADD \t\t\treturn soulbounds\n      SWAP1 \t\t\treturn soulbounds\n      PUSH 20\t\t\treturn soulbounds\n      ADD \t\t\treturn soulbounds\n      DUP1 \t\t\treturn soulbounds\n      DUP4 \t\t\treturn soulbounds\n      GT \t\t\treturn soulbounds\n      PUSH [tag] 85\t\t\treturn soulbounds\n      JUMPI \t\t\treturn soulbounds\n      DUP3 \t\t\treturn soulbounds\n      SWAP1 \t\t\treturn soulbounds\n      SUB \t\t\treturn soulbounds\n      PUSH 1F\t\t\treturn soulbounds\n      AND \t\t\treturn soulbounds\n      DUP3 \t\t\treturn soulbounds\n      ADD \t\t\treturn soulbounds\n      SWAP2 \t\t\treturn soulbounds\n    tag 83\t\t\treturn soulbounds\n      JUMPDEST \t\t\treturn soulbounds\n      POP \t\t\treturn soulbounds\n      POP \t\t\treturn soulbounds\n      POP \t\t\treturn soulbounds\n      POP \t\t\treturn soulbounds\n      POP \t\t\treturn soulbounds\n      DUP2 \t\t\treturn soulbounds\n      MSTORE \t\t\treturn soulbounds\n      PUSH 20\t\t\treturn soulbounds\n      ADD \t\t\treturn soulbounds\n      PUSH 2\t\t\treturn soulbounds\n      DUP3 \t\t\treturn soulbounds\n      ADD \t\t\treturn soulbounds\n      SLOAD \t\t\treturn soulbounds\n      DUP2 \t\t\treturn soulbounds\n      MSTORE \t\t\treturn soulbounds\n      POP \t\t\treturn soulbounds\n      POP \t\t\treturn soulbounds\n      DUP2 \t\t\treturn soulbounds\n      MSTORE \t\t\treturn soulbounds\n      PUSH 20\t\t\treturn soulbounds\n      ADD \t\t\treturn soulbounds\n      SWAP1 \t\t\treturn soulbounds\n      PUSH 1\t\t\treturn soulbounds\n      ADD \t\t\treturn soulbounds\n      SWAP1 \t\t\treturn soulbounds\n      PUSH [tag] 73\t\t\treturn soulbounds\n      JUMP \t\t\treturn soulbounds\n    tag 74\t\t\treturn soulbounds\n      JUMPDEST \t\t\treturn soulbounds\n      POP \t\t\treturn soulbounds\n      POP \t\t\treturn soulbounds\n      POP \t\t\treturn soulbounds\n      POP \t\t\treturn soulbounds\n      SWAP1 \t\t\treturn soulbounds\n      POP \t\t\treturn soulbounds\n      SWAP1 \t\t\tfunction getSoulbounds() publi...\n      JUMP \t\t\tfunction getSoulbounds() publi...\n    tag 40\t\t\t\n      JUMPDEST \t\t\t\n      PUSH 40\t\t\t\n      MLOAD \t\t\t\n      DUP1 \t\t\t\n      PUSH 60\t\t\t\n      ADD \t\t\t\n      PUSH 40\t\t\t\n      MSTORE \t\t\t\n      DUP1 \t\t\t\n      PUSH 60\t\t\t\n      DUP2 \t\t\t\n      MSTORE \t\t\t\n      PUSH 20\t\t\t\n      ADD \t\t\t\n      PUSH 60\t\t\t\n      DUP2 \t\t\t\n      MSTORE \t\t\t\n      PUSH 20\t\t\t\n      ADD \t\t\t\n      PUSH 0\t\t\t\n      DUP2 \t\t\t\n      MSTORE \t\t\t\n      POP \t\t\t\n      SWAP1 \t\t\t\n      JUMP \t\t\t\n    tag 86\t\t\t-License-Identifier: MIT\\r\\npr...\n      JUMPDEST \t\t\t-License-Identifier: MIT\\r\\npr...\n      PUSH 0\t\t\tsolidi\n      PUSH 40\t\t\tra\n      MLOAD \t\t\tt HederaS\n      SWAP1 \t\t\t\\n\\r\\ncontract HederaS\n      POP \t\t\t\\n\\r\\ncontract HederaS\n      SWAP1 \t\t\t-License-Identifier: MIT\\r\\npr...\n      JUMP \t\t\t-License-Identifier: MIT\\r\\npr...\n    tag 87\t\t\tract {\\r\\n    struct Soulbound...\n      JUMPDEST \t\t\tract {\\r\\n    struct Soulbound...\n      PUSH 0\t\t\ts\n      DUP1 \t\t\tm\n      REVERT \t\t\t256 submissi\n    tag 88\t\t\t  }\\r\\n\\r\\n    Soulbound[] pub...\n      JUMPDEST \t\t\t  }\\r\\n\\r\\n    Soulbound[] pub...\n      PUSH 0\t\t\to\n      DUP1 \t\t\tu\n      REVERT \t\t\texed soulbou\n    tag 89\t\t\t      string prj_id,\\r\\n      ...\n      JUMPDEST \t\t\t      string prj_id,\\r\\n      ...\n      PUSH 0\t\t\toulboun\n      DUP2 \t\t\t56 su\n      SWAP1 \t\t\t      uint256 su\n      POP \t\t\t      uint256 su\n      SWAP2 \t\t\t      string prj_id,\\r\\n      ...\n      SWAP1 \t\t\t      string prj_id,\\r\\n      ...\n      POP \t\t\t      string prj_id,\\r\\n      ...\n      JUMP \t\t\t      string prj_id,\\r\\n      ...\n    tag 90\t\t\te\\r\\n    );\\r\\n\\r\\n    functio...\n      JUMPDEST \t\t\te\\r\\n    );\\r\\n\\r\\n    functio...\n      PUSH [tag] 156\t\t\t_id,\\r\\n        bytes memo\n      DUP2 \t\t\ts mem\n      PUSH [tag] 89\t\t\t_id,\\r\\n        bytes memo\n      JUMP \t\t\t_id,\\r\\n        bytes memo\n    tag 156\t\t\t_id,\\r\\n        bytes memo\n      JUMPDEST \t\t\t_id,\\r\\n        bytes memo\n      DUP2 \t\t\tory p\n      EQ \t\t\tmemory prj_id,\\r\\n        byte...\n      PUSH [tag] 157\t\t\t   string memory prj_id,\\r\\n  ...\n      JUMPI \t\t\t   string memory prj_id,\\r\\n  ...\n      PUSH 0\t\t\ts\n      DUP1 \t\t\t_\n      REVERT \t\t\tulbound_hash\n    tag 157\t\t\t   string memory prj_id,\\r\\n  ...\n      JUMPDEST \t\t\t   string memory prj_id,\\r\\n  ...\n      POP \t\t\te\\r\\n    );\\r\\n\\r\\n    functio...\n      JUMP \t\t\te\\r\\n    );\\r\\n\\r\\n    functio...\n    tag 91\t\t\t {\\r\\n        require(bytes(pr...\n      JUMPDEST \t\t\t {\\r\\n        require(bytes(pr...\n      PUSH 0\t\t\t\"Proj\n      DUP2 \t\t\tequire\n      CALLDATALOAD \t\t\t);\\r\\n        require(\n      SWAP1 \t\t\tequired.\");\\r\\n        require...\n      POP \t\t\tequired.\");\\r\\n        require...\n      PUSH [tag] 159\t\t\t_hash.length == 32, \"Soulbound...\n      DUP2 \t\t\tund h\n      PUSH [tag] 90\t\t\t_hash.length == 32, \"Soulbound...\n      JUMP \t\t\t_hash.length == 32, \"Soulbound...\n    tag 159\t\t\t_hash.length == 32, \"Soulbound...\n      JUMPDEST \t\t\t_hash.length == 32, \"Soulbound...\n      SWAP3 \t\t\t {\\r\\n        require(bytes(pr...\n      SWAP2 \t\t\t {\\r\\n        require(bytes(pr...\n      POP \t\t\t {\\r\\n        require(bytes(pr...\n      POP \t\t\t {\\r\\n        require(bytes(pr...\n      JUMP \t\t\t {\\r\\n        require(bytes(pr...\n    tag 9\t\t\t2 bytes.\");\\r\\n\\r\\n        uin...\n      JUMPDEST \t\t\t2 bytes.\");\\r\\n\\r\\n        uin...\n      PUSH 0\t\t\tlength\n      PUSH 20\t\t\tSo\n      DUP3 \t\t\t         \n      DUP5 \t\t\ts.push(\n      SUB \t\t\tounds.push(\\r\\n          \n      SLT \t\t\toulbounds.push(\\r\\n           ...\n      ISZERO \t\t\t  soulbounds.push(\\r\\n        ...\n      PUSH [tag] 161\t\t\t  soulbounds.push(\\r\\n        ...\n      JUMPI \t\t\t  soulbounds.push(\\r\\n        ...\n      PUSH [tag] 162\t\t\tund({\\r\\n                prj_i...\n      PUSH [tag] 87\t\t\tund({\\r\\n                prj_i...\n      JUMP \t\t\tund({\\r\\n                prj_i...\n    tag 162\t\t\tund({\\r\\n                prj_i...\n      JUMPDEST \t\t\tund({\\r\\n                prj_i...\n    tag 161\t\t\t  soulbounds.push(\\r\\n        ...\n      JUMPDEST \t\t\t  soulbounds.push(\\r\\n        ...\n      PUSH 0\t\t\t:\n      PUSH [tag] 163\t\t\t      })\\r\\n        );\\r\\n\\r\\n...\n      DUP5 \t\t\tdHashSu\n      DUP3 \t\t\t Soulb\n      DUP6 \t\t\t       em\n      ADD \t\t\t\\n\\r\\n        emit Soulbo\n      PUSH [tag] 91\t\t\t      })\\r\\n        );\\r\\n\\r\\n...\n      JUMP \t\t\t      })\\r\\n        );\\r\\n\\r\\n...\n    tag 163\t\t\t      })\\r\\n        );\\r\\n\\r\\n...\n      JUMPDEST \t\t\t      })\\r\\n        );\\r\\n\\r\\n...\n      SWAP2 \t\t\tmp\\r\\n            })\\r\\n      ...\n      POP \t\t\tmp\\r\\n            })\\r\\n      ...\n      POP \t\t\t              submission_time:...\n      SWAP3 \t\t\t2 bytes.\");\\r\\n\\r\\n        uin...\n      SWAP2 \t\t\t2 bytes.\");\\r\\n\\r\\n        uin...\n      POP \t\t\t2 bytes.\");\\r\\n\\r\\n        uin...\n      POP \t\t\t2 bytes.\");\\r\\n\\r\\n        uin...\n      JUMP \t\t\t2 bytes.\");\\r\\n\\r\\n        uin...\n    tag 92\t\t\tulboundIndex,\\r\\n            p...\n      JUMPDEST \t\t\tulboundIndex,\\r\\n            p...\n      PUSH 0\t\t\tbound_\n      DUP2 \t\t\testam\n      MLOAD \t\t\tck.timestamp\n      SWAP1 \t\t\t       block.timestamp\n      POP \t\t\t       block.timestamp\n      SWAP2 \t\t\tulboundIndex,\\r\\n            p...\n      SWAP1 \t\t\tulboundIndex,\\r\\n            p...\n      POP \t\t\tulboundIndex,\\r\\n            p...\n      JUMP \t\t\tulboundIndex,\\r\\n            p...\n    tag 93\t\t\t\\n    }\\r\\n\\r\\n    function ge...\n      JUMPDEST \t\t\t\\n    }\\r\\n\\r\\n    function ge...\n      PUSH 0\t\t\t       retu\n      DUP3 \t\t\t\\r\\n    \n      DUP3 \t\t\t  }\n      MSTORE \t\t\tds;\\r\\n    }\\r\\n\\r\\n    f\n      PUSH 20\t\t\tsoul\n      DUP3 \t\t\tt25\n      ADD \t\t\t(uint256 soulb\n      SWAP1 \t\t\tetSoulboundById(uint256 soulb\n      POP \t\t\tetSoulboundById(uint256 soulb\n      SWAP3 \t\t\t\\n    }\\r\\n\\r\\n    function ge...\n      SWAP2 \t\t\t\\n    }\\r\\n\\r\\n    function ge...\n      POP \t\t\t\\n    }\\r\\n\\r\\n    function ge...\n      POP \t\t\t\\n    }\\r\\n\\r\\n    function ge...\n      JUMP \t\t\t\\n    }\\r\\n\\r\\n    function ge...\n    tag 94\t\t\tublic view returns (Soulbound ...\n      JUMPDEST \t\t\tublic view returns (Soulbound ...\n      DUP3 \t\t\tth, \"S\n      DUP2 \t\t\t.le\n      DUP4 \t\t\toun\n      MCOPY \t\t\t soulbounds.length, \"So\n      PUSH 0\t\t\t \n      DUP4 \t\t\t;\\r\\n   \n      DUP4 \t\t\tst.\n      ADD \t\t\t exist.\");\\r\\n    \n      MSTORE \t\t\toes not exist.\");\\r\\n        \n      POP \t\t\tublic view returns (Soulbound ...\n      POP \t\t\tublic view returns (Soulbound ...\n      POP \t\t\tublic view returns (Soulbound ...\n      JUMP \t\t\tublic view returns (Soulbound ...\n    tag 95\t\t\tunds[soulboundIndex];\\r\\n    }...\n      JUMPDEST \t\t\tunds[soulboundIndex];\\r\\n    }...\n      PUSH 0\t\t\t\n      PUSH 1F\t\t\t\n      NOT \t\t\t\n      PUSH 1F\t\t\t\n      DUP4 \t\t\t\n      ADD \t\t\t\n      AND \t\t\t\n      SWAP1 \t\t\t\n      POP \t\t\t\n      SWAP2 \t\t\tunds[soulboundIndex];\\r\\n    }...\n      SWAP1 \t\t\tunds[soulboundIndex];\\r\\n    }...\n      POP \t\t\tunds[soulboundIndex];\\r\\n    }...\n      JUMP \t\t\tunds[soulboundIndex];\\r\\n    }...\n    tag 96\t\t\t\n      JUMPDEST \t\t\t\n      PUSH 0\t\t\t\n      PUSH [tag] 169\t\t\t\n      DUP3 \t\t\t\n      PUSH [tag] 92\t\t\t\n      JUMP \t\t\t\n    tag 169\t\t\t\n      JUMPDEST \t\t\t\n      PUSH [tag] 170\t\t\t\n      DUP2 \t\t\t\n      DUP6 \t\t\t\n      PUSH [tag] 93\t\t\t\n      JUMP \t\t\t\n    tag 170\t\t\t\n      JUMPDEST \t\t\t\n      SWAP4 \t\t\t\n      POP \t\t\t\n      PUSH [tag] 171\t\t\t\n      DUP2 \t\t\t\n      DUP6 \t\t\t\n      PUSH 20\t\t\t\n      DUP7 \t\t\t\n      ADD \t\t\t\n      PUSH [tag] 94\t\t\t\n      JUMP \t\t\t\n    tag 171\t\t\t\n      JUMPDEST \t\t\t\n      PUSH [tag] 172\t\t\t\n      DUP2 \t\t\t\n      PUSH [tag] 95\t\t\t\n      JUMP \t\t\t\n    tag 172\t\t\t\n      JUMPDEST \t\t\t\n      DUP5 \t\t\t\n      ADD \t\t\t\n      SWAP2 \t\t\t\n      POP \t\t\t\n      POP \t\t\t\n      SWAP3 \t\t\t\n      SWAP2 \t\t\t\n      POP \t\t\t\n      POP \t\t\t\n      JUMP \t\t\t\n    tag 97\t\t\t\n      JUMPDEST \t\t\t\n      PUSH 0\t\t\t\n      DUP2 \t\t\t\n      MLOAD \t\t\t\n      SWAP1 \t\t\t\n      POP \t\t\t\n      SWAP2 \t\t\t\n      SWAP1 \t\t\t\n      POP \t\t\t\n      JUMP \t\t\t\n    tag 98\t\t\t\n      JUMPDEST \t\t\t\n      PUSH 0\t\t\t\n      DUP3 \t\t\t\n      DUP3 \t\t\t\n      MSTORE \t\t\t\n      PUSH 20\t\t\t\n      DUP3 \t\t\t\n      ADD \t\t\t\n      SWAP1 \t\t\t\n      POP \t\t\t\n      SWAP3 \t\t\t\n      SWAP2 \t\t\t\n      POP \t\t\t\n      POP \t\t\t\n      JUMP \t\t\t\n    tag 99\t\t\t\n      JUMPDEST \t\t\t\n      PUSH 0\t\t\t\n      PUSH [tag] 176\t\t\t\n      DUP3 \t\t\t\n      PUSH [tag] 97\t\t\t\n      JUMP \t\t\t\n    tag 176\t\t\t\n      JUMPDEST \t\t\t\n      PUSH [tag] 177\t\t\t\n      DUP2 \t\t\t\n      DUP6 \t\t\t\n      PUSH [tag] 98\t\t\t\n      JUMP \t\t\t\n    tag 177\t\t\t\n      JUMPDEST \t\t\t\n      SWAP4 \t\t\t\n      POP \t\t\t\n      PUSH [tag] 178\t\t\t\n      DUP2 \t\t\t\n      DUP6 \t\t\t\n      PUSH 20\t\t\t\n      DUP7 \t\t\t\n      ADD \t\t\t\n      PUSH [tag] 94\t\t\t\n      JUMP \t\t\t\n    tag 178\t\t\t\n      JUMPDEST \t\t\t\n      PUSH [tag] 179\t\t\t\n      DUP2 \t\t\t\n      PUSH [tag] 95\t\t\t\n      JUMP \t\t\t\n    tag 179\t\t\t\n      JUMPDEST \t\t\t\n      DUP5 \t\t\t\n      ADD \t\t\t\n      SWAP2 \t\t\t\n      POP \t\t\t\n      POP \t\t\t\n      SWAP3 \t\t\t\n      SWAP2 \t\t\t\n      POP \t\t\t\n      POP \t\t\t\n      JUMP \t\t\t\n    tag 100\t\t\t\n      JUMPDEST \t\t\t\n      PUSH [tag] 181\t\t\t\n      DUP2 \t\t\t\n      PUSH [tag] 89\t\t\t\n      JUMP \t\t\t\n    tag 181\t\t\t\n      JUMPDEST \t\t\t\n      DUP3 \t\t\t\n      MSTORE \t\t\t\n      POP \t\t\t\n      POP \t\t\t\n      JUMP \t\t\t\n    tag 12\t\t\t\n      JUMPDEST \t\t\t\n      PUSH 0\t\t\t\n      PUSH 60\t\t\t\n      DUP3 \t\t\t\n      ADD \t\t\t\n      SWAP1 \t\t\t\n      POP \t\t\t\n      DUP2 \t\t\t\n      DUP2 \t\t\t\n      SUB \t\t\t\n      PUSH 0\t\t\t\n      DUP4 \t\t\t\n      ADD \t\t\t\n      MSTORE \t\t\t\n      PUSH [tag] 183\t\t\t\n      DUP2 \t\t\t\n      DUP7 \t\t\t\n      PUSH [tag] 96\t\t\t\n      JUMP \t\t\t\n    tag 183\t\t\t\n      JUMPDEST \t\t\t\n      SWAP1 \t\t\t\n      POP \t\t\t\n      DUP2 \t\t\t\n      DUP2 \t\t\t\n      SUB \t\t\t\n      PUSH 20\t\t\t\n      DUP4 \t\t\t\n      ADD \t\t\t\n      MSTORE \t\t\t\n      PUSH [tag] 184\t\t\t\n      DUP2 \t\t\t\n      DUP6 \t\t\t\n      PUSH [tag] 99\t\t\t\n      JUMP \t\t\t\n    tag 184\t\t\t\n      JUMPDEST \t\t\t\n      SWAP1 \t\t\t\n      POP \t\t\t\n      PUSH [tag] 185\t\t\t\n      PUSH 40\t\t\t\n      DUP4 \t\t\t\n      ADD \t\t\t\n      DUP5 \t\t\t\n      PUSH [tag] 100\t\t\t\n      JUMP \t\t\t\n    tag 185\t\t\t\n      JUMPDEST \t\t\t\n      SWAP5 \t\t\t\n      SWAP4 \t\t\t\n      POP \t\t\t\n      POP \t\t\t\n      POP \t\t\t\n      POP \t\t\t\n      JUMP \t\t\t\n    tag 101\t\t\t\n      JUMPDEST \t\t\t\n      PUSH 0\t\t\t\n      DUP3 \t\t\t\n      DUP3 \t\t\t\n      MSTORE \t\t\t\n      PUSH 20\t\t\t\n      DUP3 \t\t\t\n      ADD \t\t\t\n      SWAP1 \t\t\t\n      POP \t\t\t\n      SWAP3 \t\t\t\n      SWAP2 \t\t\t\n      POP \t\t\t\n      POP \t\t\t\n      JUMP \t\t\t\n    tag 102\t\t\t\n      JUMPDEST \t\t\t\n      PUSH 0\t\t\t\n      PUSH [tag] 188\t\t\t\n      DUP3 \t\t\t\n      PUSH [tag] 92\t\t\t\n      JUMP \t\t\t\n    tag 188\t\t\t\n      JUMPDEST \t\t\t\n      PUSH [tag] 189\t\t\t\n      DUP2 \t\t\t\n      DUP6 \t\t\t\n      PUSH [tag] 101\t\t\t\n      JUMP \t\t\t\n    tag 189\t\t\t\n      JUMPDEST \t\t\t\n      SWAP4 \t\t\t\n      POP \t\t\t\n      PUSH [tag] 190\t\t\t\n      DUP2 \t\t\t\n      DUP6 \t\t\t\n      PUSH 20\t\t\t\n      DUP7 \t\t\t\n      ADD \t\t\t\n      PUSH [tag] 94\t\t\t\n      JUMP \t\t\t\n    tag 190\t\t\t\n      JUMPDEST \t\t\t\n      PUSH [tag] 191\t\t\t\n      DUP2 \t\t\t\n      PUSH [tag] 95\t\t\t\n      JUMP \t\t\t\n    tag 191\t\t\t\n      JUMPDEST \t\t\t\n      DUP5 \t\t\t\n      ADD \t\t\t\n      SWAP2 \t\t\t\n      POP \t\t\t\n      POP \t\t\t\n      SWAP3 \t\t\t\n      SWAP2 \t\t\t\n      POP \t\t\t\n      POP \t\t\t\n      JUMP \t\t\t\n    tag 103\t\t\t\n      JUMPDEST \t\t\t\n      PUSH 0\t\t\t\n      DUP3 \t\t\t\n      DUP3 \t\t\t\n      MSTORE \t\t\t\n      PUSH 20\t\t\t\n      DUP3 \t\t\t\n      ADD \t\t\t\n      SWAP1 \t\t\t\n      POP \t\t\t\n      SWAP3 \t\t\t\n      SWAP2 \t\t\t\n      POP \t\t\t\n      POP \t\t\t\n      JUMP \t\t\t\n    tag 104\t\t\t\n      JUMPDEST \t\t\t\n      PUSH 0\t\t\t\n      PUSH [tag] 194\t\t\t\n      DUP3 \t\t\t\n      PUSH [tag] 97\t\t\t\n      JUMP \t\t\t\n    tag 194\t\t\t\n      JUMPDEST \t\t\t\n      PUSH [tag] 195\t\t\t\n      DUP2 \t\t\t\n      DUP6 \t\t\t\n      PUSH [tag] 103\t\t\t\n      JUMP \t\t\t\n    tag 195\t\t\t\n      JUMPDEST \t\t\t\n      SWAP4 \t\t\t\n      POP \t\t\t\n      PUSH [tag] 196\t\t\t\n      DUP2 \t\t\t\n      DUP6 \t\t\t\n      PUSH 20\t\t\t\n      DUP7 \t\t\t\n      ADD \t\t\t\n      PUSH [tag] 94\t\t\t\n      JUMP \t\t\t\n    tag 196\t\t\t\n      JUMPDEST \t\t\t\n      PUSH [tag] 197\t\t\t\n      DUP2 \t\t\t\n      PUSH [tag] 95\t\t\t\n      JUMP \t\t\t\n    tag 197\t\t\t\n      JUMPDEST \t\t\t\n      DUP5 \t\t\t\n      ADD \t\t\t\n      SWAP2 \t\t\t\n      POP \t\t\t\n      POP \t\t\t\n      SWAP3 \t\t\t\n      SWAP2 \t\t\t\n      POP \t\t\t\n      POP \t\t\t\n      JUMP \t\t\t\n    tag 105\t\t\t\n      JUMPDEST \t\t\t\n      PUSH [tag] 199\t\t\t\n      DUP2 \t\t\t\n      PUSH [tag] 89\t\t\t\n      JUMP \t\t\t\n    tag 199\t\t\t\n      JUMPDEST \t\t\t\n      DUP3 \t\t\t\n      MSTORE \t\t\t\n      POP \t\t\t\n      POP \t\t\t\n      JUMP \t\t\t\n    tag 106\t\t\t\n      JUMPDEST \t\t\t\n      PUSH 0\t\t\t\n      PUSH 60\t\t\t\n      DUP4 \t\t\t\n      ADD \t\t\t\n      PUSH 0\t\t\t\n      DUP4 \t\t\t\n      ADD \t\t\t\n      MLOAD \t\t\t\n      DUP5 \t\t\t\n      DUP3 \t\t\t\n      SUB \t\t\t\n      PUSH 0\t\t\t\n      DUP7 \t\t\t\n      ADD \t\t\t\n      MSTORE \t\t\t\n      PUSH [tag] 201\t\t\t\n      DUP3 \t\t\t\n      DUP3 \t\t\t\n      PUSH [tag] 102\t\t\t\n      JUMP \t\t\t\n    tag 201\t\t\t\n      JUMPDEST \t\t\t\n      SWAP2 \t\t\t\n      POP \t\t\t\n      POP \t\t\t\n      PUSH 20\t\t\t\n      DUP4 \t\t\t\n      ADD \t\t\t\n      MLOAD \t\t\t\n      DUP5 \t\t\t\n      DUP3 \t\t\t\n      SUB \t\t\t\n      PUSH 20\t\t\t\n      DUP7 \t\t\t\n      ADD \t\t\t\n      MSTORE \t\t\t\n      PUSH [tag] 202\t\t\t\n      DUP3 \t\t\t\n      DUP3 \t\t\t\n      PUSH [tag] 104\t\t\t\n      JUMP \t\t\t\n    tag 202\t\t\t\n      JUMPDEST \t\t\t\n      SWAP2 \t\t\t\n      POP \t\t\t\n      POP \t\t\t\n      PUSH 40\t\t\t\n      DUP4 \t\t\t\n      ADD \t\t\t\n      MLOAD \t\t\t\n      PUSH [tag] 203\t\t\t\n      PUSH 40\t\t\t\n      DUP7 \t\t\t\n      ADD \t\t\t\n      DUP3 \t\t\t\n      PUSH [tag] 105\t\t\t\n      JUMP \t\t\t\n    tag 203\t\t\t\n      JUMPDEST \t\t\t\n      POP \t\t\t\n      DUP1 \t\t\t\n      SWAP2 \t\t\t\n      POP \t\t\t\n      POP \t\t\t\n      SWAP3 \t\t\t\n      SWAP2 \t\t\t\n      POP \t\t\t\n      POP \t\t\t\n      JUMP \t\t\t\n    tag 17\t\t\t\n      JUMPDEST \t\t\t\n      PUSH 0\t\t\t\n      PUSH 20\t\t\t\n      DUP3 \t\t\t\n      ADD \t\t\t\n      SWAP1 \t\t\t\n      POP \t\t\t\n      DUP2 \t\t\t\n      DUP2 \t\t\t\n      SUB \t\t\t\n      PUSH 0\t\t\t\n      DUP4 \t\t\t\n      ADD \t\t\t\n      MSTORE \t\t\t\n      PUSH [tag] 205\t\t\t\n      DUP2 \t\t\t\n      DUP5 \t\t\t\n      PUSH [tag] 106\t\t\t\n      JUMP \t\t\t\n    tag 205\t\t\t\n      JUMPDEST \t\t\t\n      SWAP1 \t\t\t\n      POP \t\t\t\n      SWAP3 \t\t\t\n      SWAP2 \t\t\t\n      POP \t\t\t\n      POP \t\t\t\n      JUMP \t\t\t\n    tag 107\t\t\t\n      JUMPDEST \t\t\t\n      PUSH 0\t\t\t\n      DUP1 \t\t\t\n      REVERT \t\t\t\n    tag 108\t\t\t\n      JUMPDEST \t\t\t\n      PUSH 0\t\t\t\n      DUP1 \t\t\t\n      REVERT \t\t\t\n    tag 109\t\t\t\n      JUMPDEST \t\t\t\n      PUSH 4E487B7100000000000000000000000000000000000000000000000000000000\t\t\t\n      PUSH 0\t\t\t\n      MSTORE \t\t\t\n      PUSH 41\t\t\t\n      PUSH 4\t\t\t\n      MSTORE \t\t\t\n      PUSH 24\t\t\t\n      PUSH 0\t\t\t\n      REVERT \t\t\t\n    tag 110\t\t\t\n      JUMPDEST \t\t\t\n      PUSH [tag] 210\t\t\t\n      DUP3 \t\t\t\n      PUSH [tag] 95\t\t\t\n      JUMP \t\t\t\n    tag 210\t\t\t\n      JUMPDEST \t\t\t\n      DUP2 \t\t\t\n      ADD \t\t\t\n      DUP2 \t\t\t\n      DUP2 \t\t\t\n      LT \t\t\t\n      PUSH FFFFFFFFFFFFFFFF\t\t\t\n      DUP3 \t\t\t\n      GT \t\t\t\n      OR \t\t\t\n      ISZERO \t\t\t\n      PUSH [tag] 211\t\t\t\n      JUMPI \t\t\t\n      PUSH [tag] 212\t\t\t\n      PUSH [tag] 109\t\t\t\n      JUMP \t\t\t\n    tag 212\t\t\t\n      JUMPDEST \t\t\t\n    tag 211\t\t\t\n      JUMPDEST \t\t\t\n      DUP1 \t\t\t\n      PUSH 40\t\t\t\n      MSTORE \t\t\t\n      POP \t\t\t\n      POP \t\t\t\n      POP \t\t\t\n      JUMP \t\t\t\n    tag 111\t\t\t\n      JUMPDEST \t\t\t\n      PUSH 0\t\t\t\n      PUSH [tag] 214\t\t\t\n      PUSH [tag] 86\t\t\t\n      JUMP \t\t\t\n    tag 214\t\t\t\n      JUMPDEST \t\t\t\n      SWAP1 \t\t\t\n      POP \t\t\t\n      PUSH [tag] 215\t\t\t\n      DUP3 \t\t\t\n      DUP3 \t\t\t\n      PUSH [tag] 110\t\t\t\n      JUMP \t\t\t\n    tag 215\t\t\t\n      JUMPDEST \t\t\t\n      SWAP2 \t\t\t\n      SWAP1 \t\t\t\n      POP \t\t\t\n      JUMP \t\t\t\n    tag 112\t\t\t\n      JUMPDEST \t\t\t\n      PUSH 0\t\t\t\n      PUSH FFFFFFFFFFFFFFFF\t\t\t\n      DUP3 \t\t\t\n      GT \t\t\t\n      ISZERO \t\t\t\n      PUSH [tag] 217\t\t\t\n      JUMPI \t\t\t\n      PUSH [tag] 218\t\t\t\n      PUSH [tag] 109\t\t\t\n      JUMP \t\t\t\n    tag 218\t\t\t\n      JUMPDEST \t\t\t\n    tag 217\t\t\t\n      JUMPDEST \t\t\t\n      PUSH [tag] 219\t\t\t\n      DUP3 \t\t\t\n      PUSH [tag] 95\t\t\t\n      JUMP \t\t\t\n    tag 219\t\t\t\n      JUMPDEST \t\t\t\n      SWAP1 \t\t\t\n      POP \t\t\t\n      PUSH 20\t\t\t\n      DUP2 \t\t\t\n      ADD \t\t\t\n      SWAP1 \t\t\t\n      POP \t\t\t\n      SWAP2 \t\t\t\n      SWAP1 \t\t\t\n      POP \t\t\t\n      JUMP \t\t\t\n    tag 113\t\t\t\n      JUMPDEST \t\t\t\n      DUP3 \t\t\t\n      DUP2 \t\t\t\n      DUP4 \t\t\t\n      CALLDATACOPY \t\t\t\n      PUSH 0\t\t\t\n      DUP4 \t\t\t\n      DUP4 \t\t\t\n      ADD \t\t\t\n      MSTORE \t\t\t\n      POP \t\t\t\n      POP \t\t\t\n      POP \t\t\t\n      JUMP \t\t\t\n    tag 114\t\t\t\n      JUMPDEST \t\t\t\n      PUSH 0\t\t\t\n      PUSH [tag] 222\t\t\t\n      PUSH [tag] 223\t\t\t\n      DUP5 \t\t\t\n      PUSH [tag] 112\t\t\t\n      JUMP \t\t\t\n    tag 223\t\t\t\n      JUMPDEST \t\t\t\n      PUSH [tag] 111\t\t\t\n      JUMP \t\t\t\n    tag 222\t\t\t\n      JUMPDEST \t\t\t\n      SWAP1 \t\t\t\n      POP \t\t\t\n      DUP3 \t\t\t\n      DUP2 \t\t\t\n      MSTORE \t\t\t\n      PUSH 20\t\t\t\n      DUP2 \t\t\t\n      ADD \t\t\t\n      DUP5 \t\t\t\n      DUP5 \t\t\t\n      DUP5 \t\t\t\n      ADD \t\t\t\n      GT \t\t\t\n      ISZERO \t\t\t\n      PUSH [tag] 224\t\t\t\n      JUMPI \t\t\t\n      PUSH [tag] 225\t\t\t\n      PUSH [tag] 108\t\t\t\n      JUMP \t\t\t\n    tag 225\t\t\t\n      JUMPDEST \t\t\t\n    tag 224\t\t\t\n      JUMPDEST \t\t\t\n      PUSH [tag] 226\t\t\t\n      DUP5 \t\t\t\n      DUP3 \t\t\t\n      DUP6 \t\t\t\n      PUSH [tag] 113\t\t\t\n      JUMP \t\t\t\n    tag 226\t\t\t\n      JUMPDEST \t\t\t\n      POP \t\t\t\n      SWAP4 \t\t\t\n      SWAP3 \t\t\t\n      POP \t\t\t\n      POP \t\t\t\n      POP \t\t\t\n      JUMP \t\t\t\n    tag 115\t\t\t\n      JUMPDEST \t\t\t\n      PUSH 0\t\t\t\n      DUP3 \t\t\t\n      PUSH 1F\t\t\t\n      DUP4 \t\t\t\n      ADD \t\t\t\n      SLT \t\t\t\n      PUSH [tag] 228\t\t\t\n      JUMPI \t\t\t\n      PUSH [tag] 229\t\t\t\n      PUSH [tag] 107\t\t\t\n      JUMP \t\t\t\n    tag 229\t\t\t\n      JUMPDEST \t\t\t\n    tag 228\t\t\t\n      JUMPDEST \t\t\t\n      DUP2 \t\t\t\n      CALLDATALOAD \t\t\t\n      PUSH [tag] 230\t\t\t\n      DUP5 \t\t\t\n      DUP3 \t\t\t\n      PUSH 20\t\t\t\n      DUP7 \t\t\t\n      ADD \t\t\t\n      PUSH [tag] 114\t\t\t\n      JUMP \t\t\t\n    tag 230\t\t\t\n      JUMPDEST \t\t\t\n      SWAP2 \t\t\t\n      POP \t\t\t\n      POP \t\t\t\n      SWAP3 \t\t\t\n      SWAP2 \t\t\t\n      POP \t\t\t\n      POP \t\t\t\n      JUMP \t\t\t\n    tag 116\t\t\t\n      JUMPDEST \t\t\t\n      PUSH 0\t\t\t\n      PUSH FFFFFFFFFFFFFFFF\t\t\t\n      DUP3 \t\t\t\n      GT \t\t\t\n      ISZERO \t\t\t\n      PUSH [tag] 232\t\t\t\n      JUMPI \t\t\t\n      PUSH [tag] 233\t\t\t\n      PUSH [tag] 109\t\t\t\n      JUMP \t\t\t\n    tag 233\t\t\t\n      JUMPDEST \t\t\t\n    tag 232\t\t\t\n      JUMPDEST \t\t\t\n      PUSH [tag] 234\t\t\t\n      DUP3 \t\t\t\n      PUSH [tag] 95\t\t\t\n      JUMP \t\t\t\n    tag 234\t\t\t\n      JUMPDEST \t\t\t\n      SWAP1 \t\t\t\n      POP \t\t\t\n      PUSH 20\t\t\t\n      DUP2 \t\t\t\n      ADD \t\t\t\n      SWAP1 \t\t\t\n      POP \t\t\t\n      SWAP2 \t\t\t\n      SWAP1 \t\t\t\n      POP \t\t\t\n      JUMP \t\t\t\n    tag 117\t\t\t\n      JUMPDEST \t\t\t\n      PUSH 0\t\t\t\n      PUSH [tag] 236\t\t\t\n      PUSH [tag] 237\t\t\t\n      DUP5 \t\t\t\n      PUSH [tag] 116\t\t\t\n      JUMP \t\t\t\n    tag 237\t\t\t\n      JUMPDEST \t\t\t\n      PUSH [tag] 111\t\t\t\n      JUMP \t\t\t\n    tag 236\t\t\t\n      JUMPDEST \t\t\t\n      SWAP1 \t\t\t\n      POP \t\t\t\n      DUP3 \t\t\t\n      DUP2 \t\t\t\n      MSTORE \t\t\t\n      PUSH 20\t\t\t\n      DUP2 \t\t\t\n      ADD \t\t\t\n      DUP5 \t\t\t\n      DUP5 \t\t\t\n      DUP5 \t\t\t\n      ADD \t\t\t\n      GT \t\t\t\n      ISZERO \t\t\t\n      PUSH [tag] 238\t\t\t\n      JUMPI \t\t\t\n      PUSH [tag] 239\t\t\t\n      PUSH [tag] 108\t\t\t\n      JUMP \t\t\t\n    tag 239\t\t\t\n      JUMPDEST \t\t\t\n    tag 238\t\t\t\n      JUMPDEST \t\t\t\n      PUSH [tag] 240\t\t\t\n      DUP5 \t\t\t\n      DUP3 \t\t\t\n      DUP6 \t\t\t\n      PUSH [tag] 113\t\t\t\n      JUMP \t\t\t\n    tag 240\t\t\t\n      JUMPDEST \t\t\t\n      POP \t\t\t\n      SWAP4 \t\t\t\n      SWAP3 \t\t\t\n      POP \t\t\t\n      POP \t\t\t\n      POP \t\t\t\n      JUMP \t\t\t\n    tag 118\t\t\t\n      JUMPDEST \t\t\t\n      PUSH 0\t\t\t\n      DUP3 \t\t\t\n      PUSH 1F\t\t\t\n      DUP4 \t\t\t\n      ADD \t\t\t\n      SLT \t\t\t\n      PUSH [tag] 242\t\t\t\n      JUMPI \t\t\t\n      PUSH [tag] 243\t\t\t\n      PUSH [tag] 107\t\t\t\n      JUMP \t\t\t\n    tag 243\t\t\t\n      JUMPDEST \t\t\t\n    tag 242\t\t\t\n      JUMPDEST \t\t\t\n      DUP2 \t\t\t\n      CALLDATALOAD \t\t\t\n      PUSH [tag] 244\t\t\t\n      DUP5 \t\t\t\n      DUP3 \t\t\t\n      PUSH 20\t\t\t\n      DUP7 \t\t\t\n      ADD \t\t\t\n      PUSH [tag] 117\t\t\t\n      JUMP \t\t\t\n    tag 244\t\t\t\n      JUMPDEST \t\t\t\n      SWAP2 \t\t\t\n      POP \t\t\t\n      POP \t\t\t\n      SWAP3 \t\t\t\n      SWAP2 \t\t\t\n      POP \t\t\t\n      POP \t\t\t\n      JUMP \t\t\t\n    tag 20\t\t\t\n      JUMPDEST \t\t\t\n      PUSH 0\t\t\t\n      DUP1 \t\t\t\n      PUSH 40\t\t\t\n      DUP4 \t\t\t\n      DUP6 \t\t\t\n      SUB \t\t\t\n      SLT \t\t\t\n      ISZERO \t\t\t\n      PUSH [tag] 246\t\t\t\n      JUMPI \t\t\t\n      PUSH [tag] 247\t\t\t\n      PUSH [tag] 87\t\t\t\n      JUMP \t\t\t\n    tag 247\t\t\t\n      JUMPDEST \t\t\t\n    tag 246\t\t\t\n      JUMPDEST \t\t\t\n      PUSH 0\t\t\t\n      DUP4 \t\t\t\n      ADD \t\t\t\n      CALLDATALOAD \t\t\t\n      PUSH FFFFFFFFFFFFFFFF\t\t\t\n      DUP2 \t\t\t\n      GT \t\t\t\n      ISZERO \t\t\t\n      PUSH [tag] 248\t\t\t\n      JUMPI \t\t\t\n      PUSH [tag] 249\t\t\t\n      PUSH [tag] 88\t\t\t\n      JUMP \t\t\t\n    tag 249\t\t\t\n      JUMPDEST \t\t\t\n    tag 248\t\t\t\n      JUMPDEST \t\t\t\n      PUSH [tag] 250\t\t\t\n      DUP6 \t\t\t\n      DUP3 \t\t\t\n      DUP7 \t\t\t\n      ADD \t\t\t\n      PUSH [tag] 115\t\t\t\n      JUMP \t\t\t\n    tag 250\t\t\t\n      JUMPDEST \t\t\t\n      SWAP3 \t\t\t\n      POP \t\t\t\n      POP \t\t\t\n      PUSH 20\t\t\t\n      DUP4 \t\t\t\n      ADD \t\t\t\n      CALLDATALOAD \t\t\t\n      PUSH FFFFFFFFFFFFFFFF\t\t\t\n      DUP2 \t\t\t\n      GT \t\t\t\n      ISZERO \t\t\t\n      PUSH [tag] 251\t\t\t\n      JUMPI \t\t\t\n      PUSH [tag] 252\t\t\t\n      PUSH [tag] 88\t\t\t\n      JUMP \t\t\t\n    tag 252\t\t\t\n      JUMPDEST \t\t\t\n    tag 251\t\t\t\n      JUMPDEST \t\t\t\n      PUSH [tag] 253\t\t\t\n      DUP6 \t\t\t\n      DUP3 \t\t\t\n      DUP7 \t\t\t\n      ADD \t\t\t\n      PUSH [tag] 118\t\t\t\n      JUMP \t\t\t\n    tag 253\t\t\t\n      JUMPDEST \t\t\t\n      SWAP2 \t\t\t\n      POP \t\t\t\n      POP \t\t\t\n      SWAP3 \t\t\t\n      POP \t\t\t\n      SWAP3 \t\t\t\n      SWAP1 \t\t\t\n      POP \t\t\t\n      JUMP \t\t\t\n    tag 119\t\t\t\n      JUMPDEST \t\t\t\n      PUSH 0\t\t\t\n      DUP2 \t\t\t\n      MLOAD \t\t\t\n      SWAP1 \t\t\t\n      POP \t\t\t\n      SWAP2 \t\t\t\n      SWAP1 \t\t\t\n      POP \t\t\t\n      JUMP \t\t\t\n    tag 120\t\t\t\n      JUMPDEST \t\t\t\n      PUSH 0\t\t\t\n      DUP3 \t\t\t\n      DUP3 \t\t\t\n      MSTORE \t\t\t\n      PUSH 20\t\t\t\n      DUP3 \t\t\t\n      ADD \t\t\t\n      SWAP1 \t\t\t\n      POP \t\t\t\n      SWAP3 \t\t\t\n      SWAP2 \t\t\t\n      POP \t\t\t\n      POP \t\t\t\n      JUMP \t\t\t\n    tag 121\t\t\t\n      JUMPDEST \t\t\t\n      PUSH 0\t\t\t\n      DUP2 \t\t\t\n      SWAP1 \t\t\t\n      POP \t\t\t\n      PUSH 20\t\t\t\n      DUP3 \t\t\t\n      ADD \t\t\t\n      SWAP1 \t\t\t\n      POP \t\t\t\n      SWAP2 \t\t\t\n      SWAP1 \t\t\t\n      POP \t\t\t\n      JUMP \t\t\t\n    tag 122\t\t\t\n      JUMPDEST \t\t\t\n      PUSH 0\t\t\t\n      PUSH 60\t\t\t\n      DUP4 \t\t\t\n      ADD \t\t\t\n      PUSH 0\t\t\t\n      DUP4 \t\t\t\n      ADD \t\t\t\n      MLOAD \t\t\t\n      DUP5 \t\t\t\n      DUP3 \t\t\t\n      SUB \t\t\t\n      PUSH 0\t\t\t\n      DUP7 \t\t\t\n      ADD \t\t\t\n      MSTORE \t\t\t\n      PUSH [tag] 258\t\t\t\n      DUP3 \t\t\t\n      DUP3 \t\t\t\n      PUSH [tag] 102\t\t\t\n      JUMP \t\t\t\n    tag 258\t\t\t\n      JUMPDEST \t\t\t\n      SWAP2 \t\t\t\n      POP \t\t\t\n      POP \t\t\t\n      PUSH 20\t\t\t\n      DUP4 \t\t\t\n      ADD \t\t\t\n      MLOAD \t\t\t\n      DUP5 \t\t\t\n      DUP3 \t\t\t\n      SUB \t\t\t\n      PUSH 20\t\t\t\n      DUP7 \t\t\t\n      ADD \t\t\t\n      MSTORE \t\t\t\n      PUSH [tag] 259\t\t\t\n      DUP3 \t\t\t\n      DUP3 \t\t\t\n      PUSH [tag] 104\t\t\t\n      JUMP \t\t\t\n    tag 259\t\t\t\n      JUMPDEST \t\t\t\n      SWAP2 \t\t\t\n      POP \t\t\t\n      POP \t\t\t\n      PUSH 40\t\t\t\n      DUP4 \t\t\t\n      ADD \t\t\t\n      MLOAD \t\t\t\n      PUSH [tag] 260\t\t\t\n      PUSH 40\t\t\t\n      DUP7 \t\t\t\n      ADD \t\t\t\n      DUP3 \t\t\t\n      PUSH [tag] 105\t\t\t\n      JUMP \t\t\t\n    tag 260\t\t\t\n      JUMPDEST \t\t\t\n      POP \t\t\t\n      DUP1 \t\t\t\n      SWAP2 \t\t\t\n      POP \t\t\t\n      POP \t\t\t\n      SWAP3 \t\t\t\n      SWAP2 \t\t\t\n      POP \t\t\t\n      POP \t\t\t\n      JUMP \t\t\t\n    tag 123\t\t\t\n      JUMPDEST \t\t\t\n      PUSH 0\t\t\t\n      PUSH [tag] 262\t\t\t\n      DUP4 \t\t\t\n      DUP4 \t\t\t\n      PUSH [tag] 122\t\t\t\n      JUMP \t\t\t\n    tag 262\t\t\t\n      JUMPDEST \t\t\t\n      SWAP1 \t\t\t\n      POP \t\t\t\n      SWAP3 \t\t\t\n      SWAP2 \t\t\t\n      POP \t\t\t\n      POP \t\t\t\n      JUMP \t\t\t\n    tag 124\t\t\t\n      JUMPDEST \t\t\t\n      PUSH 0\t\t\t\n      PUSH 20\t\t\t\n      DUP3 \t\t\t\n      ADD \t\t\t\n      SWAP1 \t\t\t\n      POP \t\t\t\n      SWAP2 \t\t\t\n      SWAP1 \t\t\t\n      POP \t\t\t\n      JUMP \t\t\t\n    tag 125\t\t\t\n      JUMPDEST \t\t\t\n      PUSH 0\t\t\t\n      PUSH [tag] 265\t\t\t\n      DUP3 \t\t\t\n      PUSH [tag] 119\t\t\t\n      JUMP \t\t\t\n    tag 265\t\t\t\n      JUMPDEST \t\t\t\n      PUSH [tag] 266\t\t\t\n      DUP2 \t\t\t\n      DUP6 \t\t\t\n      PUSH [tag] 120\t\t\t\n      JUMP \t\t\t\n    tag 266\t\t\t\n      JUMPDEST \t\t\t\n      SWAP4 \t\t\t\n      POP \t\t\t\n      DUP4 \t\t\t\n      PUSH 20\t\t\t\n      DUP3 \t\t\t\n      MUL \t\t\t\n      DUP6 \t\t\t\n      ADD \t\t\t\n      PUSH [tag] 267\t\t\t\n      DUP6 \t\t\t\n      PUSH [tag] 121\t\t\t\n      JUMP \t\t\t\n    tag 267\t\t\t\n      JUMPDEST \t\t\t\n      DUP1 \t\t\t\n      PUSH 0\t\t\t\n    tag 268\t\t\t\n      JUMPDEST \t\t\t\n      DUP6 \t\t\t\n      DUP2 \t\t\t\n      LT \t\t\t\n      ISZERO \t\t\t\n      PUSH [tag] 270\t\t\t\n      JUMPI \t\t\t\n      DUP5 \t\t\t\n      DUP5 \t\t\t\n      SUB \t\t\t\n      DUP10 \t\t\t\n      MSTORE \t\t\t\n      DUP2 \t\t\t\n      MLOAD \t\t\t\n      PUSH [tag] 271\t\t\t\n      DUP6 \t\t\t\n      DUP3 \t\t\t\n      PUSH [tag] 123\t\t\t\n      JUMP \t\t\t\n    tag 271\t\t\t\n      JUMPDEST \t\t\t\n      SWAP5 \t\t\t\n      POP \t\t\t\n      PUSH [tag] 272\t\t\t\n      DUP4 \t\t\t\n      PUSH [tag] 124\t\t\t\n      JUMP \t\t\t\n    tag 272\t\t\t\n      JUMPDEST \t\t\t\n      SWAP3 \t\t\t\n      POP \t\t\t\n      PUSH 20\t\t\t\n      DUP11 \t\t\t\n      ADD \t\t\t\n      SWAP10 \t\t\t\n      POP \t\t\t\n      POP \t\t\t\n      PUSH 1\t\t\t\n      DUP2 \t\t\t\n      ADD \t\t\t\n      SWAP1 \t\t\t\n      POP \t\t\t\n      PUSH [tag] 268\t\t\t\n      JUMP \t\t\t\n    tag 270\t\t\t\n      JUMPDEST \t\t\t\n      POP \t\t\t\n      DUP3 \t\t\t\n      SWAP8 \t\t\t\n      POP \t\t\t\n      DUP8 \t\t\t\n      SWAP6 \t\t\t\n      POP \t\t\t\n      POP \t\t\t\n      POP \t\t\t\n      POP \t\t\t\n      POP \t\t\t\n      POP \t\t\t\n      SWAP3 \t\t\t\n      SWAP2 \t\t\t\n      POP \t\t\t\n      POP \t\t\t\n      JUMP \t\t\t\n    tag 25\t\t\t\n      JUMPDEST \t\t\t\n      PUSH 0\t\t\t\n      PUSH 20\t\t\t\n      DUP3 \t\t\t\n      ADD \t\t\t\n      SWAP1 \t\t\t\n      POP \t\t\t\n      DUP2 \t\t\t\n      DUP2 \t\t\t\n      SUB \t\t\t\n      PUSH 0\t\t\t\n      DUP4 \t\t\t\n      ADD \t\t\t\n      MSTORE \t\t\t\n      PUSH [tag] 274\t\t\t\n      DUP2 \t\t\t\n      DUP5 \t\t\t\n      PUSH [tag] 125\t\t\t\n      JUMP \t\t\t\n    tag 274\t\t\t\n      JUMPDEST \t\t\t\n      SWAP1 \t\t\t\n      POP \t\t\t\n      SWAP3 \t\t\t\n      SWAP2 \t\t\t\n      POP \t\t\t\n      POP \t\t\t\n      JUMP \t\t\t\n    tag 126\t\t\t\n      JUMPDEST \t\t\t\n      PUSH 4E487B7100000000000000000000000000000000000000000000000000000000\t\t\t\n      PUSH 0\t\t\t\n      MSTORE \t\t\t\n      PUSH 22\t\t\t\n      PUSH 4\t\t\t\n      MSTORE \t\t\t\n      PUSH 24\t\t\t\n      PUSH 0\t\t\t\n      REVERT \t\t\t\n    tag 29\t\t\t\n      JUMPDEST \t\t\t\n      PUSH 0\t\t\t\n      PUSH 2\t\t\t\n      DUP3 \t\t\t\n      DIV \t\t\t\n      SWAP1 \t\t\t\n      POP \t\t\t\n      PUSH 1\t\t\t\n      DUP3 \t\t\t\n      AND \t\t\t\n      DUP1 \t\t\t\n      PUSH [tag] 277\t\t\t\n      JUMPI \t\t\t\n      PUSH 7F\t\t\t\n      DUP3 \t\t\t\n      AND \t\t\t\n      SWAP2 \t\t\t\n      POP \t\t\t\n    tag 277\t\t\t\n      JUMPDEST \t\t\t\n      PUSH 20\t\t\t\n      DUP3 \t\t\t\n      LT \t\t\t\n      DUP2 \t\t\t\n      SUB \t\t\t\n      PUSH [tag] 278\t\t\t\n      JUMPI \t\t\t\n      PUSH [tag] 279\t\t\t\n      PUSH [tag] 126\t\t\t\n      JUMP \t\t\t\n    tag 279\t\t\t\n      JUMPDEST \t\t\t\n    tag 278\t\t\t\n      JUMPDEST \t\t\t\n      POP \t\t\t\n      SWAP2 \t\t\t\n      SWAP1 \t\t\t\n      POP \t\t\t\n      JUMP \t\t\t\n    tag 127\t\t\t\n      JUMPDEST \t\t\t\n      PUSH 536F756C626F756E6420646F6573206E6F742065786973742E00000000000000\t\t\t\n      PUSH 0\t\t\t\n      DUP3 \t\t\t\n      ADD \t\t\t\n      MSTORE \t\t\t\n      POP \t\t\t\n      JUMP \t\t\t\n    tag 128\t\t\t\n      JUMPDEST \t\t\t\n      PUSH 0\t\t\t\n      PUSH [tag] 282\t\t\t\n      PUSH 19\t\t\t\n      DUP4 \t\t\t\n      PUSH [tag] 93\t\t\t\n      JUMP \t\t\t\n    tag 282\t\t\t\n      JUMPDEST \t\t\t\n      SWAP2 \t\t\t\n      POP \t\t\t\n      PUSH [tag] 283\t\t\t\n      DUP3 \t\t\t\n      PUSH [tag] 127\t\t\t\n      JUMP \t\t\t\n    tag 283\t\t\t\n      JUMPDEST \t\t\t\n      PUSH 20\t\t\t\n      DUP3 \t\t\t\n      ADD \t\t\t\n      SWAP1 \t\t\t\n      POP \t\t\t\n      SWAP2 \t\t\t\n      SWAP1 \t\t\t\n      POP \t\t\t\n      JUMP \t\t\t\n    tag 44\t\t\t\n      JUMPDEST \t\t\t\n      PUSH 0\t\t\t\n      PUSH 20\t\t\t\n      DUP3 \t\t\t\n      ADD \t\t\t\n      SWAP1 \t\t\t\n      POP \t\t\t\n      DUP2 \t\t\t\n      DUP2 \t\t\t\n      SUB \t\t\t\n      PUSH 0\t\t\t\n      DUP4 \t\t\t\n      ADD \t\t\t\n      MSTORE \t\t\t\n      PUSH [tag] 285\t\t\t\n      DUP2 \t\t\t\n      PUSH [tag] 128\t\t\t\n      JUMP \t\t\t\n    tag 285\t\t\t\n      JUMPDEST \t\t\t\n      SWAP1 \t\t\t\n      POP \t\t\t\n      SWAP2 \t\t\t\n      SWAP1 \t\t\t\n      POP \t\t\t\n      JUMP \t\t\t\n    tag 47\t\t\t\n      JUMPDEST \t\t\t\n      PUSH 4E487B7100000000000000000000000000000000000000000000000000000000\t\t\t\n      PUSH 0\t\t\t\n      MSTORE \t\t\t\n      PUSH 32\t\t\t\n      PUSH 4\t\t\t\n      MSTORE \t\t\t\n      PUSH 24\t\t\t\n      PUSH 0\t\t\t\n      REVERT \t\t\t\n    tag 129\t\t\t\n      JUMPDEST \t\t\t\n      PUSH 50726F6A6563742049442069732072657175697265642E000000000000000000\t\t\t\n      PUSH 0\t\t\t\n      DUP3 \t\t\t\n      ADD \t\t\t\n      MSTORE \t\t\t\n      POP \t\t\t\n      JUMP \t\t\t\n    tag 130\t\t\t\n      JUMPDEST \t\t\t\n      PUSH 0\t\t\t\n      PUSH [tag] 289\t\t\t\n      PUSH 17\t\t\t\n      DUP4 \t\t\t\n      PUSH [tag] 93\t\t\t\n      JUMP \t\t\t\n    tag 289\t\t\t\n      JUMPDEST \t\t\t\n      SWAP2 \t\t\t\n      POP \t\t\t\n      PUSH [tag] 290\t\t\t\n      DUP3 \t\t\t\n      PUSH [tag] 129\t\t\t\n      JUMP \t\t\t\n    tag 290\t\t\t\n      JUMPDEST \t\t\t\n      PUSH 20\t\t\t\n      DUP3 \t\t\t\n      ADD \t\t\t\n      SWAP1 \t\t\t\n      POP \t\t\t\n      SWAP2 \t\t\t\n      SWAP1 \t\t\t\n      POP \t\t\t\n      JUMP \t\t\t\n    tag 62\t\t\t\n      JUMPDEST \t\t\t\n      PUSH 0\t\t\t\n      PUSH 20\t\t\t\n      DUP3 \t\t\t\n      ADD \t\t\t\n      SWAP1 \t\t\t\n      POP \t\t\t\n      DUP2 \t\t\t\n      DUP2 \t\t\t\n      SUB \t\t\t\n      PUSH 0\t\t\t\n      DUP4 \t\t\t\n      ADD \t\t\t\n      MSTORE \t\t\t\n      PUSH [tag] 292\t\t\t\n      DUP2 \t\t\t\n      PUSH [tag] 130\t\t\t\n      JUMP \t\t\t\n    tag 292\t\t\t\n      JUMPDEST \t\t\t\n      SWAP1 \t\t\t\n      POP \t\t\t\n      SWAP2 \t\t\t\n      SWAP1 \t\t\t\n      POP \t\t\t\n      JUMP \t\t\t\n    tag 131\t\t\t\n      JUMPDEST \t\t\t\n      PUSH 536F756C626F756E642068617368206D7573742062652033322062797465732E\t\t\t\n      PUSH 0\t\t\t\n      DUP3 \t\t\t\n      ADD \t\t\t\n      MSTORE \t\t\t\n      POP \t\t\t\n      JUMP \t\t\t\n    tag 132\t\t\t\n      JUMPDEST \t\t\t\n      PUSH 0\t\t\t\n      PUSH [tag] 295\t\t\t\n      PUSH 20\t\t\t\n      DUP4 \t\t\t\n      PUSH [tag] 93\t\t\t\n      JUMP \t\t\t\n    tag 295\t\t\t\n      JUMPDEST \t\t\t\n      SWAP2 \t\t\t\n      POP \t\t\t\n      PUSH [tag] 296\t\t\t\n      DUP3 \t\t\t\n      PUSH [tag] 131\t\t\t\n      JUMP \t\t\t\n    tag 296\t\t\t\n      JUMPDEST \t\t\t\n      PUSH 20\t\t\t\n      DUP3 \t\t\t\n      ADD \t\t\t\n      SWAP1 \t\t\t\n      POP \t\t\t\n      SWAP2 \t\t\t\n      SWAP1 \t\t\t\n      POP \t\t\t\n      JUMP \t\t\t\n    tag 65\t\t\t\n      JUMPDEST \t\t\t\n      PUSH 0\t\t\t\n      PUSH 20\t\t\t\n      DUP3 \t\t\t\n      ADD \t\t\t\n      SWAP1 \t\t\t\n      POP \t\t\t\n      DUP2 \t\t\t\n      DUP2 \t\t\t\n      SUB \t\t\t\n      PUSH 0\t\t\t\n      DUP4 \t\t\t\n      ADD \t\t\t\n      MSTORE \t\t\t\n      PUSH [tag] 298\t\t\t\n      DUP2 \t\t\t\n      PUSH [tag] 132\t\t\t\n      JUMP \t\t\t\n    tag 298\t\t\t\n      JUMPDEST \t\t\t\n      SWAP1 \t\t\t\n      POP \t\t\t\n      SWAP2 \t\t\t\n      SWAP1 \t\t\t\n      POP \t\t\t\n      JUMP \t\t\t\n    tag 133\t\t\t\n      JUMPDEST \t\t\t\n      PUSH 0\t\t\t\n      DUP2 \t\t\t\n      SWAP1 \t\t\t\n      POP \t\t\t\n      DUP2 \t\t\t\n      PUSH 0\t\t\t\n      MSTORE \t\t\t\n      PUSH 20\t\t\t\n      PUSH 0\t\t\t\n      KECCAK256 \t\t\t\n      SWAP1 \t\t\t\n      POP \t\t\t\n      SWAP2 \t\t\t\n      SWAP1 \t\t\t\n      POP \t\t\t\n      JUMP \t\t\t\n    tag 134\t\t\t\n      JUMPDEST \t\t\t\n      PUSH 0\t\t\t\n      PUSH 20\t\t\t\n      PUSH 1F\t\t\t\n      DUP4 \t\t\t\n      ADD \t\t\t\n      DIV \t\t\t\n      SWAP1 \t\t\t\n      POP \t\t\t\n      SWAP2 \t\t\t\n      SWAP1 \t\t\t\n      POP \t\t\t\n      JUMP \t\t\t\n    tag 135\t\t\t\n      JUMPDEST \t\t\t\n      PUSH 0\t\t\t\n      DUP3 \t\t\t\n      DUP3 \t\t\t\n      SHL \t\t\t\n      SWAP1 \t\t\t\n      POP \t\t\t\n      SWAP3 \t\t\t\n      SWAP2 \t\t\t\n      POP \t\t\t\n      POP \t\t\t\n      JUMP \t\t\t\n    tag 136\t\t\t\n      JUMPDEST \t\t\t\n      PUSH 0\t\t\t\n      PUSH 8\t\t\t\n      DUP4 \t\t\t\n      MUL \t\t\t\n      PUSH [tag] 303\t\t\t\n      PUSH FFFFFFFFFFFFFFFFFFFFFFFFFFFFFFFFFFFFFFFFFFFFFFFFFFFFFFFFFFFFFFFF\t\t\t\n      DUP3 \t\t\t\n      PUSH [tag] 135\t\t\t\n      JUMP \t\t\t\n    tag 303\t\t\t\n      JUMPDEST \t\t\t\n      PUSH [tag] 304\t\t\t\n      DUP7 \t\t\t\n      DUP4 \t\t\t\n      PUSH [tag] 135\t\t\t\n      JUMP \t\t\t\n    tag 304\t\t\t\n      JUMPDEST \t\t\t\n      SWAP6 \t\t\t\n      POP \t\t\t\n      DUP1 \t\t\t\n      NOT \t\t\t\n      DUP5 \t\t\t\n      AND \t\t\t\n      SWAP4 \t\t\t\n      POP \t\t\t\n      DUP1 \t\t\t\n      DUP7 \t\t\t\n      AND \t\t\t\n      DUP5 \t\t\t\n      OR \t\t\t\n      SWAP3 \t\t\t\n      POP \t\t\t\n      POP \t\t\t\n      POP \t\t\t\n      SWAP4 \t\t\t\n      SWAP3 \t\t\t\n      POP \t\t\t\n      POP \t\t\t\n      POP \t\t\t\n      JUMP \t\t\t\n    tag 137\t\t\t\n      JUMPDEST \t\t\t\n      PUSH 0\t\t\t\n      DUP2 \t\t\t\n      SWAP1 \t\t\t\n      POP \t\t\t\n      SWAP2 \t\t\t\n      SWAP1 \t\t\t\n      POP \t\t\t\n      JUMP \t\t\t\n    tag 138\t\t\t\n      JUMPDEST \t\t\t\n      PUSH 0\t\t\t\n      PUSH [tag] 307\t\t\t\n      PUSH [tag] 308\t\t\t\n      PUSH [tag] 309\t\t\t\n      DUP5 \t\t\t\n      PUSH [tag] 89\t\t\t\n      JUMP \t\t\t\n    tag 309\t\t\t\n      JUMPDEST \t\t\t\n      PUSH [tag] 137\t\t\t\n      JUMP \t\t\t\n    tag 308\t\t\t\n      JUMPDEST \t\t\t\n      PUSH [tag] 89\t\t\t\n      JUMP \t\t\t\n    tag 307\t\t\t\n      JUMPDEST \t\t\t\n      SWAP1 \t\t\t\n      POP \t\t\t\n      SWAP2 \t\t\t\n      SWAP1 \t\t\t\n      POP \t\t\t\n      JUMP \t\t\t\n    tag 139\t\t\t\n      JUMPDEST \t\t\t\n      PUSH 0\t\t\t\n      DUP2 \t\t\t\n      SWAP1 \t\t\t\n      POP \t\t\t\n      SWAP2 \t\t\t\n      SWAP1 \t\t\t\n      POP \t\t\t\n      JUMP \t\t\t\n    tag 140\t\t\t\n      JUMPDEST \t\t\t\n      PUSH [tag] 312\t\t\t\n      DUP4 \t\t\t\n      PUSH [tag] 138\t\t\t\n      JUMP \t\t\t\n    tag 312\t\t\t\n      JUMPDEST \t\t\t\n      PUSH [tag] 313\t\t\t\n      PUSH [tag] 314\t\t\t\n      DUP3 \t\t\t\n      PUSH [tag] 139\t\t\t\n      JUMP \t\t\t\n    tag 314\t\t\t\n      JUMPDEST \t\t\t\n      DUP5 \t\t\t\n      DUP5 \t\t\t\n      SLOAD \t\t\t\n      PUSH [tag] 136\t\t\t\n      JUMP \t\t\t\n    tag 313\t\t\t\n      JUMPDEST \t\t\t\n      DUP3 \t\t\t\n      SSTORE \t\t\t\n      POP \t\t\t\n      POP \t\t\t\n      POP \t\t\t\n      POP \t\t\t\n      JUMP \t\t\t\n    tag 141\t\t\t\n      JUMPDEST \t\t\t\n      PUSH 0\t\t\t\n      SWAP1 \t\t\t\n      JUMP \t\t\t\n    tag 142\t\t\t\n      JUMPDEST \t\t\t\n      PUSH [tag] 317\t\t\t\n      PUSH [tag] 141\t\t\t\n      JUMP \t\t\t\n    tag 317\t\t\t\n      JUMPDEST \t\t\t\n      PUSH [tag] 318\t\t\t\n      DUP2 \t\t\t\n      DUP5 \t\t\t\n      DUP5 \t\t\t\n      PUSH [tag] 140\t\t\t\n      JUMP \t\t\t\n    tag 318\t\t\t\n      JUMPDEST \t\t\t\n      POP \t\t\t\n      POP \t\t\t\n      POP \t\t\t\n      JUMP \t\t\t\n    tag 143\t\t\t\n      JUMPDEST \t\t\t\n    tag 320\t\t\t\n      JUMPDEST \t\t\t\n      DUP2 \t\t\t\n      DUP2 \t\t\t\n      LT \t\t\t\n      ISZERO \t\t\t\n      PUSH [tag] 322\t\t\t\n      JUMPI \t\t\t\n      PUSH [tag] 323\t\t\t\n      PUSH 0\t\t\t\n      DUP3 \t\t\t\n      PUSH [tag] 142\t\t\t\n      JUMP \t\t\t\n    tag 323\t\t\t\n      JUMPDEST \t\t\t\n      PUSH 1\t\t\t\n      DUP2 \t\t\t\n      ADD \t\t\t\n      SWAP1 \t\t\t\n      POP \t\t\t\n      PUSH [tag] 320\t\t\t\n      JUMP \t\t\t\n    tag 322\t\t\t\n      JUMPDEST \t\t\t\n      POP \t\t\t\n      POP \t\t\t\n      JUMP \t\t\t\n    tag 144\t\t\t\n      JUMPDEST \t\t\t\n      PUSH 1F\t\t\t\n      DUP3 \t\t\t\n      GT \t\t\t\n      ISZERO \t\t\t\n      PUSH [tag] 325\t\t\t\n      JUMPI \t\t\t\n      PUSH [tag] 326\t\t\t\n      DUP2 \t\t\t\n      PUSH [tag] 133\t\t\t\n      JUMP \t\t\t\n    tag 326\t\t\t\n      JUMPDEST \t\t\t\n      PUSH [tag] 327\t\t\t\n      DUP5 \t\t\t\n      PUSH [tag] 134\t\t\t\n      JUMP \t\t\t\n    tag 327\t\t\t\n      JUMPDEST \t\t\t\n      DUP2 \t\t\t\n      ADD \t\t\t\n      PUSH 20\t\t\t\n      DUP6 \t\t\t\n      LT \t\t\t\n      ISZERO \t\t\t\n      PUSH [tag] 328\t\t\t\n      JUMPI \t\t\t\n      DUP2 \t\t\t\n      SWAP1 \t\t\t\n      POP \t\t\t\n    tag 328\t\t\t\n      JUMPDEST \t\t\t\n      PUSH [tag] 329\t\t\t\n      PUSH [tag] 330\t\t\t\n      DUP6 \t\t\t\n      PUSH [tag] 134\t\t\t\n      JUMP \t\t\t\n    tag 330\t\t\t\n      JUMPDEST \t\t\t\n      DUP4 \t\t\t\n      ADD \t\t\t\n      DUP3 \t\t\t\n      PUSH [tag] 143\t\t\t\n      JUMP \t\t\t\n    tag 329\t\t\t\n      JUMPDEST \t\t\t\n      POP \t\t\t\n      POP \t\t\t\n    tag 325\t\t\t\n      JUMPDEST \t\t\t\n      POP \t\t\t\n      POP \t\t\t\n      POP \t\t\t\n      JUMP \t\t\t\n    tag 145\t\t\t\n      JUMPDEST \t\t\t\n      PUSH 0\t\t\t\n      DUP3 \t\t\t\n      DUP3 \t\t\t\n      SHR \t\t\t\n      SWAP1 \t\t\t\n      POP \t\t\t\n      SWAP3 \t\t\t\n      SWAP2 \t\t\t\n      POP \t\t\t\n      POP \t\t\t\n      JUMP \t\t\t\n    tag 146\t\t\t\n      JUMPDEST \t\t\t\n      PUSH 0\t\t\t\n      PUSH [tag] 333\t\t\t\n      PUSH 0\t\t\t\n      NOT \t\t\t\n      DUP5 \t\t\t\n      PUSH 8\t\t\t\n      MUL \t\t\t\n      PUSH [tag] 145\t\t\t\n      JUMP \t\t\t\n    tag 333\t\t\t\n      JUMPDEST \t\t\t\n      NOT \t\t\t\n      DUP1 \t\t\t\n      DUP4 \t\t\t\n      AND \t\t\t\n      SWAP2 \t\t\t\n      POP \t\t\t\n      POP \t\t\t\n      SWAP3 \t\t\t\n      SWAP2 \t\t\t\n      POP \t\t\t\n      POP \t\t\t\n      JUMP \t\t\t\n    tag 147\t\t\t\n      JUMPDEST \t\t\t\n      PUSH 0\t\t\t\n      PUSH [tag] 335\t\t\t\n      DUP4 \t\t\t\n      DUP4 \t\t\t\n      PUSH [tag] 146\t\t\t\n      JUMP \t\t\t\n    tag 335\t\t\t\n      JUMPDEST \t\t\t\n      SWAP2 \t\t\t\n      POP \t\t\t\n      DUP3 \t\t\t\n      PUSH 2\t\t\t\n      MUL \t\t\t\n      DUP3 \t\t\t\n      OR \t\t\t\n      SWAP1 \t\t\t\n      POP \t\t\t\n      SWAP3 \t\t\t\n      SWAP2 \t\t\t\n      POP \t\t\t\n      POP \t\t\t\n      JUMP \t\t\t\n    tag 68\t\t\t\n      JUMPDEST \t\t\t\n      PUSH [tag] 337\t\t\t\n      DUP3 \t\t\t\n      PUSH [tag] 92\t\t\t\n      JUMP \t\t\t\n    tag 337\t\t\t\n      JUMPDEST \t\t\t\n      PUSH FFFFFFFFFFFFFFFF\t\t\t\n      DUP2 \t\t\t\n      GT \t\t\t\n      ISZERO \t\t\t\n      PUSH [tag] 338\t\t\t\n      JUMPI \t\t\t\n      PUSH [tag] 339\t\t\t\n      PUSH [tag] 109\t\t\t\n      JUMP \t\t\t\n    tag 339\t\t\t\n      JUMPDEST \t\t\t\n    tag 338\t\t\t\n      JUMPDEST \t\t\t\n      PUSH [tag] 340\t\t\t\n      DUP3 \t\t\t\n      SLOAD \t\t\t\n      PUSH [tag] 29\t\t\t\n      JUMP \t\t\t\n    tag 340\t\t\t\n      JUMPDEST \t\t\t\n      PUSH [tag] 341\t\t\t\n      DUP3 \t\t\t\n      DUP3 \t\t\t\n      DUP6 \t\t\t\n      PUSH [tag] 144\t\t\t\n      JUMP \t\t\t\n    tag 341\t\t\t\n      JUMPDEST \t\t\t\n      PUSH 0\t\t\t\n      PUSH 20\t\t\t\n      SWAP1 \t\t\t\n      POP \t\t\t\n      PUSH 1F\t\t\t\n      DUP4 \t\t\t\n      GT \t\t\t\n      PUSH 1\t\t\t\n      DUP2 \t\t\t\n      EQ \t\t\t\n      PUSH [tag] 343\t\t\t\n      JUMPI \t\t\t\n      PUSH 0\t\t\t\n      DUP5 \t\t\t\n      ISZERO \t\t\t\n      PUSH [tag] 344\t\t\t\n      JUMPI \t\t\t\n      DUP3 \t\t\t\n      DUP8 \t\t\t\n      ADD \t\t\t\n      MLOAD \t\t\t\n      SWAP1 \t\t\t\n      POP \t\t\t\n    tag 344\t\t\t\n      JUMPDEST \t\t\t\n      PUSH [tag] 345\t\t\t\n      DUP6 \t\t\t\n      DUP3 \t\t\t\n      PUSH [tag] 147\t\t\t\n      JUMP \t\t\t\n    tag 345\t\t\t\n      JUMPDEST \t\t\t\n      DUP7 \t\t\t\n      SSTORE \t\t\t\n      POP \t\t\t\n      PUSH [tag] 342\t\t\t\n      JUMP \t\t\t\n    tag 343\t\t\t\n      JUMPDEST \t\t\t\n      PUSH 1F\t\t\t\n      NOT \t\t\t\n      DUP5 \t\t\t\n      AND \t\t\t\n      PUSH [tag] 346\t\t\t\n      DUP7 \t\t\t\n      PUSH [tag] 133\t\t\t\n      JUMP \t\t\t\n    tag 346\t\t\t\n      JUMPDEST \t\t\t\n      PUSH 0\t\t\t\n    tag 347\t\t\t\n      JUMPDEST \t\t\t\n      DUP3 \t\t\t\n      DUP2 \t\t\t\n      LT \t\t\t\n      ISZERO \t\t\t\n      PUSH [tag] 349\t\t\t\n      JUMPI \t\t\t\n      DUP5 \t\t\t\n      DUP10 \t\t\t\n      ADD \t\t\t\n      MLOAD \t\t\t\n      DUP3 \t\t\t\n      SSTORE \t\t\t\n      PUSH 1\t\t\t\n      DUP3 \t\t\t\n      ADD \t\t\t\n      SWAP2 \t\t\t\n      POP \t\t\t\n      PUSH 20\t\t\t\n      DUP6 \t\t\t\n      ADD \t\t\t\n      SWAP5 \t\t\t\n      POP \t\t\t\n      PUSH 20\t\t\t\n      DUP2 \t\t\t\n      ADD \t\t\t\n      SWAP1 \t\t\t\n      POP \t\t\t\n      PUSH [tag] 347\t\t\t\n      JUMP \t\t\t\n    tag 349\t\t\t\n      JUMPDEST \t\t\t\n      DUP7 \t\t\t\n      DUP4 \t\t\t\n      LT \t\t\t\n      ISZERO \t\t\t\n      PUSH [tag] 350\t\t\t\n      JUMPI \t\t\t\n      DUP5 \t\t\t\n      DUP10 \t\t\t\n      ADD \t\t\t\n      MLOAD \t\t\t\n      PUSH [tag] 351\t\t\t\n      PUSH 1F\t\t\t\n      DUP10 \t\t\t\n      AND \t\t\t\n      DUP3 \t\t\t\n      PUSH [tag] 146\t\t\t\n      JUMP \t\t\t\n    tag 351\t\t\t\n      JUMPDEST \t\t\t\n      DUP4 \t\t\t\n      SSTORE \t\t\t\n      POP \t\t\t\n    tag 350\t\t\t\n      JUMPDEST \t\t\t\n      PUSH 1\t\t\t\n      PUSH 2\t\t\t\n      DUP9 \t\t\t\n      MUL \t\t\t\n      ADD \t\t\t\n      DUP9 \t\t\t\n      SSTORE \t\t\t\n      POP \t\t\t\n      POP \t\t\t\n      POP \t\t\t\n    tag 342\t\t\t\n      JUMPDEST \t\t\t\n      POP \t\t\t\n      POP \t\t\t\n      POP \t\t\t\n      POP \t\t\t\n      POP \t\t\t\n      POP \t\t\t\n      JUMP \t\t\t\n    tag 148\t\t\t\n      JUMPDEST \t\t\t\n      PUSH 0\t\t\t\n      DUP2 \t\t\t\n      SWAP1 \t\t\t\n      POP \t\t\t\n      DUP2 \t\t\t\n      PUSH 0\t\t\t\n      MSTORE \t\t\t\n      PUSH 20\t\t\t\n      PUSH 0\t\t\t\n      KECCAK256 \t\t\t\n      SWAP1 \t\t\t\n      POP \t\t\t\n      SWAP2 \t\t\t\n      SWAP1 \t\t\t\n      POP \t\t\t\n      JUMP \t\t\t\n    tag 149\t\t\t\n      JUMPDEST \t\t\t\n      PUSH 1F\t\t\t\n      DUP3 \t\t\t\n      GT \t\t\t\n      ISZERO \t\t\t\n      PUSH [tag] 354\t\t\t\n      JUMPI \t\t\t\n      PUSH [tag] 355\t\t\t\n      DUP2 \t\t\t\n      PUSH [tag] 148\t\t\t\n      JUMP \t\t\t\n    tag 355\t\t\t\n      JUMPDEST \t\t\t\n      PUSH [tag] 356\t\t\t\n      DUP5 \t\t\t\n      PUSH [tag] 134\t\t\t\n      JUMP \t\t\t\n    tag 356\t\t\t\n      JUMPDEST \t\t\t\n      DUP2 \t\t\t\n      ADD \t\t\t\n      PUSH 20\t\t\t\n      DUP6 \t\t\t\n      LT \t\t\t\n      ISZERO \t\t\t\n      PUSH [tag] 357\t\t\t\n      JUMPI \t\t\t\n      DUP2 \t\t\t\n      SWAP1 \t\t\t\n      POP \t\t\t\n    tag 357\t\t\t\n      JUMPDEST \t\t\t\n      PUSH [tag] 358\t\t\t\n      PUSH [tag] 359\t\t\t\n      DUP6 \t\t\t\n      PUSH [tag] 134\t\t\t\n      JUMP \t\t\t\n    tag 359\t\t\t\n      JUMPDEST \t\t\t\n      DUP4 \t\t\t\n      ADD \t\t\t\n      DUP3 \t\t\t\n      PUSH [tag] 143\t\t\t\n      JUMP \t\t\t\n    tag 358\t\t\t\n      JUMPDEST \t\t\t\n      POP \t\t\t\n      POP \t\t\t\n    tag 354\t\t\t\n      JUMPDEST \t\t\t\n      POP \t\t\t\n      POP \t\t\t\n      POP \t\t\t\n      JUMP \t\t\t\n    tag 70\t\t\t\n      JUMPDEST \t\t\t\n      PUSH [tag] 361\t\t\t\n      DUP3 \t\t\t\n      PUSH [tag] 97\t\t\t\n      JUMP \t\t\t\n    tag 361\t\t\t\n      JUMPDEST \t\t\t\n      PUSH FFFFFFFFFFFFFFFF\t\t\t\n      DUP2 \t\t\t\n      GT \t\t\t\n      ISZERO \t\t\t\n      PUSH [tag] 362\t\t\t\n      JUMPI \t\t\t\n      PUSH [tag] 363\t\t\t\n      PUSH [tag] 109\t\t\t\n      JUMP \t\t\t\n    tag 363\t\t\t\n      JUMPDEST \t\t\t\n    tag 362\t\t\t\n      JUMPDEST \t\t\t\n      PUSH [tag] 364\t\t\t\n      DUP3 \t\t\t\n      SLOAD \t\t\t\n      PUSH [tag] 29\t\t\t\n      JUMP \t\t\t\n    tag 364\t\t\t\n      JUMPDEST \t\t\t\n      PUSH [tag] 365\t\t\t\n      DUP3 \t\t\t\n      DUP3 \t\t\t\n      DUP6 \t\t\t\n      PUSH [tag] 149\t\t\t\n      JUMP \t\t\t\n    tag 365\t\t\t\n      JUMPDEST \t\t\t\n      PUSH 0\t\t\t\n      PUSH 20\t\t\t\n      SWAP1 \t\t\t\n      POP \t\t\t\n      PUSH 1F\t\t\t\n      DUP4 \t\t\t\n      GT \t\t\t\n      PUSH 1\t\t\t\n      DUP2 \t\t\t\n      EQ \t\t\t\n      PUSH [tag] 367\t\t\t\n      JUMPI \t\t\t\n      PUSH 0\t\t\t\n      DUP5 \t\t\t\n      ISZERO \t\t\t\n      PUSH [tag] 368\t\t\t\n      JUMPI \t\t\t\n      DUP3 \t\t\t\n      DUP8 \t\t\t\n      ADD \t\t\t\n      MLOAD \t\t\t\n      SWAP1 \t\t\t\n      POP \t\t\t\n    tag 368\t\t\t\n      JUMPDEST \t\t\t\n      PUSH [tag] 369\t\t\t\n      DUP6 \t\t\t\n      DUP3 \t\t\t\n      PUSH [tag] 147\t\t\t\n      JUMP \t\t\t\n    tag 369\t\t\t\n      JUMPDEST \t\t\t\n      DUP7 \t\t\t\n      SSTORE \t\t\t\n      POP \t\t\t\n      PUSH [tag] 366\t\t\t\n      JUMP \t\t\t\n    tag 367\t\t\t\n      JUMPDEST \t\t\t\n      PUSH 1F\t\t\t\n      NOT \t\t\t\n      DUP5 \t\t\t\n      AND \t\t\t\n      PUSH [tag] 370\t\t\t\n      DUP7 \t\t\t\n      PUSH [tag] 148\t\t\t\n      JUMP \t\t\t\n    tag 370\t\t\t\n      JUMPDEST \t\t\t\n      PUSH 0\t\t\t\n    tag 371\t\t\t\n      JUMPDEST \t\t\t\n      DUP3 \t\t\t\n      DUP2 \t\t\t\n      LT \t\t\t\n      ISZERO \t\t\t\n      PUSH [tag] 373\t\t\t\n      JUMPI \t\t\t\n      DUP5 \t\t\t\n      DUP10 \t\t\t\n      ADD \t\t\t\n      MLOAD \t\t\t\n      DUP3 \t\t\t\n      SSTORE \t\t\t\n      PUSH 1\t\t\t\n      DUP3 \t\t\t\n      ADD \t\t\t\n      SWAP2 \t\t\t\n      POP \t\t\t\n      PUSH 20\t\t\t\n      DUP6 \t\t\t\n      ADD \t\t\t\n      SWAP5 \t\t\t\n      POP \t\t\t\n      PUSH 20\t\t\t\n      DUP2 \t\t\t\n      ADD \t\t\t\n      SWAP1 \t\t\t\n      POP \t\t\t\n      PUSH [tag] 371\t\t\t\n      JUMP \t\t\t\n    tag 373\t\t\t\n      JUMPDEST \t\t\t\n      DUP7 \t\t\t\n      DUP4 \t\t\t\n      LT \t\t\t\n      ISZERO \t\t\t\n      PUSH [tag] 374\t\t\t\n      JUMPI \t\t\t\n      DUP5 \t\t\t\n      DUP10 \t\t\t\n      ADD \t\t\t\n      MLOAD \t\t\t\n      PUSH [tag] 375\t\t\t\n      PUSH 1F\t\t\t\n      DUP10 \t\t\t\n      AND \t\t\t\n      DUP3 \t\t\t\n      PUSH [tag] 146\t\t\t\n      JUMP \t\t\t\n    tag 375\t\t\t\n      JUMPDEST \t\t\t\n      DUP4 \t\t\t\n      SSTORE \t\t\t\n      POP \t\t\t\n    tag 374\t\t\t\n      JUMPDEST \t\t\t\n      PUSH 1\t\t\t\n      PUSH 2\t\t\t\n      DUP9 \t\t\t\n      MUL \t\t\t\n      ADD \t\t\t\n      DUP9 \t\t\t\n      SSTORE \t\t\t\n      POP \t\t\t\n      POP \t\t\t\n      POP \t\t\t\n    tag 366\t\t\t\n      JUMPDEST \t\t\t\n      POP \t\t\t\n      POP \t\t\t\n      POP \t\t\t\n      POP \t\t\t\n      POP \t\t\t\n      POP \t\t\t\n      JUMP \t\t\t\n    .data\n"
}