{
	"compilerInput": "{\"language\":\"Solidity\",\"sources\":{\"valuation.sol\":{\"content\":\"// SPDX-License-Identifier: MIT\\r\\npragma solidity ^0.8.0;\\r\\n\\r\\ncontract HederaValuationContract {\\r\\n    struct Valuation {\\r\\n        string prj_id;\\r\\n        bytes valuation_hash;\\r\\n        uint256 submission_time;\\r\\n    }\\r\\n\\r\\n    Valuation[] public valuations;\\r\\n\\r\\n    event ValuationHashSubmitted(\\r\\n        uint256 indexed valuationIndex,\\r\\n        string prj_id,\\r\\n        bytes valuation_hash,\\r\\n        uint256 submission_time\\r\\n    );\\r\\n\\r\\n    function submitValuationHash(\\r\\n        string memory prj_id,\\r\\n        bytes memory valuation_hash\\r\\n    ) public {\\r\\n        require(bytes(prj_id).length > 0, \\\"Project ID is required.\\\");\\r\\n        require(valuation_hash.length == 32, \\\"Valuation hash must be 32 bytes.\\\");\\r\\n\\r\\n        uint256 valuationIndex = valuations.length;\\r\\n\\r\\n        valuations.push(\\r\\n            Valuation({\\r\\n                prj_id: prj_id,\\r\\n                valuation_hash: valuation_hash,\\r\\n                submission_time: block.timestamp\\r\\n            })\\r\\n        );\\r\\n\\r\\n        emit ValuationHashSubmitted(\\r\\n            valuationIndex,\\r\\n            prj_id,\\r\\n            valuation_hash,\\r\\n            block.timestamp\\r\\n        );\\r\\n    }\\r\\n\\r\\n    function getValuations() public view returns (Valuation[] memory) {\\r\\n        return valuations;\\r\\n    }\\r\\n\\r\\n    function getValuationById(uint256 valuationIndex) public view returns (Valuation memory) {\\r\\n        require(valuationIndex < valuations.length, \\\"Valuation does not exist.\\\");\\r\\n        return valuations[valuationIndex];\\r\\n    }\\r\\n}\\r\\n\"}},\"settings\":{\"optimizer\":{\"enabled\":false,\"runs\":200},\"outputSelection\":{\"*\":{\"\":[\"ast\"],\"*\":[\"abi\",\"metadata\",\"devdoc\",\"userdoc\",\"storageLayout\",\"evm.legacyAssembly\",\"evm.bytecode\",\"evm.deployedBytecode\",\"evm.methodIdentifiers\",\"evm.gasEstimates\",\"evm.assembly\"]}},\"remappings\":[]}}",
	"name": "HederaValuationContract",
	"bytecode": {
		"linkReferences": {},
		"object": "6080604052348015600e575f80fd5b5061124e8061001c5f395ff3fe608060405234801561000f575f80fd5b506004361061004a575f3560e01c8063499dba4d1461004e5780635d03d83e1461006a5780638220b0501461009c578063b43ad93d146100ba575b5f80fd5b610068600480360381019061006391906108a9565b6100ea565b005b610084600480360381019061007f9190610952565b610232565b60405161009393929190610a3e565b60405180910390f35b6100a4610372565b6040516100b19190610c2f565b60405180910390f35b6100d460048036038101906100cf9190610952565b6104f6565b6040516100e19190610ca3565b60405180910390f35b5f82511161012d576040517f08c379a000000000000000000000000000000000000000000000000000000000815260040161012490610d0d565b60405180910390fd5b6020815114610171576040517f08c379a000000000000000000000000000000000000000000000000000000000815260040161016890610d75565b60405180910390fd5b5f808054905090505f604051806060016040528085815260200184815260200142815250908060018154018082558091505060019003905f5260205f2090600302015f909190919091505f820151815f0190816101ce9190610f8d565b5060208201518160010190816101e491906110b4565b50604082015181600201555050807f36f98d58759794380d8a9d5a43b18a58bf17ca84f9eaca96efff0249622d511b84844260405161022593929190610a3e565b60405180910390a2505050565b5f8181548110610240575f80fd5b905f5260205f2090600302015f91509050805f01805461025f90610dc0565b80601f016020809104026020016040519081016040528092919081815260200182805461028b90610dc0565b80156102d65780601f106102ad576101008083540402835291602001916102d6565b820191905f5260205f20905b8154815290600101906020018083116102b957829003601f168201915b5050505050908060010180546102eb90610dc0565b80601f016020809104026020016040519081016040528092919081815260200182805461031790610dc0565b80156103625780601f1061033957610100808354040283529160200191610362565b820191905f5260205f20905b81548152906001019060200180831161034557829003601f168201915b5050505050908060020154905083565b60605f805480602002602001604051908101604052809291908181526020015f905b828210156104ed578382905f5260205f2090600302016040518060600160405290815f820180546103c490610dc0565b80601f01602080910402602001604051908101604052809291908181526020018280546103f090610dc0565b801561043b5780601f106104125761010080835404028352916020019161043b565b820191905f5260205f20905b81548152906001019060200180831161041e57829003601f168201915b5050505050815260200160018201805461045490610dc0565b80601f016020809104026020016040519081016040528092919081815260200182805461048090610dc0565b80156104cb5780601f106104a2576101008083540402835291602001916104cb565b820191905f5260205f20905b8154815290600101906020018083116104ae57829003601f168201915b5050505050815260200160028201548152505081526020019060010190610394565b50505050905090565b6104fe61069e565b5f805490508210610544576040517f08c379a000000000000000000000000000000000000000000000000000000000815260040161053b906111cd565b60405180910390fd5b5f8281548110610557576105566111eb565b5b905f5260205f2090600302016040518060600160405290815f8201805461057d90610dc0565b80601f01602080910402602001604051908101604052809291908181526020018280546105a990610dc0565b80156105f45780601f106105cb576101008083540402835291602001916105f4565b820191905f5260205f20905b8154815290600101906020018083116105d757829003601f168201915b5050505050815260200160018201805461060d90610dc0565b80601f016020809104026020016040519081016040528092919081815260200182805461063990610dc0565b80156106845780601f1061065b57610100808354040283529160200191610684565b820191905f5260205f20905b81548152906001019060200180831161066757829003601f168201915b505050505081526020016002820154815250509050919050565b604051806060016040528060608152602001606081526020015f81525090565b5f604051905090565b5f80fd5b5f80fd5b5f80fd5b5f80fd5b5f601f19601f8301169050919050565b7f4e487b71000000000000000000000000000000000000000000000000000000005f52604160045260245ffd5b61071d826106d7565b810181811067ffffffffffffffff8211171561073c5761073b6106e7565b5b80604052505050565b5f61074e6106be565b905061075a8282610714565b919050565b5f67ffffffffffffffff821115610779576107786106e7565b5b610782826106d7565b9050602081019050919050565b828183375f83830152505050565b5f6107af6107aa8461075f565b610745565b9050828152602081018484840111156107cb576107ca6106d3565b5b6107d684828561078f565b509392505050565b5f82601f8301126107f2576107f16106cf565b5b813561080284826020860161079d565b91505092915050565b5f67ffffffffffffffff821115610825576108246106e7565b5b61082e826106d7565b9050602081019050919050565b5f61084d6108488461080b565b610745565b905082815260208101848484011115610869576108686106d3565b5b61087484828561078f565b509392505050565b5f82601f8301126108905761088f6106cf565b5b81356108a084826020860161083b565b91505092915050565b5f80604083850312156108bf576108be6106c7565b5b5f83013567ffffffffffffffff8111156108dc576108db6106cb565b5b6108e8858286016107de565b925050602083013567ffffffffffffffff811115610909576109086106cb565b5b6109158582860161087c565b9150509250929050565b5f819050919050565b6109318161091f565b811461093b575f80fd5b50565b5f8135905061094c81610928565b92915050565b5f60208284031215610967576109666106c7565b5b5f6109748482850161093e565b91505092915050565b5f81519050919050565b5f82825260208201905092915050565b8281835e5f83830152505050565b5f6109af8261097d565b6109b98185610987565b93506109c9818560208601610997565b6109d2816106d7565b840191505092915050565b5f81519050919050565b5f82825260208201905092915050565b5f610a01826109dd565b610a0b81856109e7565b9350610a1b818560208601610997565b610a24816106d7565b840191505092915050565b610a388161091f565b82525050565b5f6060820190508181035f830152610a5681866109a5565b90508181036020830152610a6a81856109f7565b9050610a796040830184610a2f565b949350505050565b5f81519050919050565b5f82825260208201905092915050565b5f819050602082019050919050565b5f82825260208201905092915050565b5f610ac48261097d565b610ace8185610aaa565b9350610ade818560208601610997565b610ae7816106d7565b840191505092915050565b5f82825260208201905092915050565b5f610b0c826109dd565b610b168185610af2565b9350610b26818560208601610997565b610b2f816106d7565b840191505092915050565b610b438161091f565b82525050565b5f606083015f8301518482035f860152610b638282610aba565b91505060208301518482036020860152610b7d8282610b02565b9150506040830151610b926040860182610b3a565b508091505092915050565b5f610ba88383610b49565b905092915050565b5f602082019050919050565b5f610bc682610a81565b610bd08185610a8b565b935083602082028501610be285610a9b565b805f5b85811015610c1d5784840389528151610bfe8582610b9d565b9450610c0983610bb0565b925060208a01995050600181019050610be5565b50829750879550505050505092915050565b5f6020820190508181035f830152610c478184610bbc565b905092915050565b5f606083015f8301518482035f860152610c698282610aba565b91505060208301518482036020860152610c838282610b02565b9150506040830151610c986040860182610b3a565b508091505092915050565b5f6020820190508181035f830152610cbb8184610c4f565b905092915050565b7f50726f6a6563742049442069732072657175697265642e0000000000000000005f82015250565b5f610cf7601783610987565b9150610d0282610cc3565b602082019050919050565b5f6020820190508181035f830152610d2481610ceb565b9050919050565b7f56616c756174696f6e2068617368206d7573742062652033322062797465732e5f82015250565b5f610d5f602083610987565b9150610d6a82610d2b565b602082019050919050565b5f6020820190508181035f830152610d8c81610d53565b9050919050565b7f4e487b71000000000000000000000000000000000000000000000000000000005f52602260045260245ffd5b5f6002820490506001821680610dd757607f821691505b602082108103610dea57610de9610d93565b5b50919050565b5f819050815f5260205f209050919050565b5f6020601f8301049050919050565b5f82821b905092915050565b5f60088302610e4c7fffffffffffffffffffffffffffffffffffffffffffffffffffffffffffffffff82610e11565b610e568683610e11565b95508019841693508086168417925050509392505050565b5f819050919050565b5f610e91610e8c610e878461091f565b610e6e565b61091f565b9050919050565b5f819050919050565b610eaa83610e77565b610ebe610eb682610e98565b848454610e1d565b825550505050565b5f90565b610ed2610ec6565b610edd818484610ea1565b505050565b5b81811015610f0057610ef55f82610eca565b600181019050610ee3565b5050565b601f821115610f4557610f1681610df0565b610f1f84610e02565b81016020851015610f2e578190505b610f42610f3a85610e02565b830182610ee2565b50505b505050565b5f82821c905092915050565b5f610f655f1984600802610f4a565b1980831691505092915050565b5f610f7d8383610f56565b9150826002028217905092915050565b610f968261097d565b67ffffffffffffffff811115610faf57610fae6106e7565b5b610fb98254610dc0565b610fc4828285610f04565b5f60209050601f831160018114610ff5575f8415610fe3578287015190505b610fed8582610f72565b865550611054565b601f19841661100386610df0565b5f5b8281101561102a57848901518255600182019150602085019450602081019050611005565b868310156110475784890151611043601f891682610f56565b8355505b6001600288020188555050505b505050505050565b5f819050815f5260205f209050919050565b601f8211156110af576110808161105c565b61108984610e02565b81016020851015611098578190505b6110ac6110a485610e02565b830182610ee2565b50505b505050565b6110bd826109dd565b67ffffffffffffffff8111156110d6576110d56106e7565b5b6110e08254610dc0565b6110eb82828561106e565b5f60209050601f83116001811461111c575f841561110a578287015190505b6111148582610f72565b86555061117b565b601f19841661112a8661105c565b5f5b828110156111515784890151825560018201915060208501945060208101905061112c565b8683101561116e578489015161116a601f891682610f56565b8355505b6001600288020188555050505b505050505050565b7f56616c756174696f6e20646f6573206e6f742065786973742e000000000000005f82015250565b5f6111b7601983610987565b91506111c282611183565b602082019050919050565b5f6020820190508181035f8301526111e4816111ab565b9050919050565b7f4e487b71000000000000000000000000000000000000000000000000000000005f52603260045260245ffdfea2646970667358221220acf2e3f23b161f88bf87153a783480f690e4b777cde027a9cc8d6a245fdbbcb064736f6c634300081a0033",
		"opcodes": "PUSH1 0x80 PUSH1 0x40 MSTORE CALLVALUE DUP1 ISZERO PUSH1 0xE JUMPI PUSH0 DUP1 REVERT JUMPDEST POP PUSH2 0x124E DUP1 PUSH2 0x1C PUSH0 CODECOPY PUSH0 RETURN INVALID PUSH1 0x80 PUSH1 0x40 MSTORE CALLVALUE DUP1 ISZERO PUSH2 0xF JUMPI PUSH0 DUP1 REVERT JUMPDEST POP PUSH1 0x4 CALLDATASIZE LT PUSH2 0x4A JUMPI PUSH0 CALLDATALOAD PUSH1 0xE0 SHR DUP1 PUSH4 0x499DBA4D EQ PUSH2 0x4E JUMPI DUP1 PUSH4 0x5D03D83E EQ PUSH2 0x6A JUMPI DUP1 PUSH4 0x8220B050 EQ PUSH2 0x9C JUMPI DUP1 PUSH4 0xB43AD93D EQ PUSH2 0xBA JUMPI JUMPDEST PUSH0 DUP1 REVERT JUMPDEST PUSH2 0x68 PUSH1 0x4 DUP1 CALLDATASIZE SUB DUP2 ADD SWAP1 PUSH2 0x63 SWAP2 SWAP1 PUSH2 0x8A9 JUMP JUMPDEST PUSH2 0xEA JUMP JUMPDEST STOP JUMPDEST PUSH2 0x84 PUSH1 0x4 DUP1 CALLDATASIZE SUB DUP2 ADD SWAP1 PUSH2 0x7F SWAP2 SWAP1 PUSH2 0x952 JUMP JUMPDEST PUSH2 0x232 JUMP JUMPDEST PUSH1 0x40 MLOAD PUSH2 0x93 SWAP4 SWAP3 SWAP2 SWAP1 PUSH2 0xA3E JUMP JUMPDEST PUSH1 0x40 MLOAD DUP1 SWAP2 SUB SWAP1 RETURN JUMPDEST PUSH2 0xA4 PUSH2 0x372 JUMP JUMPDEST PUSH1 0x40 MLOAD PUSH2 0xB1 SWAP2 SWAP1 PUSH2 0xC2F JUMP JUMPDEST PUSH1 0x40 MLOAD DUP1 SWAP2 SUB SWAP1 RETURN JUMPDEST PUSH2 0xD4 PUSH1 0x4 DUP1 CALLDATASIZE SUB DUP2 ADD SWAP1 PUSH2 0xCF SWAP2 SWAP1 PUSH2 0x952 JUMP JUMPDEST PUSH2 0x4F6 JUMP JUMPDEST PUSH1 0x40 MLOAD PUSH2 0xE1 SWAP2 SWAP1 PUSH2 0xCA3 JUMP JUMPDEST PUSH1 0x40 MLOAD DUP1 SWAP2 SUB SWAP1 RETURN JUMPDEST PUSH0 DUP3 MLOAD GT PUSH2 0x12D JUMPI PUSH1 0x40 MLOAD PUSH32 0x8C379A000000000000000000000000000000000000000000000000000000000 DUP2 MSTORE PUSH1 0x4 ADD PUSH2 0x124 SWAP1 PUSH2 0xD0D JUMP JUMPDEST PUSH1 0x40 MLOAD DUP1 SWAP2 SUB SWAP1 REVERT JUMPDEST PUSH1 0x20 DUP2 MLOAD EQ PUSH2 0x171 JUMPI PUSH1 0x40 MLOAD PUSH32 0x8C379A000000000000000000000000000000000000000000000000000000000 DUP2 MSTORE PUSH1 0x4 ADD PUSH2 0x168 SWAP1 PUSH2 0xD75 JUMP JUMPDEST PUSH1 0x40 MLOAD DUP1 SWAP2 SUB SWAP1 REVERT JUMPDEST PUSH0 DUP1 DUP1 SLOAD SWAP1 POP SWAP1 POP PUSH0 PUSH1 0x40 MLOAD DUP1 PUSH1 0x60 ADD PUSH1 0x40 MSTORE DUP1 DUP6 DUP2 MSTORE PUSH1 0x20 ADD DUP5 DUP2 MSTORE PUSH1 0x20 ADD TIMESTAMP DUP2 MSTORE POP SWAP1 DUP1 PUSH1 0x1 DUP2 SLOAD ADD DUP1 DUP3 SSTORE DUP1 SWAP2 POP POP PUSH1 0x1 SWAP1 SUB SWAP1 PUSH0 MSTORE PUSH1 0x20 PUSH0 KECCAK256 SWAP1 PUSH1 0x3 MUL ADD PUSH0 SWAP1 SWAP2 SWAP1 SWAP2 SWAP1 SWAP2 POP PUSH0 DUP3 ADD MLOAD DUP2 PUSH0 ADD SWAP1 DUP2 PUSH2 0x1CE SWAP2 SWAP1 PUSH2 0xF8D JUMP JUMPDEST POP PUSH1 0x20 DUP3 ADD MLOAD DUP2 PUSH1 0x1 ADD SWAP1 DUP2 PUSH2 0x1E4 SWAP2 SWAP1 PUSH2 0x10B4 JUMP JUMPDEST POP PUSH1 0x40 DUP3 ADD MLOAD DUP2 PUSH1 0x2 ADD SSTORE POP POP DUP1 PUSH32 0x36F98D58759794380D8A9D5A43B18A58BF17CA84F9EACA96EFFF0249622D511B DUP5 DUP5 TIMESTAMP PUSH1 0x40 MLOAD PUSH2 0x225 SWAP4 SWAP3 SWAP2 SWAP1 PUSH2 0xA3E JUMP JUMPDEST PUSH1 0x40 MLOAD DUP1 SWAP2 SUB SWAP1 LOG2 POP POP POP JUMP JUMPDEST PUSH0 DUP2 DUP2 SLOAD DUP2 LT PUSH2 0x240 JUMPI PUSH0 DUP1 REVERT JUMPDEST SWAP1 PUSH0 MSTORE PUSH1 0x20 PUSH0 KECCAK256 SWAP1 PUSH1 0x3 MUL ADD PUSH0 SWAP2 POP SWAP1 POP DUP1 PUSH0 ADD DUP1 SLOAD PUSH2 0x25F SWAP1 PUSH2 0xDC0 JUMP JUMPDEST DUP1 PUSH1 0x1F ADD PUSH1 0x20 DUP1 SWAP2 DIV MUL PUSH1 0x20 ADD PUSH1 0x40 MLOAD SWAP1 DUP2 ADD PUSH1 0x40 MSTORE DUP1 SWAP3 SWAP2 SWAP1 DUP2 DUP2 MSTORE PUSH1 0x20 ADD DUP3 DUP1 SLOAD PUSH2 0x28B SWAP1 PUSH2 0xDC0 JUMP JUMPDEST DUP1 ISZERO PUSH2 0x2D6 JUMPI DUP1 PUSH1 0x1F LT PUSH2 0x2AD JUMPI PUSH2 0x100 DUP1 DUP4 SLOAD DIV MUL DUP4 MSTORE SWAP2 PUSH1 0x20 ADD SWAP2 PUSH2 0x2D6 JUMP JUMPDEST DUP3 ADD SWAP2 SWAP1 PUSH0 MSTORE PUSH1 0x20 PUSH0 KECCAK256 SWAP1 JUMPDEST DUP2 SLOAD DUP2 MSTORE SWAP1 PUSH1 0x1 ADD SWAP1 PUSH1 0x20 ADD DUP1 DUP4 GT PUSH2 0x2B9 JUMPI DUP3 SWAP1 SUB PUSH1 0x1F AND DUP3 ADD SWAP2 JUMPDEST POP POP POP POP POP SWAP1 DUP1 PUSH1 0x1 ADD DUP1 SLOAD PUSH2 0x2EB SWAP1 PUSH2 0xDC0 JUMP JUMPDEST DUP1 PUSH1 0x1F ADD PUSH1 0x20 DUP1 SWAP2 DIV MUL PUSH1 0x20 ADD PUSH1 0x40 MLOAD SWAP1 DUP2 ADD PUSH1 0x40 MSTORE DUP1 SWAP3 SWAP2 SWAP1 DUP2 DUP2 MSTORE PUSH1 0x20 ADD DUP3 DUP1 SLOAD PUSH2 0x317 SWAP1 PUSH2 0xDC0 JUMP JUMPDEST DUP1 ISZERO PUSH2 0x362 JUMPI DUP1 PUSH1 0x1F LT PUSH2 0x339 JUMPI PUSH2 0x100 DUP1 DUP4 SLOAD DIV MUL DUP4 MSTORE SWAP2 PUSH1 0x20 ADD SWAP2 PUSH2 0x362 JUMP JUMPDEST DUP3 ADD SWAP2 SWAP1 PUSH0 MSTORE PUSH1 0x20 PUSH0 KECCAK256 SWAP1 JUMPDEST DUP2 SLOAD DUP2 MSTORE SWAP1 PUSH1 0x1 ADD SWAP1 PUSH1 0x20 ADD DUP1 DUP4 GT PUSH2 0x345 JUMPI DUP3 SWAP1 SUB PUSH1 0x1F AND DUP3 ADD SWAP2 JUMPDEST POP POP POP POP POP SWAP1 DUP1 PUSH1 0x2 ADD SLOAD SWAP1 POP DUP4 JUMP JUMPDEST PUSH1 0x60 PUSH0 DUP1 SLOAD DUP1 PUSH1 0x20 MUL PUSH1 0x20 ADD PUSH1 0x40 MLOAD SWAP1 DUP2 ADD PUSH1 0x40 MSTORE DUP1 SWAP3 SWAP2 SWAP1 DUP2 DUP2 MSTORE PUSH1 0x20 ADD PUSH0 SWAP1 JUMPDEST DUP3 DUP3 LT ISZERO PUSH2 0x4ED JUMPI DUP4 DUP3 SWAP1 PUSH0 MSTORE PUSH1 0x20 PUSH0 KECCAK256 SWAP1 PUSH1 0x3 MUL ADD PUSH1 0x40 MLOAD DUP1 PUSH1 0x60 ADD PUSH1 0x40 MSTORE SWAP1 DUP2 PUSH0 DUP3 ADD DUP1 SLOAD PUSH2 0x3C4 SWAP1 PUSH2 0xDC0 JUMP JUMPDEST DUP1 PUSH1 0x1F ADD PUSH1 0x20 DUP1 SWAP2 DIV MUL PUSH1 0x20 ADD PUSH1 0x40 MLOAD SWAP1 DUP2 ADD PUSH1 0x40 MSTORE DUP1 SWAP3 SWAP2 SWAP1 DUP2 DUP2 MSTORE PUSH1 0x20 ADD DUP3 DUP1 SLOAD PUSH2 0x3F0 SWAP1 PUSH2 0xDC0 JUMP JUMPDEST DUP1 ISZERO PUSH2 0x43B JUMPI DUP1 PUSH1 0x1F LT PUSH2 0x412 JUMPI PUSH2 0x100 DUP1 DUP4 SLOAD DIV MUL DUP4 MSTORE SWAP2 PUSH1 0x20 ADD SWAP2 PUSH2 0x43B JUMP JUMPDEST DUP3 ADD SWAP2 SWAP1 PUSH0 MSTORE PUSH1 0x20 PUSH0 KECCAK256 SWAP1 JUMPDEST DUP2 SLOAD DUP2 MSTORE SWAP1 PUSH1 0x1 ADD SWAP1 PUSH1 0x20 ADD DUP1 DUP4 GT PUSH2 0x41E JUMPI DUP3 SWAP1 SUB PUSH1 0x1F AND DUP3 ADD SWAP2 JUMPDEST POP POP POP POP POP DUP2 MSTORE PUSH1 0x20 ADD PUSH1 0x1 DUP3 ADD DUP1 SLOAD PUSH2 0x454 SWAP1 PUSH2 0xDC0 JUMP JUMPDEST DUP1 PUSH1 0x1F ADD PUSH1 0x20 DUP1 SWAP2 DIV MUL PUSH1 0x20 ADD PUSH1 0x40 MLOAD SWAP1 DUP2 ADD PUSH1 0x40 MSTORE DUP1 SWAP3 SWAP2 SWAP1 DUP2 DUP2 MSTORE PUSH1 0x20 ADD DUP3 DUP1 SLOAD PUSH2 0x480 SWAP1 PUSH2 0xDC0 JUMP JUMPDEST DUP1 ISZERO PUSH2 0x4CB JUMPI DUP1 PUSH1 0x1F LT PUSH2 0x4A2 JUMPI PUSH2 0x100 DUP1 DUP4 SLOAD DIV MUL DUP4 MSTORE SWAP2 PUSH1 0x20 ADD SWAP2 PUSH2 0x4CB JUMP JUMPDEST DUP3 ADD SWAP2 SWAP1 PUSH0 MSTORE PUSH1 0x20 PUSH0 KECCAK256 SWAP1 JUMPDEST DUP2 SLOAD DUP2 MSTORE SWAP1 PUSH1 0x1 ADD SWAP1 PUSH1 0x20 ADD DUP1 DUP4 GT PUSH2 0x4AE JUMPI DUP3 SWAP1 SUB PUSH1 0x1F AND DUP3 ADD SWAP2 JUMPDEST POP POP POP POP POP DUP2 MSTORE PUSH1 0x20 ADD PUSH1 0x2 DUP3 ADD SLOAD DUP2 MSTORE POP POP DUP2 MSTORE PUSH1 0x20 ADD SWAP1 PUSH1 0x1 ADD SWAP1 PUSH2 0x394 JUMP JUMPDEST POP POP POP POP SWAP1 POP SWAP1 JUMP JUMPDEST PUSH2 0x4FE PUSH2 0x69E JUMP JUMPDEST PUSH0 DUP1 SLOAD SWAP1 POP DUP3 LT PUSH2 0x544 JUMPI PUSH1 0x40 MLOAD PUSH32 0x8C379A000000000000000000000000000000000000000000000000000000000 DUP2 MSTORE PUSH1 0x4 ADD PUSH2 0x53B SWAP1 PUSH2 0x11CD JUMP JUMPDEST PUSH1 0x40 MLOAD DUP1 SWAP2 SUB SWAP1 REVERT JUMPDEST PUSH0 DUP3 DUP2 SLOAD DUP2 LT PUSH2 0x557 JUMPI PUSH2 0x556 PUSH2 0x11EB JUMP JUMPDEST JUMPDEST SWAP1 PUSH0 MSTORE PUSH1 0x20 PUSH0 KECCAK256 SWAP1 PUSH1 0x3 MUL ADD PUSH1 0x40 MLOAD DUP1 PUSH1 0x60 ADD PUSH1 0x40 MSTORE SWAP1 DUP2 PUSH0 DUP3 ADD DUP1 SLOAD PUSH2 0x57D SWAP1 PUSH2 0xDC0 JUMP JUMPDEST DUP1 PUSH1 0x1F ADD PUSH1 0x20 DUP1 SWAP2 DIV MUL PUSH1 0x20 ADD PUSH1 0x40 MLOAD SWAP1 DUP2 ADD PUSH1 0x40 MSTORE DUP1 SWAP3 SWAP2 SWAP1 DUP2 DUP2 MSTORE PUSH1 0x20 ADD DUP3 DUP1 SLOAD PUSH2 0x5A9 SWAP1 PUSH2 0xDC0 JUMP JUMPDEST DUP1 ISZERO PUSH2 0x5F4 JUMPI DUP1 PUSH1 0x1F LT PUSH2 0x5CB JUMPI PUSH2 0x100 DUP1 DUP4 SLOAD DIV MUL DUP4 MSTORE SWAP2 PUSH1 0x20 ADD SWAP2 PUSH2 0x5F4 JUMP JUMPDEST DUP3 ADD SWAP2 SWAP1 PUSH0 MSTORE PUSH1 0x20 PUSH0 KECCAK256 SWAP1 JUMPDEST DUP2 SLOAD DUP2 MSTORE SWAP1 PUSH1 0x1 ADD SWAP1 PUSH1 0x20 ADD DUP1 DUP4 GT PUSH2 0x5D7 JUMPI DUP3 SWAP1 SUB PUSH1 0x1F AND DUP3 ADD SWAP2 JUMPDEST POP POP POP POP POP DUP2 MSTORE PUSH1 0x20 ADD PUSH1 0x1 DUP3 ADD DUP1 SLOAD PUSH2 0x60D SWAP1 PUSH2 0xDC0 JUMP JUMPDEST DUP1 PUSH1 0x1F ADD PUSH1 0x20 DUP1 SWAP2 DIV MUL PUSH1 0x20 ADD PUSH1 0x40 MLOAD SWAP1 DUP2 ADD PUSH1 0x40 MSTORE DUP1 SWAP3 SWAP2 SWAP1 DUP2 DUP2 MSTORE PUSH1 0x20 ADD DUP3 DUP1 SLOAD PUSH2 0x639 SWAP1 PUSH2 0xDC0 JUMP JUMPDEST DUP1 ISZERO PUSH2 0x684 JUMPI DUP1 PUSH1 0x1F LT PUSH2 0x65B JUMPI PUSH2 0x100 DUP1 DUP4 SLOAD DIV MUL DUP4 MSTORE SWAP2 PUSH1 0x20 ADD SWAP2 PUSH2 0x684 JUMP JUMPDEST DUP3 ADD SWAP2 SWAP1 PUSH0 MSTORE PUSH1 0x20 PUSH0 KECCAK256 SWAP1 JUMPDEST DUP2 SLOAD DUP2 MSTORE SWAP1 PUSH1 0x1 ADD SWAP1 PUSH1 0x20 ADD DUP1 DUP4 GT PUSH2 0x667 JUMPI DUP3 SWAP1 SUB PUSH1 0x1F AND DUP3 ADD SWAP2 JUMPDEST POP POP POP POP POP DUP2 MSTORE PUSH1 0x20 ADD PUSH1 0x2 DUP3 ADD SLOAD DUP2 MSTORE POP POP SWAP1 POP SWAP2 SWAP1 POP JUMP JUMPDEST PUSH1 0x40 MLOAD DUP1 PUSH1 0x60 ADD PUSH1 0x40 MSTORE DUP1 PUSH1 0x60 DUP2 MSTORE PUSH1 0x20 ADD PUSH1 0x60 DUP2 MSTORE PUSH1 0x20 ADD PUSH0 DUP2 MSTORE POP SWAP1 JUMP JUMPDEST PUSH0 PUSH1 0x40 MLOAD SWAP1 POP SWAP1 JUMP JUMPDEST PUSH0 DUP1 REVERT JUMPDEST PUSH0 DUP1 REVERT JUMPDEST PUSH0 DUP1 REVERT JUMPDEST PUSH0 DUP1 REVERT JUMPDEST PUSH0 PUSH1 0x1F NOT PUSH1 0x1F DUP4 ADD AND SWAP1 POP SWAP2 SWAP1 POP JUMP JUMPDEST PUSH32 0x4E487B7100000000000000000000000000000000000000000000000000000000 PUSH0 MSTORE PUSH1 0x41 PUSH1 0x4 MSTORE PUSH1 0x24 PUSH0 REVERT JUMPDEST PUSH2 0x71D DUP3 PUSH2 0x6D7 JUMP JUMPDEST DUP2 ADD DUP2 DUP2 LT PUSH8 0xFFFFFFFFFFFFFFFF DUP3 GT OR ISZERO PUSH2 0x73C JUMPI PUSH2 0x73B PUSH2 0x6E7 JUMP JUMPDEST JUMPDEST DUP1 PUSH1 0x40 MSTORE POP POP POP JUMP JUMPDEST PUSH0 PUSH2 0x74E PUSH2 0x6BE JUMP JUMPDEST SWAP1 POP PUSH2 0x75A DUP3 DUP3 PUSH2 0x714 JUMP JUMPDEST SWAP2 SWAP1 POP JUMP JUMPDEST PUSH0 PUSH8 0xFFFFFFFFFFFFFFFF DUP3 GT ISZERO PUSH2 0x779 JUMPI PUSH2 0x778 PUSH2 0x6E7 JUMP JUMPDEST JUMPDEST PUSH2 0x782 DUP3 PUSH2 0x6D7 JUMP JUMPDEST SWAP1 POP PUSH1 0x20 DUP2 ADD SWAP1 POP SWAP2 SWAP1 POP JUMP JUMPDEST DUP3 DUP2 DUP4 CALLDATACOPY PUSH0 DUP4 DUP4 ADD MSTORE POP POP POP JUMP JUMPDEST PUSH0 PUSH2 0x7AF PUSH2 0x7AA DUP5 PUSH2 0x75F JUMP JUMPDEST PUSH2 0x745 JUMP JUMPDEST SWAP1 POP DUP3 DUP2 MSTORE PUSH1 0x20 DUP2 ADD DUP5 DUP5 DUP5 ADD GT ISZERO PUSH2 0x7CB JUMPI PUSH2 0x7CA PUSH2 0x6D3 JUMP JUMPDEST JUMPDEST PUSH2 0x7D6 DUP5 DUP3 DUP6 PUSH2 0x78F JUMP JUMPDEST POP SWAP4 SWAP3 POP POP POP JUMP JUMPDEST PUSH0 DUP3 PUSH1 0x1F DUP4 ADD SLT PUSH2 0x7F2 JUMPI PUSH2 0x7F1 PUSH2 0x6CF JUMP JUMPDEST JUMPDEST DUP2 CALLDATALOAD PUSH2 0x802 DUP5 DUP3 PUSH1 0x20 DUP7 ADD PUSH2 0x79D JUMP JUMPDEST SWAP2 POP POP SWAP3 SWAP2 POP POP JUMP JUMPDEST PUSH0 PUSH8 0xFFFFFFFFFFFFFFFF DUP3 GT ISZERO PUSH2 0x825 JUMPI PUSH2 0x824 PUSH2 0x6E7 JUMP JUMPDEST JUMPDEST PUSH2 0x82E DUP3 PUSH2 0x6D7 JUMP JUMPDEST SWAP1 POP PUSH1 0x20 DUP2 ADD SWAP1 POP SWAP2 SWAP1 POP JUMP JUMPDEST PUSH0 PUSH2 0x84D PUSH2 0x848 DUP5 PUSH2 0x80B JUMP JUMPDEST PUSH2 0x745 JUMP JUMPDEST SWAP1 POP DUP3 DUP2 MSTORE PUSH1 0x20 DUP2 ADD DUP5 DUP5 DUP5 ADD GT ISZERO PUSH2 0x869 JUMPI PUSH2 0x868 PUSH2 0x6D3 JUMP JUMPDEST JUMPDEST PUSH2 0x874 DUP5 DUP3 DUP6 PUSH2 0x78F JUMP JUMPDEST POP SWAP4 SWAP3 POP POP POP JUMP JUMPDEST PUSH0 DUP3 PUSH1 0x1F DUP4 ADD SLT PUSH2 0x890 JUMPI PUSH2 0x88F PUSH2 0x6CF JUMP JUMPDEST JUMPDEST DUP2 CALLDATALOAD PUSH2 0x8A0 DUP5 DUP3 PUSH1 0x20 DUP7 ADD PUSH2 0x83B JUMP JUMPDEST SWAP2 POP POP SWAP3 SWAP2 POP POP JUMP JUMPDEST PUSH0 DUP1 PUSH1 0x40 DUP4 DUP6 SUB SLT ISZERO PUSH2 0x8BF JUMPI PUSH2 0x8BE PUSH2 0x6C7 JUMP JUMPDEST JUMPDEST PUSH0 DUP4 ADD CALLDATALOAD PUSH8 0xFFFFFFFFFFFFFFFF DUP2 GT ISZERO PUSH2 0x8DC JUMPI PUSH2 0x8DB PUSH2 0x6CB JUMP JUMPDEST JUMPDEST PUSH2 0x8E8 DUP6 DUP3 DUP7 ADD PUSH2 0x7DE JUMP JUMPDEST SWAP3 POP POP PUSH1 0x20 DUP4 ADD CALLDATALOAD PUSH8 0xFFFFFFFFFFFFFFFF DUP2 GT ISZERO PUSH2 0x909 JUMPI PUSH2 0x908 PUSH2 0x6CB JUMP JUMPDEST JUMPDEST PUSH2 0x915 DUP6 DUP3 DUP7 ADD PUSH2 0x87C JUMP JUMPDEST SWAP2 POP POP SWAP3 POP SWAP3 SWAP1 POP JUMP JUMPDEST PUSH0 DUP2 SWAP1 POP SWAP2 SWAP1 POP JUMP JUMPDEST PUSH2 0x931 DUP2 PUSH2 0x91F JUMP JUMPDEST DUP2 EQ PUSH2 0x93B JUMPI PUSH0 DUP1 REVERT JUMPDEST POP JUMP JUMPDEST PUSH0 DUP2 CALLDATALOAD SWAP1 POP PUSH2 0x94C DUP2 PUSH2 0x928 JUMP JUMPDEST SWAP3 SWAP2 POP POP JUMP JUMPDEST PUSH0 PUSH1 0x20 DUP3 DUP5 SUB SLT ISZERO PUSH2 0x967 JUMPI PUSH2 0x966 PUSH2 0x6C7 JUMP JUMPDEST JUMPDEST PUSH0 PUSH2 0x974 DUP5 DUP3 DUP6 ADD PUSH2 0x93E JUMP JUMPDEST SWAP2 POP POP SWAP3 SWAP2 POP POP JUMP JUMPDEST PUSH0 DUP2 MLOAD SWAP1 POP SWAP2 SWAP1 POP JUMP JUMPDEST PUSH0 DUP3 DUP3 MSTORE PUSH1 0x20 DUP3 ADD SWAP1 POP SWAP3 SWAP2 POP POP JUMP JUMPDEST DUP3 DUP2 DUP4 MCOPY PUSH0 DUP4 DUP4 ADD MSTORE POP POP POP JUMP JUMPDEST PUSH0 PUSH2 0x9AF DUP3 PUSH2 0x97D JUMP JUMPDEST PUSH2 0x9B9 DUP2 DUP6 PUSH2 0x987 JUMP JUMPDEST SWAP4 POP PUSH2 0x9C9 DUP2 DUP6 PUSH1 0x20 DUP7 ADD PUSH2 0x997 JUMP JUMPDEST PUSH2 0x9D2 DUP2 PUSH2 0x6D7 JUMP JUMPDEST DUP5 ADD SWAP2 POP POP SWAP3 SWAP2 POP POP JUMP JUMPDEST PUSH0 DUP2 MLOAD SWAP1 POP SWAP2 SWAP1 POP JUMP JUMPDEST PUSH0 DUP3 DUP3 MSTORE PUSH1 0x20 DUP3 ADD SWAP1 POP SWAP3 SWAP2 POP POP JUMP JUMPDEST PUSH0 PUSH2 0xA01 DUP3 PUSH2 0x9DD JUMP JUMPDEST PUSH2 0xA0B DUP2 DUP6 PUSH2 0x9E7 JUMP JUMPDEST SWAP4 POP PUSH2 0xA1B DUP2 DUP6 PUSH1 0x20 DUP7 ADD PUSH2 0x997 JUMP JUMPDEST PUSH2 0xA24 DUP2 PUSH2 0x6D7 JUMP JUMPDEST DUP5 ADD SWAP2 POP POP SWAP3 SWAP2 POP POP JUMP JUMPDEST PUSH2 0xA38 DUP2 PUSH2 0x91F JUMP JUMPDEST DUP3 MSTORE POP POP JUMP JUMPDEST PUSH0 PUSH1 0x60 DUP3 ADD SWAP1 POP DUP2 DUP2 SUB PUSH0 DUP4 ADD MSTORE PUSH2 0xA56 DUP2 DUP7 PUSH2 0x9A5 JUMP JUMPDEST SWAP1 POP DUP2 DUP2 SUB PUSH1 0x20 DUP4 ADD MSTORE PUSH2 0xA6A DUP2 DUP6 PUSH2 0x9F7 JUMP JUMPDEST SWAP1 POP PUSH2 0xA79 PUSH1 0x40 DUP4 ADD DUP5 PUSH2 0xA2F JUMP JUMPDEST SWAP5 SWAP4 POP POP POP POP JUMP JUMPDEST PUSH0 DUP2 MLOAD SWAP1 POP SWAP2 SWAP1 POP JUMP JUMPDEST PUSH0 DUP3 DUP3 MSTORE PUSH1 0x20 DUP3 ADD SWAP1 POP SWAP3 SWAP2 POP POP JUMP JUMPDEST PUSH0 DUP2 SWAP1 POP PUSH1 0x20 DUP3 ADD SWAP1 POP SWAP2 SWAP1 POP JUMP JUMPDEST PUSH0 DUP3 DUP3 MSTORE PUSH1 0x20 DUP3 ADD SWAP1 POP SWAP3 SWAP2 POP POP JUMP JUMPDEST PUSH0 PUSH2 0xAC4 DUP3 PUSH2 0x97D JUMP JUMPDEST PUSH2 0xACE DUP2 DUP6 PUSH2 0xAAA JUMP JUMPDEST SWAP4 POP PUSH2 0xADE DUP2 DUP6 PUSH1 0x20 DUP7 ADD PUSH2 0x997 JUMP JUMPDEST PUSH2 0xAE7 DUP2 PUSH2 0x6D7 JUMP JUMPDEST DUP5 ADD SWAP2 POP POP SWAP3 SWAP2 POP POP JUMP JUMPDEST PUSH0 DUP3 DUP3 MSTORE PUSH1 0x20 DUP3 ADD SWAP1 POP SWAP3 SWAP2 POP POP JUMP JUMPDEST PUSH0 PUSH2 0xB0C DUP3 PUSH2 0x9DD JUMP JUMPDEST PUSH2 0xB16 DUP2 DUP6 PUSH2 0xAF2 JUMP JUMPDEST SWAP4 POP PUSH2 0xB26 DUP2 DUP6 PUSH1 0x20 DUP7 ADD PUSH2 0x997 JUMP JUMPDEST PUSH2 0xB2F DUP2 PUSH2 0x6D7 JUMP JUMPDEST DUP5 ADD SWAP2 POP POP SWAP3 SWAP2 POP POP JUMP JUMPDEST PUSH2 0xB43 DUP2 PUSH2 0x91F JUMP JUMPDEST DUP3 MSTORE POP POP JUMP JUMPDEST PUSH0 PUSH1 0x60 DUP4 ADD PUSH0 DUP4 ADD MLOAD DUP5 DUP3 SUB PUSH0 DUP7 ADD MSTORE PUSH2 0xB63 DUP3 DUP3 PUSH2 0xABA JUMP JUMPDEST SWAP2 POP POP PUSH1 0x20 DUP4 ADD MLOAD DUP5 DUP3 SUB PUSH1 0x20 DUP7 ADD MSTORE PUSH2 0xB7D DUP3 DUP3 PUSH2 0xB02 JUMP JUMPDEST SWAP2 POP POP PUSH1 0x40 DUP4 ADD MLOAD PUSH2 0xB92 PUSH1 0x40 DUP7 ADD DUP3 PUSH2 0xB3A JUMP JUMPDEST POP DUP1 SWAP2 POP POP SWAP3 SWAP2 POP POP JUMP JUMPDEST PUSH0 PUSH2 0xBA8 DUP4 DUP4 PUSH2 0xB49 JUMP JUMPDEST SWAP1 POP SWAP3 SWAP2 POP POP JUMP JUMPDEST PUSH0 PUSH1 0x20 DUP3 ADD SWAP1 POP SWAP2 SWAP1 POP JUMP JUMPDEST PUSH0 PUSH2 0xBC6 DUP3 PUSH2 0xA81 JUMP JUMPDEST PUSH2 0xBD0 DUP2 DUP6 PUSH2 0xA8B JUMP JUMPDEST SWAP4 POP DUP4 PUSH1 0x20 DUP3 MUL DUP6 ADD PUSH2 0xBE2 DUP6 PUSH2 0xA9B JUMP JUMPDEST DUP1 PUSH0 JUMPDEST DUP6 DUP2 LT ISZERO PUSH2 0xC1D JUMPI DUP5 DUP5 SUB DUP10 MSTORE DUP2 MLOAD PUSH2 0xBFE DUP6 DUP3 PUSH2 0xB9D JUMP JUMPDEST SWAP5 POP PUSH2 0xC09 DUP4 PUSH2 0xBB0 JUMP JUMPDEST SWAP3 POP PUSH1 0x20 DUP11 ADD SWAP10 POP POP PUSH1 0x1 DUP2 ADD SWAP1 POP PUSH2 0xBE5 JUMP JUMPDEST POP DUP3 SWAP8 POP DUP8 SWAP6 POP POP POP POP POP POP SWAP3 SWAP2 POP POP JUMP JUMPDEST PUSH0 PUSH1 0x20 DUP3 ADD SWAP1 POP DUP2 DUP2 SUB PUSH0 DUP4 ADD MSTORE PUSH2 0xC47 DUP2 DUP5 PUSH2 0xBBC JUMP JUMPDEST SWAP1 POP SWAP3 SWAP2 POP POP JUMP JUMPDEST PUSH0 PUSH1 0x60 DUP4 ADD PUSH0 DUP4 ADD MLOAD DUP5 DUP3 SUB PUSH0 DUP7 ADD MSTORE PUSH2 0xC69 DUP3 DUP3 PUSH2 0xABA JUMP JUMPDEST SWAP2 POP POP PUSH1 0x20 DUP4 ADD MLOAD DUP5 DUP3 SUB PUSH1 0x20 DUP7 ADD MSTORE PUSH2 0xC83 DUP3 DUP3 PUSH2 0xB02 JUMP JUMPDEST SWAP2 POP POP PUSH1 0x40 DUP4 ADD MLOAD PUSH2 0xC98 PUSH1 0x40 DUP7 ADD DUP3 PUSH2 0xB3A JUMP JUMPDEST POP DUP1 SWAP2 POP POP SWAP3 SWAP2 POP POP JUMP JUMPDEST PUSH0 PUSH1 0x20 DUP3 ADD SWAP1 POP DUP2 DUP2 SUB PUSH0 DUP4 ADD MSTORE PUSH2 0xCBB DUP2 DUP5 PUSH2 0xC4F JUMP JUMPDEST SWAP1 POP SWAP3 SWAP2 POP POP JUMP JUMPDEST PUSH32 0x50726F6A6563742049442069732072657175697265642E000000000000000000 PUSH0 DUP3 ADD MSTORE POP JUMP JUMPDEST PUSH0 PUSH2 0xCF7 PUSH1 0x17 DUP4 PUSH2 0x987 JUMP JUMPDEST SWAP2 POP PUSH2 0xD02 DUP3 PUSH2 0xCC3 JUMP JUMPDEST PUSH1 0x20 DUP3 ADD SWAP1 POP SWAP2 SWAP1 POP JUMP JUMPDEST PUSH0 PUSH1 0x20 DUP3 ADD SWAP1 POP DUP2 DUP2 SUB PUSH0 DUP4 ADD MSTORE PUSH2 0xD24 DUP2 PUSH2 0xCEB JUMP JUMPDEST SWAP1 POP SWAP2 SWAP1 POP JUMP JUMPDEST PUSH32 0x56616C756174696F6E2068617368206D7573742062652033322062797465732E PUSH0 DUP3 ADD MSTORE POP JUMP JUMPDEST PUSH0 PUSH2 0xD5F PUSH1 0x20 DUP4 PUSH2 0x987 JUMP JUMPDEST SWAP2 POP PUSH2 0xD6A DUP3 PUSH2 0xD2B JUMP JUMPDEST PUSH1 0x20 DUP3 ADD SWAP1 POP SWAP2 SWAP1 POP JUMP JUMPDEST PUSH0 PUSH1 0x20 DUP3 ADD SWAP1 POP DUP2 DUP2 SUB PUSH0 DUP4 ADD MSTORE PUSH2 0xD8C DUP2 PUSH2 0xD53 JUMP JUMPDEST SWAP1 POP SWAP2 SWAP1 POP JUMP JUMPDEST PUSH32 0x4E487B7100000000000000000000000000000000000000000000000000000000 PUSH0 MSTORE PUSH1 0x22 PUSH1 0x4 MSTORE PUSH1 0x24 PUSH0 REVERT JUMPDEST PUSH0 PUSH1 0x2 DUP3 DIV SWAP1 POP PUSH1 0x1 DUP3 AND DUP1 PUSH2 0xDD7 JUMPI PUSH1 0x7F DUP3 AND SWAP2 POP JUMPDEST PUSH1 0x20 DUP3 LT DUP2 SUB PUSH2 0xDEA JUMPI PUSH2 0xDE9 PUSH2 0xD93 JUMP JUMPDEST JUMPDEST POP SWAP2 SWAP1 POP JUMP JUMPDEST PUSH0 DUP2 SWAP1 POP DUP2 PUSH0 MSTORE PUSH1 0x20 PUSH0 KECCAK256 SWAP1 POP SWAP2 SWAP1 POP JUMP JUMPDEST PUSH0 PUSH1 0x20 PUSH1 0x1F DUP4 ADD DIV SWAP1 POP SWAP2 SWAP1 POP JUMP JUMPDEST PUSH0 DUP3 DUP3 SHL SWAP1 POP SWAP3 SWAP2 POP POP JUMP JUMPDEST PUSH0 PUSH1 0x8 DUP4 MUL PUSH2 0xE4C PUSH32 0xFFFFFFFFFFFFFFFFFFFFFFFFFFFFFFFFFFFFFFFFFFFFFFFFFFFFFFFFFFFFFFFF DUP3 PUSH2 0xE11 JUMP JUMPDEST PUSH2 0xE56 DUP7 DUP4 PUSH2 0xE11 JUMP JUMPDEST SWAP6 POP DUP1 NOT DUP5 AND SWAP4 POP DUP1 DUP7 AND DUP5 OR SWAP3 POP POP POP SWAP4 SWAP3 POP POP POP JUMP JUMPDEST PUSH0 DUP2 SWAP1 POP SWAP2 SWAP1 POP JUMP JUMPDEST PUSH0 PUSH2 0xE91 PUSH2 0xE8C PUSH2 0xE87 DUP5 PUSH2 0x91F JUMP JUMPDEST PUSH2 0xE6E JUMP JUMPDEST PUSH2 0x91F JUMP JUMPDEST SWAP1 POP SWAP2 SWAP1 POP JUMP JUMPDEST PUSH0 DUP2 SWAP1 POP SWAP2 SWAP1 POP JUMP JUMPDEST PUSH2 0xEAA DUP4 PUSH2 0xE77 JUMP JUMPDEST PUSH2 0xEBE PUSH2 0xEB6 DUP3 PUSH2 0xE98 JUMP JUMPDEST DUP5 DUP5 SLOAD PUSH2 0xE1D JUMP JUMPDEST DUP3 SSTORE POP POP POP POP JUMP JUMPDEST PUSH0 SWAP1 JUMP JUMPDEST PUSH2 0xED2 PUSH2 0xEC6 JUMP JUMPDEST PUSH2 0xEDD DUP2 DUP5 DUP5 PUSH2 0xEA1 JUMP JUMPDEST POP POP POP JUMP JUMPDEST JUMPDEST DUP2 DUP2 LT ISZERO PUSH2 0xF00 JUMPI PUSH2 0xEF5 PUSH0 DUP3 PUSH2 0xECA JUMP JUMPDEST PUSH1 0x1 DUP2 ADD SWAP1 POP PUSH2 0xEE3 JUMP JUMPDEST POP POP JUMP JUMPDEST PUSH1 0x1F DUP3 GT ISZERO PUSH2 0xF45 JUMPI PUSH2 0xF16 DUP2 PUSH2 0xDF0 JUMP JUMPDEST PUSH2 0xF1F DUP5 PUSH2 0xE02 JUMP JUMPDEST DUP2 ADD PUSH1 0x20 DUP6 LT ISZERO PUSH2 0xF2E JUMPI DUP2 SWAP1 POP JUMPDEST PUSH2 0xF42 PUSH2 0xF3A DUP6 PUSH2 0xE02 JUMP JUMPDEST DUP4 ADD DUP3 PUSH2 0xEE2 JUMP JUMPDEST POP POP JUMPDEST POP POP POP JUMP JUMPDEST PUSH0 DUP3 DUP3 SHR SWAP1 POP SWAP3 SWAP2 POP POP JUMP JUMPDEST PUSH0 PUSH2 0xF65 PUSH0 NOT DUP5 PUSH1 0x8 MUL PUSH2 0xF4A JUMP JUMPDEST NOT DUP1 DUP4 AND SWAP2 POP POP SWAP3 SWAP2 POP POP JUMP JUMPDEST PUSH0 PUSH2 0xF7D DUP4 DUP4 PUSH2 0xF56 JUMP JUMPDEST SWAP2 POP DUP3 PUSH1 0x2 MUL DUP3 OR SWAP1 POP SWAP3 SWAP2 POP POP JUMP JUMPDEST PUSH2 0xF96 DUP3 PUSH2 0x97D JUMP JUMPDEST PUSH8 0xFFFFFFFFFFFFFFFF DUP2 GT ISZERO PUSH2 0xFAF JUMPI PUSH2 0xFAE PUSH2 0x6E7 JUMP JUMPDEST JUMPDEST PUSH2 0xFB9 DUP3 SLOAD PUSH2 0xDC0 JUMP JUMPDEST PUSH2 0xFC4 DUP3 DUP3 DUP6 PUSH2 0xF04 JUMP JUMPDEST PUSH0 PUSH1 0x20 SWAP1 POP PUSH1 0x1F DUP4 GT PUSH1 0x1 DUP2 EQ PUSH2 0xFF5 JUMPI PUSH0 DUP5 ISZERO PUSH2 0xFE3 JUMPI DUP3 DUP8 ADD MLOAD SWAP1 POP JUMPDEST PUSH2 0xFED DUP6 DUP3 PUSH2 0xF72 JUMP JUMPDEST DUP7 SSTORE POP PUSH2 0x1054 JUMP JUMPDEST PUSH1 0x1F NOT DUP5 AND PUSH2 0x1003 DUP7 PUSH2 0xDF0 JUMP JUMPDEST PUSH0 JUMPDEST DUP3 DUP2 LT ISZERO PUSH2 0x102A JUMPI DUP5 DUP10 ADD MLOAD DUP3 SSTORE PUSH1 0x1 DUP3 ADD SWAP2 POP PUSH1 0x20 DUP6 ADD SWAP5 POP PUSH1 0x20 DUP2 ADD SWAP1 POP PUSH2 0x1005 JUMP JUMPDEST DUP7 DUP4 LT ISZERO PUSH2 0x1047 JUMPI DUP5 DUP10 ADD MLOAD PUSH2 0x1043 PUSH1 0x1F DUP10 AND DUP3 PUSH2 0xF56 JUMP JUMPDEST DUP4 SSTORE POP JUMPDEST PUSH1 0x1 PUSH1 0x2 DUP9 MUL ADD DUP9 SSTORE POP POP POP JUMPDEST POP POP POP POP POP POP JUMP JUMPDEST PUSH0 DUP2 SWAP1 POP DUP2 PUSH0 MSTORE PUSH1 0x20 PUSH0 KECCAK256 SWAP1 POP SWAP2 SWAP1 POP JUMP JUMPDEST PUSH1 0x1F DUP3 GT ISZERO PUSH2 0x10AF JUMPI PUSH2 0x1080 DUP2 PUSH2 0x105C JUMP JUMPDEST PUSH2 0x1089 DUP5 PUSH2 0xE02 JUMP JUMPDEST DUP2 ADD PUSH1 0x20 DUP6 LT ISZERO PUSH2 0x1098 JUMPI DUP2 SWAP1 POP JUMPDEST PUSH2 0x10AC PUSH2 0x10A4 DUP6 PUSH2 0xE02 JUMP JUMPDEST DUP4 ADD DUP3 PUSH2 0xEE2 JUMP JUMPDEST POP POP JUMPDEST POP POP POP JUMP JUMPDEST PUSH2 0x10BD DUP3 PUSH2 0x9DD JUMP JUMPDEST PUSH8 0xFFFFFFFFFFFFFFFF DUP2 GT ISZERO PUSH2 0x10D6 JUMPI PUSH2 0x10D5 PUSH2 0x6E7 JUMP JUMPDEST JUMPDEST PUSH2 0x10E0 DUP3 SLOAD PUSH2 0xDC0 JUMP JUMPDEST PUSH2 0x10EB DUP3 DUP3 DUP6 PUSH2 0x106E JUMP JUMPDEST PUSH0 PUSH1 0x20 SWAP1 POP PUSH1 0x1F DUP4 GT PUSH1 0x1 DUP2 EQ PUSH2 0x111C JUMPI PUSH0 DUP5 ISZERO PUSH2 0x110A JUMPI DUP3 DUP8 ADD MLOAD SWAP1 POP JUMPDEST PUSH2 0x1114 DUP6 DUP3 PUSH2 0xF72 JUMP JUMPDEST DUP7 SSTORE POP PUSH2 0x117B JUMP JUMPDEST PUSH1 0x1F NOT DUP5 AND PUSH2 0x112A DUP7 PUSH2 0x105C JUMP JUMPDEST PUSH0 JUMPDEST DUP3 DUP2 LT ISZERO PUSH2 0x1151 JUMPI DUP5 DUP10 ADD MLOAD DUP3 SSTORE PUSH1 0x1 DUP3 ADD SWAP2 POP PUSH1 0x20 DUP6 ADD SWAP5 POP PUSH1 0x20 DUP2 ADD SWAP1 POP PUSH2 0x112C JUMP JUMPDEST DUP7 DUP4 LT ISZERO PUSH2 0x116E JUMPI DUP5 DUP10 ADD MLOAD PUSH2 0x116A PUSH1 0x1F DUP10 AND DUP3 PUSH2 0xF56 JUMP JUMPDEST DUP4 SSTORE POP JUMPDEST PUSH1 0x1 PUSH1 0x2 DUP9 MUL ADD DUP9 SSTORE POP POP POP JUMPDEST POP POP POP POP POP POP JUMP JUMPDEST PUSH32 0x56616C756174696F6E20646F6573206E6F742065786973742E00000000000000 PUSH0 DUP3 ADD MSTORE POP JUMP JUMPDEST PUSH0 PUSH2 0x11B7 PUSH1 0x19 DUP4 PUSH2 0x987 JUMP JUMPDEST SWAP2 POP PUSH2 0x11C2 DUP3 PUSH2 0x1183 JUMP JUMPDEST PUSH1 0x20 DUP3 ADD SWAP1 POP SWAP2 SWAP1 POP JUMP JUMPDEST PUSH0 PUSH1 0x20 DUP3 ADD SWAP1 POP DUP2 DUP2 SUB PUSH0 DUP4 ADD MSTORE PUSH2 0x11E4 DUP2 PUSH2 0x11AB JUMP JUMPDEST SWAP1 POP SWAP2 SWAP1 POP JUMP JUMPDEST PUSH32 0x4E487B7100000000000000000000000000000000000000000000000000000000 PUSH0 MSTORE PUSH1 0x32 PUSH1 0x4 MSTORE PUSH1 0x24 PUSH0 REVERT INVALID LOG2 PUSH5 0x6970667358 0x22 SLT KECCAK256 0xAC CALLCODE 0xE3 CALLCODE EXTCODESIZE AND 0x1F DUP9 0xBF DUP8 ISZERO GASPRICE PUSH25 0x3480F690E4B777CDE027A9CC8D6A245FDBBCB064736F6C6343 STOP ADDMOD BYTE STOP CALLER "
	},
	"abi": [
		{
			"anonymous": false,
			"inputs": [
				{
					"indexed": true,
					"internalType": "uint256",
					"name": "valuationIndex",
					"type": "uint256"
				},
				{
					"indexed": false,
					"internalType": "string",
					"name": "prj_id",
					"type": "string"
				},
				{
					"indexed": false,
					"internalType": "bytes",
					"name": "valuation_hash",
					"type": "bytes"
				},
				{
					"indexed": false,
					"internalType": "uint256",
					"name": "submission_time",
					"type": "uint256"
				}
			],
			"name": "ValuationHashSubmitted",
			"type": "event"
		},
		{
			"inputs": [
				{
					"internalType": "uint256",
					"name": "valuationIndex",
					"type": "uint256"
				}
			],
			"name": "getValuationById",
			"outputs": [
				{
					"components": [
						{
							"internalType": "string",
							"name": "prj_id",
							"type": "string"
						},
						{
							"internalType": "bytes",
							"name": "valuation_hash",
							"type": "bytes"
						},
						{
							"internalType": "uint256",
							"name": "submission_time",
							"type": "uint256"
						}
					],
					"internalType": "struct HederaValuationContract.Valuation",
					"name": "",
					"type": "tuple"
				}
			],
			"stateMutability": "view",
			"type": "function"
		},
		{
			"inputs": [],
			"name": "getValuations",
			"outputs": [
				{
					"components": [
						{
							"internalType": "string",
							"name": "prj_id",
							"type": "string"
						},
						{
							"internalType": "bytes",
							"name": "valuation_hash",
							"type": "bytes"
						},
						{
							"internalType": "uint256",
							"name": "submission_time",
							"type": "uint256"
						}
					],
					"internalType": "struct HederaValuationContract.Valuation[]",
					"name": "",
					"type": "tuple[]"
				}
			],
			"stateMutability": "view",
			"type": "function"
		},
		{
			"inputs": [
				{
					"internalType": "string",
					"name": "prj_id",
					"type": "string"
				},
				{
					"internalType": "bytes",
					"name": "valuation_hash",
					"type": "bytes"
				}
			],
			"name": "submitValuationHash",
			"outputs": [],
			"stateMutability": "nonpayable",
			"type": "function"
		},
		{
			"inputs": [
				{
					"internalType": "uint256",
					"name": "",
					"type": "uint256"
				}
			],
			"name": "valuations",
			"outputs": [
				{
					"internalType": "string",
					"name": "prj_id",
					"type": "string"
				},
				{
					"internalType": "bytes",
					"name": "valuation_hash",
					"type": "bytes"
				},
				{
					"internalType": "uint256",
					"name": "submission_time",
					"type": "uint256"
				}
			],
			"stateMutability": "view",
			"type": "function"
		}
	],
	"storageLayout": {
		"storage": [
			{
				"astId": 12,
				"contract": "valuation.sol:HederaValuationContract",
				"label": "valuations",
				"offset": 0,
				"slot": "0",
				"type": "t_array(t_struct(Valuation)8_storage)dyn_storage"
			}
		],
		"types": {
			"t_array(t_struct(Valuation)8_storage)dyn_storage": {
				"base": "t_struct(Valuation)8_storage",
				"encoding": "dynamic_array",
				"label": "struct HederaValuationContract.Valuation[]",
				"numberOfBytes": "32"
			},
			"t_bytes_storage": {
				"encoding": "bytes",
				"label": "bytes",
				"numberOfBytes": "32"
			},
			"t_string_storage": {
				"encoding": "bytes",
				"label": "string",
				"numberOfBytes": "32"
			},
			"t_struct(Valuation)8_storage": {
				"encoding": "inplace",
				"label": "struct HederaValuationContract.Valuation",
				"members": [
					{
						"astId": 3,
						"contract": "valuation.sol:HederaValuationContract",
						"label": "prj_id",
						"offset": 0,
						"slot": "0",
						"type": "t_string_storage"
					},
					{
						"astId": 5,
						"contract": "valuation.sol:HederaValuationContract",
						"label": "valuation_hash",
						"offset": 0,
						"slot": "1",
						"type": "t_bytes_storage"
					},
					{
						"astId": 7,
						"contract": "valuation.sol:HederaValuationContract",
						"label": "submission_time",
						"offset": 0,
						"slot": "2",
						"type": "t_uint256"
					}
				],
				"numberOfBytes": "96"
			},
			"t_uint256": {
				"encoding": "inplace",
				"label": "uint256",
				"numberOfBytes": "32"
			}
		}
	},
	"web3Deploy": "var hederavaluationcontractContract = new web3.eth.Contract([{\"anonymous\":false,\"inputs\":[{\"indexed\":true,\"internalType\":\"uint256\",\"name\":\"valuationIndex\",\"type\":\"uint256\"},{\"indexed\":false,\"internalType\":\"string\",\"name\":\"prj_id\",\"type\":\"string\"},{\"indexed\":false,\"internalType\":\"bytes\",\"name\":\"valuation_hash\",\"type\":\"bytes\"},{\"indexed\":false,\"internalType\":\"uint256\",\"name\":\"submission_time\",\"type\":\"uint256\"}],\"name\":\"ValuationHashSubmitted\",\"type\":\"event\"},{\"inputs\":[{\"internalType\":\"uint256\",\"name\":\"valuationIndex\",\"type\":\"uint256\"}],\"name\":\"getValuationById\",\"outputs\":[{\"components\":[{\"internalType\":\"string\",\"name\":\"prj_id\",\"type\":\"string\"},{\"internalType\":\"bytes\",\"name\":\"valuation_hash\",\"type\":\"bytes\"},{\"internalType\":\"uint256\",\"name\":\"submission_time\",\"type\":\"uint256\"}],\"internalType\":\"struct HederaValuationContract.Valuation\",\"name\":\"\",\"type\":\"tuple\"}],\"stateMutability\":\"view\",\"type\":\"function\"},{\"inputs\":[],\"name\":\"getValuations\",\"outputs\":[{\"components\":[{\"internalType\":\"string\",\"name\":\"prj_id\",\"type\":\"string\"},{\"internalType\":\"bytes\",\"name\":\"valuation_hash\",\"type\":\"bytes\"},{\"internalType\":\"uint256\",\"name\":\"submission_time\",\"type\":\"uint256\"}],\"internalType\":\"struct HederaValuationContract.Valuation[]\",\"name\":\"\",\"type\":\"tuple[]\"}],\"stateMutability\":\"view\",\"type\":\"function\"},{\"inputs\":[{\"internalType\":\"string\",\"name\":\"prj_id\",\"type\":\"string\"},{\"internalType\":\"bytes\",\"name\":\"valuation_hash\",\"type\":\"bytes\"}],\"name\":\"submitValuationHash\",\"outputs\":[],\"stateMutability\":\"nonpayable\",\"type\":\"function\"},{\"inputs\":[{\"internalType\":\"uint256\",\"name\":\"\",\"type\":\"uint256\"}],\"name\":\"valuations\",\"outputs\":[{\"internalType\":\"string\",\"name\":\"prj_id\",\"type\":\"string\"},{\"internalType\":\"bytes\",\"name\":\"valuation_hash\",\"type\":\"bytes\"},{\"internalType\":\"uint256\",\"name\":\"submission_time\",\"type\":\"uint256\"}],\"stateMutability\":\"view\",\"type\":\"function\"}]);\nvar hederavaluationcontract = hederavaluationcontractContract.deploy({\n     data: '0x6080604052348015600e575f80fd5b5061124e8061001c5f395ff3fe608060405234801561000f575f80fd5b506004361061004a575f3560e01c8063499dba4d1461004e5780635d03d83e1461006a5780638220b0501461009c578063b43ad93d146100ba575b5f80fd5b610068600480360381019061006391906108a9565b6100ea565b005b610084600480360381019061007f9190610952565b610232565b60405161009393929190610a3e565b60405180910390f35b6100a4610372565b6040516100b19190610c2f565b60405180910390f35b6100d460048036038101906100cf9190610952565b6104f6565b6040516100e19190610ca3565b60405180910390f35b5f82511161012d576040517f08c379a000000000000000000000000000000000000000000000000000000000815260040161012490610d0d565b60405180910390fd5b6020815114610171576040517f08c379a000000000000000000000000000000000000000000000000000000000815260040161016890610d75565b60405180910390fd5b5f808054905090505f604051806060016040528085815260200184815260200142815250908060018154018082558091505060019003905f5260205f2090600302015f909190919091505f820151815f0190816101ce9190610f8d565b5060208201518160010190816101e491906110b4565b50604082015181600201555050807f36f98d58759794380d8a9d5a43b18a58bf17ca84f9eaca96efff0249622d511b84844260405161022593929190610a3e565b60405180910390a2505050565b5f8181548110610240575f80fd5b905f5260205f2090600302015f91509050805f01805461025f90610dc0565b80601f016020809104026020016040519081016040528092919081815260200182805461028b90610dc0565b80156102d65780601f106102ad576101008083540402835291602001916102d6565b820191905f5260205f20905b8154815290600101906020018083116102b957829003601f168201915b5050505050908060010180546102eb90610dc0565b80601f016020809104026020016040519081016040528092919081815260200182805461031790610dc0565b80156103625780601f1061033957610100808354040283529160200191610362565b820191905f5260205f20905b81548152906001019060200180831161034557829003601f168201915b5050505050908060020154905083565b60605f805480602002602001604051908101604052809291908181526020015f905b828210156104ed578382905f5260205f2090600302016040518060600160405290815f820180546103c490610dc0565b80601f01602080910402602001604051908101604052809291908181526020018280546103f090610dc0565b801561043b5780601f106104125761010080835404028352916020019161043b565b820191905f5260205f20905b81548152906001019060200180831161041e57829003601f168201915b5050505050815260200160018201805461045490610dc0565b80601f016020809104026020016040519081016040528092919081815260200182805461048090610dc0565b80156104cb5780601f106104a2576101008083540402835291602001916104cb565b820191905f5260205f20905b8154815290600101906020018083116104ae57829003601f168201915b5050505050815260200160028201548152505081526020019060010190610394565b50505050905090565b6104fe61069e565b5f805490508210610544576040517f08c379a000000000000000000000000000000000000000000000000000000000815260040161053b906111cd565b60405180910390fd5b5f8281548110610557576105566111eb565b5b905f5260205f2090600302016040518060600160405290815f8201805461057d90610dc0565b80601f01602080910402602001604051908101604052809291908181526020018280546105a990610dc0565b80156105f45780601f106105cb576101008083540402835291602001916105f4565b820191905f5260205f20905b8154815290600101906020018083116105d757829003601f168201915b5050505050815260200160018201805461060d90610dc0565b80601f016020809104026020016040519081016040528092919081815260200182805461063990610dc0565b80156106845780601f1061065b57610100808354040283529160200191610684565b820191905f5260205f20905b81548152906001019060200180831161066757829003601f168201915b505050505081526020016002820154815250509050919050565b604051806060016040528060608152602001606081526020015f81525090565b5f604051905090565b5f80fd5b5f80fd5b5f80fd5b5f80fd5b5f601f19601f8301169050919050565b7f4e487b71000000000000000000000000000000000000000000000000000000005f52604160045260245ffd5b61071d826106d7565b810181811067ffffffffffffffff8211171561073c5761073b6106e7565b5b80604052505050565b5f61074e6106be565b905061075a8282610714565b919050565b5f67ffffffffffffffff821115610779576107786106e7565b5b610782826106d7565b9050602081019050919050565b828183375f83830152505050565b5f6107af6107aa8461075f565b610745565b9050828152602081018484840111156107cb576107ca6106d3565b5b6107d684828561078f565b509392505050565b5f82601f8301126107f2576107f16106cf565b5b813561080284826020860161079d565b91505092915050565b5f67ffffffffffffffff821115610825576108246106e7565b5b61082e826106d7565b9050602081019050919050565b5f61084d6108488461080b565b610745565b905082815260208101848484011115610869576108686106d3565b5b61087484828561078f565b509392505050565b5f82601f8301126108905761088f6106cf565b5b81356108a084826020860161083b565b91505092915050565b5f80604083850312156108bf576108be6106c7565b5b5f83013567ffffffffffffffff8111156108dc576108db6106cb565b5b6108e8858286016107de565b925050602083013567ffffffffffffffff811115610909576109086106cb565b5b6109158582860161087c565b9150509250929050565b5f819050919050565b6109318161091f565b811461093b575f80fd5b50565b5f8135905061094c81610928565b92915050565b5f60208284031215610967576109666106c7565b5b5f6109748482850161093e565b91505092915050565b5f81519050919050565b5f82825260208201905092915050565b8281835e5f83830152505050565b5f6109af8261097d565b6109b98185610987565b93506109c9818560208601610997565b6109d2816106d7565b840191505092915050565b5f81519050919050565b5f82825260208201905092915050565b5f610a01826109dd565b610a0b81856109e7565b9350610a1b818560208601610997565b610a24816106d7565b840191505092915050565b610a388161091f565b82525050565b5f6060820190508181035f830152610a5681866109a5565b90508181036020830152610a6a81856109f7565b9050610a796040830184610a2f565b949350505050565b5f81519050919050565b5f82825260208201905092915050565b5f819050602082019050919050565b5f82825260208201905092915050565b5f610ac48261097d565b610ace8185610aaa565b9350610ade818560208601610997565b610ae7816106d7565b840191505092915050565b5f82825260208201905092915050565b5f610b0c826109dd565b610b168185610af2565b9350610b26818560208601610997565b610b2f816106d7565b840191505092915050565b610b438161091f565b82525050565b5f606083015f8301518482035f860152610b638282610aba565b91505060208301518482036020860152610b7d8282610b02565b9150506040830151610b926040860182610b3a565b508091505092915050565b5f610ba88383610b49565b905092915050565b5f602082019050919050565b5f610bc682610a81565b610bd08185610a8b565b935083602082028501610be285610a9b565b805f5b85811015610c1d5784840389528151610bfe8582610b9d565b9450610c0983610bb0565b925060208a01995050600181019050610be5565b50829750879550505050505092915050565b5f6020820190508181035f830152610c478184610bbc565b905092915050565b5f606083015f8301518482035f860152610c698282610aba565b91505060208301518482036020860152610c838282610b02565b9150506040830151610c986040860182610b3a565b508091505092915050565b5f6020820190508181035f830152610cbb8184610c4f565b905092915050565b7f50726f6a6563742049442069732072657175697265642e0000000000000000005f82015250565b5f610cf7601783610987565b9150610d0282610cc3565b602082019050919050565b5f6020820190508181035f830152610d2481610ceb565b9050919050565b7f56616c756174696f6e2068617368206d7573742062652033322062797465732e5f82015250565b5f610d5f602083610987565b9150610d6a82610d2b565b602082019050919050565b5f6020820190508181035f830152610d8c81610d53565b9050919050565b7f4e487b71000000000000000000000000000000000000000000000000000000005f52602260045260245ffd5b5f6002820490506001821680610dd757607f821691505b602082108103610dea57610de9610d93565b5b50919050565b5f819050815f5260205f209050919050565b5f6020601f8301049050919050565b5f82821b905092915050565b5f60088302610e4c7fffffffffffffffffffffffffffffffffffffffffffffffffffffffffffffffff82610e11565b610e568683610e11565b95508019841693508086168417925050509392505050565b5f819050919050565b5f610e91610e8c610e878461091f565b610e6e565b61091f565b9050919050565b5f819050919050565b610eaa83610e77565b610ebe610eb682610e98565b848454610e1d565b825550505050565b5f90565b610ed2610ec6565b610edd818484610ea1565b505050565b5b81811015610f0057610ef55f82610eca565b600181019050610ee3565b5050565b601f821115610f4557610f1681610df0565b610f1f84610e02565b81016020851015610f2e578190505b610f42610f3a85610e02565b830182610ee2565b50505b505050565b5f82821c905092915050565b5f610f655f1984600802610f4a565b1980831691505092915050565b5f610f7d8383610f56565b9150826002028217905092915050565b610f968261097d565b67ffffffffffffffff811115610faf57610fae6106e7565b5b610fb98254610dc0565b610fc4828285610f04565b5f60209050601f831160018114610ff5575f8415610fe3578287015190505b610fed8582610f72565b865550611054565b601f19841661100386610df0565b5f5b8281101561102a57848901518255600182019150602085019450602081019050611005565b868310156110475784890151611043601f891682610f56565b8355505b6001600288020188555050505b505050505050565b5f819050815f5260205f209050919050565b601f8211156110af576110808161105c565b61108984610e02565b81016020851015611098578190505b6110ac6110a485610e02565b830182610ee2565b50505b505050565b6110bd826109dd565b67ffffffffffffffff8111156110d6576110d56106e7565b5b6110e08254610dc0565b6110eb82828561106e565b5f60209050601f83116001811461111c575f841561110a578287015190505b6111148582610f72565b86555061117b565b601f19841661112a8661105c565b5f5b828110156111515784890151825560018201915060208501945060208101905061112c565b8683101561116e578489015161116a601f891682610f56565b8355505b6001600288020188555050505b505050505050565b7f56616c756174696f6e20646f6573206e6f742065786973742e000000000000005f82015250565b5f6111b7601983610987565b91506111c282611183565b602082019050919050565b5f6020820190508181035f8301526111e4816111ab565b9050919050565b7f4e487b71000000000000000000000000000000000000000000000000000000005f52603260045260245ffdfea2646970667358221220acf2e3f23b161f88bf87153a783480f690e4b777cde027a9cc8d6a245fdbbcb064736f6c634300081a0033', \n     arguments: [\n     ]\n}).send({\n     from: web3.eth.accounts[0], \n     gas: '4700000'\n   }, function (e, contract){\n    console.log(e, contract);\n    if (typeof contract.address !== 'undefined') {\n         console.log('Contract mined! address: ' + contract.address + ' transactionHash: ' + contract.transactionHash);\n    }\n })",
	"functionHashes": {
		"b43ad93d": "getValuationById(uint256)",
		"8220b050": "getValuations()",
		"499dba4d": "submitValuationHash(string,bytes)",
		"5d03d83e": "valuations(uint256)"
	},
	"gasEstimates": {
		"Creation": {
			"codeDepositCost": "937200",
			"executionCost": "973",
			"totalCost": "938173"
		},
		"External": {
			"getValuationById(uint256)": "infinite",
			"getValuations()": "infinite",
			"submitValuationHash(string,bytes)": "infinite",
			"valuations(uint256)": "infinite"
		}
	},
	"devdoc": {
		"kind": "dev",
		"methods": {},
		"version": 1
	},
	"userdoc": {
		"kind": "user",
		"methods": {},
		"version": 1
	},
	"Runtime Bytecode": {
		"immutableReferences": {},
		"linkReferences": {},
		"object": "608060405234801561000f575f80fd5b506004361061004a575f3560e01c8063499dba4d1461004e5780635d03d83e1461006a5780638220b0501461009c578063b43ad93d146100ba575b5f80fd5b610068600480360381019061006391906108a9565b6100ea565b005b610084600480360381019061007f9190610952565b610232565b60405161009393929190610a3e565b60405180910390f35b6100a4610372565b6040516100b19190610c2f565b60405180910390f35b6100d460048036038101906100cf9190610952565b6104f6565b6040516100e19190610ca3565b60405180910390f35b5f82511161012d576040517f08c379a000000000000000000000000000000000000000000000000000000000815260040161012490610d0d565b60405180910390fd5b6020815114610171576040517f08c379a000000000000000000000000000000000000000000000000000000000815260040161016890610d75565b60405180910390fd5b5f808054905090505f604051806060016040528085815260200184815260200142815250908060018154018082558091505060019003905f5260205f2090600302015f909190919091505f820151815f0190816101ce9190610f8d565b5060208201518160010190816101e491906110b4565b50604082015181600201555050807f36f98d58759794380d8a9d5a43b18a58bf17ca84f9eaca96efff0249622d511b84844260405161022593929190610a3e565b60405180910390a2505050565b5f8181548110610240575f80fd5b905f5260205f2090600302015f91509050805f01805461025f90610dc0565b80601f016020809104026020016040519081016040528092919081815260200182805461028b90610dc0565b80156102d65780601f106102ad576101008083540402835291602001916102d6565b820191905f5260205f20905b8154815290600101906020018083116102b957829003601f168201915b5050505050908060010180546102eb90610dc0565b80601f016020809104026020016040519081016040528092919081815260200182805461031790610dc0565b80156103625780601f1061033957610100808354040283529160200191610362565b820191905f5260205f20905b81548152906001019060200180831161034557829003601f168201915b5050505050908060020154905083565b60605f805480602002602001604051908101604052809291908181526020015f905b828210156104ed578382905f5260205f2090600302016040518060600160405290815f820180546103c490610dc0565b80601f01602080910402602001604051908101604052809291908181526020018280546103f090610dc0565b801561043b5780601f106104125761010080835404028352916020019161043b565b820191905f5260205f20905b81548152906001019060200180831161041e57829003601f168201915b5050505050815260200160018201805461045490610dc0565b80601f016020809104026020016040519081016040528092919081815260200182805461048090610dc0565b80156104cb5780601f106104a2576101008083540402835291602001916104cb565b820191905f5260205f20905b8154815290600101906020018083116104ae57829003601f168201915b5050505050815260200160028201548152505081526020019060010190610394565b50505050905090565b6104fe61069e565b5f805490508210610544576040517f08c379a000000000000000000000000000000000000000000000000000000000815260040161053b906111cd565b60405180910390fd5b5f8281548110610557576105566111eb565b5b905f5260205f2090600302016040518060600160405290815f8201805461057d90610dc0565b80601f01602080910402602001604051908101604052809291908181526020018280546105a990610dc0565b80156105f45780601f106105cb576101008083540402835291602001916105f4565b820191905f5260205f20905b8154815290600101906020018083116105d757829003601f168201915b5050505050815260200160018201805461060d90610dc0565b80601f016020809104026020016040519081016040528092919081815260200182805461063990610dc0565b80156106845780601f1061065b57610100808354040283529160200191610684565b820191905f5260205f20905b81548152906001019060200180831161066757829003601f168201915b505050505081526020016002820154815250509050919050565b604051806060016040528060608152602001606081526020015f81525090565b5f604051905090565b5f80fd5b5f80fd5b5f80fd5b5f80fd5b5f601f19601f8301169050919050565b7f4e487b71000000000000000000000000000000000000000000000000000000005f52604160045260245ffd5b61071d826106d7565b810181811067ffffffffffffffff8211171561073c5761073b6106e7565b5b80604052505050565b5f61074e6106be565b905061075a8282610714565b919050565b5f67ffffffffffffffff821115610779576107786106e7565b5b610782826106d7565b9050602081019050919050565b828183375f83830152505050565b5f6107af6107aa8461075f565b610745565b9050828152602081018484840111156107cb576107ca6106d3565b5b6107d684828561078f565b509392505050565b5f82601f8301126107f2576107f16106cf565b5b813561080284826020860161079d565b91505092915050565b5f67ffffffffffffffff821115610825576108246106e7565b5b61082e826106d7565b9050602081019050919050565b5f61084d6108488461080b565b610745565b905082815260208101848484011115610869576108686106d3565b5b61087484828561078f565b509392505050565b5f82601f8301126108905761088f6106cf565b5b81356108a084826020860161083b565b91505092915050565b5f80604083850312156108bf576108be6106c7565b5b5f83013567ffffffffffffffff8111156108dc576108db6106cb565b5b6108e8858286016107de565b925050602083013567ffffffffffffffff811115610909576109086106cb565b5b6109158582860161087c565b9150509250929050565b5f819050919050565b6109318161091f565b811461093b575f80fd5b50565b5f8135905061094c81610928565b92915050565b5f60208284031215610967576109666106c7565b5b5f6109748482850161093e565b91505092915050565b5f81519050919050565b5f82825260208201905092915050565b8281835e5f83830152505050565b5f6109af8261097d565b6109b98185610987565b93506109c9818560208601610997565b6109d2816106d7565b840191505092915050565b5f81519050919050565b5f82825260208201905092915050565b5f610a01826109dd565b610a0b81856109e7565b9350610a1b818560208601610997565b610a24816106d7565b840191505092915050565b610a388161091f565b82525050565b5f6060820190508181035f830152610a5681866109a5565b90508181036020830152610a6a81856109f7565b9050610a796040830184610a2f565b949350505050565b5f81519050919050565b5f82825260208201905092915050565b5f819050602082019050919050565b5f82825260208201905092915050565b5f610ac48261097d565b610ace8185610aaa565b9350610ade818560208601610997565b610ae7816106d7565b840191505092915050565b5f82825260208201905092915050565b5f610b0c826109dd565b610b168185610af2565b9350610b26818560208601610997565b610b2f816106d7565b840191505092915050565b610b438161091f565b82525050565b5f606083015f8301518482035f860152610b638282610aba565b91505060208301518482036020860152610b7d8282610b02565b9150506040830151610b926040860182610b3a565b508091505092915050565b5f610ba88383610b49565b905092915050565b5f602082019050919050565b5f610bc682610a81565b610bd08185610a8b565b935083602082028501610be285610a9b565b805f5b85811015610c1d5784840389528151610bfe8582610b9d565b9450610c0983610bb0565b925060208a01995050600181019050610be5565b50829750879550505050505092915050565b5f6020820190508181035f830152610c478184610bbc565b905092915050565b5f606083015f8301518482035f860152610c698282610aba565b91505060208301518482036020860152610c838282610b02565b9150506040830151610c986040860182610b3a565b508091505092915050565b5f6020820190508181035f830152610cbb8184610c4f565b905092915050565b7f50726f6a6563742049442069732072657175697265642e0000000000000000005f82015250565b5f610cf7601783610987565b9150610d0282610cc3565b602082019050919050565b5f6020820190508181035f830152610d2481610ceb565b9050919050565b7f56616c756174696f6e2068617368206d7573742062652033322062797465732e5f82015250565b5f610d5f602083610987565b9150610d6a82610d2b565b602082019050919050565b5f6020820190508181035f830152610d8c81610d53565b9050919050565b7f4e487b71000000000000000000000000000000000000000000000000000000005f52602260045260245ffd5b5f6002820490506001821680610dd757607f821691505b602082108103610dea57610de9610d93565b5b50919050565b5f819050815f5260205f209050919050565b5f6020601f8301049050919050565b5f82821b905092915050565b5f60088302610e4c7fffffffffffffffffffffffffffffffffffffffffffffffffffffffffffffffff82610e11565b610e568683610e11565b95508019841693508086168417925050509392505050565b5f819050919050565b5f610e91610e8c610e878461091f565b610e6e565b61091f565b9050919050565b5f819050919050565b610eaa83610e77565b610ebe610eb682610e98565b848454610e1d565b825550505050565b5f90565b610ed2610ec6565b610edd818484610ea1565b505050565b5b81811015610f0057610ef55f82610eca565b600181019050610ee3565b5050565b601f821115610f4557610f1681610df0565b610f1f84610e02565b81016020851015610f2e578190505b610f42610f3a85610e02565b830182610ee2565b50505b505050565b5f82821c905092915050565b5f610f655f1984600802610f4a565b1980831691505092915050565b5f610f7d8383610f56565b9150826002028217905092915050565b610f968261097d565b67ffffffffffffffff811115610faf57610fae6106e7565b5b610fb98254610dc0565b610fc4828285610f04565b5f60209050601f831160018114610ff5575f8415610fe3578287015190505b610fed8582610f72565b865550611054565b601f19841661100386610df0565b5f5b8281101561102a57848901518255600182019150602085019450602081019050611005565b868310156110475784890151611043601f891682610f56565b8355505b6001600288020188555050505b505050505050565b5f819050815f5260205f209050919050565b601f8211156110af576110808161105c565b61108984610e02565b81016020851015611098578190505b6110ac6110a485610e02565b830182610ee2565b50505b505050565b6110bd826109dd565b67ffffffffffffffff8111156110d6576110d56106e7565b5b6110e08254610dc0565b6110eb82828561106e565b5f60209050601f83116001811461111c575f841561110a578287015190505b6111148582610f72565b86555061117b565b601f19841661112a8661105c565b5f5b828110156111515784890151825560018201915060208501945060208101905061112c565b8683101561116e578489015161116a601f891682610f56565b8355505b6001600288020188555050505b505050505050565b7f56616c756174696f6e20646f6573206e6f742065786973742e000000000000005f82015250565b5f6111b7601983610987565b91506111c282611183565b602082019050919050565b5f6020820190508181035f8301526111e4816111ab565b9050919050565b7f4e487b71000000000000000000000000000000000000000000000000000000005f52603260045260245ffdfea2646970667358221220acf2e3f23b161f88bf87153a783480f690e4b777cde027a9cc8d6a245fdbbcb064736f6c634300081a0033",
		"opcodes": "PUSH1 0x80 PUSH1 0x40 MSTORE CALLVALUE DUP1 ISZERO PUSH2 0xF JUMPI PUSH0 DUP1 REVERT JUMPDEST POP PUSH1 0x4 CALLDATASIZE LT PUSH2 0x4A JUMPI PUSH0 CALLDATALOAD PUSH1 0xE0 SHR DUP1 PUSH4 0x499DBA4D EQ PUSH2 0x4E JUMPI DUP1 PUSH4 0x5D03D83E EQ PUSH2 0x6A JUMPI DUP1 PUSH4 0x8220B050 EQ PUSH2 0x9C JUMPI DUP1 PUSH4 0xB43AD93D EQ PUSH2 0xBA JUMPI JUMPDEST PUSH0 DUP1 REVERT JUMPDEST PUSH2 0x68 PUSH1 0x4 DUP1 CALLDATASIZE SUB DUP2 ADD SWAP1 PUSH2 0x63 SWAP2 SWAP1 PUSH2 0x8A9 JUMP JUMPDEST PUSH2 0xEA JUMP JUMPDEST STOP JUMPDEST PUSH2 0x84 PUSH1 0x4 DUP1 CALLDATASIZE SUB DUP2 ADD SWAP1 PUSH2 0x7F SWAP2 SWAP1 PUSH2 0x952 JUMP JUMPDEST PUSH2 0x232 JUMP JUMPDEST PUSH1 0x40 MLOAD PUSH2 0x93 SWAP4 SWAP3 SWAP2 SWAP1 PUSH2 0xA3E JUMP JUMPDEST PUSH1 0x40 MLOAD DUP1 SWAP2 SUB SWAP1 RETURN JUMPDEST PUSH2 0xA4 PUSH2 0x372 JUMP JUMPDEST PUSH1 0x40 MLOAD PUSH2 0xB1 SWAP2 SWAP1 PUSH2 0xC2F JUMP JUMPDEST PUSH1 0x40 MLOAD DUP1 SWAP2 SUB SWAP1 RETURN JUMPDEST PUSH2 0xD4 PUSH1 0x4 DUP1 CALLDATASIZE SUB DUP2 ADD SWAP1 PUSH2 0xCF SWAP2 SWAP1 PUSH2 0x952 JUMP JUMPDEST PUSH2 0x4F6 JUMP JUMPDEST PUSH1 0x40 MLOAD PUSH2 0xE1 SWAP2 SWAP1 PUSH2 0xCA3 JUMP JUMPDEST PUSH1 0x40 MLOAD DUP1 SWAP2 SUB SWAP1 RETURN JUMPDEST PUSH0 DUP3 MLOAD GT PUSH2 0x12D JUMPI PUSH1 0x40 MLOAD PUSH32 0x8C379A000000000000000000000000000000000000000000000000000000000 DUP2 MSTORE PUSH1 0x4 ADD PUSH2 0x124 SWAP1 PUSH2 0xD0D JUMP JUMPDEST PUSH1 0x40 MLOAD DUP1 SWAP2 SUB SWAP1 REVERT JUMPDEST PUSH1 0x20 DUP2 MLOAD EQ PUSH2 0x171 JUMPI PUSH1 0x40 MLOAD PUSH32 0x8C379A000000000000000000000000000000000000000000000000000000000 DUP2 MSTORE PUSH1 0x4 ADD PUSH2 0x168 SWAP1 PUSH2 0xD75 JUMP JUMPDEST PUSH1 0x40 MLOAD DUP1 SWAP2 SUB SWAP1 REVERT JUMPDEST PUSH0 DUP1 DUP1 SLOAD SWAP1 POP SWAP1 POP PUSH0 PUSH1 0x40 MLOAD DUP1 PUSH1 0x60 ADD PUSH1 0x40 MSTORE DUP1 DUP6 DUP2 MSTORE PUSH1 0x20 ADD DUP5 DUP2 MSTORE PUSH1 0x20 ADD TIMESTAMP DUP2 MSTORE POP SWAP1 DUP1 PUSH1 0x1 DUP2 SLOAD ADD DUP1 DUP3 SSTORE DUP1 SWAP2 POP POP PUSH1 0x1 SWAP1 SUB SWAP1 PUSH0 MSTORE PUSH1 0x20 PUSH0 KECCAK256 SWAP1 PUSH1 0x3 MUL ADD PUSH0 SWAP1 SWAP2 SWAP1 SWAP2 SWAP1 SWAP2 POP PUSH0 DUP3 ADD MLOAD DUP2 PUSH0 ADD SWAP1 DUP2 PUSH2 0x1CE SWAP2 SWAP1 PUSH2 0xF8D JUMP JUMPDEST POP PUSH1 0x20 DUP3 ADD MLOAD DUP2 PUSH1 0x1 ADD SWAP1 DUP2 PUSH2 0x1E4 SWAP2 SWAP1 PUSH2 0x10B4 JUMP JUMPDEST POP PUSH1 0x40 DUP3 ADD MLOAD DUP2 PUSH1 0x2 ADD SSTORE POP POP DUP1 PUSH32 0x36F98D58759794380D8A9D5A43B18A58BF17CA84F9EACA96EFFF0249622D511B DUP5 DUP5 TIMESTAMP PUSH1 0x40 MLOAD PUSH2 0x225 SWAP4 SWAP3 SWAP2 SWAP1 PUSH2 0xA3E JUMP JUMPDEST PUSH1 0x40 MLOAD DUP1 SWAP2 SUB SWAP1 LOG2 POP POP POP JUMP JUMPDEST PUSH0 DUP2 DUP2 SLOAD DUP2 LT PUSH2 0x240 JUMPI PUSH0 DUP1 REVERT JUMPDEST SWAP1 PUSH0 MSTORE PUSH1 0x20 PUSH0 KECCAK256 SWAP1 PUSH1 0x3 MUL ADD PUSH0 SWAP2 POP SWAP1 POP DUP1 PUSH0 ADD DUP1 SLOAD PUSH2 0x25F SWAP1 PUSH2 0xDC0 JUMP JUMPDEST DUP1 PUSH1 0x1F ADD PUSH1 0x20 DUP1 SWAP2 DIV MUL PUSH1 0x20 ADD PUSH1 0x40 MLOAD SWAP1 DUP2 ADD PUSH1 0x40 MSTORE DUP1 SWAP3 SWAP2 SWAP1 DUP2 DUP2 MSTORE PUSH1 0x20 ADD DUP3 DUP1 SLOAD PUSH2 0x28B SWAP1 PUSH2 0xDC0 JUMP JUMPDEST DUP1 ISZERO PUSH2 0x2D6 JUMPI DUP1 PUSH1 0x1F LT PUSH2 0x2AD JUMPI PUSH2 0x100 DUP1 DUP4 SLOAD DIV MUL DUP4 MSTORE SWAP2 PUSH1 0x20 ADD SWAP2 PUSH2 0x2D6 JUMP JUMPDEST DUP3 ADD SWAP2 SWAP1 PUSH0 MSTORE PUSH1 0x20 PUSH0 KECCAK256 SWAP1 JUMPDEST DUP2 SLOAD DUP2 MSTORE SWAP1 PUSH1 0x1 ADD SWAP1 PUSH1 0x20 ADD DUP1 DUP4 GT PUSH2 0x2B9 JUMPI DUP3 SWAP1 SUB PUSH1 0x1F AND DUP3 ADD SWAP2 JUMPDEST POP POP POP POP POP SWAP1 DUP1 PUSH1 0x1 ADD DUP1 SLOAD PUSH2 0x2EB SWAP1 PUSH2 0xDC0 JUMP JUMPDEST DUP1 PUSH1 0x1F ADD PUSH1 0x20 DUP1 SWAP2 DIV MUL PUSH1 0x20 ADD PUSH1 0x40 MLOAD SWAP1 DUP2 ADD PUSH1 0x40 MSTORE DUP1 SWAP3 SWAP2 SWAP1 DUP2 DUP2 MSTORE PUSH1 0x20 ADD DUP3 DUP1 SLOAD PUSH2 0x317 SWAP1 PUSH2 0xDC0 JUMP JUMPDEST DUP1 ISZERO PUSH2 0x362 JUMPI DUP1 PUSH1 0x1F LT PUSH2 0x339 JUMPI PUSH2 0x100 DUP1 DUP4 SLOAD DIV MUL DUP4 MSTORE SWAP2 PUSH1 0x20 ADD SWAP2 PUSH2 0x362 JUMP JUMPDEST DUP3 ADD SWAP2 SWAP1 PUSH0 MSTORE PUSH1 0x20 PUSH0 KECCAK256 SWAP1 JUMPDEST DUP2 SLOAD DUP2 MSTORE SWAP1 PUSH1 0x1 ADD SWAP1 PUSH1 0x20 ADD DUP1 DUP4 GT PUSH2 0x345 JUMPI DUP3 SWAP1 SUB PUSH1 0x1F AND DUP3 ADD SWAP2 JUMPDEST POP POP POP POP POP SWAP1 DUP1 PUSH1 0x2 ADD SLOAD SWAP1 POP DUP4 JUMP JUMPDEST PUSH1 0x60 PUSH0 DUP1 SLOAD DUP1 PUSH1 0x20 MUL PUSH1 0x20 ADD PUSH1 0x40 MLOAD SWAP1 DUP2 ADD PUSH1 0x40 MSTORE DUP1 SWAP3 SWAP2 SWAP1 DUP2 DUP2 MSTORE PUSH1 0x20 ADD PUSH0 SWAP1 JUMPDEST DUP3 DUP3 LT ISZERO PUSH2 0x4ED JUMPI DUP4 DUP3 SWAP1 PUSH0 MSTORE PUSH1 0x20 PUSH0 KECCAK256 SWAP1 PUSH1 0x3 MUL ADD PUSH1 0x40 MLOAD DUP1 PUSH1 0x60 ADD PUSH1 0x40 MSTORE SWAP1 DUP2 PUSH0 DUP3 ADD DUP1 SLOAD PUSH2 0x3C4 SWAP1 PUSH2 0xDC0 JUMP JUMPDEST DUP1 PUSH1 0x1F ADD PUSH1 0x20 DUP1 SWAP2 DIV MUL PUSH1 0x20 ADD PUSH1 0x40 MLOAD SWAP1 DUP2 ADD PUSH1 0x40 MSTORE DUP1 SWAP3 SWAP2 SWAP1 DUP2 DUP2 MSTORE PUSH1 0x20 ADD DUP3 DUP1 SLOAD PUSH2 0x3F0 SWAP1 PUSH2 0xDC0 JUMP JUMPDEST DUP1 ISZERO PUSH2 0x43B JUMPI DUP1 PUSH1 0x1F LT PUSH2 0x412 JUMPI PUSH2 0x100 DUP1 DUP4 SLOAD DIV MUL DUP4 MSTORE SWAP2 PUSH1 0x20 ADD SWAP2 PUSH2 0x43B JUMP JUMPDEST DUP3 ADD SWAP2 SWAP1 PUSH0 MSTORE PUSH1 0x20 PUSH0 KECCAK256 SWAP1 JUMPDEST DUP2 SLOAD DUP2 MSTORE SWAP1 PUSH1 0x1 ADD SWAP1 PUSH1 0x20 ADD DUP1 DUP4 GT PUSH2 0x41E JUMPI DUP3 SWAP1 SUB PUSH1 0x1F AND DUP3 ADD SWAP2 JUMPDEST POP POP POP POP POP DUP2 MSTORE PUSH1 0x20 ADD PUSH1 0x1 DUP3 ADD DUP1 SLOAD PUSH2 0x454 SWAP1 PUSH2 0xDC0 JUMP JUMPDEST DUP1 PUSH1 0x1F ADD PUSH1 0x20 DUP1 SWAP2 DIV MUL PUSH1 0x20 ADD PUSH1 0x40 MLOAD SWAP1 DUP2 ADD PUSH1 0x40 MSTORE DUP1 SWAP3 SWAP2 SWAP1 DUP2 DUP2 MSTORE PUSH1 0x20 ADD DUP3 DUP1 SLOAD PUSH2 0x480 SWAP1 PUSH2 0xDC0 JUMP JUMPDEST DUP1 ISZERO PUSH2 0x4CB JUMPI DUP1 PUSH1 0x1F LT PUSH2 0x4A2 JUMPI PUSH2 0x100 DUP1 DUP4 SLOAD DIV MUL DUP4 MSTORE SWAP2 PUSH1 0x20 ADD SWAP2 PUSH2 0x4CB JUMP JUMPDEST DUP3 ADD SWAP2 SWAP1 PUSH0 MSTORE PUSH1 0x20 PUSH0 KECCAK256 SWAP1 JUMPDEST DUP2 SLOAD DUP2 MSTORE SWAP1 PUSH1 0x1 ADD SWAP1 PUSH1 0x20 ADD DUP1 DUP4 GT PUSH2 0x4AE JUMPI DUP3 SWAP1 SUB PUSH1 0x1F AND DUP3 ADD SWAP2 JUMPDEST POP POP POP POP POP DUP2 MSTORE PUSH1 0x20 ADD PUSH1 0x2 DUP3 ADD SLOAD DUP2 MSTORE POP POP DUP2 MSTORE PUSH1 0x20 ADD SWAP1 PUSH1 0x1 ADD SWAP1 PUSH2 0x394 JUMP JUMPDEST POP POP POP POP SWAP1 POP SWAP1 JUMP JUMPDEST PUSH2 0x4FE PUSH2 0x69E JUMP JUMPDEST PUSH0 DUP1 SLOAD SWAP1 POP DUP3 LT PUSH2 0x544 JUMPI PUSH1 0x40 MLOAD PUSH32 0x8C379A000000000000000000000000000000000000000000000000000000000 DUP2 MSTORE PUSH1 0x4 ADD PUSH2 0x53B SWAP1 PUSH2 0x11CD JUMP JUMPDEST PUSH1 0x40 MLOAD DUP1 SWAP2 SUB SWAP1 REVERT JUMPDEST PUSH0 DUP3 DUP2 SLOAD DUP2 LT PUSH2 0x557 JUMPI PUSH2 0x556 PUSH2 0x11EB JUMP JUMPDEST JUMPDEST SWAP1 PUSH0 MSTORE PUSH1 0x20 PUSH0 KECCAK256 SWAP1 PUSH1 0x3 MUL ADD PUSH1 0x40 MLOAD DUP1 PUSH1 0x60 ADD PUSH1 0x40 MSTORE SWAP1 DUP2 PUSH0 DUP3 ADD DUP1 SLOAD PUSH2 0x57D SWAP1 PUSH2 0xDC0 JUMP JUMPDEST DUP1 PUSH1 0x1F ADD PUSH1 0x20 DUP1 SWAP2 DIV MUL PUSH1 0x20 ADD PUSH1 0x40 MLOAD SWAP1 DUP2 ADD PUSH1 0x40 MSTORE DUP1 SWAP3 SWAP2 SWAP1 DUP2 DUP2 MSTORE PUSH1 0x20 ADD DUP3 DUP1 SLOAD PUSH2 0x5A9 SWAP1 PUSH2 0xDC0 JUMP JUMPDEST DUP1 ISZERO PUSH2 0x5F4 JUMPI DUP1 PUSH1 0x1F LT PUSH2 0x5CB JUMPI PUSH2 0x100 DUP1 DUP4 SLOAD DIV MUL DUP4 MSTORE SWAP2 PUSH1 0x20 ADD SWAP2 PUSH2 0x5F4 JUMP JUMPDEST DUP3 ADD SWAP2 SWAP1 PUSH0 MSTORE PUSH1 0x20 PUSH0 KECCAK256 SWAP1 JUMPDEST DUP2 SLOAD DUP2 MSTORE SWAP1 PUSH1 0x1 ADD SWAP1 PUSH1 0x20 ADD DUP1 DUP4 GT PUSH2 0x5D7 JUMPI DUP3 SWAP1 SUB PUSH1 0x1F AND DUP3 ADD SWAP2 JUMPDEST POP POP POP POP POP DUP2 MSTORE PUSH1 0x20 ADD PUSH1 0x1 DUP3 ADD DUP1 SLOAD PUSH2 0x60D SWAP1 PUSH2 0xDC0 JUMP JUMPDEST DUP1 PUSH1 0x1F ADD PUSH1 0x20 DUP1 SWAP2 DIV MUL PUSH1 0x20 ADD PUSH1 0x40 MLOAD SWAP1 DUP2 ADD PUSH1 0x40 MSTORE DUP1 SWAP3 SWAP2 SWAP1 DUP2 DUP2 MSTORE PUSH1 0x20 ADD DUP3 DUP1 SLOAD PUSH2 0x639 SWAP1 PUSH2 0xDC0 JUMP JUMPDEST DUP1 ISZERO PUSH2 0x684 JUMPI DUP1 PUSH1 0x1F LT PUSH2 0x65B JUMPI PUSH2 0x100 DUP1 DUP4 SLOAD DIV MUL DUP4 MSTORE SWAP2 PUSH1 0x20 ADD SWAP2 PUSH2 0x684 JUMP JUMPDEST DUP3 ADD SWAP2 SWAP1 PUSH0 MSTORE PUSH1 0x20 PUSH0 KECCAK256 SWAP1 JUMPDEST DUP2 SLOAD DUP2 MSTORE SWAP1 PUSH1 0x1 ADD SWAP1 PUSH1 0x20 ADD DUP1 DUP4 GT PUSH2 0x667 JUMPI DUP3 SWAP1 SUB PUSH1 0x1F AND DUP3 ADD SWAP2 JUMPDEST POP POP POP POP POP DUP2 MSTORE PUSH1 0x20 ADD PUSH1 0x2 DUP3 ADD SLOAD DUP2 MSTORE POP POP SWAP1 POP SWAP2 SWAP1 POP JUMP JUMPDEST PUSH1 0x40 MLOAD DUP1 PUSH1 0x60 ADD PUSH1 0x40 MSTORE DUP1 PUSH1 0x60 DUP2 MSTORE PUSH1 0x20 ADD PUSH1 0x60 DUP2 MSTORE PUSH1 0x20 ADD PUSH0 DUP2 MSTORE POP SWAP1 JUMP JUMPDEST PUSH0 PUSH1 0x40 MLOAD SWAP1 POP SWAP1 JUMP JUMPDEST PUSH0 DUP1 REVERT JUMPDEST PUSH0 DUP1 REVERT JUMPDEST PUSH0 DUP1 REVERT JUMPDEST PUSH0 DUP1 REVERT JUMPDEST PUSH0 PUSH1 0x1F NOT PUSH1 0x1F DUP4 ADD AND SWAP1 POP SWAP2 SWAP1 POP JUMP JUMPDEST PUSH32 0x4E487B7100000000000000000000000000000000000000000000000000000000 PUSH0 MSTORE PUSH1 0x41 PUSH1 0x4 MSTORE PUSH1 0x24 PUSH0 REVERT JUMPDEST PUSH2 0x71D DUP3 PUSH2 0x6D7 JUMP JUMPDEST DUP2 ADD DUP2 DUP2 LT PUSH8 0xFFFFFFFFFFFFFFFF DUP3 GT OR ISZERO PUSH2 0x73C JUMPI PUSH2 0x73B PUSH2 0x6E7 JUMP JUMPDEST JUMPDEST DUP1 PUSH1 0x40 MSTORE POP POP POP JUMP JUMPDEST PUSH0 PUSH2 0x74E PUSH2 0x6BE JUMP JUMPDEST SWAP1 POP PUSH2 0x75A DUP3 DUP3 PUSH2 0x714 JUMP JUMPDEST SWAP2 SWAP1 POP JUMP JUMPDEST PUSH0 PUSH8 0xFFFFFFFFFFFFFFFF DUP3 GT ISZERO PUSH2 0x779 JUMPI PUSH2 0x778 PUSH2 0x6E7 JUMP JUMPDEST JUMPDEST PUSH2 0x782 DUP3 PUSH2 0x6D7 JUMP JUMPDEST SWAP1 POP PUSH1 0x20 DUP2 ADD SWAP1 POP SWAP2 SWAP1 POP JUMP JUMPDEST DUP3 DUP2 DUP4 CALLDATACOPY PUSH0 DUP4 DUP4 ADD MSTORE POP POP POP JUMP JUMPDEST PUSH0 PUSH2 0x7AF PUSH2 0x7AA DUP5 PUSH2 0x75F JUMP JUMPDEST PUSH2 0x745 JUMP JUMPDEST SWAP1 POP DUP3 DUP2 MSTORE PUSH1 0x20 DUP2 ADD DUP5 DUP5 DUP5 ADD GT ISZERO PUSH2 0x7CB JUMPI PUSH2 0x7CA PUSH2 0x6D3 JUMP JUMPDEST JUMPDEST PUSH2 0x7D6 DUP5 DUP3 DUP6 PUSH2 0x78F JUMP JUMPDEST POP SWAP4 SWAP3 POP POP POP JUMP JUMPDEST PUSH0 DUP3 PUSH1 0x1F DUP4 ADD SLT PUSH2 0x7F2 JUMPI PUSH2 0x7F1 PUSH2 0x6CF JUMP JUMPDEST JUMPDEST DUP2 CALLDATALOAD PUSH2 0x802 DUP5 DUP3 PUSH1 0x20 DUP7 ADD PUSH2 0x79D JUMP JUMPDEST SWAP2 POP POP SWAP3 SWAP2 POP POP JUMP JUMPDEST PUSH0 PUSH8 0xFFFFFFFFFFFFFFFF DUP3 GT ISZERO PUSH2 0x825 JUMPI PUSH2 0x824 PUSH2 0x6E7 JUMP JUMPDEST JUMPDEST PUSH2 0x82E DUP3 PUSH2 0x6D7 JUMP JUMPDEST SWAP1 POP PUSH1 0x20 DUP2 ADD SWAP1 POP SWAP2 SWAP1 POP JUMP JUMPDEST PUSH0 PUSH2 0x84D PUSH2 0x848 DUP5 PUSH2 0x80B JUMP JUMPDEST PUSH2 0x745 JUMP JUMPDEST SWAP1 POP DUP3 DUP2 MSTORE PUSH1 0x20 DUP2 ADD DUP5 DUP5 DUP5 ADD GT ISZERO PUSH2 0x869 JUMPI PUSH2 0x868 PUSH2 0x6D3 JUMP JUMPDEST JUMPDEST PUSH2 0x874 DUP5 DUP3 DUP6 PUSH2 0x78F JUMP JUMPDEST POP SWAP4 SWAP3 POP POP POP JUMP JUMPDEST PUSH0 DUP3 PUSH1 0x1F DUP4 ADD SLT PUSH2 0x890 JUMPI PUSH2 0x88F PUSH2 0x6CF JUMP JUMPDEST JUMPDEST DUP2 CALLDATALOAD PUSH2 0x8A0 DUP5 DUP3 PUSH1 0x20 DUP7 ADD PUSH2 0x83B JUMP JUMPDEST SWAP2 POP POP SWAP3 SWAP2 POP POP JUMP JUMPDEST PUSH0 DUP1 PUSH1 0x40 DUP4 DUP6 SUB SLT ISZERO PUSH2 0x8BF JUMPI PUSH2 0x8BE PUSH2 0x6C7 JUMP JUMPDEST JUMPDEST PUSH0 DUP4 ADD CALLDATALOAD PUSH8 0xFFFFFFFFFFFFFFFF DUP2 GT ISZERO PUSH2 0x8DC JUMPI PUSH2 0x8DB PUSH2 0x6CB JUMP JUMPDEST JUMPDEST PUSH2 0x8E8 DUP6 DUP3 DUP7 ADD PUSH2 0x7DE JUMP JUMPDEST SWAP3 POP POP PUSH1 0x20 DUP4 ADD CALLDATALOAD PUSH8 0xFFFFFFFFFFFFFFFF DUP2 GT ISZERO PUSH2 0x909 JUMPI PUSH2 0x908 PUSH2 0x6CB JUMP JUMPDEST JUMPDEST PUSH2 0x915 DUP6 DUP3 DUP7 ADD PUSH2 0x87C JUMP JUMPDEST SWAP2 POP POP SWAP3 POP SWAP3 SWAP1 POP JUMP JUMPDEST PUSH0 DUP2 SWAP1 POP SWAP2 SWAP1 POP JUMP JUMPDEST PUSH2 0x931 DUP2 PUSH2 0x91F JUMP JUMPDEST DUP2 EQ PUSH2 0x93B JUMPI PUSH0 DUP1 REVERT JUMPDEST POP JUMP JUMPDEST PUSH0 DUP2 CALLDATALOAD SWAP1 POP PUSH2 0x94C DUP2 PUSH2 0x928 JUMP JUMPDEST SWAP3 SWAP2 POP POP JUMP JUMPDEST PUSH0 PUSH1 0x20 DUP3 DUP5 SUB SLT ISZERO PUSH2 0x967 JUMPI PUSH2 0x966 PUSH2 0x6C7 JUMP JUMPDEST JUMPDEST PUSH0 PUSH2 0x974 DUP5 DUP3 DUP6 ADD PUSH2 0x93E JUMP JUMPDEST SWAP2 POP POP SWAP3 SWAP2 POP POP JUMP JUMPDEST PUSH0 DUP2 MLOAD SWAP1 POP SWAP2 SWAP1 POP JUMP JUMPDEST PUSH0 DUP3 DUP3 MSTORE PUSH1 0x20 DUP3 ADD SWAP1 POP SWAP3 SWAP2 POP POP JUMP JUMPDEST DUP3 DUP2 DUP4 MCOPY PUSH0 DUP4 DUP4 ADD MSTORE POP POP POP JUMP JUMPDEST PUSH0 PUSH2 0x9AF DUP3 PUSH2 0x97D JUMP JUMPDEST PUSH2 0x9B9 DUP2 DUP6 PUSH2 0x987 JUMP JUMPDEST SWAP4 POP PUSH2 0x9C9 DUP2 DUP6 PUSH1 0x20 DUP7 ADD PUSH2 0x997 JUMP JUMPDEST PUSH2 0x9D2 DUP2 PUSH2 0x6D7 JUMP JUMPDEST DUP5 ADD SWAP2 POP POP SWAP3 SWAP2 POP POP JUMP JUMPDEST PUSH0 DUP2 MLOAD SWAP1 POP SWAP2 SWAP1 POP JUMP JUMPDEST PUSH0 DUP3 DUP3 MSTORE PUSH1 0x20 DUP3 ADD SWAP1 POP SWAP3 SWAP2 POP POP JUMP JUMPDEST PUSH0 PUSH2 0xA01 DUP3 PUSH2 0x9DD JUMP JUMPDEST PUSH2 0xA0B DUP2 DUP6 PUSH2 0x9E7 JUMP JUMPDEST SWAP4 POP PUSH2 0xA1B DUP2 DUP6 PUSH1 0x20 DUP7 ADD PUSH2 0x997 JUMP JUMPDEST PUSH2 0xA24 DUP2 PUSH2 0x6D7 JUMP JUMPDEST DUP5 ADD SWAP2 POP POP SWAP3 SWAP2 POP POP JUMP JUMPDEST PUSH2 0xA38 DUP2 PUSH2 0x91F JUMP JUMPDEST DUP3 MSTORE POP POP JUMP JUMPDEST PUSH0 PUSH1 0x60 DUP3 ADD SWAP1 POP DUP2 DUP2 SUB PUSH0 DUP4 ADD MSTORE PUSH2 0xA56 DUP2 DUP7 PUSH2 0x9A5 JUMP JUMPDEST SWAP1 POP DUP2 DUP2 SUB PUSH1 0x20 DUP4 ADD MSTORE PUSH2 0xA6A DUP2 DUP6 PUSH2 0x9F7 JUMP JUMPDEST SWAP1 POP PUSH2 0xA79 PUSH1 0x40 DUP4 ADD DUP5 PUSH2 0xA2F JUMP JUMPDEST SWAP5 SWAP4 POP POP POP POP JUMP JUMPDEST PUSH0 DUP2 MLOAD SWAP1 POP SWAP2 SWAP1 POP JUMP JUMPDEST PUSH0 DUP3 DUP3 MSTORE PUSH1 0x20 DUP3 ADD SWAP1 POP SWAP3 SWAP2 POP POP JUMP JUMPDEST PUSH0 DUP2 SWAP1 POP PUSH1 0x20 DUP3 ADD SWAP1 POP SWAP2 SWAP1 POP JUMP JUMPDEST PUSH0 DUP3 DUP3 MSTORE PUSH1 0x20 DUP3 ADD SWAP1 POP SWAP3 SWAP2 POP POP JUMP JUMPDEST PUSH0 PUSH2 0xAC4 DUP3 PUSH2 0x97D JUMP JUMPDEST PUSH2 0xACE DUP2 DUP6 PUSH2 0xAAA JUMP JUMPDEST SWAP4 POP PUSH2 0xADE DUP2 DUP6 PUSH1 0x20 DUP7 ADD PUSH2 0x997 JUMP JUMPDEST PUSH2 0xAE7 DUP2 PUSH2 0x6D7 JUMP JUMPDEST DUP5 ADD SWAP2 POP POP SWAP3 SWAP2 POP POP JUMP JUMPDEST PUSH0 DUP3 DUP3 MSTORE PUSH1 0x20 DUP3 ADD SWAP1 POP SWAP3 SWAP2 POP POP JUMP JUMPDEST PUSH0 PUSH2 0xB0C DUP3 PUSH2 0x9DD JUMP JUMPDEST PUSH2 0xB16 DUP2 DUP6 PUSH2 0xAF2 JUMP JUMPDEST SWAP4 POP PUSH2 0xB26 DUP2 DUP6 PUSH1 0x20 DUP7 ADD PUSH2 0x997 JUMP JUMPDEST PUSH2 0xB2F DUP2 PUSH2 0x6D7 JUMP JUMPDEST DUP5 ADD SWAP2 POP POP SWAP3 SWAP2 POP POP JUMP JUMPDEST PUSH2 0xB43 DUP2 PUSH2 0x91F JUMP JUMPDEST DUP3 MSTORE POP POP JUMP JUMPDEST PUSH0 PUSH1 0x60 DUP4 ADD PUSH0 DUP4 ADD MLOAD DUP5 DUP3 SUB PUSH0 DUP7 ADD MSTORE PUSH2 0xB63 DUP3 DUP3 PUSH2 0xABA JUMP JUMPDEST SWAP2 POP POP PUSH1 0x20 DUP4 ADD MLOAD DUP5 DUP3 SUB PUSH1 0x20 DUP7 ADD MSTORE PUSH2 0xB7D DUP3 DUP3 PUSH2 0xB02 JUMP JUMPDEST SWAP2 POP POP PUSH1 0x40 DUP4 ADD MLOAD PUSH2 0xB92 PUSH1 0x40 DUP7 ADD DUP3 PUSH2 0xB3A JUMP JUMPDEST POP DUP1 SWAP2 POP POP SWAP3 SWAP2 POP POP JUMP JUMPDEST PUSH0 PUSH2 0xBA8 DUP4 DUP4 PUSH2 0xB49 JUMP JUMPDEST SWAP1 POP SWAP3 SWAP2 POP POP JUMP JUMPDEST PUSH0 PUSH1 0x20 DUP3 ADD SWAP1 POP SWAP2 SWAP1 POP JUMP JUMPDEST PUSH0 PUSH2 0xBC6 DUP3 PUSH2 0xA81 JUMP JUMPDEST PUSH2 0xBD0 DUP2 DUP6 PUSH2 0xA8B JUMP JUMPDEST SWAP4 POP DUP4 PUSH1 0x20 DUP3 MUL DUP6 ADD PUSH2 0xBE2 DUP6 PUSH2 0xA9B JUMP JUMPDEST DUP1 PUSH0 JUMPDEST DUP6 DUP2 LT ISZERO PUSH2 0xC1D JUMPI DUP5 DUP5 SUB DUP10 MSTORE DUP2 MLOAD PUSH2 0xBFE DUP6 DUP3 PUSH2 0xB9D JUMP JUMPDEST SWAP5 POP PUSH2 0xC09 DUP4 PUSH2 0xBB0 JUMP JUMPDEST SWAP3 POP PUSH1 0x20 DUP11 ADD SWAP10 POP POP PUSH1 0x1 DUP2 ADD SWAP1 POP PUSH2 0xBE5 JUMP JUMPDEST POP DUP3 SWAP8 POP DUP8 SWAP6 POP POP POP POP POP POP SWAP3 SWAP2 POP POP JUMP JUMPDEST PUSH0 PUSH1 0x20 DUP3 ADD SWAP1 POP DUP2 DUP2 SUB PUSH0 DUP4 ADD MSTORE PUSH2 0xC47 DUP2 DUP5 PUSH2 0xBBC JUMP JUMPDEST SWAP1 POP SWAP3 SWAP2 POP POP JUMP JUMPDEST PUSH0 PUSH1 0x60 DUP4 ADD PUSH0 DUP4 ADD MLOAD DUP5 DUP3 SUB PUSH0 DUP7 ADD MSTORE PUSH2 0xC69 DUP3 DUP3 PUSH2 0xABA JUMP JUMPDEST SWAP2 POP POP PUSH1 0x20 DUP4 ADD MLOAD DUP5 DUP3 SUB PUSH1 0x20 DUP7 ADD MSTORE PUSH2 0xC83 DUP3 DUP3 PUSH2 0xB02 JUMP JUMPDEST SWAP2 POP POP PUSH1 0x40 DUP4 ADD MLOAD PUSH2 0xC98 PUSH1 0x40 DUP7 ADD DUP3 PUSH2 0xB3A JUMP JUMPDEST POP DUP1 SWAP2 POP POP SWAP3 SWAP2 POP POP JUMP JUMPDEST PUSH0 PUSH1 0x20 DUP3 ADD SWAP1 POP DUP2 DUP2 SUB PUSH0 DUP4 ADD MSTORE PUSH2 0xCBB DUP2 DUP5 PUSH2 0xC4F JUMP JUMPDEST SWAP1 POP SWAP3 SWAP2 POP POP JUMP JUMPDEST PUSH32 0x50726F6A6563742049442069732072657175697265642E000000000000000000 PUSH0 DUP3 ADD MSTORE POP JUMP JUMPDEST PUSH0 PUSH2 0xCF7 PUSH1 0x17 DUP4 PUSH2 0x987 JUMP JUMPDEST SWAP2 POP PUSH2 0xD02 DUP3 PUSH2 0xCC3 JUMP JUMPDEST PUSH1 0x20 DUP3 ADD SWAP1 POP SWAP2 SWAP1 POP JUMP JUMPDEST PUSH0 PUSH1 0x20 DUP3 ADD SWAP1 POP DUP2 DUP2 SUB PUSH0 DUP4 ADD MSTORE PUSH2 0xD24 DUP2 PUSH2 0xCEB JUMP JUMPDEST SWAP1 POP SWAP2 SWAP1 POP JUMP JUMPDEST PUSH32 0x56616C756174696F6E2068617368206D7573742062652033322062797465732E PUSH0 DUP3 ADD MSTORE POP JUMP JUMPDEST PUSH0 PUSH2 0xD5F PUSH1 0x20 DUP4 PUSH2 0x987 JUMP JUMPDEST SWAP2 POP PUSH2 0xD6A DUP3 PUSH2 0xD2B JUMP JUMPDEST PUSH1 0x20 DUP3 ADD SWAP1 POP SWAP2 SWAP1 POP JUMP JUMPDEST PUSH0 PUSH1 0x20 DUP3 ADD SWAP1 POP DUP2 DUP2 SUB PUSH0 DUP4 ADD MSTORE PUSH2 0xD8C DUP2 PUSH2 0xD53 JUMP JUMPDEST SWAP1 POP SWAP2 SWAP1 POP JUMP JUMPDEST PUSH32 0x4E487B7100000000000000000000000000000000000000000000000000000000 PUSH0 MSTORE PUSH1 0x22 PUSH1 0x4 MSTORE PUSH1 0x24 PUSH0 REVERT JUMPDEST PUSH0 PUSH1 0x2 DUP3 DIV SWAP1 POP PUSH1 0x1 DUP3 AND DUP1 PUSH2 0xDD7 JUMPI PUSH1 0x7F DUP3 AND SWAP2 POP JUMPDEST PUSH1 0x20 DUP3 LT DUP2 SUB PUSH2 0xDEA JUMPI PUSH2 0xDE9 PUSH2 0xD93 JUMP JUMPDEST JUMPDEST POP SWAP2 SWAP1 POP JUMP JUMPDEST PUSH0 DUP2 SWAP1 POP DUP2 PUSH0 MSTORE PUSH1 0x20 PUSH0 KECCAK256 SWAP1 POP SWAP2 SWAP1 POP JUMP JUMPDEST PUSH0 PUSH1 0x20 PUSH1 0x1F DUP4 ADD DIV SWAP1 POP SWAP2 SWAP1 POP JUMP JUMPDEST PUSH0 DUP3 DUP3 SHL SWAP1 POP SWAP3 SWAP2 POP POP JUMP JUMPDEST PUSH0 PUSH1 0x8 DUP4 MUL PUSH2 0xE4C PUSH32 0xFFFFFFFFFFFFFFFFFFFFFFFFFFFFFFFFFFFFFFFFFFFFFFFFFFFFFFFFFFFFFFFF DUP3 PUSH2 0xE11 JUMP JUMPDEST PUSH2 0xE56 DUP7 DUP4 PUSH2 0xE11 JUMP JUMPDEST SWAP6 POP DUP1 NOT DUP5 AND SWAP4 POP DUP1 DUP7 AND DUP5 OR SWAP3 POP POP POP SWAP4 SWAP3 POP POP POP JUMP JUMPDEST PUSH0 DUP2 SWAP1 POP SWAP2 SWAP1 POP JUMP JUMPDEST PUSH0 PUSH2 0xE91 PUSH2 0xE8C PUSH2 0xE87 DUP5 PUSH2 0x91F JUMP JUMPDEST PUSH2 0xE6E JUMP JUMPDEST PUSH2 0x91F JUMP JUMPDEST SWAP1 POP SWAP2 SWAP1 POP JUMP JUMPDEST PUSH0 DUP2 SWAP1 POP SWAP2 SWAP1 POP JUMP JUMPDEST PUSH2 0xEAA DUP4 PUSH2 0xE77 JUMP JUMPDEST PUSH2 0xEBE PUSH2 0xEB6 DUP3 PUSH2 0xE98 JUMP JUMPDEST DUP5 DUP5 SLOAD PUSH2 0xE1D JUMP JUMPDEST DUP3 SSTORE POP POP POP POP JUMP JUMPDEST PUSH0 SWAP1 JUMP JUMPDEST PUSH2 0xED2 PUSH2 0xEC6 JUMP JUMPDEST PUSH2 0xEDD DUP2 DUP5 DUP5 PUSH2 0xEA1 JUMP JUMPDEST POP POP POP JUMP JUMPDEST JUMPDEST DUP2 DUP2 LT ISZERO PUSH2 0xF00 JUMPI PUSH2 0xEF5 PUSH0 DUP3 PUSH2 0xECA JUMP JUMPDEST PUSH1 0x1 DUP2 ADD SWAP1 POP PUSH2 0xEE3 JUMP JUMPDEST POP POP JUMP JUMPDEST PUSH1 0x1F DUP3 GT ISZERO PUSH2 0xF45 JUMPI PUSH2 0xF16 DUP2 PUSH2 0xDF0 JUMP JUMPDEST PUSH2 0xF1F DUP5 PUSH2 0xE02 JUMP JUMPDEST DUP2 ADD PUSH1 0x20 DUP6 LT ISZERO PUSH2 0xF2E JUMPI DUP2 SWAP1 POP JUMPDEST PUSH2 0xF42 PUSH2 0xF3A DUP6 PUSH2 0xE02 JUMP JUMPDEST DUP4 ADD DUP3 PUSH2 0xEE2 JUMP JUMPDEST POP POP JUMPDEST POP POP POP JUMP JUMPDEST PUSH0 DUP3 DUP3 SHR SWAP1 POP SWAP3 SWAP2 POP POP JUMP JUMPDEST PUSH0 PUSH2 0xF65 PUSH0 NOT DUP5 PUSH1 0x8 MUL PUSH2 0xF4A JUMP JUMPDEST NOT DUP1 DUP4 AND SWAP2 POP POP SWAP3 SWAP2 POP POP JUMP JUMPDEST PUSH0 PUSH2 0xF7D DUP4 DUP4 PUSH2 0xF56 JUMP JUMPDEST SWAP2 POP DUP3 PUSH1 0x2 MUL DUP3 OR SWAP1 POP SWAP3 SWAP2 POP POP JUMP JUMPDEST PUSH2 0xF96 DUP3 PUSH2 0x97D JUMP JUMPDEST PUSH8 0xFFFFFFFFFFFFFFFF DUP2 GT ISZERO PUSH2 0xFAF JUMPI PUSH2 0xFAE PUSH2 0x6E7 JUMP JUMPDEST JUMPDEST PUSH2 0xFB9 DUP3 SLOAD PUSH2 0xDC0 JUMP JUMPDEST PUSH2 0xFC4 DUP3 DUP3 DUP6 PUSH2 0xF04 JUMP JUMPDEST PUSH0 PUSH1 0x20 SWAP1 POP PUSH1 0x1F DUP4 GT PUSH1 0x1 DUP2 EQ PUSH2 0xFF5 JUMPI PUSH0 DUP5 ISZERO PUSH2 0xFE3 JUMPI DUP3 DUP8 ADD MLOAD SWAP1 POP JUMPDEST PUSH2 0xFED DUP6 DUP3 PUSH2 0xF72 JUMP JUMPDEST DUP7 SSTORE POP PUSH2 0x1054 JUMP JUMPDEST PUSH1 0x1F NOT DUP5 AND PUSH2 0x1003 DUP7 PUSH2 0xDF0 JUMP JUMPDEST PUSH0 JUMPDEST DUP3 DUP2 LT ISZERO PUSH2 0x102A JUMPI DUP5 DUP10 ADD MLOAD DUP3 SSTORE PUSH1 0x1 DUP3 ADD SWAP2 POP PUSH1 0x20 DUP6 ADD SWAP5 POP PUSH1 0x20 DUP2 ADD SWAP1 POP PUSH2 0x1005 JUMP JUMPDEST DUP7 DUP4 LT ISZERO PUSH2 0x1047 JUMPI DUP5 DUP10 ADD MLOAD PUSH2 0x1043 PUSH1 0x1F DUP10 AND DUP3 PUSH2 0xF56 JUMP JUMPDEST DUP4 SSTORE POP JUMPDEST PUSH1 0x1 PUSH1 0x2 DUP9 MUL ADD DUP9 SSTORE POP POP POP JUMPDEST POP POP POP POP POP POP JUMP JUMPDEST PUSH0 DUP2 SWAP1 POP DUP2 PUSH0 MSTORE PUSH1 0x20 PUSH0 KECCAK256 SWAP1 POP SWAP2 SWAP1 POP JUMP JUMPDEST PUSH1 0x1F DUP3 GT ISZERO PUSH2 0x10AF JUMPI PUSH2 0x1080 DUP2 PUSH2 0x105C JUMP JUMPDEST PUSH2 0x1089 DUP5 PUSH2 0xE02 JUMP JUMPDEST DUP2 ADD PUSH1 0x20 DUP6 LT ISZERO PUSH2 0x1098 JUMPI DUP2 SWAP1 POP JUMPDEST PUSH2 0x10AC PUSH2 0x10A4 DUP6 PUSH2 0xE02 JUMP JUMPDEST DUP4 ADD DUP3 PUSH2 0xEE2 JUMP JUMPDEST POP POP JUMPDEST POP POP POP JUMP JUMPDEST PUSH2 0x10BD DUP3 PUSH2 0x9DD JUMP JUMPDEST PUSH8 0xFFFFFFFFFFFFFFFF DUP2 GT ISZERO PUSH2 0x10D6 JUMPI PUSH2 0x10D5 PUSH2 0x6E7 JUMP JUMPDEST JUMPDEST PUSH2 0x10E0 DUP3 SLOAD PUSH2 0xDC0 JUMP JUMPDEST PUSH2 0x10EB DUP3 DUP3 DUP6 PUSH2 0x106E JUMP JUMPDEST PUSH0 PUSH1 0x20 SWAP1 POP PUSH1 0x1F DUP4 GT PUSH1 0x1 DUP2 EQ PUSH2 0x111C JUMPI PUSH0 DUP5 ISZERO PUSH2 0x110A JUMPI DUP3 DUP8 ADD MLOAD SWAP1 POP JUMPDEST PUSH2 0x1114 DUP6 DUP3 PUSH2 0xF72 JUMP JUMPDEST DUP7 SSTORE POP PUSH2 0x117B JUMP JUMPDEST PUSH1 0x1F NOT DUP5 AND PUSH2 0x112A DUP7 PUSH2 0x105C JUMP JUMPDEST PUSH0 JUMPDEST DUP3 DUP2 LT ISZERO PUSH2 0x1151 JUMPI DUP5 DUP10 ADD MLOAD DUP3 SSTORE PUSH1 0x1 DUP3 ADD SWAP2 POP PUSH1 0x20 DUP6 ADD SWAP5 POP PUSH1 0x20 DUP2 ADD SWAP1 POP PUSH2 0x112C JUMP JUMPDEST DUP7 DUP4 LT ISZERO PUSH2 0x116E JUMPI DUP5 DUP10 ADD MLOAD PUSH2 0x116A PUSH1 0x1F DUP10 AND DUP3 PUSH2 0xF56 JUMP JUMPDEST DUP4 SSTORE POP JUMPDEST PUSH1 0x1 PUSH1 0x2 DUP9 MUL ADD DUP9 SSTORE POP POP POP JUMPDEST POP POP POP POP POP POP JUMP JUMPDEST PUSH32 0x56616C756174696F6E20646F6573206E6F742065786973742E00000000000000 PUSH0 DUP3 ADD MSTORE POP JUMP JUMPDEST PUSH0 PUSH2 0x11B7 PUSH1 0x19 DUP4 PUSH2 0x987 JUMP JUMPDEST SWAP2 POP PUSH2 0x11C2 DUP3 PUSH2 0x1183 JUMP JUMPDEST PUSH1 0x20 DUP3 ADD SWAP1 POP SWAP2 SWAP1 POP JUMP JUMPDEST PUSH0 PUSH1 0x20 DUP3 ADD SWAP1 POP DUP2 DUP2 SUB PUSH0 DUP4 ADD MSTORE PUSH2 0x11E4 DUP2 PUSH2 0x11AB JUMP JUMPDEST SWAP1 POP SWAP2 SWAP1 POP JUMP JUMPDEST PUSH32 0x4E487B7100000000000000000000000000000000000000000000000000000000 PUSH0 MSTORE PUSH1 0x32 PUSH1 0x4 MSTORE PUSH1 0x24 PUSH0 REVERT INVALID LOG2 PUSH5 0x6970667358 0x22 SLT KECCAK256 0xAC CALLCODE 0xE3 CALLCODE EXTCODESIZE AND 0x1F DUP9 0xBF DUP8 ISZERO GASPRICE PUSH25 0x3480F690E4B777CDE027A9CC8D6A245FDBBCB064736F6C6343 STOP ADDMOD BYTE STOP CALLER "
	},
	"Assembly": ".code\n  PUSH 80\t\t\tcontract HederaValuationContra...\n  PUSH 40\t\t\tcontract HederaValuationContra...\n  MSTORE \t\t\tcontract HederaValuationContra...\n  CALLVALUE \t\t\tcontract HederaValuationContra...\n  DUP1 \t\t\tcontract HederaValuationContra...\n  ISZERO \t\t\tcontract HederaValuationContra...\n  PUSH [tag] 1\t\t\tcontract HederaValuationContra...\n  JUMPI \t\t\tcontract HederaValuationContra...\n  PUSH 0\t\t\tcontract HederaValuationContra...\n  DUP1 \t\t\tcontract HederaValuationContra...\n  REVERT \t\t\tcontract HederaValuationContra...\ntag 1\t\t\tcontract HederaValuationContra...\n  JUMPDEST \t\t\tcontract HederaValuationContra...\n  POP \t\t\tcontract HederaValuationContra...\n  PUSH #[$] 0000000000000000000000000000000000000000000000000000000000000000\t\t\tcontract HederaValuationContra...\n  DUP1 \t\t\tcontract HederaValuationContra...\n  PUSH [$] 0000000000000000000000000000000000000000000000000000000000000000\t\t\tcontract HederaValuationContra...\n  PUSH 0\t\t\tcontract HederaValuationContra...\n  CODECOPY \t\t\tcontract HederaValuationContra...\n  PUSH 0\t\t\tcontract HederaValuationContra...\n  RETURN \t\t\tcontract HederaValuationContra...\n.data\n  0:\n    .code\n      PUSH 80\t\t\tcontract HederaValuationContra...\n      PUSH 40\t\t\tcontract HederaValuationContra...\n      MSTORE \t\t\tcontract HederaValuationContra...\n      CALLVALUE \t\t\tcontract HederaValuationContra...\n      DUP1 \t\t\tcontract HederaValuationContra...\n      ISZERO \t\t\tcontract HederaValuationContra...\n      PUSH [tag] 1\t\t\tcontract HederaValuationContra...\n      JUMPI \t\t\tcontract HederaValuationContra...\n      PUSH 0\t\t\tcontract HederaValuationContra...\n      DUP1 \t\t\tcontract HederaValuationContra...\n      REVERT \t\t\tcontract HederaValuationContra...\n    tag 1\t\t\tcontract HederaValuationContra...\n      JUMPDEST \t\t\tcontract HederaValuationContra...\n      POP \t\t\tcontract HederaValuationContra...\n      PUSH 4\t\t\tcontract HederaValuationContra...\n      CALLDATASIZE \t\t\tcontract HederaValuationContra...\n      LT \t\t\tcontract HederaValuationContra...\n      PUSH [tag] 2\t\t\tcontract HederaValuationContra...\n      JUMPI \t\t\tcontract HederaValuationContra...\n      PUSH 0\t\t\tcontract HederaValuationContra...\n      CALLDATALOAD \t\t\tcontract HederaValuationContra...\n      PUSH E0\t\t\tcontract HederaValuationContra...\n      SHR \t\t\tcontract HederaValuationContra...\n      DUP1 \t\t\tcontract HederaValuationContra...\n      PUSH 499DBA4D\t\t\tcontract HederaValuationContra...\n      EQ \t\t\tcontract HederaValuationContra...\n      PUSH [tag] 3\t\t\tcontract HederaValuationContra...\n      JUMPI \t\t\tcontract HederaValuationContra...\n      DUP1 \t\t\tcontract HederaValuationContra...\n      PUSH 5D03D83E\t\t\tcontract HederaValuationContra...\n      EQ \t\t\tcontract HederaValuationContra...\n      PUSH [tag] 4\t\t\tcontract HederaValuationContra...\n      JUMPI \t\t\tcontract HederaValuationContra...\n      DUP1 \t\t\tcontract HederaValuationContra...\n      PUSH 8220B050\t\t\tcontract HederaValuationContra...\n      EQ \t\t\tcontract HederaValuationContra...\n      PUSH [tag] 5\t\t\tcontract HederaValuationContra...\n      JUMPI \t\t\tcontract HederaValuationContra...\n      DUP1 \t\t\tcontract HederaValuationContra...\n      PUSH B43AD93D\t\t\tcontract HederaValuationContra...\n      EQ \t\t\tcontract HederaValuationContra...\n      PUSH [tag] 6\t\t\tcontract HederaValuationContra...\n      JUMPI \t\t\tcontract HederaValuationContra...\n    tag 2\t\t\tcontract HederaValuationContra...\n      JUMPDEST \t\t\tcontract HederaValuationContra...\n      PUSH 0\t\t\tcontract HederaValuationContra...\n      DUP1 \t\t\tcontract HederaValuationContra...\n      REVERT \t\t\tcontract HederaValuationContra...\n    tag 3\t\t\tfunction submitValuationHash(\\...\n      JUMPDEST \t\t\tfunction submitValuationHash(\\...\n      PUSH [tag] 7\t\t\tfunction submitValuationHash(\\...\n      PUSH 4\t\t\tfunction submitValuationHash(\\...\n      DUP1 \t\t\tfunction submitValuationHash(\\...\n      CALLDATASIZE \t\t\tfunction submitValuationHash(\\...\n      SUB \t\t\tfunction submitValuationHash(\\...\n      DUP2 \t\t\tfunction submitValuationHash(\\...\n      ADD \t\t\tfunction submitValuationHash(\\...\n      SWAP1 \t\t\tfunction submitValuationHash(\\...\n      PUSH [tag] 8\t\t\tfunction submitValuationHash(\\...\n      SWAP2 \t\t\tfunction submitValuationHash(\\...\n      SWAP1 \t\t\tfunction submitValuationHash(\\...\n      PUSH [tag] 9\t\t\tfunction submitValuationHash(\\...\n      JUMP \t\t\tfunction submitValuationHash(\\...\n    tag 8\t\t\tfunction submitValuationHash(\\...\n      JUMPDEST \t\t\tfunction submitValuationHash(\\...\n      PUSH [tag] 10\t\t\tfunction submitValuationHash(\\...\n      JUMP \t\t\tfunction submitValuationHash(\\...\n    tag 7\t\t\tfunction submitValuationHash(\\...\n      JUMPDEST \t\t\tfunction submitValuationHash(\\...\n      STOP \t\t\tfunction submitValuationHash(\\...\n    tag 4\t\t\tValuation[] public valuations\n      JUMPDEST \t\t\tValuation[] public valuations\n      PUSH [tag] 11\t\t\tValuation[] public valuations\n      PUSH 4\t\t\tValuation[] public valuations\n      DUP1 \t\t\tValuation[] public valuations\n      CALLDATASIZE \t\t\tValuation[] public valuations\n      SUB \t\t\tValuation[] public valuations\n      DUP2 \t\t\tValuation[] public valuations\n      ADD \t\t\tValuation[] public valuations\n      SWAP1 \t\t\tValuation[] public valuations\n      PUSH [tag] 12\t\t\tValuation[] public valuations\n      SWAP2 \t\t\tValuation[] public valuations\n      SWAP1 \t\t\tValuation[] public valuations\n      PUSH [tag] 13\t\t\tValuation[] public valuations\n      JUMP \t\t\tValuation[] public valuations\n    tag 12\t\t\tValuation[] public valuations\n      JUMPDEST \t\t\tValuation[] public valuations\n      PUSH [tag] 14\t\t\tValuation[] public valuations\n      JUMP \t\t\tValuation[] public valuations\n    tag 11\t\t\tValuation[] public valuations\n      JUMPDEST \t\t\tValuation[] public valuations\n      PUSH 40\t\t\tValuation[] public valuations\n      MLOAD \t\t\tValuation[] public valuations\n      PUSH [tag] 15\t\t\tValuation[] public valuations\n      SWAP4 \t\t\tValuation[] public valuations\n      SWAP3 \t\t\tValuation[] public valuations\n      SWAP2 \t\t\tValuation[] public valuations\n      SWAP1 \t\t\tValuation[] public valuations\n      PUSH [tag] 16\t\t\tValuation[] public valuations\n      JUMP \t\t\tValuation[] public valuations\n    tag 15\t\t\tValuation[] public valuations\n      JUMPDEST \t\t\tValuation[] public valuations\n      PUSH 40\t\t\tValuation[] public valuations\n      MLOAD \t\t\tValuation[] public valuations\n      DUP1 \t\t\tValuation[] public valuations\n      SWAP2 \t\t\tValuation[] public valuations\n      SUB \t\t\tValuation[] public valuations\n      SWAP1 \t\t\tValuation[] public valuations\n      RETURN \t\t\tValuation[] public valuations\n    tag 5\t\t\tfunction getValuations() publi...\n      JUMPDEST \t\t\tfunction getValuations() publi...\n      PUSH [tag] 17\t\t\tfunction getValuations() publi...\n      PUSH [tag] 18\t\t\tfunction getValuations() publi...\n      JUMP \t\t\tfunction getValuations() publi...\n    tag 17\t\t\tfunction getValuations() publi...\n      JUMPDEST \t\t\tfunction getValuations() publi...\n      PUSH 40\t\t\tfunction getValuations() publi...\n      MLOAD \t\t\tfunction getValuations() publi...\n      PUSH [tag] 19\t\t\tfunction getValuations() publi...\n      SWAP2 \t\t\tfunction getValuations() publi...\n      SWAP1 \t\t\tfunction getValuations() publi...\n      PUSH [tag] 20\t\t\tfunction getValuations() publi...\n      JUMP \t\t\tfunction getValuations() publi...\n    tag 19\t\t\tfunction getValuations() publi...\n      JUMPDEST \t\t\tfunction getValuations() publi...\n      PUSH 40\t\t\tfunction getValuations() publi...\n      MLOAD \t\t\tfunction getValuations() publi...\n      DUP1 \t\t\tfunction getValuations() publi...\n      SWAP2 \t\t\tfunction getValuations() publi...\n      SUB \t\t\tfunction getValuations() publi...\n      SWAP1 \t\t\tfunction getValuations() publi...\n      RETURN \t\t\tfunction getValuations() publi...\n    tag 6\t\t\tfunction getValuationById(uint...\n      JUMPDEST \t\t\tfunction getValuationById(uint...\n      PUSH [tag] 21\t\t\tfunction getValuationById(uint...\n      PUSH 4\t\t\tfunction getValuationById(uint...\n      DUP1 \t\t\tfunction getValuationById(uint...\n      CALLDATASIZE \t\t\tfunction getValuationById(uint...\n      SUB \t\t\tfunction getValuationById(uint...\n      DUP2 \t\t\tfunction getValuationById(uint...\n      ADD \t\t\tfunction getValuationById(uint...\n      SWAP1 \t\t\tfunction getValuationById(uint...\n      PUSH [tag] 22\t\t\tfunction getValuationById(uint...\n      SWAP2 \t\t\tfunction getValuationById(uint...\n      SWAP1 \t\t\tfunction getValuationById(uint...\n      PUSH [tag] 13\t\t\tfunction getValuationById(uint...\n      JUMP \t\t\tfunction getValuationById(uint...\n    tag 22\t\t\tfunction getValuationById(uint...\n      JUMPDEST \t\t\tfunction getValuationById(uint...\n      PUSH [tag] 23\t\t\tfunction getValuationById(uint...\n      JUMP \t\t\tfunction getValuationById(uint...\n    tag 21\t\t\tfunction getValuationById(uint...\n      JUMPDEST \t\t\tfunction getValuationById(uint...\n      PUSH 40\t\t\tfunction getValuationById(uint...\n      MLOAD \t\t\tfunction getValuationById(uint...\n      PUSH [tag] 24\t\t\tfunction getValuationById(uint...\n      SWAP2 \t\t\tfunction getValuationById(uint...\n      SWAP1 \t\t\tfunction getValuationById(uint...\n      PUSH [tag] 25\t\t\tfunction getValuationById(uint...\n      JUMP \t\t\tfunction getValuationById(uint...\n    tag 24\t\t\tfunction getValuationById(uint...\n      JUMPDEST \t\t\tfunction getValuationById(uint...\n      PUSH 40\t\t\tfunction getValuationById(uint...\n      MLOAD \t\t\tfunction getValuationById(uint...\n      DUP1 \t\t\tfunction getValuationById(uint...\n      SWAP2 \t\t\tfunction getValuationById(uint...\n      SUB \t\t\tfunction getValuationById(uint...\n      SWAP1 \t\t\tfunction getValuationById(uint...\n      RETURN \t\t\tfunction getValuationById(uint...\n    tag 10\t\t\tfunction submitValuationHash(\\...\n      JUMPDEST \t\t\tfunction submitValuationHash(\\...\n      PUSH 0\t\t\t0\n      DUP3 \t\t\tprj_id\n      MLOAD \t\t\tbytes(prj_id).length\n      GT \t\t\tbytes(prj_id).length > 0\n      PUSH [tag] 27\t\t\trequire(bytes(prj_id).length >...\n      JUMPI \t\t\trequire(bytes(prj_id).length >...\n      PUSH 40\t\t\trequire(bytes(prj_id).length >...\n      MLOAD \t\t\trequire(bytes(prj_id).length >...\n      PUSH 8C379A000000000000000000000000000000000000000000000000000000000\t\t\trequire(bytes(prj_id).length >...\n      DUP2 \t\t\trequire(bytes(prj_id).length >...\n      MSTORE \t\t\trequire(bytes(prj_id).length >...\n      PUSH 4\t\t\trequire(bytes(prj_id).length >...\n      ADD \t\t\trequire(bytes(prj_id).length >...\n      PUSH [tag] 28\t\t\trequire(bytes(prj_id).length >...\n      SWAP1 \t\t\trequire(bytes(prj_id).length >...\n      PUSH [tag] 29\t\t\trequire(bytes(prj_id).length >...\n      JUMP \t\t\trequire(bytes(prj_id).length >...\n    tag 28\t\t\trequire(bytes(prj_id).length >...\n      JUMPDEST \t\t\trequire(bytes(prj_id).length >...\n      PUSH 40\t\t\trequire(bytes(prj_id).length >...\n      MLOAD \t\t\trequire(bytes(prj_id).length >...\n      DUP1 \t\t\trequire(bytes(prj_id).length >...\n      SWAP2 \t\t\trequire(bytes(prj_id).length >...\n      SUB \t\t\trequire(bytes(prj_id).length >...\n      SWAP1 \t\t\trequire(bytes(prj_id).length >...\n      REVERT \t\t\trequire(bytes(prj_id).length >...\n    tag 27\t\t\trequire(bytes(prj_id).length >...\n      JUMPDEST \t\t\trequire(bytes(prj_id).length >...\n      PUSH 20\t\t\t32\n      DUP2 \t\t\tvaluation_hash\n      MLOAD \t\t\tvaluation_hash.length\n      EQ \t\t\tvaluation_hash.length == 32\n      PUSH [tag] 30\t\t\trequire(valuation_hash.length ...\n      JUMPI \t\t\trequire(valuation_hash.length ...\n      PUSH 40\t\t\trequire(valuation_hash.length ...\n      MLOAD \t\t\trequire(valuation_hash.length ...\n      PUSH 8C379A000000000000000000000000000000000000000000000000000000000\t\t\trequire(valuation_hash.length ...\n      DUP2 \t\t\trequire(valuation_hash.length ...\n      MSTORE \t\t\trequire(valuation_hash.length ...\n      PUSH 4\t\t\trequire(valuation_hash.length ...\n      ADD \t\t\trequire(valuation_hash.length ...\n      PUSH [tag] 31\t\t\trequire(valuation_hash.length ...\n      SWAP1 \t\t\trequire(valuation_hash.length ...\n      PUSH [tag] 32\t\t\trequire(valuation_hash.length ...\n      JUMP \t\t\trequire(valuation_hash.length ...\n    tag 31\t\t\trequire(valuation_hash.length ...\n      JUMPDEST \t\t\trequire(valuation_hash.length ...\n      PUSH 40\t\t\trequire(valuation_hash.length ...\n      MLOAD \t\t\trequire(valuation_hash.length ...\n      DUP1 \t\t\trequire(valuation_hash.length ...\n      SWAP2 \t\t\trequire(valuation_hash.length ...\n      SUB \t\t\trequire(valuation_hash.length ...\n      SWAP1 \t\t\trequire(valuation_hash.length ...\n      REVERT \t\t\trequire(valuation_hash.length ...\n    tag 30\t\t\trequire(valuation_hash.length ...\n      JUMPDEST \t\t\trequire(valuation_hash.length ...\n      PUSH 0\t\t\tuint256 valuationIndex\n      DUP1 \t\t\tvaluations\n      DUP1 \t\t\tvaluations.length\n      SLOAD \t\t\tvaluations.length\n      SWAP1 \t\t\tvaluations.length\n      POP \t\t\tvaluations.length\n      SWAP1 \t\t\tuint256 valuationIndex = valua...\n      POP \t\t\tuint256 valuationIndex = valua...\n      PUSH 0\t\t\tvaluations\n      PUSH 40\t\t\tValuation({\\r\\n               ...\n      MLOAD \t\t\tValuation({\\r\\n               ...\n      DUP1 \t\t\tValuation({\\r\\n               ...\n      PUSH 60\t\t\tValuation({\\r\\n               ...\n      ADD \t\t\tValuation({\\r\\n               ...\n      PUSH 40\t\t\tValuation({\\r\\n               ...\n      MSTORE \t\t\tValuation({\\r\\n               ...\n      DUP1 \t\t\tValuation({\\r\\n               ...\n      DUP6 \t\t\tprj_id\n      DUP2 \t\t\tValuation({\\r\\n               ...\n      MSTORE \t\t\tValuation({\\r\\n               ...\n      PUSH 20\t\t\tValuation({\\r\\n               ...\n      ADD \t\t\tValuation({\\r\\n               ...\n      DUP5 \t\t\tvaluation_hash\n      DUP2 \t\t\tValuation({\\r\\n               ...\n      MSTORE \t\t\tValuation({\\r\\n               ...\n      PUSH 20\t\t\tValuation({\\r\\n               ...\n      ADD \t\t\tValuation({\\r\\n               ...\n      TIMESTAMP \t\t\tblock.timestamp\n      DUP2 \t\t\tValuation({\\r\\n               ...\n      MSTORE \t\t\tValuation({\\r\\n               ...\n      POP \t\t\tValuation({\\r\\n               ...\n      SWAP1 \t\t\tvaluations.push(\\r\\n          ...\n      DUP1 \t\t\tvaluations.push(\\r\\n          ...\n      PUSH 1\t\t\tvaluations.push(\\r\\n          ...\n      DUP2 \t\t\tvaluations.push(\\r\\n          ...\n      SLOAD \t\t\tvaluations.push(\\r\\n          ...\n      ADD \t\t\tvaluations.push(\\r\\n          ...\n      DUP1 \t\t\tvaluations.push(\\r\\n          ...\n      DUP3 \t\t\tvaluations.push(\\r\\n          ...\n      SSTORE \t\t\tvaluations.push(\\r\\n          ...\n      DUP1 \t\t\tvaluations.push(\\r\\n          ...\n      SWAP2 \t\t\tvaluations.push(\\r\\n          ...\n      POP \t\t\tvaluations.push(\\r\\n          ...\n      POP \t\t\tvaluations.push(\\r\\n          ...\n      PUSH 1\t\t\tvaluations.push(\\r\\n          ...\n      SWAP1 \t\t\tvaluations.push(\\r\\n          ...\n      SUB \t\t\tvaluations.push(\\r\\n          ...\n      SWAP1 \t\t\tvaluations.push(\\r\\n          ...\n      PUSH 0\t\t\tvaluations.push(\\r\\n          ...\n      MSTORE \t\t\tvaluations.push(\\r\\n          ...\n      PUSH 20\t\t\tvaluations.push(\\r\\n          ...\n      PUSH 0\t\t\tvaluations.push(\\r\\n          ...\n      KECCAK256 \t\t\tvaluations.push(\\r\\n          ...\n      SWAP1 \t\t\tvaluations.push(\\r\\n          ...\n      PUSH 3\t\t\tvaluations.push(\\r\\n          ...\n      MUL \t\t\tvaluations.push(\\r\\n          ...\n      ADD \t\t\tvaluations.push(\\r\\n          ...\n      PUSH 0\t\t\tvaluations.push(\\r\\n          ...\n      SWAP1 \t\t\tvaluations.push(\\r\\n          ...\n      SWAP2 \t\t\tvaluations.push(\\r\\n          ...\n      SWAP1 \t\t\tvaluations.push(\\r\\n          ...\n      SWAP2 \t\t\tvaluations.push(\\r\\n          ...\n      SWAP1 \t\t\tvaluations.push(\\r\\n          ...\n      SWAP2 \t\t\tvaluations.push(\\r\\n          ...\n      POP \t\t\tvaluations.push(\\r\\n          ...\n      PUSH 0\t\t\tvaluations.push(\\r\\n          ...\n      DUP3 \t\t\tvaluations.push(\\r\\n          ...\n      ADD \t\t\tvaluations.push(\\r\\n          ...\n      MLOAD \t\t\tvaluations.push(\\r\\n          ...\n      DUP2 \t\t\tvaluations.push(\\r\\n          ...\n      PUSH 0\t\t\tvaluations.push(\\r\\n          ...\n      ADD \t\t\tvaluations.push(\\r\\n          ...\n      SWAP1 \t\t\tvaluations.push(\\r\\n          ...\n      DUP2 \t\t\tvaluations.push(\\r\\n          ...\n      PUSH [tag] 34\t\t\tvaluations.push(\\r\\n          ...\n      SWAP2 \t\t\tvaluations.push(\\r\\n          ...\n      SWAP1 \t\t\tvaluations.push(\\r\\n          ...\n      PUSH [tag] 35\t\t\tvaluations.push(\\r\\n          ...\n      JUMP \t\t\tvaluations.push(\\r\\n          ...\n    tag 34\t\t\tvaluations.push(\\r\\n          ...\n      JUMPDEST \t\t\tvaluations.push(\\r\\n          ...\n      POP \t\t\tvaluations.push(\\r\\n          ...\n      PUSH 20\t\t\tvaluations.push(\\r\\n          ...\n      DUP3 \t\t\tvaluations.push(\\r\\n          ...\n      ADD \t\t\tvaluations.push(\\r\\n          ...\n      MLOAD \t\t\tvaluations.push(\\r\\n          ...\n      DUP2 \t\t\tvaluations.push(\\r\\n          ...\n      PUSH 1\t\t\tvaluations.push(\\r\\n          ...\n      ADD \t\t\tvaluations.push(\\r\\n          ...\n      SWAP1 \t\t\tvaluations.push(\\r\\n          ...\n      DUP2 \t\t\tvaluations.push(\\r\\n          ...\n      PUSH [tag] 36\t\t\tvaluations.push(\\r\\n          ...\n      SWAP2 \t\t\tvaluations.push(\\r\\n          ...\n      SWAP1 \t\t\tvaluations.push(\\r\\n          ...\n      PUSH [tag] 37\t\t\tvaluations.push(\\r\\n          ...\n      JUMP \t\t\tvaluations.push(\\r\\n          ...\n    tag 36\t\t\tvaluations.push(\\r\\n          ...\n      JUMPDEST \t\t\tvaluations.push(\\r\\n          ...\n      POP \t\t\tvaluations.push(\\r\\n          ...\n      PUSH 40\t\t\tvaluations.push(\\r\\n          ...\n      DUP3 \t\t\tvaluations.push(\\r\\n          ...\n      ADD \t\t\tvaluations.push(\\r\\n          ...\n      MLOAD \t\t\tvaluations.push(\\r\\n          ...\n      DUP2 \t\t\tvaluations.push(\\r\\n          ...\n      PUSH 2\t\t\tvaluations.push(\\r\\n          ...\n      ADD \t\t\tvaluations.push(\\r\\n          ...\n      SSTORE \t\t\tvaluations.push(\\r\\n          ...\n      POP \t\t\tvaluations.push(\\r\\n          ...\n      POP \t\t\tvaluations.push(\\r\\n          ...\n      DUP1 \t\t\tvaluationIndex\n      PUSH 36F98D58759794380D8A9D5A43B18A58BF17CA84F9EACA96EFFF0249622D511B\t\t\tValuationHashSubmitted(\\r\\n   ...\n      DUP5 \t\t\tprj_id\n      DUP5 \t\t\tvaluation_hash\n      TIMESTAMP \t\t\tblock.timestamp\n      PUSH 40\t\t\tValuationHashSubmitted(\\r\\n   ...\n      MLOAD \t\t\tValuationHashSubmitted(\\r\\n   ...\n      PUSH [tag] 38\t\t\tValuationHashSubmitted(\\r\\n   ...\n      SWAP4 \t\t\tValuationHashSubmitted(\\r\\n   ...\n      SWAP3 \t\t\tValuationHashSubmitted(\\r\\n   ...\n      SWAP2 \t\t\tValuationHashSubmitted(\\r\\n   ...\n      SWAP1 \t\t\tValuationHashSubmitted(\\r\\n   ...\n      PUSH [tag] 16\t\t\tValuationHashSubmitted(\\r\\n   ...\n      JUMP \t\t\tValuationHashSubmitted(\\r\\n   ...\n    tag 38\t\t\tValuationHashSubmitted(\\r\\n   ...\n      JUMPDEST \t\t\tValuationHashSubmitted(\\r\\n   ...\n      PUSH 40\t\t\tValuationHashSubmitted(\\r\\n   ...\n      MLOAD \t\t\tValuationHashSubmitted(\\r\\n   ...\n      DUP1 \t\t\tValuationHashSubmitted(\\r\\n   ...\n      SWAP2 \t\t\tValuationHashSubmitted(\\r\\n   ...\n      SUB \t\t\tValuationHashSubmitted(\\r\\n   ...\n      SWAP1 \t\t\tValuationHashSubmitted(\\r\\n   ...\n      LOG2 \t\t\tValuationHashSubmitted(\\r\\n   ...\n      POP \t\t\t{\\r\\n        require(bytes(prj...\n      POP \t\t\tfunction submitValuationHash(\\...\n      POP \t\t\tfunction submitValuationHash(\\...\n      JUMP \t\t\tfunction submitValuationHash(\\...\n    tag 14\t\t\tValuation[] public valuations\n      JUMPDEST \t\t\tValuation[] public valuations\n      PUSH 0\t\t\tValuation[] public valuations\n      DUP2 \t\t\tValuation[] public valuations\n      DUP2 \t\t\tValuation[] public valuations\n      SLOAD \t\t\tValuation[] public valuations\n      DUP2 \t\t\tValuation[] public valuations\n      LT \t\t\tValuation[] public valuations\n      PUSH [tag] 39\t\t\tValuation[] public valuations\n      JUMPI \t\t\tValuation[] public valuations\n      PUSH 0\t\t\tValuation[] public valuations\n      DUP1 \t\t\tValuation[] public valuations\n      REVERT \t\t\tValuation[] public valuations\n    tag 39\t\t\tValuation[] public valuations\n      JUMPDEST \t\t\tValuation[] public valuations\n      SWAP1 \t\t\tValuation[] public valuations\n      PUSH 0\t\t\tValuation[] public valuations\n      MSTORE \t\t\tValuation[] public valuations\n      PUSH 20\t\t\tValuation[] public valuations\n      PUSH 0\t\t\tValuation[] public valuations\n      KECCAK256 \t\t\tValuation[] public valuations\n      SWAP1 \t\t\tValuation[] public valuations\n      PUSH 3\t\t\tValuation[] public valuations\n      MUL \t\t\tValuation[] public valuations\n      ADD \t\t\tValuation[] public valuations\n      PUSH 0\t\t\tValuation[] public valuations\n      SWAP2 \t\t\tValuation[] public valuations\n      POP \t\t\tValuation[] public valuations\n      SWAP1 \t\t\tValuation[] public valuations\n      POP \t\t\tValuation[] public valuations\n      DUP1 \t\t\tValuation[] public valuations\n      PUSH 0\t\t\tValuation[] public valuations\n      ADD \t\t\tValuation[] public valuations\n      DUP1 \t\t\tValuation[] public valuations\n      SLOAD \t\t\tValuation[] public valuations\n      PUSH [tag] 41\t\t\tValuation[] public valuations\n      SWAP1 \t\t\tValuation[] public valuations\n      PUSH [tag] 42\t\t\tValuation[] public valuations\n      JUMP \t\t\tValuation[] public valuations\n    tag 41\t\t\tValuation[] public valuations\n      JUMPDEST \t\t\tValuation[] public valuations\n      DUP1 \t\t\tValuation[] public valuations\n      PUSH 1F\t\t\tValuation[] public valuations\n      ADD \t\t\tValuation[] public valuations\n      PUSH 20\t\t\tValuation[] public valuations\n      DUP1 \t\t\tValuation[] public valuations\n      SWAP2 \t\t\tValuation[] public valuations\n      DIV \t\t\tValuation[] public valuations\n      MUL \t\t\tValuation[] public valuations\n      PUSH 20\t\t\tValuation[] public valuations\n      ADD \t\t\tValuation[] public valuations\n      PUSH 40\t\t\tValuation[] public valuations\n      MLOAD \t\t\tValuation[] public valuations\n      SWAP1 \t\t\tValuation[] public valuations\n      DUP2 \t\t\tValuation[] public valuations\n      ADD \t\t\tValuation[] public valuations\n      PUSH 40\t\t\tValuation[] public valuations\n      MSTORE \t\t\tValuation[] public valuations\n      DUP1 \t\t\tValuation[] public valuations\n      SWAP3 \t\t\tValuation[] public valuations\n      SWAP2 \t\t\tValuation[] public valuations\n      SWAP1 \t\t\tValuation[] public valuations\n      DUP2 \t\t\tValuation[] public valuations\n      DUP2 \t\t\tValuation[] public valuations\n      MSTORE \t\t\tValuation[] public valuations\n      PUSH 20\t\t\tValuation[] public valuations\n      ADD \t\t\tValuation[] public valuations\n      DUP3 \t\t\tValuation[] public valuations\n      DUP1 \t\t\tValuation[] public valuations\n      SLOAD \t\t\tValuation[] public valuations\n      PUSH [tag] 43\t\t\tValuation[] public valuations\n      SWAP1 \t\t\tValuation[] public valuations\n      PUSH [tag] 42\t\t\tValuation[] public valuations\n      JUMP \t\t\tValuation[] public valuations\n    tag 43\t\t\tValuation[] public valuations\n      JUMPDEST \t\t\tValuation[] public valuations\n      DUP1 \t\t\tValuation[] public valuations\n      ISZERO \t\t\tValuation[] public valuations\n      PUSH [tag] 44\t\t\tValuation[] public valuations\n      JUMPI \t\t\tValuation[] public valuations\n      DUP1 \t\t\tValuation[] public valuations\n      PUSH 1F\t\t\tValuation[] public valuations\n      LT \t\t\tValuation[] public valuations\n      PUSH [tag] 45\t\t\tValuation[] public valuations\n      JUMPI \t\t\tValuation[] public valuations\n      PUSH 100\t\t\tValuation[] public valuations\n      DUP1 \t\t\tValuation[] public valuations\n      DUP4 \t\t\tValuation[] public valuations\n      SLOAD \t\t\tValuation[] public valuations\n      DIV \t\t\tValuation[] public valuations\n      MUL \t\t\tValuation[] public valuations\n      DUP4 \t\t\tValuation[] public valuations\n      MSTORE \t\t\tValuation[] public valuations\n      SWAP2 \t\t\tValuation[] public valuations\n      PUSH 20\t\t\tValuation[] public valuations\n      ADD \t\t\tValuation[] public valuations\n      SWAP2 \t\t\tValuation[] public valuations\n      PUSH [tag] 44\t\t\tValuation[] public valuations\n      JUMP \t\t\tValuation[] public valuations\n    tag 45\t\t\tValuation[] public valuations\n      JUMPDEST \t\t\tValuation[] public valuations\n      DUP3 \t\t\tValuation[] public valuations\n      ADD \t\t\tValuation[] public valuations\n      SWAP2 \t\t\tValuation[] public valuations\n      SWAP1 \t\t\tValuation[] public valuations\n      PUSH 0\t\t\tValuation[] public valuations\n      MSTORE \t\t\tValuation[] public valuations\n      PUSH 20\t\t\tValuation[] public valuations\n      PUSH 0\t\t\tValuation[] public valuations\n      KECCAK256 \t\t\tValuation[] public valuations\n      SWAP1 \t\t\tValuation[] public valuations\n    tag 46\t\t\tValuation[] public valuations\n      JUMPDEST \t\t\tValuation[] public valuations\n      DUP2 \t\t\tValuation[] public valuations\n      SLOAD \t\t\tValuation[] public valuations\n      DUP2 \t\t\tValuation[] public valuations\n      MSTORE \t\t\tValuation[] public valuations\n      SWAP1 \t\t\tValuation[] public valuations\n      PUSH 1\t\t\tValuation[] public valuations\n      ADD \t\t\tValuation[] public valuations\n      SWAP1 \t\t\tValuation[] public valuations\n      PUSH 20\t\t\tValuation[] public valuations\n      ADD \t\t\tValuation[] public valuations\n      DUP1 \t\t\tValuation[] public valuations\n      DUP4 \t\t\tValuation[] public valuations\n      GT \t\t\tValuation[] public valuations\n      PUSH [tag] 46\t\t\tValuation[] public valuations\n      JUMPI \t\t\tValuation[] public valuations\n      DUP3 \t\t\tValuation[] public valuations\n      SWAP1 \t\t\tValuation[] public valuations\n      SUB \t\t\tValuation[] public valuations\n      PUSH 1F\t\t\tValuation[] public valuations\n      AND \t\t\tValuation[] public valuations\n      DUP3 \t\t\tValuation[] public valuations\n      ADD \t\t\tValuation[] public valuations\n      SWAP2 \t\t\tValuation[] public valuations\n    tag 44\t\t\tValuation[] public valuations\n      JUMPDEST \t\t\tValuation[] public valuations\n      POP \t\t\tValuation[] public valuations\n      POP \t\t\tValuation[] public valuations\n      POP \t\t\tValuation[] public valuations\n      POP \t\t\tValuation[] public valuations\n      POP \t\t\tValuation[] public valuations\n      SWAP1 \t\t\tValuation[] public valuations\n      DUP1 \t\t\tValuation[] public valuations\n      PUSH 1\t\t\tValuation[] public valuations\n      ADD \t\t\tValuation[] public valuations\n      DUP1 \t\t\tValuation[] public valuations\n      SLOAD \t\t\tValuation[] public valuations\n      PUSH [tag] 47\t\t\tValuation[] public valuations\n      SWAP1 \t\t\tValuation[] public valuations\n      PUSH [tag] 42\t\t\tValuation[] public valuations\n      JUMP \t\t\tValuation[] public valuations\n    tag 47\t\t\tValuation[] public valuations\n      JUMPDEST \t\t\tValuation[] public valuations\n      DUP1 \t\t\tValuation[] public valuations\n      PUSH 1F\t\t\tValuation[] public valuations\n      ADD \t\t\tValuation[] public valuations\n      PUSH 20\t\t\tValuation[] public valuations\n      DUP1 \t\t\tValuation[] public valuations\n      SWAP2 \t\t\tValuation[] public valuations\n      DIV \t\t\tValuation[] public valuations\n      MUL \t\t\tValuation[] public valuations\n      PUSH 20\t\t\tValuation[] public valuations\n      ADD \t\t\tValuation[] public valuations\n      PUSH 40\t\t\tValuation[] public valuations\n      MLOAD \t\t\tValuation[] public valuations\n      SWAP1 \t\t\tValuation[] public valuations\n      DUP2 \t\t\tValuation[] public valuations\n      ADD \t\t\tValuation[] public valuations\n      PUSH 40\t\t\tValuation[] public valuations\n      MSTORE \t\t\tValuation[] public valuations\n      DUP1 \t\t\tValuation[] public valuations\n      SWAP3 \t\t\tValuation[] public valuations\n      SWAP2 \t\t\tValuation[] public valuations\n      SWAP1 \t\t\tValuation[] public valuations\n      DUP2 \t\t\tValuation[] public valuations\n      DUP2 \t\t\tValuation[] public valuations\n      MSTORE \t\t\tValuation[] public valuations\n      PUSH 20\t\t\tValuation[] public valuations\n      ADD \t\t\tValuation[] public valuations\n      DUP3 \t\t\tValuation[] public valuations\n      DUP1 \t\t\tValuation[] public valuations\n      SLOAD \t\t\tValuation[] public valuations\n      PUSH [tag] 48\t\t\tValuation[] public valuations\n      SWAP1 \t\t\tValuation[] public valuations\n      PUSH [tag] 42\t\t\tValuation[] public valuations\n      JUMP \t\t\tValuation[] public valuations\n    tag 48\t\t\tValuation[] public valuations\n      JUMPDEST \t\t\tValuation[] public valuations\n      DUP1 \t\t\tValuation[] public valuations\n      ISZERO \t\t\tValuation[] public valuations\n      PUSH [tag] 49\t\t\tValuation[] public valuations\n      JUMPI \t\t\tValuation[] public valuations\n      DUP1 \t\t\tValuation[] public valuations\n      PUSH 1F\t\t\tValuation[] public valuations\n      LT \t\t\tValuation[] public valuations\n      PUSH [tag] 50\t\t\tValuation[] public valuations\n      JUMPI \t\t\tValuation[] public valuations\n      PUSH 100\t\t\tValuation[] public valuations\n      DUP1 \t\t\tValuation[] public valuations\n      DUP4 \t\t\tValuation[] public valuations\n      SLOAD \t\t\tValuation[] public valuations\n      DIV \t\t\tValuation[] public valuations\n      MUL \t\t\tValuation[] public valuations\n      DUP4 \t\t\tValuation[] public valuations\n      MSTORE \t\t\tValuation[] public valuations\n      SWAP2 \t\t\tValuation[] public valuations\n      PUSH 20\t\t\tValuation[] public valuations\n      ADD \t\t\tValuation[] public valuations\n      SWAP2 \t\t\tValuation[] public valuations\n      PUSH [tag] 49\t\t\tValuation[] public valuations\n      JUMP \t\t\tValuation[] public valuations\n    tag 50\t\t\tValuation[] public valuations\n      JUMPDEST \t\t\tValuation[] public valuations\n      DUP3 \t\t\tValuation[] public valuations\n      ADD \t\t\tValuation[] public valuations\n      SWAP2 \t\t\tValuation[] public valuations\n      SWAP1 \t\t\tValuation[] public valuations\n      PUSH 0\t\t\tValuation[] public valuations\n      MSTORE \t\t\tValuation[] public valuations\n      PUSH 20\t\t\tValuation[] public valuations\n      PUSH 0\t\t\tValuation[] public valuations\n      KECCAK256 \t\t\tValuation[] public valuations\n      SWAP1 \t\t\tValuation[] public valuations\n    tag 51\t\t\tValuation[] public valuations\n      JUMPDEST \t\t\tValuation[] public valuations\n      DUP2 \t\t\tValuation[] public valuations\n      SLOAD \t\t\tValuation[] public valuations\n      DUP2 \t\t\tValuation[] public valuations\n      MSTORE \t\t\tValuation[] public valuations\n      SWAP1 \t\t\tValuation[] public valuations\n      PUSH 1\t\t\tValuation[] public valuations\n      ADD \t\t\tValuation[] public valuations\n      SWAP1 \t\t\tValuation[] public valuations\n      PUSH 20\t\t\tValuation[] public valuations\n      ADD \t\t\tValuation[] public valuations\n      DUP1 \t\t\tValuation[] public valuations\n      DUP4 \t\t\tValuation[] public valuations\n      GT \t\t\tValuation[] public valuations\n      PUSH [tag] 51\t\t\tValuation[] public valuations\n      JUMPI \t\t\tValuation[] public valuations\n      DUP3 \t\t\tValuation[] public valuations\n      SWAP1 \t\t\tValuation[] public valuations\n      SUB \t\t\tValuation[] public valuations\n      PUSH 1F\t\t\tValuation[] public valuations\n      AND \t\t\tValuation[] public valuations\n      DUP3 \t\t\tValuation[] public valuations\n      ADD \t\t\tValuation[] public valuations\n      SWAP2 \t\t\tValuation[] public valuations\n    tag 49\t\t\tValuation[] public valuations\n      JUMPDEST \t\t\tValuation[] public valuations\n      POP \t\t\tValuation[] public valuations\n      POP \t\t\tValuation[] public valuations\n      POP \t\t\tValuation[] public valuations\n      POP \t\t\tValuation[] public valuations\n      POP \t\t\tValuation[] public valuations\n      SWAP1 \t\t\tValuation[] public valuations\n      DUP1 \t\t\tValuation[] public valuations\n      PUSH 2\t\t\tValuation[] public valuations\n      ADD \t\t\tValuation[] public valuations\n      SLOAD \t\t\tValuation[] public valuations\n      SWAP1 \t\t\tValuation[] public valuations\n      POP \t\t\tValuation[] public valuations\n      DUP4 \t\t\tValuation[] public valuations\n      JUMP \t\t\tValuation[] public valuations\n    tag 18\t\t\tfunction getValuations() publi...\n      JUMPDEST \t\t\tfunction getValuations() publi...\n      PUSH 60\t\t\tValuation[] memory\n      PUSH 0\t\t\tvaluations\n      DUP1 \t\t\treturn valuations\n      SLOAD \t\t\treturn valuations\n      DUP1 \t\t\treturn valuations\n      PUSH 20\t\t\treturn valuations\n      MUL \t\t\treturn valuations\n      PUSH 20\t\t\treturn valuations\n      ADD \t\t\treturn valuations\n      PUSH 40\t\t\treturn valuations\n      MLOAD \t\t\treturn valuations\n      SWAP1 \t\t\treturn valuations\n      DUP2 \t\t\treturn valuations\n      ADD \t\t\treturn valuations\n      PUSH 40\t\t\treturn valuations\n      MSTORE \t\t\treturn valuations\n      DUP1 \t\t\treturn valuations\n      SWAP3 \t\t\treturn valuations\n      SWAP2 \t\t\treturn valuations\n      SWAP1 \t\t\treturn valuations\n      DUP2 \t\t\treturn valuations\n      DUP2 \t\t\treturn valuations\n      MSTORE \t\t\treturn valuations\n      PUSH 20\t\t\treturn valuations\n      ADD \t\t\treturn valuations\n      PUSH 0\t\t\treturn valuations\n      SWAP1 \t\t\treturn valuations\n    tag 53\t\t\treturn valuations\n      JUMPDEST \t\t\treturn valuations\n      DUP3 \t\t\treturn valuations\n      DUP3 \t\t\treturn valuations\n      LT \t\t\treturn valuations\n      ISZERO \t\t\treturn valuations\n      PUSH [tag] 54\t\t\treturn valuations\n      JUMPI \t\t\treturn valuations\n      DUP4 \t\t\treturn valuations\n      DUP3 \t\t\treturn valuations\n      SWAP1 \t\t\treturn valuations\n      PUSH 0\t\t\treturn valuations\n      MSTORE \t\t\treturn valuations\n      PUSH 20\t\t\treturn valuations\n      PUSH 0\t\t\treturn valuations\n      KECCAK256 \t\t\treturn valuations\n      SWAP1 \t\t\treturn valuations\n      PUSH 3\t\t\treturn valuations\n      MUL \t\t\treturn valuations\n      ADD \t\t\treturn valuations\n      PUSH 40\t\t\treturn valuations\n      MLOAD \t\t\treturn valuations\n      DUP1 \t\t\treturn valuations\n      PUSH 60\t\t\treturn valuations\n      ADD \t\t\treturn valuations\n      PUSH 40\t\t\treturn valuations\n      MSTORE \t\t\treturn valuations\n      SWAP1 \t\t\treturn valuations\n      DUP2 \t\t\treturn valuations\n      PUSH 0\t\t\treturn valuations\n      DUP3 \t\t\treturn valuations\n      ADD \t\t\treturn valuations\n      DUP1 \t\t\treturn valuations\n      SLOAD \t\t\treturn valuations\n      PUSH [tag] 56\t\t\treturn valuations\n      SWAP1 \t\t\treturn valuations\n      PUSH [tag] 42\t\t\treturn valuations\n      JUMP \t\t\treturn valuations\n    tag 56\t\t\treturn valuations\n      JUMPDEST \t\t\treturn valuations\n      DUP1 \t\t\treturn valuations\n      PUSH 1F\t\t\treturn valuations\n      ADD \t\t\treturn valuations\n      PUSH 20\t\t\treturn valuations\n      DUP1 \t\t\treturn valuations\n      SWAP2 \t\t\treturn valuations\n      DIV \t\t\treturn valuations\n      MUL \t\t\treturn valuations\n      PUSH 20\t\t\treturn valuations\n      ADD \t\t\treturn valuations\n      PUSH 40\t\t\treturn valuations\n      MLOAD \t\t\treturn valuations\n      SWAP1 \t\t\treturn valuations\n      DUP2 \t\t\treturn valuations\n      ADD \t\t\treturn valuations\n      PUSH 40\t\t\treturn valuations\n      MSTORE \t\t\treturn valuations\n      DUP1 \t\t\treturn valuations\n      SWAP3 \t\t\treturn valuations\n      SWAP2 \t\t\treturn valuations\n      SWAP1 \t\t\treturn valuations\n      DUP2 \t\t\treturn valuations\n      DUP2 \t\t\treturn valuations\n      MSTORE \t\t\treturn valuations\n      PUSH 20\t\t\treturn valuations\n      ADD \t\t\treturn valuations\n      DUP3 \t\t\treturn valuations\n      DUP1 \t\t\treturn valuations\n      SLOAD \t\t\treturn valuations\n      PUSH [tag] 57\t\t\treturn valuations\n      SWAP1 \t\t\treturn valuations\n      PUSH [tag] 42\t\t\treturn valuations\n      JUMP \t\t\treturn valuations\n    tag 57\t\t\treturn valuations\n      JUMPDEST \t\t\treturn valuations\n      DUP1 \t\t\treturn valuations\n      ISZERO \t\t\treturn valuations\n      PUSH [tag] 58\t\t\treturn valuations\n      JUMPI \t\t\treturn valuations\n      DUP1 \t\t\treturn valuations\n      PUSH 1F\t\t\treturn valuations\n      LT \t\t\treturn valuations\n      PUSH [tag] 59\t\t\treturn valuations\n      JUMPI \t\t\treturn valuations\n      PUSH 100\t\t\treturn valuations\n      DUP1 \t\t\treturn valuations\n      DUP4 \t\t\treturn valuations\n      SLOAD \t\t\treturn valuations\n      DIV \t\t\treturn valuations\n      MUL \t\t\treturn valuations\n      DUP4 \t\t\treturn valuations\n      MSTORE \t\t\treturn valuations\n      SWAP2 \t\t\treturn valuations\n      PUSH 20\t\t\treturn valuations\n      ADD \t\t\treturn valuations\n      SWAP2 \t\t\treturn valuations\n      PUSH [tag] 58\t\t\treturn valuations\n      JUMP \t\t\treturn valuations\n    tag 59\t\t\treturn valuations\n      JUMPDEST \t\t\treturn valuations\n      DUP3 \t\t\treturn valuations\n      ADD \t\t\treturn valuations\n      SWAP2 \t\t\treturn valuations\n      SWAP1 \t\t\treturn valuations\n      PUSH 0\t\t\treturn valuations\n      MSTORE \t\t\treturn valuations\n      PUSH 20\t\t\treturn valuations\n      PUSH 0\t\t\treturn valuations\n      KECCAK256 \t\t\treturn valuations\n      SWAP1 \t\t\treturn valuations\n    tag 60\t\t\treturn valuations\n      JUMPDEST \t\t\treturn valuations\n      DUP2 \t\t\treturn valuations\n      SLOAD \t\t\treturn valuations\n      DUP2 \t\t\treturn valuations\n      MSTORE \t\t\treturn valuations\n      SWAP1 \t\t\treturn valuations\n      PUSH 1\t\t\treturn valuations\n      ADD \t\t\treturn valuations\n      SWAP1 \t\t\treturn valuations\n      PUSH 20\t\t\treturn valuations\n      ADD \t\t\treturn valuations\n      DUP1 \t\t\treturn valuations\n      DUP4 \t\t\treturn valuations\n      GT \t\t\treturn valuations\n      PUSH [tag] 60\t\t\treturn valuations\n      JUMPI \t\t\treturn valuations\n      DUP3 \t\t\treturn valuations\n      SWAP1 \t\t\treturn valuations\n      SUB \t\t\treturn valuations\n      PUSH 1F\t\t\treturn valuations\n      AND \t\t\treturn valuations\n      DUP3 \t\t\treturn valuations\n      ADD \t\t\treturn valuations\n      SWAP2 \t\t\treturn valuations\n    tag 58\t\t\treturn valuations\n      JUMPDEST \t\t\treturn valuations\n      POP \t\t\treturn valuations\n      POP \t\t\treturn valuations\n      POP \t\t\treturn valuations\n      POP \t\t\treturn valuations\n      POP \t\t\treturn valuations\n      DUP2 \t\t\treturn valuations\n      MSTORE \t\t\treturn valuations\n      PUSH 20\t\t\treturn valuations\n      ADD \t\t\treturn valuations\n      PUSH 1\t\t\treturn valuations\n      DUP3 \t\t\treturn valuations\n      ADD \t\t\treturn valuations\n      DUP1 \t\t\treturn valuations\n      SLOAD \t\t\treturn valuations\n      PUSH [tag] 61\t\t\treturn valuations\n      SWAP1 \t\t\treturn valuations\n      PUSH [tag] 42\t\t\treturn valuations\n      JUMP \t\t\treturn valuations\n    tag 61\t\t\treturn valuations\n      JUMPDEST \t\t\treturn valuations\n      DUP1 \t\t\treturn valuations\n      PUSH 1F\t\t\treturn valuations\n      ADD \t\t\treturn valuations\n      PUSH 20\t\t\treturn valuations\n      DUP1 \t\t\treturn valuations\n      SWAP2 \t\t\treturn valuations\n      DIV \t\t\treturn valuations\n      MUL \t\t\treturn valuations\n      PUSH 20\t\t\treturn valuations\n      ADD \t\t\treturn valuations\n      PUSH 40\t\t\treturn valuations\n      MLOAD \t\t\treturn valuations\n      SWAP1 \t\t\treturn valuations\n      DUP2 \t\t\treturn valuations\n      ADD \t\t\treturn valuations\n      PUSH 40\t\t\treturn valuations\n      MSTORE \t\t\treturn valuations\n      DUP1 \t\t\treturn valuations\n      SWAP3 \t\t\treturn valuations\n      SWAP2 \t\t\treturn valuations\n      SWAP1 \t\t\treturn valuations\n      DUP2 \t\t\treturn valuations\n      DUP2 \t\t\treturn valuations\n      MSTORE \t\t\treturn valuations\n      PUSH 20\t\t\treturn valuations\n      ADD \t\t\treturn valuations\n      DUP3 \t\t\treturn valuations\n      DUP1 \t\t\treturn valuations\n      SLOAD \t\t\treturn valuations\n      PUSH [tag] 62\t\t\treturn valuations\n      SWAP1 \t\t\treturn valuations\n      PUSH [tag] 42\t\t\treturn valuations\n      JUMP \t\t\treturn valuations\n    tag 62\t\t\treturn valuations\n      JUMPDEST \t\t\treturn valuations\n      DUP1 \t\t\treturn valuations\n      ISZERO \t\t\treturn valuations\n      PUSH [tag] 63\t\t\treturn valuations\n      JUMPI \t\t\treturn valuations\n      DUP1 \t\t\treturn valuations\n      PUSH 1F\t\t\treturn valuations\n      LT \t\t\treturn valuations\n      PUSH [tag] 64\t\t\treturn valuations\n      JUMPI \t\t\treturn valuations\n      PUSH 100\t\t\treturn valuations\n      DUP1 \t\t\treturn valuations\n      DUP4 \t\t\treturn valuations\n      SLOAD \t\t\treturn valuations\n      DIV \t\t\treturn valuations\n      MUL \t\t\treturn valuations\n      DUP4 \t\t\treturn valuations\n      MSTORE \t\t\treturn valuations\n      SWAP2 \t\t\treturn valuations\n      PUSH 20\t\t\treturn valuations\n      ADD \t\t\treturn valuations\n      SWAP2 \t\t\treturn valuations\n      PUSH [tag] 63\t\t\treturn valuations\n      JUMP \t\t\treturn valuations\n    tag 64\t\t\treturn valuations\n      JUMPDEST \t\t\treturn valuations\n      DUP3 \t\t\treturn valuations\n      ADD \t\t\treturn valuations\n      SWAP2 \t\t\treturn valuations\n      SWAP1 \t\t\treturn valuations\n      PUSH 0\t\t\treturn valuations\n      MSTORE \t\t\treturn valuations\n      PUSH 20\t\t\treturn valuations\n      PUSH 0\t\t\treturn valuations\n      KECCAK256 \t\t\treturn valuations\n      SWAP1 \t\t\treturn valuations\n    tag 65\t\t\treturn valuations\n      JUMPDEST \t\t\treturn valuations\n      DUP2 \t\t\treturn valuations\n      SLOAD \t\t\treturn valuations\n      DUP2 \t\t\treturn valuations\n      MSTORE \t\t\treturn valuations\n      SWAP1 \t\t\treturn valuations\n      PUSH 1\t\t\treturn valuations\n      ADD \t\t\treturn valuations\n      SWAP1 \t\t\treturn valuations\n      PUSH 20\t\t\treturn valuations\n      ADD \t\t\treturn valuations\n      DUP1 \t\t\treturn valuations\n      DUP4 \t\t\treturn valuations\n      GT \t\t\treturn valuations\n      PUSH [tag] 65\t\t\treturn valuations\n      JUMPI \t\t\treturn valuations\n      DUP3 \t\t\treturn valuations\n      SWAP1 \t\t\treturn valuations\n      SUB \t\t\treturn valuations\n      PUSH 1F\t\t\treturn valuations\n      AND \t\t\treturn valuations\n      DUP3 \t\t\treturn valuations\n      ADD \t\t\treturn valuations\n      SWAP2 \t\t\treturn valuations\n    tag 63\t\t\treturn valuations\n      JUMPDEST \t\t\treturn valuations\n      POP \t\t\treturn valuations\n      POP \t\t\treturn valuations\n      POP \t\t\treturn valuations\n      POP \t\t\treturn valuations\n      POP \t\t\treturn valuations\n      DUP2 \t\t\treturn valuations\n      MSTORE \t\t\treturn valuations\n      PUSH 20\t\t\treturn valuations\n      ADD \t\t\treturn valuations\n      PUSH 2\t\t\treturn valuations\n      DUP3 \t\t\treturn valuations\n      ADD \t\t\treturn valuations\n      SLOAD \t\t\treturn valuations\n      DUP2 \t\t\treturn valuations\n      MSTORE \t\t\treturn valuations\n      POP \t\t\treturn valuations\n      POP \t\t\treturn valuations\n      DUP2 \t\t\treturn valuations\n      MSTORE \t\t\treturn valuations\n      PUSH 20\t\t\treturn valuations\n      ADD \t\t\treturn valuations\n      SWAP1 \t\t\treturn valuations\n      PUSH 1\t\t\treturn valuations\n      ADD \t\t\treturn valuations\n      SWAP1 \t\t\treturn valuations\n      PUSH [tag] 53\t\t\treturn valuations\n      JUMP \t\t\treturn valuations\n    tag 54\t\t\treturn valuations\n      JUMPDEST \t\t\treturn valuations\n      POP \t\t\treturn valuations\n      POP \t\t\treturn valuations\n      POP \t\t\treturn valuations\n      POP \t\t\treturn valuations\n      SWAP1 \t\t\treturn valuations\n      POP \t\t\treturn valuations\n      SWAP1 \t\t\tfunction getValuations() publi...\n      JUMP \t\t\tfunction getValuations() publi...\n    tag 23\t\t\tfunction getValuationById(uint...\n      JUMPDEST \t\t\tfunction getValuationById(uint...\n      PUSH [tag] 66\t\t\tValuation memory\n      PUSH [tag] 67\t\t\tValuation memory\n      JUMP \t\t\tValuation memory\n    tag 66\t\t\tValuation memory\n      JUMPDEST \t\t\tValuation memory\n      PUSH 0\t\t\tvaluations\n      DUP1 \t\t\tvaluations.length\n      SLOAD \t\t\tvaluations.length\n      SWAP1 \t\t\tvaluations.length\n      POP \t\t\tvaluations.length\n      DUP3 \t\t\tvaluationIndex\n      LT \t\t\tvaluationIndex < valuations.le...\n      PUSH [tag] 69\t\t\trequire(valuationIndex < valua...\n      JUMPI \t\t\trequire(valuationIndex < valua...\n      PUSH 40\t\t\trequire(valuationIndex < valua...\n      MLOAD \t\t\trequire(valuationIndex < valua...\n      PUSH 8C379A000000000000000000000000000000000000000000000000000000000\t\t\trequire(valuationIndex < valua...\n      DUP2 \t\t\trequire(valuationIndex < valua...\n      MSTORE \t\t\trequire(valuationIndex < valua...\n      PUSH 4\t\t\trequire(valuationIndex < valua...\n      ADD \t\t\trequire(valuationIndex < valua...\n      PUSH [tag] 70\t\t\trequire(valuationIndex < valua...\n      SWAP1 \t\t\trequire(valuationIndex < valua...\n      PUSH [tag] 71\t\t\trequire(valuationIndex < valua...\n      JUMP \t\t\trequire(valuationIndex < valua...\n    tag 70\t\t\trequire(valuationIndex < valua...\n      JUMPDEST \t\t\trequire(valuationIndex < valua...\n      PUSH 40\t\t\trequire(valuationIndex < valua...\n      MLOAD \t\t\trequire(valuationIndex < valua...\n      DUP1 \t\t\trequire(valuationIndex < valua...\n      SWAP2 \t\t\trequire(valuationIndex < valua...\n      SUB \t\t\trequire(valuationIndex < valua...\n      SWAP1 \t\t\trequire(valuationIndex < valua...\n      REVERT \t\t\trequire(valuationIndex < valua...\n    tag 69\t\t\trequire(valuationIndex < valua...\n      JUMPDEST \t\t\trequire(valuationIndex < valua...\n      PUSH 0\t\t\tvaluations\n      DUP3 \t\t\tvaluationIndex\n      DUP2 \t\t\tvaluations[valuationIndex]\n      SLOAD \t\t\tvaluations[valuationIndex]\n      DUP2 \t\t\tvaluations[valuationIndex]\n      LT \t\t\tvaluations[valuationIndex]\n      PUSH [tag] 72\t\t\tvaluations[valuationIndex]\n      JUMPI \t\t\tvaluations[valuationIndex]\n      PUSH [tag] 73\t\t\tvaluations[valuationIndex]\n      PUSH [tag] 74\t\t\tvaluations[valuationIndex]\n      JUMP \t\t\tvaluations[valuationIndex]\n    tag 73\t\t\tvaluations[valuationIndex]\n      JUMPDEST \t\t\tvaluations[valuationIndex]\n    tag 72\t\t\tvaluations[valuationIndex]\n      JUMPDEST \t\t\tvaluations[valuationIndex]\n      SWAP1 \t\t\tvaluations[valuationIndex]\n      PUSH 0\t\t\tvaluations[valuationIndex]\n      MSTORE \t\t\tvaluations[valuationIndex]\n      PUSH 20\t\t\tvaluations[valuationIndex]\n      PUSH 0\t\t\tvaluations[valuationIndex]\n      KECCAK256 \t\t\tvaluations[valuationIndex]\n      SWAP1 \t\t\tvaluations[valuationIndex]\n      PUSH 3\t\t\tvaluations[valuationIndex]\n      MUL \t\t\tvaluations[valuationIndex]\n      ADD \t\t\tvaluations[valuationIndex]\n      PUSH 40\t\t\treturn valuations[valuationInd...\n      MLOAD \t\t\treturn valuations[valuationInd...\n      DUP1 \t\t\treturn valuations[valuationInd...\n      PUSH 60\t\t\treturn valuations[valuationInd...\n      ADD \t\t\treturn valuations[valuationInd...\n      PUSH 40\t\t\treturn valuations[valuationInd...\n      MSTORE \t\t\treturn valuations[valuationInd...\n      SWAP1 \t\t\treturn valuations[valuationInd...\n      DUP2 \t\t\treturn valuations[valuationInd...\n      PUSH 0\t\t\treturn valuations[valuationInd...\n      DUP3 \t\t\treturn valuations[valuationInd...\n      ADD \t\t\treturn valuations[valuationInd...\n      DUP1 \t\t\treturn valuations[valuationInd...\n      SLOAD \t\t\treturn valuations[valuationInd...\n      PUSH [tag] 76\t\t\treturn valuations[valuationInd...\n      SWAP1 \t\t\treturn valuations[valuationInd...\n      PUSH [tag] 42\t\t\treturn valuations[valuationInd...\n      JUMP \t\t\treturn valuations[valuationInd...\n    tag 76\t\t\treturn valuations[valuationInd...\n      JUMPDEST \t\t\treturn valuations[valuationInd...\n      DUP1 \t\t\treturn valuations[valuationInd...\n      PUSH 1F\t\t\treturn valuations[valuationInd...\n      ADD \t\t\treturn valuations[valuationInd...\n      PUSH 20\t\t\treturn valuations[valuationInd...\n      DUP1 \t\t\treturn valuations[valuationInd...\n      SWAP2 \t\t\treturn valuations[valuationInd...\n      DIV \t\t\treturn valuations[valuationInd...\n      MUL \t\t\treturn valuations[valuationInd...\n      PUSH 20\t\t\treturn valuations[valuationInd...\n      ADD \t\t\treturn valuations[valuationInd...\n      PUSH 40\t\t\treturn valuations[valuationInd...\n      MLOAD \t\t\treturn valuations[valuationInd...\n      SWAP1 \t\t\treturn valuations[valuationInd...\n      DUP2 \t\t\treturn valuations[valuationInd...\n      ADD \t\t\treturn valuations[valuationInd...\n      PUSH 40\t\t\treturn valuations[valuationInd...\n      MSTORE \t\t\treturn valuations[valuationInd...\n      DUP1 \t\t\treturn valuations[valuationInd...\n      SWAP3 \t\t\treturn valuations[valuationInd...\n      SWAP2 \t\t\treturn valuations[valuationInd...\n      SWAP1 \t\t\treturn valuations[valuationInd...\n      DUP2 \t\t\treturn valuations[valuationInd...\n      DUP2 \t\t\treturn valuations[valuationInd...\n      MSTORE \t\t\treturn valuations[valuationInd...\n      PUSH 20\t\t\treturn valuations[valuationInd...\n      ADD \t\t\treturn valuations[valuationInd...\n      DUP3 \t\t\treturn valuations[valuationInd...\n      DUP1 \t\t\treturn valuations[valuationInd...\n      SLOAD \t\t\treturn valuations[valuationInd...\n      PUSH [tag] 77\t\t\treturn valuations[valuationInd...\n      SWAP1 \t\t\treturn valuations[valuationInd...\n      PUSH [tag] 42\t\t\treturn valuations[valuationInd...\n      JUMP \t\t\treturn valuations[valuationInd...\n    tag 77\t\t\treturn valuations[valuationInd...\n      JUMPDEST \t\t\treturn valuations[valuationInd...\n      DUP1 \t\t\treturn valuations[valuationInd...\n      ISZERO \t\t\treturn valuations[valuationInd...\n      PUSH [tag] 78\t\t\treturn valuations[valuationInd...\n      JUMPI \t\t\treturn valuations[valuationInd...\n      DUP1 \t\t\treturn valuations[valuationInd...\n      PUSH 1F\t\t\treturn valuations[valuationInd...\n      LT \t\t\treturn valuations[valuationInd...\n      PUSH [tag] 79\t\t\treturn valuations[valuationInd...\n      JUMPI \t\t\treturn valuations[valuationInd...\n      PUSH 100\t\t\treturn valuations[valuationInd...\n      DUP1 \t\t\treturn valuations[valuationInd...\n      DUP4 \t\t\treturn valuations[valuationInd...\n      SLOAD \t\t\treturn valuations[valuationInd...\n      DIV \t\t\treturn valuations[valuationInd...\n      MUL \t\t\treturn valuations[valuationInd...\n      DUP4 \t\t\treturn valuations[valuationInd...\n      MSTORE \t\t\treturn valuations[valuationInd...\n      SWAP2 \t\t\treturn valuations[valuationInd...\n      PUSH 20\t\t\treturn valuations[valuationInd...\n      ADD \t\t\treturn valuations[valuationInd...\n      SWAP2 \t\t\treturn valuations[valuationInd...\n      PUSH [tag] 78\t\t\treturn valuations[valuationInd...\n      JUMP \t\t\treturn valuations[valuationInd...\n    tag 79\t\t\treturn valuations[valuationInd...\n      JUMPDEST \t\t\treturn valuations[valuationInd...\n      DUP3 \t\t\treturn valuations[valuationInd...\n      ADD \t\t\treturn valuations[valuationInd...\n      SWAP2 \t\t\treturn valuations[valuationInd...\n      SWAP1 \t\t\treturn valuations[valuationInd...\n      PUSH 0\t\t\treturn valuations[valuationInd...\n      MSTORE \t\t\treturn valuations[valuationInd...\n      PUSH 20\t\t\treturn valuations[valuationInd...\n      PUSH 0\t\t\treturn valuations[valuationInd...\n      KECCAK256 \t\t\treturn valuations[valuationInd...\n      SWAP1 \t\t\treturn valuations[valuationInd...\n    tag 80\t\t\treturn valuations[valuationInd...\n      JUMPDEST \t\t\treturn valuations[valuationInd...\n      DUP2 \t\t\treturn valuations[valuationInd...\n      SLOAD \t\t\treturn valuations[valuationInd...\n      DUP2 \t\t\treturn valuations[valuationInd...\n      MSTORE \t\t\treturn valuations[valuationInd...\n      SWAP1 \t\t\treturn valuations[valuationInd...\n      PUSH 1\t\t\treturn valuations[valuationInd...\n      ADD \t\t\treturn valuations[valuationInd...\n      SWAP1 \t\t\treturn valuations[valuationInd...\n      PUSH 20\t\t\treturn valuations[valuationInd...\n      ADD \t\t\treturn valuations[valuationInd...\n      DUP1 \t\t\treturn valuations[valuationInd...\n      DUP4 \t\t\treturn valuations[valuationInd...\n      GT \t\t\treturn valuations[valuationInd...\n      PUSH [tag] 80\t\t\treturn valuations[valuationInd...\n      JUMPI \t\t\treturn valuations[valuationInd...\n      DUP3 \t\t\treturn valuations[valuationInd...\n      SWAP1 \t\t\treturn valuations[valuationInd...\n      SUB \t\t\treturn valuations[valuationInd...\n      PUSH 1F\t\t\treturn valuations[valuationInd...\n      AND \t\t\treturn valuations[valuationInd...\n      DUP3 \t\t\treturn valuations[valuationInd...\n      ADD \t\t\treturn valuations[valuationInd...\n      SWAP2 \t\t\treturn valuations[valuationInd...\n    tag 78\t\t\treturn valuations[valuationInd...\n      JUMPDEST \t\t\treturn valuations[valuationInd...\n      POP \t\t\treturn valuations[valuationInd...\n      POP \t\t\treturn valuations[valuationInd...\n      POP \t\t\treturn valuations[valuationInd...\n      POP \t\t\treturn valuations[valuationInd...\n      POP \t\t\treturn valuations[valuationInd...\n      DUP2 \t\t\treturn valuations[valuationInd...\n      MSTORE \t\t\treturn valuations[valuationInd...\n      PUSH 20\t\t\treturn valuations[valuationInd...\n      ADD \t\t\treturn valuations[valuationInd...\n      PUSH 1\t\t\treturn valuations[valuationInd...\n      DUP3 \t\t\treturn valuations[valuationInd...\n      ADD \t\t\treturn valuations[valuationInd...\n      DUP1 \t\t\treturn valuations[valuationInd...\n      SLOAD \t\t\treturn valuations[valuationInd...\n      PUSH [tag] 81\t\t\treturn valuations[valuationInd...\n      SWAP1 \t\t\treturn valuations[valuationInd...\n      PUSH [tag] 42\t\t\treturn valuations[valuationInd...\n      JUMP \t\t\treturn valuations[valuationInd...\n    tag 81\t\t\treturn valuations[valuationInd...\n      JUMPDEST \t\t\treturn valuations[valuationInd...\n      DUP1 \t\t\treturn valuations[valuationInd...\n      PUSH 1F\t\t\treturn valuations[valuationInd...\n      ADD \t\t\treturn valuations[valuationInd...\n      PUSH 20\t\t\treturn valuations[valuationInd...\n      DUP1 \t\t\treturn valuations[valuationInd...\n      SWAP2 \t\t\treturn valuations[valuationInd...\n      DIV \t\t\treturn valuations[valuationInd...\n      MUL \t\t\treturn valuations[valuationInd...\n      PUSH 20\t\t\treturn valuations[valuationInd...\n      ADD \t\t\treturn valuations[valuationInd...\n      PUSH 40\t\t\treturn valuations[valuationInd...\n      MLOAD \t\t\treturn valuations[valuationInd...\n      SWAP1 \t\t\treturn valuations[valuationInd...\n      DUP2 \t\t\treturn valuations[valuationInd...\n      ADD \t\t\treturn valuations[valuationInd...\n      PUSH 40\t\t\treturn valuations[valuationInd...\n      MSTORE \t\t\treturn valuations[valuationInd...\n      DUP1 \t\t\treturn valuations[valuationInd...\n      SWAP3 \t\t\treturn valuations[valuationInd...\n      SWAP2 \t\t\treturn valuations[valuationInd...\n      SWAP1 \t\t\treturn valuations[valuationInd...\n      DUP2 \t\t\treturn valuations[valuationInd...\n      DUP2 \t\t\treturn valuations[valuationInd...\n      MSTORE \t\t\treturn valuations[valuationInd...\n      PUSH 20\t\t\treturn valuations[valuationInd...\n      ADD \t\t\treturn valuations[valuationInd...\n      DUP3 \t\t\treturn valuations[valuationInd...\n      DUP1 \t\t\treturn valuations[valuationInd...\n      SLOAD \t\t\treturn valuations[valuationInd...\n      PUSH [tag] 82\t\t\treturn valuations[valuationInd...\n      SWAP1 \t\t\treturn valuations[valuationInd...\n      PUSH [tag] 42\t\t\treturn valuations[valuationInd...\n      JUMP \t\t\treturn valuations[valuationInd...\n    tag 82\t\t\treturn valuations[valuationInd...\n      JUMPDEST \t\t\treturn valuations[valuationInd...\n      DUP1 \t\t\treturn valuations[valuationInd...\n      ISZERO \t\t\treturn valuations[valuationInd...\n      PUSH [tag] 83\t\t\treturn valuations[valuationInd...\n      JUMPI \t\t\treturn valuations[valuationInd...\n      DUP1 \t\t\treturn valuations[valuationInd...\n      PUSH 1F\t\t\treturn valuations[valuationInd...\n      LT \t\t\treturn valuations[valuationInd...\n      PUSH [tag] 84\t\t\treturn valuations[valuationInd...\n      JUMPI \t\t\treturn valuations[valuationInd...\n      PUSH 100\t\t\treturn valuations[valuationInd...\n      DUP1 \t\t\treturn valuations[valuationInd...\n      DUP4 \t\t\treturn valuations[valuationInd...\n      SLOAD \t\t\treturn valuations[valuationInd...\n      DIV \t\t\treturn valuations[valuationInd...\n      MUL \t\t\treturn valuations[valuationInd...\n      DUP4 \t\t\treturn valuations[valuationInd...\n      MSTORE \t\t\treturn valuations[valuationInd...\n      SWAP2 \t\t\treturn valuations[valuationInd...\n      PUSH 20\t\t\treturn valuations[valuationInd...\n      ADD \t\t\treturn valuations[valuationInd...\n      SWAP2 \t\t\treturn valuations[valuationInd...\n      PUSH [tag] 83\t\t\treturn valuations[valuationInd...\n      JUMP \t\t\treturn valuations[valuationInd...\n    tag 84\t\t\treturn valuations[valuationInd...\n      JUMPDEST \t\t\treturn valuations[valuationInd...\n      DUP3 \t\t\treturn valuations[valuationInd...\n      ADD \t\t\treturn valuations[valuationInd...\n      SWAP2 \t\t\treturn valuations[valuationInd...\n      SWAP1 \t\t\treturn valuations[valuationInd...\n      PUSH 0\t\t\treturn valuations[valuationInd...\n      MSTORE \t\t\treturn valuations[valuationInd...\n      PUSH 20\t\t\treturn valuations[valuationInd...\n      PUSH 0\t\t\treturn valuations[valuationInd...\n      KECCAK256 \t\t\treturn valuations[valuationInd...\n      SWAP1 \t\t\treturn valuations[valuationInd...\n    tag 85\t\t\treturn valuations[valuationInd...\n      JUMPDEST \t\t\treturn valuations[valuationInd...\n      DUP2 \t\t\treturn valuations[valuationInd...\n      SLOAD \t\t\treturn valuations[valuationInd...\n      DUP2 \t\t\treturn valuations[valuationInd...\n      MSTORE \t\t\treturn valuations[valuationInd...\n      SWAP1 \t\t\treturn valuations[valuationInd...\n      PUSH 1\t\t\treturn valuations[valuationInd...\n      ADD \t\t\treturn valuations[valuationInd...\n      SWAP1 \t\t\treturn valuations[valuationInd...\n      PUSH 20\t\t\treturn valuations[valuationInd...\n      ADD \t\t\treturn valuations[valuationInd...\n      DUP1 \t\t\treturn valuations[valuationInd...\n      DUP4 \t\t\treturn valuations[valuationInd...\n      GT \t\t\treturn valuations[valuationInd...\n      PUSH [tag] 85\t\t\treturn valuations[valuationInd...\n      JUMPI \t\t\treturn valuations[valuationInd...\n      DUP3 \t\t\treturn valuations[valuationInd...\n      SWAP1 \t\t\treturn valuations[valuationInd...\n      SUB \t\t\treturn valuations[valuationInd...\n      PUSH 1F\t\t\treturn valuations[valuationInd...\n      AND \t\t\treturn valuations[valuationInd...\n      DUP3 \t\t\treturn valuations[valuationInd...\n      ADD \t\t\treturn valuations[valuationInd...\n      SWAP2 \t\t\treturn valuations[valuationInd...\n    tag 83\t\t\treturn valuations[valuationInd...\n      JUMPDEST \t\t\treturn valuations[valuationInd...\n      POP \t\t\treturn valuations[valuationInd...\n      POP \t\t\treturn valuations[valuationInd...\n      POP \t\t\treturn valuations[valuationInd...\n      POP \t\t\treturn valuations[valuationInd...\n      POP \t\t\treturn valuations[valuationInd...\n      DUP2 \t\t\treturn valuations[valuationInd...\n      MSTORE \t\t\treturn valuations[valuationInd...\n      PUSH 20\t\t\treturn valuations[valuationInd...\n      ADD \t\t\treturn valuations[valuationInd...\n      PUSH 2\t\t\treturn valuations[valuationInd...\n      DUP3 \t\t\treturn valuations[valuationInd...\n      ADD \t\t\treturn valuations[valuationInd...\n      SLOAD \t\t\treturn valuations[valuationInd...\n      DUP2 \t\t\treturn valuations[valuationInd...\n      MSTORE \t\t\treturn valuations[valuationInd...\n      POP \t\t\treturn valuations[valuationInd...\n      POP \t\t\treturn valuations[valuationInd...\n      SWAP1 \t\t\treturn valuations[valuationInd...\n      POP \t\t\treturn valuations[valuationInd...\n      SWAP2 \t\t\tfunction getValuationById(uint...\n      SWAP1 \t\t\tfunction getValuationById(uint...\n      POP \t\t\tfunction getValuationById(uint...\n      JUMP \t\t\tfunction getValuationById(uint...\n    tag 67\t\t\t\n      JUMPDEST \t\t\t\n      PUSH 40\t\t\t\n      MLOAD \t\t\t\n      DUP1 \t\t\t\n      PUSH 60\t\t\t\n      ADD \t\t\t\n      PUSH 40\t\t\t\n      MSTORE \t\t\t\n      DUP1 \t\t\t\n      PUSH 60\t\t\t\n      DUP2 \t\t\t\n      MSTORE \t\t\t\n      PUSH 20\t\t\t\n      ADD \t\t\t\n      PUSH 60\t\t\t\n      DUP2 \t\t\t\n      MSTORE \t\t\t\n      PUSH 20\t\t\t\n      ADD \t\t\t\n      PUSH 0\t\t\t\n      DUP2 \t\t\t\n      MSTORE \t\t\t\n      POP \t\t\t\n      SWAP1 \t\t\t\n      JUMP \t\t\t\n    tag 86\t\t\t-License-Identifier: MIT\\r\\npr...\n      JUMPDEST \t\t\t-License-Identifier: MIT\\r\\npr...\n      PUSH 0\t\t\tsolidi\n      PUSH 40\t\t\tra\n      MLOAD \t\t\tt HederaV\n      SWAP1 \t\t\t\\n\\r\\ncontract HederaV\n      POP \t\t\t\\n\\r\\ncontract HederaV\n      SWAP1 \t\t\t-License-Identifier: MIT\\r\\npr...\n      JUMP \t\t\t-License-Identifier: MIT\\r\\npr...\n    tag 87\t\t\tract {\\r\\n    struct Valuation...\n      JUMPDEST \t\t\tract {\\r\\n    struct Valuation...\n      PUSH 0\t\t\ts\n      DUP1 \t\t\tm\n      REVERT \t\t\t256 submissi\n    tag 88\t\t\t  }\\r\\n\\r\\n    Valuation[] pub...\n      JUMPDEST \t\t\t  }\\r\\n\\r\\n    Valuation[] pub...\n      PUSH 0\t\t\tt\n      DUP1 \t\t\tl\n      REVERT \t\t\texed valuati\n    tag 89\t\t\t      string prj_id,\\r\\n      ...\n      JUMPDEST \t\t\t      string prj_id,\\r\\n      ...\n      PUSH 0\t\t\ts\n      DUP1 \t\t\to\n      REVERT \t\t\t function su\n    tag 90\t\t\tnHash(\\r\\n        string memor...\n      JUMPDEST \t\t\tnHash(\\r\\n        string memor...\n      PUSH 0\t\t\ty\n      DUP1 \t\t\te\n      REVERT \t\t\t require(byt\n    tag 91\t\t\tength > 0, \"Project ID is requ...\n      JUMPDEST \t\t\tength > 0, \"Project ID is requ...\n      PUSH 0\t\t\t      \n      PUSH 1F\t\t\tio\n      NOT \t\t\tluation\n      PUSH 1F\t\t\t, \n      DUP4 \t\t\th == \n      ADD \t\t\tength == 32, \"\n      AND \t\t\tsh.length == 32, \"Valuation \n      SWAP1 \t\t\tluation_hash.length == 32, \"Va...\n      POP \t\t\tluation_hash.length == 32, \"Va...\n      SWAP2 \t\t\tength > 0, \"Project ID is requ...\n      SWAP1 \t\t\tength > 0, \"Project ID is requ...\n      POP \t\t\tength > 0, \"Project ID is requ...\n      JUMP \t\t\tength > 0, \"Project ID is requ...\n    tag 92\t\t\t 32 bytes.\");\\r\\n\\r\\n        u...\n      JUMPDEST \t\t\t 32 bytes.\");\\r\\n\\r\\n        u...\n      PUSH 4E487B7100000000000000000000000000000000000000000000000000000000\t\t\t= valuations.length;\\r\\n\\r\\n  ...\n      PUSH 0\t\t\te\n      MSTORE \t\t\ttionIndex = valuations.length;...\n      PUSH 41\t\t\t: pr\n      PUSH 4\t\t\t_\n      MSTORE \t\t\t    prj_id: prj\n      PUSH 24\t\t\t   v\n      PUSH 0\t\t\t \n      REVERT \t\t\t             va\n    tag 93\t\t\t: valuation_hash,\\r\\n         ...\n      JUMPDEST \t\t\t: valuation_hash,\\r\\n         ...\n      PUSH [tag] 159\t\t\t\\r\\n        );\\r\\n\\r\\n        ...\n      DUP3 \t\t\t  em\n      PUSH [tag] 91\t\t\t\\r\\n        );\\r\\n\\r\\n        ...\n      JUMP \t\t\t\\r\\n        );\\r\\n\\r\\n        ...\n    tag 159\t\t\t\\r\\n        );\\r\\n\\r\\n        ...\n      JUMPDEST \t\t\t\\r\\n        );\\r\\n\\r\\n        ...\n      DUP2 \t\t\t      \n      ADD \t\t\t          })\\r\\n        );\\r\\n...\n      DUP2 \t\t\t,\\r\\n   \n      DUP2 \t\t\tluation_ha\n      LT \t\t\t valuation_hash,\\r\\n    \n      PUSH FFFFFFFFFFFFFFFF\t\t\t prj_id,\\r\\n        \n      DUP3 \t\t\t\\n         \n      GT \t\t\tx,\\r\\n            prj_id,\\r\\n ...\n      OR \t\t\tndex,\\r\\n            prj_id,\\r...\n      ISZERO \t\t\tonIndex,\\r\\n            prj_id...\n      PUSH [tag] 160\t\t\tonIndex,\\r\\n            prj_id...\n      JUMPI \t\t\tonIndex,\\r\\n            prj_id...\n      PUSH [tag] 161\t\t\t    block.timestam\n      PUSH [tag] 92\t\t\t    block.timestam\n      JUMP \t\t\t    block.timestam\n    tag 161\t\t\t    block.timestam\n      JUMPDEST \t\t\t    block.timestam\n    tag 160\t\t\tonIndex,\\r\\n            prj_id...\n      JUMPDEST \t\t\tonIndex,\\r\\n            prj_id...\n      DUP1 \t\t\t\\r\\n    func\n      PUSH 40\t\t\t }\n      MSTORE \t\t\t);\\r\\n    }\\r\\n\\r\\n    funct\n      POP \t\t\ton_time: block.timestamp\\r\\n  ...\n      POP \t\t\t: valuation_hash,\\r\\n         ...\n      POP \t\t\t: valuation_hash,\\r\\n         ...\n      JUMP \t\t\t: valuation_hash,\\r\\n         ...\n    tag 94\t\t\ttions() public view returns (V...\n      JUMPDEST \t\t\ttions() public view returns (V...\n      PUSH 0\t\t\ttion[]\n      PUSH [tag] 163\t\t\teturn valuations;\\r\\n \n      PUSH [tag] 86\t\t\teturn valuations;\\r\\n \n      JUMP \t\t\teturn valuations;\\r\\n \n    tag 163\t\t\teturn valuations;\\r\\n \n      JUMPDEST \t\t\teturn valuations;\\r\\n \n      SWAP1 \t\t\t\\n        return valuations;\\r...\n      POP \t\t\t\\n        return valuations;\\r...\n      PUSH [tag] 164\t\t\t   function getValuationById(u...\n      DUP3 \t\t\t(uin\n      DUP3 \t\t\ttionBy\n      PUSH [tag] 93\t\t\t   function getValuationById(u...\n      JUMP \t\t\t   function getValuationById(u...\n    tag 164\t\t\t   function getValuationById(u...\n      JUMPDEST \t\t\t   function getValuationById(u...\n      SWAP2 \t\t\ttions() public view returns (V...\n      SWAP1 \t\t\ttions() public view returns (V...\n      POP \t\t\ttions() public view returns (V...\n      JUMP \t\t\ttions() public view returns (V...\n    tag 95\t\t\tnIndex) public view returns (V...\n      JUMPDEST \t\t\tnIndex) public view returns (V...\n      PUSH 0\t\t\tire(\n      PUSH FFFFFFFFFFFFFFFF\t\t\tations[valuationIn\n      DUP3 \t\t\turn va\n      GT \t\t\treturn valuations[valuationInd\n      ISZERO \t\t\t   return valuations[valuation...\n      PUSH [tag] 166\t\t\t   return valuations[valuation...\n      JUMPI \t\t\t   return valuations[valuation...\n      PUSH [tag] 167\t\t\t;\\r\\n    }\\r\\n}\\r\\n\n      PUSH [tag] 92\t\t\t;\\r\\n    }\\r\\n}\\r\\n\n      JUMP \t\t\t;\\r\\n    }\\r\\n}\\r\\n\n    tag 167\t\t\t;\\r\\n    }\\r\\n}\\r\\n\n      JUMPDEST \t\t\t;\\r\\n    }\\r\\n}\\r\\n\n    tag 166\t\t\t   return valuations[valuation...\n      JUMPDEST \t\t\t   return valuations[valuation...\n      PUSH [tag] 168\t\t\t\n      DUP3 \t\t\t\n      PUSH [tag] 91\t\t\t\n      JUMP \t\t\t\n    tag 168\t\t\t\n      JUMPDEST \t\t\t\n      SWAP1 \t\t\t\n      POP \t\t\t\n      PUSH 20\t\t\t\n      DUP2 \t\t\t\n      ADD \t\t\t\n      SWAP1 \t\t\t\n      POP \t\t\t\n      SWAP2 \t\t\tnIndex) public view returns (V...\n      SWAP1 \t\t\tnIndex) public view returns (V...\n      POP \t\t\tnIndex) public view returns (V...\n      JUMP \t\t\tnIndex) public view returns (V...\n    tag 96\t\t\t\n      JUMPDEST \t\t\t\n      DUP3 \t\t\t\n      DUP2 \t\t\t\n      DUP4 \t\t\t\n      CALLDATACOPY \t\t\t\n      PUSH 0\t\t\t\n      DUP4 \t\t\t\n      DUP4 \t\t\t\n      ADD \t\t\t\n      MSTORE \t\t\t\n      POP \t\t\t\n      POP \t\t\t\n      POP \t\t\t\n      JUMP \t\t\t\n    tag 97\t\t\t\n      JUMPDEST \t\t\t\n      PUSH 0\t\t\t\n      PUSH [tag] 171\t\t\t\n      PUSH [tag] 172\t\t\t\n      DUP5 \t\t\t\n      PUSH [tag] 95\t\t\t\n      JUMP \t\t\t\n    tag 172\t\t\t\n      JUMPDEST \t\t\t\n      PUSH [tag] 94\t\t\t\n      JUMP \t\t\t\n    tag 171\t\t\t\n      JUMPDEST \t\t\t\n      SWAP1 \t\t\t\n      POP \t\t\t\n      DUP3 \t\t\t\n      DUP2 \t\t\t\n      MSTORE \t\t\t\n      PUSH 20\t\t\t\n      DUP2 \t\t\t\n      ADD \t\t\t\n      DUP5 \t\t\t\n      DUP5 \t\t\t\n      DUP5 \t\t\t\n      ADD \t\t\t\n      GT \t\t\t\n      ISZERO \t\t\t\n      PUSH [tag] 173\t\t\t\n      JUMPI \t\t\t\n      PUSH [tag] 174\t\t\t\n      PUSH [tag] 90\t\t\t\n      JUMP \t\t\t\n    tag 174\t\t\t\n      JUMPDEST \t\t\t\n    tag 173\t\t\t\n      JUMPDEST \t\t\t\n      PUSH [tag] 175\t\t\t\n      DUP5 \t\t\t\n      DUP3 \t\t\t\n      DUP6 \t\t\t\n      PUSH [tag] 96\t\t\t\n      JUMP \t\t\t\n    tag 175\t\t\t\n      JUMPDEST \t\t\t\n      POP \t\t\t\n      SWAP4 \t\t\t\n      SWAP3 \t\t\t\n      POP \t\t\t\n      POP \t\t\t\n      POP \t\t\t\n      JUMP \t\t\t\n    tag 98\t\t\t\n      JUMPDEST \t\t\t\n      PUSH 0\t\t\t\n      DUP3 \t\t\t\n      PUSH 1F\t\t\t\n      DUP4 \t\t\t\n      ADD \t\t\t\n      SLT \t\t\t\n      PUSH [tag] 177\t\t\t\n      JUMPI \t\t\t\n      PUSH [tag] 178\t\t\t\n      PUSH [tag] 89\t\t\t\n      JUMP \t\t\t\n    tag 178\t\t\t\n      JUMPDEST \t\t\t\n    tag 177\t\t\t\n      JUMPDEST \t\t\t\n      DUP2 \t\t\t\n      CALLDATALOAD \t\t\t\n      PUSH [tag] 179\t\t\t\n      DUP5 \t\t\t\n      DUP3 \t\t\t\n      PUSH 20\t\t\t\n      DUP7 \t\t\t\n      ADD \t\t\t\n      PUSH [tag] 97\t\t\t\n      JUMP \t\t\t\n    tag 179\t\t\t\n      JUMPDEST \t\t\t\n      SWAP2 \t\t\t\n      POP \t\t\t\n      POP \t\t\t\n      SWAP3 \t\t\t\n      SWAP2 \t\t\t\n      POP \t\t\t\n      POP \t\t\t\n      JUMP \t\t\t\n    tag 99\t\t\t\n      JUMPDEST \t\t\t\n      PUSH 0\t\t\t\n      PUSH FFFFFFFFFFFFFFFF\t\t\t\n      DUP3 \t\t\t\n      GT \t\t\t\n      ISZERO \t\t\t\n      PUSH [tag] 181\t\t\t\n      JUMPI \t\t\t\n      PUSH [tag] 182\t\t\t\n      PUSH [tag] 92\t\t\t\n      JUMP \t\t\t\n    tag 182\t\t\t\n      JUMPDEST \t\t\t\n    tag 181\t\t\t\n      JUMPDEST \t\t\t\n      PUSH [tag] 183\t\t\t\n      DUP3 \t\t\t\n      PUSH [tag] 91\t\t\t\n      JUMP \t\t\t\n    tag 183\t\t\t\n      JUMPDEST \t\t\t\n      SWAP1 \t\t\t\n      POP \t\t\t\n      PUSH 20\t\t\t\n      DUP2 \t\t\t\n      ADD \t\t\t\n      SWAP1 \t\t\t\n      POP \t\t\t\n      SWAP2 \t\t\t\n      SWAP1 \t\t\t\n      POP \t\t\t\n      JUMP \t\t\t\n    tag 100\t\t\t\n      JUMPDEST \t\t\t\n      PUSH 0\t\t\t\n      PUSH [tag] 185\t\t\t\n      PUSH [tag] 186\t\t\t\n      DUP5 \t\t\t\n      PUSH [tag] 99\t\t\t\n      JUMP \t\t\t\n    tag 186\t\t\t\n      JUMPDEST \t\t\t\n      PUSH [tag] 94\t\t\t\n      JUMP \t\t\t\n    tag 185\t\t\t\n      JUMPDEST \t\t\t\n      SWAP1 \t\t\t\n      POP \t\t\t\n      DUP3 \t\t\t\n      DUP2 \t\t\t\n      MSTORE \t\t\t\n      PUSH 20\t\t\t\n      DUP2 \t\t\t\n      ADD \t\t\t\n      DUP5 \t\t\t\n      DUP5 \t\t\t\n      DUP5 \t\t\t\n      ADD \t\t\t\n      GT \t\t\t\n      ISZERO \t\t\t\n      PUSH [tag] 187\t\t\t\n      JUMPI \t\t\t\n      PUSH [tag] 188\t\t\t\n      PUSH [tag] 90\t\t\t\n      JUMP \t\t\t\n    tag 188\t\t\t\n      JUMPDEST \t\t\t\n    tag 187\t\t\t\n      JUMPDEST \t\t\t\n      PUSH [tag] 189\t\t\t\n      DUP5 \t\t\t\n      DUP3 \t\t\t\n      DUP6 \t\t\t\n      PUSH [tag] 96\t\t\t\n      JUMP \t\t\t\n    tag 189\t\t\t\n      JUMPDEST \t\t\t\n      POP \t\t\t\n      SWAP4 \t\t\t\n      SWAP3 \t\t\t\n      POP \t\t\t\n      POP \t\t\t\n      POP \t\t\t\n      JUMP \t\t\t\n    tag 101\t\t\t\n      JUMPDEST \t\t\t\n      PUSH 0\t\t\t\n      DUP3 \t\t\t\n      PUSH 1F\t\t\t\n      DUP4 \t\t\t\n      ADD \t\t\t\n      SLT \t\t\t\n      PUSH [tag] 191\t\t\t\n      JUMPI \t\t\t\n      PUSH [tag] 192\t\t\t\n      PUSH [tag] 89\t\t\t\n      JUMP \t\t\t\n    tag 192\t\t\t\n      JUMPDEST \t\t\t\n    tag 191\t\t\t\n      JUMPDEST \t\t\t\n      DUP2 \t\t\t\n      CALLDATALOAD \t\t\t\n      PUSH [tag] 193\t\t\t\n      DUP5 \t\t\t\n      DUP3 \t\t\t\n      PUSH 20\t\t\t\n      DUP7 \t\t\t\n      ADD \t\t\t\n      PUSH [tag] 100\t\t\t\n      JUMP \t\t\t\n    tag 193\t\t\t\n      JUMPDEST \t\t\t\n      SWAP2 \t\t\t\n      POP \t\t\t\n      POP \t\t\t\n      SWAP3 \t\t\t\n      SWAP2 \t\t\t\n      POP \t\t\t\n      POP \t\t\t\n      JUMP \t\t\t\n    tag 9\t\t\t\n      JUMPDEST \t\t\t\n      PUSH 0\t\t\t\n      DUP1 \t\t\t\n      PUSH 40\t\t\t\n      DUP4 \t\t\t\n      DUP6 \t\t\t\n      SUB \t\t\t\n      SLT \t\t\t\n      ISZERO \t\t\t\n      PUSH [tag] 195\t\t\t\n      JUMPI \t\t\t\n      PUSH [tag] 196\t\t\t\n      PUSH [tag] 87\t\t\t\n      JUMP \t\t\t\n    tag 196\t\t\t\n      JUMPDEST \t\t\t\n    tag 195\t\t\t\n      JUMPDEST \t\t\t\n      PUSH 0\t\t\t\n      DUP4 \t\t\t\n      ADD \t\t\t\n      CALLDATALOAD \t\t\t\n      PUSH FFFFFFFFFFFFFFFF\t\t\t\n      DUP2 \t\t\t\n      GT \t\t\t\n      ISZERO \t\t\t\n      PUSH [tag] 197\t\t\t\n      JUMPI \t\t\t\n      PUSH [tag] 198\t\t\t\n      PUSH [tag] 88\t\t\t\n      JUMP \t\t\t\n    tag 198\t\t\t\n      JUMPDEST \t\t\t\n    tag 197\t\t\t\n      JUMPDEST \t\t\t\n      PUSH [tag] 199\t\t\t\n      DUP6 \t\t\t\n      DUP3 \t\t\t\n      DUP7 \t\t\t\n      ADD \t\t\t\n      PUSH [tag] 98\t\t\t\n      JUMP \t\t\t\n    tag 199\t\t\t\n      JUMPDEST \t\t\t\n      SWAP3 \t\t\t\n      POP \t\t\t\n      POP \t\t\t\n      PUSH 20\t\t\t\n      DUP4 \t\t\t\n      ADD \t\t\t\n      CALLDATALOAD \t\t\t\n      PUSH FFFFFFFFFFFFFFFF\t\t\t\n      DUP2 \t\t\t\n      GT \t\t\t\n      ISZERO \t\t\t\n      PUSH [tag] 200\t\t\t\n      JUMPI \t\t\t\n      PUSH [tag] 201\t\t\t\n      PUSH [tag] 88\t\t\t\n      JUMP \t\t\t\n    tag 201\t\t\t\n      JUMPDEST \t\t\t\n    tag 200\t\t\t\n      JUMPDEST \t\t\t\n      PUSH [tag] 202\t\t\t\n      DUP6 \t\t\t\n      DUP3 \t\t\t\n      DUP7 \t\t\t\n      ADD \t\t\t\n      PUSH [tag] 101\t\t\t\n      JUMP \t\t\t\n    tag 202\t\t\t\n      JUMPDEST \t\t\t\n      SWAP2 \t\t\t\n      POP \t\t\t\n      POP \t\t\t\n      SWAP3 \t\t\t\n      POP \t\t\t\n      SWAP3 \t\t\t\n      SWAP1 \t\t\t\n      POP \t\t\t\n      JUMP \t\t\t\n    tag 102\t\t\t\n      JUMPDEST \t\t\t\n      PUSH 0\t\t\t\n      DUP2 \t\t\t\n      SWAP1 \t\t\t\n      POP \t\t\t\n      SWAP2 \t\t\t\n      SWAP1 \t\t\t\n      POP \t\t\t\n      JUMP \t\t\t\n    tag 103\t\t\t\n      JUMPDEST \t\t\t\n      PUSH [tag] 205\t\t\t\n      DUP2 \t\t\t\n      PUSH [tag] 102\t\t\t\n      JUMP \t\t\t\n    tag 205\t\t\t\n      JUMPDEST \t\t\t\n      DUP2 \t\t\t\n      EQ \t\t\t\n      PUSH [tag] 206\t\t\t\n      JUMPI \t\t\t\n      PUSH 0\t\t\t\n      DUP1 \t\t\t\n      REVERT \t\t\t\n    tag 206\t\t\t\n      JUMPDEST \t\t\t\n      POP \t\t\t\n      JUMP \t\t\t\n    tag 104\t\t\t\n      JUMPDEST \t\t\t\n      PUSH 0\t\t\t\n      DUP2 \t\t\t\n      CALLDATALOAD \t\t\t\n      SWAP1 \t\t\t\n      POP \t\t\t\n      PUSH [tag] 208\t\t\t\n      DUP2 \t\t\t\n      PUSH [tag] 103\t\t\t\n      JUMP \t\t\t\n    tag 208\t\t\t\n      JUMPDEST \t\t\t\n      SWAP3 \t\t\t\n      SWAP2 \t\t\t\n      POP \t\t\t\n      POP \t\t\t\n      JUMP \t\t\t\n    tag 13\t\t\t\n      JUMPDEST \t\t\t\n      PUSH 0\t\t\t\n      PUSH 20\t\t\t\n      DUP3 \t\t\t\n      DUP5 \t\t\t\n      SUB \t\t\t\n      SLT \t\t\t\n      ISZERO \t\t\t\n      PUSH [tag] 210\t\t\t\n      JUMPI \t\t\t\n      PUSH [tag] 211\t\t\t\n      PUSH [tag] 87\t\t\t\n      JUMP \t\t\t\n    tag 211\t\t\t\n      JUMPDEST \t\t\t\n    tag 210\t\t\t\n      JUMPDEST \t\t\t\n      PUSH 0\t\t\t\n      PUSH [tag] 212\t\t\t\n      DUP5 \t\t\t\n      DUP3 \t\t\t\n      DUP6 \t\t\t\n      ADD \t\t\t\n      PUSH [tag] 104\t\t\t\n      JUMP \t\t\t\n    tag 212\t\t\t\n      JUMPDEST \t\t\t\n      SWAP2 \t\t\t\n      POP \t\t\t\n      POP \t\t\t\n      SWAP3 \t\t\t\n      SWAP2 \t\t\t\n      POP \t\t\t\n      POP \t\t\t\n      JUMP \t\t\t\n    tag 105\t\t\t\n      JUMPDEST \t\t\t\n      PUSH 0\t\t\t\n      DUP2 \t\t\t\n      MLOAD \t\t\t\n      SWAP1 \t\t\t\n      POP \t\t\t\n      SWAP2 \t\t\t\n      SWAP1 \t\t\t\n      POP \t\t\t\n      JUMP \t\t\t\n    tag 106\t\t\t\n      JUMPDEST \t\t\t\n      PUSH 0\t\t\t\n      DUP3 \t\t\t\n      DUP3 \t\t\t\n      MSTORE \t\t\t\n      PUSH 20\t\t\t\n      DUP3 \t\t\t\n      ADD \t\t\t\n      SWAP1 \t\t\t\n      POP \t\t\t\n      SWAP3 \t\t\t\n      SWAP2 \t\t\t\n      POP \t\t\t\n      POP \t\t\t\n      JUMP \t\t\t\n    tag 107\t\t\t\n      JUMPDEST \t\t\t\n      DUP3 \t\t\t\n      DUP2 \t\t\t\n      DUP4 \t\t\t\n      MCOPY \t\t\t\n      PUSH 0\t\t\t\n      DUP4 \t\t\t\n      DUP4 \t\t\t\n      ADD \t\t\t\n      MSTORE \t\t\t\n      POP \t\t\t\n      POP \t\t\t\n      POP \t\t\t\n      JUMP \t\t\t\n    tag 108\t\t\t\n      JUMPDEST \t\t\t\n      PUSH 0\t\t\t\n      PUSH [tag] 217\t\t\t\n      DUP3 \t\t\t\n      PUSH [tag] 105\t\t\t\n      JUMP \t\t\t\n    tag 217\t\t\t\n      JUMPDEST \t\t\t\n      PUSH [tag] 218\t\t\t\n      DUP2 \t\t\t\n      DUP6 \t\t\t\n      PUSH [tag] 106\t\t\t\n      JUMP \t\t\t\n    tag 218\t\t\t\n      JUMPDEST \t\t\t\n      SWAP4 \t\t\t\n      POP \t\t\t\n      PUSH [tag] 219\t\t\t\n      DUP2 \t\t\t\n      DUP6 \t\t\t\n      PUSH 20\t\t\t\n      DUP7 \t\t\t\n      ADD \t\t\t\n      PUSH [tag] 107\t\t\t\n      JUMP \t\t\t\n    tag 219\t\t\t\n      JUMPDEST \t\t\t\n      PUSH [tag] 220\t\t\t\n      DUP2 \t\t\t\n      PUSH [tag] 91\t\t\t\n      JUMP \t\t\t\n    tag 220\t\t\t\n      JUMPDEST \t\t\t\n      DUP5 \t\t\t\n      ADD \t\t\t\n      SWAP2 \t\t\t\n      POP \t\t\t\n      POP \t\t\t\n      SWAP3 \t\t\t\n      SWAP2 \t\t\t\n      POP \t\t\t\n      POP \t\t\t\n      JUMP \t\t\t\n    tag 109\t\t\t\n      JUMPDEST \t\t\t\n      PUSH 0\t\t\t\n      DUP2 \t\t\t\n      MLOAD \t\t\t\n      SWAP1 \t\t\t\n      POP \t\t\t\n      SWAP2 \t\t\t\n      SWAP1 \t\t\t\n      POP \t\t\t\n      JUMP \t\t\t\n    tag 110\t\t\t\n      JUMPDEST \t\t\t\n      PUSH 0\t\t\t\n      DUP3 \t\t\t\n      DUP3 \t\t\t\n      MSTORE \t\t\t\n      PUSH 20\t\t\t\n      DUP3 \t\t\t\n      ADD \t\t\t\n      SWAP1 \t\t\t\n      POP \t\t\t\n      SWAP3 \t\t\t\n      SWAP2 \t\t\t\n      POP \t\t\t\n      POP \t\t\t\n      JUMP \t\t\t\n    tag 111\t\t\t\n      JUMPDEST \t\t\t\n      PUSH 0\t\t\t\n      PUSH [tag] 224\t\t\t\n      DUP3 \t\t\t\n      PUSH [tag] 109\t\t\t\n      JUMP \t\t\t\n    tag 224\t\t\t\n      JUMPDEST \t\t\t\n      PUSH [tag] 225\t\t\t\n      DUP2 \t\t\t\n      DUP6 \t\t\t\n      PUSH [tag] 110\t\t\t\n      JUMP \t\t\t\n    tag 225\t\t\t\n      JUMPDEST \t\t\t\n      SWAP4 \t\t\t\n      POP \t\t\t\n      PUSH [tag] 226\t\t\t\n      DUP2 \t\t\t\n      DUP6 \t\t\t\n      PUSH 20\t\t\t\n      DUP7 \t\t\t\n      ADD \t\t\t\n      PUSH [tag] 107\t\t\t\n      JUMP \t\t\t\n    tag 226\t\t\t\n      JUMPDEST \t\t\t\n      PUSH [tag] 227\t\t\t\n      DUP2 \t\t\t\n      PUSH [tag] 91\t\t\t\n      JUMP \t\t\t\n    tag 227\t\t\t\n      JUMPDEST \t\t\t\n      DUP5 \t\t\t\n      ADD \t\t\t\n      SWAP2 \t\t\t\n      POP \t\t\t\n      POP \t\t\t\n      SWAP3 \t\t\t\n      SWAP2 \t\t\t\n      POP \t\t\t\n      POP \t\t\t\n      JUMP \t\t\t\n    tag 112\t\t\t\n      JUMPDEST \t\t\t\n      PUSH [tag] 229\t\t\t\n      DUP2 \t\t\t\n      PUSH [tag] 102\t\t\t\n      JUMP \t\t\t\n    tag 229\t\t\t\n      JUMPDEST \t\t\t\n      DUP3 \t\t\t\n      MSTORE \t\t\t\n      POP \t\t\t\n      POP \t\t\t\n      JUMP \t\t\t\n    tag 16\t\t\t\n      JUMPDEST \t\t\t\n      PUSH 0\t\t\t\n      PUSH 60\t\t\t\n      DUP3 \t\t\t\n      ADD \t\t\t\n      SWAP1 \t\t\t\n      POP \t\t\t\n      DUP2 \t\t\t\n      DUP2 \t\t\t\n      SUB \t\t\t\n      PUSH 0\t\t\t\n      DUP4 \t\t\t\n      ADD \t\t\t\n      MSTORE \t\t\t\n      PUSH [tag] 231\t\t\t\n      DUP2 \t\t\t\n      DUP7 \t\t\t\n      PUSH [tag] 108\t\t\t\n      JUMP \t\t\t\n    tag 231\t\t\t\n      JUMPDEST \t\t\t\n      SWAP1 \t\t\t\n      POP \t\t\t\n      DUP2 \t\t\t\n      DUP2 \t\t\t\n      SUB \t\t\t\n      PUSH 20\t\t\t\n      DUP4 \t\t\t\n      ADD \t\t\t\n      MSTORE \t\t\t\n      PUSH [tag] 232\t\t\t\n      DUP2 \t\t\t\n      DUP6 \t\t\t\n      PUSH [tag] 111\t\t\t\n      JUMP \t\t\t\n    tag 232\t\t\t\n      JUMPDEST \t\t\t\n      SWAP1 \t\t\t\n      POP \t\t\t\n      PUSH [tag] 233\t\t\t\n      PUSH 40\t\t\t\n      DUP4 \t\t\t\n      ADD \t\t\t\n      DUP5 \t\t\t\n      PUSH [tag] 112\t\t\t\n      JUMP \t\t\t\n    tag 233\t\t\t\n      JUMPDEST \t\t\t\n      SWAP5 \t\t\t\n      SWAP4 \t\t\t\n      POP \t\t\t\n      POP \t\t\t\n      POP \t\t\t\n      POP \t\t\t\n      JUMP \t\t\t\n    tag 113\t\t\t\n      JUMPDEST \t\t\t\n      PUSH 0\t\t\t\n      DUP2 \t\t\t\n      MLOAD \t\t\t\n      SWAP1 \t\t\t\n      POP \t\t\t\n      SWAP2 \t\t\t\n      SWAP1 \t\t\t\n      POP \t\t\t\n      JUMP \t\t\t\n    tag 114\t\t\t\n      JUMPDEST \t\t\t\n      PUSH 0\t\t\t\n      DUP3 \t\t\t\n      DUP3 \t\t\t\n      MSTORE \t\t\t\n      PUSH 20\t\t\t\n      DUP3 \t\t\t\n      ADD \t\t\t\n      SWAP1 \t\t\t\n      POP \t\t\t\n      SWAP3 \t\t\t\n      SWAP2 \t\t\t\n      POP \t\t\t\n      POP \t\t\t\n      JUMP \t\t\t\n    tag 115\t\t\t\n      JUMPDEST \t\t\t\n      PUSH 0\t\t\t\n      DUP2 \t\t\t\n      SWAP1 \t\t\t\n      POP \t\t\t\n      PUSH 20\t\t\t\n      DUP3 \t\t\t\n      ADD \t\t\t\n      SWAP1 \t\t\t\n      POP \t\t\t\n      SWAP2 \t\t\t\n      SWAP1 \t\t\t\n      POP \t\t\t\n      JUMP \t\t\t\n    tag 116\t\t\t\n      JUMPDEST \t\t\t\n      PUSH 0\t\t\t\n      DUP3 \t\t\t\n      DUP3 \t\t\t\n      MSTORE \t\t\t\n      PUSH 20\t\t\t\n      DUP3 \t\t\t\n      ADD \t\t\t\n      SWAP1 \t\t\t\n      POP \t\t\t\n      SWAP3 \t\t\t\n      SWAP2 \t\t\t\n      POP \t\t\t\n      POP \t\t\t\n      JUMP \t\t\t\n    tag 117\t\t\t\n      JUMPDEST \t\t\t\n      PUSH 0\t\t\t\n      PUSH [tag] 239\t\t\t\n      DUP3 \t\t\t\n      PUSH [tag] 105\t\t\t\n      JUMP \t\t\t\n    tag 239\t\t\t\n      JUMPDEST \t\t\t\n      PUSH [tag] 240\t\t\t\n      DUP2 \t\t\t\n      DUP6 \t\t\t\n      PUSH [tag] 116\t\t\t\n      JUMP \t\t\t\n    tag 240\t\t\t\n      JUMPDEST \t\t\t\n      SWAP4 \t\t\t\n      POP \t\t\t\n      PUSH [tag] 241\t\t\t\n      DUP2 \t\t\t\n      DUP6 \t\t\t\n      PUSH 20\t\t\t\n      DUP7 \t\t\t\n      ADD \t\t\t\n      PUSH [tag] 107\t\t\t\n      JUMP \t\t\t\n    tag 241\t\t\t\n      JUMPDEST \t\t\t\n      PUSH [tag] 242\t\t\t\n      DUP2 \t\t\t\n      PUSH [tag] 91\t\t\t\n      JUMP \t\t\t\n    tag 242\t\t\t\n      JUMPDEST \t\t\t\n      DUP5 \t\t\t\n      ADD \t\t\t\n      SWAP2 \t\t\t\n      POP \t\t\t\n      POP \t\t\t\n      SWAP3 \t\t\t\n      SWAP2 \t\t\t\n      POP \t\t\t\n      POP \t\t\t\n      JUMP \t\t\t\n    tag 118\t\t\t\n      JUMPDEST \t\t\t\n      PUSH 0\t\t\t\n      DUP3 \t\t\t\n      DUP3 \t\t\t\n      MSTORE \t\t\t\n      PUSH 20\t\t\t\n      DUP3 \t\t\t\n      ADD \t\t\t\n      SWAP1 \t\t\t\n      POP \t\t\t\n      SWAP3 \t\t\t\n      SWAP2 \t\t\t\n      POP \t\t\t\n      POP \t\t\t\n      JUMP \t\t\t\n    tag 119\t\t\t\n      JUMPDEST \t\t\t\n      PUSH 0\t\t\t\n      PUSH [tag] 245\t\t\t\n      DUP3 \t\t\t\n      PUSH [tag] 109\t\t\t\n      JUMP \t\t\t\n    tag 245\t\t\t\n      JUMPDEST \t\t\t\n      PUSH [tag] 246\t\t\t\n      DUP2 \t\t\t\n      DUP6 \t\t\t\n      PUSH [tag] 118\t\t\t\n      JUMP \t\t\t\n    tag 246\t\t\t\n      JUMPDEST \t\t\t\n      SWAP4 \t\t\t\n      POP \t\t\t\n      PUSH [tag] 247\t\t\t\n      DUP2 \t\t\t\n      DUP6 \t\t\t\n      PUSH 20\t\t\t\n      DUP7 \t\t\t\n      ADD \t\t\t\n      PUSH [tag] 107\t\t\t\n      JUMP \t\t\t\n    tag 247\t\t\t\n      JUMPDEST \t\t\t\n      PUSH [tag] 248\t\t\t\n      DUP2 \t\t\t\n      PUSH [tag] 91\t\t\t\n      JUMP \t\t\t\n    tag 248\t\t\t\n      JUMPDEST \t\t\t\n      DUP5 \t\t\t\n      ADD \t\t\t\n      SWAP2 \t\t\t\n      POP \t\t\t\n      POP \t\t\t\n      SWAP3 \t\t\t\n      SWAP2 \t\t\t\n      POP \t\t\t\n      POP \t\t\t\n      JUMP \t\t\t\n    tag 120\t\t\t\n      JUMPDEST \t\t\t\n      PUSH [tag] 250\t\t\t\n      DUP2 \t\t\t\n      PUSH [tag] 102\t\t\t\n      JUMP \t\t\t\n    tag 250\t\t\t\n      JUMPDEST \t\t\t\n      DUP3 \t\t\t\n      MSTORE \t\t\t\n      POP \t\t\t\n      POP \t\t\t\n      JUMP \t\t\t\n    tag 121\t\t\t\n      JUMPDEST \t\t\t\n      PUSH 0\t\t\t\n      PUSH 60\t\t\t\n      DUP4 \t\t\t\n      ADD \t\t\t\n      PUSH 0\t\t\t\n      DUP4 \t\t\t\n      ADD \t\t\t\n      MLOAD \t\t\t\n      DUP5 \t\t\t\n      DUP3 \t\t\t\n      SUB \t\t\t\n      PUSH 0\t\t\t\n      DUP7 \t\t\t\n      ADD \t\t\t\n      MSTORE \t\t\t\n      PUSH [tag] 252\t\t\t\n      DUP3 \t\t\t\n      DUP3 \t\t\t\n      PUSH [tag] 117\t\t\t\n      JUMP \t\t\t\n    tag 252\t\t\t\n      JUMPDEST \t\t\t\n      SWAP2 \t\t\t\n      POP \t\t\t\n      POP \t\t\t\n      PUSH 20\t\t\t\n      DUP4 \t\t\t\n      ADD \t\t\t\n      MLOAD \t\t\t\n      DUP5 \t\t\t\n      DUP3 \t\t\t\n      SUB \t\t\t\n      PUSH 20\t\t\t\n      DUP7 \t\t\t\n      ADD \t\t\t\n      MSTORE \t\t\t\n      PUSH [tag] 253\t\t\t\n      DUP3 \t\t\t\n      DUP3 \t\t\t\n      PUSH [tag] 119\t\t\t\n      JUMP \t\t\t\n    tag 253\t\t\t\n      JUMPDEST \t\t\t\n      SWAP2 \t\t\t\n      POP \t\t\t\n      POP \t\t\t\n      PUSH 40\t\t\t\n      DUP4 \t\t\t\n      ADD \t\t\t\n      MLOAD \t\t\t\n      PUSH [tag] 254\t\t\t\n      PUSH 40\t\t\t\n      DUP7 \t\t\t\n      ADD \t\t\t\n      DUP3 \t\t\t\n      PUSH [tag] 120\t\t\t\n      JUMP \t\t\t\n    tag 254\t\t\t\n      JUMPDEST \t\t\t\n      POP \t\t\t\n      DUP1 \t\t\t\n      SWAP2 \t\t\t\n      POP \t\t\t\n      POP \t\t\t\n      SWAP3 \t\t\t\n      SWAP2 \t\t\t\n      POP \t\t\t\n      POP \t\t\t\n      JUMP \t\t\t\n    tag 122\t\t\t\n      JUMPDEST \t\t\t\n      PUSH 0\t\t\t\n      PUSH [tag] 256\t\t\t\n      DUP4 \t\t\t\n      DUP4 \t\t\t\n      PUSH [tag] 121\t\t\t\n      JUMP \t\t\t\n    tag 256\t\t\t\n      JUMPDEST \t\t\t\n      SWAP1 \t\t\t\n      POP \t\t\t\n      SWAP3 \t\t\t\n      SWAP2 \t\t\t\n      POP \t\t\t\n      POP \t\t\t\n      JUMP \t\t\t\n    tag 123\t\t\t\n      JUMPDEST \t\t\t\n      PUSH 0\t\t\t\n      PUSH 20\t\t\t\n      DUP3 \t\t\t\n      ADD \t\t\t\n      SWAP1 \t\t\t\n      POP \t\t\t\n      SWAP2 \t\t\t\n      SWAP1 \t\t\t\n      POP \t\t\t\n      JUMP \t\t\t\n    tag 124\t\t\t\n      JUMPDEST \t\t\t\n      PUSH 0\t\t\t\n      PUSH [tag] 259\t\t\t\n      DUP3 \t\t\t\n      PUSH [tag] 113\t\t\t\n      JUMP \t\t\t\n    tag 259\t\t\t\n      JUMPDEST \t\t\t\n      PUSH [tag] 260\t\t\t\n      DUP2 \t\t\t\n      DUP6 \t\t\t\n      PUSH [tag] 114\t\t\t\n      JUMP \t\t\t\n    tag 260\t\t\t\n      JUMPDEST \t\t\t\n      SWAP4 \t\t\t\n      POP \t\t\t\n      DUP4 \t\t\t\n      PUSH 20\t\t\t\n      DUP3 \t\t\t\n      MUL \t\t\t\n      DUP6 \t\t\t\n      ADD \t\t\t\n      PUSH [tag] 261\t\t\t\n      DUP6 \t\t\t\n      PUSH [tag] 115\t\t\t\n      JUMP \t\t\t\n    tag 261\t\t\t\n      JUMPDEST \t\t\t\n      DUP1 \t\t\t\n      PUSH 0\t\t\t\n    tag 262\t\t\t\n      JUMPDEST \t\t\t\n      DUP6 \t\t\t\n      DUP2 \t\t\t\n      LT \t\t\t\n      ISZERO \t\t\t\n      PUSH [tag] 264\t\t\t\n      JUMPI \t\t\t\n      DUP5 \t\t\t\n      DUP5 \t\t\t\n      SUB \t\t\t\n      DUP10 \t\t\t\n      MSTORE \t\t\t\n      DUP2 \t\t\t\n      MLOAD \t\t\t\n      PUSH [tag] 265\t\t\t\n      DUP6 \t\t\t\n      DUP3 \t\t\t\n      PUSH [tag] 122\t\t\t\n      JUMP \t\t\t\n    tag 265\t\t\t\n      JUMPDEST \t\t\t\n      SWAP5 \t\t\t\n      POP \t\t\t\n      PUSH [tag] 266\t\t\t\n      DUP4 \t\t\t\n      PUSH [tag] 123\t\t\t\n      JUMP \t\t\t\n    tag 266\t\t\t\n      JUMPDEST \t\t\t\n      SWAP3 \t\t\t\n      POP \t\t\t\n      PUSH 20\t\t\t\n      DUP11 \t\t\t\n      ADD \t\t\t\n      SWAP10 \t\t\t\n      POP \t\t\t\n      POP \t\t\t\n      PUSH 1\t\t\t\n      DUP2 \t\t\t\n      ADD \t\t\t\n      SWAP1 \t\t\t\n      POP \t\t\t\n      PUSH [tag] 262\t\t\t\n      JUMP \t\t\t\n    tag 264\t\t\t\n      JUMPDEST \t\t\t\n      POP \t\t\t\n      DUP3 \t\t\t\n      SWAP8 \t\t\t\n      POP \t\t\t\n      DUP8 \t\t\t\n      SWAP6 \t\t\t\n      POP \t\t\t\n      POP \t\t\t\n      POP \t\t\t\n      POP \t\t\t\n      POP \t\t\t\n      POP \t\t\t\n      SWAP3 \t\t\t\n      SWAP2 \t\t\t\n      POP \t\t\t\n      POP \t\t\t\n      JUMP \t\t\t\n    tag 20\t\t\t\n      JUMPDEST \t\t\t\n      PUSH 0\t\t\t\n      PUSH 20\t\t\t\n      DUP3 \t\t\t\n      ADD \t\t\t\n      SWAP1 \t\t\t\n      POP \t\t\t\n      DUP2 \t\t\t\n      DUP2 \t\t\t\n      SUB \t\t\t\n      PUSH 0\t\t\t\n      DUP4 \t\t\t\n      ADD \t\t\t\n      MSTORE \t\t\t\n      PUSH [tag] 268\t\t\t\n      DUP2 \t\t\t\n      DUP5 \t\t\t\n      PUSH [tag] 124\t\t\t\n      JUMP \t\t\t\n    tag 268\t\t\t\n      JUMPDEST \t\t\t\n      SWAP1 \t\t\t\n      POP \t\t\t\n      SWAP3 \t\t\t\n      SWAP2 \t\t\t\n      POP \t\t\t\n      POP \t\t\t\n      JUMP \t\t\t\n    tag 125\t\t\t\n      JUMPDEST \t\t\t\n      PUSH 0\t\t\t\n      PUSH 60\t\t\t\n      DUP4 \t\t\t\n      ADD \t\t\t\n      PUSH 0\t\t\t\n      DUP4 \t\t\t\n      ADD \t\t\t\n      MLOAD \t\t\t\n      DUP5 \t\t\t\n      DUP3 \t\t\t\n      SUB \t\t\t\n      PUSH 0\t\t\t\n      DUP7 \t\t\t\n      ADD \t\t\t\n      MSTORE \t\t\t\n      PUSH [tag] 270\t\t\t\n      DUP3 \t\t\t\n      DUP3 \t\t\t\n      PUSH [tag] 117\t\t\t\n      JUMP \t\t\t\n    tag 270\t\t\t\n      JUMPDEST \t\t\t\n      SWAP2 \t\t\t\n      POP \t\t\t\n      POP \t\t\t\n      PUSH 20\t\t\t\n      DUP4 \t\t\t\n      ADD \t\t\t\n      MLOAD \t\t\t\n      DUP5 \t\t\t\n      DUP3 \t\t\t\n      SUB \t\t\t\n      PUSH 20\t\t\t\n      DUP7 \t\t\t\n      ADD \t\t\t\n      MSTORE \t\t\t\n      PUSH [tag] 271\t\t\t\n      DUP3 \t\t\t\n      DUP3 \t\t\t\n      PUSH [tag] 119\t\t\t\n      JUMP \t\t\t\n    tag 271\t\t\t\n      JUMPDEST \t\t\t\n      SWAP2 \t\t\t\n      POP \t\t\t\n      POP \t\t\t\n      PUSH 40\t\t\t\n      DUP4 \t\t\t\n      ADD \t\t\t\n      MLOAD \t\t\t\n      PUSH [tag] 272\t\t\t\n      PUSH 40\t\t\t\n      DUP7 \t\t\t\n      ADD \t\t\t\n      DUP3 \t\t\t\n      PUSH [tag] 120\t\t\t\n      JUMP \t\t\t\n    tag 272\t\t\t\n      JUMPDEST \t\t\t\n      POP \t\t\t\n      DUP1 \t\t\t\n      SWAP2 \t\t\t\n      POP \t\t\t\n      POP \t\t\t\n      SWAP3 \t\t\t\n      SWAP2 \t\t\t\n      POP \t\t\t\n      POP \t\t\t\n      JUMP \t\t\t\n    tag 25\t\t\t\n      JUMPDEST \t\t\t\n      PUSH 0\t\t\t\n      PUSH 20\t\t\t\n      DUP3 \t\t\t\n      ADD \t\t\t\n      SWAP1 \t\t\t\n      POP \t\t\t\n      DUP2 \t\t\t\n      DUP2 \t\t\t\n      SUB \t\t\t\n      PUSH 0\t\t\t\n      DUP4 \t\t\t\n      ADD \t\t\t\n      MSTORE \t\t\t\n      PUSH [tag] 274\t\t\t\n      DUP2 \t\t\t\n      DUP5 \t\t\t\n      PUSH [tag] 125\t\t\t\n      JUMP \t\t\t\n    tag 274\t\t\t\n      JUMPDEST \t\t\t\n      SWAP1 \t\t\t\n      POP \t\t\t\n      SWAP3 \t\t\t\n      SWAP2 \t\t\t\n      POP \t\t\t\n      POP \t\t\t\n      JUMP \t\t\t\n    tag 126\t\t\t\n      JUMPDEST \t\t\t\n      PUSH 50726F6A6563742049442069732072657175697265642E000000000000000000\t\t\t\n      PUSH 0\t\t\t\n      DUP3 \t\t\t\n      ADD \t\t\t\n      MSTORE \t\t\t\n      POP \t\t\t\n      JUMP \t\t\t\n    tag 127\t\t\t\n      JUMPDEST \t\t\t\n      PUSH 0\t\t\t\n      PUSH [tag] 277\t\t\t\n      PUSH 17\t\t\t\n      DUP4 \t\t\t\n      PUSH [tag] 106\t\t\t\n      JUMP \t\t\t\n    tag 277\t\t\t\n      JUMPDEST \t\t\t\n      SWAP2 \t\t\t\n      POP \t\t\t\n      PUSH [tag] 278\t\t\t\n      DUP3 \t\t\t\n      PUSH [tag] 126\t\t\t\n      JUMP \t\t\t\n    tag 278\t\t\t\n      JUMPDEST \t\t\t\n      PUSH 20\t\t\t\n      DUP3 \t\t\t\n      ADD \t\t\t\n      SWAP1 \t\t\t\n      POP \t\t\t\n      SWAP2 \t\t\t\n      SWAP1 \t\t\t\n      POP \t\t\t\n      JUMP \t\t\t\n    tag 29\t\t\t\n      JUMPDEST \t\t\t\n      PUSH 0\t\t\t\n      PUSH 20\t\t\t\n      DUP3 \t\t\t\n      ADD \t\t\t\n      SWAP1 \t\t\t\n      POP \t\t\t\n      DUP2 \t\t\t\n      DUP2 \t\t\t\n      SUB \t\t\t\n      PUSH 0\t\t\t\n      DUP4 \t\t\t\n      ADD \t\t\t\n      MSTORE \t\t\t\n      PUSH [tag] 280\t\t\t\n      DUP2 \t\t\t\n      PUSH [tag] 127\t\t\t\n      JUMP \t\t\t\n    tag 280\t\t\t\n      JUMPDEST \t\t\t\n      SWAP1 \t\t\t\n      POP \t\t\t\n      SWAP2 \t\t\t\n      SWAP1 \t\t\t\n      POP \t\t\t\n      JUMP \t\t\t\n    tag 128\t\t\t\n      JUMPDEST \t\t\t\n      PUSH 56616C756174696F6E2068617368206D7573742062652033322062797465732E\t\t\t\n      PUSH 0\t\t\t\n      DUP3 \t\t\t\n      ADD \t\t\t\n      MSTORE \t\t\t\n      POP \t\t\t\n      JUMP \t\t\t\n    tag 129\t\t\t\n      JUMPDEST \t\t\t\n      PUSH 0\t\t\t\n      PUSH [tag] 283\t\t\t\n      PUSH 20\t\t\t\n      DUP4 \t\t\t\n      PUSH [tag] 106\t\t\t\n      JUMP \t\t\t\n    tag 283\t\t\t\n      JUMPDEST \t\t\t\n      SWAP2 \t\t\t\n      POP \t\t\t\n      PUSH [tag] 284\t\t\t\n      DUP3 \t\t\t\n      PUSH [tag] 128\t\t\t\n      JUMP \t\t\t\n    tag 284\t\t\t\n      JUMPDEST \t\t\t\n      PUSH 20\t\t\t\n      DUP3 \t\t\t\n      ADD \t\t\t\n      SWAP1 \t\t\t\n      POP \t\t\t\n      SWAP2 \t\t\t\n      SWAP1 \t\t\t\n      POP \t\t\t\n      JUMP \t\t\t\n    tag 32\t\t\t\n      JUMPDEST \t\t\t\n      PUSH 0\t\t\t\n      PUSH 20\t\t\t\n      DUP3 \t\t\t\n      ADD \t\t\t\n      SWAP1 \t\t\t\n      POP \t\t\t\n      DUP2 \t\t\t\n      DUP2 \t\t\t\n      SUB \t\t\t\n      PUSH 0\t\t\t\n      DUP4 \t\t\t\n      ADD \t\t\t\n      MSTORE \t\t\t\n      PUSH [tag] 286\t\t\t\n      DUP2 \t\t\t\n      PUSH [tag] 129\t\t\t\n      JUMP \t\t\t\n    tag 286\t\t\t\n      JUMPDEST \t\t\t\n      SWAP1 \t\t\t\n      POP \t\t\t\n      SWAP2 \t\t\t\n      SWAP1 \t\t\t\n      POP \t\t\t\n      JUMP \t\t\t\n    tag 130\t\t\t\n      JUMPDEST \t\t\t\n      PUSH 4E487B7100000000000000000000000000000000000000000000000000000000\t\t\t\n      PUSH 0\t\t\t\n      MSTORE \t\t\t\n      PUSH 22\t\t\t\n      PUSH 4\t\t\t\n      MSTORE \t\t\t\n      PUSH 24\t\t\t\n      PUSH 0\t\t\t\n      REVERT \t\t\t\n    tag 42\t\t\t\n      JUMPDEST \t\t\t\n      PUSH 0\t\t\t\n      PUSH 2\t\t\t\n      DUP3 \t\t\t\n      DIV \t\t\t\n      SWAP1 \t\t\t\n      POP \t\t\t\n      PUSH 1\t\t\t\n      DUP3 \t\t\t\n      AND \t\t\t\n      DUP1 \t\t\t\n      PUSH [tag] 289\t\t\t\n      JUMPI \t\t\t\n      PUSH 7F\t\t\t\n      DUP3 \t\t\t\n      AND \t\t\t\n      SWAP2 \t\t\t\n      POP \t\t\t\n    tag 289\t\t\t\n      JUMPDEST \t\t\t\n      PUSH 20\t\t\t\n      DUP3 \t\t\t\n      LT \t\t\t\n      DUP2 \t\t\t\n      SUB \t\t\t\n      PUSH [tag] 290\t\t\t\n      JUMPI \t\t\t\n      PUSH [tag] 291\t\t\t\n      PUSH [tag] 130\t\t\t\n      JUMP \t\t\t\n    tag 291\t\t\t\n      JUMPDEST \t\t\t\n    tag 290\t\t\t\n      JUMPDEST \t\t\t\n      POP \t\t\t\n      SWAP2 \t\t\t\n      SWAP1 \t\t\t\n      POP \t\t\t\n      JUMP \t\t\t\n    tag 131\t\t\t\n      JUMPDEST \t\t\t\n      PUSH 0\t\t\t\n      DUP2 \t\t\t\n      SWAP1 \t\t\t\n      POP \t\t\t\n      DUP2 \t\t\t\n      PUSH 0\t\t\t\n      MSTORE \t\t\t\n      PUSH 20\t\t\t\n      PUSH 0\t\t\t\n      KECCAK256 \t\t\t\n      SWAP1 \t\t\t\n      POP \t\t\t\n      SWAP2 \t\t\t\n      SWAP1 \t\t\t\n      POP \t\t\t\n      JUMP \t\t\t\n    tag 132\t\t\t\n      JUMPDEST \t\t\t\n      PUSH 0\t\t\t\n      PUSH 20\t\t\t\n      PUSH 1F\t\t\t\n      DUP4 \t\t\t\n      ADD \t\t\t\n      DIV \t\t\t\n      SWAP1 \t\t\t\n      POP \t\t\t\n      SWAP2 \t\t\t\n      SWAP1 \t\t\t\n      POP \t\t\t\n      JUMP \t\t\t\n    tag 133\t\t\t\n      JUMPDEST \t\t\t\n      PUSH 0\t\t\t\n      DUP3 \t\t\t\n      DUP3 \t\t\t\n      SHL \t\t\t\n      SWAP1 \t\t\t\n      POP \t\t\t\n      SWAP3 \t\t\t\n      SWAP2 \t\t\t\n      POP \t\t\t\n      POP \t\t\t\n      JUMP \t\t\t\n    tag 134\t\t\t\n      JUMPDEST \t\t\t\n      PUSH 0\t\t\t\n      PUSH 8\t\t\t\n      DUP4 \t\t\t\n      MUL \t\t\t\n      PUSH [tag] 296\t\t\t\n      PUSH FFFFFFFFFFFFFFFFFFFFFFFFFFFFFFFFFFFFFFFFFFFFFFFFFFFFFFFFFFFFFFFF\t\t\t\n      DUP3 \t\t\t\n      PUSH [tag] 133\t\t\t\n      JUMP \t\t\t\n    tag 296\t\t\t\n      JUMPDEST \t\t\t\n      PUSH [tag] 297\t\t\t\n      DUP7 \t\t\t\n      DUP4 \t\t\t\n      PUSH [tag] 133\t\t\t\n      JUMP \t\t\t\n    tag 297\t\t\t\n      JUMPDEST \t\t\t\n      SWAP6 \t\t\t\n      POP \t\t\t\n      DUP1 \t\t\t\n      NOT \t\t\t\n      DUP5 \t\t\t\n      AND \t\t\t\n      SWAP4 \t\t\t\n      POP \t\t\t\n      DUP1 \t\t\t\n      DUP7 \t\t\t\n      AND \t\t\t\n      DUP5 \t\t\t\n      OR \t\t\t\n      SWAP3 \t\t\t\n      POP \t\t\t\n      POP \t\t\t\n      POP \t\t\t\n      SWAP4 \t\t\t\n      SWAP3 \t\t\t\n      POP \t\t\t\n      POP \t\t\t\n      POP \t\t\t\n      JUMP \t\t\t\n    tag 135\t\t\t\n      JUMPDEST \t\t\t\n      PUSH 0\t\t\t\n      DUP2 \t\t\t\n      SWAP1 \t\t\t\n      POP \t\t\t\n      SWAP2 \t\t\t\n      SWAP1 \t\t\t\n      POP \t\t\t\n      JUMP \t\t\t\n    tag 136\t\t\t\n      JUMPDEST \t\t\t\n      PUSH 0\t\t\t\n      PUSH [tag] 300\t\t\t\n      PUSH [tag] 301\t\t\t\n      PUSH [tag] 302\t\t\t\n      DUP5 \t\t\t\n      PUSH [tag] 102\t\t\t\n      JUMP \t\t\t\n    tag 302\t\t\t\n      JUMPDEST \t\t\t\n      PUSH [tag] 135\t\t\t\n      JUMP \t\t\t\n    tag 301\t\t\t\n      JUMPDEST \t\t\t\n      PUSH [tag] 102\t\t\t\n      JUMP \t\t\t\n    tag 300\t\t\t\n      JUMPDEST \t\t\t\n      SWAP1 \t\t\t\n      POP \t\t\t\n      SWAP2 \t\t\t\n      SWAP1 \t\t\t\n      POP \t\t\t\n      JUMP \t\t\t\n    tag 137\t\t\t\n      JUMPDEST \t\t\t\n      PUSH 0\t\t\t\n      DUP2 \t\t\t\n      SWAP1 \t\t\t\n      POP \t\t\t\n      SWAP2 \t\t\t\n      SWAP1 \t\t\t\n      POP \t\t\t\n      JUMP \t\t\t\n    tag 138\t\t\t\n      JUMPDEST \t\t\t\n      PUSH [tag] 305\t\t\t\n      DUP4 \t\t\t\n      PUSH [tag] 136\t\t\t\n      JUMP \t\t\t\n    tag 305\t\t\t\n      JUMPDEST \t\t\t\n      PUSH [tag] 306\t\t\t\n      PUSH [tag] 307\t\t\t\n      DUP3 \t\t\t\n      PUSH [tag] 137\t\t\t\n      JUMP \t\t\t\n    tag 307\t\t\t\n      JUMPDEST \t\t\t\n      DUP5 \t\t\t\n      DUP5 \t\t\t\n      SLOAD \t\t\t\n      PUSH [tag] 134\t\t\t\n      JUMP \t\t\t\n    tag 306\t\t\t\n      JUMPDEST \t\t\t\n      DUP3 \t\t\t\n      SSTORE \t\t\t\n      POP \t\t\t\n      POP \t\t\t\n      POP \t\t\t\n      POP \t\t\t\n      JUMP \t\t\t\n    tag 139\t\t\t\n      JUMPDEST \t\t\t\n      PUSH 0\t\t\t\n      SWAP1 \t\t\t\n      JUMP \t\t\t\n    tag 140\t\t\t\n      JUMPDEST \t\t\t\n      PUSH [tag] 310\t\t\t\n      PUSH [tag] 139\t\t\t\n      JUMP \t\t\t\n    tag 310\t\t\t\n      JUMPDEST \t\t\t\n      PUSH [tag] 311\t\t\t\n      DUP2 \t\t\t\n      DUP5 \t\t\t\n      DUP5 \t\t\t\n      PUSH [tag] 138\t\t\t\n      JUMP \t\t\t\n    tag 311\t\t\t\n      JUMPDEST \t\t\t\n      POP \t\t\t\n      POP \t\t\t\n      POP \t\t\t\n      JUMP \t\t\t\n    tag 141\t\t\t\n      JUMPDEST \t\t\t\n    tag 313\t\t\t\n      JUMPDEST \t\t\t\n      DUP2 \t\t\t\n      DUP2 \t\t\t\n      LT \t\t\t\n      ISZERO \t\t\t\n      PUSH [tag] 315\t\t\t\n      JUMPI \t\t\t\n      PUSH [tag] 316\t\t\t\n      PUSH 0\t\t\t\n      DUP3 \t\t\t\n      PUSH [tag] 140\t\t\t\n      JUMP \t\t\t\n    tag 316\t\t\t\n      JUMPDEST \t\t\t\n      PUSH 1\t\t\t\n      DUP2 \t\t\t\n      ADD \t\t\t\n      SWAP1 \t\t\t\n      POP \t\t\t\n      PUSH [tag] 313\t\t\t\n      JUMP \t\t\t\n    tag 315\t\t\t\n      JUMPDEST \t\t\t\n      POP \t\t\t\n      POP \t\t\t\n      JUMP \t\t\t\n    tag 142\t\t\t\n      JUMPDEST \t\t\t\n      PUSH 1F\t\t\t\n      DUP3 \t\t\t\n      GT \t\t\t\n      ISZERO \t\t\t\n      PUSH [tag] 318\t\t\t\n      JUMPI \t\t\t\n      PUSH [tag] 319\t\t\t\n      DUP2 \t\t\t\n      PUSH [tag] 131\t\t\t\n      JUMP \t\t\t\n    tag 319\t\t\t\n      JUMPDEST \t\t\t\n      PUSH [tag] 320\t\t\t\n      DUP5 \t\t\t\n      PUSH [tag] 132\t\t\t\n      JUMP \t\t\t\n    tag 320\t\t\t\n      JUMPDEST \t\t\t\n      DUP2 \t\t\t\n      ADD \t\t\t\n      PUSH 20\t\t\t\n      DUP6 \t\t\t\n      LT \t\t\t\n      ISZERO \t\t\t\n      PUSH [tag] 321\t\t\t\n      JUMPI \t\t\t\n      DUP2 \t\t\t\n      SWAP1 \t\t\t\n      POP \t\t\t\n    tag 321\t\t\t\n      JUMPDEST \t\t\t\n      PUSH [tag] 322\t\t\t\n      PUSH [tag] 323\t\t\t\n      DUP6 \t\t\t\n      PUSH [tag] 132\t\t\t\n      JUMP \t\t\t\n    tag 323\t\t\t\n      JUMPDEST \t\t\t\n      DUP4 \t\t\t\n      ADD \t\t\t\n      DUP3 \t\t\t\n      PUSH [tag] 141\t\t\t\n      JUMP \t\t\t\n    tag 322\t\t\t\n      JUMPDEST \t\t\t\n      POP \t\t\t\n      POP \t\t\t\n    tag 318\t\t\t\n      JUMPDEST \t\t\t\n      POP \t\t\t\n      POP \t\t\t\n      POP \t\t\t\n      JUMP \t\t\t\n    tag 143\t\t\t\n      JUMPDEST \t\t\t\n      PUSH 0\t\t\t\n      DUP3 \t\t\t\n      DUP3 \t\t\t\n      SHR \t\t\t\n      SWAP1 \t\t\t\n      POP \t\t\t\n      SWAP3 \t\t\t\n      SWAP2 \t\t\t\n      POP \t\t\t\n      POP \t\t\t\n      JUMP \t\t\t\n    tag 144\t\t\t\n      JUMPDEST \t\t\t\n      PUSH 0\t\t\t\n      PUSH [tag] 326\t\t\t\n      PUSH 0\t\t\t\n      NOT \t\t\t\n      DUP5 \t\t\t\n      PUSH 8\t\t\t\n      MUL \t\t\t\n      PUSH [tag] 143\t\t\t\n      JUMP \t\t\t\n    tag 326\t\t\t\n      JUMPDEST \t\t\t\n      NOT \t\t\t\n      DUP1 \t\t\t\n      DUP4 \t\t\t\n      AND \t\t\t\n      SWAP2 \t\t\t\n      POP \t\t\t\n      POP \t\t\t\n      SWAP3 \t\t\t\n      SWAP2 \t\t\t\n      POP \t\t\t\n      POP \t\t\t\n      JUMP \t\t\t\n    tag 145\t\t\t\n      JUMPDEST \t\t\t\n      PUSH 0\t\t\t\n      PUSH [tag] 328\t\t\t\n      DUP4 \t\t\t\n      DUP4 \t\t\t\n      PUSH [tag] 144\t\t\t\n      JUMP \t\t\t\n    tag 328\t\t\t\n      JUMPDEST \t\t\t\n      SWAP2 \t\t\t\n      POP \t\t\t\n      DUP3 \t\t\t\n      PUSH 2\t\t\t\n      MUL \t\t\t\n      DUP3 \t\t\t\n      OR \t\t\t\n      SWAP1 \t\t\t\n      POP \t\t\t\n      SWAP3 \t\t\t\n      SWAP2 \t\t\t\n      POP \t\t\t\n      POP \t\t\t\n      JUMP \t\t\t\n    tag 35\t\t\t\n      JUMPDEST \t\t\t\n      PUSH [tag] 330\t\t\t\n      DUP3 \t\t\t\n      PUSH [tag] 105\t\t\t\n      JUMP \t\t\t\n    tag 330\t\t\t\n      JUMPDEST \t\t\t\n      PUSH FFFFFFFFFFFFFFFF\t\t\t\n      DUP2 \t\t\t\n      GT \t\t\t\n      ISZERO \t\t\t\n      PUSH [tag] 331\t\t\t\n      JUMPI \t\t\t\n      PUSH [tag] 332\t\t\t\n      PUSH [tag] 92\t\t\t\n      JUMP \t\t\t\n    tag 332\t\t\t\n      JUMPDEST \t\t\t\n    tag 331\t\t\t\n      JUMPDEST \t\t\t\n      PUSH [tag] 333\t\t\t\n      DUP3 \t\t\t\n      SLOAD \t\t\t\n      PUSH [tag] 42\t\t\t\n      JUMP \t\t\t\n    tag 333\t\t\t\n      JUMPDEST \t\t\t\n      PUSH [tag] 334\t\t\t\n      DUP3 \t\t\t\n      DUP3 \t\t\t\n      DUP6 \t\t\t\n      PUSH [tag] 142\t\t\t\n      JUMP \t\t\t\n    tag 334\t\t\t\n      JUMPDEST \t\t\t\n      PUSH 0\t\t\t\n      PUSH 20\t\t\t\n      SWAP1 \t\t\t\n      POP \t\t\t\n      PUSH 1F\t\t\t\n      DUP4 \t\t\t\n      GT \t\t\t\n      PUSH 1\t\t\t\n      DUP2 \t\t\t\n      EQ \t\t\t\n      PUSH [tag] 336\t\t\t\n      JUMPI \t\t\t\n      PUSH 0\t\t\t\n      DUP5 \t\t\t\n      ISZERO \t\t\t\n      PUSH [tag] 337\t\t\t\n      JUMPI \t\t\t\n      DUP3 \t\t\t\n      DUP8 \t\t\t\n      ADD \t\t\t\n      MLOAD \t\t\t\n      SWAP1 \t\t\t\n      POP \t\t\t\n    tag 337\t\t\t\n      JUMPDEST \t\t\t\n      PUSH [tag] 338\t\t\t\n      DUP6 \t\t\t\n      DUP3 \t\t\t\n      PUSH [tag] 145\t\t\t\n      JUMP \t\t\t\n    tag 338\t\t\t\n      JUMPDEST \t\t\t\n      DUP7 \t\t\t\n      SSTORE \t\t\t\n      POP \t\t\t\n      PUSH [tag] 335\t\t\t\n      JUMP \t\t\t\n    tag 336\t\t\t\n      JUMPDEST \t\t\t\n      PUSH 1F\t\t\t\n      NOT \t\t\t\n      DUP5 \t\t\t\n      AND \t\t\t\n      PUSH [tag] 339\t\t\t\n      DUP7 \t\t\t\n      PUSH [tag] 131\t\t\t\n      JUMP \t\t\t\n    tag 339\t\t\t\n      JUMPDEST \t\t\t\n      PUSH 0\t\t\t\n    tag 340\t\t\t\n      JUMPDEST \t\t\t\n      DUP3 \t\t\t\n      DUP2 \t\t\t\n      LT \t\t\t\n      ISZERO \t\t\t\n      PUSH [tag] 342\t\t\t\n      JUMPI \t\t\t\n      DUP5 \t\t\t\n      DUP10 \t\t\t\n      ADD \t\t\t\n      MLOAD \t\t\t\n      DUP3 \t\t\t\n      SSTORE \t\t\t\n      PUSH 1\t\t\t\n      DUP3 \t\t\t\n      ADD \t\t\t\n      SWAP2 \t\t\t\n      POP \t\t\t\n      PUSH 20\t\t\t\n      DUP6 \t\t\t\n      ADD \t\t\t\n      SWAP5 \t\t\t\n      POP \t\t\t\n      PUSH 20\t\t\t\n      DUP2 \t\t\t\n      ADD \t\t\t\n      SWAP1 \t\t\t\n      POP \t\t\t\n      PUSH [tag] 340\t\t\t\n      JUMP \t\t\t\n    tag 342\t\t\t\n      JUMPDEST \t\t\t\n      DUP7 \t\t\t\n      DUP4 \t\t\t\n      LT \t\t\t\n      ISZERO \t\t\t\n      PUSH [tag] 343\t\t\t\n      JUMPI \t\t\t\n      DUP5 \t\t\t\n      DUP10 \t\t\t\n      ADD \t\t\t\n      MLOAD \t\t\t\n      PUSH [tag] 344\t\t\t\n      PUSH 1F\t\t\t\n      DUP10 \t\t\t\n      AND \t\t\t\n      DUP3 \t\t\t\n      PUSH [tag] 144\t\t\t\n      JUMP \t\t\t\n    tag 344\t\t\t\n      JUMPDEST \t\t\t\n      DUP4 \t\t\t\n      SSTORE \t\t\t\n      POP \t\t\t\n    tag 343\t\t\t\n      JUMPDEST \t\t\t\n      PUSH 1\t\t\t\n      PUSH 2\t\t\t\n      DUP9 \t\t\t\n      MUL \t\t\t\n      ADD \t\t\t\n      DUP9 \t\t\t\n      SSTORE \t\t\t\n      POP \t\t\t\n      POP \t\t\t\n      POP \t\t\t\n    tag 335\t\t\t\n      JUMPDEST \t\t\t\n      POP \t\t\t\n      POP \t\t\t\n      POP \t\t\t\n      POP \t\t\t\n      POP \t\t\t\n      POP \t\t\t\n      JUMP \t\t\t\n    tag 146\t\t\t\n      JUMPDEST \t\t\t\n      PUSH 0\t\t\t\n      DUP2 \t\t\t\n      SWAP1 \t\t\t\n      POP \t\t\t\n      DUP2 \t\t\t\n      PUSH 0\t\t\t\n      MSTORE \t\t\t\n      PUSH 20\t\t\t\n      PUSH 0\t\t\t\n      KECCAK256 \t\t\t\n      SWAP1 \t\t\t\n      POP \t\t\t\n      SWAP2 \t\t\t\n      SWAP1 \t\t\t\n      POP \t\t\t\n      JUMP \t\t\t\n    tag 147\t\t\t\n      JUMPDEST \t\t\t\n      PUSH 1F\t\t\t\n      DUP3 \t\t\t\n      GT \t\t\t\n      ISZERO \t\t\t\n      PUSH [tag] 347\t\t\t\n      JUMPI \t\t\t\n      PUSH [tag] 348\t\t\t\n      DUP2 \t\t\t\n      PUSH [tag] 146\t\t\t\n      JUMP \t\t\t\n    tag 348\t\t\t\n      JUMPDEST \t\t\t\n      PUSH [tag] 349\t\t\t\n      DUP5 \t\t\t\n      PUSH [tag] 132\t\t\t\n      JUMP \t\t\t\n    tag 349\t\t\t\n      JUMPDEST \t\t\t\n      DUP2 \t\t\t\n      ADD \t\t\t\n      PUSH 20\t\t\t\n      DUP6 \t\t\t\n      LT \t\t\t\n      ISZERO \t\t\t\n      PUSH [tag] 350\t\t\t\n      JUMPI \t\t\t\n      DUP2 \t\t\t\n      SWAP1 \t\t\t\n      POP \t\t\t\n    tag 350\t\t\t\n      JUMPDEST \t\t\t\n      PUSH [tag] 351\t\t\t\n      PUSH [tag] 352\t\t\t\n      DUP6 \t\t\t\n      PUSH [tag] 132\t\t\t\n      JUMP \t\t\t\n    tag 352\t\t\t\n      JUMPDEST \t\t\t\n      DUP4 \t\t\t\n      ADD \t\t\t\n      DUP3 \t\t\t\n      PUSH [tag] 141\t\t\t\n      JUMP \t\t\t\n    tag 351\t\t\t\n      JUMPDEST \t\t\t\n      POP \t\t\t\n      POP \t\t\t\n    tag 347\t\t\t\n      JUMPDEST \t\t\t\n      POP \t\t\t\n      POP \t\t\t\n      POP \t\t\t\n      JUMP \t\t\t\n    tag 37\t\t\t\n      JUMPDEST \t\t\t\n      PUSH [tag] 354\t\t\t\n      DUP3 \t\t\t\n      PUSH [tag] 109\t\t\t\n      JUMP \t\t\t\n    tag 354\t\t\t\n      JUMPDEST \t\t\t\n      PUSH FFFFFFFFFFFFFFFF\t\t\t\n      DUP2 \t\t\t\n      GT \t\t\t\n      ISZERO \t\t\t\n      PUSH [tag] 355\t\t\t\n      JUMPI \t\t\t\n      PUSH [tag] 356\t\t\t\n      PUSH [tag] 92\t\t\t\n      JUMP \t\t\t\n    tag 356\t\t\t\n      JUMPDEST \t\t\t\n    tag 355\t\t\t\n      JUMPDEST \t\t\t\n      PUSH [tag] 357\t\t\t\n      DUP3 \t\t\t\n      SLOAD \t\t\t\n      PUSH [tag] 42\t\t\t\n      JUMP \t\t\t\n    tag 357\t\t\t\n      JUMPDEST \t\t\t\n      PUSH [tag] 358\t\t\t\n      DUP3 \t\t\t\n      DUP3 \t\t\t\n      DUP6 \t\t\t\n      PUSH [tag] 147\t\t\t\n      JUMP \t\t\t\n    tag 358\t\t\t\n      JUMPDEST \t\t\t\n      PUSH 0\t\t\t\n      PUSH 20\t\t\t\n      SWAP1 \t\t\t\n      POP \t\t\t\n      PUSH 1F\t\t\t\n      DUP4 \t\t\t\n      GT \t\t\t\n      PUSH 1\t\t\t\n      DUP2 \t\t\t\n      EQ \t\t\t\n      PUSH [tag] 360\t\t\t\n      JUMPI \t\t\t\n      PUSH 0\t\t\t\n      DUP5 \t\t\t\n      ISZERO \t\t\t\n      PUSH [tag] 361\t\t\t\n      JUMPI \t\t\t\n      DUP3 \t\t\t\n      DUP8 \t\t\t\n      ADD \t\t\t\n      MLOAD \t\t\t\n      SWAP1 \t\t\t\n      POP \t\t\t\n    tag 361\t\t\t\n      JUMPDEST \t\t\t\n      PUSH [tag] 362\t\t\t\n      DUP6 \t\t\t\n      DUP3 \t\t\t\n      PUSH [tag] 145\t\t\t\n      JUMP \t\t\t\n    tag 362\t\t\t\n      JUMPDEST \t\t\t\n      DUP7 \t\t\t\n      SSTORE \t\t\t\n      POP \t\t\t\n      PUSH [tag] 359\t\t\t\n      JUMP \t\t\t\n    tag 360\t\t\t\n      JUMPDEST \t\t\t\n      PUSH 1F\t\t\t\n      NOT \t\t\t\n      DUP5 \t\t\t\n      AND \t\t\t\n      PUSH [tag] 363\t\t\t\n      DUP7 \t\t\t\n      PUSH [tag] 146\t\t\t\n      JUMP \t\t\t\n    tag 363\t\t\t\n      JUMPDEST \t\t\t\n      PUSH 0\t\t\t\n    tag 364\t\t\t\n      JUMPDEST \t\t\t\n      DUP3 \t\t\t\n      DUP2 \t\t\t\n      LT \t\t\t\n      ISZERO \t\t\t\n      PUSH [tag] 366\t\t\t\n      JUMPI \t\t\t\n      DUP5 \t\t\t\n      DUP10 \t\t\t\n      ADD \t\t\t\n      MLOAD \t\t\t\n      DUP3 \t\t\t\n      SSTORE \t\t\t\n      PUSH 1\t\t\t\n      DUP3 \t\t\t\n      ADD \t\t\t\n      SWAP2 \t\t\t\n      POP \t\t\t\n      PUSH 20\t\t\t\n      DUP6 \t\t\t\n      ADD \t\t\t\n      SWAP5 \t\t\t\n      POP \t\t\t\n      PUSH 20\t\t\t\n      DUP2 \t\t\t\n      ADD \t\t\t\n      SWAP1 \t\t\t\n      POP \t\t\t\n      PUSH [tag] 364\t\t\t\n      JUMP \t\t\t\n    tag 366\t\t\t\n      JUMPDEST \t\t\t\n      DUP7 \t\t\t\n      DUP4 \t\t\t\n      LT \t\t\t\n      ISZERO \t\t\t\n      PUSH [tag] 367\t\t\t\n      JUMPI \t\t\t\n      DUP5 \t\t\t\n      DUP10 \t\t\t\n      ADD \t\t\t\n      MLOAD \t\t\t\n      PUSH [tag] 368\t\t\t\n      PUSH 1F\t\t\t\n      DUP10 \t\t\t\n      AND \t\t\t\n      DUP3 \t\t\t\n      PUSH [tag] 144\t\t\t\n      JUMP \t\t\t\n    tag 368\t\t\t\n      JUMPDEST \t\t\t\n      DUP4 \t\t\t\n      SSTORE \t\t\t\n      POP \t\t\t\n    tag 367\t\t\t\n      JUMPDEST \t\t\t\n      PUSH 1\t\t\t\n      PUSH 2\t\t\t\n      DUP9 \t\t\t\n      MUL \t\t\t\n      ADD \t\t\t\n      DUP9 \t\t\t\n      SSTORE \t\t\t\n      POP \t\t\t\n      POP \t\t\t\n      POP \t\t\t\n    tag 359\t\t\t\n      JUMPDEST \t\t\t\n      POP \t\t\t\n      POP \t\t\t\n      POP \t\t\t\n      POP \t\t\t\n      POP \t\t\t\n      POP \t\t\t\n      JUMP \t\t\t\n    tag 148\t\t\t\n      JUMPDEST \t\t\t\n      PUSH 56616C756174696F6E20646F6573206E6F742065786973742E00000000000000\t\t\t\n      PUSH 0\t\t\t\n      DUP3 \t\t\t\n      ADD \t\t\t\n      MSTORE \t\t\t\n      POP \t\t\t\n      JUMP \t\t\t\n    tag 149\t\t\t\n      JUMPDEST \t\t\t\n      PUSH 0\t\t\t\n      PUSH [tag] 371\t\t\t\n      PUSH 19\t\t\t\n      DUP4 \t\t\t\n      PUSH [tag] 106\t\t\t\n      JUMP \t\t\t\n    tag 371\t\t\t\n      JUMPDEST \t\t\t\n      SWAP2 \t\t\t\n      POP \t\t\t\n      PUSH [tag] 372\t\t\t\n      DUP3 \t\t\t\n      PUSH [tag] 148\t\t\t\n      JUMP \t\t\t\n    tag 372\t\t\t\n      JUMPDEST \t\t\t\n      PUSH 20\t\t\t\n      DUP3 \t\t\t\n      ADD \t\t\t\n      SWAP1 \t\t\t\n      POP \t\t\t\n      SWAP2 \t\t\t\n      SWAP1 \t\t\t\n      POP \t\t\t\n      JUMP \t\t\t\n    tag 71\t\t\t\n      JUMPDEST \t\t\t\n      PUSH 0\t\t\t\n      PUSH 20\t\t\t\n      DUP3 \t\t\t\n      ADD \t\t\t\n      SWAP1 \t\t\t\n      POP \t\t\t\n      DUP2 \t\t\t\n      DUP2 \t\t\t\n      SUB \t\t\t\n      PUSH 0\t\t\t\n      DUP4 \t\t\t\n      ADD \t\t\t\n      MSTORE \t\t\t\n      PUSH [tag] 374\t\t\t\n      DUP2 \t\t\t\n      PUSH [tag] 149\t\t\t\n      JUMP \t\t\t\n    tag 374\t\t\t\n      JUMPDEST \t\t\t\n      SWAP1 \t\t\t\n      POP \t\t\t\n      SWAP2 \t\t\t\n      SWAP1 \t\t\t\n      POP \t\t\t\n      JUMP \t\t\t\n    tag 74\t\t\t\n      JUMPDEST \t\t\t\n      PUSH 4E487B7100000000000000000000000000000000000000000000000000000000\t\t\t\n      PUSH 0\t\t\t\n      MSTORE \t\t\t\n      PUSH 32\t\t\t\n      PUSH 4\t\t\t\n      MSTORE \t\t\t\n      PUSH 24\t\t\t\n      PUSH 0\t\t\t\n      REVERT \t\t\t\n    .data\n"
}